{
  "abi": [
    {
      "inputs": [
        {
          "internalType": "address",
          "name": "_defaultAdmin",
          "type": "address"
        },
        {
          "internalType": "string",
          "name": "_name",
          "type": "string"
        },
        {
          "internalType": "string",
          "name": "_symbol",
          "type": "string"
        },
        {
          "internalType": "address",
          "name": "_royaltyRecipient",
          "type": "address"
        },
        {
          "internalType": "uint128",
          "name": "_royaltyBps",
          "type": "uint128"
        }
      ],
      "stateMutability": "nonpayable",
      "type": "constructor"
    },
    {
      "inputs": [],
      "name": "ApprovalCallerNotOwnerNorApproved",
      "type": "error"
    },
    {
      "inputs": [],
      "name": "ApprovalQueryForNonexistentToken",
      "type": "error"
    },
    {
      "inputs": [],
      "name": "ApprovalToCurrentOwner",
      "type": "error"
    },
    {
      "inputs": [],
      "name": "ApproveToCaller",
      "type": "error"
    },
    {
      "inputs": [],
      "name": "BalanceQueryForZeroAddress",
      "type": "error"
    },
    {
      "inputs": [
        {
          "internalType": "uint256",
          "name": "index",
          "type": "uint256"
        }
      ],
      "name": "BatchMintInvalidBatchId",
      "type": "error"
    },
    {
      "inputs": [
        {
          "internalType": "uint256",
          "name": "tokenId",
          "type": "uint256"
        }
      ],
      "name": "BatchMintInvalidTokenId",
      "type": "error"
    },
    {
      "inputs": [
        {
          "internalType": "uint256",
          "name": "batchId",
          "type": "uint256"
        }
      ],
      "name": "BatchMintMetadataFrozen",
      "type": "error"
    },
    {
      "inputs": [],
      "name": "ContractMetadataUnauthorized",
      "type": "error"
    },
    {
      "inputs": [],
      "name": "InvalidQueryRange",
      "type": "error"
    },
    {
      "inputs": [],
      "name": "MintToZeroAddress",
      "type": "error"
    },
    {
      "inputs": [],
      "name": "MintZeroQuantity",
      "type": "error"
    },
    {
      "inputs": [],
      "name": "OwnableUnauthorized",
      "type": "error"
    },
    {
      "inputs": [],
      "name": "OwnerQueryForNonexistentToken",
      "type": "error"
    },
    {
      "inputs": [
        {
          "internalType": "uint256",
          "name": "max",
          "type": "uint256"
        },
        {
          "internalType": "uint256",
          "name": "actual",
          "type": "uint256"
        }
      ],
      "name": "RoyaltyExceededMaxFeeBps",
      "type": "error"
    },
    {
      "inputs": [
        {
          "internalType": "address",
          "name": "recipient",
          "type": "address"
        }
      ],
      "name": "RoyaltyInvalidRecipient",
      "type": "error"
    },
    {
      "inputs": [],
      "name": "RoyaltyUnauthorized",
      "type": "error"
    },
    {
      "inputs": [],
      "name": "TransferCallerNotOwnerNorApproved",
      "type": "error"
    },
    {
      "inputs": [],
      "name": "TransferFromIncorrectOwner",
      "type": "error"
    },
    {
      "inputs": [],
      "name": "TransferToNonERC721ReceiverImplementer",
      "type": "error"
    },
    {
      "inputs": [],
      "name": "TransferToZeroAddress",
      "type": "error"
    },
    {
      "inputs": [],
      "name": "URIQueryForNonexistentToken",
      "type": "error"
    },
    {
      "anonymous": false,
      "inputs": [
        {
          "indexed": true,
          "internalType": "address",
          "name": "owner",
          "type": "address"
        },
        {
          "indexed": true,
          "internalType": "address",
          "name": "approved",
          "type": "address"
        },
        {
          "indexed": true,
          "internalType": "uint256",
          "name": "tokenId",
          "type": "uint256"
        }
      ],
      "name": "Approval",
      "type": "event"
    },
    {
      "anonymous": false,
      "inputs": [
        {
          "indexed": true,
          "internalType": "address",
          "name": "owner",
          "type": "address"
        },
        {
          "indexed": true,
          "internalType": "address",
          "name": "operator",
          "type": "address"
        },
        {
          "indexed": false,
          "internalType": "bool",
          "name": "approved",
          "type": "bool"
        }
      ],
      "name": "ApprovalForAll",
      "type": "event"
    },
    {
      "anonymous": false,
      "inputs": [
        {
          "indexed": false,
          "internalType": "uint256",
          "name": "_fromTokenId",
          "type": "uint256"
        },
        {
          "indexed": false,
          "internalType": "uint256",
          "name": "_toTokenId",
          "type": "uint256"
        }
      ],
      "name": "BatchMetadataUpdate",
      "type": "event"
    },
    {
      "anonymous": false,
      "inputs": [
        {
          "indexed": false,
          "internalType": "string",
          "name": "prevURI",
          "type": "string"
        },
        {
          "indexed": false,
          "internalType": "string",
          "name": "newURI",
          "type": "string"
        }
      ],
      "name": "ContractURIUpdated",
      "type": "event"
    },
    {
      "anonymous": false,
      "inputs": [
        {
          "indexed": true,
          "internalType": "address",
          "name": "newRoyaltyRecipient",
          "type": "address"
        },
        {
          "indexed": false,
          "internalType": "uint256",
          "name": "newRoyaltyBps",
          "type": "uint256"
        }
      ],
      "name": "DefaultRoyalty",
      "type": "event"
    },
    {
      "anonymous": false,
      "inputs": [],
      "name": "MetadataFrozen",
      "type": "event"
    },
    {
      "anonymous": false,
      "inputs": [
        {
          "indexed": true,
          "internalType": "address",
          "name": "prevOwner",
          "type": "address"
        },
        {
          "indexed": true,
          "internalType": "address",
          "name": "newOwner",
          "type": "address"
        }
      ],
      "name": "OwnerUpdated",
      "type": "event"
    },
    {
      "anonymous": false,
      "inputs": [
        {
          "indexed": true,
          "internalType": "uint256",
          "name": "tokenId",
          "type": "uint256"
        },
        {
          "indexed": true,
          "internalType": "address",
          "name": "royaltyRecipient",
          "type": "address"
        },
        {
          "indexed": false,
          "internalType": "uint256",
          "name": "royaltyBps",
          "type": "uint256"
        }
      ],
      "name": "RoyaltyForToken",
      "type": "event"
    },
    {
      "anonymous": false,
      "inputs": [
        {
          "indexed": true,
          "internalType": "address",
          "name": "from",
          "type": "address"
        },
        {
          "indexed": true,
          "internalType": "address",
          "name": "to",
          "type": "address"
        },
        {
          "indexed": true,
          "internalType": "uint256",
          "name": "tokenId",
          "type": "uint256"
        }
      ],
      "name": "Transfer",
      "type": "event"
    },
    {
      "inputs": [
        {
          "internalType": "uint256",
          "name": "tokenId",
          "type": "uint256"
        }
      ],
      "name": "adminBurn",
      "outputs": [],
      "stateMutability": "nonpayable",
      "type": "function"
    },
    {
      "inputs": [
        {
          "internalType": "address",
          "name": "",
          "type": "address"
        },
        {
          "internalType": "uint256",
          "name": "",
          "type": "uint256"
        }
      ],
      "name": "approve",
      "outputs": [],
      "stateMutability": "nonpayable",
      "type": "function"
    },
    {
      "inputs": [
        {
          "internalType": "address",
          "name": "owner",
          "type": "address"
        }
      ],
      "name": "balanceOf",
      "outputs": [
        {
          "internalType": "uint256",
          "name": "",
          "type": "uint256"
        }
      ],
      "stateMutability": "view",
      "type": "function"
    },
    {
      "inputs": [
        {
          "internalType": "uint256",
          "name": "",
          "type": "uint256"
        }
      ],
      "name": "batchFrozen",
      "outputs": [
        {
          "internalType": "bool",
          "name": "",
          "type": "bool"
        }
      ],
      "stateMutability": "view",
      "type": "function"
    },
    {
      "inputs": [
        {
          "internalType": "address",
          "name": "_to",
          "type": "address"
        },
        {
          "internalType": "uint256",
          "name": "_quantity",
          "type": "uint256"
        },
        {
          "internalType": "string",
          "name": "_baseURI",
          "type": "string"
        },
        {
          "internalType": "bytes",
          "name": "_data",
          "type": "bytes"
        }
      ],
      "name": "batchMintTo",
      "outputs": [],
      "stateMutability": "nonpayable",
      "type": "function"
    },
    {
      "inputs": [
        {
          "internalType": "address[]",
          "name": "recipients",
          "type": "address[]"
        },
        {
          "internalType": "string[]",
          "name": "uris",
          "type": "string[]"
        }
      ],
      "name": "batchMintToMultiple",
      "outputs": [],
      "stateMutability": "nonpayable",
      "type": "function"
    },
    {
      "inputs": [
        {
          "internalType": "uint256",
          "name": "_tokenId",
          "type": "uint256"
        }
      ],
      "name": "burn",
      "outputs": [],
      "stateMutability": "nonpayable",
      "type": "function"
    },
    {
      "inputs": [],
      "name": "contractURI",
      "outputs": [
        {
          "internalType": "string",
          "name": "",
          "type": "string"
        }
      ],
      "stateMutability": "view",
      "type": "function"
    },
    {
      "inputs": [
        {
          "internalType": "uint256",
          "name": "tokenId",
          "type": "uint256"
        }
      ],
      "name": "explicitOwnershipOf",
      "outputs": [
        {
          "components": [
            {
              "internalType": "address",
              "name": "addr",
              "type": "address"
            },
            {
              "internalType": "uint64",
              "name": "startTimestamp",
              "type": "uint64"
            },
            {
              "internalType": "bool",
              "name": "burned",
              "type": "bool"
            }
          ],
          "internalType": "struct IERC721A.TokenOwnership",
          "name": "",
          "type": "tuple"
        }
      ],
      "stateMutability": "view",
      "type": "function"
    },
    {
      "inputs": [
        {
          "internalType": "uint256[]",
          "name": "tokenIds",
          "type": "uint256[]"
        }
      ],
      "name": "explicitOwnershipsOf",
      "outputs": [
        {
          "components": [
            {
              "internalType": "address",
              "name": "addr",
              "type": "address"
            },
            {
              "internalType": "uint64",
              "name": "startTimestamp",
              "type": "uint64"
            },
            {
              "internalType": "bool",
              "name": "burned",
              "type": "bool"
            }
          ],
          "internalType": "struct IERC721A.TokenOwnership[]",
          "name": "",
          "type": "tuple[]"
        }
      ],
      "stateMutability": "view",
      "type": "function"
    },
    {
      "inputs": [
        {
          "internalType": "uint256",
          "name": "tokenId",
          "type": "uint256"
        }
      ],
      "name": "getApproved",
      "outputs": [
        {
          "internalType": "address",
          "name": "",
          "type": "address"
        }
      ],
      "stateMutability": "view",
      "type": "function"
    },
    {
      "inputs": [],
      "name": "getBaseURICount",
      "outputs": [
        {
          "internalType": "uint256",
          "name": "",
          "type": "uint256"
        }
      ],
      "stateMutability": "view",
      "type": "function"
    },
    {
      "inputs": [
        {
          "internalType": "uint256",
          "name": "_index",
          "type": "uint256"
        }
      ],
      "name": "getBatchIdAtIndex",
      "outputs": [
        {
          "internalType": "uint256",
          "name": "",
          "type": "uint256"
        }
      ],
      "stateMutability": "view",
      "type": "function"
    },
    {
      "inputs": [],
      "name": "getDefaultRoyaltyInfo",
      "outputs": [
        {
          "internalType": "address",
          "name": "",
          "type": "address"
        },
        {
          "internalType": "uint16",
          "name": "",
          "type": "uint16"
        }
      ],
      "stateMutability": "view",
      "type": "function"
    },
    {
      "inputs": [
        {
          "internalType": "uint256",
          "name": "_tokenId",
          "type": "uint256"
        }
      ],
      "name": "getRoyaltyInfoForToken",
      "outputs": [
        {
          "internalType": "address",
          "name": "",
          "type": "address"
        },
        {
          "internalType": "uint16",
          "name": "",
          "type": "uint16"
        }
      ],
      "stateMutability": "view",
      "type": "function"
    },
    {
      "inputs": [
        {
          "internalType": "address",
          "name": "",
          "type": "address"
        },
        {
          "internalType": "address",
          "name": "",
          "type": "address"
        }
      ],
      "name": "isApprovedForAll",
      "outputs": [
        {
          "internalType": "bool",
          "name": "",
          "type": "bool"
        }
      ],
      "stateMutability": "view",
      "type": "function"
    },
    {
      "inputs": [
        {
          "internalType": "address",
          "name": "_operator",
          "type": "address"
        },
        {
          "internalType": "uint256",
          "name": "_tokenId",
          "type": "uint256"
        }
      ],
      "name": "isApprovedOrOwner",
      "outputs": [
        {
          "internalType": "bool",
          "name": "isApprovedOrOwnerOf",
          "type": "bool"
        }
      ],
      "stateMutability": "view",
      "type": "function"
    },
    {
      "inputs": [
        {
          "internalType": "address",
          "name": "recipient",
          "type": "address"
        },
        {
          "internalType": "string",
          "name": "uri",
          "type": "string"
        }
      ],
      "name": "mintCertificate",
      "outputs": [],
      "stateMutability": "nonpayable",
      "type": "function"
    },
    {
      "inputs": [
        {
          "internalType": "address",
          "name": "_to",
          "type": "address"
        },
        {
          "internalType": "string",
          "name": "_tokenURI",
          "type": "string"
        }
      ],
      "name": "mintTo",
      "outputs": [],
      "stateMutability": "nonpayable",
      "type": "function"
    },
    {
      "inputs": [
        {
          "internalType": "bytes[]",
          "name": "data",
          "type": "bytes[]"
        }
      ],
      "name": "multicall",
      "outputs": [
        {
          "internalType": "bytes[]",
          "name": "results",
          "type": "bytes[]"
        }
      ],
      "stateMutability": "nonpayable",
      "type": "function"
    },
    {
      "inputs": [],
      "name": "name",
      "outputs": [
        {
          "internalType": "string",
          "name": "",
          "type": "string"
        }
      ],
      "stateMutability": "view",
      "type": "function"
    },
    {
      "inputs": [],
      "name": "nextTokenIdToMint",
      "outputs": [
        {
          "internalType": "uint256",
          "name": "",
          "type": "uint256"
        }
      ],
      "stateMutability": "view",
      "type": "function"
    },
    {
      "inputs": [],
      "name": "owner",
      "outputs": [
        {
          "internalType": "address",
          "name": "",
          "type": "address"
        }
      ],
      "stateMutability": "view",
      "type": "function"
    },
    {
      "inputs": [
        {
          "internalType": "uint256",
          "name": "tokenId",
          "type": "uint256"
        }
      ],
      "name": "ownerOf",
      "outputs": [
        {
          "internalType": "address",
          "name": "",
          "type": "address"
        }
      ],
      "stateMutability": "view",
      "type": "function"
    },
    {
      "inputs": [
        {
          "internalType": "uint256",
          "name": "tokenId",
          "type": "uint256"
        },
        {
          "internalType": "uint256",
          "name": "salePrice",
          "type": "uint256"
        }
      ],
      "name": "royaltyInfo",
      "outputs": [
        {
          "internalType": "address",
          "name": "receiver",
          "type": "address"
        },
        {
          "internalType": "uint256",
          "name": "royaltyAmount",
          "type": "uint256"
        }
      ],
      "stateMutability": "view",
      "type": "function"
    },
    {
      "inputs": [
        {
          "internalType": "address",
          "name": "from",
          "type": "address"
        },
        {
          "internalType": "address",
          "name": "to",
          "type": "address"
        },
        {
          "internalType": "uint256",
          "name": "tokenId",
          "type": "uint256"
        }
      ],
      "name": "safeTransferFrom",
      "outputs": [],
      "stateMutability": "nonpayable",
      "type": "function"
    },
    {
      "inputs": [
        {
          "internalType": "address",
          "name": "from",
          "type": "address"
        },
        {
          "internalType": "address",
          "name": "to",
          "type": "address"
        },
        {
          "internalType": "uint256",
          "name": "tokenId",
          "type": "uint256"
        },
        {
          "internalType": "bytes",
          "name": "_data",
          "type": "bytes"
        }
      ],
      "name": "safeTransferFrom",
      "outputs": [],
      "stateMutability": "nonpayable",
      "type": "function"
    },
    {
      "inputs": [
        {
          "internalType": "address",
          "name": "",
          "type": "address"
        },
        {
          "internalType": "bool",
          "name": "",
          "type": "bool"
        }
      ],
      "name": "setApprovalForAll",
      "outputs": [],
      "stateMutability": "nonpayable",
      "type": "function"
    },
    {
      "inputs": [
        {
          "internalType": "string",
          "name": "_uri",
          "type": "string"
        }
      ],
      "name": "setContractURI",
      "outputs": [],
      "stateMutability": "nonpayable",
      "type": "function"
    },
    {
      "inputs": [
        {
          "internalType": "address",
          "name": "_royaltyRecipient",
          "type": "address"
        },
        {
          "internalType": "uint256",
          "name": "_royaltyBps",
          "type": "uint256"
        }
      ],
      "name": "setDefaultRoyaltyInfo",
      "outputs": [],
      "stateMutability": "nonpayable",
      "type": "function"
    },
    {
      "inputs": [
        {
          "internalType": "address",
          "name": "_newOwner",
          "type": "address"
        }
      ],
      "name": "setOwner",
      "outputs": [],
      "stateMutability": "nonpayable",
      "type": "function"
    },
    {
      "inputs": [
        {
          "internalType": "uint256",
          "name": "_tokenId",
          "type": "uint256"
        },
        {
          "internalType": "address",
          "name": "_recipient",
          "type": "address"
        },
        {
          "internalType": "uint256",
          "name": "_bps",
          "type": "uint256"
        }
      ],
      "name": "setRoyaltyInfoForToken",
      "outputs": [],
      "stateMutability": "nonpayable",
      "type": "function"
    },
    {
      "inputs": [],
      "name": "soulbound",
      "outputs": [
        {
          "internalType": "bool",
          "name": "",
          "type": "bool"
        }
      ],
      "stateMutability": "view",
      "type": "function"
    },
    {
      "inputs": [
        {
          "internalType": "bytes4",
          "name": "interfaceId",
          "type": "bytes4"
        }
      ],
      "name": "supportsInterface",
      "outputs": [
        {
          "internalType": "bool",
          "name": "",
          "type": "bool"
        }
      ],
      "stateMutability": "view",
      "type": "function"
    },
    {
      "inputs": [],
      "name": "symbol",
      "outputs": [
        {
          "internalType": "string",
          "name": "",
          "type": "string"
        }
      ],
      "stateMutability": "view",
      "type": "function"
    },
    {
      "inputs": [
        {
          "internalType": "uint256",
          "name": "_tokenId",
          "type": "uint256"
        }
      ],
      "name": "tokenURI",
      "outputs": [
        {
          "internalType": "string",
          "name": "",
          "type": "string"
        }
      ],
      "stateMutability": "view",
      "type": "function"
    },
    {
      "inputs": [
        {
          "internalType": "address",
          "name": "owner",
          "type": "address"
        }
      ],
      "name": "tokensOfOwner",
      "outputs": [
        {
          "internalType": "uint256[]",
          "name": "",
          "type": "uint256[]"
        }
      ],
      "stateMutability": "view",
      "type": "function"
    },
    {
      "inputs": [
        {
          "internalType": "address",
          "name": "owner",
          "type": "address"
        },
        {
          "internalType": "uint256",
          "name": "start",
          "type": "uint256"
        },
        {
          "internalType": "uint256",
          "name": "stop",
          "type": "uint256"
        }
      ],
      "name": "tokensOfOwnerIn",
      "outputs": [
        {
          "internalType": "uint256[]",
          "name": "",
          "type": "uint256[]"
        }
      ],
      "stateMutability": "view",
      "type": "function"
    },
    {
      "inputs": [],
      "name": "totalSupply",
      "outputs": [
        {
          "internalType": "uint256",
          "name": "",
          "type": "uint256"
        }
      ],
      "stateMutability": "view",
      "type": "function"
    },
    {
      "inputs": [
        {
          "internalType": "address",
          "name": "from",
          "type": "address"
        },
        {
          "internalType": "address",
          "name": "to",
          "type": "address"
        },
        {
          "internalType": "uint256",
          "name": "tokenId",
          "type": "uint256"
        }
      ],
      "name": "transferFrom",
      "outputs": [],
      "stateMutability": "nonpayable",
      "type": "function"
    }
  ],
  "devdoc": {
    "errors": {
      "BatchMintInvalidBatchId(uint256)": [
        {
          "details": "Invalid index for batch"
        }
      ],
      "BatchMintInvalidTokenId(uint256)": [
        {
          "details": "Invalid token"
        }
      ],
      "BatchMintMetadataFrozen(uint256)": [
        {
          "details": "Metadata frozen"
        }
      ],
      "ContractMetadataUnauthorized()": [
        {
          "details": "The sender is not authorized to perform the action"
        }
      ],
      "OwnableUnauthorized()": [
        {
          "details": "The sender is not authorized to perform the action"
        }
      ],
      "RoyaltyExceededMaxFeeBps(uint256,uint256)": [
        {
          "details": "The fee bps exceeded the max value"
        }
      ],
      "RoyaltyInvalidRecipient(address)": [
        {
          "details": "The recipient is invalid"
        }
      ],
      "RoyaltyUnauthorized()": [
        {
          "details": "The sender is not authorized to perform the action"
        }
      ]
    },
    "events": {
      "Approval(address,address,uint256)": {
        "details": "Emitted when `owner` enables `approved` to manage the `tokenId` token."
      },
      "ApprovalForAll(address,address,bool)": {
        "details": "Emitted when `owner` enables or disables (`approved`) `operator` to manage all of its assets."
      },
      "ContractURIUpdated(string,string)": {
        "details": "Emitted when the contract URI is updated."
      },
      "DefaultRoyalty(address,uint256)": {
        "details": "Emitted when royalty info is updated."
      },
      "MetadataFrozen()": {
        "details": "This event emits when the metadata of all tokens are frozen. While not currently supported by marketplaces, this event allows future indexing if desired."
      },
      "OwnerUpdated(address,address)": {
        "details": "Emitted when a new Owner is set."
      },
      "RoyaltyForToken(uint256,address,uint256)": {
        "details": "Emitted when royalty recipient for tokenId is set"
      },
      "Transfer(address,address,uint256)": {
        "details": "Emitted when `tokenId` token is transferred from `from` to `to`."
      }
    },
    "kind": "dev",
    "methods": {
      "balanceOf(address)": {
        "details": "See {IERC721-balanceOf}."
      },
      "batchMintTo(address,uint256,string,bytes)": {
        "details": "The logic in the `_canMint` function determines whether the caller is authorized to mint NFTs.",
        "params": {
          "_baseURI": "The baseURI for the `n` number of NFTs minted. The metadata for each NFT is `baseURI/tokenId`",
          "_data": "Additional data to pass along during the minting of the NFT.",
          "_quantity": "The number of NFTs to mint.",
          "_to": "The recipient of the NFT to mint."
        }
      },
      "burn(uint256)": {
        "details": "ERC721A's `_burn(uint256,bool)` internally checks for token approvals.",
        "params": {
          "_tokenId": "The tokenId of the NFT to burn."
        }
      },
      "explicitOwnershipOf(uint256)": {
        "details": "Returns the `TokenOwnership` struct at `tokenId` without reverting. If the `tokenId` is out of bounds:   - `addr` = `address(0)`   - `startTimestamp` = `0`   - `burned` = `false` If the `tokenId` is burned:   - `addr` = `<Address of owner before token was burned>`   - `startTimestamp` = `<Timestamp when token was burned>`   - `burned = `true` Otherwise:   - `addr` = `<Address of owner>`   - `startTimestamp` = `<Timestamp of start of ownership>`   - `burned = `false`"
      },
      "explicitOwnershipsOf(uint256[])": {
        "details": "Returns an array of `TokenOwnership` structs at `tokenIds` in order. See {ERC721AQueryable-explicitOwnershipOf}"
      },
      "getApproved(uint256)": {
        "details": "See {IERC721-getApproved}."
      },
      "getBaseURICount()": {
        "details": "Each batch of tokens has an in ID and an associated `baseURI`.                  See {batchIds}."
      },
      "getBatchIdAtIndex(uint256)": {
        "details": "See {getBaseURICount}.",
        "params": {
          "_index": "Index of the desired batch in batchIds array."
        }
      },
      "getRoyaltyInfoForToken(uint256)": {
        "details": "Returns royalty recipient and bps for `_tokenId`.",
        "params": {
          "_tokenId": "The tokenID of the NFT for which to query royalty info."
        }
      },
      "isApprovedOrOwner(address,uint256)": {
        "params": {
          "_operator": "The address to check.",
          "_tokenId": "The tokenId of the NFT to check."
        },
        "returns": {
          "isApprovedOrOwnerOf": "Whether the given address is approved to transfer the given NFT."
        }
      },
      "mintTo(address,string)": {
        "details": "The logic in the `_canMint` function determines whether the caller is authorized to mint NFTs.",
        "params": {
          "_to": "The recipient of the NFT to mint.",
          "_tokenURI": "The full metadata URI for the NFT minted."
        }
      },
      "multicall(bytes[])": {
        "details": "Receives and executes a batch of function calls on this contract.",
        "params": {
          "data": "The bytes data that makes up the batch of function calls to execute."
        },
        "returns": {
          "results": "The bytes data that makes up the result of the batch of function calls executed."
        }
      },
      "name()": {
        "details": "See {IERC721Metadata-name}."
      },
      "ownerOf(uint256)": {
        "details": "See {IERC721-ownerOf}."
      },
      "royaltyInfo(uint256,uint256)": {
        "details": "Returns royalty amount and recipient for `tokenId` and `salePrice`.",
        "params": {
          "salePrice": "Sale price of the token.",
          "tokenId": "The tokenID of the NFT for which to query royalty info."
        },
        "returns": {
          "receiver": "       Address of royalty recipient account.",
          "royaltyAmount": "  Royalty amount calculated at current royaltyBps value."
        }
      },
      "safeTransferFrom(address,address,uint256)": {
        "details": "See {IERC721-safeTransferFrom}."
      },
      "safeTransferFrom(address,address,uint256,bytes)": {
        "details": "See {IERC721-safeTransferFrom}."
      },
      "setContractURI(string)": {
        "details": "Caller should be authorized to setup contractURI, e.g. contract admin.                  See {_canSetContractURI}.                  Emits {ContractURIUpdated Event}.",
        "params": {
          "_uri": "keccak256 hash of the role. e.g. keccak256(\"TRANSFER_ROLE\")"
        }
      },
      "setDefaultRoyaltyInfo(address,uint256)": {
        "details": "Caller should be authorized to set royalty info.                  See {_canSetRoyaltyInfo}.                  Emits {DefaultRoyalty Event}; See {_setupDefaultRoyaltyInfo}.",
        "params": {
          "_royaltyBps": "Updated royalty bps.",
          "_royaltyRecipient": "Address to be set as default royalty recipient."
        }
      },
      "setOwner(address)": {
        "params": {
          "_newOwner": "The address to set as the new owner of the contract."
        }
      },
      "setRoyaltyInfoForToken(uint256,address,uint256)": {
        "details": "Sets royalty info for `_tokenId`. Caller should be authorized to set royalty info.                  See {_canSetRoyaltyInfo}.                  Emits {RoyaltyForToken Event}; See {_setupRoyaltyInfoForToken}.",
        "params": {
          "_bps": "Updated royalty bps for the token Id.",
          "_recipient": "Address to be set as royalty recipient for given token Id."
        }
      },
      "supportsInterface(bytes4)": {
        "details": "See ERC165: https://eips.ethereum.org/EIPS/eip-165"
      },
      "symbol()": {
        "details": "See {IERC721Metadata-symbol}."
      },
      "tokenURI(uint256)": {
        "details": "See `BatchMintMetadata` for handling of metadata in this contract.",
        "params": {
          "_tokenId": "The tokenId of an NFT."
        }
      },
      "tokensOfOwner(address)": {
        "details": "Returns an array of token IDs owned by `owner`. This function scans the ownership mapping and is O(totalSupply) in complexity. It is meant to be called off-chain. See {ERC721AQueryable-tokensOfOwnerIn} for splitting the scan into multiple smaller scans if the collection is large enough to cause an out-of-gas error (10K pfp collections should be fine)."
      },
      "tokensOfOwnerIn(address,uint256,uint256)": {
        "details": "Returns an array of token IDs owned by `owner`, in the range [`start`, `stop`) (i.e. `start <= tokenId < stop`). This function allows for tokens to be queried if the collection grows too big for a single call of {ERC721AQueryable-tokensOfOwner}. Requirements: - `start` < `stop`"
      },
      "totalSupply()": {
        "details": "Burned tokens are calculated here, use _totalMinted() if you want to count just minted tokens."
      },
      "transferFrom(address,address,uint256)": {
        "details": "See {IERC721-transferFrom}."
      }
    },
    "version": 1
  },
  "evm": {
    "assembly": "    /* \"SertifikatDigital.sol\":113:3192  contract SertifikatDigital is ERC721Base {... */\n  mstore(0x40, 0x80)\n    /* \"SertifikatDigital.sol\":284:545  constructor(... */\n  callvalue\n  dup1\n  iszero\n  tag_1\n  jumpi\n  0x00\n  dup1\n  revert\ntag_1:\n  pop\n  mload(0x40)\n  sub(codesize, bytecodeSize)\n  dup1\n  bytecodeSize\n  dup4\n  codecopy\n  dup2\n  add\n  0x40\n  dup2\n  swap1\n  mstore\n  tag_2\n  swap2\n  tag_3\n  jump\t// in\ntag_2:\n    /* \"SertifikatDigital.sol\":476:489  _defaultAdmin */\n  dup5\n    /* \"SertifikatDigital.sol\":491:496  _name */\n  dup5\n    /* \"SertifikatDigital.sol\":498:505  _symbol */\n  dup5\n    /* \"SertifikatDigital.sol\":507:524  _royaltyRecipient */\n  dup5\n    /* \"SertifikatDigital.sol\":526:537  _royaltyBps */\n  dup5\n    /* \"SertifikatDigital.sol\":491:496  _name */\n  dup4\n    /* \"SertifikatDigital.sol\":498:505  _symbol */\n  dup4\n    /* \"@thirdweb-dev/contracts/eip/ERC721AVirtualApprove.sol\":1883:1888   */\n  0x02\n    /* \"@thirdweb-dev/contracts/eip/ERC721AVirtualApprove.sol\":1883:1896   */\n  tag_8\n    /* \"SertifikatDigital.sol\":491:496  _name */\n  dup4\n    /* \"@thirdweb-dev/contracts/eip/ERC721AVirtualApprove.sol\":1883:1888   */\n  dup3\n    /* \"@thirdweb-dev/contracts/eip/ERC721AVirtualApprove.sol\":1883:1896   */\n  tag_9\n  jump\t// in\ntag_8:\n  pop\n    /* \"@thirdweb-dev/contracts/eip/ERC721AVirtualApprove.sol\":1906:1913   */\n  0x03\n    /* \"@thirdweb-dev/contracts/eip/ERC721AVirtualApprove.sol\":1906:1923   */\n  tag_10\n    /* \"@thirdweb-dev/contracts/eip/ERC721AVirtualApprove.sol\":1916:1923   */\n  dup3\n    /* \"@thirdweb-dev/contracts/eip/ERC721AVirtualApprove.sol\":1906:1913   */\n  dup3\n    /* \"@thirdweb-dev/contracts/eip/ERC721AVirtualApprove.sol\":1906:1923   */\n  tag_9\n  jump\t// in\ntag_10:\n  pop\n  pop\n    /* \"@thirdweb-dev/contracts/eip/ERC721AVirtualApprove.sol\":2119:2126   */\n  0x00\n    /* \"@thirdweb-dev/contracts/eip/ERC721AVirtualApprove.sol\":1933:1964   */\n  dup1\n  sstore\n  pop\n    /* \"@thirdweb-dev/contracts/base/ERC721Base.sol\":2264:2290   */\n  tag_14\n    /* \"@thirdweb-dev/contracts/base/ERC721Base.sol\":2276:2289   */\n  dup6\n    /* \"@thirdweb-dev/contracts/base/ERC721Base.sol\":2264:2275   */\n  tag_15\n    /* \"@thirdweb-dev/contracts/base/ERC721Base.sol\":2264:2290   */\n  jump\t// in\ntag_14:\n    /* \"@thirdweb-dev/contracts/base/ERC721Base.sol\":2300:2356   */\n  tag_16\n    /* \"@thirdweb-dev/contracts/base/ERC721Base.sol\":2325:2342   */\n  dup3\n  sub(shl(0x80, 0x01), 0x01)\n    /* \"@thirdweb-dev/contracts/base/ERC721Base.sol\":2300:2356   */\n  dup4\n  and\n    /* \"@thirdweb-dev/contracts/base/ERC721Base.sol\":2300:2324   */\n  tag_17\n    /* \"@thirdweb-dev/contracts/base/ERC721Base.sol\":2300:2356   */\n  jump\t// in\ntag_16:\n    /* \"@thirdweb-dev/contracts/base/ERC721Base.sol\":2057:2363   */\n  pop\n  pop\n  pop\n  pop\n  pop\n    /* \"SertifikatDigital.sol\":284:545  constructor(... */\n  pop\n  pop\n  pop\n  pop\n  pop\n    /* \"SertifikatDigital.sol\":113:3192  contract SertifikatDigital is ERC721Base {... */\n  jump(tag_35)\n    /* \"@thirdweb-dev/contracts/extension/Ownable.sol\":1527:1699   */\ntag_15:\n    /* \"@thirdweb-dev/contracts/extension/Ownable.sol\":1607:1613   */\n  0x09\n  dup1\n  sload\n  sub(shl(0xa0, 0x01), 0x01)\n    /* \"@thirdweb-dev/contracts/extension/Ownable.sol\":1623:1641   */\n  dup4\n  dup2\n  and\n  not(sub(shl(0xa0, 0x01), 0x01))\n  dup4\n  and\n  dup2\n  or\n  swap1\n  swap4\n  sstore\n    /* \"@thirdweb-dev/contracts/extension/Ownable.sol\":1657:1692   */\n  mload(0x40)\n    /* \"@thirdweb-dev/contracts/extension/Ownable.sol\":1607:1613   */\n  swap2\n  and\n  swap2\n    /* \"@thirdweb-dev/contracts/extension/Ownable.sol\":1623:1641   */\n  swap1\n    /* \"@thirdweb-dev/contracts/extension/Ownable.sol\":1607:1613   */\n  dup3\n  swap1\n    /* \"@thirdweb-dev/contracts/extension/Ownable.sol\":1657:1692   */\n  0x8292fce18fa69edf4db7b94ea2e58241df0ae57f97e0a6c9b29067028bf92d76\n  swap1\n    /* \"@thirdweb-dev/contracts/extension/Ownable.sol\":1586:1604   */\n  0x00\n  swap1\n    /* \"@thirdweb-dev/contracts/extension/Ownable.sol\":1657:1692   */\n  log3\n    /* \"@thirdweb-dev/contracts/extension/Ownable.sol\":1576:1699   */\n  pop\n    /* \"@thirdweb-dev/contracts/extension/Ownable.sol\":1527:1699   */\n  pop\n  jump\t// out\n    /* \"@thirdweb-dev/contracts/extension/Royalty.sol\":3717:4078   */\ntag_17:\n    /* \"@thirdweb-dev/contracts/extension/Royalty.sol\":3836:3842   */\n  0x2710\n    /* \"@thirdweb-dev/contracts/extension/Royalty.sol\":3822:3833   */\n  dup2\n    /* \"@thirdweb-dev/contracts/extension/Royalty.sol\":3822:3842   */\n  gt\n    /* \"@thirdweb-dev/contracts/extension/Royalty.sol\":3818:3921   */\n  iszero\n  tag_23\n  jumpi\n    /* \"@thirdweb-dev/contracts/extension/Royalty.sol\":3865:3910   */\n  mload(0x40)\n  shl(0xe3, 0x0a4930ad)\n  dup2\n  mstore\n    /* \"@thirdweb-dev/contracts/extension/Royalty.sol\":3890:3896   */\n  0x2710\n    /* \"@thirdweb-dev/contracts/extension/Royalty.sol\":3865:3910   */\n  0x04\n  dup3\n  add\n    /* \"#utility.yul\":4696:4721   */\n  mstore\n    /* \"#utility.yul\":4737:4755   */\n  0x24\n  dup2\n  add\n    /* \"#utility.yul\":4730:4764   */\n  dup3\n  swap1\n  mstore\n    /* \"#utility.yul\":4669:4687   */\n  0x44\n  add\n    /* \"@thirdweb-dev/contracts/extension/Royalty.sol\":3865:3910   */\n  mload(0x40)\n  dup1\n  swap2\n  sub\n  swap1\n  revert\n    /* \"@thirdweb-dev/contracts/extension/Royalty.sol\":3818:3921   */\ntag_23:\n    /* \"@thirdweb-dev/contracts/extension/Royalty.sol\":3931:3947   */\n  0x0a\n    /* \"@thirdweb-dev/contracts/extension/Royalty.sol\":3931:3967   */\n  dup1\n  sload\n  sub(shl(0xa0, 0x01), 0x01)\n  dup5\n  and\n  not(sub(shl(0xb0, 0x01), 0x01))\n    /* \"@thirdweb-dev/contracts/extension/Royalty.sol\":3977:4009   */\n  swap1\n  swap2\n  and\n  dup2\n  or\n  shl(0xa0, 0x01)\n  0xffff\n  dup6\n  and\n  mul\n  or\n  swap1\n  swap2\n  sstore\n    /* \"@thirdweb-dev/contracts/extension/Royalty.sol\":4025:4071   */\n  mload(0x40)\n    /* \"#utility.yul\":4921:4946   */\n  dup3\n  dup2\n  mstore\n    /* \"@thirdweb-dev/contracts/extension/Royalty.sol\":4025:4071   */\n  0x90d7ec04bcb8978719414f82e52e4cb651db41d0e6f8cea6118c2191e6183adb\n  swap1\n    /* \"#utility.yul\":4909:4911   */\n  0x20\n    /* \"#utility.yul\":4894:4912   */\n  add\n    /* \"@thirdweb-dev/contracts/extension/Royalty.sol\":4025:4071   */\n  mload(0x40)\n  dup1\n  swap2\n  sub\n  swap1\n  log2\n    /* \"@thirdweb-dev/contracts/extension/Royalty.sol\":3717:4078   */\n  pop\n  pop\n  jump\t// out\n    /* \"#utility.yul\":14:191   */\ntag_28:\n    /* \"#utility.yul\":93:106   */\n  dup1\n  mload\n  sub(shl(0xa0, 0x01), 0x01)\n    /* \"#utility.yul\":135:166   */\n  dup2\n  and\n    /* \"#utility.yul\":125:167   */\n  dup2\n  eq\n    /* \"#utility.yul\":115:185   */\n  tag_37\n  jumpi\n    /* \"#utility.yul\":181:182   */\n  0x00\n    /* \"#utility.yul\":178:179   */\n  dup1\n    /* \"#utility.yul\":171:183   */\n  revert\n    /* \"#utility.yul\":115:185   */\ntag_37:\n    /* \"#utility.yul\":14:191   */\n  swap2\n  swap1\n  pop\n  jump\t// out\n    /* \"#utility.yul\":196:323   */\ntag_29:\n    /* \"#utility.yul\":257:267   */\n  0x4e487b71\n    /* \"#utility.yul\":252:255   */\n  0xe0\n    /* \"#utility.yul\":248:268   */\n  shl\n    /* \"#utility.yul\":245:246   */\n  0x00\n    /* \"#utility.yul\":238:269   */\n  mstore\n    /* \"#utility.yul\":288:292   */\n  0x41\n    /* \"#utility.yul\":285:286   */\n  0x04\n    /* \"#utility.yul\":278:293   */\n  mstore\n    /* \"#utility.yul\":312:316   */\n  0x24\n    /* \"#utility.yul\":309:310   */\n  0x00\n    /* \"#utility.yul\":302:317   */\n  revert\n    /* \"#utility.yul\":328:1044   */\ntag_30:\n    /* \"#utility.yul\":382:387   */\n  0x00\n    /* \"#utility.yul\":435:438   */\n  dup3\n    /* \"#utility.yul\":428:432   */\n  0x1f\n    /* \"#utility.yul\":420:426   */\n  dup4\n    /* \"#utility.yul\":416:433   */\n  add\n    /* \"#utility.yul\":412:439   */\n  slt\n    /* \"#utility.yul\":402:457   */\n  tag_40\n  jumpi\n    /* \"#utility.yul\":453:454   */\n  0x00\n    /* \"#utility.yul\":450:451   */\n  dup1\n    /* \"#utility.yul\":443:455   */\n  revert\n    /* \"#utility.yul\":402:457   */\ntag_40:\n    /* \"#utility.yul\":476:489   */\n  dup2\n  mload\n  sub(shl(0x40, 0x01), 0x01)\n    /* \"#utility.yul\":538:548   */\n  dup1\n  dup3\n  gt\n    /* \"#utility.yul\":535:571   */\n  iszero\n  tag_42\n  jumpi\n    /* \"#utility.yul\":551:569   */\n  tag_42\n  tag_29\n  jump\t// in\ntag_42:\n    /* \"#utility.yul\":626:628   */\n  0x40\n    /* \"#utility.yul\":620:629   */\n  mload\n    /* \"#utility.yul\":594:596   */\n  0x1f\n    /* \"#utility.yul\":680:693   */\n  dup4\n  add\n  not(0x1f)\n    /* \"#utility.yul\":676:698   */\n  swap1\n  dup2\n  and\n    /* \"#utility.yul\":700:702   */\n  0x3f\n    /* \"#utility.yul\":672:703   */\n  add\n    /* \"#utility.yul\":668:708   */\n  and\n    /* \"#utility.yul\":656:709   */\n  dup2\n  add\n  swap1\n    /* \"#utility.yul\":724:742   */\n  dup3\n  dup3\n  gt\n    /* \"#utility.yul\":744:766   */\n  dup2\n  dup4\n  lt\n    /* \"#utility.yul\":721:767   */\n  or\n    /* \"#utility.yul\":718:790   */\n  iszero\n  tag_44\n  jumpi\n    /* \"#utility.yul\":770:788   */\n  tag_44\n  tag_29\n  jump\t// in\ntag_44:\n    /* \"#utility.yul\":810:820   */\n  dup2\n    /* \"#utility.yul\":806:808   */\n  0x40\n    /* \"#utility.yul\":799:821   */\n  mstore\n    /* \"#utility.yul\":845:847   */\n  dup4\n    /* \"#utility.yul\":837:843   */\n  dup2\n    /* \"#utility.yul\":830:848   */\n  mstore\n    /* \"#utility.yul\":891:894   */\n  dup7\n    /* \"#utility.yul\":884:888   */\n  0x20\n    /* \"#utility.yul\":879:881   */\n  dup6\n    /* \"#utility.yul\":871:877   */\n  dup9\n    /* \"#utility.yul\":867:882   */\n  add\n    /* \"#utility.yul\":863:889   */\n  add\n    /* \"#utility.yul\":860:895   */\n  gt\n    /* \"#utility.yul\":857:912   */\n  iszero\n  tag_45\n  jumpi\n    /* \"#utility.yul\":908:909   */\n  0x00\n    /* \"#utility.yul\":905:906   */\n  dup1\n    /* \"#utility.yul\":898:910   */\n  revert\n    /* \"#utility.yul\":857:912   */\ntag_45:\n    /* \"#utility.yul\":965:967   */\n  dup4\n    /* \"#utility.yul\":958:962   */\n  0x20\n    /* \"#utility.yul\":950:956   */\n  dup8\n    /* \"#utility.yul\":946:963   */\n  add\n    /* \"#utility.yul\":939:943   */\n  0x20\n    /* \"#utility.yul\":931:937   */\n  dup4\n    /* \"#utility.yul\":927:944   */\n  add\n    /* \"#utility.yul\":921:968   */\n  mcopy\n    /* \"#utility.yul\":1012:1013   */\n  0x00\n    /* \"#utility.yul\":1005:1009   */\n  0x20\n    /* \"#utility.yul\":1000:1002   */\n  dup6\n    /* \"#utility.yul\":992:998   */\n  dup4\n    /* \"#utility.yul\":988:1003   */\n  add\n    /* \"#utility.yul\":984:1010   */\n  add\n    /* \"#utility.yul\":977:1014   */\n  mstore\n    /* \"#utility.yul\":1032:1038   */\n  dup1\n    /* \"#utility.yul\":1023:1038   */\n  swap5\n  pop\n  pop\n  pop\n  pop\n  pop\n    /* \"#utility.yul\":328:1044   */\n  swap3\n  swap2\n  pop\n  pop\n  jump\t// out\n    /* \"#utility.yul\":1049:1950   */\ntag_3:\n    /* \"#utility.yul\":1175:1181   */\n  0x00\n    /* \"#utility.yul\":1183:1189   */\n  dup1\n    /* \"#utility.yul\":1191:1197   */\n  0x00\n    /* \"#utility.yul\":1199:1205   */\n  dup1\n    /* \"#utility.yul\":1207:1213   */\n  0x00\n    /* \"#utility.yul\":1260:1263   */\n  0xa0\n    /* \"#utility.yul\":1248:1257   */\n  dup7\n    /* \"#utility.yul\":1239:1246   */\n  dup9\n    /* \"#utility.yul\":1235:1258   */\n  sub\n    /* \"#utility.yul\":1231:1264   */\n  slt\n    /* \"#utility.yul\":1228:1281   */\n  iszero\n  tag_47\n  jumpi\n    /* \"#utility.yul\":1277:1278   */\n  0x00\n    /* \"#utility.yul\":1274:1275   */\n  dup1\n    /* \"#utility.yul\":1267:1279   */\n  revert\n    /* \"#utility.yul\":1228:1281   */\ntag_47:\n    /* \"#utility.yul\":1300:1340   */\n  tag_48\n    /* \"#utility.yul\":1330:1339   */\n  dup7\n    /* \"#utility.yul\":1300:1340   */\n  tag_28\n  jump\t// in\ntag_48:\n    /* \"#utility.yul\":1384:1386   */\n  0x20\n    /* \"#utility.yul\":1369:1387   */\n  dup8\n  add\n    /* \"#utility.yul\":1363:1388   */\n  mload\n    /* \"#utility.yul\":1290:1340   */\n  swap1\n  swap6\n  pop\n  sub(shl(0x40, 0x01), 0x01)\n    /* \"#utility.yul\":1437:1451   */\n  dup1\n  dup3\n  gt\n    /* \"#utility.yul\":1434:1468   */\n  iszero\n  tag_49\n  jumpi\n    /* \"#utility.yul\":1464:1465   */\n  0x00\n    /* \"#utility.yul\":1461:1462   */\n  dup1\n    /* \"#utility.yul\":1454:1466   */\n  revert\n    /* \"#utility.yul\":1434:1468   */\ntag_49:\n    /* \"#utility.yul\":1487:1548   */\n  tag_50\n    /* \"#utility.yul\":1540:1547   */\n  dup10\n    /* \"#utility.yul\":1531:1537   */\n  dup4\n    /* \"#utility.yul\":1520:1529   */\n  dup11\n    /* \"#utility.yul\":1516:1538   */\n  add\n    /* \"#utility.yul\":1487:1548   */\n  tag_30\n  jump\t// in\ntag_50:\n    /* \"#utility.yul\":1477:1548   */\n  swap6\n  pop\n    /* \"#utility.yul\":1594:1596   */\n  0x40\n    /* \"#utility.yul\":1583:1592   */\n  dup9\n    /* \"#utility.yul\":1579:1597   */\n  add\n    /* \"#utility.yul\":1573:1598   */\n  mload\n    /* \"#utility.yul\":1557:1598   */\n  swap2\n  pop\n    /* \"#utility.yul\":1623:1625   */\n  dup1\n    /* \"#utility.yul\":1613:1621   */\n  dup3\n    /* \"#utility.yul\":1610:1626   */\n  gt\n    /* \"#utility.yul\":1607:1643   */\n  iszero\n  tag_51\n  jumpi\n    /* \"#utility.yul\":1639:1640   */\n  0x00\n    /* \"#utility.yul\":1636:1637   */\n  dup1\n    /* \"#utility.yul\":1629:1641   */\n  revert\n    /* \"#utility.yul\":1607:1643   */\ntag_51:\n  pop\n    /* \"#utility.yul\":1662:1725   */\n  tag_52\n    /* \"#utility.yul\":1717:1724   */\n  dup9\n    /* \"#utility.yul\":1706:1714   */\n  dup3\n    /* \"#utility.yul\":1695:1704   */\n  dup10\n    /* \"#utility.yul\":1691:1715   */\n  add\n    /* \"#utility.yul\":1662:1725   */\n  tag_30\n  jump\t// in\ntag_52:\n    /* \"#utility.yul\":1652:1725   */\n  swap4\n  pop\n  pop\n    /* \"#utility.yul\":1744:1793   */\n  tag_53\n    /* \"#utility.yul\":1789:1791   */\n  0x60\n    /* \"#utility.yul\":1778:1787   */\n  dup8\n    /* \"#utility.yul\":1774:1792   */\n  add\n    /* \"#utility.yul\":1744:1793   */\n  tag_28\n  jump\t// in\ntag_53:\n    /* \"#utility.yul\":1836:1839   */\n  0x80\n    /* \"#utility.yul\":1821:1840   */\n  dup8\n  add\n    /* \"#utility.yul\":1815:1841   */\n  mload\n    /* \"#utility.yul\":1734:1793   */\n  swap1\n  swap3\n  pop\n  sub(shl(0x80, 0x01), 0x01)\n    /* \"#utility.yul\":1870:1901   */\n  dup2\n  and\n    /* \"#utility.yul\":1860:1902   */\n  dup2\n  eq\n    /* \"#utility.yul\":1850:1920   */\n  tag_54\n  jumpi\n    /* \"#utility.yul\":1916:1917   */\n  0x00\n    /* \"#utility.yul\":1913:1914   */\n  dup1\n    /* \"#utility.yul\":1906:1918   */\n  revert\n    /* \"#utility.yul\":1850:1920   */\ntag_54:\n    /* \"#utility.yul\":1939:1944   */\n  dup1\n    /* \"#utility.yul\":1929:1944   */\n  swap2\n  pop\n  pop\n    /* \"#utility.yul\":1049:1950   */\n  swap3\n  swap6\n  pop\n  swap3\n  swap6\n  swap1\n  swap4\n  pop\n  jump\t// out\n    /* \"#utility.yul\":1955:2335   */\ntag_31:\n    /* \"#utility.yul\":2034:2035   */\n  0x01\n    /* \"#utility.yul\":2030:2042   */\n  dup2\n  dup2\n  shr\n  swap1\n    /* \"#utility.yul\":2077:2089   */\n  dup3\n  and\n  dup1\n    /* \"#utility.yul\":2098:2159   */\n  tag_56\n  jumpi\n    /* \"#utility.yul\":2152:2156   */\n  0x7f\n    /* \"#utility.yul\":2144:2150   */\n  dup3\n    /* \"#utility.yul\":2140:2157   */\n  and\n    /* \"#utility.yul\":2130:2157   */\n  swap2\n  pop\n    /* \"#utility.yul\":2098:2159   */\ntag_56:\n    /* \"#utility.yul\":2205:2207   */\n  0x20\n    /* \"#utility.yul\":2197:2203   */\n  dup3\n    /* \"#utility.yul\":2194:2208   */\n  lt\n    /* \"#utility.yul\":2174:2192   */\n  dup2\n    /* \"#utility.yul\":2171:2209   */\n  sub\n    /* \"#utility.yul\":2168:2329   */\n  tag_57\n  jumpi\n    /* \"#utility.yul\":2251:2261   */\n  0x4e487b71\n    /* \"#utility.yul\":2246:2249   */\n  0xe0\n    /* \"#utility.yul\":2242:2262   */\n  shl\n    /* \"#utility.yul\":2239:2240   */\n  0x00\n    /* \"#utility.yul\":2232:2263   */\n  mstore\n    /* \"#utility.yul\":2286:2290   */\n  0x22\n    /* \"#utility.yul\":2283:2284   */\n  0x04\n    /* \"#utility.yul\":2276:2291   */\n  mstore\n    /* \"#utility.yul\":2314:2318   */\n  0x24\n    /* \"#utility.yul\":2311:2312   */\n  0x00\n    /* \"#utility.yul\":2304:2319   */\n  revert\n    /* \"#utility.yul\":2168:2329   */\ntag_57:\n  pop\n    /* \"#utility.yul\":1955:2335   */\n  swap2\n  swap1\n  pop\n  jump\t// out\n    /* \"#utility.yul\":2466:2984   */\ntag_33:\n    /* \"#utility.yul\":2568:2570   */\n  0x1f\n    /* \"#utility.yul\":2563:2566   */\n  dup3\n    /* \"#utility.yul\":2560:2571   */\n  gt\n    /* \"#utility.yul\":2557:2978   */\n  iszero\n  tag_60\n  jumpi\n    /* \"#utility.yul\":2604:2609   */\n  dup1\n    /* \"#utility.yul\":2601:2602   */\n  0x00\n    /* \"#utility.yul\":2594:2610   */\n  mstore\n    /* \"#utility.yul\":2648:2652   */\n  0x20\n    /* \"#utility.yul\":2645:2646   */\n  0x00\n    /* \"#utility.yul\":2635:2653   */\n  keccak256\n    /* \"#utility.yul\":2718:2720   */\n  0x1f\n    /* \"#utility.yul\":2706:2716   */\n  dup5\n    /* \"#utility.yul\":2702:2721   */\n  add\n    /* \"#utility.yul\":2699:2700   */\n  0x05\n    /* \"#utility.yul\":2695:2722   */\n  shr\n    /* \"#utility.yul\":2689:2693   */\n  dup2\n    /* \"#utility.yul\":2685:2723   */\n  add\n    /* \"#utility.yul\":2754:2758   */\n  0x20\n    /* \"#utility.yul\":2742:2752   */\n  dup6\n    /* \"#utility.yul\":2739:2759   */\n  lt\n    /* \"#utility.yul\":2736:2783   */\n  iszero\n  tag_61\n  jumpi\n  pop\n    /* \"#utility.yul\":2777:2781   */\n  dup1\n    /* \"#utility.yul\":2736:2783   */\ntag_61:\n    /* \"#utility.yul\":2832:2834   */\n  0x1f\n    /* \"#utility.yul\":2827:2830   */\n  dup5\n    /* \"#utility.yul\":2823:2835   */\n  add\n    /* \"#utility.yul\":2820:2821   */\n  0x05\n    /* \"#utility.yul\":2816:2836   */\n  shr\n    /* \"#utility.yul\":2810:2814   */\n  dup3\n    /* \"#utility.yul\":2806:2837   */\n  add\n    /* \"#utility.yul\":2796:2837   */\n  swap2\n  pop\n    /* \"#utility.yul\":2887:2968   */\ntag_62:\n    /* \"#utility.yul\":2905:2907   */\n  dup2\n    /* \"#utility.yul\":2898:2903   */\n  dup2\n    /* \"#utility.yul\":2895:2908   */\n  lt\n    /* \"#utility.yul\":2887:2968   */\n  iszero\n  tag_64\n  jumpi\n    /* \"#utility.yul\":2964:2965   */\n  0x00\n    /* \"#utility.yul\":2950:2966   */\n  dup2\n  sstore\n    /* \"#utility.yul\":2931:2932   */\n  0x01\n    /* \"#utility.yul\":2920:2933   */\n  add\n    /* \"#utility.yul\":2887:2968   */\n  jump(tag_62)\ntag_64:\n    /* \"#utility.yul\":2891:2894   */\n  pop\n  pop\n    /* \"#utility.yul\":2557:2978   */\ntag_60:\n    /* \"#utility.yul\":2466:2984   */\n  pop\n  pop\n  pop\n  jump\t// out\n    /* \"#utility.yul\":3160:4505   */\ntag_9:\n    /* \"#utility.yul\":3280:3290   */\n  dup2\n  mload\n  sub(shl(0x40, 0x01), 0x01)\n    /* \"#utility.yul\":3302:3332   */\n  dup2\n  gt\n    /* \"#utility.yul\":3299:3355   */\n  iszero\n  tag_68\n  jumpi\n    /* \"#utility.yul\":3335:3353   */\n  tag_68\n  tag_29\n  jump\t// in\ntag_68:\n    /* \"#utility.yul\":3364:3461   */\n  tag_69\n    /* \"#utility.yul\":3454:3460   */\n  dup2\n    /* \"#utility.yul\":3414:3452   */\n  tag_70\n    /* \"#utility.yul\":3446:3450   */\n  dup5\n    /* \"#utility.yul\":3440:3451   */\n  sload\n    /* \"#utility.yul\":3414:3452   */\n  tag_31\n  jump\t// in\ntag_70:\n    /* \"#utility.yul\":3408:3412   */\n  dup5\n    /* \"#utility.yul\":3364:3461   */\n  tag_33\n  jump\t// in\ntag_69:\n    /* \"#utility.yul\":3516:3520   */\n  0x20\n  dup1\n    /* \"#utility.yul\":3573:3575   */\n  0x1f\n    /* \"#utility.yul\":3562:3576   */\n  dup4\n  gt\n    /* \"#utility.yul\":3590:3591   */\n  0x01\n    /* \"#utility.yul\":3585:4248   */\n  dup2\n  eq\n  tag_72\n  jumpi\n    /* \"#utility.yul\":4292:4293   */\n  0x00\n    /* \"#utility.yul\":4309:4315   */\n  dup5\n    /* \"#utility.yul\":4306:4395   */\n  iszero\n  tag_73\n  jumpi\n  pop\n    /* \"#utility.yul\":4361:4380   */\n  dup6\n  dup4\n  add\n    /* \"#utility.yul\":4355:4381   */\n  mload\n    /* \"#utility.yul\":4306:4395   */\ntag_73:\n  not(0x00)\n    /* \"#utility.yul\":3117:3118   */\n  0x03\n    /* \"#utility.yul\":3113:3124   */\n  dup7\n  swap1\n  shl\n    /* \"#utility.yul\":3109:3133   */\n  shr\n    /* \"#utility.yul\":3105:3134   */\n  not\n    /* \"#utility.yul\":3095:3135   */\n  and\n    /* \"#utility.yul\":3141:3142   */\n  0x01\n    /* \"#utility.yul\":3137:3148   */\n  dup6\n  swap1\n  shl\n    /* \"#utility.yul\":3092:3149   */\n  or\n    /* \"#utility.yul\":4408:4489   */\n  dup6\n  sstore\n    /* \"#utility.yul\":3555:4499   */\n  jump(tag_71)\n    /* \"#utility.yul\":3585:4248   */\ntag_72:\n    /* \"#utility.yul\":2413:2414   */\n  0x00\n    /* \"#utility.yul\":2406:2420   */\n  dup6\n  dup2\n  mstore\n    /* \"#utility.yul\":2450:2454   */\n  0x20\n    /* \"#utility.yul\":2437:2455   */\n  dup2\n  keccak256\n  not(0x1f)\n    /* \"#utility.yul\":3621:3641   */\n  dup7\n  and\n  swap2\n    /* \"#utility.yul\":3739:3975   */\ntag_76:\n    /* \"#utility.yul\":3753:3760   */\n  dup3\n    /* \"#utility.yul\":3750:3751   */\n  dup2\n    /* \"#utility.yul\":3747:3761   */\n  lt\n    /* \"#utility.yul\":3739:3975   */\n  iszero\n  tag_78\n  jumpi\n    /* \"#utility.yul\":3842:3861   */\n  dup9\n  dup7\n  add\n    /* \"#utility.yul\":3836:3862   */\n  mload\n    /* \"#utility.yul\":3821:3863   */\n  dup3\n  sstore\n    /* \"#utility.yul\":3934:3961   */\n  swap5\n  dup5\n  add\n  swap5\n    /* \"#utility.yul\":3902:3903   */\n  0x01\n    /* \"#utility.yul\":3890:3904   */\n  swap1\n  swap2\n  add\n  swap1\n    /* \"#utility.yul\":3769:3788   */\n  dup5\n  add\n    /* \"#utility.yul\":3739:3975   */\n  jump(tag_76)\ntag_78:\n    /* \"#utility.yul\":3743:3746   */\n  pop\n    /* \"#utility.yul\":4003:4009   */\n  dup6\n    /* \"#utility.yul\":3994:4001   */\n  dup3\n    /* \"#utility.yul\":3991:4010   */\n  lt\n    /* \"#utility.yul\":3988:4189   */\n  iszero\n  tag_79\n  jumpi\n    /* \"#utility.yul\":4064:4083   */\n  dup8\n  dup6\n  add\n    /* \"#utility.yul\":4058:4084   */\n  mload\n  not(0x00)\n    /* \"#utility.yul\":4147:4148   */\n  0x03\n    /* \"#utility.yul\":4143:4157   */\n  dup9\n  swap1\n  shl\n    /* \"#utility.yul\":4159:4162   */\n  0xf8\n    /* \"#utility.yul\":4139:4163   */\n  and\n    /* \"#utility.yul\":4135:4172   */\n  shr\n    /* \"#utility.yul\":4131:4173   */\n  not\n    /* \"#utility.yul\":4116:4174   */\n  and\n    /* \"#utility.yul\":4101:4175   */\n  dup2\n  sstore\n    /* \"#utility.yul\":3988:4189   */\ntag_79:\n  pop\n  pop\n    /* \"#utility.yul\":4235:4236   */\n  0x01\n    /* \"#utility.yul\":4226:4232   */\n  dup5\n    /* \"#utility.yul\":4223:4224   */\n  0x01\n    /* \"#utility.yul\":4219:4233   */\n  shl\n    /* \"#utility.yul\":4215:4237   */\n  add\n    /* \"#utility.yul\":4209:4213   */\n  dup6\n    /* \"#utility.yul\":4202:4238   */\n  sstore\n    /* \"#utility.yul\":3555:4499   */\ntag_71:\n  pop\n  pop\n  pop\n  pop\n    /* \"#utility.yul\":3160:4505   */\n  pop\n  pop\n  jump\t// out\n    /* \"#utility.yul\":4775:4952   */\ntag_35:\n    /* \"SertifikatDigital.sol\":113:3192  contract SertifikatDigital is ERC721Base {... */\n  dataSize(sub_0)\n  dup1\n  dataOffset(sub_0)\n  0x00\n  codecopy\n  0x00\n  return\nstop\n\nsub_0: assembly {\n        /* \"SertifikatDigital.sol\":113:3192  contract SertifikatDigital is ERC721Base {... */\n      mstore(0x40, 0x80)\n      callvalue\n      dup1\n      iszero\n      tag_1\n      jumpi\n      0x00\n      dup1\n      revert\n    tag_1:\n      pop\n      jumpi(tag_2, lt(calldatasize, 0x04))\n      shr(0xe0, calldataload(0x00))\n      dup1\n      0x63b45e2d\n      gt\n      tag_43\n      jumpi\n      dup1\n      0xa22cb465\n      gt\n      tag_44\n      jumpi\n      dup1\n      0xc23dc68f\n      gt\n      tag_45\n      jumpi\n      dup1\n      0xd32812e7\n      gt\n      tag_46\n      jumpi\n      dup1\n      0xd32812e7\n      eq\n      tag_40\n      jumpi\n      dup1\n      0xe8a3d485\n      eq\n      tag_41\n      jumpi\n      dup1\n      0xe985e9c5\n      eq\n      tag_42\n      jumpi\n      0x00\n      dup1\n      revert\n    tag_46:\n      dup1\n      0xc23dc68f\n      eq\n      tag_38\n      jumpi\n      dup1\n      0xc87b56dd\n      eq\n      tag_39\n      jumpi\n      0x00\n      dup1\n      revert\n    tag_45:\n      dup1\n      0xb24f2d39\n      gt\n      tag_47\n      jumpi\n      dup1\n      0xb24f2d39\n      eq\n      tag_35\n      jumpi\n      dup1\n      0xb88d4fde\n      eq\n      tag_36\n      jumpi\n      dup1\n      0xbadb97ff\n      eq\n      tag_37\n      jumpi\n      0x00\n      dup1\n      revert\n    tag_47:\n      dup1\n      0xa22cb465\n      eq\n      tag_33\n      jumpi\n      dup1\n      0xac9650d8\n      eq\n      tag_34\n      jumpi\n      0x00\n      dup1\n      revert\n    tag_44:\n      dup1\n      0x8da5cb5b\n      gt\n      tag_48\n      jumpi\n      dup1\n      0x95d89b41\n      gt\n      tag_49\n      jumpi\n      dup1\n      0x95d89b41\n      eq\n      tag_30\n      jumpi\n      dup1\n      0x99a2557a\n      eq\n      tag_31\n      jumpi\n      dup1\n      0x9bcf7a15\n      eq\n      tag_32\n      jumpi\n      0x00\n      dup1\n      revert\n    tag_49:\n      dup1\n      0x8da5cb5b\n      eq\n      tag_28\n      jumpi\n      dup1\n      0x938e3d7b\n      eq\n      tag_29\n      jumpi\n      0x00\n      dup1\n      revert\n    tag_48:\n      dup1\n      0x754a81d9\n      gt\n      tag_50\n      jumpi\n      dup1\n      0x754a81d9\n      eq\n      tag_25\n      jumpi\n      dup1\n      0x83040532\n      eq\n      tag_26\n      jumpi\n      dup1\n      0x8462151c\n      eq\n      tag_27\n      jumpi\n      0x00\n      dup1\n      revert\n    tag_50:\n      dup1\n      0x63b45e2d\n      eq\n      tag_23\n      jumpi\n      dup1\n      0x70a08231\n      eq\n      tag_24\n      jumpi\n      0x00\n      dup1\n      revert\n    tag_43:\n      dup1\n      0x2419f51b\n      gt\n      tag_51\n      jumpi\n      dup1\n      0x430c2081\n      gt\n      tag_52\n      jumpi\n      dup1\n      0x5bbb2177\n      gt\n      tag_53\n      jumpi\n      dup1\n      0x5bbb2177\n      eq\n      tag_20\n      jumpi\n      dup1\n      0x600dd5ea\n      eq\n      tag_21\n      jumpi\n      dup1\n      0x6352211e\n      eq\n      tag_22\n      jumpi\n      0x00\n      dup1\n      revert\n    tag_53:\n      dup1\n      0x430c2081\n      eq\n      tag_18\n      jumpi\n      dup1\n      0x4cc157df\n      eq\n      tag_19\n      jumpi\n      0x00\n      dup1\n      revert\n    tag_52:\n      dup1\n      0x3b1475a7\n      gt\n      tag_54\n      jumpi\n      dup1\n      0x3b1475a7\n      eq\n      tag_15\n      jumpi\n      dup1\n      0x42842e0e\n      eq\n      tag_16\n      jumpi\n      dup1\n      0x42966c68\n      eq\n      tag_17\n      jumpi\n      0x00\n      dup1\n      revert\n    tag_54:\n      dup1\n      0x2419f51b\n      eq\n      tag_13\n      jumpi\n      dup1\n      0x2a55205a\n      eq\n      tag_14\n      jumpi\n      0x00\n      dup1\n      revert\n    tag_51:\n      dup1\n      0x095ea7b3\n      gt\n      tag_55\n      jumpi\n      dup1\n      0x13af4035\n      gt\n      tag_56\n      jumpi\n      dup1\n      0x13af4035\n      eq\n      tag_10\n      jumpi\n      dup1\n      0x18160ddd\n      eq\n      tag_11\n      jumpi\n      dup1\n      0x23b872dd\n      eq\n      tag_12\n      jumpi\n      0x00\n      dup1\n      revert\n    tag_56:\n      dup1\n      0x095ea7b3\n      eq\n      tag_8\n      jumpi\n      dup1\n      0x0fad0f51\n      eq\n      tag_9\n      jumpi\n      0x00\n      dup1\n      revert\n    tag_55:\n      dup1\n      0x06fdde03\n      gt\n      tag_57\n      jumpi\n      dup1\n      0x06fdde03\n      eq\n      tag_5\n      jumpi\n      dup1\n      0x0712249f\n      eq\n      tag_6\n      jumpi\n      dup1\n      0x081812fc\n      eq\n      tag_7\n      jumpi\n      0x00\n      dup1\n      revert\n    tag_57:\n      dup1\n      0x75a317\n      eq\n      tag_3\n      jumpi\n      dup1\n      0x01ffc9a7\n      eq\n      tag_4\n      jumpi\n    tag_2:\n      0x00\n      dup1\n      revert\n        /* \"@thirdweb-dev/contracts/base/ERC721Base.sol\":4454:4671   */\n    tag_3:\n      tag_58\n      tag_59\n      calldatasize\n      0x04\n      tag_60\n      jump\t// in\n    tag_59:\n      tag_61\n      jump\t// in\n    tag_58:\n      stop\n        /* \"@thirdweb-dev/contracts/base/ERC721Base.sol\":2655:3099   */\n    tag_4:\n      tag_62\n      tag_63\n      calldatasize\n      0x04\n      tag_64\n      jump\t// in\n    tag_63:\n      tag_65\n      jump\t// in\n    tag_62:\n      mload(0x40)\n        /* \"#utility.yul\":2115:2129   */\n      swap1\n      iszero\n        /* \"#utility.yul\":2108:2130   */\n      iszero\n        /* \"#utility.yul\":2090:2131   */\n      dup2\n      mstore\n        /* \"#utility.yul\":2078:2080   */\n      0x20\n        /* \"#utility.yul\":2063:2081   */\n      add\n        /* \"@thirdweb-dev/contracts/base/ERC721Base.sol\":2655:3099   */\n    tag_66:\n      mload(0x40)\n      dup1\n      swap2\n      sub\n      swap1\n      return\n        /* \"@thirdweb-dev/contracts/eip/ERC721AVirtualApprove.sol\":6129:6227   */\n    tag_5:\n      tag_68\n      tag_69\n      jump\t// in\n    tag_68:\n      mload(0x40)\n      tag_66\n      swap2\n      swap1\n      tag_71\n      jump\t// in\n        /* \"SertifikatDigital.sol\":1059:1231  function mintCertificate(address recipient, string calldata uri) external {... */\n    tag_6:\n      tag_58\n      tag_73\n      calldatasize\n      0x04\n      tag_74\n      jump\t// in\n    tag_73:\n      tag_75\n      jump\t// in\n        /* \"@thirdweb-dev/contracts/eip/ERC721AVirtualApprove.sol\":7615:7815   */\n    tag_7:\n      tag_76\n      tag_77\n      calldatasize\n      0x04\n      tag_78\n      jump\t// in\n    tag_77:\n      tag_79\n      jump\t// in\n    tag_76:\n      mload(0x40)\n      sub(shl(0xa0, 0x01), 0x01)\n        /* \"#utility.yul\":3703:3758   */\n      swap1\n      swap2\n      and\n        /* \"#utility.yul\":3685:3759   */\n      dup2\n      mstore\n        /* \"#utility.yul\":3673:3675   */\n      0x20\n        /* \"#utility.yul\":3658:3676   */\n      add\n        /* \"@thirdweb-dev/contracts/eip/ERC721AVirtualApprove.sol\":7615:7815   */\n      tag_66\n        /* \"#utility.yul\":3539:3765   */\n      jump\n        /* \"SertifikatDigital.sol\":2728:2887  function approve(address, uint256) public virtual override(ERC721A, IERC721) {... */\n    tag_8:\n      tag_58\n      tag_83\n      calldatasize\n      0x04\n      tag_84\n      jump\t// in\n    tag_83:\n      tag_85\n      jump\t// in\n        /* \"SertifikatDigital.sol\":240:277  bool public constant soulbound = true */\n    tag_9:\n      tag_62\n        /* \"SertifikatDigital.sol\":273:277  true */\n      0x01\n        /* \"SertifikatDigital.sol\":240:277  bool public constant soulbound = true */\n      dup2\n      jump\n        /* \"@thirdweb-dev/contracts/extension/Ownable.sol\":1235:1412   */\n    tag_10:\n      tag_58\n      tag_90\n      calldatasize\n      0x04\n      tag_91\n      jump\t// in\n    tag_90:\n      tag_92\n      jump\t// in\n        /* \"@thirdweb-dev/contracts/eip/ERC721AVirtualApprove.sol\":2282:2588   */\n    tag_11:\n        /* \"@thirdweb-dev/contracts/eip/ERC721AVirtualApprove.sol\":2541:2553   */\n      sload(0x01)\n        /* \"@thirdweb-dev/contracts/eip/ERC721AVirtualApprove.sol\":2335:2342   */\n      0x00\n        /* \"@thirdweb-dev/contracts/eip/ERC721AVirtualApprove.sol\":2525:2538   */\n      sload\n        /* \"@thirdweb-dev/contracts/eip/ERC721AVirtualApprove.sol\":2525:2553   */\n      sub\n        /* \"@thirdweb-dev/contracts/eip/ERC721AVirtualApprove.sol\":2282:2588   */\n    tag_93:\n      mload(0x40)\n        /* \"#utility.yul\":4366:4391   */\n      swap1\n      dup2\n      mstore\n        /* \"#utility.yul\":4354:4356   */\n      0x20\n        /* \"#utility.yul\":4339:4357   */\n      add\n        /* \"@thirdweb-dev/contracts/eip/ERC721AVirtualApprove.sol\":2282:2588   */\n      tag_66\n        /* \"#utility.yul\":4220:4397   */\n      jump\n        /* \"@thirdweb-dev/contracts/eip/ERC721AVirtualApprove.sol\":8454:8588   */\n    tag_12:\n      tag_58\n      tag_98\n      calldatasize\n      0x04\n      tag_99\n      jump\t// in\n    tag_98:\n      tag_100\n      jump\t// in\n        /* \"@thirdweb-dev/contracts/extension/BatchMintMetadata.sol\":2279:2497   */\n    tag_13:\n      tag_93\n      tag_102\n      calldatasize\n      0x04\n      tag_78\n      jump\t// in\n    tag_102:\n      tag_103\n      jump\t// in\n        /* \"@thirdweb-dev/contracts/extension/Royalty.sol\":1726:2051   */\n    tag_14:\n      tag_105\n      tag_106\n      calldatasize\n      0x04\n      tag_107\n      jump\t// in\n    tag_106:\n      tag_108\n      jump\t// in\n    tag_105:\n      0x40\n      dup1\n      mload\n      sub(shl(0xa0, 0x01), 0x01)\n        /* \"#utility.yul\":5180:5235   */\n      swap1\n      swap4\n      and\n        /* \"#utility.yul\":5162:5236   */\n      dup4\n      mstore\n        /* \"#utility.yul\":5267:5269   */\n      0x20\n        /* \"#utility.yul\":5252:5270   */\n      dup4\n      add\n        /* \"#utility.yul\":5245:5279   */\n      swap2\n      swap1\n      swap2\n      mstore\n        /* \"#utility.yul\":5135:5153   */\n      add\n        /* \"@thirdweb-dev/contracts/extension/Royalty.sol\":1726:2051   */\n      tag_66\n        /* \"#utility.yul\":4988:5285   */\n      jump\n        /* \"@thirdweb-dev/contracts/base/ERC721Base.sol\":6135:6239   */\n    tag_15:\n        /* \"@thirdweb-dev/contracts/base/ERC721Base.sol\":6193:6200   */\n      0x00\n        /* \"@thirdweb-dev/contracts/base/ERC721Base.sol\":6219:6232   */\n      sload\n        /* \"@thirdweb-dev/contracts/base/ERC721Base.sol\":6135:6239   */\n      jump(tag_93)\n        /* \"@thirdweb-dev/contracts/eip/ERC721AVirtualApprove.sol\":8654:8803   */\n    tag_16:\n      tag_58\n      tag_115\n      calldatasize\n      0x04\n      tag_99\n      jump\t// in\n    tag_115:\n      tag_116\n      jump\t// in\n        /* \"@thirdweb-dev/contracts/base/ERC721Base.sol\":5793:5880   */\n    tag_17:\n      tag_58\n      tag_118\n      calldatasize\n      0x04\n      tag_78\n      jump\t// in\n    tag_118:\n      tag_119\n      jump\t// in\n        /* \"@thirdweb-dev/contracts/base/ERC721Base.sol\":6571:6914   */\n    tag_18:\n      tag_62\n      tag_121\n      calldatasize\n      0x04\n      tag_84\n      jump\t// in\n    tag_121:\n      tag_122\n      jump\t// in\n        /* \"@thirdweb-dev/contracts/extension/Royalty.sol\":2291:2672   */\n    tag_19:\n      tag_124\n      tag_125\n      calldatasize\n      0x04\n      tag_78\n      jump\t// in\n    tag_125:\n      tag_126\n      jump\t// in\n    tag_124:\n      0x40\n      dup1\n      mload\n      sub(shl(0xa0, 0x01), 0x01)\n        /* \"#utility.yul\":5480:5535   */\n      swap1\n      swap4\n      and\n        /* \"#utility.yul\":5462:5536   */\n      dup4\n      mstore\n        /* \"#utility.yul\":5584:5590   */\n      0xffff\n        /* \"#utility.yul\":5572:5591   */\n      swap1\n      swap2\n      and\n        /* \"#utility.yul\":5567:5569   */\n      0x20\n        /* \"#utility.yul\":5552:5570   */\n      dup4\n      add\n        /* \"#utility.yul\":5545:5592   */\n      mstore\n        /* \"#utility.yul\":5435:5453   */\n      add\n        /* \"@thirdweb-dev/contracts/extension/Royalty.sol\":2291:2672   */\n      tag_66\n        /* \"#utility.yul\":5290:5598   */\n      jump\n        /* \"@thirdweb-dev/contracts/eip/queryable/ERC721AQueryable.sol\":1514:1973   */\n    tag_20:\n      tag_129\n      tag_130\n      calldatasize\n      0x04\n      tag_131\n      jump\t// in\n    tag_130:\n      tag_132\n      jump\t// in\n    tag_129:\n      mload(0x40)\n      tag_66\n      swap2\n      swap1\n      tag_134\n      jump\t// in\n        /* \"@thirdweb-dev/contracts/extension/Royalty.sol\":3370:3630   */\n    tag_21:\n      tag_58\n      tag_136\n      calldatasize\n      0x04\n      tag_84\n      jump\t// in\n    tag_136:\n      tag_137\n      jump\t// in\n        /* \"@thirdweb-dev/contracts/eip/ERC721AVirtualApprove.sol\":5944:6067   */\n    tag_22:\n      tag_76\n      tag_139\n      calldatasize\n      0x04\n      tag_78\n      jump\t// in\n    tag_139:\n      tag_140\n      jump\t// in\n        /* \"@thirdweb-dev/contracts/extension/BatchMintMetadata.sol\":1961:2057   */\n    tag_23:\n        /* \"@thirdweb-dev/contracts/extension/BatchMintMetadata.sol\":2035:2043   */\n      0x0c\n        /* \"@thirdweb-dev/contracts/extension/BatchMintMetadata.sol\":2035:2050   */\n      sload\n        /* \"@thirdweb-dev/contracts/extension/BatchMintMetadata.sol\":1961:2057   */\n      jump(tag_93)\n        /* \"@thirdweb-dev/contracts/eip/ERC721AVirtualApprove.sol\":3370:3573   */\n    tag_24:\n      tag_93\n      tag_146\n      calldatasize\n      0x04\n      tag_91\n      jump\t// in\n    tag_146:\n      tag_147\n      jump\t// in\n        /* \"@thirdweb-dev/contracts/base/ERC721Base.sol\":5232:5519   */\n    tag_25:\n      tag_58\n      tag_150\n      calldatasize\n      0x04\n      tag_151\n      jump\t// in\n    tag_150:\n      tag_152\n      jump\t// in\n        /* \"@thirdweb-dev/contracts/extension/BatchMintMetadata.sol\":1204:1247   */\n    tag_26:\n      tag_62\n      tag_154\n      calldatasize\n      0x04\n      tag_78\n      jump\t// in\n    tag_154:\n      mstore(0x20, 0x0e)\n      0x00\n      swap1\n      dup2\n      mstore\n      0x40\n      swap1\n      keccak256\n      sload\n      0xff\n      and\n      dup2\n      jump\n        /* \"@thirdweb-dev/contracts/eip/queryable/ERC721AQueryable.sol\":5285:6155   */\n    tag_27:\n      tag_157\n      tag_158\n      calldatasize\n      0x04\n      tag_91\n      jump\t// in\n    tag_158:\n      tag_159\n      jump\t// in\n    tag_157:\n      mload(0x40)\n      tag_66\n      swap2\n      swap1\n      tag_161\n      jump\t// in\n        /* \"@thirdweb-dev/contracts/extension/Ownable.sol\":973:1059   */\n    tag_28:\n        /* \"@thirdweb-dev/contracts/extension/Ownable.sol\":1046:1052   */\n      and(sub(shl(0xa0, 0x01), 0x01), sload(0x09))\n        /* \"@thirdweb-dev/contracts/extension/Ownable.sol\":973:1059   */\n      jump(tag_76)\n        /* \"@thirdweb-dev/contracts/extension/ContractMetadata.sol\":1110:1311   */\n    tag_29:\n      tag_58\n      tag_166\n      calldatasize\n      0x04\n      tag_167\n      jump\t// in\n    tag_166:\n      tag_168\n      jump\t// in\n        /* \"@thirdweb-dev/contracts/eip/ERC721AVirtualApprove.sol\":6291:6393   */\n    tag_30:\n      tag_68\n      tag_170\n      jump\t// in\n        /* \"@thirdweb-dev/contracts/eip/queryable/ERC721AQueryable.sol\":2374:4822   */\n    tag_31:\n      tag_157\n      tag_173\n      calldatasize\n      0x04\n      tag_174\n      jump\t// in\n    tag_173:\n      tag_175\n      jump\t// in\n        /* \"@thirdweb-dev/contracts/extension/Royalty.sol\":4595:4857   */\n    tag_32:\n      tag_58\n      tag_178\n      calldatasize\n      0x04\n      tag_179\n      jump\t// in\n    tag_178:\n      tag_180\n      jump\t// in\n        /* \"SertifikatDigital.sol\":2893:3049  function setApprovalForAll(address, bool) public virtual override(ERC721A, IERC721) {... */\n    tag_33:\n      tag_58\n      tag_182\n      calldatasize\n      0x04\n      tag_183\n      jump\t// in\n    tag_182:\n      tag_184\n      jump\t// in\n        /* \"@thirdweb-dev/contracts/extension/Multicall.sol\":696:1263   */\n    tag_34:\n      tag_185\n      tag_186\n      calldatasize\n      0x04\n      tag_187\n      jump\t// in\n    tag_186:\n      tag_188\n      jump\t// in\n    tag_185:\n      mload(0x40)\n      tag_66\n      swap2\n      swap1\n      tag_190\n      jump\t// in\n        /* \"@thirdweb-dev/contracts/extension/Royalty.sol\":2782:2926   */\n    tag_35:\n        /* \"@thirdweb-dev/contracts/extension/Royalty.sol\":2882:2898   */\n      sload(0x0a)\n      sub(shl(0xa0, 0x01), 0x01)\n      dup2\n      and\n      swap1\n      shl(0xa0, 0x01)\n        /* \"@thirdweb-dev/contracts/extension/Royalty.sol\":2907:2917   */\n      swap1\n      div\n      0xffff\n      and\n        /* \"@thirdweb-dev/contracts/extension/Royalty.sol\":2782:2926   */\n      jump(tag_124)\n        /* \"@thirdweb-dev/contracts/eip/ERC721AVirtualApprove.sol\":8869:9212   */\n    tag_36:\n      tag_58\n      tag_195\n      calldatasize\n      0x04\n      tag_196\n      jump\t// in\n    tag_195:\n      tag_197\n      jump\t// in\n        /* \"SertifikatDigital.sol\":1883:2024  function adminBurn(uint256 tokenId) external {... */\n    tag_37:\n      tag_58\n      tag_199\n      calldatasize\n      0x04\n      tag_78\n      jump\t// in\n    tag_199:\n      tag_200\n      jump\t// in\n        /* \"@thirdweb-dev/contracts/eip/queryable/ERC721AQueryable.sol\":953:1361   */\n    tag_38:\n      tag_201\n      tag_202\n      calldatasize\n      0x04\n      tag_78\n      jump\t// in\n    tag_202:\n      tag_203\n      jump\t// in\n    tag_201:\n      mload(0x40)\n      tag_66\n      swap2\n      swap1\n      tag_205\n      jump\t// in\n        /* \"@thirdweb-dev/contracts/base/ERC721Base.sol\":3513:3918   */\n    tag_39:\n      tag_68\n      tag_207\n      calldatasize\n      0x04\n      tag_78\n      jump\t// in\n    tag_207:\n      tag_208\n      jump\t// in\n        /* \"SertifikatDigital.sol\":1359:1709  function batchMintToMultiple(address[] calldata recipients, string[] calldata uris) external {... */\n    tag_40:\n      tag_58\n      tag_211\n      calldatasize\n      0x04\n      tag_212\n      jump\t// in\n    tag_211:\n      tag_213\n      jump\t// in\n        /* \"@thirdweb-dev/contracts/extension/ContractMetadata.sol\":672:706   */\n    tag_41:\n      tag_68\n      tag_215\n      jump\t// in\n        /* \"SertifikatDigital.sol\":3055:3190  function isApprovedForAll(address, address) public view virtual override(ERC721A, IERC721) returns (bool) {... */\n    tag_42:\n      tag_62\n      tag_218\n      calldatasize\n      0x04\n      tag_219\n      jump\t// in\n    tag_218:\n        /* \"SertifikatDigital.sol\":3155:3159  bool */\n      0x00\n        /* \"SertifikatDigital.sol\":3055:3190  function isApprovedForAll(address, address) public view virtual override(ERC721A, IERC721) returns (bool) {... */\n      swap3\n      swap2\n      pop\n      pop\n      jump\n        /* \"@thirdweb-dev/contracts/base/ERC721Base.sol\":4454:4671   */\n    tag_61:\n        /* \"@thirdweb-dev/contracts/base/ERC721Base.sol\":4541:4551   */\n      tag_223\n        /* \"@thirdweb-dev/contracts/base/ERC721Base.sol\":4541:4549   */\n      tag_224\n        /* \"@thirdweb-dev/contracts/base/ERC721Base.sol\":4541:4551   */\n      jump\t// in\n    tag_223:\n        /* \"@thirdweb-dev/contracts/base/ERC721Base.sol\":4533:4579   */\n      tag_225\n      jumpi\n      mload(0x40)\n      shl(0xe5, 0x461bcd)\n      dup2\n      mstore\n        /* \"#utility.yul\":13991:13993   */\n      0x20\n        /* \"@thirdweb-dev/contracts/base/ERC721Base.sol\":4533:4579   */\n      0x04\n      dup3\n      add\n        /* \"#utility.yul\":13973:13994   */\n      mstore\n        /* \"#utility.yul\":14030:14032   */\n      0x17\n        /* \"#utility.yul\":14010:14028   */\n      0x24\n      dup3\n      add\n        /* \"#utility.yul\":14003:14033   */\n      mstore\n        /* \"#utility.yul\":14069:14094   */\n      0x4e6f7420617574686f72697a656420746f206d696e742e000000000000000000\n        /* \"#utility.yul\":14049:14067   */\n      0x44\n      dup3\n      add\n        /* \"#utility.yul\":14042:14095   */\n      mstore\n        /* \"#utility.yul\":14112:14130   */\n      0x64\n      add\n        /* \"@thirdweb-dev/contracts/base/ERC721Base.sol\":4533:4579   */\n    tag_226:\n      mload(0x40)\n      dup1\n      swap2\n      sub\n      swap1\n      revert\n    tag_225:\n        /* \"@thirdweb-dev/contracts/base/ERC721Base.sol\":4589:4633   */\n      tag_228\n        /* \"@thirdweb-dev/contracts/base/ERC721Base.sol\":4602:4621   */\n      tag_229\n        /* \"@thirdweb-dev/contracts/base/ERC721Base.sol\":6193:6200   */\n      0x00\n        /* \"@thirdweb-dev/contracts/base/ERC721Base.sol\":6219:6232   */\n      sload\n      swap1\n        /* \"@thirdweb-dev/contracts/base/ERC721Base.sol\":6135:6239   */\n      jump\n        /* \"@thirdweb-dev/contracts/base/ERC721Base.sol\":4602:4621   */\n    tag_229:\n        /* \"@thirdweb-dev/contracts/base/ERC721Base.sol\":4623:4632   */\n      dup3\n        /* \"@thirdweb-dev/contracts/base/ERC721Base.sol\":4589:4601   */\n      tag_230\n        /* \"@thirdweb-dev/contracts/base/ERC721Base.sol\":4589:4633   */\n      jump\t// in\n    tag_228:\n        /* \"@thirdweb-dev/contracts/base/ERC721Base.sol\":4643:4664   */\n      tag_231\n        /* \"@thirdweb-dev/contracts/base/ERC721Base.sol\":4653:4656   */\n      dup3\n        /* \"@thirdweb-dev/contracts/base/ERC721Base.sol\":4658:4659   */\n      0x01\n        /* \"@thirdweb-dev/contracts/base/ERC721Base.sol\":4643:4664   */\n      mload(0x40)\n      dup1\n      0x20\n      add\n      0x40\n      mstore\n      dup1\n      0x00\n      dup2\n      mstore\n      pop\n        /* \"@thirdweb-dev/contracts/base/ERC721Base.sol\":4643:4652   */\n      tag_232\n        /* \"@thirdweb-dev/contracts/base/ERC721Base.sol\":4643:4664   */\n      jump\t// in\n    tag_231:\n        /* \"@thirdweb-dev/contracts/base/ERC721Base.sol\":4454:4671   */\n      pop\n      pop\n      jump\t// out\n        /* \"@thirdweb-dev/contracts/base/ERC721Base.sol\":2655:3099   */\n    tag_65:\n        /* \"@thirdweb-dev/contracts/base/ERC721Base.sol\":2758:2762   */\n      0x00\n      shl(0xe0, 0x01ffc9a7)\n      not(sub(shl(0xe0, 0x01), 0x01))\n        /* \"@thirdweb-dev/contracts/base/ERC721Base.sol\":2793:2818   */\n      dup4\n      and\n      eq\n      dup1\n        /* \"@thirdweb-dev/contracts/base/ERC721Base.sol\":2793:2893   */\n      tag_234\n      jumpi\n      pop\n      shl(0xe0, 0x80ac58cd)\n      not(sub(shl(0xe0, 0x01), 0x01))\n        /* \"@thirdweb-dev/contracts/base/ERC721Base.sol\":2868:2893   */\n      dup4\n      and\n      eq\n        /* \"@thirdweb-dev/contracts/base/ERC721Base.sol\":2793:2893   */\n    tag_234:\n        /* \"@thirdweb-dev/contracts/base/ERC721Base.sol\":2793:2968   */\n      dup1\n      tag_235\n      jumpi\n      pop\n      shl(0xe0, 0x5b5e139f)\n      not(sub(shl(0xe0, 0x01), 0x01))\n        /* \"@thirdweb-dev/contracts/base/ERC721Base.sol\":2943:2968   */\n      dup4\n      and\n      eq\n        /* \"@thirdweb-dev/contracts/base/ERC721Base.sol\":2793:2968   */\n    tag_235:\n        /* \"@thirdweb-dev/contracts/base/ERC721Base.sol\":2793:3067   */\n      dup1\n      tag_236\n      jumpi\n      pop\n      not(sub(shl(0xe0, 0x01), 0x01))\n        /* \"@thirdweb-dev/contracts/base/ERC721Base.sol\":3026:3067   */\n      dup3\n      and\n      shl(0xe1, 0x152a902d)\n      eq\n        /* \"@thirdweb-dev/contracts/base/ERC721Base.sol\":2793:3067   */\n    tag_236:\n        /* \"@thirdweb-dev/contracts/base/ERC721Base.sol\":2774:3067   */\n      swap3\n        /* \"@thirdweb-dev/contracts/base/ERC721Base.sol\":2655:3099   */\n      swap2\n      pop\n      pop\n      jump\t// out\n        /* \"@thirdweb-dev/contracts/eip/ERC721AVirtualApprove.sol\":6129:6227   */\n    tag_69:\n        /* \"@thirdweb-dev/contracts/eip/ERC721AVirtualApprove.sol\":6183:6196   */\n      0x60\n        /* \"@thirdweb-dev/contracts/eip/ERC721AVirtualApprove.sol\":6215:6220   */\n      0x02\n        /* \"@thirdweb-dev/contracts/eip/ERC721AVirtualApprove.sol\":6208:6220   */\n      dup1\n      sload\n      tag_238\n      swap1\n      tag_239\n      jump\t// in\n    tag_238:\n      dup1\n      0x1f\n      add\n      0x20\n      dup1\n      swap2\n      div\n      mul\n      0x20\n      add\n      mload(0x40)\n      swap1\n      dup2\n      add\n      0x40\n      mstore\n      dup1\n      swap3\n      swap2\n      swap1\n      dup2\n      dup2\n      mstore\n      0x20\n      add\n      dup3\n      dup1\n      sload\n      tag_240\n      swap1\n      tag_239\n      jump\t// in\n    tag_240:\n      dup1\n      iszero\n      tag_241\n      jumpi\n      dup1\n      0x1f\n      lt\n      tag_242\n      jumpi\n      0x0100\n      dup1\n      dup4\n      sload\n      div\n      mul\n      dup4\n      mstore\n      swap2\n      0x20\n      add\n      swap2\n      jump(tag_241)\n    tag_242:\n      dup3\n      add\n      swap2\n      swap1\n      0x00\n      mstore\n      keccak256(0x00, 0x20)\n      swap1\n    tag_243:\n      dup2\n      sload\n      dup2\n      mstore\n      swap1\n      0x01\n      add\n      swap1\n      0x20\n      add\n      dup1\n      dup4\n      gt\n      tag_243\n      jumpi\n      dup3\n      swap1\n      sub\n      0x1f\n      and\n      dup3\n      add\n      swap2\n    tag_241:\n      pop\n      pop\n      pop\n      pop\n      pop\n      swap1\n      pop\n        /* \"@thirdweb-dev/contracts/eip/ERC721AVirtualApprove.sol\":6129:6227   */\n      swap1\n      jump\t// out\n        /* \"SertifikatDigital.sol\":1059:1231  function mintCertificate(address recipient, string calldata uri) external {... */\n    tag_75:\n        /* \"@thirdweb-dev/contracts/extension/Ownable.sol\":1046:1052   */\n      and(sub(shl(0xa0, 0x01), 0x01), sload(0x09))\n        /* \"SertifikatDigital.sol\":1151:1161  msg.sender */\n      caller\n        /* \"SertifikatDigital.sol\":1151:1172  msg.sender == owner() */\n      eq\n        /* \"SertifikatDigital.sol\":1143:1191  require(msg.sender == owner(), \"Not authorized\") */\n      tag_246\n      jumpi\n      mload(0x40)\n      shl(0xe5, 0x461bcd)\n      dup2\n      mstore\n        /* \"#utility.yul\":14728:14730   */\n      0x20\n        /* \"SertifikatDigital.sol\":1143:1191  require(msg.sender == owner(), \"Not authorized\") */\n      0x04\n      dup3\n      add\n        /* \"#utility.yul\":14710:14731   */\n      mstore\n        /* \"#utility.yul\":14767:14769   */\n      0x0e\n        /* \"#utility.yul\":14747:14765   */\n      0x24\n      dup3\n      add\n        /* \"#utility.yul\":14740:14770   */\n      mstore\n      shl(0x92, 0x139bdd08185d5d1a1bdc9a5e9959)\n        /* \"#utility.yul\":14786:14804   */\n      0x44\n      dup3\n      add\n        /* \"#utility.yul\":14779:14823   */\n      mstore\n        /* \"#utility.yul\":14840:14858   */\n      0x64\n      add\n        /* \"SertifikatDigital.sol\":1143:1191  require(msg.sender == owner(), \"Not authorized\") */\n      tag_226\n        /* \"#utility.yul\":14526:14864   */\n      jump\n        /* \"SertifikatDigital.sol\":1143:1191  require(msg.sender == owner(), \"Not authorized\") */\n    tag_246:\n        /* \"SertifikatDigital.sol\":1201:1224  _mintTo(recipient, uri) */\n      tag_249\n        /* \"SertifikatDigital.sol\":1209:1218  recipient */\n      dup4\n        /* \"SertifikatDigital.sol\":1220:1223  uri */\n      dup4\n      dup4\n        /* \"SertifikatDigital.sol\":1201:1224  _mintTo(recipient, uri) */\n      dup1\n      dup1\n      0x1f\n      add\n      0x20\n      dup1\n      swap2\n      div\n      mul\n      0x20\n      add\n      mload(0x40)\n      swap1\n      dup2\n      add\n      0x40\n      mstore\n      dup1\n      swap4\n      swap3\n      swap2\n      swap1\n      dup2\n      dup2\n      mstore\n      0x20\n      add\n      dup4\n      dup4\n      dup1\n      dup3\n      dup5\n      calldatacopy\n      0x00\n      swap3\n      add\n      swap2\n      swap1\n      swap2\n      mstore\n      pop\n        /* \"SertifikatDigital.sol\":1201:1208  _mintTo */\n      tag_250\n      swap3\n      pop\n      pop\n      pop\n        /* \"SertifikatDigital.sol\":1201:1224  _mintTo(recipient, uri) */\n      jump\t// in\n    tag_249:\n        /* \"SertifikatDigital.sol\":1059:1231  function mintCertificate(address recipient, string calldata uri) external {... */\n      pop\n      pop\n      pop\n      jump\t// out\n        /* \"@thirdweb-dev/contracts/eip/ERC721AVirtualApprove.sol\":7615:7815   */\n    tag_79:\n        /* \"@thirdweb-dev/contracts/eip/ERC721AVirtualApprove.sol\":7683:7690   */\n      0x00\n        /* \"@thirdweb-dev/contracts/eip/ERC721AVirtualApprove.sol\":7707:7723   */\n      tag_252\n        /* \"@thirdweb-dev/contracts/eip/ERC721AVirtualApprove.sol\":7715:7722   */\n      dup3\n        /* \"@thirdweb-dev/contracts/eip/ERC721AVirtualApprove.sol\":7707:7714   */\n      tag_253\n        /* \"@thirdweb-dev/contracts/eip/ERC721AVirtualApprove.sol\":7707:7723   */\n      jump\t// in\n    tag_252:\n        /* \"@thirdweb-dev/contracts/eip/ERC721AVirtualApprove.sol\":7702:7766   */\n      tag_254\n      jumpi\n        /* \"@thirdweb-dev/contracts/eip/ERC721AVirtualApprove.sol\":7732:7766   */\n      mload(0x40)\n      shl(0xe2, 0x33d1c039)\n      dup2\n      mstore\n      0x04\n      add\n      mload(0x40)\n      dup1\n      swap2\n      sub\n      swap1\n      revert\n        /* \"@thirdweb-dev/contracts/eip/ERC721AVirtualApprove.sol\":7702:7766   */\n    tag_254:\n      pop\n        /* \"@thirdweb-dev/contracts/eip/ERC721AVirtualApprove.sol\":7784:7808   */\n      0x00\n      swap1\n      dup2\n      mstore\n        /* \"@thirdweb-dev/contracts/eip/ERC721AVirtualApprove.sol\":7784:7799   */\n      0x06\n        /* \"@thirdweb-dev/contracts/eip/ERC721AVirtualApprove.sol\":7784:7808   */\n      0x20\n      mstore\n      0x40\n      swap1\n      keccak256\n      sload\n      sub(shl(0xa0, 0x01), 0x01)\n      and\n      swap1\n        /* \"@thirdweb-dev/contracts/eip/ERC721AVirtualApprove.sol\":7615:7815   */\n      jump\t// out\n        /* \"SertifikatDigital.sol\":2728:2887  function approve(address, uint256) public virtual override(ERC721A, IERC721) {... */\n    tag_85:\n        /* \"SertifikatDigital.sol\":2815:2880  revert(\"Sertifikat Soulbound: Fungsi persetujuan dinonaktifkan!\") */\n      mload(0x40)\n      shl(0xe5, 0x461bcd)\n      dup2\n      mstore\n        /* \"#utility.yul\":15071:15073   */\n      0x20\n        /* \"SertifikatDigital.sol\":2815:2880  revert(\"Sertifikat Soulbound: Fungsi persetujuan dinonaktifkan!\") */\n      0x04\n      dup3\n      add\n        /* \"#utility.yul\":15053:15074   */\n      mstore\n        /* \"#utility.yul\":15110:15112   */\n      0x37\n        /* \"#utility.yul\":15090:15108   */\n      0x24\n      dup3\n      add\n        /* \"#utility.yul\":15083:15113   */\n      mstore\n        /* \"#utility.yul\":15149:15183   */\n      0x536572746966696b617420536f756c626f756e643a2046756e67736920706572\n        /* \"#utility.yul\":15129:15147   */\n      0x44\n      dup3\n      add\n        /* \"#utility.yul\":15122:15184   */\n      mstore\n        /* \"#utility.yul\":15220:15245   */\n      0x736574756a75616e2064696e6f6e616b7469666b616e21000000000000000000\n        /* \"#utility.yul\":15200:15218   */\n      0x64\n      dup3\n      add\n        /* \"#utility.yul\":15193:15246   */\n      mstore\n        /* \"#utility.yul\":15263:15282   */\n      0x84\n      add\n        /* \"SertifikatDigital.sol\":2815:2880  revert(\"Sertifikat Soulbound: Fungsi persetujuan dinonaktifkan!\") */\n      tag_226\n        /* \"#utility.yul\":14869:15288   */\n      jump\n        /* \"@thirdweb-dev/contracts/extension/Ownable.sol\":1235:1412   */\n    tag_92:\n        /* \"@thirdweb-dev/contracts/extension/Ownable.sol\":1305:1319   */\n      tag_259\n        /* \"@thirdweb-dev/contracts/extension/Ownable.sol\":1305:1317   */\n      tag_224\n        /* \"@thirdweb-dev/contracts/extension/Ownable.sol\":1305:1319   */\n      jump\t// in\n    tag_259:\n        /* \"@thirdweb-dev/contracts/extension/Ownable.sol\":1300:1374   */\n      tag_261\n      jumpi\n        /* \"@thirdweb-dev/contracts/extension/Ownable.sol\":1342:1363   */\n      mload(0x40)\n      shl(0xe1, 0x16ccb9cb)\n      dup2\n      mstore\n      0x04\n      add\n      mload(0x40)\n      dup1\n      swap2\n      sub\n      swap1\n      revert\n        /* \"@thirdweb-dev/contracts/extension/Ownable.sol\":1300:1374   */\n    tag_261:\n        /* \"@thirdweb-dev/contracts/extension/Ownable.sol\":1383:1405   */\n      tag_262\n        /* \"@thirdweb-dev/contracts/extension/Ownable.sol\":1395:1404   */\n      dup2\n        /* \"@thirdweb-dev/contracts/extension/Ownable.sol\":1383:1394   */\n      tag_263\n        /* \"@thirdweb-dev/contracts/extension/Ownable.sol\":1383:1405   */\n      jump\t// in\n    tag_262:\n        /* \"@thirdweb-dev/contracts/extension/Ownable.sol\":1235:1412   */\n      pop\n      jump\t// out\n        /* \"@thirdweb-dev/contracts/eip/ERC721AVirtualApprove.sol\":8454:8588   */\n    tag_100:\n        /* \"@thirdweb-dev/contracts/eip/ERC721AVirtualApprove.sol\":8553:8581   */\n      tag_249\n        /* \"@thirdweb-dev/contracts/eip/ERC721AVirtualApprove.sol\":8563:8567   */\n      dup4\n        /* \"@thirdweb-dev/contracts/eip/ERC721AVirtualApprove.sol\":8569:8571   */\n      dup4\n        /* \"@thirdweb-dev/contracts/eip/ERC721AVirtualApprove.sol\":8573:8580   */\n      dup4\n        /* \"@thirdweb-dev/contracts/eip/ERC721AVirtualApprove.sol\":8553:8562   */\n      tag_269\n        /* \"@thirdweb-dev/contracts/eip/ERC721AVirtualApprove.sol\":8553:8581   */\n      jump\t// in\n        /* \"@thirdweb-dev/contracts/extension/BatchMintMetadata.sol\":2279:2497   */\n    tag_103:\n        /* \"@thirdweb-dev/contracts/extension/BatchMintMetadata.sol\":2343:2350   */\n      0x00\n        /* \"@thirdweb-dev/contracts/extension/BatchMintMetadata.sol\":2376:2393   */\n      tag_271\n        /* \"@thirdweb-dev/contracts/extension/BatchMintMetadata.sol\":2035:2043   */\n      0x0c\n        /* \"@thirdweb-dev/contracts/extension/BatchMintMetadata.sol\":2035:2050   */\n      sload\n      swap1\n        /* \"@thirdweb-dev/contracts/extension/BatchMintMetadata.sol\":1961:2057   */\n      jump\n        /* \"@thirdweb-dev/contracts/extension/BatchMintMetadata.sol\":2376:2393   */\n    tag_271:\n        /* \"@thirdweb-dev/contracts/extension/BatchMintMetadata.sol\":2366:2372   */\n      dup3\n        /* \"@thirdweb-dev/contracts/extension/BatchMintMetadata.sol\":2366:2393   */\n      lt\n        /* \"@thirdweb-dev/contracts/extension/BatchMintMetadata.sol\":2362:2458   */\n      tag_272\n      jumpi\n        /* \"@thirdweb-dev/contracts/extension/BatchMintMetadata.sol\":2416:2447   */\n      mload(0x40)\n      shl(0xe1, 0x07931277)\n      dup2\n      mstore\n      0x04\n      dup2\n      add\n        /* \"#utility.yul\":4366:4391   */\n      dup4\n      swap1\n      mstore\n        /* \"#utility.yul\":4339:4357   */\n      0x24\n      add\n        /* \"@thirdweb-dev/contracts/extension/BatchMintMetadata.sol\":2416:2447   */\n      tag_226\n        /* \"#utility.yul\":4220:4397   */\n      jump\n        /* \"@thirdweb-dev/contracts/extension/BatchMintMetadata.sol\":2362:2458   */\n    tag_272:\n        /* \"@thirdweb-dev/contracts/extension/BatchMintMetadata.sol\":2474:2482   */\n      0x0c\n        /* \"@thirdweb-dev/contracts/extension/BatchMintMetadata.sol\":2483:2489   */\n      dup3\n        /* \"@thirdweb-dev/contracts/extension/BatchMintMetadata.sol\":2474:2490   */\n      dup2\n      sload\n      dup2\n      lt\n      tag_275\n      jumpi\n      tag_275\n      tag_276\n      jump\t// in\n    tag_275:\n      swap1\n      0x00\n      mstore\n      keccak256(0x00, 0x20)\n      add\n      sload\n        /* \"@thirdweb-dev/contracts/extension/BatchMintMetadata.sol\":2467:2490   */\n      swap1\n      pop\n        /* \"@thirdweb-dev/contracts/extension/BatchMintMetadata.sol\":2279:2497   */\n      swap2\n      swap1\n      pop\n      jump\t// out\n        /* \"@thirdweb-dev/contracts/extension/Royalty.sol\":1726:2051   */\n    tag_108:\n        /* \"@thirdweb-dev/contracts/extension/Royalty.sol\":1845:1861   */\n      0x00\n        /* \"@thirdweb-dev/contracts/extension/Royalty.sol\":1863:1884   */\n      dup1\n        /* \"@thirdweb-dev/contracts/extension/Royalty.sol\":1897:1914   */\n      0x00\n        /* \"@thirdweb-dev/contracts/extension/Royalty.sol\":1916:1927   */\n      dup1\n        /* \"@thirdweb-dev/contracts/extension/Royalty.sol\":1931:1962   */\n      tag_279\n        /* \"@thirdweb-dev/contracts/extension/Royalty.sol\":1954:1961   */\n      dup7\n        /* \"@thirdweb-dev/contracts/extension/Royalty.sol\":1931:1953   */\n      tag_126\n        /* \"@thirdweb-dev/contracts/extension/Royalty.sol\":1931:1962   */\n      jump\t// in\n    tag_279:\n        /* \"@thirdweb-dev/contracts/extension/Royalty.sol\":1896:1962   */\n      swap1\n      swap5\n      pop\n      dup5\n      swap3\n      pop\n      0xffff\n      and\n      swap1\n      pop\n        /* \"@thirdweb-dev/contracts/extension/Royalty.sol\":2038:2044   */\n      0x2710\n        /* \"@thirdweb-dev/contracts/extension/Royalty.sol\":2019:2034   */\n      tag_280\n        /* \"@thirdweb-dev/contracts/extension/Royalty.sol\":1896:1962   */\n      dup3\n        /* \"@thirdweb-dev/contracts/extension/Royalty.sol\":2019:2028   */\n      dup8\n        /* \"@thirdweb-dev/contracts/extension/Royalty.sol\":2019:2034   */\n      tag_281\n      jump\t// in\n    tag_280:\n        /* \"@thirdweb-dev/contracts/extension/Royalty.sol\":2018:2044   */\n      tag_282\n      swap2\n      swap1\n      tag_283\n      jump\t// in\n    tag_282:\n        /* \"@thirdweb-dev/contracts/extension/Royalty.sol\":2002:2044   */\n      swap3\n      pop\n        /* \"@thirdweb-dev/contracts/extension/Royalty.sol\":1886:2051   */\n      pop\n      pop\n        /* \"@thirdweb-dev/contracts/extension/Royalty.sol\":1726:2051   */\n      swap3\n      pop\n      swap3\n      swap1\n      pop\n      jump\t// out\n        /* \"@thirdweb-dev/contracts/eip/ERC721AVirtualApprove.sol\":8654:8803   */\n    tag_116:\n        /* \"@thirdweb-dev/contracts/eip/ERC721AVirtualApprove.sol\":8757:8796   */\n      tag_249\n        /* \"@thirdweb-dev/contracts/eip/ERC721AVirtualApprove.sol\":8774:8778   */\n      dup4\n        /* \"@thirdweb-dev/contracts/eip/ERC721AVirtualApprove.sol\":8780:8782   */\n      dup4\n        /* \"@thirdweb-dev/contracts/eip/ERC721AVirtualApprove.sol\":8784:8791   */\n      dup4\n        /* \"@thirdweb-dev/contracts/eip/ERC721AVirtualApprove.sol\":8757:8796   */\n      mload(0x40)\n      dup1\n      0x20\n      add\n      0x40\n      mstore\n      dup1\n      0x00\n      dup2\n      mstore\n      pop\n        /* \"@thirdweb-dev/contracts/eip/ERC721AVirtualApprove.sol\":8757:8773   */\n      tag_197\n        /* \"@thirdweb-dev/contracts/eip/ERC721AVirtualApprove.sol\":8757:8796   */\n      jump\t// in\n        /* \"@thirdweb-dev/contracts/base/ERC721Base.sol\":5793:5880   */\n    tag_119:\n        /* \"@thirdweb-dev/contracts/base/ERC721Base.sol\":5852:5873   */\n      tag_262\n        /* \"@thirdweb-dev/contracts/base/ERC721Base.sol\":5858:5866   */\n      dup2\n        /* \"@thirdweb-dev/contracts/base/ERC721Base.sol\":5868:5872   */\n      0x01\n        /* \"@thirdweb-dev/contracts/base/ERC721Base.sol\":5852:5857   */\n      tag_289\n        /* \"@thirdweb-dev/contracts/base/ERC721Base.sol\":5852:5873   */\n      jump\t// in\n        /* \"@thirdweb-dev/contracts/base/ERC721Base.sol\":6571:6914   */\n    tag_122:\n        /* \"@thirdweb-dev/contracts/base/ERC721Base.sol\":6686:6710   */\n      0x00\n        /* \"@thirdweb-dev/contracts/base/ERC721Base.sol\":6722:6735   */\n      dup1\n        /* \"@thirdweb-dev/contracts/base/ERC721Base.sol\":6738:6755   */\n      tag_291\n        /* \"@thirdweb-dev/contracts/base/ERC721Base.sol\":6746:6754   */\n      dup4\n        /* \"@thirdweb-dev/contracts/base/ERC721Base.sol\":6738:6745   */\n      tag_140\n        /* \"@thirdweb-dev/contracts/base/ERC721Base.sol\":6738:6755   */\n      jump\t// in\n    tag_291:\n        /* \"@thirdweb-dev/contracts/base/ERC721Base.sol\":6722:6755   */\n      swap1\n      pop\n        /* \"@thirdweb-dev/contracts/base/ERC721Base.sol\":6801:6806   */\n      dup1\n      sub(shl(0xa0, 0x01), 0x01)\n        /* \"@thirdweb-dev/contracts/base/ERC721Base.sol\":6788:6806   */\n      and\n        /* \"@thirdweb-dev/contracts/base/ERC721Base.sol\":6788:6797   */\n      dup5\n      sub(shl(0xa0, 0x01), 0x01)\n        /* \"@thirdweb-dev/contracts/base/ERC721Base.sol\":6788:6806   */\n      and\n      eq\n        /* \"@thirdweb-dev/contracts/base/ERC721Base.sol\":6788:6856   */\n      dup1\n      tag_293\n      jumpi\n      pop\n        /* \"SertifikatDigital.sol\":3155:3159  bool */\n      0x00\n        /* \"@thirdweb-dev/contracts/base/ERC721Base.sol\":6822:6856   */\n    tag_293:\n        /* \"@thirdweb-dev/contracts/base/ERC721Base.sol\":6788:6906   */\n      dup1\n      tag_294\n      jumpi\n      pop\n        /* \"@thirdweb-dev/contracts/base/ERC721Base.sol\":6897:6906   */\n      dup4\n      sub(shl(0xa0, 0x01), 0x01)\n        /* \"@thirdweb-dev/contracts/base/ERC721Base.sol\":6872:6906   */\n      and\n        /* \"@thirdweb-dev/contracts/base/ERC721Base.sol\":6872:6893   */\n      tag_295\n        /* \"@thirdweb-dev/contracts/base/ERC721Base.sol\":6884:6892   */\n      dup5\n        /* \"@thirdweb-dev/contracts/base/ERC721Base.sol\":6872:6883   */\n      tag_79\n        /* \"@thirdweb-dev/contracts/base/ERC721Base.sol\":6872:6893   */\n      jump\t// in\n    tag_295:\n      sub(shl(0xa0, 0x01), 0x01)\n        /* \"@thirdweb-dev/contracts/base/ERC721Base.sol\":6872:6906   */\n      and\n      eq\n        /* \"@thirdweb-dev/contracts/base/ERC721Base.sol\":6788:6906   */\n    tag_294:\n        /* \"@thirdweb-dev/contracts/base/ERC721Base.sol\":6765:6907   */\n      swap5\n        /* \"@thirdweb-dev/contracts/base/ERC721Base.sol\":6571:6914   */\n      swap4\n      pop\n      pop\n      pop\n      pop\n      jump\t// out\n        /* \"@thirdweb-dev/contracts/extension/Royalty.sol\":2291:2672   */\n    tag_126:\n        /* \"@thirdweb-dev/contracts/extension/Royalty.sol\":2371:2378   */\n      0x00\n        /* \"@thirdweb-dev/contracts/extension/Royalty.sol\":2435:2464   */\n      dup2\n      dup2\n      mstore\n        /* \"@thirdweb-dev/contracts/extension/Royalty.sol\":2435:2454   */\n      0x0b\n        /* \"@thirdweb-dev/contracts/extension/Royalty.sol\":2435:2464   */\n      0x20\n      swap1\n      dup2\n      mstore\n      0x40\n      dup1\n      dup4\n      keccak256\n        /* \"@thirdweb-dev/contracts/extension/Royalty.sol\":2398:2464   */\n      dup2\n      mload\n      dup1\n      dup4\n      add\n      swap1\n      swap3\n      mstore\n      dup1\n      sload\n      sub(shl(0xa0, 0x01), 0x01)\n      and\n      dup1\n      dup4\n      mstore\n      0x01\n      swap1\n      swap2\n      add\n      sload\n      swap3\n      dup3\n      add\n      swap3\n      swap1\n      swap3\n      mstore\n        /* \"@thirdweb-dev/contracts/extension/Royalty.sol\":2371:2378   */\n      dup3\n      swap2\n        /* \"@thirdweb-dev/contracts/extension/Royalty.sol\":2494:2533   */\n      iszero\n        /* \"@thirdweb-dev/contracts/extension/Royalty.sol\":2494:2665   */\n      tag_297\n      jumpi\n        /* \"@thirdweb-dev/contracts/extension/Royalty.sol\":2610:2635   */\n      dup1\n      mload\n        /* \"@thirdweb-dev/contracts/extension/Royalty.sol\":2644:2663   */\n      0x20\n      dup3\n      add\n      mload\n        /* \"@thirdweb-dev/contracts/extension/Royalty.sol\":2494:2665   */\n      jump(tag_298)\n    tag_297:\n        /* \"@thirdweb-dev/contracts/extension/Royalty.sol\":2553:2569   */\n      sload(0x0a)\n      sub(shl(0xa0, 0x01), 0x01)\n      dup2\n      and\n      swap1\n      shl(0xa0, 0x01)\n        /* \"@thirdweb-dev/contracts/extension/Royalty.sol\":2578:2588   */\n      swap1\n      div\n      0xffff\n      and\n        /* \"@thirdweb-dev/contracts/extension/Royalty.sol\":2494:2665   */\n    tag_298:\n        /* \"@thirdweb-dev/contracts/extension/Royalty.sol\":2475:2665   */\n      swap3\n      pop\n      swap3\n      pop\n      pop\n        /* \"@thirdweb-dev/contracts/extension/Royalty.sol\":2291:2672   */\n      swap2\n      pop\n      swap2\n      jump\t// out\n        /* \"@thirdweb-dev/contracts/eip/queryable/ERC721AQueryable.sol\":1514:1973   */\n    tag_132:\n        /* \"@thirdweb-dev/contracts/eip/queryable/ERC721AQueryable.sol\":1687:1702   */\n      dup1\n      mload\n        /* \"@thirdweb-dev/contracts/eip/queryable/ERC721AQueryable.sol\":1603:1626   */\n      0x60\n      swap1\n        /* \"@thirdweb-dev/contracts/eip/queryable/ERC721AQueryable.sol\":1662:1684   */\n      0x00\n        /* \"@thirdweb-dev/contracts/eip/queryable/ERC721AQueryable.sol\":1687:1702   */\n      dup2\n        /* \"@thirdweb-dev/contracts/eip/queryable/ERC721AQueryable.sol\":1753:1789   */\n      0xffffffffffffffff\n      dup2\n      gt\n      iszero\n      tag_301\n      jumpi\n      tag_301\n      tag_302\n      jump\t// in\n    tag_301:\n      mload(0x40)\n      swap1\n      dup1\n      dup3\n      mstore\n      dup1\n      0x20\n      mul\n      0x20\n      add\n      dup3\n      add\n      0x40\n      mstore\n      dup1\n      iszero\n      tag_303\n      jumpi\n      dup2\n      0x20\n      add\n    tag_304:\n      0x40\n      dup1\n      mload\n      0x60\n      dup2\n      add\n      dup3\n      mstore\n      0x00\n      dup1\n      dup3\n      mstore\n      0x20\n      dup1\n      dup4\n      add\n      dup3\n      swap1\n      mstore\n      swap3\n      dup3\n      add\n      mstore\n      dup3\n      mstore\n      not(0x00)\n      swap1\n      swap3\n      add\n      swap2\n      add\n      dup2\n      tag_304\n      jumpi\n      swap1\n      pop\n    tag_303:\n      pop\n        /* \"@thirdweb-dev/contracts/eip/queryable/ERC721AQueryable.sol\":1716:1789   */\n      swap1\n      pop\n        /* \"@thirdweb-dev/contracts/eip/queryable/ERC721AQueryable.sol\":1808:1817   */\n      0x00\n        /* \"@thirdweb-dev/contracts/eip/queryable/ERC721AQueryable.sol\":1803:1926   */\n    tag_307:\n        /* \"@thirdweb-dev/contracts/eip/queryable/ERC721AQueryable.sol\":1824:1838   */\n      dup3\n        /* \"@thirdweb-dev/contracts/eip/queryable/ERC721AQueryable.sol\":1819:1820   */\n      dup2\n        /* \"@thirdweb-dev/contracts/eip/queryable/ERC721AQueryable.sol\":1819:1838   */\n      eq\n        /* \"@thirdweb-dev/contracts/eip/queryable/ERC721AQueryable.sol\":1803:1926   */\n      tag_308\n      jumpi\n        /* \"@thirdweb-dev/contracts/eip/queryable/ERC721AQueryable.sol\":1879:1911   */\n      tag_310\n        /* \"@thirdweb-dev/contracts/eip/queryable/ERC721AQueryable.sol\":1899:1907   */\n      dup6\n        /* \"@thirdweb-dev/contracts/eip/queryable/ERC721AQueryable.sol\":1908:1909   */\n      dup3\n        /* \"@thirdweb-dev/contracts/eip/queryable/ERC721AQueryable.sol\":1899:1910   */\n      dup2\n      mload\n      dup2\n      lt\n      tag_312\n      jumpi\n      tag_312\n      tag_276\n      jump\t// in\n    tag_312:\n      0x20\n      mul\n      0x20\n      add\n      add\n      mload\n        /* \"@thirdweb-dev/contracts/eip/queryable/ERC721AQueryable.sol\":1879:1898   */\n      tag_203\n        /* \"@thirdweb-dev/contracts/eip/queryable/ERC721AQueryable.sol\":1879:1911   */\n      jump\t// in\n    tag_310:\n        /* \"@thirdweb-dev/contracts/eip/queryable/ERC721AQueryable.sol\":1863:1873   */\n      dup3\n        /* \"@thirdweb-dev/contracts/eip/queryable/ERC721AQueryable.sol\":1874:1875   */\n      dup3\n        /* \"@thirdweb-dev/contracts/eip/queryable/ERC721AQueryable.sol\":1863:1876   */\n      dup2\n      mload\n      dup2\n      lt\n      tag_314\n      jumpi\n      tag_314\n      tag_276\n      jump\t// in\n    tag_314:\n      0x20\n      swap1\n      dup2\n      mul\n      swap2\n      swap1\n      swap2\n      add\n      add\n        /* \"@thirdweb-dev/contracts/eip/queryable/ERC721AQueryable.sol\":1863:1911   */\n      mstore\n        /* \"@thirdweb-dev/contracts/eip/queryable/ERC721AQueryable.sol\":1840:1843   */\n      0x01\n      add\n        /* \"@thirdweb-dev/contracts/eip/queryable/ERC721AQueryable.sol\":1803:1926   */\n      jump(tag_307)\n    tag_308:\n      pop\n        /* \"@thirdweb-dev/contracts/eip/queryable/ERC721AQueryable.sol\":1946:1956   */\n      swap4\n        /* \"@thirdweb-dev/contracts/eip/queryable/ERC721AQueryable.sol\":1514:1973   */\n      swap3\n      pop\n      pop\n      pop\n      jump\t// out\n        /* \"@thirdweb-dev/contracts/extension/Royalty.sol\":3370:3630   */\n    tag_137:\n        /* \"@thirdweb-dev/contracts/extension/Royalty.sol\":3482:3502   */\n      tag_316\n        /* \"@thirdweb-dev/contracts/extension/Royalty.sol\":3482:3500   */\n      tag_224\n        /* \"@thirdweb-dev/contracts/extension/Royalty.sol\":3482:3502   */\n      jump\t// in\n    tag_316:\n        /* \"@thirdweb-dev/contracts/extension/Royalty.sol\":3477:3557   */\n      tag_318\n      jumpi\n        /* \"@thirdweb-dev/contracts/extension/Royalty.sol\":3525:3546   */\n      mload(0x40)\n      shl(0xe1, 0x6fae3581)\n      dup2\n      mstore\n      0x04\n      add\n      mload(0x40)\n      dup1\n      swap2\n      sub\n      swap1\n      revert\n        /* \"@thirdweb-dev/contracts/extension/Royalty.sol\":3477:3557   */\n    tag_318:\n        /* \"@thirdweb-dev/contracts/extension/Royalty.sol\":3567:3623   */\n      tag_231\n        /* \"@thirdweb-dev/contracts/extension/Royalty.sol\":3592:3609   */\n      dup3\n        /* \"@thirdweb-dev/contracts/extension/Royalty.sol\":3611:3622   */\n      dup3\n        /* \"@thirdweb-dev/contracts/extension/Royalty.sol\":3567:3591   */\n      tag_320\n        /* \"@thirdweb-dev/contracts/extension/Royalty.sol\":3567:3623   */\n      jump\t// in\n        /* \"@thirdweb-dev/contracts/eip/ERC721AVirtualApprove.sol\":5944:6067   */\n    tag_140:\n        /* \"@thirdweb-dev/contracts/eip/ERC721AVirtualApprove.sol\":6008:6015   */\n      0x00\n        /* \"@thirdweb-dev/contracts/eip/ERC721AVirtualApprove.sol\":6034:6055   */\n      tag_322\n        /* \"@thirdweb-dev/contracts/eip/ERC721AVirtualApprove.sol\":6047:6054   */\n      dup3\n        /* \"@thirdweb-dev/contracts/eip/ERC721AVirtualApprove.sol\":6034:6046   */\n      tag_323\n        /* \"@thirdweb-dev/contracts/eip/ERC721AVirtualApprove.sol\":6034:6055   */\n      jump\t// in\n    tag_322:\n        /* \"@thirdweb-dev/contracts/eip/ERC721AVirtualApprove.sol\":6034:6060   */\n      mload\n      swap3\n        /* \"@thirdweb-dev/contracts/eip/ERC721AVirtualApprove.sol\":5944:6067   */\n      swap2\n      pop\n      pop\n      jump\t// out\n        /* \"@thirdweb-dev/contracts/eip/ERC721AVirtualApprove.sol\":3370:3573   */\n    tag_147:\n        /* \"@thirdweb-dev/contracts/eip/ERC721AVirtualApprove.sol\":3434:3441   */\n      0x00\n      sub(shl(0xa0, 0x01), 0x01)\n        /* \"@thirdweb-dev/contracts/eip/ERC721AVirtualApprove.sol\":3457:3476   */\n      dup3\n      and\n        /* \"@thirdweb-dev/contracts/eip/ERC721AVirtualApprove.sol\":3453:3513   */\n      tag_326\n      jumpi\n        /* \"@thirdweb-dev/contracts/eip/ERC721AVirtualApprove.sol\":3485:3513   */\n      mload(0x40)\n      shl(0xe2, 0x23d3ad81)\n      dup2\n      mstore\n      0x04\n      add\n      mload(0x40)\n      dup1\n      swap2\n      sub\n      swap1\n      revert\n        /* \"@thirdweb-dev/contracts/eip/ERC721AVirtualApprove.sol\":3453:3513   */\n    tag_326:\n      pop\n      sub(shl(0xa0, 0x01), 0x01)\n        /* \"@thirdweb-dev/contracts/eip/ERC721AVirtualApprove.sol\":3538:3557   */\n      and\n      0x00\n      swap1\n      dup2\n      mstore\n        /* \"@thirdweb-dev/contracts/eip/ERC721AVirtualApprove.sol\":3538:3550   */\n      0x05\n        /* \"@thirdweb-dev/contracts/eip/ERC721AVirtualApprove.sol\":3538:3557   */\n      0x20\n      mstore\n      0x40\n      swap1\n      keccak256\n        /* \"@thirdweb-dev/contracts/eip/ERC721AVirtualApprove.sol\":3538:3565   */\n      sload\n      0xffffffffffffffff\n      and\n      swap1\n        /* \"@thirdweb-dev/contracts/eip/ERC721AVirtualApprove.sol\":3370:3573   */\n      jump\t// out\n        /* \"@thirdweb-dev/contracts/base/ERC721Base.sol\":5232:5519   */\n    tag_152:\n        /* \"@thirdweb-dev/contracts/base/ERC721Base.sol\":5362:5372   */\n      tag_328\n        /* \"@thirdweb-dev/contracts/base/ERC721Base.sol\":5362:5370   */\n      tag_224\n        /* \"@thirdweb-dev/contracts/base/ERC721Base.sol\":5362:5372   */\n      jump\t// in\n    tag_328:\n        /* \"@thirdweb-dev/contracts/base/ERC721Base.sol\":5354:5400   */\n      tag_329\n      jumpi\n      mload(0x40)\n      shl(0xe5, 0x461bcd)\n      dup2\n      mstore\n        /* \"#utility.yul\":13991:13993   */\n      0x20\n        /* \"@thirdweb-dev/contracts/base/ERC721Base.sol\":5354:5400   */\n      0x04\n      dup3\n      add\n        /* \"#utility.yul\":13973:13994   */\n      mstore\n        /* \"#utility.yul\":14030:14032   */\n      0x17\n        /* \"#utility.yul\":14010:14028   */\n      0x24\n      dup3\n      add\n        /* \"#utility.yul\":14003:14033   */\n      mstore\n        /* \"#utility.yul\":14069:14094   */\n      0x4e6f7420617574686f72697a656420746f206d696e742e000000000000000000\n        /* \"#utility.yul\":14049:14067   */\n      0x44\n      dup3\n      add\n        /* \"#utility.yul\":14042:14095   */\n      mstore\n        /* \"#utility.yul\":14112:14130   */\n      0x64\n      add\n        /* \"@thirdweb-dev/contracts/base/ERC721Base.sol\":5354:5400   */\n      tag_226\n        /* \"#utility.yul\":13789:14136   */\n      jump\n        /* \"@thirdweb-dev/contracts/base/ERC721Base.sol\":5354:5400   */\n    tag_329:\n        /* \"@thirdweb-dev/contracts/base/ERC721Base.sol\":5410:5470   */\n      tag_331\n        /* \"@thirdweb-dev/contracts/base/ERC721Base.sol\":5429:5448   */\n      tag_332\n        /* \"@thirdweb-dev/contracts/base/ERC721Base.sol\":6193:6200   */\n      0x00\n        /* \"@thirdweb-dev/contracts/base/ERC721Base.sol\":6219:6232   */\n      sload\n      swap1\n        /* \"@thirdweb-dev/contracts/base/ERC721Base.sol\":6135:6239   */\n      jump\n        /* \"@thirdweb-dev/contracts/base/ERC721Base.sol\":5429:5448   */\n    tag_332:\n        /* \"@thirdweb-dev/contracts/base/ERC721Base.sol\":5450:5459   */\n      dup5\n        /* \"@thirdweb-dev/contracts/base/ERC721Base.sol\":5461:5469   */\n      dup5\n        /* \"@thirdweb-dev/contracts/base/ERC721Base.sol\":5410:5428   */\n      tag_333\n        /* \"@thirdweb-dev/contracts/base/ERC721Base.sol\":5410:5470   */\n      jump\t// in\n    tag_331:\n      pop\n      pop\n        /* \"@thirdweb-dev/contracts/base/ERC721Base.sol\":5480:5512   */\n      tag_334\n        /* \"@thirdweb-dev/contracts/base/ERC721Base.sol\":5490:5493   */\n      dup5\n        /* \"@thirdweb-dev/contracts/base/ERC721Base.sol\":5495:5504   */\n      dup5\n        /* \"@thirdweb-dev/contracts/base/ERC721Base.sol\":5506:5511   */\n      dup4\n        /* \"@thirdweb-dev/contracts/base/ERC721Base.sol\":5480:5489   */\n      tag_232\n        /* \"@thirdweb-dev/contracts/base/ERC721Base.sol\":5480:5512   */\n      jump\t// in\n    tag_334:\n        /* \"@thirdweb-dev/contracts/base/ERC721Base.sol\":5232:5519   */\n      pop\n      pop\n      pop\n      pop\n      jump\t// out\n        /* \"@thirdweb-dev/contracts/eip/queryable/ERC721AQueryable.sol\":5285:6155   */\n    tag_159:\n        /* \"@thirdweb-dev/contracts/eip/queryable/ERC721AQueryable.sol\":5355:5371   */\n      0x60\n        /* \"@thirdweb-dev/contracts/eip/queryable/ERC721AQueryable.sol\":5407:5426   */\n      0x00\n        /* \"@thirdweb-dev/contracts/eip/queryable/ERC721AQueryable.sol\":5440:5465   */\n      dup1\n        /* \"@thirdweb-dev/contracts/eip/queryable/ERC721AQueryable.sol\":5479:5501   */\n      0x00\n        /* \"@thirdweb-dev/contracts/eip/queryable/ERC721AQueryable.sol\":5504:5520   */\n      tag_336\n        /* \"@thirdweb-dev/contracts/eip/queryable/ERC721AQueryable.sol\":5514:5519   */\n      dup6\n        /* \"@thirdweb-dev/contracts/eip/queryable/ERC721AQueryable.sol\":5504:5513   */\n      tag_147\n        /* \"@thirdweb-dev/contracts/eip/queryable/ERC721AQueryable.sol\":5504:5520   */\n      jump\t// in\n    tag_336:\n        /* \"@thirdweb-dev/contracts/eip/queryable/ERC721AQueryable.sol\":5479:5520   */\n      swap1\n      pop\n        /* \"@thirdweb-dev/contracts/eip/queryable/ERC721AQueryable.sol\":5534:5559   */\n      0x00\n        /* \"@thirdweb-dev/contracts/eip/queryable/ERC721AQueryable.sol\":5576:5590   */\n      dup2\n        /* \"@thirdweb-dev/contracts/eip/queryable/ERC721AQueryable.sol\":5562:5591   */\n      0xffffffffffffffff\n      dup2\n      gt\n      iszero\n      tag_338\n      jumpi\n      tag_338\n      tag_302\n      jump\t// in\n    tag_338:\n      mload(0x40)\n      swap1\n      dup1\n      dup3\n      mstore\n      dup1\n      0x20\n      mul\n      0x20\n      add\n      dup3\n      add\n      0x40\n      mstore\n      dup1\n      iszero\n      tag_339\n      jumpi\n      dup2\n      0x20\n      add\n      0x20\n      dup3\n      mul\n      dup1\n      calldatasize\n      dup4\n      calldatacopy\n      add\n      swap1\n      pop\n    tag_339:\n      pop\n      0x40\n      dup1\n      mload\n      0x60\n      dup2\n      add\n      dup3\n      mstore\n      0x00\n      dup1\n      dup3\n      mstore\n      0x20\n      dup3\n      add\n      dup2\n      swap1\n      mstore\n      swap2\n      dup2\n      add\n      dup3\n      swap1\n      mstore\n        /* \"@thirdweb-dev/contracts/eip/queryable/ERC721AQueryable.sol\":5534:5591   */\n      swap2\n      swap3\n      pop\n        /* \"@thirdweb-dev/contracts/eip/queryable/ERC721AQueryable.sol\":5650:6110   */\n    tag_341:\n        /* \"@thirdweb-dev/contracts/eip/queryable/ERC721AQueryable.sol\":5699:5713   */\n      dup4\n        /* \"@thirdweb-dev/contracts/eip/queryable/ERC721AQueryable.sol\":5684:5695   */\n      dup7\n        /* \"@thirdweb-dev/contracts/eip/queryable/ERC721AQueryable.sol\":5684:5713   */\n      eq\n        /* \"@thirdweb-dev/contracts/eip/queryable/ERC721AQueryable.sol\":5650:6110   */\n      tag_342\n      jumpi\n        /* \"@thirdweb-dev/contracts/eip/queryable/ERC721AQueryable.sol\":5750:5764   */\n      0x00\n      dup2\n      dup2\n      mstore\n        /* \"@thirdweb-dev/contracts/eip/queryable/ERC721AQueryable.sol\":5750:5761   */\n      0x04\n        /* \"@thirdweb-dev/contracts/eip/queryable/ERC721AQueryable.sol\":5750:5764   */\n      0x20\n      swap1\n      dup2\n      mstore\n      0x40\n      swap2\n      dup3\n      swap1\n      keccak256\n        /* \"@thirdweb-dev/contracts/eip/queryable/ERC721AQueryable.sol\":5738:5764   */\n      dup3\n      mload\n      0x60\n      dup2\n      add\n      dup5\n      mstore\n      swap1\n      sload\n      sub(shl(0xa0, 0x01), 0x01)\n      dup2\n      and\n      dup3\n      mstore\n      shl(0xa0, 0x01)\n      dup2\n      div\n      0xffffffffffffffff\n      and\n      swap3\n      dup3\n      add\n      swap3\n      swap1\n      swap3\n      mstore\n      shl(0xe0, 0x01)\n      swap1\n      swap2\n      div\n      0xff\n      and\n      iszero\n      iszero\n      swap2\n      dup2\n      add\n      dup3\n      swap1\n      mstore\n      swap3\n      pop\n        /* \"@thirdweb-dev/contracts/eip/queryable/ERC721AQueryable.sol\":5826:5834   */\n      tag_347\n        /* \"@thirdweb-dev/contracts/eip/queryable/ERC721AQueryable.sol\":5782:5853   */\n      jumpi\n        /* \"@thirdweb-dev/contracts/eip/queryable/ERC721AQueryable.sol\":5874:5888   */\n      dup2\n      mload\n      sub(shl(0xa0, 0x01), 0x01)\n        /* \"@thirdweb-dev/contracts/eip/queryable/ERC721AQueryable.sol\":5874:5902   */\n      and\n      iszero\n        /* \"@thirdweb-dev/contracts/eip/queryable/ERC721AQueryable.sol\":5870:5979   */\n      tag_346\n      jumpi\n        /* \"@thirdweb-dev/contracts/eip/queryable/ERC721AQueryable.sol\":5946:5960   */\n      dup2\n      mload\n      swap5\n      pop\n        /* \"@thirdweb-dev/contracts/eip/queryable/ERC721AQueryable.sol\":5870:5979   */\n    tag_346:\n        /* \"@thirdweb-dev/contracts/eip/queryable/ERC721AQueryable.sol\":6021:6026   */\n      dup8\n      sub(shl(0xa0, 0x01), 0x01)\n        /* \"@thirdweb-dev/contracts/eip/queryable/ERC721AQueryable.sol\":6000:6026   */\n      and\n        /* \"@thirdweb-dev/contracts/eip/queryable/ERC721AQueryable.sol\":6000:6017   */\n      dup6\n      sub(shl(0xa0, 0x01), 0x01)\n        /* \"@thirdweb-dev/contracts/eip/queryable/ERC721AQueryable.sol\":6000:6026   */\n      and\n      sub\n        /* \"@thirdweb-dev/contracts/eip/queryable/ERC721AQueryable.sol\":5996:6096   */\n      tag_347\n      jumpi\n        /* \"@thirdweb-dev/contracts/eip/queryable/ERC721AQueryable.sol\":6076:6077   */\n      dup1\n        /* \"@thirdweb-dev/contracts/eip/queryable/ERC721AQueryable.sol\":6050:6058   */\n      dup4\n        /* \"@thirdweb-dev/contracts/eip/queryable/ERC721AQueryable.sol\":6059:6072   */\n      dup8\n      dup1\n      0x01\n      add\n      swap9\n      pop\n        /* \"@thirdweb-dev/contracts/eip/queryable/ERC721AQueryable.sol\":6050:6073   */\n      dup2\n      mload\n      dup2\n      lt\n      tag_349\n      jumpi\n      tag_349\n      tag_276\n      jump\t// in\n    tag_349:\n      0x20\n      mul\n      0x20\n      add\n      add\n        /* \"@thirdweb-dev/contracts/eip/queryable/ERC721AQueryable.sol\":6050:6077   */\n      dup2\n      dup2\n      mstore\n      pop\n      pop\n        /* \"@thirdweb-dev/contracts/eip/queryable/ERC721AQueryable.sol\":5996:6096   */\n    tag_347:\n        /* \"@thirdweb-dev/contracts/eip/queryable/ERC721AQueryable.sol\":5715:5718   */\n      0x01\n      add\n        /* \"@thirdweb-dev/contracts/eip/queryable/ERC721AQueryable.sol\":5650:6110   */\n      jump(tag_341)\n    tag_342:\n      pop\n        /* \"@thirdweb-dev/contracts/eip/queryable/ERC721AQueryable.sol\":6130:6138   */\n      swap1\n      swap7\n        /* \"@thirdweb-dev/contracts/eip/queryable/ERC721AQueryable.sol\":5285:6155   */\n      swap6\n      pop\n      pop\n      pop\n      pop\n      pop\n      pop\n      jump\t// out\n        /* \"@thirdweb-dev/contracts/extension/ContractMetadata.sol\":1110:1311   */\n    tag_168:\n        /* \"@thirdweb-dev/contracts/extension/ContractMetadata.sol\":1187:1207   */\n      tag_352\n        /* \"@thirdweb-dev/contracts/extension/ContractMetadata.sol\":1187:1205   */\n      tag_224\n        /* \"@thirdweb-dev/contracts/extension/ContractMetadata.sol\":1187:1207   */\n      jump\t// in\n    tag_352:\n        /* \"@thirdweb-dev/contracts/extension/ContractMetadata.sol\":1182:1271   */\n      tag_354\n      jumpi\n        /* \"@thirdweb-dev/contracts/extension/ContractMetadata.sol\":1230:1260   */\n      mload(0x40)\n      shl(0xe0, 0x9f7f0925)\n      dup2\n      mstore\n      0x04\n      add\n      mload(0x40)\n      dup1\n      swap2\n      sub\n      swap1\n      revert\n        /* \"@thirdweb-dev/contracts/extension/ContractMetadata.sol\":1182:1271   */\n    tag_354:\n        /* \"@thirdweb-dev/contracts/extension/ContractMetadata.sol\":1281:1304   */\n      tag_262\n        /* \"@thirdweb-dev/contracts/extension/ContractMetadata.sol\":1299:1303   */\n      dup2\n        /* \"@thirdweb-dev/contracts/extension/ContractMetadata.sol\":1281:1298   */\n      tag_356\n        /* \"@thirdweb-dev/contracts/extension/ContractMetadata.sol\":1281:1304   */\n      jump\t// in\n        /* \"@thirdweb-dev/contracts/eip/ERC721AVirtualApprove.sol\":6291:6393   */\n    tag_170:\n        /* \"@thirdweb-dev/contracts/eip/ERC721AVirtualApprove.sol\":6347:6360   */\n      0x60\n        /* \"@thirdweb-dev/contracts/eip/ERC721AVirtualApprove.sol\":6379:6386   */\n      0x03\n        /* \"@thirdweb-dev/contracts/eip/ERC721AVirtualApprove.sol\":6372:6386   */\n      dup1\n      sload\n      tag_238\n      swap1\n      tag_239\n      jump\t// in\n        /* \"@thirdweb-dev/contracts/eip/queryable/ERC721AQueryable.sol\":2374:4822   */\n    tag_175:\n        /* \"@thirdweb-dev/contracts/eip/queryable/ERC721AQueryable.sol\":2505:2521   */\n      0x60\n        /* \"@thirdweb-dev/contracts/eip/queryable/ERC721AQueryable.sol\":2570:2574   */\n      dup2\n        /* \"@thirdweb-dev/contracts/eip/queryable/ERC721AQueryable.sol\":2561:2566   */\n      dup4\n        /* \"@thirdweb-dev/contracts/eip/queryable/ERC721AQueryable.sol\":2561:2574   */\n      lt\n        /* \"@thirdweb-dev/contracts/eip/queryable/ERC721AQueryable.sol\":2557:2602   */\n      tag_364\n      jumpi\n        /* \"@thirdweb-dev/contracts/eip/queryable/ERC721AQueryable.sol\":2583:2602   */\n      mload(0x40)\n      shl(0xe1, 0x1960ccad)\n      dup2\n      mstore\n      0x04\n      add\n      mload(0x40)\n      dup1\n      swap2\n      sub\n      swap1\n      revert\n        /* \"@thirdweb-dev/contracts/eip/queryable/ERC721AQueryable.sol\":2557:2602   */\n    tag_364:\n        /* \"@thirdweb-dev/contracts/eip/queryable/ERC721AQueryable.sol\":2616:2635   */\n      0x00\n        /* \"@thirdweb-dev/contracts/eip/queryable/ERC721AQueryable.sol\":2669:2682   */\n      dup1\n      sload\n        /* \"@thirdweb-dev/contracts/eip/queryable/ERC721AQueryable.sol\":2917:2926   */\n      dup1\n        /* \"@thirdweb-dev/contracts/eip/queryable/ERC721AQueryable.sol\":2910:2914   */\n      dup5\n        /* \"@thirdweb-dev/contracts/eip/queryable/ERC721AQueryable.sol\":2910:2926   */\n      gt\n        /* \"@thirdweb-dev/contracts/eip/queryable/ERC721AQueryable.sol\":2906:2977   */\n      iszero\n      tag_368\n      jumpi\n        /* \"@thirdweb-dev/contracts/eip/queryable/ERC721AQueryable.sol\":2953:2962   */\n      dup1\n        /* \"@thirdweb-dev/contracts/eip/queryable/ERC721AQueryable.sol\":2946:2962   */\n      swap4\n      pop\n        /* \"@thirdweb-dev/contracts/eip/queryable/ERC721AQueryable.sol\":2906:2977   */\n    tag_368:\n        /* \"@thirdweb-dev/contracts/eip/queryable/ERC721AQueryable.sol\":2990:3015   */\n      0x00\n        /* \"@thirdweb-dev/contracts/eip/queryable/ERC721AQueryable.sol\":3018:3034   */\n      tag_369\n        /* \"@thirdweb-dev/contracts/eip/queryable/ERC721AQueryable.sol\":3028:3033   */\n      dup8\n        /* \"@thirdweb-dev/contracts/eip/queryable/ERC721AQueryable.sol\":3018:3027   */\n      tag_147\n        /* \"@thirdweb-dev/contracts/eip/queryable/ERC721AQueryable.sol\":3018:3034   */\n      jump\t// in\n    tag_369:\n        /* \"@thirdweb-dev/contracts/eip/queryable/ERC721AQueryable.sol\":2990:3034   */\n      swap1\n      pop\n        /* \"@thirdweb-dev/contracts/eip/queryable/ERC721AQueryable.sol\":3209:3213   */\n      dup5\n        /* \"@thirdweb-dev/contracts/eip/queryable/ERC721AQueryable.sol\":3201:3206   */\n      dup7\n        /* \"@thirdweb-dev/contracts/eip/queryable/ERC721AQueryable.sol\":3201:3213   */\n      lt\n        /* \"@thirdweb-dev/contracts/eip/queryable/ERC721AQueryable.sol\":3197:3468   */\n      iszero\n      tag_370\n      jumpi\n        /* \"@thirdweb-dev/contracts/eip/queryable/ERC721AQueryable.sol\":3255:3267   */\n      dup6\n      dup6\n      sub\n        /* \"@thirdweb-dev/contracts/eip/queryable/ERC721AQueryable.sol\":3289:3320   */\n      dup2\n      dup2\n      lt\n        /* \"@thirdweb-dev/contracts/eip/queryable/ERC721AQueryable.sol\":3285:3394   */\n      iszero\n      tag_371\n      jumpi\n        /* \"@thirdweb-dev/contracts/eip/queryable/ERC721AQueryable.sol\":3364:3375   */\n      dup1\n        /* \"@thirdweb-dev/contracts/eip/queryable/ERC721AQueryable.sol\":3344:3375   */\n      swap2\n      pop\n        /* \"@thirdweb-dev/contracts/eip/queryable/ERC721AQueryable.sol\":3285:3394   */\n    tag_371:\n        /* \"@thirdweb-dev/contracts/eip/queryable/ERC721AQueryable.sol\":3215:3408   */\n      pop\n        /* \"@thirdweb-dev/contracts/eip/queryable/ERC721AQueryable.sol\":3197:3468   */\n      jump(tag_372)\n    tag_370:\n      pop\n        /* \"@thirdweb-dev/contracts/eip/queryable/ERC721AQueryable.sol\":3452:3453   */\n      0x00\n        /* \"@thirdweb-dev/contracts/eip/queryable/ERC721AQueryable.sol\":3197:3468   */\n    tag_372:\n        /* \"@thirdweb-dev/contracts/eip/queryable/ERC721AQueryable.sol\":3481:3506   */\n      0x00\n        /* \"@thirdweb-dev/contracts/eip/queryable/ERC721AQueryable.sol\":3523:3540   */\n      dup2\n        /* \"@thirdweb-dev/contracts/eip/queryable/ERC721AQueryable.sol\":3509:3541   */\n      0xffffffffffffffff\n      dup2\n      gt\n      iszero\n      tag_374\n      jumpi\n      tag_374\n      tag_302\n      jump\t// in\n    tag_374:\n      mload(0x40)\n      swap1\n      dup1\n      dup3\n      mstore\n      dup1\n      0x20\n      mul\n      0x20\n      add\n      dup3\n      add\n      0x40\n      mstore\n      dup1\n      iszero\n      tag_375\n      jumpi\n      dup2\n      0x20\n      add\n      0x20\n      dup3\n      mul\n      dup1\n      calldatasize\n      dup4\n      calldatacopy\n      add\n      swap1\n      pop\n    tag_375:\n      pop\n        /* \"@thirdweb-dev/contracts/eip/queryable/ERC721AQueryable.sol\":3481:3541   */\n      swap1\n      pop\n        /* \"@thirdweb-dev/contracts/eip/queryable/ERC721AQueryable.sol\":3559:3576   */\n      dup2\n        /* \"@thirdweb-dev/contracts/eip/queryable/ERC721AQueryable.sol\":3580:3581   */\n      0x00\n        /* \"@thirdweb-dev/contracts/eip/queryable/ERC721AQueryable.sol\":3559:3581   */\n      sub\n        /* \"@thirdweb-dev/contracts/eip/queryable/ERC721AQueryable.sol\":3555:3631   */\n      tag_376\n      jumpi\n        /* \"@thirdweb-dev/contracts/eip/queryable/ERC721AQueryable.sol\":3608:3616   */\n      swap4\n      pop\n        /* \"@thirdweb-dev/contracts/eip/queryable/ERC721AQueryable.sol\":3601:3616   */\n      tag_363\n      swap3\n      pop\n      pop\n      pop\n      jump\n        /* \"@thirdweb-dev/contracts/eip/queryable/ERC721AQueryable.sol\":3555:3631   */\n    tag_376:\n        /* \"@thirdweb-dev/contracts/eip/queryable/ERC721AQueryable.sol\":3772:3803   */\n      0x00\n        /* \"@thirdweb-dev/contracts/eip/queryable/ERC721AQueryable.sol\":3806:3832   */\n      tag_377\n        /* \"@thirdweb-dev/contracts/eip/queryable/ERC721AQueryable.sol\":3826:3831   */\n      dup9\n        /* \"@thirdweb-dev/contracts/eip/queryable/ERC721AQueryable.sol\":3806:3825   */\n      tag_203\n        /* \"@thirdweb-dev/contracts/eip/queryable/ERC721AQueryable.sol\":3806:3832   */\n      jump\t// in\n    tag_377:\n        /* \"@thirdweb-dev/contracts/eip/queryable/ERC721AQueryable.sol\":3772:3832   */\n      swap1\n      pop\n        /* \"@thirdweb-dev/contracts/eip/queryable/ERC721AQueryable.sol\":3846:3871   */\n      0x00\n        /* \"@thirdweb-dev/contracts/eip/queryable/ERC721AQueryable.sol\":4088:4097   */\n      dup2\n        /* \"@thirdweb-dev/contracts/eip/queryable/ERC721AQueryable.sol\":4088:4104   */\n      0x40\n      add\n      mload\n        /* \"@thirdweb-dev/contracts/eip/queryable/ERC721AQueryable.sol\":4083:4173   */\n      tag_378\n      jumpi\n      pop\n        /* \"@thirdweb-dev/contracts/eip/queryable/ERC721AQueryable.sol\":4144:4158   */\n      dup1\n      mload\n        /* \"@thirdweb-dev/contracts/eip/queryable/ERC721AQueryable.sol\":4083:4173   */\n    tag_378:\n        /* \"@thirdweb-dev/contracts/eip/queryable/ERC721AQueryable.sol\":4203:4208   */\n      dup9\n        /* \"@thirdweb-dev/contracts/eip/queryable/ERC721AQueryable.sol\":4186:4652   */\n    tag_379:\n        /* \"@thirdweb-dev/contracts/eip/queryable/ERC721AQueryable.sol\":4215:4219   */\n      dup9\n        /* \"@thirdweb-dev/contracts/eip/queryable/ERC721AQueryable.sol\":4210:4211   */\n      dup2\n        /* \"@thirdweb-dev/contracts/eip/queryable/ERC721AQueryable.sol\":4210:4219   */\n      eq\n      iszero\n        /* \"@thirdweb-dev/contracts/eip/queryable/ERC721AQueryable.sol\":4210:4255   */\n      dup1\n      iszero\n      tag_382\n      jumpi\n      pop\n        /* \"@thirdweb-dev/contracts/eip/queryable/ERC721AQueryable.sol\":4238:4255   */\n      dup5\n        /* \"@thirdweb-dev/contracts/eip/queryable/ERC721AQueryable.sol\":4223:4234   */\n      dup8\n        /* \"@thirdweb-dev/contracts/eip/queryable/ERC721AQueryable.sol\":4223:4255   */\n      eq\n      iszero\n        /* \"@thirdweb-dev/contracts/eip/queryable/ERC721AQueryable.sol\":4210:4255   */\n    tag_382:\n        /* \"@thirdweb-dev/contracts/eip/queryable/ERC721AQueryable.sol\":4186:4652   */\n      iszero\n      tag_380\n      jumpi\n        /* \"@thirdweb-dev/contracts/eip/queryable/ERC721AQueryable.sol\":4292:4306   */\n      0x00\n      dup2\n      dup2\n      mstore\n        /* \"@thirdweb-dev/contracts/eip/queryable/ERC721AQueryable.sol\":4292:4303   */\n      0x04\n        /* \"@thirdweb-dev/contracts/eip/queryable/ERC721AQueryable.sol\":4292:4306   */\n      0x20\n      swap1\n      dup2\n      mstore\n      0x40\n      swap2\n      dup3\n      swap1\n      keccak256\n        /* \"@thirdweb-dev/contracts/eip/queryable/ERC721AQueryable.sol\":4280:4306   */\n      dup3\n      mload\n      0x60\n      dup2\n      add\n      dup5\n      mstore\n      swap1\n      sload\n      sub(shl(0xa0, 0x01), 0x01)\n      dup2\n      and\n      dup3\n      mstore\n      shl(0xa0, 0x01)\n      dup2\n      div\n      0xffffffffffffffff\n      and\n      swap3\n      dup3\n      add\n      swap3\n      swap1\n      swap3\n      mstore\n      shl(0xe0, 0x01)\n      swap1\n      swap2\n      div\n      0xff\n      and\n      iszero\n      iszero\n      swap2\n      dup2\n      add\n      dup3\n      swap1\n      mstore\n      swap4\n      pop\n        /* \"@thirdweb-dev/contracts/eip/queryable/ERC721AQueryable.sol\":4368:4376   */\n      tag_385\n        /* \"@thirdweb-dev/contracts/eip/queryable/ERC721AQueryable.sol\":4324:4395   */\n      jumpi\n        /* \"@thirdweb-dev/contracts/eip/queryable/ERC721AQueryable.sol\":4416:4430   */\n      dup3\n      mload\n      sub(shl(0xa0, 0x01), 0x01)\n        /* \"@thirdweb-dev/contracts/eip/queryable/ERC721AQueryable.sol\":4416:4444   */\n      and\n      iszero\n        /* \"@thirdweb-dev/contracts/eip/queryable/ERC721AQueryable.sol\":4412:4521   */\n      tag_384\n      jumpi\n        /* \"@thirdweb-dev/contracts/eip/queryable/ERC721AQueryable.sol\":4488:4502   */\n      dup3\n      mload\n      swap2\n      pop\n        /* \"@thirdweb-dev/contracts/eip/queryable/ERC721AQueryable.sol\":4412:4521   */\n    tag_384:\n        /* \"@thirdweb-dev/contracts/eip/queryable/ERC721AQueryable.sol\":4563:4568   */\n      dup11\n      sub(shl(0xa0, 0x01), 0x01)\n        /* \"@thirdweb-dev/contracts/eip/queryable/ERC721AQueryable.sol\":4542:4568   */\n      and\n        /* \"@thirdweb-dev/contracts/eip/queryable/ERC721AQueryable.sol\":4542:4559   */\n      dup3\n      sub(shl(0xa0, 0x01), 0x01)\n        /* \"@thirdweb-dev/contracts/eip/queryable/ERC721AQueryable.sol\":4542:4568   */\n      and\n      sub\n        /* \"@thirdweb-dev/contracts/eip/queryable/ERC721AQueryable.sol\":4538:4638   */\n      tag_385\n      jumpi\n        /* \"@thirdweb-dev/contracts/eip/queryable/ERC721AQueryable.sol\":4618:4619   */\n      dup1\n        /* \"@thirdweb-dev/contracts/eip/queryable/ERC721AQueryable.sol\":4592:4600   */\n      dup5\n        /* \"@thirdweb-dev/contracts/eip/queryable/ERC721AQueryable.sol\":4601:4614   */\n      dup9\n      dup1\n      0x01\n      add\n      swap10\n      pop\n        /* \"@thirdweb-dev/contracts/eip/queryable/ERC721AQueryable.sol\":4592:4615   */\n      dup2\n      mload\n      dup2\n      lt\n      tag_387\n      jumpi\n      tag_387\n      tag_276\n      jump\t// in\n    tag_387:\n      0x20\n      mul\n      0x20\n      add\n      add\n        /* \"@thirdweb-dev/contracts/eip/queryable/ERC721AQueryable.sol\":4592:4619   */\n      dup2\n      dup2\n      mstore\n      pop\n      pop\n        /* \"@thirdweb-dev/contracts/eip/queryable/ERC721AQueryable.sol\":4538:4638   */\n    tag_385:\n        /* \"@thirdweb-dev/contracts/eip/queryable/ERC721AQueryable.sol\":4257:4260   */\n      0x01\n      add\n        /* \"@thirdweb-dev/contracts/eip/queryable/ERC721AQueryable.sol\":4186:4652   */\n      jump(tag_379)\n    tag_380:\n      pop\n      pop\n      pop\n        /* \"@thirdweb-dev/contracts/eip/queryable/ERC721AQueryable.sol\":4734:4763   */\n      swap3\n      dup4\n      mstore\n      pop\n        /* \"@thirdweb-dev/contracts/eip/queryable/ERC721AQueryable.sol\":4741:4749   */\n      swap1\n      swap2\n      pop\n      pop\n        /* \"@thirdweb-dev/contracts/eip/queryable/ERC721AQueryable.sol\":2374:4822   */\n    tag_363:\n      swap4\n      swap3\n      pop\n      pop\n      pop\n      jump\t// out\n        /* \"@thirdweb-dev/contracts/extension/Royalty.sol\":4595:4857   */\n    tag_180:\n        /* \"@thirdweb-dev/contracts/extension/Royalty.sol\":4712:4732   */\n      tag_389\n        /* \"@thirdweb-dev/contracts/extension/Royalty.sol\":4712:4730   */\n      tag_224\n        /* \"@thirdweb-dev/contracts/extension/Royalty.sol\":4712:4732   */\n      jump\t// in\n    tag_389:\n        /* \"@thirdweb-dev/contracts/extension/Royalty.sol\":4707:4787   */\n      tag_390\n      jumpi\n        /* \"@thirdweb-dev/contracts/extension/Royalty.sol\":4755:4776   */\n      mload(0x40)\n      shl(0xe1, 0x6fae3581)\n      dup2\n      mstore\n      0x04\n      add\n      mload(0x40)\n      dup1\n      swap2\n      sub\n      swap1\n      revert\n        /* \"@thirdweb-dev/contracts/extension/Royalty.sol\":4707:4787   */\n    tag_390:\n        /* \"@thirdweb-dev/contracts/extension/Royalty.sol\":4797:4850   */\n      tag_249\n        /* \"@thirdweb-dev/contracts/extension/Royalty.sol\":4823:4831   */\n      dup4\n        /* \"@thirdweb-dev/contracts/extension/Royalty.sol\":4833:4843   */\n      dup4\n        /* \"@thirdweb-dev/contracts/extension/Royalty.sol\":4845:4849   */\n      dup4\n        /* \"@thirdweb-dev/contracts/extension/Royalty.sol\":4797:4822   */\n      tag_392\n        /* \"@thirdweb-dev/contracts/extension/Royalty.sol\":4797:4850   */\n      jump\t// in\n        /* \"SertifikatDigital.sol\":2893:3049  function setApprovalForAll(address, bool) public virtual override(ERC721A, IERC721) {... */\n    tag_184:\n        /* \"SertifikatDigital.sol\":2987:3042  revert(\"Sertifikat Soulbound: Delegasi dinonaktifkan!\") */\n      mload(0x40)\n      shl(0xe5, 0x461bcd)\n      dup2\n      mstore\n        /* \"#utility.yul\":16189:16191   */\n      0x20\n        /* \"SertifikatDigital.sol\":2987:3042  revert(\"Sertifikat Soulbound: Delegasi dinonaktifkan!\") */\n      0x04\n      dup3\n      add\n        /* \"#utility.yul\":16171:16192   */\n      mstore\n        /* \"#utility.yul\":16228:16230   */\n      0x2d\n        /* \"#utility.yul\":16208:16226   */\n      0x24\n      dup3\n      add\n        /* \"#utility.yul\":16201:16231   */\n      mstore\n        /* \"#utility.yul\":16267:16301   */\n      0x536572746966696b617420536f756c626f756e643a2044656c65676173692064\n        /* \"#utility.yul\":16247:16265   */\n      0x44\n      dup3\n      add\n        /* \"#utility.yul\":16240:16302   */\n      mstore\n        /* \"#utility.yul\":16338:16353   */\n      0x696e6f6e616b7469666b616e2100000000000000000000000000000000000000\n        /* \"#utility.yul\":16318:16336   */\n      0x64\n      dup3\n      add\n        /* \"#utility.yul\":16311:16354   */\n      mstore\n        /* \"#utility.yul\":16371:16390   */\n      0x84\n      add\n        /* \"SertifikatDigital.sol\":2987:3042  revert(\"Sertifikat Soulbound: Delegasi dinonaktifkan!\") */\n      tag_226\n        /* \"#utility.yul\":15987:16396   */\n      jump\n        /* \"@thirdweb-dev/contracts/extension/Multicall.sol\":696:1263   */\n    tag_188:\n        /* \"@thirdweb-dev/contracts/extension/Multicall.sol\":756:778   */\n      0x60\n        /* \"@thirdweb-dev/contracts/extension/Multicall.sol\":812:816   */\n      dup2\n        /* \"@thirdweb-dev/contracts/extension/Multicall.sol\":800:824   */\n      0xffffffffffffffff\n      dup2\n      gt\n      iszero\n      tag_398\n      jumpi\n      tag_398\n      tag_302\n      jump\t// in\n    tag_398:\n      mload(0x40)\n      swap1\n      dup1\n      dup3\n      mstore\n      dup1\n      0x20\n      mul\n      0x20\n      add\n      dup3\n      add\n      0x40\n      mstore\n      dup1\n      iszero\n      tag_399\n      jumpi\n      dup2\n      0x20\n      add\n    tag_400:\n      0x60\n      dup2\n      mstore\n      0x20\n      add\n      swap1\n      0x01\n      swap1\n      sub\n      swap1\n      dup2\n      tag_400\n      jumpi\n      swap1\n      pop\n    tag_399:\n      pop\n        /* \"@thirdweb-dev/contracts/extension/Multicall.sol\":790:824   */\n      swap1\n      pop\n        /* \"@thirdweb-dev/contracts/base/ERC721Base.sol\":8521:8531   */\n      caller\n        /* \"@thirdweb-dev/contracts/extension/Multicall.sol\":834:848   */\n      0x00\n      dup1\n        /* \"@thirdweb-dev/contracts/extension/Multicall.sol\":922:1233   */\n    tag_403:\n        /* \"@thirdweb-dev/contracts/extension/Multicall.sol\":942:957   */\n      dup5\n      dup2\n      lt\n        /* \"@thirdweb-dev/contracts/extension/Multicall.sol\":922:1233   */\n      iszero\n      tag_404\n      jumpi\n        /* \"@thirdweb-dev/contracts/extension/Multicall.sol\":982:993   */\n      dup2\n        /* \"@thirdweb-dev/contracts/extension/Multicall.sol\":978:1223   */\n      iszero\n      tag_406\n      jumpi\n        /* \"@thirdweb-dev/contracts/extension/Multicall.sol\":1026:1104   */\n      tag_407\n        /* \"@thirdweb-dev/contracts/extension/Multicall.sol\":1063:1067   */\n      address\n        /* \"@thirdweb-dev/contracts/extension/Multicall.sol\":1087:1091   */\n      dup8\n      dup8\n        /* \"@thirdweb-dev/contracts/extension/Multicall.sol\":1092:1093   */\n      dup5\n        /* \"@thirdweb-dev/contracts/extension/Multicall.sol\":1087:1094   */\n      dup2\n      dup2\n      lt\n      tag_409\n      jumpi\n      tag_409\n      tag_276\n      jump\t// in\n    tag_409:\n      swap1\n      pop\n      0x20\n      mul\n      dup2\n      add\n      swap1\n      tag_410\n      swap2\n      swap1\n      tag_411\n      jump\t// in\n    tag_410:\n        /* \"@thirdweb-dev/contracts/extension/Multicall.sol\":1096:1102   */\n      dup7\n        /* \"@thirdweb-dev/contracts/extension/Multicall.sol\":1070:1103   */\n      add(0x20, mload(0x40))\n      tag_412\n      swap4\n      swap3\n      swap2\n      swap1\n      tag_413\n      jump\t// in\n    tag_412:\n      mload(0x40)\n      0x20\n      dup2\n      dup4\n      sub\n      sub\n      dup2\n      mstore\n      swap1\n      0x40\n      mstore\n        /* \"@thirdweb-dev/contracts/extension/Multicall.sol\":1026:1054   */\n      tag_414\n        /* \"@thirdweb-dev/contracts/extension/Multicall.sol\":1026:1104   */\n      jump\t// in\n    tag_407:\n        /* \"@thirdweb-dev/contracts/extension/Multicall.sol\":1013:1020   */\n      dup5\n        /* \"@thirdweb-dev/contracts/extension/Multicall.sol\":1021:1022   */\n      dup3\n        /* \"@thirdweb-dev/contracts/extension/Multicall.sol\":1013:1023   */\n      dup2\n      mload\n      dup2\n      lt\n      tag_416\n      jumpi\n      tag_416\n      tag_276\n      jump\t// in\n    tag_416:\n      0x20\n      mul\n      0x20\n      add\n      add\n        /* \"@thirdweb-dev/contracts/extension/Multicall.sol\":1013:1104   */\n      dup2\n      swap1\n      mstore\n      pop\n        /* \"@thirdweb-dev/contracts/extension/Multicall.sol\":978:1223   */\n      jump(tag_417)\n    tag_406:\n        /* \"@thirdweb-dev/contracts/extension/Multicall.sol\":1156:1208   */\n      tag_418\n        /* \"@thirdweb-dev/contracts/extension/Multicall.sol\":1193:1197   */\n      address\n        /* \"@thirdweb-dev/contracts/extension/Multicall.sol\":1200:1204   */\n      dup8\n      dup8\n        /* \"@thirdweb-dev/contracts/extension/Multicall.sol\":1205:1206   */\n      dup5\n        /* \"@thirdweb-dev/contracts/extension/Multicall.sol\":1200:1207   */\n      dup2\n      dup2\n      lt\n      tag_420\n      jumpi\n      tag_420\n      tag_276\n      jump\t// in\n    tag_420:\n      swap1\n      pop\n      0x20\n      mul\n      dup2\n      add\n      swap1\n      tag_421\n      swap2\n      swap1\n      tag_411\n      jump\t// in\n    tag_421:\n        /* \"@thirdweb-dev/contracts/extension/Multicall.sol\":1156:1208   */\n      dup1\n      dup1\n      0x1f\n      add\n      0x20\n      dup1\n      swap2\n      div\n      mul\n      0x20\n      add\n      mload(0x40)\n      swap1\n      dup2\n      add\n      0x40\n      mstore\n      dup1\n      swap4\n      swap3\n      swap2\n      swap1\n      dup2\n      dup2\n      mstore\n      0x20\n      add\n      dup4\n      dup4\n      dup1\n      dup3\n      dup5\n      calldatacopy\n      0x00\n      swap3\n      add\n      swap2\n      swap1\n      swap2\n      mstore\n      pop\n        /* \"@thirdweb-dev/contracts/extension/Multicall.sol\":1156:1184   */\n      tag_414\n      swap3\n      pop\n      pop\n      pop\n        /* \"@thirdweb-dev/contracts/extension/Multicall.sol\":1156:1208   */\n      jump\t// in\n    tag_418:\n        /* \"@thirdweb-dev/contracts/extension/Multicall.sol\":1143:1150   */\n      dup5\n        /* \"@thirdweb-dev/contracts/extension/Multicall.sol\":1151:1152   */\n      dup3\n        /* \"@thirdweb-dev/contracts/extension/Multicall.sol\":1143:1153   */\n      dup2\n      mload\n      dup2\n      lt\n      tag_423\n      jumpi\n      tag_423\n      tag_276\n      jump\t// in\n    tag_423:\n      0x20\n      mul\n      0x20\n      add\n      add\n        /* \"@thirdweb-dev/contracts/extension/Multicall.sol\":1143:1208   */\n      dup2\n      swap1\n      mstore\n      pop\n        /* \"@thirdweb-dev/contracts/extension/Multicall.sol\":978:1223   */\n    tag_417:\n        /* \"@thirdweb-dev/contracts/extension/Multicall.sol\":959:962   */\n      0x01\n      add\n        /* \"@thirdweb-dev/contracts/extension/Multicall.sol\":922:1233   */\n      jump(tag_403)\n    tag_404:\n      pop\n        /* \"@thirdweb-dev/contracts/extension/Multicall.sol\":1242:1256   */\n      pop\n      pop\n        /* \"@thirdweb-dev/contracts/extension/Multicall.sol\":696:1263   */\n      swap3\n      swap2\n      pop\n      pop\n      jump\t// out\n        /* \"@thirdweb-dev/contracts/eip/ERC721AVirtualApprove.sol\":8869:9212   */\n    tag_197:\n        /* \"@thirdweb-dev/contracts/eip/ERC721AVirtualApprove.sol\":8992:9020   */\n      tag_426\n        /* \"@thirdweb-dev/contracts/eip/ERC721AVirtualApprove.sol\":9002:9006   */\n      dup5\n        /* \"@thirdweb-dev/contracts/eip/ERC721AVirtualApprove.sol\":9008:9010   */\n      dup5\n        /* \"@thirdweb-dev/contracts/eip/ERC721AVirtualApprove.sol\":9012:9019   */\n      dup5\n        /* \"@thirdweb-dev/contracts/eip/ERC721AVirtualApprove.sol\":8992:9001   */\n      tag_269\n        /* \"@thirdweb-dev/contracts/eip/ERC721AVirtualApprove.sol\":8992:9020   */\n      jump\t// in\n    tag_426:\n      sub(shl(0xa0, 0x01), 0x01)\n        /* \"@thirdweb-dev/contracts/eip/ERC721AVirtualApprove.sol\":9034:9047   */\n      dup4\n      and\n        /* \"@thirdweb-dev/contracts/lib/Address.sol\":1695:1714   */\n      extcodesize\n        /* \"@thirdweb-dev/contracts/lib/Address.sol\":1695:1718   */\n      iszero\n        /* \"@thirdweb-dev/contracts/eip/ERC721AVirtualApprove.sol\":9030:9206   */\n      tag_334\n      jumpi\n        /* \"@thirdweb-dev/contracts/eip/ERC721AVirtualApprove.sol\":9068:9124   */\n      tag_430\n        /* \"@thirdweb-dev/contracts/eip/ERC721AVirtualApprove.sol\":9099:9103   */\n      dup5\n        /* \"@thirdweb-dev/contracts/eip/ERC721AVirtualApprove.sol\":9105:9107   */\n      dup5\n        /* \"@thirdweb-dev/contracts/eip/ERC721AVirtualApprove.sol\":9109:9116   */\n      dup5\n        /* \"@thirdweb-dev/contracts/eip/ERC721AVirtualApprove.sol\":9118:9123   */\n      dup5\n        /* \"@thirdweb-dev/contracts/eip/ERC721AVirtualApprove.sol\":9068:9098   */\n      tag_431\n        /* \"@thirdweb-dev/contracts/eip/ERC721AVirtualApprove.sol\":9068:9124   */\n      jump\t// in\n    tag_430:\n        /* \"@thirdweb-dev/contracts/eip/ERC721AVirtualApprove.sol\":9063:9206   */\n      tag_334\n      jumpi\n        /* \"@thirdweb-dev/contracts/eip/ERC721AVirtualApprove.sol\":9151:9191   */\n      mload(0x40)\n      shl(0xe1, 0x68d2bf6b)\n      dup2\n      mstore\n      0x04\n      add\n      mload(0x40)\n      dup1\n      swap2\n      sub\n      swap1\n      revert\n        /* \"SertifikatDigital.sol\":1883:2024  function adminBurn(uint256 tokenId) external {... */\n    tag_200:\n        /* \"@thirdweb-dev/contracts/extension/Ownable.sol\":1046:1052   */\n      and(sub(shl(0xa0, 0x01), 0x01), sload(0x09))\n        /* \"SertifikatDigital.sol\":1946:1956  msg.sender */\n      caller\n        /* \"SertifikatDigital.sol\":1946:1967  msg.sender == owner() */\n      eq\n        /* \"SertifikatDigital.sol\":1938:1986  require(msg.sender == owner(), \"Not authorized\") */\n      tag_435\n      jumpi\n      mload(0x40)\n      shl(0xe5, 0x461bcd)\n      dup2\n      mstore\n        /* \"#utility.yul\":14728:14730   */\n      0x20\n        /* \"SertifikatDigital.sol\":1938:1986  require(msg.sender == owner(), \"Not authorized\") */\n      0x04\n      dup3\n      add\n        /* \"#utility.yul\":14710:14731   */\n      mstore\n        /* \"#utility.yul\":14767:14769   */\n      0x0e\n        /* \"#utility.yul\":14747:14765   */\n      0x24\n      dup3\n      add\n        /* \"#utility.yul\":14740:14770   */\n      mstore\n      shl(0x92, 0x139bdd08185d5d1a1bdc9a5e9959)\n        /* \"#utility.yul\":14786:14804   */\n      0x44\n      dup3\n      add\n        /* \"#utility.yul\":14779:14823   */\n      mstore\n        /* \"#utility.yul\":14840:14858   */\n      0x64\n      add\n        /* \"SertifikatDigital.sol\":1938:1986  require(msg.sender == owner(), \"Not authorized\") */\n      tag_226\n        /* \"#utility.yul\":14526:14864   */\n      jump\n        /* \"SertifikatDigital.sol\":1938:1986  require(msg.sender == owner(), \"Not authorized\") */\n    tag_435:\n        /* \"SertifikatDigital.sol\":1996:2017  _burn(tokenId, false) */\n      tag_262\n        /* \"SertifikatDigital.sol\":2002:2009  tokenId */\n      dup2\n        /* \"SertifikatDigital.sol\":2011:2016  false */\n      0x00\n        /* \"SertifikatDigital.sol\":1996:2001  _burn */\n      tag_289\n        /* \"SertifikatDigital.sol\":1996:2017  _burn(tokenId, false) */\n      jump\t// in\n        /* \"@thirdweb-dev/contracts/eip/queryable/ERC721AQueryable.sol\":953:1361   */\n    tag_203:\n      0x40\n      dup1\n      mload\n      0x60\n      dup1\n      dup3\n      add\n      dup4\n      mstore\n      0x00\n      dup1\n      dup4\n      mstore\n      0x20\n      dup1\n      dup5\n      add\n      dup3\n      swap1\n      mstore\n      dup4\n      dup6\n      add\n      dup3\n      swap1\n      mstore\n      dup5\n      mload\n      swap3\n      dup4\n      add\n      dup6\n      mstore\n      dup2\n      dup4\n      mstore\n      dup3\n      add\n      dup2\n      swap1\n      mstore\n      swap3\n      dup2\n      add\n      dup4\n      swap1\n      mstore\n      swap1\n      swap2\n        /* \"@thirdweb-dev/contracts/eip/queryable/ERC721AQueryable.sol\":1107:1160   */\n      pop\n        /* \"@thirdweb-dev/contracts/eip/queryable/ERC721AQueryable.sol\":1147:1160   */\n      sload(0x00)\n        /* \"@thirdweb-dev/contracts/eip/queryable/ERC721AQueryable.sol\":1136:1143   */\n      dup4\n        /* \"@thirdweb-dev/contracts/eip/queryable/ERC721AQueryable.sol\":1136:1160   */\n      lt\n        /* \"@thirdweb-dev/contracts/eip/queryable/ERC721AQueryable.sol\":1103:1203   */\n      tag_443\n      jumpi\n        /* \"@thirdweb-dev/contracts/eip/queryable/ERC721AQueryable.sol\":1183:1192   */\n      swap3\n        /* \"@thirdweb-dev/contracts/eip/queryable/ERC721AQueryable.sol\":953:1361   */\n      swap2\n      pop\n      pop\n      jump\t// out\n        /* \"@thirdweb-dev/contracts/eip/queryable/ERC721AQueryable.sol\":1103:1203   */\n    tag_443:\n      pop\n        /* \"@thirdweb-dev/contracts/eip/queryable/ERC721AQueryable.sol\":1224:1244   */\n      0x00\n      dup3\n      dup2\n      mstore\n        /* \"@thirdweb-dev/contracts/eip/queryable/ERC721AQueryable.sol\":1224:1235   */\n      0x04\n        /* \"@thirdweb-dev/contracts/eip/queryable/ERC721AQueryable.sol\":1224:1244   */\n      0x20\n      swap1\n      dup2\n      mstore\n      0x40\n      swap2\n      dup3\n      swap1\n      keccak256\n        /* \"@thirdweb-dev/contracts/eip/queryable/ERC721AQueryable.sol\":1212:1244   */\n      dup3\n      mload\n      0x60\n      dup2\n      add\n      dup5\n      mstore\n      swap1\n      sload\n      sub(shl(0xa0, 0x01), 0x01)\n      dup2\n      and\n      dup3\n      mstore\n      shl(0xa0, 0x01)\n      dup2\n      div\n      0xffffffffffffffff\n      and\n      swap3\n      dup3\n      add\n      swap3\n      swap1\n      swap3\n      mstore\n      shl(0xe0, 0x01)\n      swap1\n      swap2\n      div\n      0xff\n      and\n      iszero\n      dup1\n      iszero\n      swap3\n      dup3\n      add\n      swap3\n      swap1\n      swap3\n      mstore\n      swap1\n        /* \"@thirdweb-dev/contracts/eip/queryable/ERC721AQueryable.sol\":1254:1317   */\n      tag_444\n      jumpi\n        /* \"@thirdweb-dev/contracts/eip/queryable/ERC721AQueryable.sol\":1297:1306   */\n      swap3\n        /* \"@thirdweb-dev/contracts/eip/queryable/ERC721AQueryable.sol\":953:1361   */\n      swap2\n      pop\n      pop\n      jump\t// out\n        /* \"@thirdweb-dev/contracts/eip/queryable/ERC721AQueryable.sol\":1254:1317   */\n    tag_444:\n        /* \"@thirdweb-dev/contracts/eip/queryable/ERC721AQueryable.sol\":1333:1354   */\n      tag_363\n        /* \"@thirdweb-dev/contracts/eip/queryable/ERC721AQueryable.sol\":1346:1353   */\n      dup4\n        /* \"@thirdweb-dev/contracts/eip/queryable/ERC721AQueryable.sol\":1333:1345   */\n      tag_323\n        /* \"@thirdweb-dev/contracts/eip/queryable/ERC721AQueryable.sol\":1333:1354   */\n      jump\t// in\n        /* \"@thirdweb-dev/contracts/base/ERC721Base.sol\":3513:3918   */\n    tag_208:\n        /* \"@thirdweb-dev/contracts/base/ERC721Base.sol\":3638:3667   */\n      0x00\n        /* \"@thirdweb-dev/contracts/base/ERC721Base.sol\":3670:3687   */\n      dup2\n      dup2\n      mstore\n        /* \"@thirdweb-dev/contracts/base/ERC721Base.sol\":3670:3677   */\n      0x0f\n        /* \"@thirdweb-dev/contracts/base/ERC721Base.sol\":3670:3687   */\n      0x20\n      mstore\n      0x40\n      dup2\n      keccak256\n        /* \"@thirdweb-dev/contracts/base/ERC721Base.sol\":3638:3687   */\n      dup1\n      sload\n        /* \"@thirdweb-dev/contracts/base/ERC721Base.sol\":3613:3626   */\n      0x60\n      swap3\n        /* \"@thirdweb-dev/contracts/base/ERC721Base.sol\":3638:3667   */\n      swap2\n        /* \"@thirdweb-dev/contracts/base/ERC721Base.sol\":3670:3687   */\n      swap1\n        /* \"@thirdweb-dev/contracts/base/ERC721Base.sol\":3638:3687   */\n      tag_447\n      swap1\n      tag_239\n      jump\t// in\n    tag_447:\n      dup1\n      0x1f\n      add\n      0x20\n      dup1\n      swap2\n      div\n      mul\n      0x20\n      add\n      mload(0x40)\n      swap1\n      dup2\n      add\n      0x40\n      mstore\n      dup1\n      swap3\n      swap2\n      swap1\n      dup2\n      dup2\n      mstore\n      0x20\n      add\n      dup3\n      dup1\n      sload\n      tag_448\n      swap1\n      tag_239\n      jump\t// in\n    tag_448:\n      dup1\n      iszero\n      tag_449\n      jumpi\n      dup1\n      0x1f\n      lt\n      tag_450\n      jumpi\n      0x0100\n      dup1\n      dup4\n      sload\n      div\n      mul\n      dup4\n      mstore\n      swap2\n      0x20\n      add\n      swap2\n      jump(tag_449)\n    tag_450:\n      dup3\n      add\n      swap2\n      swap1\n      0x00\n      mstore\n      keccak256(0x00, 0x20)\n      swap1\n    tag_451:\n      dup2\n      sload\n      dup2\n      mstore\n      swap1\n      0x01\n      add\n      swap1\n      0x20\n      add\n      dup1\n      dup4\n      gt\n      tag_451\n      jumpi\n      dup3\n      swap1\n      sub\n      0x1f\n      and\n      dup3\n      add\n      swap2\n    tag_449:\n      pop\n      pop\n      pop\n      pop\n      pop\n      swap1\n      pop\n        /* \"@thirdweb-dev/contracts/base/ERC721Base.sol\":3733:3734   */\n      0x00\n        /* \"@thirdweb-dev/contracts/base/ERC721Base.sol\":3707:3722   */\n      dup2\n        /* \"@thirdweb-dev/contracts/base/ERC721Base.sol\":3701:3730   */\n      mload\n        /* \"@thirdweb-dev/contracts/base/ERC721Base.sol\":3701:3734   */\n      gt\n        /* \"@thirdweb-dev/contracts/base/ERC721Base.sol\":3697:3783   */\n      iszero\n      tag_452\n      jumpi\n        /* \"@thirdweb-dev/contracts/base/ERC721Base.sol\":3757:3772   */\n      swap3\n        /* \"@thirdweb-dev/contracts/base/ERC721Base.sol\":3513:3918   */\n      swap2\n      pop\n      pop\n      jump\t// out\n        /* \"@thirdweb-dev/contracts/base/ERC721Base.sol\":3697:3783   */\n    tag_452:\n        /* \"@thirdweb-dev/contracts/base/ERC721Base.sol\":3793:3815   */\n      0x00\n        /* \"@thirdweb-dev/contracts/base/ERC721Base.sol\":3818:3839   */\n      tag_453\n        /* \"@thirdweb-dev/contracts/base/ERC721Base.sol\":3830:3838   */\n      dup5\n        /* \"@thirdweb-dev/contracts/base/ERC721Base.sol\":3818:3829   */\n      tag_454\n        /* \"@thirdweb-dev/contracts/base/ERC721Base.sol\":3818:3839   */\n      jump\t// in\n    tag_453:\n        /* \"@thirdweb-dev/contracts/base/ERC721Base.sol\":3793:3839   */\n      swap1\n      pop\n        /* \"@thirdweb-dev/contracts/base/ERC721Base.sol\":3880:3888   */\n      dup1\n        /* \"@thirdweb-dev/contracts/base/ERC721Base.sol\":3890:3909   */\n      tag_455\n        /* \"@thirdweb-dev/contracts/base/ERC721Base.sol\":3890:3898   */\n      dup6\n        /* \"@thirdweb-dev/contracts/base/ERC721Base.sol\":3890:3907   */\n      tag_456\n        /* \"@thirdweb-dev/contracts/base/ERC721Base.sol\":3890:3909   */\n      jump\t// in\n    tag_455:\n        /* \"@thirdweb-dev/contracts/base/ERC721Base.sol\":3863:3910   */\n      add(0x20, mload(0x40))\n      tag_457\n      swap3\n      swap2\n      swap1\n      tag_458\n      jump\t// in\n    tag_457:\n      mload(0x40)\n      0x20\n      dup2\n      dup4\n      sub\n      sub\n      dup2\n      mstore\n      swap1\n      0x40\n      mstore\n        /* \"@thirdweb-dev/contracts/base/ERC721Base.sol\":3849:3911   */\n      swap3\n      pop\n      pop\n      pop\n        /* \"@thirdweb-dev/contracts/base/ERC721Base.sol\":3513:3918   */\n      swap2\n      swap1\n      pop\n      jump\t// out\n        /* \"SertifikatDigital.sol\":1359:1709  function batchMintToMultiple(address[] calldata recipients, string[] calldata uris) external {... */\n    tag_213:\n        /* \"@thirdweb-dev/contracts/extension/Ownable.sol\":1046:1052   */\n      and(sub(shl(0xa0, 0x01), 0x01), sload(0x09))\n        /* \"SertifikatDigital.sol\":1470:1480  msg.sender */\n      caller\n        /* \"SertifikatDigital.sol\":1470:1491  msg.sender == owner() */\n      eq\n        /* \"SertifikatDigital.sol\":1462:1510  require(msg.sender == owner(), \"Not authorized\") */\n      tag_461\n      jumpi\n      mload(0x40)\n      shl(0xe5, 0x461bcd)\n      dup2\n      mstore\n        /* \"#utility.yul\":14728:14730   */\n      0x20\n        /* \"SertifikatDigital.sol\":1462:1510  require(msg.sender == owner(), \"Not authorized\") */\n      0x04\n      dup3\n      add\n        /* \"#utility.yul\":14710:14731   */\n      mstore\n        /* \"#utility.yul\":14767:14769   */\n      0x0e\n        /* \"#utility.yul\":14747:14765   */\n      0x24\n      dup3\n      add\n        /* \"#utility.yul\":14740:14770   */\n      mstore\n      shl(0x92, 0x139bdd08185d5d1a1bdc9a5e9959)\n        /* \"#utility.yul\":14786:14804   */\n      0x44\n      dup3\n      add\n        /* \"#utility.yul\":14779:14823   */\n      mstore\n        /* \"#utility.yul\":14840:14858   */\n      0x64\n      add\n        /* \"SertifikatDigital.sol\":1462:1510  require(msg.sender == owner(), \"Not authorized\") */\n      tag_226\n        /* \"#utility.yul\":14526:14864   */\n      jump\n        /* \"SertifikatDigital.sol\":1462:1510  require(msg.sender == owner(), \"Not authorized\") */\n    tag_461:\n        /* \"SertifikatDigital.sol\":1528:1560  recipients.length == uris.length */\n      dup3\n      dup2\n      eq\n        /* \"SertifikatDigital.sol\":1520:1589  require(recipients.length == uris.length, \"Array lengths must match\") */\n      tag_463\n      jumpi\n      mload(0x40)\n      shl(0xe5, 0x461bcd)\n      dup2\n      mstore\n        /* \"#utility.yul\":17983:17985   */\n      0x20\n        /* \"SertifikatDigital.sol\":1520:1589  require(recipients.length == uris.length, \"Array lengths must match\") */\n      0x04\n      dup3\n      add\n        /* \"#utility.yul\":17965:17986   */\n      mstore\n        /* \"#utility.yul\":18022:18024   */\n      0x18\n        /* \"#utility.yul\":18002:18020   */\n      0x24\n      dup3\n      add\n        /* \"#utility.yul\":17995:18025   */\n      mstore\n        /* \"#utility.yul\":18061:18087   */\n      0x4172726179206c656e67746873206d757374206d617463680000000000000000\n        /* \"#utility.yul\":18041:18059   */\n      0x44\n      dup3\n      add\n        /* \"#utility.yul\":18034:18088   */\n      mstore\n        /* \"#utility.yul\":18105:18123   */\n      0x64\n      add\n        /* \"SertifikatDigital.sol\":1520:1589  require(recipients.length == uris.length, \"Array lengths must match\") */\n      tag_226\n        /* \"#utility.yul\":17781:18129   */\n      jump\n        /* \"SertifikatDigital.sol\":1520:1589  require(recipients.length == uris.length, \"Array lengths must match\") */\n    tag_463:\n        /* \"SertifikatDigital.sol\":1604:1613  uint256 i */\n      0x00\n        /* \"SertifikatDigital.sol\":1599:1703  for (uint256 i = 0; i < recipients.length; i++) {... */\n    tag_466:\n        /* \"SertifikatDigital.sol\":1619:1640  i < recipients.length */\n      dup4\n      dup2\n      lt\n        /* \"SertifikatDigital.sol\":1599:1703  for (uint256 i = 0; i < recipients.length; i++) {... */\n      iszero\n      tag_467\n      jumpi\n        /* \"SertifikatDigital.sol\":1661:1692  _mintTo(recipients[i], uris[i]) */\n      tag_469\n        /* \"SertifikatDigital.sol\":1669:1679  recipients */\n      dup6\n      dup6\n        /* \"SertifikatDigital.sol\":1680:1681  i */\n      dup4\n        /* \"SertifikatDigital.sol\":1669:1682  recipients[i] */\n      dup2\n      dup2\n      lt\n      tag_471\n      jumpi\n      tag_471\n      tag_276\n      jump\t// in\n    tag_471:\n      swap1\n      pop\n      0x20\n      mul\n      add\n      0x20\n      dup2\n      add\n      swap1\n      tag_472\n      swap2\n      swap1\n      tag_91\n      jump\t// in\n    tag_472:\n        /* \"SertifikatDigital.sol\":1684:1688  uris */\n      dup5\n      dup5\n        /* \"SertifikatDigital.sol\":1689:1690  i */\n      dup5\n        /* \"SertifikatDigital.sol\":1684:1691  uris[i] */\n      dup2\n      dup2\n      lt\n      tag_474\n      jumpi\n      tag_474\n      tag_276\n      jump\t// in\n    tag_474:\n      swap1\n      pop\n      0x20\n      mul\n      dup2\n      add\n      swap1\n      tag_475\n      swap2\n      swap1\n      tag_411\n      jump\t// in\n    tag_475:\n        /* \"SertifikatDigital.sol\":1661:1692  _mintTo(recipients[i], uris[i]) */\n      dup1\n      dup1\n      0x1f\n      add\n      0x20\n      dup1\n      swap2\n      div\n      mul\n      0x20\n      add\n      mload(0x40)\n      swap1\n      dup2\n      add\n      0x40\n      mstore\n      dup1\n      swap4\n      swap3\n      swap2\n      swap1\n      dup2\n      dup2\n      mstore\n      0x20\n      add\n      dup4\n      dup4\n      dup1\n      dup3\n      dup5\n      calldatacopy\n      0x00\n      swap3\n      add\n      swap2\n      swap1\n      swap2\n      mstore\n      pop\n        /* \"SertifikatDigital.sol\":1661:1668  _mintTo */\n      tag_250\n      swap3\n      pop\n      pop\n      pop\n        /* \"SertifikatDigital.sol\":1661:1692  _mintTo(recipients[i], uris[i]) */\n      jump\t// in\n    tag_469:\n        /* \"SertifikatDigital.sol\":1642:1645  i++ */\n      0x01\n      add\n        /* \"SertifikatDigital.sol\":1599:1703  for (uint256 i = 0; i < recipients.length; i++) {... */\n      jump(tag_466)\n    tag_467:\n      pop\n        /* \"SertifikatDigital.sol\":1359:1709  function batchMintToMultiple(address[] calldata recipients, string[] calldata uris) external {... */\n      pop\n      pop\n      pop\n      pop\n      jump\t// out\n        /* \"@thirdweb-dev/contracts/extension/ContractMetadata.sol\":672:706   */\n    tag_215:\n      0x08\n      dup1\n      sload\n      tag_477\n      swap1\n      tag_239\n      jump\t// in\n    tag_477:\n      dup1\n      0x1f\n      add\n      0x20\n      dup1\n      swap2\n      div\n      mul\n      0x20\n      add\n      mload(0x40)\n      swap1\n      dup2\n      add\n      0x40\n      mstore\n      dup1\n      swap3\n      swap2\n      swap1\n      dup2\n      dup2\n      mstore\n      0x20\n      add\n      dup3\n      dup1\n      sload\n      tag_478\n      swap1\n      tag_239\n      jump\t// in\n    tag_478:\n      dup1\n      iszero\n      tag_479\n      jumpi\n      dup1\n      0x1f\n      lt\n      tag_480\n      jumpi\n      0x0100\n      dup1\n      dup4\n      sload\n      div\n      mul\n      dup4\n      mstore\n      swap2\n      0x20\n      add\n      swap2\n      jump(tag_479)\n    tag_480:\n      dup3\n      add\n      swap2\n      swap1\n      0x00\n      mstore\n      keccak256(0x00, 0x20)\n      swap1\n    tag_481:\n      dup2\n      sload\n      dup2\n      mstore\n      swap1\n      0x01\n      add\n      swap1\n      0x20\n      add\n      dup1\n      dup4\n      gt\n      tag_481\n      jumpi\n      dup3\n      swap1\n      sub\n      0x1f\n      and\n      dup3\n      add\n      swap2\n    tag_479:\n      pop\n      pop\n      pop\n      pop\n      pop\n      dup2\n      jump\t// out\n        /* \"@thirdweb-dev/contracts/base/ERC721Base.sol\":7835:7937   */\n    tag_224:\n        /* \"@thirdweb-dev/contracts/base/ERC721Base.sol\":7886:7890   */\n      0x00\n        /* \"@thirdweb-dev/contracts/base/ERC721Base.sol\":7923:7930   */\n      tag_484\n        /* \"@thirdweb-dev/contracts/extension/Ownable.sol\":1046:1052   */\n      and(sub(shl(0xa0, 0x01), 0x01), sload(0x09))\n      swap1\n        /* \"@thirdweb-dev/contracts/extension/Ownable.sol\":973:1059   */\n      jump\n        /* \"@thirdweb-dev/contracts/base/ERC721Base.sol\":7923:7930   */\n    tag_484:\n      sub(shl(0xa0, 0x01), 0x01)\n        /* \"@thirdweb-dev/contracts/base/ERC721Base.sol\":7909:7930   */\n      and\n        /* \"@thirdweb-dev/contracts/base/ERC721Base.sol\":7909:7919   */\n      caller\n      sub(shl(0xa0, 0x01), 0x01)\n        /* \"@thirdweb-dev/contracts/base/ERC721Base.sol\":7909:7930   */\n      and\n      eq\n        /* \"@thirdweb-dev/contracts/base/ERC721Base.sol\":7902:7930   */\n      swap1\n      pop\n        /* \"@thirdweb-dev/contracts/base/ERC721Base.sol\":7835:7937   */\n      swap1\n      jump\t// out\n        /* \"@thirdweb-dev/contracts/base/ERC721Base.sol\":7327:7529   */\n    tag_230:\n        /* \"@thirdweb-dev/contracts/base/ERC721Base.sol\":7433:7450   */\n      0x00\n      dup3\n      dup2\n      mstore\n        /* \"@thirdweb-dev/contracts/base/ERC721Base.sol\":7433:7440   */\n      0x0f\n        /* \"@thirdweb-dev/contracts/base/ERC721Base.sol\":7433:7450   */\n      0x20\n      mstore\n      0x40\n      swap1\n      keccak256\n        /* \"@thirdweb-dev/contracts/base/ERC721Base.sol\":7427:7458   */\n      dup1\n      sload\n      tag_486\n      swap1\n      tag_239\n      jump\t// in\n    tag_486:\n        /* \"@thirdweb-dev/contracts/base/ERC721Base.sol\":7427:7463   */\n      iszero\n      swap1\n      pop\n        /* \"@thirdweb-dev/contracts/base/ERC721Base.sol\":7419:7483   */\n      tag_487\n      jumpi\n      mload(0x40)\n      shl(0xe5, 0x461bcd)\n      dup2\n      mstore\n        /* \"#utility.yul\":18863:18865   */\n      0x20\n        /* \"@thirdweb-dev/contracts/base/ERC721Base.sol\":7419:7483   */\n      0x04\n      dup3\n      add\n        /* \"#utility.yul\":18845:18866   */\n      mstore\n        /* \"#utility.yul\":18902:18904   */\n      0x0f\n        /* \"#utility.yul\":18882:18900   */\n      0x24\n      dup3\n      add\n        /* \"#utility.yul\":18875:18905   */\n      mstore\n        /* \"#utility.yul\":18941:18958   */\n      0x55524920616c7265616479207365740000000000000000000000000000000000\n        /* \"#utility.yul\":18921:18939   */\n      0x44\n      dup3\n      add\n        /* \"#utility.yul\":18914:18959   */\n      mstore\n        /* \"#utility.yul\":18976:18994   */\n      0x64\n      add\n        /* \"@thirdweb-dev/contracts/base/ERC721Base.sol\":7419:7483   */\n      tag_226\n        /* \"#utility.yul\":18661:19000   */\n      jump\n        /* \"@thirdweb-dev/contracts/base/ERC721Base.sol\":7419:7483   */\n    tag_487:\n        /* \"@thirdweb-dev/contracts/base/ERC721Base.sol\":7493:7510   */\n      0x00\n      dup3\n      dup2\n      mstore\n        /* \"@thirdweb-dev/contracts/base/ERC721Base.sol\":7493:7500   */\n      0x0f\n        /* \"@thirdweb-dev/contracts/base/ERC721Base.sol\":7493:7510   */\n      0x20\n      mstore\n      0x40\n      swap1\n      keccak256\n        /* \"@thirdweb-dev/contracts/base/ERC721Base.sol\":7493:7522   */\n      tag_249\n        /* \"@thirdweb-dev/contracts/base/ERC721Base.sol\":7513:7522   */\n      dup3\n        /* \"@thirdweb-dev/contracts/base/ERC721Base.sol\":7493:7510   */\n      dup3\n        /* \"@thirdweb-dev/contracts/base/ERC721Base.sol\":7493:7522   */\n      tag_491\n      jump\t// in\n        /* \"@thirdweb-dev/contracts/eip/ERC721AVirtualApprove.sol\":10171:11849   */\n    tag_232:\n        /* \"@thirdweb-dev/contracts/eip/ERC721AVirtualApprove.sol\":10259:10279   */\n      0x00\n        /* \"@thirdweb-dev/contracts/eip/ERC721AVirtualApprove.sol\":10282:10295   */\n      sload\n      sub(shl(0xa0, 0x01), 0x01)\n        /* \"@thirdweb-dev/contracts/eip/ERC721AVirtualApprove.sol\":10309:10325   */\n      dup5\n      and\n        /* \"@thirdweb-dev/contracts/eip/ERC721AVirtualApprove.sol\":10305:10353   */\n      tag_493\n      jumpi\n        /* \"@thirdweb-dev/contracts/eip/ERC721AVirtualApprove.sol\":10334:10353   */\n      mload(0x40)\n      shl(0xe8, 0x2e0763)\n      dup2\n      mstore\n      0x04\n      add\n      mload(0x40)\n      dup1\n      swap2\n      sub\n      swap1\n      revert\n        /* \"@thirdweb-dev/contracts/eip/ERC721AVirtualApprove.sol\":10305:10353   */\n    tag_493:\n        /* \"@thirdweb-dev/contracts/eip/ERC721AVirtualApprove.sol\":10367:10375   */\n      dup3\n        /* \"@thirdweb-dev/contracts/eip/ERC721AVirtualApprove.sol\":10379:10380   */\n      0x00\n        /* \"@thirdweb-dev/contracts/eip/ERC721AVirtualApprove.sol\":10367:10380   */\n      sub\n        /* \"@thirdweb-dev/contracts/eip/ERC721AVirtualApprove.sol\":10363:10407   */\n      tag_494\n      jumpi\n        /* \"@thirdweb-dev/contracts/eip/ERC721AVirtualApprove.sol\":10389:10407   */\n      mload(0x40)\n      shl(0xe0, 0xb562e8dd)\n      dup2\n      mstore\n      0x04\n      add\n      mload(0x40)\n      dup1\n      swap2\n      sub\n      swap1\n      revert\n        /* \"@thirdweb-dev/contracts/eip/ERC721AVirtualApprove.sol\":10363:10407   */\n    tag_494:\n        /* \"@thirdweb-dev/contracts/eip/ERC721AVirtualApprove.sol\":10418:10479   */\n      tag_495\n        /* \"@thirdweb-dev/contracts/eip/ERC721AVirtualApprove.sol\":10448:10449   */\n      0x00\n        /* \"@thirdweb-dev/contracts/eip/ERC721AVirtualApprove.sol\":10452:10454   */\n      dup6\n        /* \"@thirdweb-dev/contracts/eip/ERC721AVirtualApprove.sol\":10456:10468   */\n      dup4\n        /* \"@thirdweb-dev/contracts/eip/ERC721AVirtualApprove.sol\":10470:10478   */\n      dup7\n        /* \"@thirdweb-dev/contracts/eip/ERC721AVirtualApprove.sol\":10418:10439   */\n      tag_496\n        /* \"@thirdweb-dev/contracts/eip/ERC721AVirtualApprove.sol\":10418:10479   */\n      jump\t// in\n    tag_495:\n      sub(shl(0xa0, 0x01), 0x01)\n        /* \"@thirdweb-dev/contracts/eip/ERC721AVirtualApprove.sol\":10750:10766   */\n      dup5\n      and\n      0x00\n      dup2\n      dup2\n      mstore\n        /* \"@thirdweb-dev/contracts/eip/ERC721AVirtualApprove.sol\":10750:10762   */\n      0x05\n        /* \"@thirdweb-dev/contracts/eip/ERC721AVirtualApprove.sol\":10750:10766   */\n      0x20\n      swap1\n      dup2\n      mstore\n      0x40\n      dup1\n      dup4\n      keccak256\n        /* \"@thirdweb-dev/contracts/eip/ERC721AVirtualApprove.sol\":10750:10794   */\n      dup1\n      sload\n      not(0xffffffffffffffffffffffffffffffff)\n        /* \"@thirdweb-dev/contracts/eip/ERC721AVirtualApprove.sol\":10808:10857   */\n      dup2\n      and\n        /* \"@thirdweb-dev/contracts/eip/ERC721AVirtualApprove.sol\":10750:10794   */\n      0xffffffffffffffff\n      dup1\n      dup4\n      and\n      dup12\n      add\n      dup2\n      and\n        /* \"@thirdweb-dev/contracts/eip/ERC721AVirtualApprove.sol\":10808:10857   */\n      swap2\n      dup3\n      or\n      0x010000000000000000\n      not(0xffffffffffffffff)\n        /* \"@thirdweb-dev/contracts/eip/ERC721AVirtualApprove.sol\":10750:10794   */\n      swap1\n      swap5\n      and\n      swap1\n      swap3\n      or\n        /* \"@thirdweb-dev/contracts/eip/ERC721AVirtualApprove.sol\":10808:10857   */\n      dup4\n      swap1\n      div\n      dup2\n      and\n      dup12\n      add\n      dup2\n      and\n      swap1\n      swap3\n      mul\n      or\n      swap1\n      swap2\n      sstore\n        /* \"@thirdweb-dev/contracts/eip/ERC721AVirtualApprove.sol\":10872:10897   */\n      dup6\n      dup5\n      mstore\n        /* \"@thirdweb-dev/contracts/eip/ERC721AVirtualApprove.sol\":10872:10883   */\n      0x04\n        /* \"@thirdweb-dev/contracts/eip/ERC721AVirtualApprove.sol\":10872:10897   */\n      swap1\n      swap3\n      mstore\n      swap1\n      swap2\n      keccak256\n        /* \"@thirdweb-dev/contracts/eip/ERC721AVirtualApprove.sol\":10872:10907   */\n      dup1\n      sload\n      not(sub(shl(0xe0, 0x01), 0x01))\n        /* \"@thirdweb-dev/contracts/eip/ERC721AVirtualApprove.sol\":10921:10987   */\n      and\n      dup4\n      or\n      shl(0xa0, 0x01)\n        /* \"@thirdweb-dev/contracts/eip/ERC721AVirtualApprove.sol\":10971:10986   */\n      timestamp\n        /* \"@thirdweb-dev/contracts/eip/ERC721AVirtualApprove.sol\":10921:10987   */\n      swap1\n      swap4\n      and\n      swap3\n      swap1\n      swap3\n      mul\n      swap2\n      swap1\n      swap2\n      or\n      swap1\n      sstore\n        /* \"@thirdweb-dev/contracts/eip/ERC721AVirtualApprove.sol\":10872:10897   */\n      dup2\n      swap1\n        /* \"@thirdweb-dev/contracts/eip/ERC721AVirtualApprove.sol\":11065:11088   */\n      dup2\n      dup6\n      add\n      swap1\n        /* \"@thirdweb-dev/contracts/lib/Address.sol\":1695:1714   */\n      extcodesize\n        /* \"@thirdweb-dev/contracts/lib/Address.sol\":1695:1718   */\n      iszero\n        /* \"@thirdweb-dev/contracts/eip/ERC721AVirtualApprove.sol\":11103:11721   */\n      tag_498\n      jumpi\n        /* \"@thirdweb-dev/contracts/eip/ERC721AVirtualApprove.sol\":11142:11450   */\n    tag_499:\n        /* \"@thirdweb-dev/contracts/eip/ERC721AVirtualApprove.sol\":11172:11210   */\n      mload(0x40)\n        /* \"@thirdweb-dev/contracts/eip/ERC721AVirtualApprove.sol\":11197:11209   */\n      dup3\n      swap1\n      sub(shl(0xa0, 0x01), 0x01)\n        /* \"@thirdweb-dev/contracts/eip/ERC721AVirtualApprove.sol\":11172:11210   */\n      dup9\n      and\n      swap1\n        /* \"@thirdweb-dev/contracts/eip/ERC721AVirtualApprove.sol\":11189:11190   */\n      0x00\n      swap1\n        /* \"@thirdweb-dev/contracts/eip/ERC721AVirtualApprove.sol\":11172:11210   */\n      0xddf252ad1be2c89b69c2b068fc378daa952ba7f163c4a11628f55a4df523b3ef\n      swap1\n        /* \"@thirdweb-dev/contracts/eip/ERC721AVirtualApprove.sol\":11189:11190   */\n      dup3\n      swap1\n        /* \"@thirdweb-dev/contracts/eip/ERC721AVirtualApprove.sol\":11172:11210   */\n      log4\n        /* \"@thirdweb-dev/contracts/eip/ERC721AVirtualApprove.sol\":11237:11306   */\n      tag_502\n        /* \"@thirdweb-dev/contracts/eip/ERC721AVirtualApprove.sol\":11276:11277   */\n      0x00\n        /* \"@thirdweb-dev/contracts/eip/ERC721AVirtualApprove.sol\":11280:11282   */\n      dup8\n        /* \"@thirdweb-dev/contracts/eip/ERC721AVirtualApprove.sol\":11284:11298   */\n      dup5\n      dup1\n      0x01\n      add\n      swap6\n      pop\n        /* \"@thirdweb-dev/contracts/eip/ERC721AVirtualApprove.sol\":11300:11305   */\n      dup8\n        /* \"@thirdweb-dev/contracts/eip/ERC721AVirtualApprove.sol\":11237:11267   */\n      tag_431\n        /* \"@thirdweb-dev/contracts/eip/ERC721AVirtualApprove.sol\":11237:11306   */\n      jump\t// in\n    tag_502:\n        /* \"@thirdweb-dev/contracts/eip/ERC721AVirtualApprove.sol\":11232:11404   */\n      tag_503\n      jumpi\n        /* \"@thirdweb-dev/contracts/eip/ERC721AVirtualApprove.sol\":11341:11381   */\n      mload(0x40)\n      shl(0xe1, 0x68d2bf6b)\n      dup2\n      mstore\n      0x04\n      add\n      mload(0x40)\n      dup1\n      swap2\n      sub\n      swap1\n      revert\n        /* \"@thirdweb-dev/contracts/eip/ERC721AVirtualApprove.sol\":11232:11404   */\n    tag_503:\n        /* \"@thirdweb-dev/contracts/eip/ERC721AVirtualApprove.sol\":11445:11448   */\n      dup1\n        /* \"@thirdweb-dev/contracts/eip/ERC721AVirtualApprove.sol\":11430:11442   */\n      dup3\n        /* \"@thirdweb-dev/contracts/eip/ERC721AVirtualApprove.sol\":11430:11448   */\n      lt\n        /* \"@thirdweb-dev/contracts/eip/ERC721AVirtualApprove.sol\":11142:11450   */\n      tag_499\n      jumpi\n        /* \"@thirdweb-dev/contracts/eip/ERC721AVirtualApprove.sol\":11529:11541   */\n      dup3\n        /* \"@thirdweb-dev/contracts/eip/ERC721AVirtualApprove.sol\":11512:11525   */\n      sload(0x00)\n        /* \"@thirdweb-dev/contracts/eip/ERC721AVirtualApprove.sol\":11512:11541   */\n      eq\n        /* \"@thirdweb-dev/contracts/eip/ERC721AVirtualApprove.sol\":11508:11551   */\n      tag_504\n      jumpi\n        /* \"@thirdweb-dev/contracts/eip/ERC721AVirtualApprove.sol\":11543:11551   */\n      0x00\n      dup1\n      revert\n        /* \"@thirdweb-dev/contracts/eip/ERC721AVirtualApprove.sol\":11508:11551   */\n    tag_504:\n        /* \"@thirdweb-dev/contracts/eip/ERC721AVirtualApprove.sol\":11103:11721   */\n      jump(tag_505)\n    tag_498:\n        /* \"@thirdweb-dev/contracts/eip/ERC721AVirtualApprove.sol\":11590:11707   */\n    tag_506:\n        /* \"@thirdweb-dev/contracts/eip/ERC721AVirtualApprove.sol\":11620:11660   */\n      mload(0x40)\n        /* \"@thirdweb-dev/contracts/eip/ERC721AVirtualApprove.sol\":11645:11659   */\n      0x01\n      dup4\n      add\n      swap3\n      swap1\n      sub(shl(0xa0, 0x01), 0x01)\n        /* \"@thirdweb-dev/contracts/eip/ERC721AVirtualApprove.sol\":11620:11660   */\n      dup9\n      and\n      swap1\n        /* \"@thirdweb-dev/contracts/eip/ERC721AVirtualApprove.sol\":11637:11638   */\n      0x00\n      swap1\n        /* \"@thirdweb-dev/contracts/eip/ERC721AVirtualApprove.sol\":11620:11660   */\n      0xddf252ad1be2c89b69c2b068fc378daa952ba7f163c4a11628f55a4df523b3ef\n      swap1\n        /* \"@thirdweb-dev/contracts/eip/ERC721AVirtualApprove.sol\":11637:11638   */\n      dup3\n      swap1\n        /* \"@thirdweb-dev/contracts/eip/ERC721AVirtualApprove.sol\":11620:11660   */\n      log4\n        /* \"@thirdweb-dev/contracts/eip/ERC721AVirtualApprove.sol\":11702:11705   */\n      dup1\n        /* \"@thirdweb-dev/contracts/eip/ERC721AVirtualApprove.sol\":11687:11699   */\n      dup3\n        /* \"@thirdweb-dev/contracts/eip/ERC721AVirtualApprove.sol\":11687:11705   */\n      lt\n        /* \"@thirdweb-dev/contracts/eip/ERC721AVirtualApprove.sol\":11590:11707   */\n      tag_506\n      jumpi\n        /* \"@thirdweb-dev/contracts/eip/ERC721AVirtualApprove.sol\":11103:11721   */\n    tag_505:\n      pop\n        /* \"@thirdweb-dev/contracts/eip/ERC721AVirtualApprove.sol\":11734:11747   */\n      0x00\n        /* \"@thirdweb-dev/contracts/eip/ERC721AVirtualApprove.sol\":11734:11762   */\n      swap1\n      dup2\n      sstore\n        /* \"@thirdweb-dev/contracts/eip/ERC721AVirtualApprove.sol\":11782:11842   */\n      tag_334\n      swap1\n        /* \"@thirdweb-dev/contracts/eip/ERC721AVirtualApprove.sol\":11815:11817   */\n      dup6\n        /* \"@thirdweb-dev/contracts/eip/ERC721AVirtualApprove.sol\":11819:11831   */\n      dup4\n        /* \"@thirdweb-dev/contracts/eip/ERC721AVirtualApprove.sol\":11833:11841   */\n      dup7\n        /* \"@thirdweb-dev/contracts/eip/ERC721AVirtualApprove.sol\":11782:11842   */\n      dup5\n      jump\t// in\n        /* \"SertifikatDigital.sol\":747:938  function _mintTo(address recipient, string memory uri) internal {... */\n    tag_250:\n        /* \"SertifikatDigital.sol\":821:836  uint256 tokenId */\n      0x00\n        /* \"@thirdweb-dev/contracts/base/ERC721Base.sol\":6219:6232   */\n      sload\n        /* \"SertifikatDigital.sol\":868:894  _setTokenURI(tokenId, uri) */\n      tag_513\n        /* \"@thirdweb-dev/contracts/base/ERC721Base.sol\":6219:6232   */\n      dup2\n        /* \"SertifikatDigital.sol\":890:893  uri */\n      dup4\n        /* \"SertifikatDigital.sol\":868:880  _setTokenURI */\n      tag_230\n        /* \"SertifikatDigital.sol\":868:894  _setTokenURI(tokenId, uri) */\n      jump\t// in\n    tag_513:\n        /* \"SertifikatDigital.sol\":904:931  _safeMint(recipient, 1, \"\") */\n      tag_249\n        /* \"SertifikatDigital.sol\":914:923  recipient */\n      dup4\n        /* \"SertifikatDigital.sol\":925:926  1 */\n      0x01\n        /* \"SertifikatDigital.sol\":904:931  _safeMint(recipient, 1, \"\") */\n      mload(0x40)\n      dup1\n      0x20\n      add\n      0x40\n      mstore\n      dup1\n      0x00\n      dup2\n      mstore\n      pop\n        /* \"SertifikatDigital.sol\":904:913  _safeMint */\n      tag_232\n        /* \"SertifikatDigital.sol\":904:931  _safeMint(recipient, 1, \"\") */\n      jump\t// in\n        /* \"@thirdweb-dev/contracts/eip/ERC721AVirtualApprove.sol\":9458:9630   */\n    tag_253:\n        /* \"@thirdweb-dev/contracts/eip/ERC721AVirtualApprove.sol\":9515:9519   */\n      0x00\n        /* \"@thirdweb-dev/contracts/eip/ERC721AVirtualApprove.sol\":9578:9591   */\n      dup1\n      sload\n        /* \"@thirdweb-dev/contracts/eip/ERC721AVirtualApprove.sol\":9568:9575   */\n      dup3\n        /* \"@thirdweb-dev/contracts/eip/ERC721AVirtualApprove.sol\":9568:9591   */\n      lt\n        /* \"@thirdweb-dev/contracts/eip/ERC721AVirtualApprove.sol\":9538:9623   */\n      dup1\n      iszero\n      tag_236\n      jumpi\n      pop\n      pop\n        /* \"@thirdweb-dev/contracts/eip/ERC721AVirtualApprove.sol\":9596:9616   */\n      0x00\n      swap1\n      dup2\n      mstore\n        /* \"@thirdweb-dev/contracts/eip/ERC721AVirtualApprove.sol\":9596:9607   */\n      0x04\n        /* \"@thirdweb-dev/contracts/eip/ERC721AVirtualApprove.sol\":9596:9616   */\n      0x20\n      mstore\n      0x40\n      swap1\n      keccak256\n        /* \"@thirdweb-dev/contracts/eip/ERC721AVirtualApprove.sol\":9596:9623   */\n      sload\n      shl(0xe0, 0x01)\n      swap1\n      div\n      0xff\n      and\n        /* \"@thirdweb-dev/contracts/eip/ERC721AVirtualApprove.sol\":9595:9623   */\n      iszero\n      swap1\n        /* \"@thirdweb-dev/contracts/eip/ERC721AVirtualApprove.sol\":9458:9630   */\n      jump\t// out\n        /* \"@thirdweb-dev/contracts/extension/Ownable.sol\":1527:1699   */\n    tag_263:\n        /* \"@thirdweb-dev/contracts/extension/Ownable.sol\":1607:1613   */\n      0x09\n      dup1\n      sload\n      sub(shl(0xa0, 0x01), 0x01)\n        /* \"@thirdweb-dev/contracts/extension/Ownable.sol\":1623:1641   */\n      dup4\n      dup2\n      and\n      not(0xffffffffffffffffffffffffffffffffffffffff)\n      dup4\n      and\n      dup2\n      or\n      swap1\n      swap4\n      sstore\n        /* \"@thirdweb-dev/contracts/extension/Ownable.sol\":1657:1692   */\n      mload(0x40)\n        /* \"@thirdweb-dev/contracts/extension/Ownable.sol\":1607:1613   */\n      swap2\n      and\n      swap2\n        /* \"@thirdweb-dev/contracts/extension/Ownable.sol\":1623:1641   */\n      swap1\n        /* \"@thirdweb-dev/contracts/extension/Ownable.sol\":1607:1613   */\n      dup3\n      swap1\n        /* \"@thirdweb-dev/contracts/extension/Ownable.sol\":1657:1692   */\n      0x8292fce18fa69edf4db7b94ea2e58241df0ae57f97e0a6c9b29067028bf92d76\n      swap1\n        /* \"@thirdweb-dev/contracts/extension/Ownable.sol\":1586:1604   */\n      0x00\n      swap1\n        /* \"@thirdweb-dev/contracts/extension/Ownable.sol\":1657:1692   */\n      log3\n        /* \"@thirdweb-dev/contracts/extension/Ownable.sol\":1576:1699   */\n      pop\n        /* \"@thirdweb-dev/contracts/extension/Ownable.sol\":1527:1699   */\n      pop\n      jump\t// out\n        /* \"@thirdweb-dev/contracts/eip/ERC721AVirtualApprove.sol\":13484:15536   */\n    tag_269:\n        /* \"@thirdweb-dev/contracts/eip/ERC721AVirtualApprove.sol\":13564:13599   */\n      0x00\n        /* \"@thirdweb-dev/contracts/eip/ERC721AVirtualApprove.sol\":13602:13623   */\n      tag_524\n        /* \"@thirdweb-dev/contracts/eip/ERC721AVirtualApprove.sol\":13615:13622   */\n      dup3\n        /* \"@thirdweb-dev/contracts/eip/ERC721AVirtualApprove.sol\":13602:13614   */\n      tag_323\n        /* \"@thirdweb-dev/contracts/eip/ERC721AVirtualApprove.sol\":13602:13623   */\n      jump\t// in\n    tag_524:\n        /* \"@thirdweb-dev/contracts/eip/ERC721AVirtualApprove.sol\":13564:13623   */\n      swap1\n      pop\n        /* \"@thirdweb-dev/contracts/eip/ERC721AVirtualApprove.sol\":13660:13664   */\n      dup4\n      sub(shl(0xa0, 0x01), 0x01)\n        /* \"@thirdweb-dev/contracts/eip/ERC721AVirtualApprove.sol\":13638:13664   */\n      and\n        /* \"@thirdweb-dev/contracts/eip/ERC721AVirtualApprove.sol\":13638:13651   */\n      dup2\n        /* \"@thirdweb-dev/contracts/eip/ERC721AVirtualApprove.sol\":13638:13656   */\n      0x00\n      add\n      mload\n      sub(shl(0xa0, 0x01), 0x01)\n        /* \"@thirdweb-dev/contracts/eip/ERC721AVirtualApprove.sol\":13638:13664   */\n      and\n      eq\n        /* \"@thirdweb-dev/contracts/eip/ERC721AVirtualApprove.sol\":13634:13701   */\n      tag_525\n      jumpi\n        /* \"@thirdweb-dev/contracts/eip/ERC721AVirtualApprove.sol\":13673:13701   */\n      mload(0x40)\n      shl(0xe8, 0xa11481)\n      dup2\n      mstore\n      0x04\n      add\n      mload(0x40)\n      dup1\n      swap2\n      sub\n      swap1\n      revert\n        /* \"@thirdweb-dev/contracts/eip/ERC721AVirtualApprove.sol\":13634:13701   */\n    tag_525:\n        /* \"@thirdweb-dev/contracts/eip/ERC721AVirtualApprove.sol\":13712:13734   */\n      0x00\n        /* \"@thirdweb-dev/contracts/base/ERC721Base.sol\":8521:8531   */\n      caller\n      sub(shl(0xa0, 0x01), 0x01)\n        /* \"@thirdweb-dev/contracts/eip/ERC721AVirtualApprove.sol\":13738:13758   */\n      dup7\n      and\n      eq\n      dup1\n        /* \"@thirdweb-dev/contracts/eip/ERC721AVirtualApprove.sol\":13738:13810   */\n      tag_528\n      jumpi\n      pop\n        /* \"@thirdweb-dev/contracts/eip/ERC721AVirtualApprove.sol\":13774:13810   */\n      tag_528\n        /* \"@thirdweb-dev/contracts/eip/ERC721AVirtualApprove.sol\":13791:13795   */\n      dup6\n        /* \"@thirdweb-dev/contracts/base/ERC721Base.sol\":8521:8531   */\n      caller\n        /* \"SertifikatDigital.sol\":3055:3190  function isApprovedForAll(address, address) public view virtual override(ERC721A, IERC721) returns (bool) {... */\n      tag_218\n      jump\t// in\n        /* \"@thirdweb-dev/contracts/eip/ERC721AVirtualApprove.sol\":13774:13810   */\n    tag_528:\n        /* \"@thirdweb-dev/contracts/eip/ERC721AVirtualApprove.sol\":13738:13862   */\n      dup1\n      tag_530\n      jumpi\n      pop\n        /* \"@thirdweb-dev/contracts/base/ERC721Base.sol\":8521:8531   */\n      caller\n        /* \"@thirdweb-dev/contracts/eip/ERC721AVirtualApprove.sol\":13826:13846   */\n      tag_532\n        /* \"@thirdweb-dev/contracts/eip/ERC721AVirtualApprove.sol\":13838:13845   */\n      dup5\n        /* \"@thirdweb-dev/contracts/eip/ERC721AVirtualApprove.sol\":13826:13837   */\n      tag_79\n        /* \"@thirdweb-dev/contracts/eip/ERC721AVirtualApprove.sol\":13826:13846   */\n      jump\t// in\n    tag_532:\n      sub(shl(0xa0, 0x01), 0x01)\n        /* \"@thirdweb-dev/contracts/eip/ERC721AVirtualApprove.sol\":13826:13862   */\n      and\n      eq\n        /* \"@thirdweb-dev/contracts/eip/ERC721AVirtualApprove.sol\":13738:13862   */\n    tag_530:\n        /* \"@thirdweb-dev/contracts/eip/ERC721AVirtualApprove.sol\":13712:13863   */\n      swap1\n      pop\n        /* \"@thirdweb-dev/contracts/eip/ERC721AVirtualApprove.sol\":13879:13896   */\n      dup1\n        /* \"@thirdweb-dev/contracts/eip/ERC721AVirtualApprove.sol\":13874:13940   */\n      tag_533\n      jumpi\n        /* \"@thirdweb-dev/contracts/eip/ERC721AVirtualApprove.sol\":13905:13940   */\n      mload(0x40)\n      shl(0xe1, 0x2ce44b5f)\n      dup2\n      mstore\n      0x04\n      add\n      mload(0x40)\n      dup1\n      swap2\n      sub\n      swap1\n      revert\n        /* \"@thirdweb-dev/contracts/eip/ERC721AVirtualApprove.sol\":13874:13940   */\n    tag_533:\n      sub(shl(0xa0, 0x01), 0x01)\n        /* \"@thirdweb-dev/contracts/eip/ERC721AVirtualApprove.sol\":13954:13970   */\n      dup5\n      and\n        /* \"@thirdweb-dev/contracts/eip/ERC721AVirtualApprove.sol\":13950:14002   */\n      tag_534\n      jumpi\n        /* \"@thirdweb-dev/contracts/eip/ERC721AVirtualApprove.sol\":13979:14002   */\n      mload(0x40)\n      shl(0xe2, 0x3a954ecd)\n      dup2\n      mstore\n      0x04\n      add\n      mload(0x40)\n      dup1\n      swap2\n      sub\n      swap1\n      revert\n        /* \"@thirdweb-dev/contracts/eip/ERC721AVirtualApprove.sol\":13950:14002   */\n    tag_534:\n        /* \"@thirdweb-dev/contracts/eip/ERC721AVirtualApprove.sol\":14013:14056   */\n      tag_535\n        /* \"@thirdweb-dev/contracts/eip/ERC721AVirtualApprove.sol\":14035:14039   */\n      dup6\n        /* \"@thirdweb-dev/contracts/eip/ERC721AVirtualApprove.sol\":14041:14043   */\n      dup6\n        /* \"@thirdweb-dev/contracts/eip/ERC721AVirtualApprove.sol\":14045:14052   */\n      dup6\n        /* \"@thirdweb-dev/contracts/eip/ERC721AVirtualApprove.sol\":14054:14055   */\n      0x01\n        /* \"@thirdweb-dev/contracts/eip/ERC721AVirtualApprove.sol\":14013:14034   */\n      tag_496\n        /* \"@thirdweb-dev/contracts/eip/ERC721AVirtualApprove.sol\":14013:14056   */\n      jump\t// in\n    tag_535:\n        /* \"@thirdweb-dev/contracts/eip/ERC721AVirtualApprove.sol\":14118:14153   */\n      tag_536\n        /* \"@thirdweb-dev/contracts/eip/ERC721AVirtualApprove.sol\":14135:14136   */\n      0x00\n        /* \"@thirdweb-dev/contracts/eip/ERC721AVirtualApprove.sol\":14139:14146   */\n      dup5\n        /* \"@thirdweb-dev/contracts/eip/ERC721AVirtualApprove.sol\":14148:14152   */\n      dup8\n        /* \"@thirdweb-dev/contracts/eip/ERC721AVirtualApprove.sol\":14118:14126   */\n      tag_537\n        /* \"@thirdweb-dev/contracts/eip/ERC721AVirtualApprove.sol\":14118:14153   */\n      jump\t// in\n    tag_536:\n      sub(shl(0xa0, 0x01), 0x01)\n        /* \"@thirdweb-dev/contracts/eip/ERC721AVirtualApprove.sol\":14443:14461   */\n      dup6\n      dup2\n      and\n      0x00\n      swap1\n      dup2\n      mstore\n        /* \"@thirdweb-dev/contracts/eip/ERC721AVirtualApprove.sol\":14443:14455   */\n      0x05\n        /* \"@thirdweb-dev/contracts/eip/ERC721AVirtualApprove.sol\":14443:14461   */\n      0x20\n      swap1\n      dup2\n      mstore\n      0x40\n      dup1\n      dup4\n      keccak256\n        /* \"@thirdweb-dev/contracts/eip/ERC721AVirtualApprove.sol\":14443:14474   */\n      dup1\n      sload\n      not(0xffffffffffffffff)\n      dup1\n      dup3\n      and\n      0xffffffffffffffff\n      swap3\n      dup4\n      and\n      not(0x00)\n      add\n      dup4\n      and\n      or\n      swap1\n      swap3\n      sstore\n        /* \"@thirdweb-dev/contracts/eip/ERC721AVirtualApprove.sol\":14488:14504   */\n      dup10\n      dup7\n      and\n      dup1\n      dup7\n      mstore\n      dup4\n      dup7\n      keccak256\n        /* \"@thirdweb-dev/contracts/eip/ERC721AVirtualApprove.sol\":14488:14517   */\n      dup1\n      sload\n      swap4\n      dup5\n      and\n      swap4\n      dup4\n      and\n      0x01\n      swap1\n      dup2\n      add\n      dup5\n      and\n      swap5\n      swap1\n      swap5\n      or\n      swap1\n      sstore\n        /* \"@thirdweb-dev/contracts/eip/ERC721AVirtualApprove.sol\":14566:14586   */\n      dup10\n      dup7\n      mstore\n        /* \"@thirdweb-dev/contracts/eip/ERC721AVirtualApprove.sol\":14566:14577   */\n      0x04\n        /* \"@thirdweb-dev/contracts/eip/ERC721AVirtualApprove.sol\":14566:14586   */\n      swap1\n      swap5\n      mstore\n      dup3\n      dup6\n      keccak256\n        /* \"@thirdweb-dev/contracts/eip/ERC721AVirtualApprove.sol\":14600:14618   */\n      dup1\n      sload\n      not(sub(shl(0xe0, 0x01), 0x01))\n        /* \"@thirdweb-dev/contracts/eip/ERC721AVirtualApprove.sol\":14632:14681   */\n      and\n      swap1\n      swap5\n      or\n      shl(0xa0, 0x01)\n        /* \"@thirdweb-dev/contracts/eip/ERC721AVirtualApprove.sol\":14665:14680   */\n      timestamp\n        /* \"@thirdweb-dev/contracts/eip/ERC721AVirtualApprove.sol\":14632:14681   */\n      swap1\n      swap3\n      and\n      swap2\n      swap1\n      swap2\n      mul\n      or\n      dup4\n      sstore\n        /* \"@thirdweb-dev/contracts/eip/ERC721AVirtualApprove.sol\":14951:14962   */\n      dup8\n      add\n        /* \"@thirdweb-dev/contracts/eip/ERC721AVirtualApprove.sol\":15010:15034   */\n      dup1\n      dup5\n      mstore\n      swap3\n      keccak256\n        /* \"@thirdweb-dev/contracts/eip/ERC721AVirtualApprove.sol\":15052:15065   */\n      dup1\n      sload\n        /* \"@thirdweb-dev/contracts/eip/ERC721AVirtualApprove.sol\":14566:14586   */\n      swap2\n      swap4\n        /* \"@thirdweb-dev/contracts/eip/ERC721AVirtualApprove.sol\":15010:15034   */\n      swap1\n      swap2\n        /* \"@thirdweb-dev/contracts/eip/ERC721AVirtualApprove.sol\":15052:15065   */\n      and\n        /* \"@thirdweb-dev/contracts/eip/ERC721AVirtualApprove.sol\":15048:15425   */\n      tag_539\n      jumpi\n        /* \"@thirdweb-dev/contracts/eip/ERC721AVirtualApprove.sol\":15259:15272   */\n      sload(0x00)\n        /* \"@thirdweb-dev/contracts/eip/ERC721AVirtualApprove.sol\":15244:15255   */\n      dup3\n        /* \"@thirdweb-dev/contracts/eip/ERC721AVirtualApprove.sol\":15244:15272   */\n      eq\n        /* \"@thirdweb-dev/contracts/eip/ERC721AVirtualApprove.sol\":15240:15411   */\n      tag_539\n      jumpi\n        /* \"@thirdweb-dev/contracts/eip/ERC721AVirtualApprove.sol\":15296:15316   */\n      dup1\n      sload\n        /* \"@thirdweb-dev/contracts/eip/ERC721AVirtualApprove.sol\":15364:15392   */\n      0x20\n      dup7\n      add\n      mload\n        /* \"@thirdweb-dev/contracts/eip/ERC721AVirtualApprove.sol\":15338:15392   */\n      0xffffffffffffffff\n      and\n      shl(0xa0, 0x01)\n      mul\n      not(sub(shl(0xe0, 0x01), 0x01))\n      swap1\n      swap2\n      and\n      sub(shl(0xa0, 0x01), 0x01)\n        /* \"@thirdweb-dev/contracts/eip/ERC721AVirtualApprove.sol\":15296:15316   */\n      dup11\n      and\n        /* \"@thirdweb-dev/contracts/eip/ERC721AVirtualApprove.sol\":15338:15392   */\n      or\n      or\n      dup2\n      sstore\n        /* \"@thirdweb-dev/contracts/eip/ERC721AVirtualApprove.sol\":15240:15411   */\n    tag_539:\n        /* \"@thirdweb-dev/contracts/eip/ERC721AVirtualApprove.sol\":14419:15435   */\n      pop\n      pop\n      pop\n        /* \"@thirdweb-dev/contracts/eip/ERC721AVirtualApprove.sol\":15469:15476   */\n      dup3\n        /* \"@thirdweb-dev/contracts/eip/ERC721AVirtualApprove.sol\":15465:15467   */\n      dup5\n      sub(shl(0xa0, 0x01), 0x01)\n        /* \"@thirdweb-dev/contracts/eip/ERC721AVirtualApprove.sol\":15450:15477   */\n      and\n        /* \"@thirdweb-dev/contracts/eip/ERC721AVirtualApprove.sol\":15459:15463   */\n      dup7\n      sub(shl(0xa0, 0x01), 0x01)\n        /* \"@thirdweb-dev/contracts/eip/ERC721AVirtualApprove.sol\":15450:15477   */\n      and\n      0xddf252ad1be2c89b69c2b068fc378daa952ba7f163c4a11628f55a4df523b3ef\n      mload(0x40)\n      mload(0x40)\n      dup1\n      swap2\n      sub\n      swap1\n      log4\n        /* \"@thirdweb-dev/contracts/eip/ERC721AVirtualApprove.sol\":15487:15529   */\n      tag_467\n        /* \"@thirdweb-dev/contracts/base/ERC721Base.sol\":5232:5519   */\n      jump\n        /* \"@thirdweb-dev/contracts/eip/ERC721AVirtualApprove.sol\":15913:18268   */\n    tag_289:\n        /* \"@thirdweb-dev/contracts/eip/ERC721AVirtualApprove.sol\":15992:16027   */\n      0x00\n        /* \"@thirdweb-dev/contracts/eip/ERC721AVirtualApprove.sol\":16030:16051   */\n      tag_542\n        /* \"@thirdweb-dev/contracts/eip/ERC721AVirtualApprove.sol\":16043:16050   */\n      dup4\n        /* \"@thirdweb-dev/contracts/eip/ERC721AVirtualApprove.sol\":16030:16042   */\n      tag_323\n        /* \"@thirdweb-dev/contracts/eip/ERC721AVirtualApprove.sol\":16030:16051   */\n      jump\t// in\n    tag_542:\n        /* \"@thirdweb-dev/contracts/eip/ERC721AVirtualApprove.sol\":16077:16095   */\n      dup1\n      mload\n        /* \"@thirdweb-dev/contracts/eip/ERC721AVirtualApprove.sol\":15992:16051   */\n      swap1\n      swap2\n      pop\n        /* \"@thirdweb-dev/contracts/eip/ERC721AVirtualApprove.sol\":16106:16390   */\n      dup3\n      iszero\n      tag_543\n      jumpi\n        /* \"@thirdweb-dev/contracts/eip/ERC721AVirtualApprove.sol\":16139:16161   */\n      0x00\n        /* \"@thirdweb-dev/contracts/base/ERC721Base.sol\":8521:8531   */\n      caller\n      sub(shl(0xa0, 0x01), 0x01)\n        /* \"@thirdweb-dev/contracts/eip/ERC721AVirtualApprove.sol\":16165:16185   */\n      dup4\n      and\n      eq\n      dup1\n        /* \"@thirdweb-dev/contracts/eip/ERC721AVirtualApprove.sol\":16165:16241   */\n      tag_546\n      jumpi\n      pop\n        /* \"@thirdweb-dev/contracts/eip/ERC721AVirtualApprove.sol\":16205:16241   */\n      tag_546\n        /* \"@thirdweb-dev/contracts/eip/ERC721AVirtualApprove.sol\":16222:16226   */\n      dup3\n        /* \"@thirdweb-dev/contracts/base/ERC721Base.sol\":8521:8531   */\n      caller\n        /* \"SertifikatDigital.sol\":3055:3190  function isApprovedForAll(address, address) public view virtual override(ERC721A, IERC721) returns (bool) {... */\n      tag_218\n      jump\t// in\n        /* \"@thirdweb-dev/contracts/eip/ERC721AVirtualApprove.sol\":16205:16241   */\n    tag_546:\n        /* \"@thirdweb-dev/contracts/eip/ERC721AVirtualApprove.sol\":16165:16297   */\n      dup1\n      tag_548\n      jumpi\n      pop\n        /* \"@thirdweb-dev/contracts/base/ERC721Base.sol\":8521:8531   */\n      caller\n        /* \"@thirdweb-dev/contracts/eip/ERC721AVirtualApprove.sol\":16261:16281   */\n      tag_550\n        /* \"@thirdweb-dev/contracts/eip/ERC721AVirtualApprove.sol\":16273:16280   */\n      dup7\n        /* \"@thirdweb-dev/contracts/eip/ERC721AVirtualApprove.sol\":16261:16272   */\n      tag_79\n        /* \"@thirdweb-dev/contracts/eip/ERC721AVirtualApprove.sol\":16261:16281   */\n      jump\t// in\n    tag_550:\n      sub(shl(0xa0, 0x01), 0x01)\n        /* \"@thirdweb-dev/contracts/eip/ERC721AVirtualApprove.sol\":16261:16297   */\n      and\n      eq\n        /* \"@thirdweb-dev/contracts/eip/ERC721AVirtualApprove.sol\":16165:16297   */\n    tag_548:\n        /* \"@thirdweb-dev/contracts/eip/ERC721AVirtualApprove.sol\":16139:16298   */\n      swap1\n      pop\n        /* \"@thirdweb-dev/contracts/eip/ERC721AVirtualApprove.sol\":16318:16335   */\n      dup1\n        /* \"@thirdweb-dev/contracts/eip/ERC721AVirtualApprove.sol\":16313:16379   */\n      tag_551\n      jumpi\n        /* \"@thirdweb-dev/contracts/eip/ERC721AVirtualApprove.sol\":16344:16379   */\n      mload(0x40)\n      shl(0xe1, 0x2ce44b5f)\n      dup2\n      mstore\n      0x04\n      add\n      mload(0x40)\n      dup1\n      swap2\n      sub\n      swap1\n      revert\n        /* \"@thirdweb-dev/contracts/eip/ERC721AVirtualApprove.sol\":16313:16379   */\n    tag_551:\n        /* \"@thirdweb-dev/contracts/eip/ERC721AVirtualApprove.sol\":16125:16390   */\n      pop\n        /* \"@thirdweb-dev/contracts/eip/ERC721AVirtualApprove.sol\":16106:16390   */\n    tag_543:\n        /* \"@thirdweb-dev/contracts/eip/ERC721AVirtualApprove.sol\":16400:16451   */\n      tag_552\n        /* \"@thirdweb-dev/contracts/eip/ERC721AVirtualApprove.sol\":16422:16426   */\n      dup2\n        /* \"@thirdweb-dev/contracts/eip/ERC721AVirtualApprove.sol\":16436:16437   */\n      0x00\n        /* \"@thirdweb-dev/contracts/eip/ERC721AVirtualApprove.sol\":16440:16447   */\n      dup7\n        /* \"@thirdweb-dev/contracts/eip/ERC721AVirtualApprove.sol\":16449:16450   */\n      0x01\n        /* \"@thirdweb-dev/contracts/eip/ERC721AVirtualApprove.sol\":16400:16421   */\n      tag_496\n        /* \"@thirdweb-dev/contracts/eip/ERC721AVirtualApprove.sol\":16400:16451   */\n      jump\t// in\n    tag_552:\n        /* \"@thirdweb-dev/contracts/eip/ERC721AVirtualApprove.sol\":16513:16548   */\n      tag_553\n        /* \"@thirdweb-dev/contracts/eip/ERC721AVirtualApprove.sol\":16530:16531   */\n      0x00\n        /* \"@thirdweb-dev/contracts/eip/ERC721AVirtualApprove.sol\":16534:16541   */\n      dup6\n        /* \"@thirdweb-dev/contracts/eip/ERC721AVirtualApprove.sol\":16543:16547   */\n      dup4\n        /* \"@thirdweb-dev/contracts/eip/ERC721AVirtualApprove.sol\":16513:16521   */\n      tag_537\n        /* \"@thirdweb-dev/contracts/eip/ERC721AVirtualApprove.sol\":16513:16548   */\n      jump\t// in\n    tag_553:\n      sub(shl(0xa0, 0x01), 0x01)\n        /* \"@thirdweb-dev/contracts/eip/ERC721AVirtualApprove.sol\":16872:16890   */\n      dup1\n      dup3\n      and\n        /* \"@thirdweb-dev/contracts/eip/ERC721AVirtualApprove.sol\":16838:16869   */\n      0x00\n        /* \"@thirdweb-dev/contracts/eip/ERC721AVirtualApprove.sol\":16872:16890   */\n      dup2\n      dup2\n      mstore\n        /* \"@thirdweb-dev/contracts/eip/ERC721AVirtualApprove.sol\":16872:16884   */\n      0x05\n        /* \"@thirdweb-dev/contracts/eip/ERC721AVirtualApprove.sol\":16872:16890   */\n      0x20\n      swap1\n      dup2\n      mstore\n      0x40\n      dup1\n      dup4\n      keccak256\n        /* \"@thirdweb-dev/contracts/eip/ERC721AVirtualApprove.sol\":16904:16928   */\n      dup1\n      sload\n        /* \"@thirdweb-dev/contracts/eip/ERC721AVirtualApprove.sol\":16942:16971   */\n      0x0100000000000000000000000000000000\n      not(0x00)\n        /* \"@thirdweb-dev/contracts/eip/ERC721AVirtualApprove.sol\":16904:16928   */\n      0xffffffffffffffff\n      dup1\n      dup5\n      and\n      swap2\n      swap1\n      swap2\n      add\n      dup2\n      and\n      not(0xffffffffffffffff)\n      dup5\n      and\n      dup2\n      or\n        /* \"@thirdweb-dev/contracts/eip/ERC721AVirtualApprove.sol\":16942:16971   */\n      dup4\n      swap1\n      div\n      dup3\n      and\n        /* \"@thirdweb-dev/contracts/eip/ERC721AVirtualApprove.sol\":16927:16928   */\n      0x01\n        /* \"@thirdweb-dev/contracts/eip/ERC721AVirtualApprove.sol\":16942:16971   */\n      swap1\n      dup2\n      add\n      dup4\n      and\n      swap1\n      swap4\n      mul\n      0xffffffffffffffff0000000000000000ffffffffffffffff0000000000000000\n      swap1\n      swap5\n      and\n      or\n      swap3\n      swap1\n      swap3\n      or\n      dup4\n      sstore\n        /* \"@thirdweb-dev/contracts/eip/ERC721AVirtualApprove.sol\":17101:17121   */\n      dup12\n      dup7\n      mstore\n        /* \"@thirdweb-dev/contracts/eip/ERC721AVirtualApprove.sol\":17101:17112   */\n      0x04\n        /* \"@thirdweb-dev/contracts/eip/ERC721AVirtualApprove.sol\":17101:17121   */\n      swap1\n      swap5\n      mstore\n      dup3\n      dup6\n      keccak256\n        /* \"@thirdweb-dev/contracts/eip/ERC721AVirtualApprove.sol\":17135:17155   */\n      dup1\n      sload\n        /* \"@thirdweb-dev/contracts/eip/ERC721AVirtualApprove.sol\":17232:17254   */\n      0xffffff00ffffffffffffffffffffffffffffffffffffffffffffffffffffffff\n        /* \"@thirdweb-dev/contracts/eip/ERC721AVirtualApprove.sol\":17202:17217   */\n      timestamp\n        /* \"@thirdweb-dev/contracts/eip/ERC721AVirtualApprove.sol\":17169:17218   */\n      swap1\n      swap4\n      and\n      shl(0xa0, 0x01)\n      mul\n      not(sub(shl(0xe0, 0x01), 0x01))\n      swap1\n      swap2\n      and\n      swap1\n      swap8\n      or\n      swap7\n      swap1\n      swap7\n      or\n        /* \"@thirdweb-dev/contracts/eip/ERC721AVirtualApprove.sol\":17232:17254   */\n      and\n      shl(0xe0, 0x01)\n      or\n      dup6\n      sstore\n        /* \"@thirdweb-dev/contracts/eip/ERC721AVirtualApprove.sol\":17520:17531   */\n      swap2\n      dup10\n      add\n        /* \"@thirdweb-dev/contracts/eip/ERC721AVirtualApprove.sol\":17579:17603   */\n      dup1\n      dup5\n      mstore\n      swap3\n      keccak256\n        /* \"@thirdweb-dev/contracts/eip/ERC721AVirtualApprove.sol\":17621:17634   */\n      dup1\n      sload\n        /* \"@thirdweb-dev/contracts/eip/ERC721AVirtualApprove.sol\":16872:16890   */\n      swap2\n      swap5\n        /* \"@thirdweb-dev/contracts/eip/ERC721AVirtualApprove.sol\":17579:17603   */\n      swap1\n      swap2\n        /* \"@thirdweb-dev/contracts/eip/ERC721AVirtualApprove.sol\":17621:17634   */\n      and\n        /* \"@thirdweb-dev/contracts/eip/ERC721AVirtualApprove.sol\":17617:17994   */\n      tag_555\n      jumpi\n        /* \"@thirdweb-dev/contracts/eip/ERC721AVirtualApprove.sol\":17828:17841   */\n      sload(0x00)\n        /* \"@thirdweb-dev/contracts/eip/ERC721AVirtualApprove.sol\":17813:17824   */\n      dup3\n        /* \"@thirdweb-dev/contracts/eip/ERC721AVirtualApprove.sol\":17813:17841   */\n      eq\n        /* \"@thirdweb-dev/contracts/eip/ERC721AVirtualApprove.sol\":17809:17980   */\n      tag_555\n      jumpi\n        /* \"@thirdweb-dev/contracts/eip/ERC721AVirtualApprove.sol\":17865:17885   */\n      dup1\n      sload\n        /* \"@thirdweb-dev/contracts/eip/ERC721AVirtualApprove.sol\":17933:17961   */\n      0x20\n      dup8\n      add\n      mload\n        /* \"@thirdweb-dev/contracts/eip/ERC721AVirtualApprove.sol\":17907:17961   */\n      0xffffffffffffffff\n      and\n      shl(0xa0, 0x01)\n      mul\n      not(sub(shl(0xe0, 0x01), 0x01))\n      swap1\n      swap2\n      and\n      sub(shl(0xa0, 0x01), 0x01)\n        /* \"@thirdweb-dev/contracts/eip/ERC721AVirtualApprove.sol\":17865:17885   */\n      dup8\n      and\n        /* \"@thirdweb-dev/contracts/eip/ERC721AVirtualApprove.sol\":17907:17961   */\n      or\n      or\n      dup2\n      sstore\n        /* \"@thirdweb-dev/contracts/eip/ERC721AVirtualApprove.sol\":17809:17980   */\n    tag_555:\n      pop\n      pop\n        /* \"@thirdweb-dev/contracts/eip/ERC721AVirtualApprove.sol\":18019:18054   */\n      mload(0x40)\n        /* \"@thirdweb-dev/contracts/eip/ERC721AVirtualApprove.sol\":18046:18053   */\n      dup7\n      swap3\n      pop\n        /* \"@thirdweb-dev/contracts/eip/ERC721AVirtualApprove.sol\":18042:18043   */\n      0x00\n      swap2\n      pop\n      sub(shl(0xa0, 0x01), 0x01)\n        /* \"@thirdweb-dev/contracts/eip/ERC721AVirtualApprove.sol\":18019:18054   */\n      dup5\n      and\n      swap1\n      0xddf252ad1be2c89b69c2b068fc378daa952ba7f163c4a11628f55a4df523b3ef\n      swap1\n        /* \"@thirdweb-dev/contracts/eip/ERC721AVirtualApprove.sol\":18042:18043   */\n      dup4\n      swap1\n        /* \"@thirdweb-dev/contracts/eip/ERC721AVirtualApprove.sol\":18019:18054   */\n      log4\n      pop\n      pop\n        /* \"@thirdweb-dev/contracts/eip/ERC721AVirtualApprove.sol\":18237:18249   */\n      0x01\n        /* \"@thirdweb-dev/contracts/eip/ERC721AVirtualApprove.sol\":18237:18251   */\n      dup1\n      sload\n      dup2\n      add\n      swap1\n      sstore\n      pop\n      pop\n        /* \"@thirdweb-dev/contracts/eip/ERC721AVirtualApprove.sol\":15913:18268   */\n      jump\t// out\n        /* \"@thirdweb-dev/contracts/extension/Royalty.sol\":3717:4078   */\n    tag_320:\n        /* \"@thirdweb-dev/contracts/extension/Royalty.sol\":3836:3842   */\n      0x2710\n        /* \"@thirdweb-dev/contracts/extension/Royalty.sol\":3822:3833   */\n      dup2\n        /* \"@thirdweb-dev/contracts/extension/Royalty.sol\":3822:3842   */\n      gt\n        /* \"@thirdweb-dev/contracts/extension/Royalty.sol\":3818:3921   */\n      iszero\n      tag_560\n      jumpi\n        /* \"@thirdweb-dev/contracts/extension/Royalty.sol\":3865:3910   */\n      mload(0x40)\n      shl(0xe3, 0x0a4930ad)\n      dup2\n      mstore\n        /* \"@thirdweb-dev/contracts/extension/Royalty.sol\":3890:3896   */\n      0x2710\n        /* \"@thirdweb-dev/contracts/extension/Royalty.sol\":3865:3910   */\n      0x04\n      dup3\n      add\n        /* \"#utility.yul\":21361:21386   */\n      mstore\n        /* \"#utility.yul\":21402:21420   */\n      0x24\n      dup2\n      add\n        /* \"#utility.yul\":21395:21429   */\n      dup3\n      swap1\n      mstore\n        /* \"#utility.yul\":21334:21352   */\n      0x44\n      add\n        /* \"@thirdweb-dev/contracts/extension/Royalty.sol\":3865:3910   */\n      tag_226\n        /* \"#utility.yul\":21175:21435   */\n      jump\n        /* \"@thirdweb-dev/contracts/extension/Royalty.sol\":3818:3921   */\n    tag_560:\n        /* \"@thirdweb-dev/contracts/extension/Royalty.sol\":3931:3947   */\n      0x0a\n        /* \"@thirdweb-dev/contracts/extension/Royalty.sol\":3931:3967   */\n      dup1\n      sload\n      sub(shl(0xa0, 0x01), 0x01)\n      dup5\n      and\n        /* \"@thirdweb-dev/contracts/extension/Royalty.sol\":3977:4009   */\n      0xffffffffffffffffffff00000000000000000000000000000000000000000000\n      swap1\n      swap2\n      and\n      dup2\n      or\n      shl(0xa0, 0x01)\n      0xffff\n      dup6\n      and\n      mul\n      or\n      swap1\n      swap2\n      sstore\n        /* \"@thirdweb-dev/contracts/extension/Royalty.sol\":4025:4071   */\n      mload(0x40)\n        /* \"#utility.yul\":4366:4391   */\n      dup3\n      dup2\n      mstore\n        /* \"@thirdweb-dev/contracts/extension/Royalty.sol\":4025:4071   */\n      0x90d7ec04bcb8978719414f82e52e4cb651db41d0e6f8cea6118c2191e6183adb\n      swap1\n        /* \"#utility.yul\":4354:4356   */\n      0x20\n        /* \"#utility.yul\":4339:4357   */\n      add\n        /* \"@thirdweb-dev/contracts/extension/Royalty.sol\":4025:4071   */\n      mload(0x40)\n      dup1\n      swap2\n      sub\n      swap1\n      log2\n        /* \"@thirdweb-dev/contracts/extension/Royalty.sol\":3717:4078   */\n      pop\n      pop\n      jump\t// out\n        /* \"@thirdweb-dev/contracts/eip/ERC721AVirtualApprove.sol\":4713:5887   */\n    tag_323:\n      0x40\n      dup1\n      mload\n      0x60\n      dup2\n      add\n      dup3\n      mstore\n      0x00\n      dup1\n      dup3\n      mstore\n      0x20\n      dup3\n      add\n      dup2\n      swap1\n      mstore\n      swap2\n      dup2\n      add\n      swap2\n      swap1\n      swap2\n      mstore\n        /* \"@thirdweb-dev/contracts/eip/ERC721AVirtualApprove.sol\":4823:4830   */\n      dup2\n        /* \"@thirdweb-dev/contracts/eip/ERC721AVirtualApprove.sol\":4921:4934   */\n      sload(0x00)\n        /* \"@thirdweb-dev/contracts/eip/ERC721AVirtualApprove.sol\":4914:4918   */\n      dup2\n        /* \"@thirdweb-dev/contracts/eip/ERC721AVirtualApprove.sol\":4914:4934   */\n      lt\n        /* \"@thirdweb-dev/contracts/eip/ERC721AVirtualApprove.sol\":4910:5823   */\n      iszero\n      tag_568\n      jumpi\n        /* \"@thirdweb-dev/contracts/eip/ERC721AVirtualApprove.sol\":4958:4989   */\n      0x00\n        /* \"@thirdweb-dev/contracts/eip/ERC721AVirtualApprove.sol\":4992:5009   */\n      dup2\n      dup2\n      mstore\n        /* \"@thirdweb-dev/contracts/eip/ERC721AVirtualApprove.sol\":4992:5003   */\n      0x04\n        /* \"@thirdweb-dev/contracts/eip/ERC721AVirtualApprove.sol\":4992:5009   */\n      0x20\n      swap1\n      dup2\n      mstore\n      0x40\n      swap2\n      dup3\n      swap1\n      keccak256\n        /* \"@thirdweb-dev/contracts/eip/ERC721AVirtualApprove.sol\":4958:5009   */\n      dup3\n      mload\n      0x60\n      dup2\n      add\n      dup5\n      mstore\n      swap1\n      sload\n      sub(shl(0xa0, 0x01), 0x01)\n      dup2\n      and\n      dup3\n      mstore\n      shl(0xa0, 0x01)\n      dup2\n      div\n      0xffffffffffffffff\n      and\n      swap3\n      dup3\n      add\n      swap3\n      swap1\n      swap3\n      mstore\n      shl(0xe0, 0x01)\n      swap1\n      swap2\n      div\n      0xff\n      and\n      iszero\n      iszero\n      swap2\n      dup2\n      add\n      dup3\n      swap1\n      mstore\n      swap1\n        /* \"@thirdweb-dev/contracts/eip/ERC721AVirtualApprove.sol\":5031:5805   */\n      tag_572\n      jumpi\n        /* \"@thirdweb-dev/contracts/eip/ERC721AVirtualApprove.sol\":5084:5098   */\n      dup1\n      mload\n      sub(shl(0xa0, 0x01), 0x01)\n        /* \"@thirdweb-dev/contracts/eip/ERC721AVirtualApprove.sol\":5084:5112   */\n      and\n      iszero\n        /* \"@thirdweb-dev/contracts/eip/ERC721AVirtualApprove.sol\":5080:5187   */\n      tag_570\n      jumpi\n        /* \"@thirdweb-dev/contracts/eip/ERC721AVirtualApprove.sol\":5151:5160   */\n      swap4\n        /* \"@thirdweb-dev/contracts/eip/ERC721AVirtualApprove.sol\":4713:5887   */\n      swap3\n      pop\n      pop\n      pop\n      jump\t// out\n        /* \"@thirdweb-dev/contracts/eip/ERC721AVirtualApprove.sol\":5080:5187   */\n    tag_570:\n      pop\n      not(0x00)\n        /* \"@thirdweb-dev/contracts/eip/ERC721AVirtualApprove.sol\":5547:5553   */\n      add\n        /* \"@thirdweb-dev/contracts/eip/ERC721AVirtualApprove.sol\":5595:5612   */\n      0x00\n      dup2\n      dup2\n      mstore\n        /* \"@thirdweb-dev/contracts/eip/ERC721AVirtualApprove.sol\":5595:5606   */\n      0x04\n        /* \"@thirdweb-dev/contracts/eip/ERC721AVirtualApprove.sol\":5595:5612   */\n      0x20\n      swap1\n      dup2\n      mstore\n      0x40\n      swap2\n      dup3\n      swap1\n      keccak256\n        /* \"@thirdweb-dev/contracts/eip/ERC721AVirtualApprove.sol\":5583:5612   */\n      dup3\n      mload\n      0x60\n      dup2\n      add\n      dup5\n      mstore\n      swap1\n      sload\n      sub(shl(0xa0, 0x01), 0x01)\n      dup2\n      and\n      dup1\n      dup4\n      mstore\n      shl(0xa0, 0x01)\n      dup3\n      div\n      0xffffffffffffffff\n      and\n      swap4\n      dup4\n      add\n      swap4\n      swap1\n      swap4\n      mstore\n      shl(0xe0, 0x01)\n      swap1\n      div\n      0xff\n      and\n      iszero\n      iszero\n      swap3\n      dup2\n      add\n      swap3\n      swap1\n      swap3\n      mstore\n        /* \"@thirdweb-dev/contracts/eip/ERC721AVirtualApprove.sol\":5646:5674   */\n      iszero\n        /* \"@thirdweb-dev/contracts/eip/ERC721AVirtualApprove.sol\":5642:5757   */\n      tag_573\n      jumpi\n        /* \"@thirdweb-dev/contracts/eip/ERC721AVirtualApprove.sol\":5717:5726   */\n      swap4\n        /* \"@thirdweb-dev/contracts/eip/ERC721AVirtualApprove.sol\":4713:5887   */\n      swap3\n      pop\n      pop\n      pop\n      jump\t// out\n        /* \"@thirdweb-dev/contracts/eip/ERC721AVirtualApprove.sol\":5642:5757   */\n    tag_573:\n        /* \"@thirdweb-dev/contracts/eip/ERC721AVirtualApprove.sol\":5504:5783   */\n      jump(tag_570)\n    tag_572:\n        /* \"@thirdweb-dev/contracts/eip/ERC721AVirtualApprove.sol\":4936:5823   */\n      pop\n        /* \"@thirdweb-dev/contracts/eip/ERC721AVirtualApprove.sol\":4910:5823   */\n    tag_568:\n        /* \"@thirdweb-dev/contracts/eip/ERC721AVirtualApprove.sol\":5849:5880   */\n      mload(0x40)\n      shl(0xe1, 0x6f96cda1)\n      dup2\n      mstore\n      0x04\n      add\n      mload(0x40)\n      dup1\n      swap2\n      sub\n      swap1\n      revert\n        /* \"@thirdweb-dev/contracts/extension/BatchMintMetadata.sol\":4992:5354   */\n    tag_333:\n        /* \"@thirdweb-dev/contracts/extension/BatchMintMetadata.sol\":5142:5167   */\n      0x00\n      dup1\n        /* \"@thirdweb-dev/contracts/extension/BatchMintMetadata.sol\":5206:5230   */\n      tag_575\n        /* \"@thirdweb-dev/contracts/extension/BatchMintMetadata.sol\":5217:5230   */\n      dup5\n        /* \"@thirdweb-dev/contracts/extension/BatchMintMetadata.sol\":5206:5214   */\n      dup7\n        /* \"@thirdweb-dev/contracts/extension/BatchMintMetadata.sol\":5206:5230   */\n      tag_576\n      jump\t// in\n    tag_575:\n        /* \"@thirdweb-dev/contracts/extension/BatchMintMetadata.sol\":5278:5286   */\n      0x0c\n        /* \"@thirdweb-dev/contracts/extension/BatchMintMetadata.sol\":5278:5300   */\n      dup1\n      sload\n      0x01\n      dup2\n      add\n      swap1\n      swap2\n      sstore\n      0xdf6966c971051c3d54ec59162606531493a51404a002842f56009d7e5cf4a8c7\n      add\n      dup2\n      swap1\n      sstore\n      0x00\n        /* \"@thirdweb-dev/contracts/extension/BatchMintMetadata.sol\":5311:5327   */\n      dup2\n      dup2\n      mstore\n        /* \"@thirdweb-dev/contracts/extension/BatchMintMetadata.sol\":5311:5318   */\n      0x0d\n        /* \"@thirdweb-dev/contracts/extension/BatchMintMetadata.sol\":5278:5300   */\n      0x20\n        /* \"@thirdweb-dev/contracts/extension/BatchMintMetadata.sol\":5311:5327   */\n      mstore\n      0x40\n      swap1\n      keccak256\n        /* \"@thirdweb-dev/contracts/extension/BatchMintMetadata.sol\":5196:5230   */\n      swap1\n      swap3\n      pop\n      dup3\n      swap2\n      pop\n        /* \"@thirdweb-dev/contracts/extension/BatchMintMetadata.sol\":5311:5347   */\n      tag_578\n        /* \"@thirdweb-dev/contracts/extension/BatchMintMetadata.sol\":5330:5347   */\n      dup5\n        /* \"@thirdweb-dev/contracts/extension/BatchMintMetadata.sol\":5311:5327   */\n      dup3\n        /* \"@thirdweb-dev/contracts/extension/BatchMintMetadata.sol\":5311:5347   */\n      tag_491\n      jump\t// in\n    tag_578:\n      pop\n        /* \"@thirdweb-dev/contracts/extension/BatchMintMetadata.sol\":4992:5354   */\n      swap4\n      pop\n      swap4\n      swap2\n      pop\n      pop\n      jump\t// out\n        /* \"@thirdweb-dev/contracts/extension/ContractMetadata.sol\":1393:1578   */\n    tag_356:\n        /* \"@thirdweb-dev/contracts/extension/ContractMetadata.sol\":1459:1480   */\n      0x00\n        /* \"@thirdweb-dev/contracts/extension/ContractMetadata.sol\":1483:1494   */\n      0x08\n        /* \"@thirdweb-dev/contracts/extension/ContractMetadata.sol\":1459:1494   */\n      dup1\n      sload\n      tag_582\n      swap1\n      tag_239\n      jump\t// in\n    tag_582:\n      dup1\n      0x1f\n      add\n      0x20\n      dup1\n      swap2\n      div\n      mul\n      0x20\n      add\n      mload(0x40)\n      swap1\n      dup2\n      add\n      0x40\n      mstore\n      dup1\n      swap3\n      swap2\n      swap1\n      dup2\n      dup2\n      mstore\n      0x20\n      add\n      dup3\n      dup1\n      sload\n      tag_583\n      swap1\n      tag_239\n      jump\t// in\n    tag_583:\n      dup1\n      iszero\n      tag_584\n      jumpi\n      dup1\n      0x1f\n      lt\n      tag_585\n      jumpi\n      0x0100\n      dup1\n      dup4\n      sload\n      div\n      mul\n      dup4\n      mstore\n      swap2\n      0x20\n      add\n      swap2\n      jump(tag_584)\n    tag_585:\n      dup3\n      add\n      swap2\n      swap1\n      0x00\n      mstore\n      keccak256(0x00, 0x20)\n      swap1\n    tag_586:\n      dup2\n      sload\n      dup2\n      mstore\n      swap1\n      0x01\n      add\n      swap1\n      0x20\n      add\n      dup1\n      dup4\n      gt\n      tag_586\n      jumpi\n      dup3\n      swap1\n      sub\n      0x1f\n      and\n      dup3\n      add\n      swap2\n    tag_584:\n      pop\n      pop\n      pop\n      pop\n      pop\n      swap1\n      pop\n        /* \"@thirdweb-dev/contracts/extension/ContractMetadata.sol\":1518:1522   */\n      dup2\n        /* \"@thirdweb-dev/contracts/extension/ContractMetadata.sol\":1504:1515   */\n      0x08\n        /* \"@thirdweb-dev/contracts/extension/ContractMetadata.sol\":1504:1522   */\n      swap1\n      dup2\n      tag_587\n      swap2\n      swap1\n      tag_491\n      jump\t// in\n    tag_587:\n      pop\n        /* \"@thirdweb-dev/contracts/extension/ContractMetadata.sol\":1538:1571   */\n      0xc9c7c3fe08b88b4df9d4d47ef47d2c43d55c025a0ba88ca442580ed9e7348a16\n        /* \"@thirdweb-dev/contracts/extension/ContractMetadata.sol\":1557:1564   */\n      dup2\n        /* \"@thirdweb-dev/contracts/extension/ContractMetadata.sol\":1566:1570   */\n      dup4\n        /* \"@thirdweb-dev/contracts/extension/ContractMetadata.sol\":1538:1571   */\n      mload(0x40)\n      tag_588\n      swap3\n      swap2\n      swap1\n      tag_589\n      jump\t// in\n    tag_588:\n      mload(0x40)\n      dup1\n      swap2\n      sub\n      swap1\n      log1\n        /* \"@thirdweb-dev/contracts/extension/ContractMetadata.sol\":1449:1578   */\n      pop\n        /* \"@thirdweb-dev/contracts/extension/ContractMetadata.sol\":1393:1578   */\n      pop\n      jump\t// out\n        /* \"@thirdweb-dev/contracts/extension/Royalty.sol\":4959:5311   */\n    tag_392:\n        /* \"@thirdweb-dev/contracts/extension/Royalty.sol\":5076:5082   */\n      0x2710\n        /* \"@thirdweb-dev/contracts/extension/Royalty.sol\":5069:5073   */\n      dup2\n        /* \"@thirdweb-dev/contracts/extension/Royalty.sol\":5069:5082   */\n      gt\n        /* \"@thirdweb-dev/contracts/extension/Royalty.sol\":5065:5154   */\n      iszero\n      tag_591\n      jumpi\n        /* \"@thirdweb-dev/contracts/extension/Royalty.sol\":5105:5143   */\n      mload(0x40)\n      shl(0xe3, 0x0a4930ad)\n      dup2\n      mstore\n        /* \"@thirdweb-dev/contracts/extension/Royalty.sol\":5130:5136   */\n      0x2710\n        /* \"@thirdweb-dev/contracts/extension/Royalty.sol\":5105:5143   */\n      0x04\n      dup3\n      add\n        /* \"#utility.yul\":21361:21386   */\n      mstore\n        /* \"#utility.yul\":21402:21420   */\n      0x24\n      dup2\n      add\n        /* \"#utility.yul\":21395:21429   */\n      dup3\n      swap1\n      mstore\n        /* \"#utility.yul\":21334:21352   */\n      0x44\n      add\n        /* \"@thirdweb-dev/contracts/extension/Royalty.sol\":5105:5143   */\n      tag_226\n        /* \"#utility.yul\":21175:21435   */\n      jump\n        /* \"@thirdweb-dev/contracts/extension/Royalty.sol\":5065:5154   */\n    tag_591:\n        /* \"@thirdweb-dev/contracts/extension/Royalty.sol\":5196:5245   */\n      0x40\n      dup1\n      mload\n      dup1\n      dup3\n      add\n      dup3\n      mstore\n      sub(shl(0xa0, 0x01), 0x01)\n      dup5\n      dup2\n      and\n      dup1\n      dup4\n      mstore\n      0x20\n      dup1\n      dup5\n      add\n      dup7\n      dup2\n      mstore\n      0x00\n        /* \"@thirdweb-dev/contracts/extension/Royalty.sol\":5164:5193   */\n      dup10\n      dup2\n      mstore\n        /* \"@thirdweb-dev/contracts/extension/Royalty.sol\":5164:5183   */\n      0x0b\n        /* \"@thirdweb-dev/contracts/extension/Royalty.sol\":5164:5193   */\n      dup4\n      mstore\n      dup7\n      swap1\n      keccak256\n        /* \"@thirdweb-dev/contracts/extension/Royalty.sol\":5164:5245   */\n      swap5\n      mload\n      dup6\n      sload\n      not(0xffffffffffffffffffffffffffffffffffffffff)\n      and\n      swap5\n      and\n      swap4\n      swap1\n      swap4\n      or\n      dup5\n      sstore\n      swap2\n      mload\n      0x01\n      swap1\n      swap4\n      add\n      swap3\n      swap1\n      swap3\n      sstore\n        /* \"@thirdweb-dev/contracts/extension/Royalty.sol\":5261:5304   */\n      swap2\n      mload\n        /* \"#utility.yul\":4366:4391   */\n      dup4\n      dup2\n      mstore\n        /* \"@thirdweb-dev/contracts/extension/Royalty.sol\":5196:5245   */\n      swap1\n      swap2\n        /* \"@thirdweb-dev/contracts/extension/Royalty.sol\":5164:5193   */\n      dup6\n      swap2\n        /* \"@thirdweb-dev/contracts/extension/Royalty.sol\":5261:5304   */\n      0x7365cf4122f072a3365c20d54eff9b38d73c096c28e1892ec8f5b0e403a0f12d\n      swap2\n        /* \"#utility.yul\":4339:4357   */\n      add\n        /* \"@thirdweb-dev/contracts/extension/Royalty.sol\":5261:5304   */\n      mload(0x40)\n      dup1\n      swap2\n      sub\n      swap1\n      log3\n        /* \"@thirdweb-dev/contracts/extension/Royalty.sol\":4959:5311   */\n      pop\n      pop\n      pop\n      jump\t// out\n        /* \"@thirdweb-dev/contracts/lib/Address.sol\":6671:6869   */\n    tag_414:\n        /* \"@thirdweb-dev/contracts/lib/Address.sol\":6754:6766   */\n      0x60\n        /* \"@thirdweb-dev/contracts/lib/Address.sol\":6785:6862   */\n      tag_363\n        /* \"@thirdweb-dev/contracts/lib/Address.sol\":6806:6812   */\n      dup4\n        /* \"@thirdweb-dev/contracts/lib/Address.sol\":6814:6818   */\n      dup4\n        /* \"@thirdweb-dev/contracts/lib/Address.sol\":6785:6862   */\n      mload(0x40)\n      dup1\n      0x60\n      add\n      0x40\n      mstore\n      dup1\n      0x27\n      dup2\n      mstore\n      0x20\n      add\n      data_9fdcd12e4b726339b32a442b0a448365d5d85c96b2d2cff917b4f66c63110398\n      0x27\n      swap2\n      codecopy\n        /* \"@thirdweb-dev/contracts/lib/Address.sol\":6785:6805   */\n      tag_597\n        /* \"@thirdweb-dev/contracts/lib/Address.sol\":6785:6862   */\n      jump\t// in\n        /* \"@thirdweb-dev/contracts/eip/ERC721AVirtualApprove.sol\":19019:19669   */\n    tag_431:\n        /* \"@thirdweb-dev/contracts/eip/ERC721AVirtualApprove.sol\":19197:19269   */\n      mload(0x40)\n      shl(0xe1, 0x0a85bd01)\n      dup2\n      mstore\n        /* \"@thirdweb-dev/contracts/eip/ERC721AVirtualApprove.sol\":19177:19181   */\n      0x00\n      swap1\n      sub(shl(0xa0, 0x01), 0x01)\n        /* \"@thirdweb-dev/contracts/eip/ERC721AVirtualApprove.sol\":19197:19233   */\n      dup6\n      and\n      swap1\n      0x150b7a02\n      swap1\n        /* \"@thirdweb-dev/contracts/eip/ERC721AVirtualApprove.sol\":19197:19269   */\n      tag_601\n      swap1\n        /* \"@thirdweb-dev/contracts/base/ERC721Base.sol\":8521:8531   */\n      caller\n      swap1\n        /* \"@thirdweb-dev/contracts/eip/ERC721AVirtualApprove.sol\":19248:19252   */\n      dup10\n      swap1\n        /* \"@thirdweb-dev/contracts/eip/ERC721AVirtualApprove.sol\":19254:19261   */\n      dup9\n      swap1\n        /* \"@thirdweb-dev/contracts/eip/ERC721AVirtualApprove.sol\":19263:19268   */\n      dup9\n      swap1\n        /* \"@thirdweb-dev/contracts/eip/ERC721AVirtualApprove.sol\":19197:19269   */\n      0x04\n      add\n      tag_602\n      jump\t// in\n    tag_601:\n      0x20\n      mload(0x40)\n      dup1\n      dup4\n      sub\n      dup2\n      0x00\n      dup8\n      gas\n      call\n      swap3\n      pop\n      pop\n      pop\n      dup1\n      iszero\n      tag_603\n      jumpi\n      pop\n      0x40\n      dup1\n      mload\n      0x1f\n      returndatasize\n      swap1\n      dup2\n      add\n      not(0x1f)\n      and\n      dup3\n      add\n      swap1\n      swap3\n      mstore\n      tag_604\n      swap2\n      dup2\n      add\n      swap1\n      tag_605\n      jump\t// in\n    tag_604:\n      0x01\n    tag_603:\n        /* \"@thirdweb-dev/contracts/eip/ERC721AVirtualApprove.sol\":19193:19663   */\n      tag_606\n      jumpi\n      returndatasize\n      dup1\n      dup1\n      iszero\n      tag_611\n      jumpi\n      mload(0x40)\n      swap2\n      pop\n      and(add(returndatasize, 0x3f), not(0x1f))\n      dup3\n      add\n      0x40\n      mstore\n      returndatasize\n      dup3\n      mstore\n      returndatasize\n      0x00\n      0x20\n      dup5\n      add\n      returndatacopy\n      jump(tag_610)\n    tag_611:\n      0x60\n      swap2\n      pop\n    tag_610:\n      pop\n        /* \"@thirdweb-dev/contracts/eip/ERC721AVirtualApprove.sol\":19428:19434   */\n      dup1\n        /* \"@thirdweb-dev/contracts/eip/ERC721AVirtualApprove.sol\":19428:19441   */\n      mload\n        /* \"@thirdweb-dev/contracts/eip/ERC721AVirtualApprove.sol\":19445:19446   */\n      0x00\n        /* \"@thirdweb-dev/contracts/eip/ERC721AVirtualApprove.sol\":19428:19446   */\n      sub\n        /* \"@thirdweb-dev/contracts/eip/ERC721AVirtualApprove.sol\":19424:19653   */\n      tag_612\n      jumpi\n        /* \"@thirdweb-dev/contracts/eip/ERC721AVirtualApprove.sol\":19473:19513   */\n      mload(0x40)\n      shl(0xe1, 0x68d2bf6b)\n      dup2\n      mstore\n      0x04\n      add\n      mload(0x40)\n      dup1\n      swap2\n      sub\n      swap1\n      revert\n        /* \"@thirdweb-dev/contracts/eip/ERC721AVirtualApprove.sol\":19424:19653   */\n    tag_612:\n        /* \"@thirdweb-dev/contracts/eip/ERC721AVirtualApprove.sol\":19613:19619   */\n      dup1\n        /* \"@thirdweb-dev/contracts/eip/ERC721AVirtualApprove.sol\":19607:19620   */\n      mload\n        /* \"@thirdweb-dev/contracts/eip/ERC721AVirtualApprove.sol\":19598:19604   */\n      dup2\n        /* \"@thirdweb-dev/contracts/eip/ERC721AVirtualApprove.sol\":19594:19596   */\n      0x20\n        /* \"@thirdweb-dev/contracts/eip/ERC721AVirtualApprove.sol\":19590:19605   */\n      add\n        /* \"@thirdweb-dev/contracts/eip/ERC721AVirtualApprove.sol\":19583:19621   */\n      revert\n        /* \"@thirdweb-dev/contracts/eip/ERC721AVirtualApprove.sol\":19193:19663   */\n    tag_606:\n      not(sub(shl(0xe0, 0x01), 0x01))\n        /* \"@thirdweb-dev/contracts/eip/ERC721AVirtualApprove.sol\":19315:19370   */\n      and\n      shl(0xe1, 0x0a85bd01)\n      eq\n      swap1\n      pop\n        /* \"@thirdweb-dev/contracts/eip/ERC721AVirtualApprove.sol\":19019:19669   */\n      swap5\n      swap4\n      pop\n      pop\n      pop\n      pop\n      jump\t// out\n        /* \"@thirdweb-dev/contracts/extension/BatchMintMetadata.sol\":3185:3591   */\n    tag_454:\n        /* \"@thirdweb-dev/contracts/extension/BatchMintMetadata.sol\":3247:3260   */\n      0x60\n        /* \"@thirdweb-dev/contracts/extension/BatchMintMetadata.sol\":3272:3297   */\n      0x00\n        /* \"@thirdweb-dev/contracts/extension/BatchMintMetadata.sol\":3300:3317   */\n      tag_616\n        /* \"@thirdweb-dev/contracts/extension/BatchMintMetadata.sol\":2035:2043   */\n      0x0c\n        /* \"@thirdweb-dev/contracts/extension/BatchMintMetadata.sol\":2035:2050   */\n      sload\n      swap1\n        /* \"@thirdweb-dev/contracts/extension/BatchMintMetadata.sol\":1961:2057   */\n      jump\n        /* \"@thirdweb-dev/contracts/extension/BatchMintMetadata.sol\":3300:3317   */\n    tag_616:\n        /* \"@thirdweb-dev/contracts/extension/BatchMintMetadata.sol\":3272:3317   */\n      swap1\n      pop\n        /* \"@thirdweb-dev/contracts/extension/BatchMintMetadata.sol\":3327:3351   */\n      0x00\n        /* \"@thirdweb-dev/contracts/extension/BatchMintMetadata.sol\":3354:3362   */\n      0x0c\n        /* \"@thirdweb-dev/contracts/extension/BatchMintMetadata.sol\":3327:3362   */\n      dup1\n      sload\n      dup1\n      0x20\n      mul\n      0x20\n      add\n      mload(0x40)\n      swap1\n      dup2\n      add\n      0x40\n      mstore\n      dup1\n      swap3\n      swap2\n      swap1\n      dup2\n      dup2\n      mstore\n      0x20\n      add\n      dup3\n      dup1\n      sload\n      dup1\n      iszero\n      tag_617\n      jumpi\n      0x20\n      mul\n      dup3\n      add\n      swap2\n      swap1\n      0x00\n      mstore\n      keccak256(0x00, 0x20)\n      swap1\n    tag_618:\n      dup2\n      sload\n      dup2\n      mstore\n      0x20\n      add\n      swap1\n      0x01\n      add\n      swap1\n      dup1\n      dup4\n      gt\n      tag_618\n      jumpi\n    tag_617:\n      pop\n      pop\n      pop\n      pop\n      pop\n      swap1\n      pop\n        /* \"@thirdweb-dev/contracts/extension/BatchMintMetadata.sol\":3378:3387   */\n      0x00\n        /* \"@thirdweb-dev/contracts/extension/BatchMintMetadata.sol\":3373:3534   */\n    tag_619:\n        /* \"@thirdweb-dev/contracts/extension/BatchMintMetadata.sol\":3397:3414   */\n      dup3\n        /* \"@thirdweb-dev/contracts/extension/BatchMintMetadata.sol\":3393:3394   */\n      dup2\n        /* \"@thirdweb-dev/contracts/extension/BatchMintMetadata.sol\":3393:3414   */\n      lt\n        /* \"@thirdweb-dev/contracts/extension/BatchMintMetadata.sol\":3373:3534   */\n      iszero\n      tag_620\n      jumpi\n        /* \"@thirdweb-dev/contracts/extension/BatchMintMetadata.sol\":3453:3460   */\n      dup2\n        /* \"@thirdweb-dev/contracts/extension/BatchMintMetadata.sol\":3461:3462   */\n      dup2\n        /* \"@thirdweb-dev/contracts/extension/BatchMintMetadata.sol\":3453:3463   */\n      dup2\n      mload\n      dup2\n      lt\n      tag_623\n      jumpi\n      tag_623\n      tag_276\n      jump\t// in\n    tag_623:\n      0x20\n      mul\n      0x20\n      add\n      add\n      mload\n        /* \"@thirdweb-dev/contracts/extension/BatchMintMetadata.sol\":3442:3450   */\n      dup6\n        /* \"@thirdweb-dev/contracts/extension/BatchMintMetadata.sol\":3442:3463   */\n      lt\n        /* \"@thirdweb-dev/contracts/extension/BatchMintMetadata.sol\":3438:3524   */\n      iszero\n      tag_624\n      jumpi\n        /* \"@thirdweb-dev/contracts/extension/BatchMintMetadata.sol\":3490:3497   */\n      0x0d\n        /* \"@thirdweb-dev/contracts/extension/BatchMintMetadata.sol\":3490:3509   */\n      0x00\n        /* \"@thirdweb-dev/contracts/extension/BatchMintMetadata.sol\":3498:3505   */\n      dup4\n        /* \"@thirdweb-dev/contracts/extension/BatchMintMetadata.sol\":3506:3507   */\n      dup4\n        /* \"@thirdweb-dev/contracts/extension/BatchMintMetadata.sol\":3498:3508   */\n      dup2\n      mload\n      dup2\n      lt\n      tag_626\n      jumpi\n      tag_626\n      tag_276\n      jump\t// in\n    tag_626:\n      0x20\n      mul\n      0x20\n      add\n      add\n      mload\n        /* \"@thirdweb-dev/contracts/extension/BatchMintMetadata.sol\":3490:3509   */\n      dup2\n      mstore\n      0x20\n      add\n      swap1\n      dup2\n      mstore\n      0x20\n      add\n      0x00\n      keccak256\n        /* \"@thirdweb-dev/contracts/extension/BatchMintMetadata.sol\":3483:3509   */\n      dup1\n      sload\n      tag_627\n      swap1\n      tag_239\n      jump\t// in\n    tag_627:\n      dup1\n      0x1f\n      add\n      0x20\n      dup1\n      swap2\n      div\n      mul\n      0x20\n      add\n      mload(0x40)\n      swap1\n      dup2\n      add\n      0x40\n      mstore\n      dup1\n      swap3\n      swap2\n      swap1\n      dup2\n      dup2\n      mstore\n      0x20\n      add\n      dup3\n      dup1\n      sload\n      tag_628\n      swap1\n      tag_239\n      jump\t// in\n    tag_628:\n      dup1\n      iszero\n      tag_629\n      jumpi\n      dup1\n      0x1f\n      lt\n      tag_630\n      jumpi\n      0x0100\n      dup1\n      dup4\n      sload\n      div\n      mul\n      dup4\n      mstore\n      swap2\n      0x20\n      add\n      swap2\n      jump(tag_629)\n    tag_630:\n      dup3\n      add\n      swap2\n      swap1\n      0x00\n      mstore\n      keccak256(0x00, 0x20)\n      swap1\n    tag_631:\n      dup2\n      sload\n      dup2\n      mstore\n      swap1\n      0x01\n      add\n      swap1\n      0x20\n      add\n      dup1\n      dup4\n      gt\n      tag_631\n      jumpi\n      dup3\n      swap1\n      sub\n      0x1f\n      and\n      dup3\n      add\n      swap2\n    tag_629:\n      pop\n      pop\n      pop\n      pop\n      pop\n      swap4\n      pop\n      pop\n      pop\n      pop\n        /* \"@thirdweb-dev/contracts/extension/BatchMintMetadata.sol\":3185:3591   */\n      swap2\n      swap1\n      pop\n      jump\t// out\n        /* \"@thirdweb-dev/contracts/extension/BatchMintMetadata.sol\":3438:3524   */\n    tag_624:\n        /* \"@thirdweb-dev/contracts/extension/BatchMintMetadata.sol\":3416:3422   */\n      tag_632\n        /* \"@thirdweb-dev/contracts/extension/BatchMintMetadata.sol\":3421:3422   */\n      0x01\n        /* \"@thirdweb-dev/contracts/extension/BatchMintMetadata.sol\":3416:3422   */\n      dup3\n      tag_576\n      jump\t// in\n    tag_632:\n      swap1\n      pop\n        /* \"@thirdweb-dev/contracts/extension/BatchMintMetadata.sol\":3373:3534   */\n      jump(tag_619)\n    tag_620:\n      pop\n        /* \"@thirdweb-dev/contracts/extension/BatchMintMetadata.sol\":3551:3584   */\n      mload(0x40)\n      shl(0xe2, 0x09797f69)\n      dup2\n      mstore\n      0x04\n      dup2\n      add\n        /* \"#utility.yul\":4366:4391   */\n      dup6\n      swap1\n      mstore\n        /* \"#utility.yul\":4339:4357   */\n      0x24\n      add\n        /* \"@thirdweb-dev/contracts/extension/BatchMintMetadata.sol\":3551:3584   */\n      tag_226\n        /* \"#utility.yul\":4220:4397   */\n      jump\n        /* \"@thirdweb-dev/contracts/lib/Strings.sol\":303:1006   */\n    tag_456:\n        /* \"@thirdweb-dev/contracts/lib/Strings.sol\":359:372   */\n      0x60\n        /* \"@thirdweb-dev/contracts/lib/Strings.sol\":576:581   */\n      dup2\n        /* \"@thirdweb-dev/contracts/lib/Strings.sol\":585:586   */\n      0x00\n        /* \"@thirdweb-dev/contracts/lib/Strings.sol\":576:586   */\n      sub\n        /* \"@thirdweb-dev/contracts/lib/Strings.sol\":572:623   */\n      tag_635\n      jumpi\n      pop\n      pop\n        /* \"@thirdweb-dev/contracts/lib/Strings.sol\":602:612   */\n      0x40\n      dup1\n      mload\n      dup1\n      dup3\n      add\n      swap1\n      swap2\n      mstore\n      0x01\n      dup2\n      mstore\n      shl(0xfc, 0x03)\n      0x20\n      dup3\n      add\n      mstore\n      swap1\n        /* \"@thirdweb-dev/contracts/lib/Strings.sol\":303:1006   */\n      jump\t// out\n        /* \"@thirdweb-dev/contracts/lib/Strings.sol\":572:623   */\n    tag_635:\n        /* \"@thirdweb-dev/contracts/lib/Strings.sol\":647:652   */\n      dup2\n        /* \"@thirdweb-dev/contracts/lib/Strings.sol\":632:644   */\n      0x00\n        /* \"@thirdweb-dev/contracts/lib/Strings.sol\":686:761   */\n    tag_636:\n        /* \"@thirdweb-dev/contracts/lib/Strings.sol\":693:702   */\n      dup2\n      iszero\n        /* \"@thirdweb-dev/contracts/lib/Strings.sol\":686:761   */\n      tag_637\n      jumpi\n        /* \"@thirdweb-dev/contracts/lib/Strings.sol\":718:726   */\n      dup1\n      tag_638\n      dup2\n      tag_639\n      jump\t// in\n    tag_638:\n      swap2\n      pop\n        /* \"@thirdweb-dev/contracts/lib/Strings.sol\":740:750   */\n      tag_640\n      swap1\n      pop\n        /* \"@thirdweb-dev/contracts/lib/Strings.sol\":748:750   */\n      0x0a\n        /* \"@thirdweb-dev/contracts/lib/Strings.sol\":740:750   */\n      dup4\n      tag_283\n      jump\t// in\n    tag_640:\n      swap2\n      pop\n        /* \"@thirdweb-dev/contracts/lib/Strings.sol\":686:761   */\n      jump(tag_636)\n    tag_637:\n        /* \"@thirdweb-dev/contracts/lib/Strings.sol\":770:789   */\n      0x00\n        /* \"@thirdweb-dev/contracts/lib/Strings.sol\":802:808   */\n      dup2\n        /* \"@thirdweb-dev/contracts/lib/Strings.sol\":792:809   */\n      0xffffffffffffffff\n      dup2\n      gt\n      iszero\n      tag_642\n      jumpi\n      tag_642\n      tag_302\n      jump\t// in\n    tag_642:\n      mload(0x40)\n      swap1\n      dup1\n      dup3\n      mstore\n      dup1\n      0x1f\n      add\n      not(0x1f)\n      and\n      0x20\n      add\n      dup3\n      add\n      0x40\n      mstore\n      dup1\n      iszero\n      tag_643\n      jumpi\n      0x20\n      dup3\n      add\n      dup2\n      dup1\n      calldatasize\n      dup4\n      calldatacopy\n      add\n      swap1\n      pop\n    tag_643:\n      pop\n        /* \"@thirdweb-dev/contracts/lib/Strings.sol\":770:809   */\n      swap1\n      pop\n        /* \"@thirdweb-dev/contracts/lib/Strings.sol\":819:969   */\n    tag_644:\n        /* \"@thirdweb-dev/contracts/lib/Strings.sol\":826:836   */\n      dup5\n      iszero\n        /* \"@thirdweb-dev/contracts/lib/Strings.sol\":819:969   */\n      tag_294\n      jumpi\n        /* \"@thirdweb-dev/contracts/lib/Strings.sol\":852:863   */\n      tag_646\n        /* \"@thirdweb-dev/contracts/lib/Strings.sol\":862:863   */\n      0x01\n        /* \"@thirdweb-dev/contracts/lib/Strings.sol\":852:863   */\n      dup4\n      tag_647\n      jump\t// in\n    tag_646:\n      swap2\n      pop\n        /* \"@thirdweb-dev/contracts/lib/Strings.sol\":920:930   */\n      tag_648\n        /* \"@thirdweb-dev/contracts/lib/Strings.sol\":928:930   */\n      0x0a\n        /* \"@thirdweb-dev/contracts/lib/Strings.sol\":920:925   */\n      dup7\n        /* \"@thirdweb-dev/contracts/lib/Strings.sol\":920:930   */\n      tag_649\n      jump\t// in\n    tag_648:\n        /* \"@thirdweb-dev/contracts/lib/Strings.sol\":907:931   */\n      tag_650\n      swap1\n        /* \"@thirdweb-dev/contracts/lib/Strings.sol\":907:909   */\n      0x30\n        /* \"@thirdweb-dev/contracts/lib/Strings.sol\":907:931   */\n      tag_576\n      jump\t// in\n    tag_650:\n        /* \"@thirdweb-dev/contracts/lib/Strings.sol\":894:933   */\n      0xf8\n      shl\n        /* \"@thirdweb-dev/contracts/lib/Strings.sol\":877:883   */\n      dup2\n        /* \"@thirdweb-dev/contracts/lib/Strings.sol\":884:890   */\n      dup4\n        /* \"@thirdweb-dev/contracts/lib/Strings.sol\":877:891   */\n      dup2\n      mload\n      dup2\n      lt\n      tag_652\n      jumpi\n      tag_652\n      tag_276\n      jump\t// in\n    tag_652:\n      0x20\n      add\n      add\n        /* \"@thirdweb-dev/contracts/lib/Strings.sol\":877:933   */\n      swap1\n      not(0xffffffffffffffffffffffffffffffffffffffffffffffffffffffffffffff)\n      and\n      swap1\n      dup2\n      0x00\n      byte\n      swap1\n      mstore8\n      pop\n        /* \"@thirdweb-dev/contracts/lib/Strings.sol\":947:958   */\n      tag_653\n        /* \"@thirdweb-dev/contracts/lib/Strings.sol\":956:958   */\n      0x0a\n        /* \"@thirdweb-dev/contracts/lib/Strings.sol\":947:958   */\n      dup7\n      tag_283\n      jump\t// in\n    tag_653:\n      swap5\n      pop\n        /* \"@thirdweb-dev/contracts/lib/Strings.sol\":819:969   */\n      jump(tag_644)\n        /* \"SertifikatDigital.sol\":2223:2592  function _beforeTokenTransfers(address from, address to, uint256 startTokenId, uint256 quantity)... */\n    tag_496:\n      sub(shl(0xa0, 0x01), 0x01)\n        /* \"SertifikatDigital.sol\":2443:2461  from != address(0) */\n      dup5\n      and\n      iszero\n      dup1\n      iszero\n      swap1\n        /* \"SertifikatDigital.sol\":2443:2481  from != address(0) && to != address(0) */\n      tag_657\n      jumpi\n      pop\n      sub(shl(0xa0, 0x01), 0x01)\n        /* \"SertifikatDigital.sol\":2465:2481  to != address(0) */\n      dup4\n      and\n      iszero\n      iszero\n        /* \"SertifikatDigital.sol\":2443:2481  from != address(0) && to != address(0) */\n    tag_657:\n        /* \"SertifikatDigital.sol\":2439:2586  if (from != address(0) && to != address(0)) {... */\n      iszero\n      tag_334\n      jumpi\n        /* \"SertifikatDigital.sol\":2497:2575  revert(\"Sertifikat ini adalah Kredensial Soulbound dan tidak bisa ditransfer\") */\n      mload(0x40)\n      shl(0xe5, 0x461bcd)\n      dup2\n      mstore\n        /* \"#utility.yul\":23354:23356   */\n      0x20\n        /* \"SertifikatDigital.sol\":2497:2575  revert(\"Sertifikat ini adalah Kredensial Soulbound dan tidak bisa ditransfer\") */\n      0x04\n      dup3\n      add\n        /* \"#utility.yul\":23336:23357   */\n      mstore\n        /* \"#utility.yul\":23393:23395   */\n      0x44\n        /* \"#utility.yul\":23373:23391   */\n      0x24\n      dup3\n      add\n        /* \"#utility.yul\":23366:23396   */\n      dup2\n      swap1\n      mstore\n        /* \"#utility.yul\":23432:23466   */\n      0x536572746966696b617420696e69206164616c6168204b726564656e7369616c\n        /* \"#utility.yul\":23412:23430   */\n      swap1\n      dup3\n      add\n        /* \"#utility.yul\":23405:23467   */\n      mstore\n        /* \"#utility.yul\":23503:23537   */\n      0x20536f756c626f756e642064616e20746964616b20626973612064697472616e\n        /* \"#utility.yul\":23483:23501   */\n      0x64\n      dup3\n      add\n        /* \"#utility.yul\":23476:23538   */\n      mstore\n      shl(0xe1, 0x39b332b9)\n        /* \"#utility.yul\":23554:23573   */\n      0x84\n      dup3\n      add\n        /* \"#utility.yul\":23547:23582   */\n      mstore\n        /* \"#utility.yul\":23599:23618   */\n      0xa4\n      add\n        /* \"SertifikatDigital.sol\":2497:2575  revert(\"Sertifikat ini adalah Kredensial Soulbound dan tidak bisa ditransfer\") */\n      tag_226\n        /* \"#utility.yul\":23152:23624   */\n      jump\n        /* \"@thirdweb-dev/contracts/eip/ERC721AVirtualApprove.sol\":18379:18538   */\n    tag_537:\n        /* \"@thirdweb-dev/contracts/eip/ERC721AVirtualApprove.sol\":18459:18483   */\n      0x00\n      dup3\n      dup2\n      mstore\n        /* \"@thirdweb-dev/contracts/eip/ERC721AVirtualApprove.sol\":18459:18474   */\n      0x06\n        /* \"@thirdweb-dev/contracts/eip/ERC721AVirtualApprove.sol\":18459:18483   */\n      0x20\n      mstore\n      0x40\n      dup1\n      dup3\n      keccak256\n        /* \"@thirdweb-dev/contracts/eip/ERC721AVirtualApprove.sol\":18459:18488   */\n      dup1\n      sload\n      not(0xffffffffffffffffffffffffffffffffffffffff)\n      and\n      sub(shl(0xa0, 0x01), 0x01)\n      dup8\n      dup2\n      and\n      swap2\n      dup3\n      or\n      swap1\n      swap3\n      sstore\n        /* \"@thirdweb-dev/contracts/eip/ERC721AVirtualApprove.sol\":18503:18531   */\n      swap2\n      mload\n        /* \"@thirdweb-dev/contracts/eip/ERC721AVirtualApprove.sol\":18459:18483   */\n      dup6\n      swap4\n        /* \"@thirdweb-dev/contracts/eip/ERC721AVirtualApprove.sol\":18503:18531   */\n      swap2\n      dup6\n      and\n      swap2\n      0x8c5be1e5ebec7d5bd14f71427d1e84f3dd0314c0f7b2291e5b200ac8c7c3b925\n      swap2\n      log4\n        /* \"@thirdweb-dev/contracts/eip/ERC721AVirtualApprove.sol\":18379:18538   */\n      pop\n      pop\n      pop\n      jump\t// out\n        /* \"@thirdweb-dev/contracts/lib/Address.sol\":7055:7380   */\n    tag_597:\n        /* \"@thirdweb-dev/contracts/lib/Address.sol\":7196:7208   */\n      0x60\n        /* \"@thirdweb-dev/contracts/lib/Address.sol\":7221:7233   */\n      0x00\n        /* \"@thirdweb-dev/contracts/lib/Address.sol\":7235:7258   */\n      dup1\n        /* \"@thirdweb-dev/contracts/lib/Address.sol\":7262:7268   */\n      dup6\n      sub(shl(0xa0, 0x01), 0x01)\n        /* \"@thirdweb-dev/contracts/lib/Address.sol\":7262:7281   */\n      and\n        /* \"@thirdweb-dev/contracts/lib/Address.sol\":7282:7286   */\n      dup6\n        /* \"@thirdweb-dev/contracts/lib/Address.sol\":7262:7287   */\n      mload(0x40)\n      tag_664\n      swap2\n      swap1\n      tag_665\n      jump\t// in\n    tag_664:\n      0x00\n      mload(0x40)\n      dup1\n      dup4\n      sub\n      dup2\n      dup6\n      gas\n      delegatecall\n      swap2\n      pop\n      pop\n      returndatasize\n      dup1\n      0x00\n      dup2\n      eq\n      tag_668\n      jumpi\n      mload(0x40)\n      swap2\n      pop\n      and(add(returndatasize, 0x3f), not(0x1f))\n      dup3\n      add\n      0x40\n      mstore\n      returndatasize\n      dup3\n      mstore\n      returndatasize\n      0x00\n      0x20\n      dup5\n      add\n      returndatacopy\n      jump(tag_667)\n    tag_668:\n      0x60\n      swap2\n      pop\n    tag_667:\n      pop\n        /* \"@thirdweb-dev/contracts/lib/Address.sol\":7220:7287   */\n      swap2\n      pop\n      swap2\n      pop\n        /* \"@thirdweb-dev/contracts/lib/Address.sol\":7304:7373   */\n      tag_669\n        /* \"@thirdweb-dev/contracts/lib/Address.sol\":7331:7337   */\n      dup7\n        /* \"@thirdweb-dev/contracts/lib/Address.sol\":7339:7346   */\n      dup4\n        /* \"@thirdweb-dev/contracts/lib/Address.sol\":7348:7358   */\n      dup4\n        /* \"@thirdweb-dev/contracts/lib/Address.sol\":7360:7372   */\n      dup8\n        /* \"@thirdweb-dev/contracts/lib/Address.sol\":7304:7330   */\n      tag_670\n        /* \"@thirdweb-dev/contracts/lib/Address.sol\":7304:7373   */\n      jump\t// in\n    tag_669:\n        /* \"@thirdweb-dev/contracts/lib/Address.sol\":7297:7373   */\n      swap7\n        /* \"@thirdweb-dev/contracts/lib/Address.sol\":7055:7380   */\n      swap6\n      pop\n      pop\n      pop\n      pop\n      pop\n      pop\n      jump\t// out\n        /* \"@thirdweb-dev/contracts/lib/Address.sol\":7668:8296   */\n    tag_670:\n        /* \"@thirdweb-dev/contracts/lib/Address.sol\":7848:7860   */\n      0x60\n        /* \"@thirdweb-dev/contracts/lib/Address.sol\":7876:7883   */\n      dup4\n        /* \"@thirdweb-dev/contracts/lib/Address.sol\":7872:8290   */\n      iszero\n      tag_673\n      jumpi\n        /* \"@thirdweb-dev/contracts/lib/Address.sol\":7903:7913   */\n      dup3\n        /* \"@thirdweb-dev/contracts/lib/Address.sol\":7903:7920   */\n      mload\n        /* \"@thirdweb-dev/contracts/lib/Address.sol\":7924:7925   */\n      0x00\n        /* \"@thirdweb-dev/contracts/lib/Address.sol\":7903:7925   */\n      sub\n        /* \"@thirdweb-dev/contracts/lib/Address.sol\":7899:8185   */\n      tag_676\n      jumpi\n      sub(shl(0xa0, 0x01), 0x01)\n        /* \"@thirdweb-dev/contracts/lib/Address.sol\":1695:1714   */\n      dup6\n      and\n      extcodesize\n        /* \"@thirdweb-dev/contracts/lib/Address.sol\":8110:8170   */\n      tag_676\n      jumpi\n      mload(0x40)\n      shl(0xe5, 0x461bcd)\n      dup2\n      mstore\n        /* \"#utility.yul\":24026:24028   */\n      0x20\n        /* \"@thirdweb-dev/contracts/lib/Address.sol\":8110:8170   */\n      0x04\n      dup3\n      add\n        /* \"#utility.yul\":24008:24029   */\n      mstore\n        /* \"#utility.yul\":24065:24067   */\n      0x1d\n        /* \"#utility.yul\":24045:24063   */\n      0x24\n      dup3\n      add\n        /* \"#utility.yul\":24038:24068   */\n      mstore\n        /* \"#utility.yul\":24104:24135   */\n      0x416464726573733a2063616c6c20746f206e6f6e2d636f6e7472616374000000\n        /* \"#utility.yul\":24084:24102   */\n      0x44\n      dup3\n      add\n        /* \"#utility.yul\":24077:24136   */\n      mstore\n        /* \"#utility.yul\":24153:24171   */\n      0x64\n      add\n        /* \"@thirdweb-dev/contracts/lib/Address.sol\":8110:8170   */\n      tag_226\n        /* \"#utility.yul\":23824:24177   */\n      jump\n        /* \"@thirdweb-dev/contracts/lib/Address.sol\":8110:8170   */\n    tag_676:\n      pop\n        /* \"@thirdweb-dev/contracts/lib/Address.sol\":8205:8215   */\n      dup2\n        /* \"@thirdweb-dev/contracts/lib/Address.sol\":8198:8215   */\n      jump(tag_294)\n        /* \"@thirdweb-dev/contracts/lib/Address.sol\":7872:8290   */\n    tag_673:\n        /* \"@thirdweb-dev/contracts/lib/Address.sol\":8246:8279   */\n      tag_294\n        /* \"@thirdweb-dev/contracts/lib/Address.sol\":8254:8264   */\n      dup4\n        /* \"@thirdweb-dev/contracts/lib/Address.sol\":8266:8278   */\n      dup4\n        /* \"@thirdweb-dev/contracts/lib/Address.sol\":8977:8994   */\n      dup2\n      mload\n        /* \"@thirdweb-dev/contracts/lib/Address.sol\":8977:8998   */\n      iszero\n        /* \"@thirdweb-dev/contracts/lib/Address.sol\":8973:9352   */\n      tag_683\n      jumpi\n        /* \"@thirdweb-dev/contracts/lib/Address.sol\":9205:9215   */\n      dup2\n        /* \"@thirdweb-dev/contracts/lib/Address.sol\":9199:9216   */\n      mload\n        /* \"@thirdweb-dev/contracts/lib/Address.sol\":9261:9276   */\n      dup1\n        /* \"@thirdweb-dev/contracts/lib/Address.sol\":9248:9258   */\n      dup4\n        /* \"@thirdweb-dev/contracts/lib/Address.sol\":9244:9246   */\n      0x20\n        /* \"@thirdweb-dev/contracts/lib/Address.sol\":9240:9259   */\n      add\n        /* \"@thirdweb-dev/contracts/lib/Address.sol\":9233:9277   */\n      revert\n        /* \"@thirdweb-dev/contracts/lib/Address.sol\":8973:9352   */\n    tag_683:\n        /* \"@thirdweb-dev/contracts/lib/Address.sol\":9328:9340   */\n      dup1\n        /* \"@thirdweb-dev/contracts/lib/Address.sol\":9321:9341   */\n      mload(0x40)\n      shl(0xe5, 0x461bcd)\n      dup2\n      mstore\n      0x04\n      add\n      tag_226\n      swap2\n      swap1\n      tag_71\n      jump\t// in\n        /* \"#utility.yul\":14:210   */\n    tag_686:\n        /* \"#utility.yul\":82:102   */\n      dup1\n      calldataload\n      sub(shl(0xa0, 0x01), 0x01)\n        /* \"#utility.yul\":131:185   */\n      dup2\n      and\n        /* \"#utility.yul\":121:186   */\n      dup2\n      eq\n        /* \"#utility.yul\":111:204   */\n      tag_701\n      jumpi\n        /* \"#utility.yul\":200:201   */\n      0x00\n        /* \"#utility.yul\":197:198   */\n      dup1\n        /* \"#utility.yul\":190:202   */\n      revert\n        /* \"#utility.yul\":111:204   */\n    tag_701:\n        /* \"#utility.yul\":14:210   */\n      swap2\n      swap1\n      pop\n      jump\t// out\n        /* \"#utility.yul\":215:342   */\n    tag_302:\n        /* \"#utility.yul\":276:286   */\n      0x4e487b71\n        /* \"#utility.yul\":271:274   */\n      0xe0\n        /* \"#utility.yul\":267:287   */\n      shl\n        /* \"#utility.yul\":264:265   */\n      0x00\n        /* \"#utility.yul\":257:288   */\n      mstore\n        /* \"#utility.yul\":307:311   */\n      0x41\n        /* \"#utility.yul\":304:305   */\n      0x04\n        /* \"#utility.yul\":297:312   */\n      mstore\n        /* \"#utility.yul\":331:335   */\n      0x24\n        /* \"#utility.yul\":328:329   */\n      0x00\n        /* \"#utility.yul\":321:336   */\n      revert\n        /* \"#utility.yul\":347:622   */\n    tag_687:\n        /* \"#utility.yul\":418:420   */\n      0x40\n        /* \"#utility.yul\":412:421   */\n      mload\n        /* \"#utility.yul\":483:485   */\n      0x1f\n        /* \"#utility.yul\":464:477   */\n      dup3\n      add\n      not(0x1f)\n        /* \"#utility.yul\":460:487   */\n      and\n        /* \"#utility.yul\":448:488   */\n      dup2\n      add\n        /* \"#utility.yul\":518:536   */\n      0xffffffffffffffff\n        /* \"#utility.yul\":503:537   */\n      dup2\n      gt\n        /* \"#utility.yul\":539:561   */\n      dup3\n      dup3\n      lt\n        /* \"#utility.yul\":500:562   */\n      or\n        /* \"#utility.yul\":497:585   */\n      iszero\n      tag_705\n      jumpi\n        /* \"#utility.yul\":565:583   */\n      tag_705\n      tag_302\n      jump\t// in\n    tag_705:\n        /* \"#utility.yul\":601:603   */\n      0x40\n        /* \"#utility.yul\":594:616   */\n      mstore\n        /* \"#utility.yul\":347:622   */\n      swap2\n      swap1\n      pop\n      jump\t// out\n        /* \"#utility.yul\":627:1158   */\n    tag_688:\n        /* \"#utility.yul\":670:675   */\n      0x00\n        /* \"#utility.yul\":723:726   */\n      dup3\n        /* \"#utility.yul\":716:720   */\n      0x1f\n        /* \"#utility.yul\":708:714   */\n      dup4\n        /* \"#utility.yul\":704:721   */\n      add\n        /* \"#utility.yul\":700:727   */\n      slt\n        /* \"#utility.yul\":690:745   */\n      tag_707\n      jumpi\n        /* \"#utility.yul\":741:742   */\n      0x00\n        /* \"#utility.yul\":738:739   */\n      dup1\n        /* \"#utility.yul\":731:743   */\n      revert\n        /* \"#utility.yul\":690:745   */\n    tag_707:\n        /* \"#utility.yul\":777:783   */\n      dup2\n        /* \"#utility.yul\":764:784   */\n      calldataload\n        /* \"#utility.yul\":803:821   */\n      0xffffffffffffffff\n        /* \"#utility.yul\":799:801   */\n      dup2\n        /* \"#utility.yul\":796:822   */\n      gt\n        /* \"#utility.yul\":793:845   */\n      iszero\n      tag_709\n      jumpi\n        /* \"#utility.yul\":825:843   */\n      tag_709\n      tag_302\n      jump\t// in\n    tag_709:\n        /* \"#utility.yul\":869:924   */\n      tag_710\n        /* \"#utility.yul\":912:914   */\n      0x1f\n        /* \"#utility.yul\":893:906   */\n      dup3\n      add\n      not(0x1f)\n        /* \"#utility.yul\":889:916   */\n      and\n        /* \"#utility.yul\":918:922   */\n      0x20\n        /* \"#utility.yul\":885:923   */\n      add\n        /* \"#utility.yul\":869:924   */\n      tag_687\n      jump\t// in\n    tag_710:\n        /* \"#utility.yul\":949:951   */\n      dup2\n        /* \"#utility.yul\":940:947   */\n      dup2\n        /* \"#utility.yul\":933:952   */\n      mstore\n        /* \"#utility.yul\":995:998   */\n      dup5\n        /* \"#utility.yul\":988:992   */\n      0x20\n        /* \"#utility.yul\":983:985   */\n      dup4\n        /* \"#utility.yul\":975:981   */\n      dup7\n        /* \"#utility.yul\":971:986   */\n      add\n        /* \"#utility.yul\":967:993   */\n      add\n        /* \"#utility.yul\":964:999   */\n      gt\n        /* \"#utility.yul\":961:1016   */\n      iszero\n      tag_711\n      jumpi\n        /* \"#utility.yul\":1012:1013   */\n      0x00\n        /* \"#utility.yul\":1009:1010   */\n      dup1\n        /* \"#utility.yul\":1002:1014   */\n      revert\n        /* \"#utility.yul\":961:1016   */\n    tag_711:\n        /* \"#utility.yul\":1077:1079   */\n      dup2\n        /* \"#utility.yul\":1070:1074   */\n      0x20\n        /* \"#utility.yul\":1062:1068   */\n      dup6\n        /* \"#utility.yul\":1058:1075   */\n      add\n        /* \"#utility.yul\":1051:1055   */\n      0x20\n        /* \"#utility.yul\":1042:1049   */\n      dup4\n        /* \"#utility.yul\":1038:1056   */\n      add\n        /* \"#utility.yul\":1025:1080   */\n      calldatacopy\n        /* \"#utility.yul\":1125:1126   */\n      0x00\n        /* \"#utility.yul\":1100:1116   */\n      swap2\n      dup2\n      add\n        /* \"#utility.yul\":1118:1122   */\n      0x20\n        /* \"#utility.yul\":1096:1123   */\n      add\n        /* \"#utility.yul\":1089:1127   */\n      swap2\n      swap1\n      swap2\n      mstore\n        /* \"#utility.yul\":1104:1111   */\n      swap4\n        /* \"#utility.yul\":627:1158   */\n      swap3\n      pop\n      pop\n      pop\n      jump\t// out\n        /* \"#utility.yul\":1163:1559   */\n    tag_60:\n        /* \"#utility.yul\":1241:1247   */\n      0x00\n        /* \"#utility.yul\":1249:1255   */\n      dup1\n        /* \"#utility.yul\":1302:1304   */\n      0x40\n        /* \"#utility.yul\":1290:1299   */\n      dup4\n        /* \"#utility.yul\":1281:1288   */\n      dup6\n        /* \"#utility.yul\":1277:1300   */\n      sub\n        /* \"#utility.yul\":1273:1305   */\n      slt\n        /* \"#utility.yul\":1270:1322   */\n      iszero\n      tag_713\n      jumpi\n        /* \"#utility.yul\":1318:1319   */\n      0x00\n        /* \"#utility.yul\":1315:1316   */\n      dup1\n        /* \"#utility.yul\":1308:1320   */\n      revert\n        /* \"#utility.yul\":1270:1322   */\n    tag_713:\n        /* \"#utility.yul\":1341:1370   */\n      tag_714\n        /* \"#utility.yul\":1360:1369   */\n      dup4\n        /* \"#utility.yul\":1341:1370   */\n      tag_686\n      jump\t// in\n    tag_714:\n        /* \"#utility.yul\":1331:1370   */\n      swap2\n      pop\n        /* \"#utility.yul\":1421:1423   */\n      0x20\n        /* \"#utility.yul\":1410:1419   */\n      dup4\n        /* \"#utility.yul\":1406:1424   */\n      add\n        /* \"#utility.yul\":1393:1425   */\n      calldataload\n        /* \"#utility.yul\":1448:1466   */\n      0xffffffffffffffff\n        /* \"#utility.yul\":1440:1446   */\n      dup2\n        /* \"#utility.yul\":1437:1467   */\n      gt\n        /* \"#utility.yul\":1434:1484   */\n      iszero\n      tag_715\n      jumpi\n        /* \"#utility.yul\":1480:1481   */\n      0x00\n        /* \"#utility.yul\":1477:1478   */\n      dup1\n        /* \"#utility.yul\":1470:1482   */\n      revert\n        /* \"#utility.yul\":1434:1484   */\n    tag_715:\n        /* \"#utility.yul\":1503:1553   */\n      tag_716\n        /* \"#utility.yul\":1545:1552   */\n      dup6\n        /* \"#utility.yul\":1536:1542   */\n      dup3\n        /* \"#utility.yul\":1525:1534   */\n      dup7\n        /* \"#utility.yul\":1521:1543   */\n      add\n        /* \"#utility.yul\":1503:1553   */\n      tag_688\n      jump\t// in\n    tag_716:\n        /* \"#utility.yul\":1493:1553   */\n      swap2\n      pop\n      pop\n        /* \"#utility.yul\":1163:1559   */\n      swap3\n      pop\n      swap3\n      swap1\n      pop\n      jump\t// out\n        /* \"#utility.yul\":1564:1695   */\n    tag_689:\n      not(sub(shl(0xe0, 0x01), 0x01))\n        /* \"#utility.yul\":1638:1670   */\n      dup2\n      and\n        /* \"#utility.yul\":1628:1671   */\n      dup2\n      eq\n        /* \"#utility.yul\":1618:1689   */\n      tag_262\n      jumpi\n        /* \"#utility.yul\":1685:1686   */\n      0x00\n        /* \"#utility.yul\":1682:1683   */\n      dup1\n        /* \"#utility.yul\":1675:1687   */\n      revert\n        /* \"#utility.yul\":1700:1945   */\n    tag_64:\n        /* \"#utility.yul\":1758:1764   */\n      0x00\n        /* \"#utility.yul\":1811:1813   */\n      0x20\n        /* \"#utility.yul\":1799:1808   */\n      dup3\n        /* \"#utility.yul\":1790:1797   */\n      dup5\n        /* \"#utility.yul\":1786:1809   */\n      sub\n        /* \"#utility.yul\":1782:1814   */\n      slt\n        /* \"#utility.yul\":1779:1831   */\n      iszero\n      tag_720\n      jumpi\n        /* \"#utility.yul\":1827:1828   */\n      0x00\n        /* \"#utility.yul\":1824:1825   */\n      dup1\n        /* \"#utility.yul\":1817:1829   */\n      revert\n        /* \"#utility.yul\":1779:1831   */\n    tag_720:\n        /* \"#utility.yul\":1866:1875   */\n      dup2\n        /* \"#utility.yul\":1853:1876   */\n      calldataload\n        /* \"#utility.yul\":1885:1915   */\n      tag_363\n        /* \"#utility.yul\":1909:1914   */\n      dup2\n        /* \"#utility.yul\":1885:1915   */\n      tag_689\n      jump\t// in\n        /* \"#utility.yul\":2142:2442   */\n    tag_690:\n        /* \"#utility.yul\":2195:2198   */\n      0x00\n        /* \"#utility.yul\":2233:2238   */\n      dup2\n        /* \"#utility.yul\":2227:2239   */\n      mload\n        /* \"#utility.yul\":2260:2266   */\n      dup1\n        /* \"#utility.yul\":2255:2258   */\n      dup5\n        /* \"#utility.yul\":2248:2267   */\n      mstore\n        /* \"#utility.yul\":2316:2322   */\n      dup1\n        /* \"#utility.yul\":2309:2313   */\n      0x20\n        /* \"#utility.yul\":2302:2307   */\n      dup5\n        /* \"#utility.yul\":2298:2314   */\n      add\n        /* \"#utility.yul\":2291:2295   */\n      0x20\n        /* \"#utility.yul\":2286:2289   */\n      dup7\n        /* \"#utility.yul\":2282:2296   */\n      add\n        /* \"#utility.yul\":2276:2323   */\n      mcopy\n        /* \"#utility.yul\":2368:2369   */\n      0x00\n        /* \"#utility.yul\":2361:2365   */\n      0x20\n        /* \"#utility.yul\":2352:2358   */\n      dup3\n        /* \"#utility.yul\":2347:2350   */\n      dup7\n        /* \"#utility.yul\":2343:2359   */\n      add\n        /* \"#utility.yul\":2339:2366   */\n      add\n        /* \"#utility.yul\":2332:2370   */\n      mstore\n        /* \"#utility.yul\":2431:2435   */\n      0x20\n        /* \"#utility.yul\":2424:2426   */\n      0x1f\n        /* \"#utility.yul\":2420:2427   */\n      not\n        /* \"#utility.yul\":2415:2417   */\n      0x1f\n        /* \"#utility.yul\":2407:2413   */\n      dup4\n        /* \"#utility.yul\":2403:2418   */\n      add\n        /* \"#utility.yul\":2399:2428   */\n      and\n        /* \"#utility.yul\":2394:2397   */\n      dup6\n        /* \"#utility.yul\":2390:2429   */\n      add\n        /* \"#utility.yul\":2386:2436   */\n      add\n        /* \"#utility.yul\":2379:2436   */\n      swap2\n      pop\n      pop\n        /* \"#utility.yul\":2142:2442   */\n      swap3\n      swap2\n      pop\n      pop\n      jump\t// out\n        /* \"#utility.yul\":2447:2678   */\n    tag_71:\n        /* \"#utility.yul\":2596:2598   */\n      0x20\n        /* \"#utility.yul\":2585:2594   */\n      dup2\n        /* \"#utility.yul\":2578:2599   */\n      mstore\n        /* \"#utility.yul\":2559:2563   */\n      0x00\n        /* \"#utility.yul\":2616:2672   */\n      tag_363\n        /* \"#utility.yul\":2668:2670   */\n      0x20\n        /* \"#utility.yul\":2657:2666   */\n      dup4\n        /* \"#utility.yul\":2653:2671   */\n      add\n        /* \"#utility.yul\":2645:2651   */\n      dup5\n        /* \"#utility.yul\":2616:2672   */\n      tag_690\n      jump\t// in\n        /* \"#utility.yul\":2683:3349   */\n    tag_74:\n        /* \"#utility.yul\":2763:2769   */\n      0x00\n        /* \"#utility.yul\":2771:2777   */\n      dup1\n        /* \"#utility.yul\":2779:2785   */\n      0x00\n        /* \"#utility.yul\":2832:2834   */\n      0x40\n        /* \"#utility.yul\":2820:2829   */\n      dup5\n        /* \"#utility.yul\":2811:2818   */\n      dup7\n        /* \"#utility.yul\":2807:2830   */\n      sub\n        /* \"#utility.yul\":2803:2835   */\n      slt\n        /* \"#utility.yul\":2800:2852   */\n      iszero\n      tag_727\n      jumpi\n        /* \"#utility.yul\":2848:2849   */\n      0x00\n        /* \"#utility.yul\":2845:2846   */\n      dup1\n        /* \"#utility.yul\":2838:2850   */\n      revert\n        /* \"#utility.yul\":2800:2852   */\n    tag_727:\n        /* \"#utility.yul\":2871:2900   */\n      tag_728\n        /* \"#utility.yul\":2890:2899   */\n      dup5\n        /* \"#utility.yul\":2871:2900   */\n      tag_686\n      jump\t// in\n    tag_728:\n        /* \"#utility.yul\":2861:2900   */\n      swap3\n      pop\n        /* \"#utility.yul\":2951:2953   */\n      0x20\n        /* \"#utility.yul\":2940:2949   */\n      dup5\n        /* \"#utility.yul\":2936:2954   */\n      add\n        /* \"#utility.yul\":2923:2955   */\n      calldataload\n        /* \"#utility.yul\":2974:2992   */\n      0xffffffffffffffff\n        /* \"#utility.yul\":3015:3017   */\n      dup1\n        /* \"#utility.yul\":3007:3013   */\n      dup3\n        /* \"#utility.yul\":3004:3018   */\n      gt\n        /* \"#utility.yul\":3001:3035   */\n      iszero\n      tag_729\n      jumpi\n        /* \"#utility.yul\":3031:3032   */\n      0x00\n        /* \"#utility.yul\":3028:3029   */\n      dup1\n        /* \"#utility.yul\":3021:3033   */\n      revert\n        /* \"#utility.yul\":3001:3035   */\n    tag_729:\n        /* \"#utility.yul\":3069:3075   */\n      dup2\n        /* \"#utility.yul\":3058:3067   */\n      dup7\n        /* \"#utility.yul\":3054:3076   */\n      add\n        /* \"#utility.yul\":3044:3076   */\n      swap2\n      pop\n        /* \"#utility.yul\":3114:3121   */\n      dup7\n        /* \"#utility.yul\":3107:3111   */\n      0x1f\n        /* \"#utility.yul\":3103:3105   */\n      dup4\n        /* \"#utility.yul\":3099:3112   */\n      add\n        /* \"#utility.yul\":3095:3122   */\n      slt\n        /* \"#utility.yul\":3085:3140   */\n      tag_730\n      jumpi\n        /* \"#utility.yul\":3136:3137   */\n      0x00\n        /* \"#utility.yul\":3133:3134   */\n      dup1\n        /* \"#utility.yul\":3126:3138   */\n      revert\n        /* \"#utility.yul\":3085:3140   */\n    tag_730:\n        /* \"#utility.yul\":3176:3178   */\n      dup2\n        /* \"#utility.yul\":3163:3179   */\n      calldataload\n        /* \"#utility.yul\":3202:3204   */\n      dup2\n        /* \"#utility.yul\":3194:3200   */\n      dup2\n        /* \"#utility.yul\":3191:3205   */\n      gt\n        /* \"#utility.yul\":3188:3222   */\n      iszero\n      tag_731\n      jumpi\n        /* \"#utility.yul\":3218:3219   */\n      0x00\n        /* \"#utility.yul\":3215:3216   */\n      dup1\n        /* \"#utility.yul\":3208:3220   */\n      revert\n        /* \"#utility.yul\":3188:3222   */\n    tag_731:\n        /* \"#utility.yul\":3263:3270   */\n      dup8\n        /* \"#utility.yul\":3258:3260   */\n      0x20\n        /* \"#utility.yul\":3249:3255   */\n      dup3\n        /* \"#utility.yul\":3245:3247   */\n      dup6\n        /* \"#utility.yul\":3241:3256   */\n      add\n        /* \"#utility.yul\":3237:3261   */\n      add\n        /* \"#utility.yul\":3234:3271   */\n      gt\n        /* \"#utility.yul\":3231:3288   */\n      iszero\n      tag_732\n      jumpi\n        /* \"#utility.yul\":3284:3285   */\n      0x00\n        /* \"#utility.yul\":3281:3282   */\n      dup1\n        /* \"#utility.yul\":3274:3286   */\n      revert\n        /* \"#utility.yul\":3231:3288   */\n    tag_732:\n        /* \"#utility.yul\":3315:3317   */\n      0x20\n        /* \"#utility.yul\":3311:3313   */\n      dup4\n        /* \"#utility.yul\":3307:3318   */\n      add\n        /* \"#utility.yul\":3297:3318   */\n      swap5\n      pop\n        /* \"#utility.yul\":3337:3343   */\n      dup1\n        /* \"#utility.yul\":3327:3343   */\n      swap4\n      pop\n      pop\n      pop\n      pop\n        /* \"#utility.yul\":2683:3349   */\n      swap3\n      pop\n      swap3\n      pop\n      swap3\n      jump\t// out\n        /* \"#utility.yul\":3354:3534   */\n    tag_78:\n        /* \"#utility.yul\":3413:3419   */\n      0x00\n        /* \"#utility.yul\":3466:3468   */\n      0x20\n        /* \"#utility.yul\":3454:3463   */\n      dup3\n        /* \"#utility.yul\":3445:3452   */\n      dup5\n        /* \"#utility.yul\":3441:3464   */\n      sub\n        /* \"#utility.yul\":3437:3469   */\n      slt\n        /* \"#utility.yul\":3434:3486   */\n      iszero\n      tag_734\n      jumpi\n        /* \"#utility.yul\":3482:3483   */\n      0x00\n        /* \"#utility.yul\":3479:3480   */\n      dup1\n        /* \"#utility.yul\":3472:3484   */\n      revert\n        /* \"#utility.yul\":3434:3486   */\n    tag_734:\n      pop\n        /* \"#utility.yul\":3505:3528   */\n      calldataload\n      swap2\n        /* \"#utility.yul\":3354:3534   */\n      swap1\n      pop\n      jump\t// out\n        /* \"#utility.yul\":3770:4024   */\n    tag_84:\n        /* \"#utility.yul\":3838:3844   */\n      0x00\n        /* \"#utility.yul\":3846:3852   */\n      dup1\n        /* \"#utility.yul\":3899:3901   */\n      0x40\n        /* \"#utility.yul\":3887:3896   */\n      dup4\n        /* \"#utility.yul\":3878:3885   */\n      dup6\n        /* \"#utility.yul\":3874:3897   */\n      sub\n        /* \"#utility.yul\":3870:3902   */\n      slt\n        /* \"#utility.yul\":3867:3919   */\n      iszero\n      tag_737\n      jumpi\n        /* \"#utility.yul\":3915:3916   */\n      0x00\n        /* \"#utility.yul\":3912:3913   */\n      dup1\n        /* \"#utility.yul\":3905:3917   */\n      revert\n        /* \"#utility.yul\":3867:3919   */\n    tag_737:\n        /* \"#utility.yul\":3938:3967   */\n      tag_738\n        /* \"#utility.yul\":3957:3966   */\n      dup4\n        /* \"#utility.yul\":3938:3967   */\n      tag_686\n      jump\t// in\n    tag_738:\n        /* \"#utility.yul\":3928:3967   */\n      swap5\n        /* \"#utility.yul\":4014:4016   */\n      0x20\n        /* \"#utility.yul\":3999:4017   */\n      swap4\n      swap1\n      swap4\n      add\n        /* \"#utility.yul\":3986:4018   */\n      calldataload\n      swap4\n      pop\n      pop\n      pop\n        /* \"#utility.yul\":3770:4024   */\n      jump\t// out\n        /* \"#utility.yul\":4029:4215   */\n    tag_91:\n        /* \"#utility.yul\":4088:4094   */\n      0x00\n        /* \"#utility.yul\":4141:4143   */\n      0x20\n        /* \"#utility.yul\":4129:4138   */\n      dup3\n        /* \"#utility.yul\":4120:4127   */\n      dup5\n        /* \"#utility.yul\":4116:4139   */\n      sub\n        /* \"#utility.yul\":4112:4144   */\n      slt\n        /* \"#utility.yul\":4109:4161   */\n      iszero\n      tag_740\n      jumpi\n        /* \"#utility.yul\":4157:4158   */\n      0x00\n        /* \"#utility.yul\":4154:4155   */\n      dup1\n        /* \"#utility.yul\":4147:4159   */\n      revert\n        /* \"#utility.yul\":4109:4161   */\n    tag_740:\n        /* \"#utility.yul\":4180:4209   */\n      tag_363\n        /* \"#utility.yul\":4199:4208   */\n      dup3\n        /* \"#utility.yul\":4180:4209   */\n      tag_686\n      jump\t// in\n        /* \"#utility.yul\":4402:4730   */\n    tag_99:\n        /* \"#utility.yul\":4479:4485   */\n      0x00\n        /* \"#utility.yul\":4487:4493   */\n      dup1\n        /* \"#utility.yul\":4495:4501   */\n      0x00\n        /* \"#utility.yul\":4548:4550   */\n      0x60\n        /* \"#utility.yul\":4536:4545   */\n      dup5\n        /* \"#utility.yul\":4527:4534   */\n      dup7\n        /* \"#utility.yul\":4523:4546   */\n      sub\n        /* \"#utility.yul\":4519:4551   */\n      slt\n        /* \"#utility.yul\":4516:4568   */\n      iszero\n      tag_744\n      jumpi\n        /* \"#utility.yul\":4564:4565   */\n      0x00\n        /* \"#utility.yul\":4561:4562   */\n      dup1\n        /* \"#utility.yul\":4554:4566   */\n      revert\n        /* \"#utility.yul\":4516:4568   */\n    tag_744:\n        /* \"#utility.yul\":4587:4616   */\n      tag_745\n        /* \"#utility.yul\":4606:4615   */\n      dup5\n        /* \"#utility.yul\":4587:4616   */\n      tag_686\n      jump\t// in\n    tag_745:\n        /* \"#utility.yul\":4577:4616   */\n      swap3\n      pop\n        /* \"#utility.yul\":4635:4673   */\n      tag_746\n        /* \"#utility.yul\":4669:4671   */\n      0x20\n        /* \"#utility.yul\":4658:4667   */\n      dup6\n        /* \"#utility.yul\":4654:4672   */\n      add\n        /* \"#utility.yul\":4635:4673   */\n      tag_686\n      jump\t// in\n    tag_746:\n        /* \"#utility.yul\":4625:4673   */\n      swap2\n      pop\n        /* \"#utility.yul\":4720:4722   */\n      0x40\n        /* \"#utility.yul\":4709:4718   */\n      dup5\n        /* \"#utility.yul\":4705:4723   */\n      add\n        /* \"#utility.yul\":4692:4724   */\n      calldataload\n        /* \"#utility.yul\":4682:4724   */\n      swap1\n      pop\n        /* \"#utility.yul\":4402:4730   */\n      swap3\n      pop\n      swap3\n      pop\n      swap3\n      jump\t// out\n        /* \"#utility.yul\":4735:4983   */\n    tag_107:\n        /* \"#utility.yul\":4803:4809   */\n      0x00\n        /* \"#utility.yul\":4811:4817   */\n      dup1\n        /* \"#utility.yul\":4864:4866   */\n      0x40\n        /* \"#utility.yul\":4852:4861   */\n      dup4\n        /* \"#utility.yul\":4843:4850   */\n      dup6\n        /* \"#utility.yul\":4839:4862   */\n      sub\n        /* \"#utility.yul\":4835:4867   */\n      slt\n        /* \"#utility.yul\":4832:4884   */\n      iszero\n      tag_748\n      jumpi\n        /* \"#utility.yul\":4880:4881   */\n      0x00\n        /* \"#utility.yul\":4877:4878   */\n      dup1\n        /* \"#utility.yul\":4870:4882   */\n      revert\n        /* \"#utility.yul\":4832:4884   */\n    tag_748:\n      pop\n      pop\n        /* \"#utility.yul\":4903:4926   */\n      dup1\n      calldataload\n      swap3\n        /* \"#utility.yul\":4973:4975   */\n      0x20\n        /* \"#utility.yul\":4958:4976   */\n      swap1\n      swap2\n      add\n        /* \"#utility.yul\":4945:4977   */\n      calldataload\n      swap2\n      pop\n        /* \"#utility.yul\":4735:4983   */\n      jump\t// out\n        /* \"#utility.yul\":5603:6549   */\n    tag_131:\n        /* \"#utility.yul\":5687:5693   */\n      0x00\n        /* \"#utility.yul\":5718:5720   */\n      0x20\n        /* \"#utility.yul\":5761:5763   */\n      dup1\n        /* \"#utility.yul\":5749:5758   */\n      dup4\n        /* \"#utility.yul\":5740:5747   */\n      dup6\n        /* \"#utility.yul\":5736:5759   */\n      sub\n        /* \"#utility.yul\":5732:5764   */\n      slt\n        /* \"#utility.yul\":5729:5781   */\n      iszero\n      tag_752\n      jumpi\n        /* \"#utility.yul\":5777:5778   */\n      0x00\n        /* \"#utility.yul\":5774:5775   */\n      dup1\n        /* \"#utility.yul\":5767:5779   */\n      revert\n        /* \"#utility.yul\":5729:5781   */\n    tag_752:\n        /* \"#utility.yul\":5817:5826   */\n      dup3\n        /* \"#utility.yul\":5804:5827   */\n      calldataload\n        /* \"#utility.yul\":5846:5864   */\n      0xffffffffffffffff\n        /* \"#utility.yul\":5887:5889   */\n      dup1\n        /* \"#utility.yul\":5879:5885   */\n      dup3\n        /* \"#utility.yul\":5876:5890   */\n      gt\n        /* \"#utility.yul\":5873:5907   */\n      iszero\n      tag_753\n      jumpi\n        /* \"#utility.yul\":5903:5904   */\n      0x00\n        /* \"#utility.yul\":5900:5901   */\n      dup1\n        /* \"#utility.yul\":5893:5905   */\n      revert\n        /* \"#utility.yul\":5873:5907   */\n    tag_753:\n        /* \"#utility.yul\":5941:5947   */\n      dup2\n        /* \"#utility.yul\":5930:5939   */\n      dup6\n        /* \"#utility.yul\":5926:5948   */\n      add\n        /* \"#utility.yul\":5916:5948   */\n      swap2\n      pop\n        /* \"#utility.yul\":5986:5993   */\n      dup6\n        /* \"#utility.yul\":5979:5983   */\n      0x1f\n        /* \"#utility.yul\":5975:5977   */\n      dup4\n        /* \"#utility.yul\":5971:5984   */\n      add\n        /* \"#utility.yul\":5967:5994   */\n      slt\n        /* \"#utility.yul\":5957:6012   */\n      tag_754\n      jumpi\n        /* \"#utility.yul\":6008:6009   */\n      0x00\n        /* \"#utility.yul\":6005:6006   */\n      dup1\n        /* \"#utility.yul\":5998:6010   */\n      revert\n        /* \"#utility.yul\":5957:6012   */\n    tag_754:\n        /* \"#utility.yul\":6044:6046   */\n      dup2\n        /* \"#utility.yul\":6031:6047   */\n      calldataload\n        /* \"#utility.yul\":6066:6068   */\n      dup2\n        /* \"#utility.yul\":6062:6064   */\n      dup2\n        /* \"#utility.yul\":6059:6069   */\n      gt\n        /* \"#utility.yul\":6056:6092   */\n      iszero\n      tag_756\n      jumpi\n        /* \"#utility.yul\":6072:6090   */\n      tag_756\n      tag_302\n      jump\t// in\n    tag_756:\n        /* \"#utility.yul\":6118:6120   */\n      dup1\n        /* \"#utility.yul\":6115:6116   */\n      0x05\n        /* \"#utility.yul\":6111:6121   */\n      shl\n        /* \"#utility.yul\":6101:6121   */\n      swap2\n      pop\n        /* \"#utility.yul\":6141:6169   */\n      tag_757\n        /* \"#utility.yul\":6165:6167   */\n      dup5\n        /* \"#utility.yul\":6161:6163   */\n      dup4\n        /* \"#utility.yul\":6157:6168   */\n      add\n        /* \"#utility.yul\":6141:6169   */\n      tag_687\n      jump\t// in\n    tag_757:\n        /* \"#utility.yul\":6203:6218   */\n      dup2\n      dup2\n      mstore\n        /* \"#utility.yul\":6273:6284   */\n      swap2\n      dup4\n      add\n        /* \"#utility.yul\":6269:6289   */\n      dup5\n      add\n      swap2\n        /* \"#utility.yul\":6234:6246   */\n      dup5\n      dup2\n      add\n      swap1\n        /* \"#utility.yul\":6301:6320   */\n      dup9\n      dup5\n      gt\n        /* \"#utility.yul\":6298:6337   */\n      iszero\n      tag_758\n      jumpi\n        /* \"#utility.yul\":6333:6334   */\n      0x00\n        /* \"#utility.yul\":6330:6331   */\n      dup1\n        /* \"#utility.yul\":6323:6335   */\n      revert\n        /* \"#utility.yul\":6298:6337   */\n    tag_758:\n        /* \"#utility.yul\":6357:6368   */\n      swap4\n      dup6\n      add\n      swap4\n        /* \"#utility.yul\":6377:6519   */\n    tag_759:\n        /* \"#utility.yul\":6393:6399   */\n      dup4\n        /* \"#utility.yul\":6388:6391   */\n      dup6\n        /* \"#utility.yul\":6385:6400   */\n      lt\n        /* \"#utility.yul\":6377:6519   */\n      iszero\n      tag_761\n      jumpi\n        /* \"#utility.yul\":6459:6476   */\n      dup5\n      calldataload\n        /* \"#utility.yul\":6447:6477   */\n      dup3\n      mstore\n        /* \"#utility.yul\":6410:6422   */\n      swap4\n      dup6\n      add\n      swap4\n        /* \"#utility.yul\":6497:6509   */\n      swap1\n      dup6\n      add\n      swap1\n        /* \"#utility.yul\":6377:6519   */\n      jump(tag_759)\n    tag_761:\n        /* \"#utility.yul\":6538:6543   */\n      swap9\n        /* \"#utility.yul\":5603:6549   */\n      swap8\n      pop\n      pop\n      pop\n      pop\n      pop\n      pop\n      pop\n      pop\n      jump\t// out\n        /* \"#utility.yul\":6860:7584   */\n    tag_134:\n        /* \"#utility.yul\":7095:7097   */\n      0x20\n        /* \"#utility.yul\":7147:7168   */\n      dup1\n      dup3\n      mstore\n        /* \"#utility.yul\":7217:7230   */\n      dup3\n      mload\n        /* \"#utility.yul\":7120:7138   */\n      dup3\n      dup3\n      add\n        /* \"#utility.yul\":7239:7261   */\n      dup2\n      swap1\n      mstore\n        /* \"#utility.yul\":7066:7070   */\n      0x00\n      swap2\n        /* \"#utility.yul\":7095:7097   */\n      swap1\n        /* \"#utility.yul\":7318:7333   */\n      dup5\n      dup3\n      add\n      swap1\n        /* \"#utility.yul\":7292:7294   */\n      0x40\n        /* \"#utility.yul\":7277:7295   */\n      dup6\n      add\n      swap1\n        /* \"#utility.yul\":7066:7070   */\n      dup5\n        /* \"#utility.yul\":7361:7558   */\n    tag_764:\n        /* \"#utility.yul\":7375:7381   */\n      dup2\n        /* \"#utility.yul\":7372:7373   */\n      dup2\n        /* \"#utility.yul\":7369:7382   */\n      lt\n        /* \"#utility.yul\":7361:7558   */\n      iszero\n      tag_342\n      jumpi\n        /* \"#utility.yul\":7424:7476   */\n      tag_767\n        /* \"#utility.yul\":7472:7475   */\n      dup4\n        /* \"#utility.yul\":7463:7469   */\n      dup6\n        /* \"#utility.yul\":7457:7470   */\n      mload\n        /* \"#utility.yul\":6638:6650   */\n      dup1\n      mload\n      sub(shl(0xa0, 0x01), 0x01)\n        /* \"#utility.yul\":6634:6695   */\n      and\n        /* \"#utility.yul\":6622:6696   */\n      dup3\n      mstore\n        /* \"#utility.yul\":6749:6753   */\n      0x20\n        /* \"#utility.yul\":6738:6754   */\n      dup1\n      dup3\n      add\n        /* \"#utility.yul\":6732:6755   */\n      mload\n        /* \"#utility.yul\":6757:6775   */\n      0xffffffffffffffff\n        /* \"#utility.yul\":6728:6776   */\n      and\n        /* \"#utility.yul\":6712:6726   */\n      swap1\n      dup4\n      add\n        /* \"#utility.yul\":6705:6777   */\n      mstore\n        /* \"#utility.yul\":6840:6844   */\n      0x40\n        /* \"#utility.yul\":6829:6845   */\n      swap1\n      dup2\n      add\n        /* \"#utility.yul\":6823:6846   */\n      mload\n        /* \"#utility.yul\":6816:6847   */\n      iszero\n        /* \"#utility.yul\":6809:6848   */\n      iszero\n        /* \"#utility.yul\":6793:6807   */\n      swap2\n      add\n        /* \"#utility.yul\":6786:6849   */\n      mstore\n        /* \"#utility.yul\":6554:6855   */\n      jump\n        /* \"#utility.yul\":7424:7476   */\n    tag_767:\n        /* \"#utility.yul\":7533:7548   */\n      swap3\n      dup5\n      add\n      swap3\n        /* \"#utility.yul\":7505:7509   */\n      0x60\n        /* \"#utility.yul\":7496:7510   */\n      swap3\n      swap1\n      swap3\n      add\n      swap2\n        /* \"#utility.yul\":7397:7398   */\n      0x01\n        /* \"#utility.yul\":7390:7399   */\n      add\n        /* \"#utility.yul\":7361:7558   */\n      jump(tag_764)\n        /* \"#utility.yul\":7589:8274   */\n    tag_151:\n        /* \"#utility.yul\":7694:7700   */\n      0x00\n        /* \"#utility.yul\":7702:7708   */\n      dup1\n        /* \"#utility.yul\":7710:7716   */\n      0x00\n        /* \"#utility.yul\":7718:7724   */\n      dup1\n        /* \"#utility.yul\":7771:7774   */\n      0x80\n        /* \"#utility.yul\":7759:7768   */\n      dup6\n        /* \"#utility.yul\":7750:7757   */\n      dup8\n        /* \"#utility.yul\":7746:7769   */\n      sub\n        /* \"#utility.yul\":7742:7775   */\n      slt\n        /* \"#utility.yul\":7739:7792   */\n      iszero\n      tag_769\n      jumpi\n        /* \"#utility.yul\":7788:7789   */\n      0x00\n        /* \"#utility.yul\":7785:7786   */\n      dup1\n        /* \"#utility.yul\":7778:7790   */\n      revert\n        /* \"#utility.yul\":7739:7792   */\n    tag_769:\n        /* \"#utility.yul\":7811:7840   */\n      tag_770\n        /* \"#utility.yul\":7830:7839   */\n      dup6\n        /* \"#utility.yul\":7811:7840   */\n      tag_686\n      jump\t// in\n    tag_770:\n        /* \"#utility.yul\":7801:7840   */\n      swap4\n      pop\n        /* \"#utility.yul\":7887:7889   */\n      0x20\n        /* \"#utility.yul\":7876:7885   */\n      dup6\n        /* \"#utility.yul\":7872:7890   */\n      add\n        /* \"#utility.yul\":7859:7891   */\n      calldataload\n        /* \"#utility.yul\":7849:7891   */\n      swap3\n      pop\n        /* \"#utility.yul\":7942:7944   */\n      0x40\n        /* \"#utility.yul\":7931:7940   */\n      dup6\n        /* \"#utility.yul\":7927:7945   */\n      add\n        /* \"#utility.yul\":7914:7946   */\n      calldataload\n        /* \"#utility.yul\":7965:7983   */\n      0xffffffffffffffff\n        /* \"#utility.yul\":8006:8008   */\n      dup1\n        /* \"#utility.yul\":7998:8004   */\n      dup3\n        /* \"#utility.yul\":7995:8009   */\n      gt\n        /* \"#utility.yul\":7992:8026   */\n      iszero\n      tag_771\n      jumpi\n        /* \"#utility.yul\":8022:8023   */\n      0x00\n        /* \"#utility.yul\":8019:8020   */\n      dup1\n        /* \"#utility.yul\":8012:8024   */\n      revert\n        /* \"#utility.yul\":7992:8026   */\n    tag_771:\n        /* \"#utility.yul\":8045:8095   */\n      tag_772\n        /* \"#utility.yul\":8087:8094   */\n      dup9\n        /* \"#utility.yul\":8078:8084   */\n      dup4\n        /* \"#utility.yul\":8067:8076   */\n      dup10\n        /* \"#utility.yul\":8063:8085   */\n      add\n        /* \"#utility.yul\":8045:8095   */\n      tag_688\n      jump\t// in\n    tag_772:\n        /* \"#utility.yul\":8035:8095   */\n      swap4\n      pop\n        /* \"#utility.yul\":8148:8150   */\n      0x60\n        /* \"#utility.yul\":8137:8146   */\n      dup8\n        /* \"#utility.yul\":8133:8151   */\n      add\n        /* \"#utility.yul\":8120:8152   */\n      calldataload\n        /* \"#utility.yul\":8104:8152   */\n      swap2\n      pop\n        /* \"#utility.yul\":8177:8179   */\n      dup1\n        /* \"#utility.yul\":8167:8175   */\n      dup3\n        /* \"#utility.yul\":8164:8180   */\n      gt\n        /* \"#utility.yul\":8161:8197   */\n      iszero\n      tag_773\n      jumpi\n        /* \"#utility.yul\":8193:8194   */\n      0x00\n        /* \"#utility.yul\":8190:8191   */\n      dup1\n        /* \"#utility.yul\":8183:8195   */\n      revert\n        /* \"#utility.yul\":8161:8197   */\n    tag_773:\n      pop\n        /* \"#utility.yul\":8216:8268   */\n      tag_774\n        /* \"#utility.yul\":8260:8267   */\n      dup8\n        /* \"#utility.yul\":8249:8257   */\n      dup3\n        /* \"#utility.yul\":8238:8247   */\n      dup9\n        /* \"#utility.yul\":8234:8258   */\n      add\n        /* \"#utility.yul\":8216:8268   */\n      tag_688\n      jump\t// in\n    tag_774:\n        /* \"#utility.yul\":8206:8268   */\n      swap2\n      pop\n      pop\n        /* \"#utility.yul\":7589:8274   */\n      swap3\n      swap6\n      swap2\n      swap5\n      pop\n      swap3\n      pop\n      jump\t// out\n        /* \"#utility.yul\":8279:8911   */\n    tag_161:\n        /* \"#utility.yul\":8450:8452   */\n      0x20\n        /* \"#utility.yul\":8502:8523   */\n      dup1\n      dup3\n      mstore\n        /* \"#utility.yul\":8572:8585   */\n      dup3\n      mload\n        /* \"#utility.yul\":8475:8493   */\n      dup3\n      dup3\n      add\n        /* \"#utility.yul\":8594:8616   */\n      dup2\n      swap1\n      mstore\n        /* \"#utility.yul\":8421:8425   */\n      0x00\n      swap2\n        /* \"#utility.yul\":8450:8452   */\n      swap1\n        /* \"#utility.yul\":8673:8688   */\n      dup5\n      dup3\n      add\n      swap1\n        /* \"#utility.yul\":8647:8649   */\n      0x40\n        /* \"#utility.yul\":8632:8650   */\n      dup6\n      add\n      swap1\n        /* \"#utility.yul\":8421:8425   */\n      dup5\n        /* \"#utility.yul\":8716:8885   */\n    tag_776:\n        /* \"#utility.yul\":8730:8736   */\n      dup2\n        /* \"#utility.yul\":8727:8728   */\n      dup2\n        /* \"#utility.yul\":8724:8737   */\n      lt\n        /* \"#utility.yul\":8716:8885   */\n      iszero\n      tag_342\n      jumpi\n        /* \"#utility.yul\":8791:8804   */\n      dup4\n      mload\n        /* \"#utility.yul\":8779:8805   */\n      dup4\n      mstore\n        /* \"#utility.yul\":8860:8875   */\n      swap3\n      dup5\n      add\n      swap3\n        /* \"#utility.yul\":8825:8837   */\n      swap2\n      dup5\n      add\n      swap2\n        /* \"#utility.yul\":8752:8753   */\n      0x01\n        /* \"#utility.yul\":8745:8754   */\n      add\n        /* \"#utility.yul\":8716:8885   */\n      jump(tag_776)\n        /* \"#utility.yul\":8916:9238   */\n    tag_167:\n        /* \"#utility.yul\":8985:8991   */\n      0x00\n        /* \"#utility.yul\":9038:9040   */\n      0x20\n        /* \"#utility.yul\":9026:9035   */\n      dup3\n        /* \"#utility.yul\":9017:9024   */\n      dup5\n        /* \"#utility.yul\":9013:9036   */\n      sub\n        /* \"#utility.yul\":9009:9041   */\n      slt\n        /* \"#utility.yul\":9006:9058   */\n      iszero\n      tag_780\n      jumpi\n        /* \"#utility.yul\":9054:9055   */\n      0x00\n        /* \"#utility.yul\":9051:9052   */\n      dup1\n        /* \"#utility.yul\":9044:9056   */\n      revert\n        /* \"#utility.yul\":9006:9058   */\n    tag_780:\n        /* \"#utility.yul\":9094:9103   */\n      dup2\n        /* \"#utility.yul\":9081:9104   */\n      calldataload\n        /* \"#utility.yul\":9127:9145   */\n      0xffffffffffffffff\n        /* \"#utility.yul\":9119:9125   */\n      dup2\n        /* \"#utility.yul\":9116:9146   */\n      gt\n        /* \"#utility.yul\":9113:9163   */\n      iszero\n      tag_781\n      jumpi\n        /* \"#utility.yul\":9159:9160   */\n      0x00\n        /* \"#utility.yul\":9156:9157   */\n      dup1\n        /* \"#utility.yul\":9149:9161   */\n      revert\n        /* \"#utility.yul\":9113:9163   */\n    tag_781:\n        /* \"#utility.yul\":9182:9232   */\n      tag_294\n        /* \"#utility.yul\":9224:9231   */\n      dup5\n        /* \"#utility.yul\":9215:9221   */\n      dup3\n        /* \"#utility.yul\":9204:9213   */\n      dup6\n        /* \"#utility.yul\":9200:9222   */\n      add\n        /* \"#utility.yul\":9182:9232   */\n      tag_688\n      jump\t// in\n        /* \"#utility.yul\":9243:9565   */\n    tag_174:\n        /* \"#utility.yul\":9320:9326   */\n      0x00\n        /* \"#utility.yul\":9328:9334   */\n      dup1\n        /* \"#utility.yul\":9336:9342   */\n      0x00\n        /* \"#utility.yul\":9389:9391   */\n      0x60\n        /* \"#utility.yul\":9377:9386   */\n      dup5\n        /* \"#utility.yul\":9368:9375   */\n      dup7\n        /* \"#utility.yul\":9364:9387   */\n      sub\n        /* \"#utility.yul\":9360:9392   */\n      slt\n        /* \"#utility.yul\":9357:9409   */\n      iszero\n      tag_784\n      jumpi\n        /* \"#utility.yul\":9405:9406   */\n      0x00\n        /* \"#utility.yul\":9402:9403   */\n      dup1\n        /* \"#utility.yul\":9395:9407   */\n      revert\n        /* \"#utility.yul\":9357:9409   */\n    tag_784:\n        /* \"#utility.yul\":9428:9457   */\n      tag_785\n        /* \"#utility.yul\":9447:9456   */\n      dup5\n        /* \"#utility.yul\":9428:9457   */\n      tag_686\n      jump\t// in\n    tag_785:\n        /* \"#utility.yul\":9418:9457   */\n      swap6\n        /* \"#utility.yul\":9504:9506   */\n      0x20\n        /* \"#utility.yul\":9489:9507   */\n      dup6\n      add\n        /* \"#utility.yul\":9476:9508   */\n      calldataload\n      swap6\n      pop\n        /* \"#utility.yul\":9555:9557   */\n      0x40\n        /* \"#utility.yul\":9540:9558   */\n      swap1\n      swap5\n      add\n        /* \"#utility.yul\":9527:9559   */\n      calldataload\n      swap4\n        /* \"#utility.yul\":9243:9565   */\n      swap3\n      pop\n      pop\n      pop\n      jump\t// out\n        /* \"#utility.yul\":9570:9892   */\n    tag_179:\n        /* \"#utility.yul\":9647:9653   */\n      0x00\n        /* \"#utility.yul\":9655:9661   */\n      dup1\n        /* \"#utility.yul\":9663:9669   */\n      0x00\n        /* \"#utility.yul\":9716:9718   */\n      0x60\n        /* \"#utility.yul\":9704:9713   */\n      dup5\n        /* \"#utility.yul\":9695:9702   */\n      dup7\n        /* \"#utility.yul\":9691:9714   */\n      sub\n        /* \"#utility.yul\":9687:9719   */\n      slt\n        /* \"#utility.yul\":9684:9736   */\n      iszero\n      tag_787\n      jumpi\n        /* \"#utility.yul\":9732:9733   */\n      0x00\n        /* \"#utility.yul\":9729:9730   */\n      dup1\n        /* \"#utility.yul\":9722:9734   */\n      revert\n        /* \"#utility.yul\":9684:9736   */\n    tag_787:\n        /* \"#utility.yul\":9768:9777   */\n      dup4\n        /* \"#utility.yul\":9755:9778   */\n      calldataload\n        /* \"#utility.yul\":9745:9778   */\n      swap3\n      pop\n        /* \"#utility.yul\":9797:9835   */\n      tag_746\n        /* \"#utility.yul\":9831:9833   */\n      0x20\n        /* \"#utility.yul\":9820:9829   */\n      dup6\n        /* \"#utility.yul\":9816:9834   */\n      add\n        /* \"#utility.yul\":9797:9835   */\n      tag_686\n      jump\t// in\n        /* \"#utility.yul\":9897:10244   */\n    tag_183:\n        /* \"#utility.yul\":9962:9968   */\n      0x00\n        /* \"#utility.yul\":9970:9976   */\n      dup1\n        /* \"#utility.yul\":10023:10025   */\n      0x40\n        /* \"#utility.yul\":10011:10020   */\n      dup4\n        /* \"#utility.yul\":10002:10009   */\n      dup6\n        /* \"#utility.yul\":9998:10021   */\n      sub\n        /* \"#utility.yul\":9994:10026   */\n      slt\n        /* \"#utility.yul\":9991:10043   */\n      iszero\n      tag_790\n      jumpi\n        /* \"#utility.yul\":10039:10040   */\n      0x00\n        /* \"#utility.yul\":10036:10037   */\n      dup1\n        /* \"#utility.yul\":10029:10041   */\n      revert\n        /* \"#utility.yul\":9991:10043   */\n    tag_790:\n        /* \"#utility.yul\":10062:10091   */\n      tag_791\n        /* \"#utility.yul\":10081:10090   */\n      dup4\n        /* \"#utility.yul\":10062:10091   */\n      tag_686\n      jump\t// in\n    tag_791:\n        /* \"#utility.yul\":10052:10091   */\n      swap2\n      pop\n        /* \"#utility.yul\":10141:10143   */\n      0x20\n        /* \"#utility.yul\":10130:10139   */\n      dup4\n        /* \"#utility.yul\":10126:10144   */\n      add\n        /* \"#utility.yul\":10113:10145   */\n      calldataload\n        /* \"#utility.yul\":10188:10193   */\n      dup1\n        /* \"#utility.yul\":10181:10194   */\n      iszero\n        /* \"#utility.yul\":10174:10195   */\n      iszero\n        /* \"#utility.yul\":10167:10172   */\n      dup2\n        /* \"#utility.yul\":10164:10196   */\n      eq\n        /* \"#utility.yul\":10154:10214   */\n      tag_792\n      jumpi\n        /* \"#utility.yul\":10210:10211   */\n      0x00\n        /* \"#utility.yul\":10207:10208   */\n      dup1\n        /* \"#utility.yul\":10200:10212   */\n      revert\n        /* \"#utility.yul\":10154:10214   */\n    tag_792:\n        /* \"#utility.yul\":10233:10238   */\n      dup1\n        /* \"#utility.yul\":10223:10238   */\n      swap2\n      pop\n      pop\n        /* \"#utility.yul\":9897:10244   */\n      swap3\n      pop\n      swap3\n      swap1\n      pop\n      jump\t// out\n        /* \"#utility.yul\":10249:10623   */\n    tag_692:\n        /* \"#utility.yul\":10319:10327   */\n      0x00\n        /* \"#utility.yul\":10329:10335   */\n      dup1\n        /* \"#utility.yul\":10383:10386   */\n      dup4\n        /* \"#utility.yul\":10376:10380   */\n      0x1f\n        /* \"#utility.yul\":10368:10374   */\n      dup5\n        /* \"#utility.yul\":10364:10381   */\n      add\n        /* \"#utility.yul\":10360:10387   */\n      slt\n        /* \"#utility.yul\":10350:10405   */\n      tag_794\n      jumpi\n        /* \"#utility.yul\":10401:10402   */\n      0x00\n        /* \"#utility.yul\":10398:10399   */\n      dup1\n        /* \"#utility.yul\":10391:10403   */\n      revert\n        /* \"#utility.yul\":10350:10405   */\n    tag_794:\n      pop\n        /* \"#utility.yul\":10424:10444   */\n      dup2\n      calldataload\n        /* \"#utility.yul\":10467:10485   */\n      0xffffffffffffffff\n        /* \"#utility.yul\":10456:10486   */\n      dup2\n      gt\n        /* \"#utility.yul\":10453:10503   */\n      iszero\n      tag_795\n      jumpi\n        /* \"#utility.yul\":10499:10500   */\n      0x00\n        /* \"#utility.yul\":10496:10497   */\n      dup1\n        /* \"#utility.yul\":10489:10501   */\n      revert\n        /* \"#utility.yul\":10453:10503   */\n    tag_795:\n        /* \"#utility.yul\":10536:10540   */\n      0x20\n        /* \"#utility.yul\":10528:10534   */\n      dup4\n        /* \"#utility.yul\":10524:10541   */\n      add\n        /* \"#utility.yul\":10512:10541   */\n      swap2\n      pop\n        /* \"#utility.yul\":10596:10599   */\n      dup4\n        /* \"#utility.yul\":10589:10593   */\n      0x20\n        /* \"#utility.yul\":10579:10585   */\n      dup3\n        /* \"#utility.yul\":10576:10577   */\n      0x05\n        /* \"#utility.yul\":10572:10586   */\n      shl\n        /* \"#utility.yul\":10564:10570   */\n      dup6\n        /* \"#utility.yul\":10560:10587   */\n      add\n        /* \"#utility.yul\":10556:10594   */\n      add\n        /* \"#utility.yul\":10553:10600   */\n      gt\n        /* \"#utility.yul\":10550:10617   */\n      iszero\n      tag_796\n      jumpi\n        /* \"#utility.yul\":10613:10614   */\n      0x00\n        /* \"#utility.yul\":10610:10611   */\n      dup1\n        /* \"#utility.yul\":10603:10615   */\n      revert\n        /* \"#utility.yul\":10550:10617   */\n    tag_796:\n        /* \"#utility.yul\":10249:10623   */\n      swap3\n      pop\n      swap3\n      swap1\n      pop\n      jump\t// out\n        /* \"#utility.yul\":10628:11083   */\n    tag_187:\n        /* \"#utility.yul\":10725:10731   */\n      0x00\n        /* \"#utility.yul\":10733:10739   */\n      dup1\n        /* \"#utility.yul\":10786:10788   */\n      0x20\n        /* \"#utility.yul\":10774:10783   */\n      dup4\n        /* \"#utility.yul\":10765:10772   */\n      dup6\n        /* \"#utility.yul\":10761:10784   */\n      sub\n        /* \"#utility.yul\":10757:10789   */\n      slt\n        /* \"#utility.yul\":10754:10806   */\n      iszero\n      tag_798\n      jumpi\n        /* \"#utility.yul\":10802:10803   */\n      0x00\n        /* \"#utility.yul\":10799:10800   */\n      dup1\n        /* \"#utility.yul\":10792:10804   */\n      revert\n        /* \"#utility.yul\":10754:10806   */\n    tag_798:\n        /* \"#utility.yul\":10842:10851   */\n      dup3\n        /* \"#utility.yul\":10829:10852   */\n      calldataload\n        /* \"#utility.yul\":10875:10893   */\n      0xffffffffffffffff\n        /* \"#utility.yul\":10867:10873   */\n      dup2\n        /* \"#utility.yul\":10864:10894   */\n      gt\n        /* \"#utility.yul\":10861:10911   */\n      iszero\n      tag_799\n      jumpi\n        /* \"#utility.yul\":10907:10908   */\n      0x00\n        /* \"#utility.yul\":10904:10905   */\n      dup1\n        /* \"#utility.yul\":10897:10909   */\n      revert\n        /* \"#utility.yul\":10861:10911   */\n    tag_799:\n        /* \"#utility.yul\":10946:11023   */\n      tag_800\n        /* \"#utility.yul\":11015:11022   */\n      dup6\n        /* \"#utility.yul\":11006:11012   */\n      dup3\n        /* \"#utility.yul\":10995:11004   */\n      dup7\n        /* \"#utility.yul\":10991:11013   */\n      add\n        /* \"#utility.yul\":10946:11023   */\n      tag_692\n      jump\t// in\n    tag_800:\n        /* \"#utility.yul\":11042:11050   */\n      swap1\n      swap7\n        /* \"#utility.yul\":10920:11023   */\n      swap1\n      swap6\n      pop\n        /* \"#utility.yul\":10628:11083   */\n      swap4\n      pop\n      pop\n      pop\n      pop\n      jump\t// out\n        /* \"#utility.yul\":11088:11900   */\n    tag_190:\n        /* \"#utility.yul\":11248:11252   */\n      0x00\n        /* \"#utility.yul\":11277:11279   */\n      0x20\n        /* \"#utility.yul\":11317:11319   */\n      dup1\n        /* \"#utility.yul\":11306:11315   */\n      dup4\n        /* \"#utility.yul\":11302:11320   */\n      add\n        /* \"#utility.yul\":11347:11349   */\n      0x20\n        /* \"#utility.yul\":11336:11345   */\n      dup5\n        /* \"#utility.yul\":11329:11350   */\n      mstore\n        /* \"#utility.yul\":11370:11376   */\n      dup1\n        /* \"#utility.yul\":11405:11411   */\n      dup6\n        /* \"#utility.yul\":11399:11412   */\n      mload\n        /* \"#utility.yul\":11436:11442   */\n      dup1\n        /* \"#utility.yul\":11428:11434   */\n      dup4\n        /* \"#utility.yul\":11421:11443   */\n      mstore\n        /* \"#utility.yul\":11474:11476   */\n      0x40\n        /* \"#utility.yul\":11463:11472   */\n      dup7\n        /* \"#utility.yul\":11459:11477   */\n      add\n        /* \"#utility.yul\":11452:11477   */\n      swap2\n      pop\n        /* \"#utility.yul\":11536:11538   */\n      0x40\n        /* \"#utility.yul\":11526:11532   */\n      dup2\n        /* \"#utility.yul\":11523:11524   */\n      0x05\n        /* \"#utility.yul\":11519:11533   */\n      shl\n        /* \"#utility.yul\":11508:11517   */\n      dup8\n        /* \"#utility.yul\":11504:11534   */\n      add\n        /* \"#utility.yul\":11500:11539   */\n      add\n        /* \"#utility.yul\":11486:11539   */\n      swap3\n      pop\n        /* \"#utility.yul\":11574:11576   */\n      0x20\n        /* \"#utility.yul\":11566:11572   */\n      dup8\n        /* \"#utility.yul\":11562:11577   */\n      add\n        /* \"#utility.yul\":11595:11596   */\n      0x00\n        /* \"#utility.yul\":11605:11871   */\n    tag_802:\n        /* \"#utility.yul\":11619:11625   */\n      dup3\n        /* \"#utility.yul\":11616:11617   */\n      dup2\n        /* \"#utility.yul\":11613:11626   */\n      lt\n        /* \"#utility.yul\":11605:11871   */\n      iszero\n      tag_804\n      jumpi\n        /* \"#utility.yul\":11712:11714   */\n      0x3f\n        /* \"#utility.yul\":11708:11715   */\n      not\n        /* \"#utility.yul\":11696:11705   */\n      dup9\n        /* \"#utility.yul\":11688:11694   */\n      dup7\n        /* \"#utility.yul\":11684:11706   */\n      sub\n        /* \"#utility.yul\":11680:11716   */\n      add\n        /* \"#utility.yul\":11675:11678   */\n      dup5\n        /* \"#utility.yul\":11668:11717   */\n      mstore\n        /* \"#utility.yul\":11740:11791   */\n      tag_805\n        /* \"#utility.yul\":11784:11790   */\n      dup6\n        /* \"#utility.yul\":11775:11781   */\n      dup4\n        /* \"#utility.yul\":11769:11782   */\n      mload\n        /* \"#utility.yul\":11740:11791   */\n      tag_690\n      jump\t// in\n    tag_805:\n        /* \"#utility.yul\":11730:11791   */\n      swap5\n      pop\n        /* \"#utility.yul\":11849:11861   */\n      swap3\n      dup6\n      add\n      swap3\n        /* \"#utility.yul\":11814:11829   */\n      swap1\n      dup6\n      add\n      swap1\n        /* \"#utility.yul\":11641:11642   */\n      0x01\n        /* \"#utility.yul\":11634:11643   */\n      add\n        /* \"#utility.yul\":11605:11871   */\n      jump(tag_802)\n    tag_804:\n      pop\n        /* \"#utility.yul\":11888:11894   */\n      swap3\n      swap8\n        /* \"#utility.yul\":11088:11900   */\n      swap7\n      pop\n      pop\n      pop\n      pop\n      pop\n      pop\n      pop\n      jump\t// out\n        /* \"#utility.yul\":11905:12443   */\n    tag_196:\n        /* \"#utility.yul\":12000:12006   */\n      0x00\n        /* \"#utility.yul\":12008:12014   */\n      dup1\n        /* \"#utility.yul\":12016:12022   */\n      0x00\n        /* \"#utility.yul\":12024:12030   */\n      dup1\n        /* \"#utility.yul\":12077:12080   */\n      0x80\n        /* \"#utility.yul\":12065:12074   */\n      dup6\n        /* \"#utility.yul\":12056:12063   */\n      dup8\n        /* \"#utility.yul\":12052:12075   */\n      sub\n        /* \"#utility.yul\":12048:12081   */\n      slt\n        /* \"#utility.yul\":12045:12098   */\n      iszero\n      tag_807\n      jumpi\n        /* \"#utility.yul\":12094:12095   */\n      0x00\n        /* \"#utility.yul\":12091:12092   */\n      dup1\n        /* \"#utility.yul\":12084:12096   */\n      revert\n        /* \"#utility.yul\":12045:12098   */\n    tag_807:\n        /* \"#utility.yul\":12117:12146   */\n      tag_808\n        /* \"#utility.yul\":12136:12145   */\n      dup6\n        /* \"#utility.yul\":12117:12146   */\n      tag_686\n      jump\t// in\n    tag_808:\n        /* \"#utility.yul\":12107:12146   */\n      swap4\n      pop\n        /* \"#utility.yul\":12165:12203   */\n      tag_809\n        /* \"#utility.yul\":12199:12201   */\n      0x20\n        /* \"#utility.yul\":12188:12197   */\n      dup7\n        /* \"#utility.yul\":12184:12202   */\n      add\n        /* \"#utility.yul\":12165:12203   */\n      tag_686\n      jump\t// in\n    tag_809:\n        /* \"#utility.yul\":12155:12203   */\n      swap3\n      pop\n        /* \"#utility.yul\":12250:12252   */\n      0x40\n        /* \"#utility.yul\":12239:12248   */\n      dup6\n        /* \"#utility.yul\":12235:12253   */\n      add\n        /* \"#utility.yul\":12222:12254   */\n      calldataload\n        /* \"#utility.yul\":12212:12254   */\n      swap2\n      pop\n        /* \"#utility.yul\":12305:12307   */\n      0x60\n        /* \"#utility.yul\":12294:12303   */\n      dup6\n        /* \"#utility.yul\":12290:12308   */\n      add\n        /* \"#utility.yul\":12277:12309   */\n      calldataload\n        /* \"#utility.yul\":12332:12350   */\n      0xffffffffffffffff\n        /* \"#utility.yul\":12324:12330   */\n      dup2\n        /* \"#utility.yul\":12321:12351   */\n      gt\n        /* \"#utility.yul\":12318:12368   */\n      iszero\n      tag_810\n      jumpi\n        /* \"#utility.yul\":12364:12365   */\n      0x00\n        /* \"#utility.yul\":12361:12362   */\n      dup1\n        /* \"#utility.yul\":12354:12366   */\n      revert\n        /* \"#utility.yul\":12318:12368   */\n    tag_810:\n        /* \"#utility.yul\":12387:12437   */\n      tag_774\n        /* \"#utility.yul\":12429:12436   */\n      dup8\n        /* \"#utility.yul\":12420:12426   */\n      dup3\n        /* \"#utility.yul\":12409:12418   */\n      dup9\n        /* \"#utility.yul\":12405:12427   */\n      add\n        /* \"#utility.yul\":12387:12437   */\n      tag_688\n      jump\t// in\n        /* \"#utility.yul\":12448:12715   */\n    tag_205:\n        /* \"#utility.yul\":6638:6650   */\n      dup2\n      mload\n      sub(shl(0xa0, 0x01), 0x01)\n        /* \"#utility.yul\":6634:6695   */\n      and\n        /* \"#utility.yul\":6622:6696   */\n      dup2\n      mstore\n        /* \"#utility.yul\":6749:6753   */\n      0x20\n        /* \"#utility.yul\":6738:6754   */\n      dup1\n      dup4\n      add\n        /* \"#utility.yul\":6732:6755   */\n      mload\n        /* \"#utility.yul\":6757:6775   */\n      0xffffffffffffffff\n        /* \"#utility.yul\":6728:6776   */\n      and\n        /* \"#utility.yul\":6712:6726   */\n      swap1\n      dup3\n      add\n        /* \"#utility.yul\":6705:6777   */\n      mstore\n        /* \"#utility.yul\":6840:6844   */\n      0x40\n        /* \"#utility.yul\":6829:6845   */\n      dup1\n      dup4\n      add\n        /* \"#utility.yul\":6823:6846   */\n      mload\n        /* \"#utility.yul\":6816:6847   */\n      iszero\n        /* \"#utility.yul\":6809:6848   */\n      iszero\n        /* \"#utility.yul\":6793:6807   */\n      swap1\n      dup3\n      add\n        /* \"#utility.yul\":6786:6849   */\n      mstore\n        /* \"#utility.yul\":12646:12648   */\n      0x60\n        /* \"#utility.yul\":12631:12649   */\n      dup2\n      add\n        /* \"#utility.yul\":12658:12709   */\n      tag_236\n        /* \"#utility.yul\":6554:6855   */\n      jump\n        /* \"#utility.yul\":12720:13519   */\n    tag_212:\n        /* \"#utility.yul\":12854:12860   */\n      0x00\n        /* \"#utility.yul\":12862:12868   */\n      dup1\n        /* \"#utility.yul\":12870:12876   */\n      0x00\n        /* \"#utility.yul\":12878:12884   */\n      dup1\n        /* \"#utility.yul\":12931:12933   */\n      0x40\n        /* \"#utility.yul\":12919:12928   */\n      dup6\n        /* \"#utility.yul\":12910:12917   */\n      dup8\n        /* \"#utility.yul\":12906:12929   */\n      sub\n        /* \"#utility.yul\":12902:12934   */\n      slt\n        /* \"#utility.yul\":12899:12951   */\n      iszero\n      tag_815\n      jumpi\n        /* \"#utility.yul\":12947:12948   */\n      0x00\n        /* \"#utility.yul\":12944:12945   */\n      dup1\n        /* \"#utility.yul\":12937:12949   */\n      revert\n        /* \"#utility.yul\":12899:12951   */\n    tag_815:\n        /* \"#utility.yul\":12987:12996   */\n      dup5\n        /* \"#utility.yul\":12974:12997   */\n      calldataload\n        /* \"#utility.yul\":13016:13034   */\n      0xffffffffffffffff\n        /* \"#utility.yul\":13057:13059   */\n      dup1\n        /* \"#utility.yul\":13049:13055   */\n      dup3\n        /* \"#utility.yul\":13046:13060   */\n      gt\n        /* \"#utility.yul\":13043:13077   */\n      iszero\n      tag_816\n      jumpi\n        /* \"#utility.yul\":13073:13074   */\n      0x00\n        /* \"#utility.yul\":13070:13071   */\n      dup1\n        /* \"#utility.yul\":13063:13075   */\n      revert\n        /* \"#utility.yul\":13043:13077   */\n    tag_816:\n        /* \"#utility.yul\":13112:13189   */\n      tag_817\n        /* \"#utility.yul\":13181:13188   */\n      dup9\n        /* \"#utility.yul\":13172:13178   */\n      dup4\n        /* \"#utility.yul\":13161:13170   */\n      dup10\n        /* \"#utility.yul\":13157:13179   */\n      add\n        /* \"#utility.yul\":13112:13189   */\n      tag_692\n      jump\t// in\n    tag_817:\n        /* \"#utility.yul\":13208:13216   */\n      swap1\n      swap7\n      pop\n        /* \"#utility.yul\":13086:13189   */\n      swap5\n      pop\n        /* \"#utility.yul\":13296:13298   */\n      0x20\n        /* \"#utility.yul\":13281:13299   */\n      dup8\n      add\n        /* \"#utility.yul\":13268:13300   */\n      calldataload\n      swap2\n      pop\n        /* \"#utility.yul\":13312:13328   */\n      dup1\n      dup3\n      gt\n        /* \"#utility.yul\":13309:13345   */\n      iszero\n      tag_818\n      jumpi\n        /* \"#utility.yul\":13341:13342   */\n      0x00\n        /* \"#utility.yul\":13338:13339   */\n      dup1\n        /* \"#utility.yul\":13331:13343   */\n      revert\n        /* \"#utility.yul\":13309:13345   */\n    tag_818:\n      pop\n        /* \"#utility.yul\":13380:13459   */\n      tag_819\n        /* \"#utility.yul\":13451:13458   */\n      dup8\n        /* \"#utility.yul\":13440:13448   */\n      dup3\n        /* \"#utility.yul\":13429:13438   */\n      dup9\n        /* \"#utility.yul\":13425:13449   */\n      add\n        /* \"#utility.yul\":13380:13459   */\n      tag_692\n      jump\t// in\n    tag_819:\n        /* \"#utility.yul\":12720:13519   */\n      swap6\n      swap9\n      swap5\n      swap8\n      pop\n        /* \"#utility.yul\":13478:13486   */\n      swap6\n      pop\n      pop\n      pop\n      pop\n        /* \"#utility.yul\":12720:13519   */\n      jump\t// out\n        /* \"#utility.yul\":13524:13784   */\n    tag_219:\n        /* \"#utility.yul\":13592:13598   */\n      0x00\n        /* \"#utility.yul\":13600:13606   */\n      dup1\n        /* \"#utility.yul\":13653:13655   */\n      0x40\n        /* \"#utility.yul\":13641:13650   */\n      dup4\n        /* \"#utility.yul\":13632:13639   */\n      dup6\n        /* \"#utility.yul\":13628:13651   */\n      sub\n        /* \"#utility.yul\":13624:13656   */\n      slt\n        /* \"#utility.yul\":13621:13673   */\n      iszero\n      tag_821\n      jumpi\n        /* \"#utility.yul\":13669:13670   */\n      0x00\n        /* \"#utility.yul\":13666:13667   */\n      dup1\n        /* \"#utility.yul\":13659:13671   */\n      revert\n        /* \"#utility.yul\":13621:13673   */\n    tag_821:\n        /* \"#utility.yul\":13692:13721   */\n      tag_822\n        /* \"#utility.yul\":13711:13720   */\n      dup4\n        /* \"#utility.yul\":13692:13721   */\n      tag_686\n      jump\t// in\n    tag_822:\n        /* \"#utility.yul\":13682:13721   */\n      swap2\n      pop\n        /* \"#utility.yul\":13740:13778   */\n      tag_823\n        /* \"#utility.yul\":13774:13776   */\n      0x20\n        /* \"#utility.yul\":13763:13772   */\n      dup5\n        /* \"#utility.yul\":13759:13777   */\n      add\n        /* \"#utility.yul\":13740:13778   */\n      tag_686\n      jump\t// in\n    tag_823:\n        /* \"#utility.yul\":13730:13778   */\n      swap1\n      pop\n        /* \"#utility.yul\":13524:13784   */\n      swap3\n      pop\n      swap3\n      swap1\n      pop\n      jump\t// out\n        /* \"#utility.yul\":14141:14521   */\n    tag_239:\n        /* \"#utility.yul\":14220:14221   */\n      0x01\n        /* \"#utility.yul\":14216:14228   */\n      dup2\n      dup2\n      shr\n      swap1\n        /* \"#utility.yul\":14263:14275   */\n      dup3\n      and\n      dup1\n        /* \"#utility.yul\":14284:14345   */\n      tag_826\n      jumpi\n        /* \"#utility.yul\":14338:14342   */\n      0x7f\n        /* \"#utility.yul\":14330:14336   */\n      dup3\n        /* \"#utility.yul\":14326:14343   */\n      and\n        /* \"#utility.yul\":14316:14343   */\n      swap2\n      pop\n        /* \"#utility.yul\":14284:14345   */\n    tag_826:\n        /* \"#utility.yul\":14391:14393   */\n      0x20\n        /* \"#utility.yul\":14383:14389   */\n      dup3\n        /* \"#utility.yul\":14380:14394   */\n      lt\n        /* \"#utility.yul\":14360:14378   */\n      dup2\n        /* \"#utility.yul\":14357:14395   */\n      sub\n        /* \"#utility.yul\":14354:14515   */\n      tag_827\n      jumpi\n        /* \"#utility.yul\":14437:14447   */\n      0x4e487b71\n        /* \"#utility.yul\":14432:14435   */\n      0xe0\n        /* \"#utility.yul\":14428:14448   */\n      shl\n        /* \"#utility.yul\":14425:14426   */\n      0x00\n        /* \"#utility.yul\":14418:14449   */\n      mstore\n        /* \"#utility.yul\":14472:14476   */\n      0x22\n        /* \"#utility.yul\":14469:14470   */\n      0x04\n        /* \"#utility.yul\":14462:14477   */\n      mstore\n        /* \"#utility.yul\":14500:14504   */\n      0x24\n        /* \"#utility.yul\":14497:14498   */\n      0x00\n        /* \"#utility.yul\":14490:14505   */\n      revert\n        /* \"#utility.yul\":14354:14515   */\n    tag_827:\n      pop\n        /* \"#utility.yul\":14141:14521   */\n      swap2\n      swap1\n      pop\n      jump\t// out\n        /* \"#utility.yul\":15293:15420   */\n    tag_276:\n        /* \"#utility.yul\":15354:15364   */\n      0x4e487b71\n        /* \"#utility.yul\":15349:15352   */\n      0xe0\n        /* \"#utility.yul\":15345:15365   */\n      shl\n        /* \"#utility.yul\":15342:15343   */\n      0x00\n        /* \"#utility.yul\":15335:15366   */\n      mstore\n        /* \"#utility.yul\":15385:15389   */\n      0x32\n        /* \"#utility.yul\":15382:15383   */\n      0x04\n        /* \"#utility.yul\":15375:15390   */\n      mstore\n        /* \"#utility.yul\":15409:15413   */\n      0x24\n        /* \"#utility.yul\":15406:15407   */\n      0x00\n        /* \"#utility.yul\":15399:15414   */\n      revert\n        /* \"#utility.yul\":15425:15552   */\n    tag_693:\n        /* \"#utility.yul\":15486:15496   */\n      0x4e487b71\n        /* \"#utility.yul\":15481:15484   */\n      0xe0\n        /* \"#utility.yul\":15477:15497   */\n      shl\n        /* \"#utility.yul\":15474:15475   */\n      0x00\n        /* \"#utility.yul\":15467:15498   */\n      mstore\n        /* \"#utility.yul\":15517:15521   */\n      0x11\n        /* \"#utility.yul\":15514:15515   */\n      0x04\n        /* \"#utility.yul\":15507:15522   */\n      mstore\n        /* \"#utility.yul\":15541:15545   */\n      0x24\n        /* \"#utility.yul\":15538:15539   */\n      0x00\n        /* \"#utility.yul\":15531:15546   */\n      revert\n        /* \"#utility.yul\":15557:15725   */\n    tag_281:\n        /* \"#utility.yul\":15630:15639   */\n      dup1\n      dup3\n      mul\n        /* \"#utility.yul\":15661:15670   */\n      dup2\n      iszero\n        /* \"#utility.yul\":15678:15693   */\n      dup3\n      dup3\n      div\n        /* \"#utility.yul\":15672:15694   */\n      dup5\n      eq\n        /* \"#utility.yul\":15658:15695   */\n      or\n        /* \"#utility.yul\":15648:15719   */\n      tag_236\n      jumpi\n        /* \"#utility.yul\":15699:15717   */\n      tag_236\n      tag_693\n      jump\t// in\n        /* \"#utility.yul\":15730:15857   */\n    tag_694:\n        /* \"#utility.yul\":15791:15801   */\n      0x4e487b71\n        /* \"#utility.yul\":15786:15789   */\n      0xe0\n        /* \"#utility.yul\":15782:15802   */\n      shl\n        /* \"#utility.yul\":15779:15780   */\n      0x00\n        /* \"#utility.yul\":15772:15803   */\n      mstore\n        /* \"#utility.yul\":15822:15826   */\n      0x12\n        /* \"#utility.yul\":15819:15820   */\n      0x04\n        /* \"#utility.yul\":15812:15827   */\n      mstore\n        /* \"#utility.yul\":15846:15850   */\n      0x24\n        /* \"#utility.yul\":15843:15844   */\n      0x00\n        /* \"#utility.yul\":15836:15851   */\n      revert\n        /* \"#utility.yul\":15862:15982   */\n    tag_283:\n        /* \"#utility.yul\":15902:15903   */\n      0x00\n        /* \"#utility.yul\":15928:15929   */\n      dup3\n        /* \"#utility.yul\":15918:15953   */\n      tag_838\n      jumpi\n        /* \"#utility.yul\":15933:15951   */\n      tag_838\n      tag_694\n      jump\t// in\n    tag_838:\n      pop\n        /* \"#utility.yul\":15967:15976   */\n      div\n      swap1\n        /* \"#utility.yul\":15862:15982   */\n      jump\t// out\n        /* \"#utility.yul\":16401:16922   */\n    tag_411:\n        /* \"#utility.yul\":16478:16482   */\n      0x00\n        /* \"#utility.yul\":16484:16490   */\n      dup1\n        /* \"#utility.yul\":16544:16555   */\n      dup4\n        /* \"#utility.yul\":16531:16556   */\n      calldataload\n        /* \"#utility.yul\":16638:16640   */\n      0x1e\n        /* \"#utility.yul\":16634:16641   */\n      not\n        /* \"#utility.yul\":16623:16631   */\n      dup5\n        /* \"#utility.yul\":16607:16621   */\n      calldatasize\n        /* \"#utility.yul\":16603:16632   */\n      sub\n        /* \"#utility.yul\":16599:16642   */\n      add\n        /* \"#utility.yul\":16579:16597   */\n      dup2\n        /* \"#utility.yul\":16575:16643   */\n      slt\n        /* \"#utility.yul\":16565:16661   */\n      tag_841\n      jumpi\n        /* \"#utility.yul\":16657:16658   */\n      0x00\n        /* \"#utility.yul\":16654:16655   */\n      dup1\n        /* \"#utility.yul\":16647:16659   */\n      revert\n        /* \"#utility.yul\":16565:16661   */\n    tag_841:\n        /* \"#utility.yul\":16684:16717   */\n      dup4\n      add\n        /* \"#utility.yul\":16736:16756   */\n      dup1\n      calldataload\n      swap2\n      pop\n        /* \"#utility.yul\":16779:16797   */\n      0xffffffffffffffff\n        /* \"#utility.yul\":16768:16798   */\n      dup3\n      gt\n        /* \"#utility.yul\":16765:16815   */\n      iszero\n      tag_842\n      jumpi\n        /* \"#utility.yul\":16811:16812   */\n      0x00\n        /* \"#utility.yul\":16808:16809   */\n      dup1\n        /* \"#utility.yul\":16801:16813   */\n      revert\n        /* \"#utility.yul\":16765:16815   */\n    tag_842:\n        /* \"#utility.yul\":16844:16848   */\n      0x20\n        /* \"#utility.yul\":16832:16849   */\n      add\n      swap2\n      pop\n        /* \"#utility.yul\":16875:16889   */\n      calldatasize\n        /* \"#utility.yul\":16871:16898   */\n      dup2\n      swap1\n      sub\n        /* \"#utility.yul\":16861:16899   */\n      dup3\n      sgt\n        /* \"#utility.yul\":16858:16916   */\n      iszero\n      tag_796\n      jumpi\n        /* \"#utility.yul\":16912:16913   */\n      0x00\n        /* \"#utility.yul\":16909:16910   */\n      dup1\n        /* \"#utility.yul\":16902:16914   */\n      revert\n        /* \"#utility.yul\":16927:17287   */\n    tag_413:\n        /* \"#utility.yul\":17138:17144   */\n      dup3\n        /* \"#utility.yul\":17130:17136   */\n      dup5\n        /* \"#utility.yul\":17125:17128   */\n      dup3\n        /* \"#utility.yul\":17112:17145   */\n      calldatacopy\n        /* \"#utility.yul\":17208:17210   */\n      0x60\n        /* \"#utility.yul\":17204:17219   */\n      swap2\n      swap1\n      swap2\n      shl\n      not(0xffffffffffffffffffffffff)\n        /* \"#utility.yul\":17200:17253   */\n      and\n        /* \"#utility.yul\":17164:17180   */\n      swap2\n      add\n        /* \"#utility.yul\":17189:17254   */\n      swap1\n      dup2\n      mstore\n        /* \"#utility.yul\":17278:17280   */\n      0x14\n        /* \"#utility.yul\":17270:17281   */\n      add\n      swap2\n        /* \"#utility.yul\":16927:17287   */\n      swap1\n      pop\n      jump\t// out\n        /* \"#utility.yul\":17292:17504   */\n    tag_695:\n        /* \"#utility.yul\":17334:17337   */\n      0x00\n        /* \"#utility.yul\":17372:17377   */\n      dup2\n        /* \"#utility.yul\":17366:17378   */\n      mload\n        /* \"#utility.yul\":17416:17422   */\n      dup1\n        /* \"#utility.yul\":17409:17413   */\n      0x20\n        /* \"#utility.yul\":17402:17407   */\n      dup5\n        /* \"#utility.yul\":17398:17414   */\n      add\n        /* \"#utility.yul\":17393:17396   */\n      dup6\n        /* \"#utility.yul\":17387:17423   */\n      mcopy\n        /* \"#utility.yul\":17478:17479   */\n      0x00\n        /* \"#utility.yul\":17442:17458   */\n      swap4\n      add\n        /* \"#utility.yul\":17467:17480   */\n      swap3\n      dup4\n      mstore\n      pop\n        /* \"#utility.yul\":17442:17458   */\n      swap1\n      swap2\n        /* \"#utility.yul\":17292:17504   */\n      swap1\n      pop\n      jump\t// out\n        /* \"#utility.yul\":17509:17776   */\n    tag_458:\n        /* \"#utility.yul\":17688:17691   */\n      0x00\n        /* \"#utility.yul\":17713:17770   */\n      tag_294\n        /* \"#utility.yul\":17739:17769   */\n      tag_848\n        /* \"#utility.yul\":17765:17768   */\n      dup4\n        /* \"#utility.yul\":17757:17763   */\n      dup7\n        /* \"#utility.yul\":17739:17769   */\n      tag_695\n      jump\t// in\n    tag_848:\n        /* \"#utility.yul\":17731:17737   */\n      dup5\n        /* \"#utility.yul\":17713:17770   */\n      tag_695\n      jump\t// in\n        /* \"#utility.yul\":19131:19649   */\n    tag_697:\n        /* \"#utility.yul\":19233:19235   */\n      0x1f\n        /* \"#utility.yul\":19228:19231   */\n      dup3\n        /* \"#utility.yul\":19225:19236   */\n      gt\n        /* \"#utility.yul\":19222:19643   */\n      iszero\n      tag_249\n      jumpi\n        /* \"#utility.yul\":19269:19274   */\n      dup1\n        /* \"#utility.yul\":19266:19267   */\n      0x00\n        /* \"#utility.yul\":19259:19275   */\n      mstore\n        /* \"#utility.yul\":19313:19317   */\n      0x20\n        /* \"#utility.yul\":19310:19311   */\n      0x00\n        /* \"#utility.yul\":19300:19318   */\n      keccak256\n        /* \"#utility.yul\":19383:19385   */\n      0x1f\n        /* \"#utility.yul\":19371:19381   */\n      dup5\n        /* \"#utility.yul\":19367:19386   */\n      add\n        /* \"#utility.yul\":19364:19365   */\n      0x05\n        /* \"#utility.yul\":19360:19387   */\n      shr\n        /* \"#utility.yul\":19354:19358   */\n      dup2\n        /* \"#utility.yul\":19350:19388   */\n      add\n        /* \"#utility.yul\":19419:19423   */\n      0x20\n        /* \"#utility.yul\":19407:19417   */\n      dup6\n        /* \"#utility.yul\":19404:19424   */\n      lt\n        /* \"#utility.yul\":19401:19448   */\n      iszero\n      tag_858\n      jumpi\n      pop\n        /* \"#utility.yul\":19442:19446   */\n      dup1\n        /* \"#utility.yul\":19401:19448   */\n    tag_858:\n        /* \"#utility.yul\":19497:19499   */\n      0x1f\n        /* \"#utility.yul\":19492:19495   */\n      dup5\n        /* \"#utility.yul\":19488:19500   */\n      add\n        /* \"#utility.yul\":19485:19486   */\n      0x05\n        /* \"#utility.yul\":19481:19501   */\n      shr\n        /* \"#utility.yul\":19475:19479   */\n      dup3\n        /* \"#utility.yul\":19471:19502   */\n      add\n        /* \"#utility.yul\":19461:19502   */\n      swap2\n      pop\n        /* \"#utility.yul\":19552:19633   */\n    tag_859:\n        /* \"#utility.yul\":19570:19572   */\n      dup2\n        /* \"#utility.yul\":19563:19568   */\n      dup2\n        /* \"#utility.yul\":19560:19573   */\n      lt\n        /* \"#utility.yul\":19552:19633   */\n      iszero\n      tag_467\n      jumpi\n        /* \"#utility.yul\":19629:19630   */\n      0x00\n        /* \"#utility.yul\":19615:19631   */\n      dup2\n      sstore\n        /* \"#utility.yul\":19596:19597   */\n      0x01\n        /* \"#utility.yul\":19585:19598   */\n      add\n        /* \"#utility.yul\":19552:19633   */\n      jump(tag_859)\n        /* \"#utility.yul\":19825:21170   */\n    tag_491:\n        /* \"#utility.yul\":19951:19954   */\n      dup2\n        /* \"#utility.yul\":19945:19955   */\n      mload\n        /* \"#utility.yul\":19978:19996   */\n      0xffffffffffffffff\n        /* \"#utility.yul\":19970:19976   */\n      dup2\n        /* \"#utility.yul\":19967:19997   */\n      gt\n        /* \"#utility.yul\":19964:20020   */\n      iszero\n      tag_865\n      jumpi\n        /* \"#utility.yul\":20000:20018   */\n      tag_865\n      tag_302\n      jump\t// in\n    tag_865:\n        /* \"#utility.yul\":20029:20126   */\n      tag_866\n        /* \"#utility.yul\":20119:20125   */\n      dup2\n        /* \"#utility.yul\":20079:20117   */\n      tag_867\n        /* \"#utility.yul\":20111:20115   */\n      dup5\n        /* \"#utility.yul\":20105:20116   */\n      sload\n        /* \"#utility.yul\":20079:20117   */\n      tag_239\n      jump\t// in\n    tag_867:\n        /* \"#utility.yul\":20073:20077   */\n      dup5\n        /* \"#utility.yul\":20029:20126   */\n      tag_697\n      jump\t// in\n    tag_866:\n        /* \"#utility.yul\":20181:20185   */\n      0x20\n      dup1\n        /* \"#utility.yul\":20238:20240   */\n      0x1f\n        /* \"#utility.yul\":20227:20241   */\n      dup4\n      gt\n        /* \"#utility.yul\":20255:20256   */\n      0x01\n        /* \"#utility.yul\":20250:20913   */\n      dup2\n      eq\n      tag_869\n      jumpi\n        /* \"#utility.yul\":20957:20958   */\n      0x00\n        /* \"#utility.yul\":20974:20980   */\n      dup5\n        /* \"#utility.yul\":20971:21060   */\n      iszero\n      tag_870\n      jumpi\n      pop\n        /* \"#utility.yul\":21026:21045   */\n      dup6\n      dup4\n      add\n        /* \"#utility.yul\":21020:21046   */\n      mload\n        /* \"#utility.yul\":20971:21060   */\n    tag_870:\n      not(0x00)\n        /* \"#utility.yul\":19782:19783   */\n      0x03\n        /* \"#utility.yul\":19778:19789   */\n      dup7\n      swap1\n      shl\n        /* \"#utility.yul\":19774:19798   */\n      shr\n        /* \"#utility.yul\":19770:19799   */\n      not\n        /* \"#utility.yul\":19760:19800   */\n      and\n        /* \"#utility.yul\":19806:19807   */\n      0x01\n        /* \"#utility.yul\":19802:19813   */\n      dup6\n      swap1\n      shl\n        /* \"#utility.yul\":19757:19814   */\n      or\n        /* \"#utility.yul\":21073:21154   */\n      dup6\n      sstore\n        /* \"#utility.yul\":20220:21164   */\n      jump(tag_868)\n        /* \"#utility.yul\":20250:20913   */\n    tag_869:\n        /* \"#utility.yul\":19078:19079   */\n      0x00\n        /* \"#utility.yul\":19071:19085   */\n      dup6\n      dup2\n      mstore\n        /* \"#utility.yul\":19115:19119   */\n      0x20\n        /* \"#utility.yul\":19102:19120   */\n      dup2\n      keccak256\n      not(0x1f)\n        /* \"#utility.yul\":20286:20306   */\n      dup7\n      and\n      swap2\n        /* \"#utility.yul\":20404:20640   */\n    tag_873:\n        /* \"#utility.yul\":20418:20425   */\n      dup3\n        /* \"#utility.yul\":20415:20416   */\n      dup2\n        /* \"#utility.yul\":20412:20426   */\n      lt\n        /* \"#utility.yul\":20404:20640   */\n      iszero\n      tag_875\n      jumpi\n        /* \"#utility.yul\":20507:20526   */\n      dup9\n      dup7\n      add\n        /* \"#utility.yul\":20501:20527   */\n      mload\n        /* \"#utility.yul\":20486:20528   */\n      dup3\n      sstore\n        /* \"#utility.yul\":20599:20626   */\n      swap5\n      dup5\n      add\n      swap5\n        /* \"#utility.yul\":20567:20568   */\n      0x01\n        /* \"#utility.yul\":20555:20569   */\n      swap1\n      swap2\n      add\n      swap1\n        /* \"#utility.yul\":20434:20453   */\n      dup5\n      add\n        /* \"#utility.yul\":20404:20640   */\n      jump(tag_873)\n    tag_875:\n        /* \"#utility.yul\":20408:20411   */\n      pop\n        /* \"#utility.yul\":20668:20674   */\n      dup6\n        /* \"#utility.yul\":20659:20666   */\n      dup3\n        /* \"#utility.yul\":20656:20675   */\n      lt\n        /* \"#utility.yul\":20653:20854   */\n      iszero\n      tag_876\n      jumpi\n        /* \"#utility.yul\":20729:20748   */\n      dup8\n      dup6\n      add\n        /* \"#utility.yul\":20723:20749   */\n      mload\n      not(0x00)\n        /* \"#utility.yul\":20812:20813   */\n      0x03\n        /* \"#utility.yul\":20808:20822   */\n      dup9\n      swap1\n      shl\n        /* \"#utility.yul\":20824:20827   */\n      0xf8\n        /* \"#utility.yul\":20804:20828   */\n      and\n        /* \"#utility.yul\":20800:20837   */\n      shr\n        /* \"#utility.yul\":20796:20838   */\n      not\n        /* \"#utility.yul\":20781:20839   */\n      and\n        /* \"#utility.yul\":20766:20840   */\n      dup2\n      sstore\n        /* \"#utility.yul\":20653:20854   */\n    tag_876:\n      pop\n      pop\n        /* \"#utility.yul\":20900:20901   */\n      0x01\n        /* \"#utility.yul\":20891:20897   */\n      dup5\n        /* \"#utility.yul\":20888:20889   */\n      0x01\n        /* \"#utility.yul\":20884:20898   */\n      shl\n        /* \"#utility.yul\":20880:20902   */\n      add\n        /* \"#utility.yul\":20874:20878   */\n      dup6\n        /* \"#utility.yul\":20867:20903   */\n      sstore\n        /* \"#utility.yul\":20220:21164   */\n    tag_868:\n      pop\n      pop\n      pop\n      pop\n        /* \"#utility.yul\":19825:21170   */\n      pop\n      pop\n      jump\t// out\n        /* \"#utility.yul\":21440:21565   */\n    tag_576:\n        /* \"#utility.yul\":21505:21514   */\n      dup1\n      dup3\n      add\n        /* \"#utility.yul\":21526:21536   */\n      dup1\n      dup3\n      gt\n        /* \"#utility.yul\":21523:21559   */\n      iszero\n      tag_236\n      jumpi\n        /* \"#utility.yul\":21539:21557   */\n      tag_236\n      tag_693\n      jump\t// in\n        /* \"#utility.yul\":21570:21975   */\n    tag_589:\n        /* \"#utility.yul\":21767:21769   */\n      0x40\n        /* \"#utility.yul\":21756:21765   */\n      dup2\n        /* \"#utility.yul\":21749:21770   */\n      mstore\n        /* \"#utility.yul\":21730:21734   */\n      0x00\n        /* \"#utility.yul\":21793:21849   */\n      tag_882\n        /* \"#utility.yul\":21845:21847   */\n      0x40\n        /* \"#utility.yul\":21834:21843   */\n      dup4\n        /* \"#utility.yul\":21830:21848   */\n      add\n        /* \"#utility.yul\":21822:21828   */\n      dup6\n        /* \"#utility.yul\":21793:21849   */\n      tag_690\n      jump\t// in\n    tag_882:\n        /* \"#utility.yul\":21897:21906   */\n      dup3\n        /* \"#utility.yul\":21889:21895   */\n      dup2\n        /* \"#utility.yul\":21885:21907   */\n      sub\n        /* \"#utility.yul\":21880:21882   */\n      0x20\n        /* \"#utility.yul\":21869:21878   */\n      dup5\n        /* \"#utility.yul\":21865:21883   */\n      add\n        /* \"#utility.yul\":21858:21908   */\n      mstore\n        /* \"#utility.yul\":21925:21969   */\n      tag_883\n        /* \"#utility.yul\":21962:21968   */\n      dup2\n        /* \"#utility.yul\":21954:21960   */\n      dup6\n        /* \"#utility.yul\":21925:21969   */\n      tag_690\n      jump\t// in\n    tag_883:\n        /* \"#utility.yul\":21917:21969   */\n      swap6\n        /* \"#utility.yul\":21570:21975   */\n      swap5\n      pop\n      pop\n      pop\n      pop\n      pop\n      jump\t// out\n        /* \"#utility.yul\":21980:22503   */\n    tag_602:\n        /* \"#utility.yul\":22174:22178   */\n      0x00\n      sub(shl(0xa0, 0x01), 0x01)\n        /* \"#utility.yul\":22284:22286   */\n      dup1\n        /* \"#utility.yul\":22276:22282   */\n      dup8\n        /* \"#utility.yul\":22272:22287   */\n      and\n        /* \"#utility.yul\":22261:22270   */\n      dup4\n        /* \"#utility.yul\":22254:22288   */\n      mstore\n        /* \"#utility.yul\":22336:22338   */\n      dup1\n        /* \"#utility.yul\":22328:22334   */\n      dup7\n        /* \"#utility.yul\":22324:22339   */\n      and\n        /* \"#utility.yul\":22319:22321   */\n      0x20\n        /* \"#utility.yul\":22308:22317   */\n      dup5\n        /* \"#utility.yul\":22304:22322   */\n      add\n        /* \"#utility.yul\":22297:22340   */\n      mstore\n      pop\n        /* \"#utility.yul\":22376:22382   */\n      dup4\n        /* \"#utility.yul\":22371:22373   */\n      0x40\n        /* \"#utility.yul\":22360:22369   */\n      dup4\n        /* \"#utility.yul\":22356:22374   */\n      add\n        /* \"#utility.yul\":22349:22383   */\n      mstore\n        /* \"#utility.yul\":22419:22422   */\n      0x80\n        /* \"#utility.yul\":22414:22416   */\n      0x60\n        /* \"#utility.yul\":22403:22412   */\n      dup4\n        /* \"#utility.yul\":22399:22417   */\n      add\n        /* \"#utility.yul\":22392:22423   */\n      mstore\n        /* \"#utility.yul\":22440:22497   */\n      tag_669\n        /* \"#utility.yul\":22492:22495   */\n      0x80\n        /* \"#utility.yul\":22481:22490   */\n      dup4\n        /* \"#utility.yul\":22477:22496   */\n      add\n        /* \"#utility.yul\":22469:22475   */\n      dup5\n        /* \"#utility.yul\":22440:22497   */\n      tag_690\n      jump\t// in\n        /* \"#utility.yul\":22508:22757   */\n    tag_605:\n        /* \"#utility.yul\":22577:22583   */\n      0x00\n        /* \"#utility.yul\":22630:22632   */\n      0x20\n        /* \"#utility.yul\":22618:22627   */\n      dup3\n        /* \"#utility.yul\":22609:22616   */\n      dup5\n        /* \"#utility.yul\":22605:22628   */\n      sub\n        /* \"#utility.yul\":22601:22633   */\n      slt\n        /* \"#utility.yul\":22598:22650   */\n      iszero\n      tag_887\n      jumpi\n        /* \"#utility.yul\":22646:22647   */\n      0x00\n        /* \"#utility.yul\":22643:22644   */\n      dup1\n        /* \"#utility.yul\":22636:22648   */\n      revert\n        /* \"#utility.yul\":22598:22650   */\n    tag_887:\n        /* \"#utility.yul\":22678:22687   */\n      dup2\n        /* \"#utility.yul\":22672:22688   */\n      mload\n        /* \"#utility.yul\":22697:22727   */\n      tag_363\n        /* \"#utility.yul\":22721:22726   */\n      dup2\n        /* \"#utility.yul\":22697:22727   */\n      tag_689\n      jump\t// in\n        /* \"#utility.yul\":22762:22897   */\n    tag_639:\n        /* \"#utility.yul\":22801:22804   */\n      0x00\n        /* \"#utility.yul\":22822:22839   */\n      0x01\n      dup3\n      add\n        /* \"#utility.yul\":22819:22862   */\n      tag_891\n      jumpi\n        /* \"#utility.yul\":22842:22860   */\n      tag_891\n      tag_693\n      jump\t// in\n    tag_891:\n      pop\n        /* \"#utility.yul\":22889:22890   */\n      0x01\n        /* \"#utility.yul\":22878:22891   */\n      add\n      swap1\n        /* \"#utility.yul\":22762:22897   */\n      jump\t// out\n        /* \"#utility.yul\":22902:23030   */\n    tag_647:\n        /* \"#utility.yul\":22969:22978   */\n      dup2\n      dup2\n      sub\n        /* \"#utility.yul\":22990:23001   */\n      dup2\n      dup2\n      gt\n        /* \"#utility.yul\":22987:23024   */\n      iszero\n      tag_236\n      jumpi\n        /* \"#utility.yul\":23004:23022   */\n      tag_236\n      tag_693\n      jump\t// in\n        /* \"#utility.yul\":23035:23147   */\n    tag_649:\n        /* \"#utility.yul\":23067:23068   */\n      0x00\n        /* \"#utility.yul\":23093:23094   */\n      dup3\n        /* \"#utility.yul\":23083:23118   */\n      tag_897\n      jumpi\n        /* \"#utility.yul\":23098:23116   */\n      tag_897\n      tag_694\n      jump\t// in\n    tag_897:\n      pop\n        /* \"#utility.yul\":23132:23141   */\n      mod\n      swap1\n        /* \"#utility.yul\":23035:23147   */\n      jump\t// out\n        /* \"#utility.yul\":23629:23819   */\n    tag_665:\n        /* \"#utility.yul\":23758:23761   */\n      0x00\n        /* \"#utility.yul\":23783:23813   */\n      tag_363\n        /* \"#utility.yul\":23809:23812   */\n      dup3\n        /* \"#utility.yul\":23801:23807   */\n      dup5\n        /* \"#utility.yul\":23783:23813   */\n      tag_695\n      jump\t// in\n    stop\n    data_9fdcd12e4b726339b32a442b0a448365d5d85c96b2d2cff917b4f66c63110398 416464726573733a206c6f772d6c6576656c2064656c65676174652063616c6c206661696c6564\n\n    auxdata: 0xa2646970667358221220ddb6a49edf6749886e21e01ed1fc75f8da1612059a44103ef4e55e67c6619fb564736f6c63430008190033\n}\n",
    "bytecode": {
      "linkReferences": {},
      "object": "608060405234801561000f575f80fd5b506040516134b53803806134b583398101604081905261002e9161021b565b848484848483836002610041838261033f565b50600361004e828261033f565b50505f80555061005d8561007f565b610070826001600160801b0383166100d0565b505050505050505050506103fe565b600980546001600160a01b038381166001600160a01b0319831681179093556040519116919082907f8292fce18fa69edf4db7b94ea2e58241df0ae57f97e0a6c9b29067028bf92d76905f90a35050565b61271081111561010257604051630a4930ad60e31b815261271060048201526024810182905260440160405180910390fd5b600a80546001600160a01b0384166001600160b01b03199091168117600160a01b61ffff851602179091556040518281527f90d7ec04bcb8978719414f82e52e4cb651db41d0e6f8cea6118c2191e6183adb9060200160405180910390a25050565b80516001600160a01b038116811461017a575f80fd5b919050565b634e487b7160e01b5f52604160045260245ffd5b5f82601f8301126101a2575f80fd5b81516001600160401b03808211156101bc576101bc61017f565b604051601f8301601f19908116603f011681019082821181831017156101e4576101e461017f565b816040528381528660208588010111156101fc575f80fd5b8360208701602083015e5f602085830101528094505050505092915050565b5f805f805f60a0868803121561022f575f80fd5b61023886610164565b60208701519095506001600160401b0380821115610254575f80fd5b61026089838a01610193565b95506040880151915080821115610275575f80fd5b5061028288828901610193565b93505061029160608701610164565b60808701519092506001600160801b03811681146102ad575f80fd5b809150509295509295909350565b600181811c908216806102cf57607f821691505b6020821081036102ed57634e487b7160e01b5f52602260045260245ffd5b50919050565b601f82111561033a57805f5260205f20601f840160051c810160208510156103185750805b601f840160051c820191505b81811015610337575f8155600101610324565b50505b505050565b81516001600160401b038111156103585761035861017f565b61036c8161036684546102bb565b846102f3565b602080601f83116001811461039f575f84156103885750858301515b5f19600386901b1c1916600185901b1785556103f6565b5f85815260208120601f198616915b828110156103cd578886015182559484019460019091019084016103ae565b50858210156103ea57878501515f19600388901b60f8161c191681555b505060018460011b0185555b505050505050565b6130aa8061040b5f395ff3fe608060405234801561000f575f80fd5b50600436106102b6575f3560e01c806363b45e2d11610171578063a22cb465116100d2578063c23dc68f11610088578063d32812e71161006e578063d32812e71461060c578063e8a3d4851461061f578063e985e9c514610627575f80fd5b8063c23dc68f146105d9578063c87b56dd146105f9575f80fd5b8063b24f2d39116100b8578063b24f2d3914610595578063b88d4fde146105b3578063badb97ff146105c6575f80fd5b8063a22cb46514610562578063ac9650d814610575575f80fd5b80638da5cb5b1161012757806395d89b411161010d57806395d89b411461053457806399a2557a1461053c5780639bcf7a151461054f575f80fd5b80638da5cb5b14610510578063938e3d7b14610521575f80fd5b8063754a81d911610157578063754a81d9146104bb57806383040532146104ce5780638462151c146104f0575f80fd5b806363b45e2d146104a057806370a08231146104a8575f80fd5b80632419f51b1161021b578063430c2081116101d15780635bbb2177116101b75780635bbb21771461045a578063600dd5ea1461047a5780636352211e1461048d575f80fd5b8063430c2081146104125780634cc157df14610425575f80fd5b80633b1475a7116102015780633b1475a7146103e557806342842e0e146103ec57806342966c68146103ff575f80fd5b80632419f51b146103a05780632a55205a146103b3575f80fd5b8063095ea7b31161027057806313af40351161025657806313af40351461036557806318160ddd1461037857806323b872dd1461038d575f80fd5b8063095ea7b31461034a5780630fad0f511461035d575f80fd5b806306fdde03116102a057806306fdde03146102f75780630712249f1461030c578063081812fc1461031f575f80fd5b806275a317146102ba57806301ffc9a7146102cf575b5f80fd5b6102cd6102c83660046126d3565b61063c565b005b6102e26102dd366004612733565b6106c4565b60405190151581526020015b60405180910390f35b6102ff610730565b6040516102ee919061277c565b6102cd61031a36600461278e565b6107c0565b61033261032d36600461280a565b61084f565b6040516001600160a01b0390911681526020016102ee565b6102cd610358366004612821565b610891565b6102e2600181565b6102cd610373366004612849565b6108ff565b6001545f54035b6040519081526020016102ee565b6102cd61039b366004612862565b610930565b61037f6103ae36600461280a565b61093b565b6103c66103c136600461289b565b61098a565b604080516001600160a01b0390931683526020830191909152016102ee565b5f5461037f565b6102cd6103fa366004612862565b6109c5565b6102cd61040d36600461280a565b6109df565b6102e2610420366004612821565b6109ea565b61043861043336600461280a565b610a40565b604080516001600160a01b03909316835261ffff9091166020830152016102ee565b61046d6104683660046128bb565b610aaa565b6040516102ee919061295c565b6102cd610488366004612821565b610b6d565b61033261049b36600461280a565b610b9c565b600c5461037f565b61037f6104b6366004612849565b610bad565b6102cd6104c93660046129c6565b610bfa565b6102e26104dc36600461280a565b600e6020525f908152604090205460ff1681565b6105036104fe366004612849565b610c73565b6040516102ee9190612a3f565b6009546001600160a01b0316610332565b6102cd61052f366004612a76565b610dad565b6102ff610ddb565b61050361054a366004612aa8565b610dea565b6102cd61055d366004612ad8565b610f97565b6102cd610570366004612afa565b610fc7565b610588610583366004612b7b565b611035565b6040516102ee9190612bba565b600a546001600160a01b03811690600160a01b900461ffff16610438565b6102cd6105c1366004612c1c565b611199565b6102cd6105d436600461280a565b6111dd565b6105ec6105e736600461280a565b611232565b6040516102ee9190612c74565b6102ff61060736600461280a565b6112de565b6102cd61061a366004612caa565b6113c7565b6102ff611501565b6102e2610635366004612d11565b5f92915050565b61064461158d565b6106955760405162461bcd60e51b815260206004820152601760248201527f4e6f7420617574686f72697a656420746f206d696e742e00000000000000000060448201526064015b60405180910390fd5b6106a66106a05f5490565b826115b9565b6106c082600160405180602001604052805f815250611637565b5050565b5f6301ffc9a760e01b6001600160e01b0319831614806106f457506380ac58cd60e01b6001600160e01b03198316145b8061070f5750635b5e139f60e01b6001600160e01b03198316145b8061072a57506001600160e01b0319821663152a902d60e11b145b92915050565b60606002805461073f90612d42565b80601f016020809104026020016040519081016040528092919081815260200182805461076b90612d42565b80156107b65780601f1061078d576101008083540402835291602001916107b6565b820191905f5260205f20905b81548152906001019060200180831161079957829003601f168201915b5050505050905090565b6009546001600160a01b0316331461080b5760405162461bcd60e51b815260206004820152600e60248201526d139bdd08185d5d1a1bdc9a5e995960921b604482015260640161068c565b61084a8383838080601f0160208091040260200160405190810160405280939291908181526020018383808284375f9201919091525061180292505050565b505050565b5f61085982611828565b610876576040516333d1c03960e21b815260040160405180910390fd5b505f908152600660205260409020546001600160a01b031690565b60405162461bcd60e51b815260206004820152603760248201527f536572746966696b617420536f756c626f756e643a2046756e6773692070657260448201527f736574756a75616e2064696e6f6e616b7469666b616e21000000000000000000606482015260840161068c565b61090761158d565b610924576040516316ccb9cb60e11b815260040160405180910390fd5b61092d81611851565b50565b61084a8383836118af565b5f610945600c5490565b821061096757604051630793127760e11b81526004810183905260240161068c565b600c828154811061097a5761097a612d7a565b905f5260205f2001549050919050565b5f805f8061099786610a40565b90945084925061ffff1690506127106109b08287612da2565b6109ba9190612dcd565b925050509250929050565b61084a83838360405180602001604052805f815250611199565b61092d816001611aa2565b5f806109f583610b9c565b9050806001600160a01b0316846001600160a01b03161480610a1457505f5b80610a385750836001600160a01b0316610a2d8461084f565b6001600160a01b0316145b949350505050565b5f818152600b60209081526040808320815180830190925280546001600160a01b031680835260019091015492820192909252829115610a865780516020820151610aa0565b600a546001600160a01b03811690600160a01b900461ffff165b9250925050915091565b80516060905f8167ffffffffffffffff811115610ac957610ac9612622565b604051908082528060200260200182016040528015610b1257816020015b604080516060810182525f80825260208083018290529282015282525f19909201910181610ae75790505b5090505f5b828114610b6557610b40858281518110610b3357610b33612d7a565b6020026020010151611232565b828281518110610b5257610b52612d7a565b6020908102919091010152600101610b17565b509392505050565b610b7561158d565b610b9257604051636fae358160e11b815260040160405180910390fd5b6106c08282611c9e565b5f610ba682611d46565b5192915050565b5f6001600160a01b038216610bd5576040516323d3ad8160e21b815260040160405180910390fd5b506001600160a01b03165f9081526005602052604090205467ffffffffffffffff1690565b610c0261158d565b610c4e5760405162461bcd60e51b815260206004820152601760248201527f4e6f7420617574686f72697a656420746f206d696e742e000000000000000000604482015260640161068c565b610c60610c595f5490565b8484611e5d565b5050610c6d848483611637565b50505050565b60605f805f610c8185610bad565b90505f8167ffffffffffffffff811115610c9d57610c9d612622565b604051908082528060200260200182016040528015610cc6578160200160208202803683370190505b50604080516060810182525f808252602082018190529181018290529192505b838614610da1575f81815260046020908152604091829020825160608101845290546001600160a01b0381168252600160a01b810467ffffffffffffffff1692820192909252600160e01b90910460ff1615159181018290529250610d995781516001600160a01b031615610d5a57815194505b876001600160a01b0316856001600160a01b031603610d995780838780600101985081518110610d8c57610d8c612d7a565b6020026020010181815250505b600101610ce6565b50909695505050505050565b610db561158d565b610dd257604051639f7f092560e01b815260040160405180910390fd5b61092d81611ebf565b60606003805461073f90612d42565b6060818310610e0c57604051631960ccad60e11b815260040160405180910390fd5b5f805480841115610e1b578093505b5f610e2587610bad565b905084861015610e445785850381811015610e3e578091505b50610e47565b505f5b5f8167ffffffffffffffff811115610e6157610e61612622565b604051908082528060200260200182016040528015610e8a578160200160208202803683370190505b509050815f03610e9f579350610f9092505050565b5f610ea988611232565b90505f8160400151610eb9575080515b885b888114158015610ecb5750848714155b15610f84575f81815260046020908152604091829020825160608101845290546001600160a01b0381168252600160a01b810467ffffffffffffffff1692820192909252600160e01b90910460ff1615159181018290529350610f7c5782516001600160a01b031615610f3d57825191505b8a6001600160a01b0316826001600160a01b031603610f7c5780848880600101995081518110610f6f57610f6f612d7a565b6020026020010181815250505b600101610ebb565b50505092835250909150505b9392505050565b610f9f61158d565b610fbc57604051636fae358160e11b815260040160405180910390fd5b61084a838383611f98565b60405162461bcd60e51b815260206004820152602d60248201527f536572746966696b617420536f756c626f756e643a2044656c6567617369206460448201527f696e6f6e616b7469666b616e2100000000000000000000000000000000000000606482015260840161068c565b60608167ffffffffffffffff81111561105057611050612622565b60405190808252806020026020018201604052801561108357816020015b606081526020019060019003908161106e5790505b509050335f805b84811015611190578115611109576110e7308787848181106110ae576110ae612d7a565b90506020028101906110c09190612de0565b866040516020016110d393929190612e23565b604051602081830303815290604052612057565b8482815181106110f9576110f9612d7a565b6020026020010181905250611188565b61116a3087878481811061111f5761111f612d7a565b90506020028101906111319190612de0565b8080601f0160208091040260200160405190810160405280939291908181526020018383808284375f9201919091525061205792505050565b84828151811061117c5761117c612d7a565b60200260200101819052505b60010161108a565b50505092915050565b6111a48484846118af565b6001600160a01b0383163b15610c6d576111c08484848461207c565b610c6d576040516368d2bf6b60e11b815260040160405180910390fd5b6009546001600160a01b031633146112285760405162461bcd60e51b815260206004820152600e60248201526d139bdd08185d5d1a1bdc9a5e995960921b604482015260640161068c565b61092d815f611aa2565b60408051606080820183525f80835260208084018290528385018290528451928301855281835282018190529281018390529091505f5483106112755792915050565b505f82815260046020908152604091829020825160608101845290546001600160a01b0381168252600160a01b810467ffffffffffffffff1692820192909252600160e01b90910460ff1615801592820192909252906112d55792915050565b610f9083611d46565b5f818152600f60205260408120805460609291906112fb90612d42565b80601f016020809104026020016040519081016040528092919081815260200182805461132790612d42565b80156113725780601f1061134957610100808354040283529160200191611372565b820191905f5260205f20905b81548152906001019060200180831161135557829003601f168201915b505050505090505f815111156113885792915050565b5f61139284612163565b90508061139e856122d8565b6040516020016113af929190612e60565b60405160208183030381529060405292505050919050565b6009546001600160a01b031633146114125760405162461bcd60e51b815260206004820152600e60248201526d139bdd08185d5d1a1bdc9a5e995960921b604482015260640161068c565b8281146114615760405162461bcd60e51b815260206004820152601860248201527f4172726179206c656e67746873206d757374206d617463680000000000000000604482015260640161068c565b5f5b838110156114fa576114f285858381811061148057611480612d7a565b90506020020160208101906114959190612849565b8484848181106114a7576114a7612d7a565b90506020028101906114b99190612de0565b8080601f0160208091040260200160405190810160405280939291908181526020018383808284375f9201919091525061180292505050565b600101611463565b5050505050565b6008805461150e90612d42565b80601f016020809104026020016040519081016040528092919081815260200182805461153a90612d42565b80156115855780601f1061155c57610100808354040283529160200191611585565b820191905f5260205f20905b81548152906001019060200180831161156857829003601f168201915b505050505081565b5f6115a06009546001600160a01b031690565b6001600160a01b0316336001600160a01b031614905090565b5f828152600f6020526040902080546115d190612d42565b1590506116205760405162461bcd60e51b815260206004820152600f60248201527f55524920616c7265616479207365740000000000000000000000000000000000604482015260640161068c565b5f828152600f6020526040902061084a8282612eb8565b5f546001600160a01b03841661165f57604051622e076360e81b815260040160405180910390fd5b825f0361167f5760405163b562e8dd60e01b815260040160405180910390fd5b61168b5f8583866123ed565b6001600160a01b0384165f81815260056020908152604080832080546fffffffffffffffffffffffffffffffff19811667ffffffffffffffff8083168b0181169182176801000000000000000067ffffffffffffffff1990941690921783900481168b01811690920217909155858452600490925290912080546001600160e01b0319168317600160a01b42909316929092029190911790558190818501903b156117af575b60405182906001600160a01b038816905f907fddf252ad1be2c89b69c2b068fc378daa952ba7f163c4a11628f55a4df523b3ef908290a461177a5f87848060010195508761207c565b611797576040516368d2bf6b60e11b815260040160405180910390fd5b80821061173157825f54146117aa575f80fd5b6117f3565b5b6040516001830192906001600160a01b038816905f907fddf252ad1be2c89b69c2b068fc378daa952ba7f163c4a11628f55a4df523b3ef908290a48082106117b0575b505f908155610c6d9085838684565b5f5461180e81836115b9565b61084a83600160405180602001604052805f815250611637565b5f80548210801561072a5750505f90815260046020526040902054600160e01b900460ff161590565b600980546001600160a01b0383811673ffffffffffffffffffffffffffffffffffffffff19831681179093556040519116919082907f8292fce18fa69edf4db7b94ea2e58241df0ae57f97e0a6c9b29067028bf92d76905f90a35050565b5f6118b982611d46565b9050836001600160a01b0316815f01516001600160a01b0316146118ef5760405162a1148160e81b815260040160405180910390fd5b5f336001600160a01b038616148061190c575061190c8533610635565b8061192757503361191c8461084f565b6001600160a01b0316145b90508061194757604051632ce44b5f60e11b815260040160405180910390fd5b6001600160a01b03841661196e57604051633a954ecd60e21b815260040160405180910390fd5b61197b85858560016123ed565b6119865f848761248e565b6001600160a01b038581165f908152600560209081526040808320805467ffffffffffffffff1980821667ffffffffffffffff9283165f1901831617909255898616808652838620805493841693831660019081018416949094179055898652600490945282852080546001600160e01b031916909417600160a01b42909216919091021783558701808452922080549193909116611a59575f548214611a59578054602086015167ffffffffffffffff16600160a01b026001600160e01b03199091166001600160a01b038a16171781555b50505082846001600160a01b0316866001600160a01b03167fddf252ad1be2c89b69c2b068fc378daa952ba7f163c4a11628f55a4df523b3ef60405160405180910390a46114fa565b5f611aac83611d46565b80519091508215611b11575f336001600160a01b0383161480611ad45750611ad48233610635565b80611aef575033611ae48661084f565b6001600160a01b0316145b905080611b0f57604051632ce44b5f60e11b815260040160405180910390fd5b505b611b1e815f8660016123ed565b611b295f858361248e565b6001600160a01b038082165f81815260056020908152604080832080547001000000000000000000000000000000005f1967ffffffffffffffff80841691909101811667ffffffffffffffff19841681178390048216600190810183169093027fffffffffffffffff0000000000000000ffffffffffffffff0000000000000000909416179290921783558b8652600490945282852080547fffffff00ffffffffffffffffffffffffffffffffffffffffffffffffffffffff42909316600160a01b026001600160e01b03199091169097179690961716600160e01b178555918901808452922080549194909116611c55575f548214611c55578054602087015167ffffffffffffffff16600160a01b026001600160e01b03199091166001600160a01b038716171781555b50506040518692505f91506001600160a01b038416907fddf252ad1be2c89b69c2b068fc378daa952ba7f163c4a11628f55a4df523b3ef908390a4505060018054810190555050565b612710811115611ccc57604051630a4930ad60e31b815261271060048201526024810182905260440161068c565b600a80546001600160a01b0384167fffffffffffffffffffff000000000000000000000000000000000000000000009091168117600160a01b61ffff851602179091556040518281527f90d7ec04bcb8978719414f82e52e4cb651db41d0e6f8cea6118c2191e6183adb9060200160405180910390a25050565b604080516060810182525f8082526020820181905291810191909152815f54811015611e44575f81815260046020908152604091829020825160608101845290546001600160a01b0381168252600160a01b810467ffffffffffffffff1692820192909252600160e01b90910460ff16151591810182905290611e425780516001600160a01b031615611dda579392505050565b505f19015f81815260046020908152604091829020825160608101845290546001600160a01b038116808352600160a01b820467ffffffffffffffff1693830193909352600160e01b900460ff1615159281019290925215611e3d579392505050565b611dda565b505b604051636f96cda160e11b815260040160405180910390fd5b5f80611e698486612f78565b600c8054600181019091557fdf6966c971051c3d54ec59162606531493a51404a002842f56009d7e5cf4a8c7018190555f818152600d60205260409020909250829150611eb68482612eb8565b50935093915050565b5f60088054611ecd90612d42565b80601f0160208091040260200160405190810160405280929190818152602001828054611ef990612d42565b8015611f445780601f10611f1b57610100808354040283529160200191611f44565b820191905f5260205f20905b815481529060010190602001808311611f2757829003601f168201915b505050505090508160089081611f5a9190612eb8565b507fc9c7c3fe08b88b4df9d4d47ef47d2c43d55c025a0ba88ca442580ed9e7348a168183604051611f8c929190612f8b565b60405180910390a15050565b612710811115611fc657604051630a4930ad60e31b815261271060048201526024810182905260440161068c565b6040805180820182526001600160a01b0384811680835260208084018681525f898152600b83528690209451855473ffffffffffffffffffffffffffffffffffffffff1916941693909317845591516001909301929092559151838152909185917f7365cf4122f072a3365c20d54eff9b38d73c096c28e1892ec8f5b0e403a0f12d910160405180910390a3505050565b6060610f90838360405180606001604052806027815260200161304e602791396124f6565b604051630a85bd0160e11b81525f906001600160a01b0385169063150b7a02906120b0903390899088908890600401612fb8565b6020604051808303815f875af19250505080156120ea575060408051601f3d908101601f191682019092526120e791810190612fe9565b60015b612146573d808015612117576040519150601f19603f3d011682016040523d82523d5f602084013e61211c565b606091505b5080515f0361213e576040516368d2bf6b60e11b815260040160405180910390fd5b805181602001fd5b6001600160e01b031916630a85bd0160e11b149050949350505050565b60605f61216f600c5490565b90505f600c8054806020026020016040519081016040528092919081815260200182805480156121bc57602002820191905f5260205f20905b8154815260200190600101908083116121a8575b505050505090505f5b828110156122bb578181815181106121df576121df612d7a565b60200260200101518510156122a957600d5f83838151811061220357612203612d7a565b602002602001015181526020019081526020015f20805461222390612d42565b80601f016020809104026020016040519081016040528092919081815260200182805461224f90612d42565b801561229a5780601f106122715761010080835404028352916020019161229a565b820191905f5260205f20905b81548152906001019060200180831161227d57829003601f168201915b50505050509350505050919050565b6122b4600182612f78565b90506121c5565b506040516309797f6960e21b81526004810185905260240161068c565b6060815f036122fe5750506040805180820190915260018152600360fc1b602082015290565b815f5b8115612327578061231181613004565b91506123209050600a83612dcd565b9150612301565b5f8167ffffffffffffffff81111561234157612341612622565b6040519080825280601f01601f19166020018201604052801561236b576020820181803683370190505b5090505b8415610a385761238060018361301c565b915061238d600a8661302f565b612398906030612f78565b60f81b8183815181106123ad576123ad612d7a565b60200101907effffffffffffffffffffffffffffffffffffffffffffffffffffffffffffff191690815f1a9053506123e6600a86612dcd565b945061236f565b6001600160a01b0384161580159061240d57506001600160a01b03831615155b15610c6d5760405162461bcd60e51b8152602060048201526044602482018190527f536572746966696b617420696e69206164616c6168204b726564656e7369616c908201527f20536f756c626f756e642064616e20746964616b20626973612064697472616e60648201526339b332b960e11b608482015260a40161068c565b5f82815260066020526040808220805473ffffffffffffffffffffffffffffffffffffffff19166001600160a01b0387811691821790925591518593918516917f8c5be1e5ebec7d5bd14f71427d1e84f3dd0314c0f7b2291e5b200ac8c7c3b92591a4505050565b60605f80856001600160a01b0316856040516125129190613042565b5f60405180830381855af49150503d805f811461254a576040519150601f19603f3d011682016040523d82523d5f602084013e61254f565b606091505b50915091506125608683838761256a565b9695505050505050565b606083156125d85782515f036125d1576001600160a01b0385163b6125d15760405162461bcd60e51b815260206004820152601d60248201527f416464726573733a2063616c6c20746f206e6f6e2d636f6e7472616374000000604482015260640161068c565b5081610a38565b610a3883838151156125ed5781518083602001fd5b8060405162461bcd60e51b815260040161068c919061277c565b80356001600160a01b038116811461261d575f80fd5b919050565b634e487b7160e01b5f52604160045260245ffd5b604051601f8201601f1916810167ffffffffffffffff8111828210171561265f5761265f612622565b604052919050565b5f82601f830112612676575f80fd5b813567ffffffffffffffff81111561269057612690612622565b6126a3601f8201601f1916602001612636565b8181528460208386010111156126b7575f80fd5b816020850160208301375f918101602001919091529392505050565b5f80604083850312156126e4575f80fd5b6126ed83612607565b9150602083013567ffffffffffffffff811115612708575f80fd5b61271485828601612667565b9150509250929050565b6001600160e01b03198116811461092d575f80fd5b5f60208284031215612743575f80fd5b8135610f908161271e565b5f81518084528060208401602086015e5f602082860101526020601f19601f83011685010191505092915050565b602081525f610f90602083018461274e565b5f805f604084860312156127a0575f80fd5b6127a984612607565b9250602084013567ffffffffffffffff808211156127c5575f80fd5b818601915086601f8301126127d8575f80fd5b8135818111156127e6575f80fd5b8760208285010111156127f7575f80fd5b6020830194508093505050509250925092565b5f6020828403121561281a575f80fd5b5035919050565b5f8060408385031215612832575f80fd5b61283b83612607565b946020939093013593505050565b5f60208284031215612859575f80fd5b610f9082612607565b5f805f60608486031215612874575f80fd5b61287d84612607565b925061288b60208501612607565b9150604084013590509250925092565b5f80604083850312156128ac575f80fd5b50508035926020909101359150565b5f60208083850312156128cc575f80fd5b823567ffffffffffffffff808211156128e3575f80fd5b818501915085601f8301126128f6575f80fd5b81358181111561290857612908612622565b8060051b9150612919848301612636565b8181529183018401918481019088841115612932575f80fd5b938501935b8385101561295057843582529385019390850190612937565b98975050505050505050565b602080825282518282018190525f9190848201906040850190845b81811015610da1576129b383855180516001600160a01b0316825260208082015167ffffffffffffffff16908301526040908101511515910152565b9284019260609290920191600101612977565b5f805f80608085870312156129d9575f80fd5b6129e285612607565b935060208501359250604085013567ffffffffffffffff80821115612a05575f80fd5b612a1188838901612667565b93506060870135915080821115612a26575f80fd5b50612a3387828801612667565b91505092959194509250565b602080825282518282018190525f9190848201906040850190845b81811015610da157835183529284019291840191600101612a5a565b5f60208284031215612a86575f80fd5b813567ffffffffffffffff811115612a9c575f80fd5b610a3884828501612667565b5f805f60608486031215612aba575f80fd5b612ac384612607565b95602085013595506040909401359392505050565b5f805f60608486031215612aea575f80fd5b8335925061288b60208501612607565b5f8060408385031215612b0b575f80fd5b612b1483612607565b915060208301358015158114612b28575f80fd5b809150509250929050565b5f8083601f840112612b43575f80fd5b50813567ffffffffffffffff811115612b5a575f80fd5b6020830191508360208260051b8501011115612b74575f80fd5b9250929050565b5f8060208385031215612b8c575f80fd5b823567ffffffffffffffff811115612ba2575f80fd5b612bae85828601612b33565b90969095509350505050565b5f60208083016020845280855180835260408601915060408160051b8701019250602087015f5b82811015612c0f57603f19888603018452612bfd85835161274e565b94509285019290850190600101612be1565b5092979650505050505050565b5f805f8060808587031215612c2f575f80fd5b612c3885612607565b9350612c4660208601612607565b925060408501359150606085013567ffffffffffffffff811115612c68575f80fd5b612a3387828801612667565b81516001600160a01b0316815260208083015167ffffffffffffffff16908201526040808301511515908201526060810161072a565b5f805f8060408587031215612cbd575f80fd5b843567ffffffffffffffff80821115612cd4575f80fd5b612ce088838901612b33565b90965094506020870135915080821115612cf8575f80fd5b50612d0587828801612b33565b95989497509550505050565b5f8060408385031215612d22575f80fd5b612d2b83612607565b9150612d3960208401612607565b90509250929050565b600181811c90821680612d5657607f821691505b602082108103612d7457634e487b7160e01b5f52602260045260245ffd5b50919050565b634e487b7160e01b5f52603260045260245ffd5b634e487b7160e01b5f52601160045260245ffd5b808202811582820484141761072a5761072a612d8e565b634e487b7160e01b5f52601260045260245ffd5b5f82612ddb57612ddb612db9565b500490565b5f808335601e19843603018112612df5575f80fd5b83018035915067ffffffffffffffff821115612e0f575f80fd5b602001915036819003821315612b74575f80fd5b8284823760609190911b6bffffffffffffffffffffffff19169101908152601401919050565b5f81518060208401855e5f93019283525090919050565b5f610a38612e6e8386612e49565b84612e49565b601f82111561084a57805f5260205f20601f840160051c81016020851015612e995750805b601f840160051c820191505b818110156114fa575f8155600101612ea5565b815167ffffffffffffffff811115612ed257612ed2612622565b612ee681612ee08454612d42565b84612e74565b602080601f831160018114612f19575f8415612f025750858301515b5f19600386901b1c1916600185901b178555612f70565b5f85815260208120601f198616915b82811015612f4757888601518255948401946001909101908401612f28565b5085821015612f6457878501515f19600388901b60f8161c191681555b505060018460011b0185555b505050505050565b8082018082111561072a5761072a612d8e565b604081525f612f9d604083018561274e565b8281036020840152612faf818561274e565b95945050505050565b5f6001600160a01b03808716835280861660208401525083604083015260806060830152612560608083018461274e565b5f60208284031215612ff9575f80fd5b8151610f908161271e565b5f6001820161301557613015612d8e565b5060010190565b8181038181111561072a5761072a612d8e565b5f8261303d5761303d612db9565b500690565b5f610f908284612e4956fe416464726573733a206c6f772d6c6576656c2064656c65676174652063616c6c206661696c6564a2646970667358221220ddb6a49edf6749886e21e01ed1fc75f8da1612059a44103ef4e55e67c6619fb564736f6c63430008190033",
      "opcodes": "PUSH1 0x80 PUSH1 0x40 MSTORE CALLVALUE DUP1 ISZERO PUSH2 0xF JUMPI PUSH0 DUP1 REVERT JUMPDEST POP PUSH1 0x40 MLOAD PUSH2 0x34B5 CODESIZE SUB DUP1 PUSH2 0x34B5 DUP4 CODECOPY DUP2 ADD PUSH1 0x40 DUP2 SWAP1 MSTORE PUSH2 0x2E SWAP2 PUSH2 0x21B JUMP JUMPDEST DUP5 DUP5 DUP5 DUP5 DUP5 DUP4 DUP4 PUSH1 0x2 PUSH2 0x41 DUP4 DUP3 PUSH2 0x33F JUMP JUMPDEST POP PUSH1 0x3 PUSH2 0x4E DUP3 DUP3 PUSH2 0x33F JUMP JUMPDEST POP POP PUSH0 DUP1 SSTORE POP PUSH2 0x5D DUP6 PUSH2 0x7F JUMP JUMPDEST PUSH2 0x70 DUP3 PUSH1 0x1 PUSH1 0x1 PUSH1 0x80 SHL SUB DUP4 AND PUSH2 0xD0 JUMP JUMPDEST POP POP POP POP POP POP POP POP POP POP PUSH2 0x3FE JUMP JUMPDEST PUSH1 0x9 DUP1 SLOAD PUSH1 0x1 PUSH1 0x1 PUSH1 0xA0 SHL SUB DUP4 DUP2 AND PUSH1 0x1 PUSH1 0x1 PUSH1 0xA0 SHL SUB NOT DUP4 AND DUP2 OR SWAP1 SWAP4 SSTORE PUSH1 0x40 MLOAD SWAP2 AND SWAP2 SWAP1 DUP3 SWAP1 PUSH32 0x8292FCE18FA69EDF4DB7B94EA2E58241DF0AE57F97E0A6C9B29067028BF92D76 SWAP1 PUSH0 SWAP1 LOG3 POP POP JUMP JUMPDEST PUSH2 0x2710 DUP2 GT ISZERO PUSH2 0x102 JUMPI PUSH1 0x40 MLOAD PUSH4 0xA4930AD PUSH1 0xE3 SHL DUP2 MSTORE PUSH2 0x2710 PUSH1 0x4 DUP3 ADD MSTORE PUSH1 0x24 DUP2 ADD DUP3 SWAP1 MSTORE PUSH1 0x44 ADD PUSH1 0x40 MLOAD DUP1 SWAP2 SUB SWAP1 REVERT JUMPDEST PUSH1 0xA DUP1 SLOAD PUSH1 0x1 PUSH1 0x1 PUSH1 0xA0 SHL SUB DUP5 AND PUSH1 0x1 PUSH1 0x1 PUSH1 0xB0 SHL SUB NOT SWAP1 SWAP2 AND DUP2 OR PUSH1 0x1 PUSH1 0xA0 SHL PUSH2 0xFFFF DUP6 AND MUL OR SWAP1 SWAP2 SSTORE PUSH1 0x40 MLOAD DUP3 DUP2 MSTORE PUSH32 0x90D7EC04BCB8978719414F82E52E4CB651DB41D0E6F8CEA6118C2191E6183ADB SWAP1 PUSH1 0x20 ADD PUSH1 0x40 MLOAD DUP1 SWAP2 SUB SWAP1 LOG2 POP POP JUMP JUMPDEST DUP1 MLOAD PUSH1 0x1 PUSH1 0x1 PUSH1 0xA0 SHL SUB DUP2 AND DUP2 EQ PUSH2 0x17A JUMPI PUSH0 DUP1 REVERT JUMPDEST SWAP2 SWAP1 POP JUMP JUMPDEST PUSH4 0x4E487B71 PUSH1 0xE0 SHL PUSH0 MSTORE PUSH1 0x41 PUSH1 0x4 MSTORE PUSH1 0x24 PUSH0 REVERT JUMPDEST PUSH0 DUP3 PUSH1 0x1F DUP4 ADD SLT PUSH2 0x1A2 JUMPI PUSH0 DUP1 REVERT JUMPDEST DUP2 MLOAD PUSH1 0x1 PUSH1 0x1 PUSH1 0x40 SHL SUB DUP1 DUP3 GT ISZERO PUSH2 0x1BC JUMPI PUSH2 0x1BC PUSH2 0x17F JUMP JUMPDEST PUSH1 0x40 MLOAD PUSH1 0x1F DUP4 ADD PUSH1 0x1F NOT SWAP1 DUP2 AND PUSH1 0x3F ADD AND DUP2 ADD SWAP1 DUP3 DUP3 GT DUP2 DUP4 LT OR ISZERO PUSH2 0x1E4 JUMPI PUSH2 0x1E4 PUSH2 0x17F JUMP JUMPDEST DUP2 PUSH1 0x40 MSTORE DUP4 DUP2 MSTORE DUP7 PUSH1 0x20 DUP6 DUP9 ADD ADD GT ISZERO PUSH2 0x1FC JUMPI PUSH0 DUP1 REVERT JUMPDEST DUP4 PUSH1 0x20 DUP8 ADD PUSH1 0x20 DUP4 ADD MCOPY PUSH0 PUSH1 0x20 DUP6 DUP4 ADD ADD MSTORE DUP1 SWAP5 POP POP POP POP POP SWAP3 SWAP2 POP POP JUMP JUMPDEST PUSH0 DUP1 PUSH0 DUP1 PUSH0 PUSH1 0xA0 DUP7 DUP9 SUB SLT ISZERO PUSH2 0x22F JUMPI PUSH0 DUP1 REVERT JUMPDEST PUSH2 0x238 DUP7 PUSH2 0x164 JUMP JUMPDEST PUSH1 0x20 DUP8 ADD MLOAD SWAP1 SWAP6 POP PUSH1 0x1 PUSH1 0x1 PUSH1 0x40 SHL SUB DUP1 DUP3 GT ISZERO PUSH2 0x254 JUMPI PUSH0 DUP1 REVERT JUMPDEST PUSH2 0x260 DUP10 DUP4 DUP11 ADD PUSH2 0x193 JUMP JUMPDEST SWAP6 POP PUSH1 0x40 DUP9 ADD MLOAD SWAP2 POP DUP1 DUP3 GT ISZERO PUSH2 0x275 JUMPI PUSH0 DUP1 REVERT JUMPDEST POP PUSH2 0x282 DUP9 DUP3 DUP10 ADD PUSH2 0x193 JUMP JUMPDEST SWAP4 POP POP PUSH2 0x291 PUSH1 0x60 DUP8 ADD PUSH2 0x164 JUMP JUMPDEST PUSH1 0x80 DUP8 ADD MLOAD SWAP1 SWAP3 POP PUSH1 0x1 PUSH1 0x1 PUSH1 0x80 SHL SUB DUP2 AND DUP2 EQ PUSH2 0x2AD JUMPI PUSH0 DUP1 REVERT JUMPDEST DUP1 SWAP2 POP POP SWAP3 SWAP6 POP SWAP3 SWAP6 SWAP1 SWAP4 POP JUMP JUMPDEST PUSH1 0x1 DUP2 DUP2 SHR SWAP1 DUP3 AND DUP1 PUSH2 0x2CF JUMPI PUSH1 0x7F DUP3 AND SWAP2 POP JUMPDEST PUSH1 0x20 DUP3 LT DUP2 SUB PUSH2 0x2ED JUMPI PUSH4 0x4E487B71 PUSH1 0xE0 SHL PUSH0 MSTORE PUSH1 0x22 PUSH1 0x4 MSTORE PUSH1 0x24 PUSH0 REVERT JUMPDEST POP SWAP2 SWAP1 POP JUMP JUMPDEST PUSH1 0x1F DUP3 GT ISZERO PUSH2 0x33A JUMPI DUP1 PUSH0 MSTORE PUSH1 0x20 PUSH0 KECCAK256 PUSH1 0x1F DUP5 ADD PUSH1 0x5 SHR DUP2 ADD PUSH1 0x20 DUP6 LT ISZERO PUSH2 0x318 JUMPI POP DUP1 JUMPDEST PUSH1 0x1F DUP5 ADD PUSH1 0x5 SHR DUP3 ADD SWAP2 POP JUMPDEST DUP2 DUP2 LT ISZERO PUSH2 0x337 JUMPI PUSH0 DUP2 SSTORE PUSH1 0x1 ADD PUSH2 0x324 JUMP JUMPDEST POP POP JUMPDEST POP POP POP JUMP JUMPDEST DUP2 MLOAD PUSH1 0x1 PUSH1 0x1 PUSH1 0x40 SHL SUB DUP2 GT ISZERO PUSH2 0x358 JUMPI PUSH2 0x358 PUSH2 0x17F JUMP JUMPDEST PUSH2 0x36C DUP2 PUSH2 0x366 DUP5 SLOAD PUSH2 0x2BB JUMP JUMPDEST DUP5 PUSH2 0x2F3 JUMP JUMPDEST PUSH1 0x20 DUP1 PUSH1 0x1F DUP4 GT PUSH1 0x1 DUP2 EQ PUSH2 0x39F JUMPI PUSH0 DUP5 ISZERO PUSH2 0x388 JUMPI POP DUP6 DUP4 ADD MLOAD JUMPDEST PUSH0 NOT PUSH1 0x3 DUP7 SWAP1 SHL SHR NOT AND PUSH1 0x1 DUP6 SWAP1 SHL OR DUP6 SSTORE PUSH2 0x3F6 JUMP JUMPDEST PUSH0 DUP6 DUP2 MSTORE PUSH1 0x20 DUP2 KECCAK256 PUSH1 0x1F NOT DUP7 AND SWAP2 JUMPDEST DUP3 DUP2 LT ISZERO PUSH2 0x3CD JUMPI DUP9 DUP7 ADD MLOAD DUP3 SSTORE SWAP5 DUP5 ADD SWAP5 PUSH1 0x1 SWAP1 SWAP2 ADD SWAP1 DUP5 ADD PUSH2 0x3AE JUMP JUMPDEST POP DUP6 DUP3 LT ISZERO PUSH2 0x3EA JUMPI DUP8 DUP6 ADD MLOAD PUSH0 NOT PUSH1 0x3 DUP9 SWAP1 SHL PUSH1 0xF8 AND SHR NOT AND DUP2 SSTORE JUMPDEST POP POP PUSH1 0x1 DUP5 PUSH1 0x1 SHL ADD DUP6 SSTORE JUMPDEST POP POP POP POP POP POP JUMP JUMPDEST PUSH2 0x30AA DUP1 PUSH2 0x40B PUSH0 CODECOPY PUSH0 RETURN INVALID PUSH1 0x80 PUSH1 0x40 MSTORE CALLVALUE DUP1 ISZERO PUSH2 0xF JUMPI PUSH0 DUP1 REVERT JUMPDEST POP PUSH1 0x4 CALLDATASIZE LT PUSH2 0x2B6 JUMPI PUSH0 CALLDATALOAD PUSH1 0xE0 SHR DUP1 PUSH4 0x63B45E2D GT PUSH2 0x171 JUMPI DUP1 PUSH4 0xA22CB465 GT PUSH2 0xD2 JUMPI DUP1 PUSH4 0xC23DC68F GT PUSH2 0x88 JUMPI DUP1 PUSH4 0xD32812E7 GT PUSH2 0x6E JUMPI DUP1 PUSH4 0xD32812E7 EQ PUSH2 0x60C JUMPI DUP1 PUSH4 0xE8A3D485 EQ PUSH2 0x61F JUMPI DUP1 PUSH4 0xE985E9C5 EQ PUSH2 0x627 JUMPI PUSH0 DUP1 REVERT JUMPDEST DUP1 PUSH4 0xC23DC68F EQ PUSH2 0x5D9 JUMPI DUP1 PUSH4 0xC87B56DD EQ PUSH2 0x5F9 JUMPI PUSH0 DUP1 REVERT JUMPDEST DUP1 PUSH4 0xB24F2D39 GT PUSH2 0xB8 JUMPI DUP1 PUSH4 0xB24F2D39 EQ PUSH2 0x595 JUMPI DUP1 PUSH4 0xB88D4FDE EQ PUSH2 0x5B3 JUMPI DUP1 PUSH4 0xBADB97FF EQ PUSH2 0x5C6 JUMPI PUSH0 DUP1 REVERT JUMPDEST DUP1 PUSH4 0xA22CB465 EQ PUSH2 0x562 JUMPI DUP1 PUSH4 0xAC9650D8 EQ PUSH2 0x575 JUMPI PUSH0 DUP1 REVERT JUMPDEST DUP1 PUSH4 0x8DA5CB5B GT PUSH2 0x127 JUMPI DUP1 PUSH4 0x95D89B41 GT PUSH2 0x10D JUMPI DUP1 PUSH4 0x95D89B41 EQ PUSH2 0x534 JUMPI DUP1 PUSH4 0x99A2557A EQ PUSH2 0x53C JUMPI DUP1 PUSH4 0x9BCF7A15 EQ PUSH2 0x54F JUMPI PUSH0 DUP1 REVERT JUMPDEST DUP1 PUSH4 0x8DA5CB5B EQ PUSH2 0x510 JUMPI DUP1 PUSH4 0x938E3D7B EQ PUSH2 0x521 JUMPI PUSH0 DUP1 REVERT JUMPDEST DUP1 PUSH4 0x754A81D9 GT PUSH2 0x157 JUMPI DUP1 PUSH4 0x754A81D9 EQ PUSH2 0x4BB JUMPI DUP1 PUSH4 0x83040532 EQ PUSH2 0x4CE JUMPI DUP1 PUSH4 0x8462151C EQ PUSH2 0x4F0 JUMPI PUSH0 DUP1 REVERT JUMPDEST DUP1 PUSH4 0x63B45E2D EQ PUSH2 0x4A0 JUMPI DUP1 PUSH4 0x70A08231 EQ PUSH2 0x4A8 JUMPI PUSH0 DUP1 REVERT JUMPDEST DUP1 PUSH4 0x2419F51B GT PUSH2 0x21B JUMPI DUP1 PUSH4 0x430C2081 GT PUSH2 0x1D1 JUMPI DUP1 PUSH4 0x5BBB2177 GT PUSH2 0x1B7 JUMPI DUP1 PUSH4 0x5BBB2177 EQ PUSH2 0x45A JUMPI DUP1 PUSH4 0x600DD5EA EQ PUSH2 0x47A JUMPI DUP1 PUSH4 0x6352211E EQ PUSH2 0x48D JUMPI PUSH0 DUP1 REVERT JUMPDEST DUP1 PUSH4 0x430C2081 EQ PUSH2 0x412 JUMPI DUP1 PUSH4 0x4CC157DF EQ PUSH2 0x425 JUMPI PUSH0 DUP1 REVERT JUMPDEST DUP1 PUSH4 0x3B1475A7 GT PUSH2 0x201 JUMPI DUP1 PUSH4 0x3B1475A7 EQ PUSH2 0x3E5 JUMPI DUP1 PUSH4 0x42842E0E EQ PUSH2 0x3EC JUMPI DUP1 PUSH4 0x42966C68 EQ PUSH2 0x3FF JUMPI PUSH0 DUP1 REVERT JUMPDEST DUP1 PUSH4 0x2419F51B EQ PUSH2 0x3A0 JUMPI DUP1 PUSH4 0x2A55205A EQ PUSH2 0x3B3 JUMPI PUSH0 DUP1 REVERT JUMPDEST DUP1 PUSH4 0x95EA7B3 GT PUSH2 0x270 JUMPI DUP1 PUSH4 0x13AF4035 GT PUSH2 0x256 JUMPI DUP1 PUSH4 0x13AF4035 EQ PUSH2 0x365 JUMPI DUP1 PUSH4 0x18160DDD EQ PUSH2 0x378 JUMPI DUP1 PUSH4 0x23B872DD EQ PUSH2 0x38D JUMPI PUSH0 DUP1 REVERT JUMPDEST DUP1 PUSH4 0x95EA7B3 EQ PUSH2 0x34A JUMPI DUP1 PUSH4 0xFAD0F51 EQ PUSH2 0x35D JUMPI PUSH0 DUP1 REVERT JUMPDEST DUP1 PUSH4 0x6FDDE03 GT PUSH2 0x2A0 JUMPI DUP1 PUSH4 0x6FDDE03 EQ PUSH2 0x2F7 JUMPI DUP1 PUSH4 0x712249F EQ PUSH2 0x30C JUMPI DUP1 PUSH4 0x81812FC EQ PUSH2 0x31F JUMPI PUSH0 DUP1 REVERT JUMPDEST DUP1 PUSH3 0x75A317 EQ PUSH2 0x2BA JUMPI DUP1 PUSH4 0x1FFC9A7 EQ PUSH2 0x2CF JUMPI JUMPDEST PUSH0 DUP1 REVERT JUMPDEST PUSH2 0x2CD PUSH2 0x2C8 CALLDATASIZE PUSH1 0x4 PUSH2 0x26D3 JUMP JUMPDEST PUSH2 0x63C JUMP JUMPDEST STOP JUMPDEST PUSH2 0x2E2 PUSH2 0x2DD CALLDATASIZE PUSH1 0x4 PUSH2 0x2733 JUMP JUMPDEST PUSH2 0x6C4 JUMP JUMPDEST PUSH1 0x40 MLOAD SWAP1 ISZERO ISZERO DUP2 MSTORE PUSH1 0x20 ADD JUMPDEST PUSH1 0x40 MLOAD DUP1 SWAP2 SUB SWAP1 RETURN JUMPDEST PUSH2 0x2FF PUSH2 0x730 JUMP JUMPDEST PUSH1 0x40 MLOAD PUSH2 0x2EE SWAP2 SWAP1 PUSH2 0x277C JUMP JUMPDEST PUSH2 0x2CD PUSH2 0x31A CALLDATASIZE PUSH1 0x4 PUSH2 0x278E JUMP JUMPDEST PUSH2 0x7C0 JUMP JUMPDEST PUSH2 0x332 PUSH2 0x32D CALLDATASIZE PUSH1 0x4 PUSH2 0x280A JUMP JUMPDEST PUSH2 0x84F JUMP JUMPDEST PUSH1 0x40 MLOAD PUSH1 0x1 PUSH1 0x1 PUSH1 0xA0 SHL SUB SWAP1 SWAP2 AND DUP2 MSTORE PUSH1 0x20 ADD PUSH2 0x2EE JUMP JUMPDEST PUSH2 0x2CD PUSH2 0x358 CALLDATASIZE PUSH1 0x4 PUSH2 0x2821 JUMP JUMPDEST PUSH2 0x891 JUMP JUMPDEST PUSH2 0x2E2 PUSH1 0x1 DUP2 JUMP JUMPDEST PUSH2 0x2CD PUSH2 0x373 CALLDATASIZE PUSH1 0x4 PUSH2 0x2849 JUMP JUMPDEST PUSH2 0x8FF JUMP JUMPDEST PUSH1 0x1 SLOAD PUSH0 SLOAD SUB JUMPDEST PUSH1 0x40 MLOAD SWAP1 DUP2 MSTORE PUSH1 0x20 ADD PUSH2 0x2EE JUMP JUMPDEST PUSH2 0x2CD PUSH2 0x39B CALLDATASIZE PUSH1 0x4 PUSH2 0x2862 JUMP JUMPDEST PUSH2 0x930 JUMP JUMPDEST PUSH2 0x37F PUSH2 0x3AE CALLDATASIZE PUSH1 0x4 PUSH2 0x280A JUMP JUMPDEST PUSH2 0x93B JUMP JUMPDEST PUSH2 0x3C6 PUSH2 0x3C1 CALLDATASIZE PUSH1 0x4 PUSH2 0x289B JUMP JUMPDEST PUSH2 0x98A JUMP JUMPDEST PUSH1 0x40 DUP1 MLOAD PUSH1 0x1 PUSH1 0x1 PUSH1 0xA0 SHL SUB SWAP1 SWAP4 AND DUP4 MSTORE PUSH1 0x20 DUP4 ADD SWAP2 SWAP1 SWAP2 MSTORE ADD PUSH2 0x2EE JUMP JUMPDEST PUSH0 SLOAD PUSH2 0x37F JUMP JUMPDEST PUSH2 0x2CD PUSH2 0x3FA CALLDATASIZE PUSH1 0x4 PUSH2 0x2862 JUMP JUMPDEST PUSH2 0x9C5 JUMP JUMPDEST PUSH2 0x2CD PUSH2 0x40D CALLDATASIZE PUSH1 0x4 PUSH2 0x280A JUMP JUMPDEST PUSH2 0x9DF JUMP JUMPDEST PUSH2 0x2E2 PUSH2 0x420 CALLDATASIZE PUSH1 0x4 PUSH2 0x2821 JUMP JUMPDEST PUSH2 0x9EA JUMP JUMPDEST PUSH2 0x438 PUSH2 0x433 CALLDATASIZE PUSH1 0x4 PUSH2 0x280A JUMP JUMPDEST PUSH2 0xA40 JUMP JUMPDEST PUSH1 0x40 DUP1 MLOAD PUSH1 0x1 PUSH1 0x1 PUSH1 0xA0 SHL SUB SWAP1 SWAP4 AND DUP4 MSTORE PUSH2 0xFFFF SWAP1 SWAP2 AND PUSH1 0x20 DUP4 ADD MSTORE ADD PUSH2 0x2EE JUMP JUMPDEST PUSH2 0x46D PUSH2 0x468 CALLDATASIZE PUSH1 0x4 PUSH2 0x28BB JUMP JUMPDEST PUSH2 0xAAA JUMP JUMPDEST PUSH1 0x40 MLOAD PUSH2 0x2EE SWAP2 SWAP1 PUSH2 0x295C JUMP JUMPDEST PUSH2 0x2CD PUSH2 0x488 CALLDATASIZE PUSH1 0x4 PUSH2 0x2821 JUMP JUMPDEST PUSH2 0xB6D JUMP JUMPDEST PUSH2 0x332 PUSH2 0x49B CALLDATASIZE PUSH1 0x4 PUSH2 0x280A JUMP JUMPDEST PUSH2 0xB9C JUMP JUMPDEST PUSH1 0xC SLOAD PUSH2 0x37F JUMP JUMPDEST PUSH2 0x37F PUSH2 0x4B6 CALLDATASIZE PUSH1 0x4 PUSH2 0x2849 JUMP JUMPDEST PUSH2 0xBAD JUMP JUMPDEST PUSH2 0x2CD PUSH2 0x4C9 CALLDATASIZE PUSH1 0x4 PUSH2 0x29C6 JUMP JUMPDEST PUSH2 0xBFA JUMP JUMPDEST PUSH2 0x2E2 PUSH2 0x4DC CALLDATASIZE PUSH1 0x4 PUSH2 0x280A JUMP JUMPDEST PUSH1 0xE PUSH1 0x20 MSTORE PUSH0 SWAP1 DUP2 MSTORE PUSH1 0x40 SWAP1 KECCAK256 SLOAD PUSH1 0xFF AND DUP2 JUMP JUMPDEST PUSH2 0x503 PUSH2 0x4FE CALLDATASIZE PUSH1 0x4 PUSH2 0x2849 JUMP JUMPDEST PUSH2 0xC73 JUMP JUMPDEST PUSH1 0x40 MLOAD PUSH2 0x2EE SWAP2 SWAP1 PUSH2 0x2A3F JUMP JUMPDEST PUSH1 0x9 SLOAD PUSH1 0x1 PUSH1 0x1 PUSH1 0xA0 SHL SUB AND PUSH2 0x332 JUMP JUMPDEST PUSH2 0x2CD PUSH2 0x52F CALLDATASIZE PUSH1 0x4 PUSH2 0x2A76 JUMP JUMPDEST PUSH2 0xDAD JUMP JUMPDEST PUSH2 0x2FF PUSH2 0xDDB JUMP JUMPDEST PUSH2 0x503 PUSH2 0x54A CALLDATASIZE PUSH1 0x4 PUSH2 0x2AA8 JUMP JUMPDEST PUSH2 0xDEA JUMP JUMPDEST PUSH2 0x2CD PUSH2 0x55D CALLDATASIZE PUSH1 0x4 PUSH2 0x2AD8 JUMP JUMPDEST PUSH2 0xF97 JUMP JUMPDEST PUSH2 0x2CD PUSH2 0x570 CALLDATASIZE PUSH1 0x4 PUSH2 0x2AFA JUMP JUMPDEST PUSH2 0xFC7 JUMP JUMPDEST PUSH2 0x588 PUSH2 0x583 CALLDATASIZE PUSH1 0x4 PUSH2 0x2B7B JUMP JUMPDEST PUSH2 0x1035 JUMP JUMPDEST PUSH1 0x40 MLOAD PUSH2 0x2EE SWAP2 SWAP1 PUSH2 0x2BBA JUMP JUMPDEST PUSH1 0xA SLOAD PUSH1 0x1 PUSH1 0x1 PUSH1 0xA0 SHL SUB DUP2 AND SWAP1 PUSH1 0x1 PUSH1 0xA0 SHL SWAP1 DIV PUSH2 0xFFFF AND PUSH2 0x438 JUMP JUMPDEST PUSH2 0x2CD PUSH2 0x5C1 CALLDATASIZE PUSH1 0x4 PUSH2 0x2C1C JUMP JUMPDEST PUSH2 0x1199 JUMP JUMPDEST PUSH2 0x2CD PUSH2 0x5D4 CALLDATASIZE PUSH1 0x4 PUSH2 0x280A JUMP JUMPDEST PUSH2 0x11DD JUMP JUMPDEST PUSH2 0x5EC PUSH2 0x5E7 CALLDATASIZE PUSH1 0x4 PUSH2 0x280A JUMP JUMPDEST PUSH2 0x1232 JUMP JUMPDEST PUSH1 0x40 MLOAD PUSH2 0x2EE SWAP2 SWAP1 PUSH2 0x2C74 JUMP JUMPDEST PUSH2 0x2FF PUSH2 0x607 CALLDATASIZE PUSH1 0x4 PUSH2 0x280A JUMP JUMPDEST PUSH2 0x12DE JUMP JUMPDEST PUSH2 0x2CD PUSH2 0x61A CALLDATASIZE PUSH1 0x4 PUSH2 0x2CAA JUMP JUMPDEST PUSH2 0x13C7 JUMP JUMPDEST PUSH2 0x2FF PUSH2 0x1501 JUMP JUMPDEST PUSH2 0x2E2 PUSH2 0x635 CALLDATASIZE PUSH1 0x4 PUSH2 0x2D11 JUMP JUMPDEST PUSH0 SWAP3 SWAP2 POP POP JUMP JUMPDEST PUSH2 0x644 PUSH2 0x158D JUMP JUMPDEST PUSH2 0x695 JUMPI PUSH1 0x40 MLOAD PUSH3 0x461BCD PUSH1 0xE5 SHL DUP2 MSTORE PUSH1 0x20 PUSH1 0x4 DUP3 ADD MSTORE PUSH1 0x17 PUSH1 0x24 DUP3 ADD MSTORE PUSH32 0x4E6F7420617574686F72697A656420746F206D696E742E000000000000000000 PUSH1 0x44 DUP3 ADD MSTORE PUSH1 0x64 ADD JUMPDEST PUSH1 0x40 MLOAD DUP1 SWAP2 SUB SWAP1 REVERT JUMPDEST PUSH2 0x6A6 PUSH2 0x6A0 PUSH0 SLOAD SWAP1 JUMP JUMPDEST DUP3 PUSH2 0x15B9 JUMP JUMPDEST PUSH2 0x6C0 DUP3 PUSH1 0x1 PUSH1 0x40 MLOAD DUP1 PUSH1 0x20 ADD PUSH1 0x40 MSTORE DUP1 PUSH0 DUP2 MSTORE POP PUSH2 0x1637 JUMP JUMPDEST POP POP JUMP JUMPDEST PUSH0 PUSH4 0x1FFC9A7 PUSH1 0xE0 SHL PUSH1 0x1 PUSH1 0x1 PUSH1 0xE0 SHL SUB NOT DUP4 AND EQ DUP1 PUSH2 0x6F4 JUMPI POP PUSH4 0x80AC58CD PUSH1 0xE0 SHL PUSH1 0x1 PUSH1 0x1 PUSH1 0xE0 SHL SUB NOT DUP4 AND EQ JUMPDEST DUP1 PUSH2 0x70F JUMPI POP PUSH4 0x5B5E139F PUSH1 0xE0 SHL PUSH1 0x1 PUSH1 0x1 PUSH1 0xE0 SHL SUB NOT DUP4 AND EQ JUMPDEST DUP1 PUSH2 0x72A JUMPI POP PUSH1 0x1 PUSH1 0x1 PUSH1 0xE0 SHL SUB NOT DUP3 AND PUSH4 0x152A902D PUSH1 0xE1 SHL EQ JUMPDEST SWAP3 SWAP2 POP POP JUMP JUMPDEST PUSH1 0x60 PUSH1 0x2 DUP1 SLOAD PUSH2 0x73F SWAP1 PUSH2 0x2D42 JUMP JUMPDEST DUP1 PUSH1 0x1F ADD PUSH1 0x20 DUP1 SWAP2 DIV MUL PUSH1 0x20 ADD PUSH1 0x40 MLOAD SWAP1 DUP2 ADD PUSH1 0x40 MSTORE DUP1 SWAP3 SWAP2 SWAP1 DUP2 DUP2 MSTORE PUSH1 0x20 ADD DUP3 DUP1 SLOAD PUSH2 0x76B SWAP1 PUSH2 0x2D42 JUMP JUMPDEST DUP1 ISZERO PUSH2 0x7B6 JUMPI DUP1 PUSH1 0x1F LT PUSH2 0x78D JUMPI PUSH2 0x100 DUP1 DUP4 SLOAD DIV MUL DUP4 MSTORE SWAP2 PUSH1 0x20 ADD SWAP2 PUSH2 0x7B6 JUMP JUMPDEST DUP3 ADD SWAP2 SWAP1 PUSH0 MSTORE PUSH1 0x20 PUSH0 KECCAK256 SWAP1 JUMPDEST DUP2 SLOAD DUP2 MSTORE SWAP1 PUSH1 0x1 ADD SWAP1 PUSH1 0x20 ADD DUP1 DUP4 GT PUSH2 0x799 JUMPI DUP3 SWAP1 SUB PUSH1 0x1F AND DUP3 ADD SWAP2 JUMPDEST POP POP POP POP POP SWAP1 POP SWAP1 JUMP JUMPDEST PUSH1 0x9 SLOAD PUSH1 0x1 PUSH1 0x1 PUSH1 0xA0 SHL SUB AND CALLER EQ PUSH2 0x80B JUMPI PUSH1 0x40 MLOAD PUSH3 0x461BCD PUSH1 0xE5 SHL DUP2 MSTORE PUSH1 0x20 PUSH1 0x4 DUP3 ADD MSTORE PUSH1 0xE PUSH1 0x24 DUP3 ADD MSTORE PUSH14 0x139BDD08185D5D1A1BDC9A5E9959 PUSH1 0x92 SHL PUSH1 0x44 DUP3 ADD MSTORE PUSH1 0x64 ADD PUSH2 0x68C JUMP JUMPDEST PUSH2 0x84A DUP4 DUP4 DUP4 DUP1 DUP1 PUSH1 0x1F ADD PUSH1 0x20 DUP1 SWAP2 DIV MUL PUSH1 0x20 ADD PUSH1 0x40 MLOAD SWAP1 DUP2 ADD PUSH1 0x40 MSTORE DUP1 SWAP4 SWAP3 SWAP2 SWAP1 DUP2 DUP2 MSTORE PUSH1 0x20 ADD DUP4 DUP4 DUP1 DUP3 DUP5 CALLDATACOPY PUSH0 SWAP3 ADD SWAP2 SWAP1 SWAP2 MSTORE POP PUSH2 0x1802 SWAP3 POP POP POP JUMP JUMPDEST POP POP POP JUMP JUMPDEST PUSH0 PUSH2 0x859 DUP3 PUSH2 0x1828 JUMP JUMPDEST PUSH2 0x876 JUMPI PUSH1 0x40 MLOAD PUSH4 0x33D1C039 PUSH1 0xE2 SHL DUP2 MSTORE PUSH1 0x4 ADD PUSH1 0x40 MLOAD DUP1 SWAP2 SUB SWAP1 REVERT JUMPDEST POP PUSH0 SWAP1 DUP2 MSTORE PUSH1 0x6 PUSH1 0x20 MSTORE PUSH1 0x40 SWAP1 KECCAK256 SLOAD PUSH1 0x1 PUSH1 0x1 PUSH1 0xA0 SHL SUB AND SWAP1 JUMP JUMPDEST PUSH1 0x40 MLOAD PUSH3 0x461BCD PUSH1 0xE5 SHL DUP2 MSTORE PUSH1 0x20 PUSH1 0x4 DUP3 ADD MSTORE PUSH1 0x37 PUSH1 0x24 DUP3 ADD MSTORE PUSH32 0x536572746966696B617420536F756C626F756E643A2046756E67736920706572 PUSH1 0x44 DUP3 ADD MSTORE PUSH32 0x736574756A75616E2064696E6F6E616B7469666B616E21000000000000000000 PUSH1 0x64 DUP3 ADD MSTORE PUSH1 0x84 ADD PUSH2 0x68C JUMP JUMPDEST PUSH2 0x907 PUSH2 0x158D JUMP JUMPDEST PUSH2 0x924 JUMPI PUSH1 0x40 MLOAD PUSH4 0x16CCB9CB PUSH1 0xE1 SHL DUP2 MSTORE PUSH1 0x4 ADD PUSH1 0x40 MLOAD DUP1 SWAP2 SUB SWAP1 REVERT JUMPDEST PUSH2 0x92D DUP2 PUSH2 0x1851 JUMP JUMPDEST POP JUMP JUMPDEST PUSH2 0x84A DUP4 DUP4 DUP4 PUSH2 0x18AF JUMP JUMPDEST PUSH0 PUSH2 0x945 PUSH1 0xC SLOAD SWAP1 JUMP JUMPDEST DUP3 LT PUSH2 0x967 JUMPI PUSH1 0x40 MLOAD PUSH4 0x7931277 PUSH1 0xE1 SHL DUP2 MSTORE PUSH1 0x4 DUP2 ADD DUP4 SWAP1 MSTORE PUSH1 0x24 ADD PUSH2 0x68C JUMP JUMPDEST PUSH1 0xC DUP3 DUP2 SLOAD DUP2 LT PUSH2 0x97A JUMPI PUSH2 0x97A PUSH2 0x2D7A JUMP JUMPDEST SWAP1 PUSH0 MSTORE PUSH1 0x20 PUSH0 KECCAK256 ADD SLOAD SWAP1 POP SWAP2 SWAP1 POP JUMP JUMPDEST PUSH0 DUP1 PUSH0 DUP1 PUSH2 0x997 DUP7 PUSH2 0xA40 JUMP JUMPDEST SWAP1 SWAP5 POP DUP5 SWAP3 POP PUSH2 0xFFFF AND SWAP1 POP PUSH2 0x2710 PUSH2 0x9B0 DUP3 DUP8 PUSH2 0x2DA2 JUMP JUMPDEST PUSH2 0x9BA SWAP2 SWAP1 PUSH2 0x2DCD JUMP JUMPDEST SWAP3 POP POP POP SWAP3 POP SWAP3 SWAP1 POP JUMP JUMPDEST PUSH2 0x84A DUP4 DUP4 DUP4 PUSH1 0x40 MLOAD DUP1 PUSH1 0x20 ADD PUSH1 0x40 MSTORE DUP1 PUSH0 DUP2 MSTORE POP PUSH2 0x1199 JUMP JUMPDEST PUSH2 0x92D DUP2 PUSH1 0x1 PUSH2 0x1AA2 JUMP JUMPDEST PUSH0 DUP1 PUSH2 0x9F5 DUP4 PUSH2 0xB9C JUMP JUMPDEST SWAP1 POP DUP1 PUSH1 0x1 PUSH1 0x1 PUSH1 0xA0 SHL SUB AND DUP5 PUSH1 0x1 PUSH1 0x1 PUSH1 0xA0 SHL SUB AND EQ DUP1 PUSH2 0xA14 JUMPI POP PUSH0 JUMPDEST DUP1 PUSH2 0xA38 JUMPI POP DUP4 PUSH1 0x1 PUSH1 0x1 PUSH1 0xA0 SHL SUB AND PUSH2 0xA2D DUP5 PUSH2 0x84F JUMP JUMPDEST PUSH1 0x1 PUSH1 0x1 PUSH1 0xA0 SHL SUB AND EQ JUMPDEST SWAP5 SWAP4 POP POP POP POP JUMP JUMPDEST PUSH0 DUP2 DUP2 MSTORE PUSH1 0xB PUSH1 0x20 SWAP1 DUP2 MSTORE PUSH1 0x40 DUP1 DUP4 KECCAK256 DUP2 MLOAD DUP1 DUP4 ADD SWAP1 SWAP3 MSTORE DUP1 SLOAD PUSH1 0x1 PUSH1 0x1 PUSH1 0xA0 SHL SUB AND DUP1 DUP4 MSTORE PUSH1 0x1 SWAP1 SWAP2 ADD SLOAD SWAP3 DUP3 ADD SWAP3 SWAP1 SWAP3 MSTORE DUP3 SWAP2 ISZERO PUSH2 0xA86 JUMPI DUP1 MLOAD PUSH1 0x20 DUP3 ADD MLOAD PUSH2 0xAA0 JUMP JUMPDEST PUSH1 0xA SLOAD PUSH1 0x1 PUSH1 0x1 PUSH1 0xA0 SHL SUB DUP2 AND SWAP1 PUSH1 0x1 PUSH1 0xA0 SHL SWAP1 DIV PUSH2 0xFFFF AND JUMPDEST SWAP3 POP SWAP3 POP POP SWAP2 POP SWAP2 JUMP JUMPDEST DUP1 MLOAD PUSH1 0x60 SWAP1 PUSH0 DUP2 PUSH8 0xFFFFFFFFFFFFFFFF DUP2 GT ISZERO PUSH2 0xAC9 JUMPI PUSH2 0xAC9 PUSH2 0x2622 JUMP JUMPDEST PUSH1 0x40 MLOAD SWAP1 DUP1 DUP3 MSTORE DUP1 PUSH1 0x20 MUL PUSH1 0x20 ADD DUP3 ADD PUSH1 0x40 MSTORE DUP1 ISZERO PUSH2 0xB12 JUMPI DUP2 PUSH1 0x20 ADD JUMPDEST PUSH1 0x40 DUP1 MLOAD PUSH1 0x60 DUP2 ADD DUP3 MSTORE PUSH0 DUP1 DUP3 MSTORE PUSH1 0x20 DUP1 DUP4 ADD DUP3 SWAP1 MSTORE SWAP3 DUP3 ADD MSTORE DUP3 MSTORE PUSH0 NOT SWAP1 SWAP3 ADD SWAP2 ADD DUP2 PUSH2 0xAE7 JUMPI SWAP1 POP JUMPDEST POP SWAP1 POP PUSH0 JUMPDEST DUP3 DUP2 EQ PUSH2 0xB65 JUMPI PUSH2 0xB40 DUP6 DUP3 DUP2 MLOAD DUP2 LT PUSH2 0xB33 JUMPI PUSH2 0xB33 PUSH2 0x2D7A JUMP JUMPDEST PUSH1 0x20 MUL PUSH1 0x20 ADD ADD MLOAD PUSH2 0x1232 JUMP JUMPDEST DUP3 DUP3 DUP2 MLOAD DUP2 LT PUSH2 0xB52 JUMPI PUSH2 0xB52 PUSH2 0x2D7A JUMP JUMPDEST PUSH1 0x20 SWAP1 DUP2 MUL SWAP2 SWAP1 SWAP2 ADD ADD MSTORE PUSH1 0x1 ADD PUSH2 0xB17 JUMP JUMPDEST POP SWAP4 SWAP3 POP POP POP JUMP JUMPDEST PUSH2 0xB75 PUSH2 0x158D JUMP JUMPDEST PUSH2 0xB92 JUMPI PUSH1 0x40 MLOAD PUSH4 0x6FAE3581 PUSH1 0xE1 SHL DUP2 MSTORE PUSH1 0x4 ADD PUSH1 0x40 MLOAD DUP1 SWAP2 SUB SWAP1 REVERT JUMPDEST PUSH2 0x6C0 DUP3 DUP3 PUSH2 0x1C9E JUMP JUMPDEST PUSH0 PUSH2 0xBA6 DUP3 PUSH2 0x1D46 JUMP JUMPDEST MLOAD SWAP3 SWAP2 POP POP JUMP JUMPDEST PUSH0 PUSH1 0x1 PUSH1 0x1 PUSH1 0xA0 SHL SUB DUP3 AND PUSH2 0xBD5 JUMPI PUSH1 0x40 MLOAD PUSH4 0x23D3AD81 PUSH1 0xE2 SHL DUP2 MSTORE PUSH1 0x4 ADD PUSH1 0x40 MLOAD DUP1 SWAP2 SUB SWAP1 REVERT JUMPDEST POP PUSH1 0x1 PUSH1 0x1 PUSH1 0xA0 SHL SUB AND PUSH0 SWAP1 DUP2 MSTORE PUSH1 0x5 PUSH1 0x20 MSTORE PUSH1 0x40 SWAP1 KECCAK256 SLOAD PUSH8 0xFFFFFFFFFFFFFFFF AND SWAP1 JUMP JUMPDEST PUSH2 0xC02 PUSH2 0x158D JUMP JUMPDEST PUSH2 0xC4E JUMPI PUSH1 0x40 MLOAD PUSH3 0x461BCD PUSH1 0xE5 SHL DUP2 MSTORE PUSH1 0x20 PUSH1 0x4 DUP3 ADD MSTORE PUSH1 0x17 PUSH1 0x24 DUP3 ADD MSTORE PUSH32 0x4E6F7420617574686F72697A656420746F206D696E742E000000000000000000 PUSH1 0x44 DUP3 ADD MSTORE PUSH1 0x64 ADD PUSH2 0x68C JUMP JUMPDEST PUSH2 0xC60 PUSH2 0xC59 PUSH0 SLOAD SWAP1 JUMP JUMPDEST DUP5 DUP5 PUSH2 0x1E5D JUMP JUMPDEST POP POP PUSH2 0xC6D DUP5 DUP5 DUP4 PUSH2 0x1637 JUMP JUMPDEST POP POP POP POP JUMP JUMPDEST PUSH1 0x60 PUSH0 DUP1 PUSH0 PUSH2 0xC81 DUP6 PUSH2 0xBAD JUMP JUMPDEST SWAP1 POP PUSH0 DUP2 PUSH8 0xFFFFFFFFFFFFFFFF DUP2 GT ISZERO PUSH2 0xC9D JUMPI PUSH2 0xC9D PUSH2 0x2622 JUMP JUMPDEST PUSH1 0x40 MLOAD SWAP1 DUP1 DUP3 MSTORE DUP1 PUSH1 0x20 MUL PUSH1 0x20 ADD DUP3 ADD PUSH1 0x40 MSTORE DUP1 ISZERO PUSH2 0xCC6 JUMPI DUP2 PUSH1 0x20 ADD PUSH1 0x20 DUP3 MUL DUP1 CALLDATASIZE DUP4 CALLDATACOPY ADD SWAP1 POP JUMPDEST POP PUSH1 0x40 DUP1 MLOAD PUSH1 0x60 DUP2 ADD DUP3 MSTORE PUSH0 DUP1 DUP3 MSTORE PUSH1 0x20 DUP3 ADD DUP2 SWAP1 MSTORE SWAP2 DUP2 ADD DUP3 SWAP1 MSTORE SWAP2 SWAP3 POP JUMPDEST DUP4 DUP7 EQ PUSH2 0xDA1 JUMPI PUSH0 DUP2 DUP2 MSTORE PUSH1 0x4 PUSH1 0x20 SWAP1 DUP2 MSTORE PUSH1 0x40 SWAP2 DUP3 SWAP1 KECCAK256 DUP3 MLOAD PUSH1 0x60 DUP2 ADD DUP5 MSTORE SWAP1 SLOAD PUSH1 0x1 PUSH1 0x1 PUSH1 0xA0 SHL SUB DUP2 AND DUP3 MSTORE PUSH1 0x1 PUSH1 0xA0 SHL DUP2 DIV PUSH8 0xFFFFFFFFFFFFFFFF AND SWAP3 DUP3 ADD SWAP3 SWAP1 SWAP3 MSTORE PUSH1 0x1 PUSH1 0xE0 SHL SWAP1 SWAP2 DIV PUSH1 0xFF AND ISZERO ISZERO SWAP2 DUP2 ADD DUP3 SWAP1 MSTORE SWAP3 POP PUSH2 0xD99 JUMPI DUP2 MLOAD PUSH1 0x1 PUSH1 0x1 PUSH1 0xA0 SHL SUB AND ISZERO PUSH2 0xD5A JUMPI DUP2 MLOAD SWAP5 POP JUMPDEST DUP8 PUSH1 0x1 PUSH1 0x1 PUSH1 0xA0 SHL SUB AND DUP6 PUSH1 0x1 PUSH1 0x1 PUSH1 0xA0 SHL SUB AND SUB PUSH2 0xD99 JUMPI DUP1 DUP4 DUP8 DUP1 PUSH1 0x1 ADD SWAP9 POP DUP2 MLOAD DUP2 LT PUSH2 0xD8C JUMPI PUSH2 0xD8C PUSH2 0x2D7A JUMP JUMPDEST PUSH1 0x20 MUL PUSH1 0x20 ADD ADD DUP2 DUP2 MSTORE POP POP JUMPDEST PUSH1 0x1 ADD PUSH2 0xCE6 JUMP JUMPDEST POP SWAP1 SWAP7 SWAP6 POP POP POP POP POP POP JUMP JUMPDEST PUSH2 0xDB5 PUSH2 0x158D JUMP JUMPDEST PUSH2 0xDD2 JUMPI PUSH1 0x40 MLOAD PUSH4 0x9F7F0925 PUSH1 0xE0 SHL DUP2 MSTORE PUSH1 0x4 ADD PUSH1 0x40 MLOAD DUP1 SWAP2 SUB SWAP1 REVERT JUMPDEST PUSH2 0x92D DUP2 PUSH2 0x1EBF JUMP JUMPDEST PUSH1 0x60 PUSH1 0x3 DUP1 SLOAD PUSH2 0x73F SWAP1 PUSH2 0x2D42 JUMP JUMPDEST PUSH1 0x60 DUP2 DUP4 LT PUSH2 0xE0C JUMPI PUSH1 0x40 MLOAD PUSH4 0x1960CCAD PUSH1 0xE1 SHL DUP2 MSTORE PUSH1 0x4 ADD PUSH1 0x40 MLOAD DUP1 SWAP2 SUB SWAP1 REVERT JUMPDEST PUSH0 DUP1 SLOAD DUP1 DUP5 GT ISZERO PUSH2 0xE1B JUMPI DUP1 SWAP4 POP JUMPDEST PUSH0 PUSH2 0xE25 DUP8 PUSH2 0xBAD JUMP JUMPDEST SWAP1 POP DUP5 DUP7 LT ISZERO PUSH2 0xE44 JUMPI DUP6 DUP6 SUB DUP2 DUP2 LT ISZERO PUSH2 0xE3E JUMPI DUP1 SWAP2 POP JUMPDEST POP PUSH2 0xE47 JUMP JUMPDEST POP PUSH0 JUMPDEST PUSH0 DUP2 PUSH8 0xFFFFFFFFFFFFFFFF DUP2 GT ISZERO PUSH2 0xE61 JUMPI PUSH2 0xE61 PUSH2 0x2622 JUMP JUMPDEST PUSH1 0x40 MLOAD SWAP1 DUP1 DUP3 MSTORE DUP1 PUSH1 0x20 MUL PUSH1 0x20 ADD DUP3 ADD PUSH1 0x40 MSTORE DUP1 ISZERO PUSH2 0xE8A JUMPI DUP2 PUSH1 0x20 ADD PUSH1 0x20 DUP3 MUL DUP1 CALLDATASIZE DUP4 CALLDATACOPY ADD SWAP1 POP JUMPDEST POP SWAP1 POP DUP2 PUSH0 SUB PUSH2 0xE9F JUMPI SWAP4 POP PUSH2 0xF90 SWAP3 POP POP POP JUMP JUMPDEST PUSH0 PUSH2 0xEA9 DUP9 PUSH2 0x1232 JUMP JUMPDEST SWAP1 POP PUSH0 DUP2 PUSH1 0x40 ADD MLOAD PUSH2 0xEB9 JUMPI POP DUP1 MLOAD JUMPDEST DUP9 JUMPDEST DUP9 DUP2 EQ ISZERO DUP1 ISZERO PUSH2 0xECB JUMPI POP DUP5 DUP8 EQ ISZERO JUMPDEST ISZERO PUSH2 0xF84 JUMPI PUSH0 DUP2 DUP2 MSTORE PUSH1 0x4 PUSH1 0x20 SWAP1 DUP2 MSTORE PUSH1 0x40 SWAP2 DUP3 SWAP1 KECCAK256 DUP3 MLOAD PUSH1 0x60 DUP2 ADD DUP5 MSTORE SWAP1 SLOAD PUSH1 0x1 PUSH1 0x1 PUSH1 0xA0 SHL SUB DUP2 AND DUP3 MSTORE PUSH1 0x1 PUSH1 0xA0 SHL DUP2 DIV PUSH8 0xFFFFFFFFFFFFFFFF AND SWAP3 DUP3 ADD SWAP3 SWAP1 SWAP3 MSTORE PUSH1 0x1 PUSH1 0xE0 SHL SWAP1 SWAP2 DIV PUSH1 0xFF AND ISZERO ISZERO SWAP2 DUP2 ADD DUP3 SWAP1 MSTORE SWAP4 POP PUSH2 0xF7C JUMPI DUP3 MLOAD PUSH1 0x1 PUSH1 0x1 PUSH1 0xA0 SHL SUB AND ISZERO PUSH2 0xF3D JUMPI DUP3 MLOAD SWAP2 POP JUMPDEST DUP11 PUSH1 0x1 PUSH1 0x1 PUSH1 0xA0 SHL SUB AND DUP3 PUSH1 0x1 PUSH1 0x1 PUSH1 0xA0 SHL SUB AND SUB PUSH2 0xF7C JUMPI DUP1 DUP5 DUP9 DUP1 PUSH1 0x1 ADD SWAP10 POP DUP2 MLOAD DUP2 LT PUSH2 0xF6F JUMPI PUSH2 0xF6F PUSH2 0x2D7A JUMP JUMPDEST PUSH1 0x20 MUL PUSH1 0x20 ADD ADD DUP2 DUP2 MSTORE POP POP JUMPDEST PUSH1 0x1 ADD PUSH2 0xEBB JUMP JUMPDEST POP POP POP SWAP3 DUP4 MSTORE POP SWAP1 SWAP2 POP POP JUMPDEST SWAP4 SWAP3 POP POP POP JUMP JUMPDEST PUSH2 0xF9F PUSH2 0x158D JUMP JUMPDEST PUSH2 0xFBC JUMPI PUSH1 0x40 MLOAD PUSH4 0x6FAE3581 PUSH1 0xE1 SHL DUP2 MSTORE PUSH1 0x4 ADD PUSH1 0x40 MLOAD DUP1 SWAP2 SUB SWAP1 REVERT JUMPDEST PUSH2 0x84A DUP4 DUP4 DUP4 PUSH2 0x1F98 JUMP JUMPDEST PUSH1 0x40 MLOAD PUSH3 0x461BCD PUSH1 0xE5 SHL DUP2 MSTORE PUSH1 0x20 PUSH1 0x4 DUP3 ADD MSTORE PUSH1 0x2D PUSH1 0x24 DUP3 ADD MSTORE PUSH32 0x536572746966696B617420536F756C626F756E643A2044656C65676173692064 PUSH1 0x44 DUP3 ADD MSTORE PUSH32 0x696E6F6E616B7469666B616E2100000000000000000000000000000000000000 PUSH1 0x64 DUP3 ADD MSTORE PUSH1 0x84 ADD PUSH2 0x68C JUMP JUMPDEST PUSH1 0x60 DUP2 PUSH8 0xFFFFFFFFFFFFFFFF DUP2 GT ISZERO PUSH2 0x1050 JUMPI PUSH2 0x1050 PUSH2 0x2622 JUMP JUMPDEST PUSH1 0x40 MLOAD SWAP1 DUP1 DUP3 MSTORE DUP1 PUSH1 0x20 MUL PUSH1 0x20 ADD DUP3 ADD PUSH1 0x40 MSTORE DUP1 ISZERO PUSH2 0x1083 JUMPI DUP2 PUSH1 0x20 ADD JUMPDEST PUSH1 0x60 DUP2 MSTORE PUSH1 0x20 ADD SWAP1 PUSH1 0x1 SWAP1 SUB SWAP1 DUP2 PUSH2 0x106E JUMPI SWAP1 POP JUMPDEST POP SWAP1 POP CALLER PUSH0 DUP1 JUMPDEST DUP5 DUP2 LT ISZERO PUSH2 0x1190 JUMPI DUP2 ISZERO PUSH2 0x1109 JUMPI PUSH2 0x10E7 ADDRESS DUP8 DUP8 DUP5 DUP2 DUP2 LT PUSH2 0x10AE JUMPI PUSH2 0x10AE PUSH2 0x2D7A JUMP JUMPDEST SWAP1 POP PUSH1 0x20 MUL DUP2 ADD SWAP1 PUSH2 0x10C0 SWAP2 SWAP1 PUSH2 0x2DE0 JUMP JUMPDEST DUP7 PUSH1 0x40 MLOAD PUSH1 0x20 ADD PUSH2 0x10D3 SWAP4 SWAP3 SWAP2 SWAP1 PUSH2 0x2E23 JUMP JUMPDEST PUSH1 0x40 MLOAD PUSH1 0x20 DUP2 DUP4 SUB SUB DUP2 MSTORE SWAP1 PUSH1 0x40 MSTORE PUSH2 0x2057 JUMP JUMPDEST DUP5 DUP3 DUP2 MLOAD DUP2 LT PUSH2 0x10F9 JUMPI PUSH2 0x10F9 PUSH2 0x2D7A JUMP JUMPDEST PUSH1 0x20 MUL PUSH1 0x20 ADD ADD DUP2 SWAP1 MSTORE POP PUSH2 0x1188 JUMP JUMPDEST PUSH2 0x116A ADDRESS DUP8 DUP8 DUP5 DUP2 DUP2 LT PUSH2 0x111F JUMPI PUSH2 0x111F PUSH2 0x2D7A JUMP JUMPDEST SWAP1 POP PUSH1 0x20 MUL DUP2 ADD SWAP1 PUSH2 0x1131 SWAP2 SWAP1 PUSH2 0x2DE0 JUMP JUMPDEST DUP1 DUP1 PUSH1 0x1F ADD PUSH1 0x20 DUP1 SWAP2 DIV MUL PUSH1 0x20 ADD PUSH1 0x40 MLOAD SWAP1 DUP2 ADD PUSH1 0x40 MSTORE DUP1 SWAP4 SWAP3 SWAP2 SWAP1 DUP2 DUP2 MSTORE PUSH1 0x20 ADD DUP4 DUP4 DUP1 DUP3 DUP5 CALLDATACOPY PUSH0 SWAP3 ADD SWAP2 SWAP1 SWAP2 MSTORE POP PUSH2 0x2057 SWAP3 POP POP POP JUMP JUMPDEST DUP5 DUP3 DUP2 MLOAD DUP2 LT PUSH2 0x117C JUMPI PUSH2 0x117C PUSH2 0x2D7A JUMP JUMPDEST PUSH1 0x20 MUL PUSH1 0x20 ADD ADD DUP2 SWAP1 MSTORE POP JUMPDEST PUSH1 0x1 ADD PUSH2 0x108A JUMP JUMPDEST POP POP POP SWAP3 SWAP2 POP POP JUMP JUMPDEST PUSH2 0x11A4 DUP5 DUP5 DUP5 PUSH2 0x18AF JUMP JUMPDEST PUSH1 0x1 PUSH1 0x1 PUSH1 0xA0 SHL SUB DUP4 AND EXTCODESIZE ISZERO PUSH2 0xC6D JUMPI PUSH2 0x11C0 DUP5 DUP5 DUP5 DUP5 PUSH2 0x207C JUMP JUMPDEST PUSH2 0xC6D JUMPI PUSH1 0x40 MLOAD PUSH4 0x68D2BF6B PUSH1 0xE1 SHL DUP2 MSTORE PUSH1 0x4 ADD PUSH1 0x40 MLOAD DUP1 SWAP2 SUB SWAP1 REVERT JUMPDEST PUSH1 0x9 SLOAD PUSH1 0x1 PUSH1 0x1 PUSH1 0xA0 SHL SUB AND CALLER EQ PUSH2 0x1228 JUMPI PUSH1 0x40 MLOAD PUSH3 0x461BCD PUSH1 0xE5 SHL DUP2 MSTORE PUSH1 0x20 PUSH1 0x4 DUP3 ADD MSTORE PUSH1 0xE PUSH1 0x24 DUP3 ADD MSTORE PUSH14 0x139BDD08185D5D1A1BDC9A5E9959 PUSH1 0x92 SHL PUSH1 0x44 DUP3 ADD MSTORE PUSH1 0x64 ADD PUSH2 0x68C JUMP JUMPDEST PUSH2 0x92D DUP2 PUSH0 PUSH2 0x1AA2 JUMP JUMPDEST PUSH1 0x40 DUP1 MLOAD PUSH1 0x60 DUP1 DUP3 ADD DUP4 MSTORE PUSH0 DUP1 DUP4 MSTORE PUSH1 0x20 DUP1 DUP5 ADD DUP3 SWAP1 MSTORE DUP4 DUP6 ADD DUP3 SWAP1 MSTORE DUP5 MLOAD SWAP3 DUP4 ADD DUP6 MSTORE DUP2 DUP4 MSTORE DUP3 ADD DUP2 SWAP1 MSTORE SWAP3 DUP2 ADD DUP4 SWAP1 MSTORE SWAP1 SWAP2 POP PUSH0 SLOAD DUP4 LT PUSH2 0x1275 JUMPI SWAP3 SWAP2 POP POP JUMP JUMPDEST POP PUSH0 DUP3 DUP2 MSTORE PUSH1 0x4 PUSH1 0x20 SWAP1 DUP2 MSTORE PUSH1 0x40 SWAP2 DUP3 SWAP1 KECCAK256 DUP3 MLOAD PUSH1 0x60 DUP2 ADD DUP5 MSTORE SWAP1 SLOAD PUSH1 0x1 PUSH1 0x1 PUSH1 0xA0 SHL SUB DUP2 AND DUP3 MSTORE PUSH1 0x1 PUSH1 0xA0 SHL DUP2 DIV PUSH8 0xFFFFFFFFFFFFFFFF AND SWAP3 DUP3 ADD SWAP3 SWAP1 SWAP3 MSTORE PUSH1 0x1 PUSH1 0xE0 SHL SWAP1 SWAP2 DIV PUSH1 0xFF AND ISZERO DUP1 ISZERO SWAP3 DUP3 ADD SWAP3 SWAP1 SWAP3 MSTORE SWAP1 PUSH2 0x12D5 JUMPI SWAP3 SWAP2 POP POP JUMP JUMPDEST PUSH2 0xF90 DUP4 PUSH2 0x1D46 JUMP JUMPDEST PUSH0 DUP2 DUP2 MSTORE PUSH1 0xF PUSH1 0x20 MSTORE PUSH1 0x40 DUP2 KECCAK256 DUP1 SLOAD PUSH1 0x60 SWAP3 SWAP2 SWAP1 PUSH2 0x12FB SWAP1 PUSH2 0x2D42 JUMP JUMPDEST DUP1 PUSH1 0x1F ADD PUSH1 0x20 DUP1 SWAP2 DIV MUL PUSH1 0x20 ADD PUSH1 0x40 MLOAD SWAP1 DUP2 ADD PUSH1 0x40 MSTORE DUP1 SWAP3 SWAP2 SWAP1 DUP2 DUP2 MSTORE PUSH1 0x20 ADD DUP3 DUP1 SLOAD PUSH2 0x1327 SWAP1 PUSH2 0x2D42 JUMP JUMPDEST DUP1 ISZERO PUSH2 0x1372 JUMPI DUP1 PUSH1 0x1F LT PUSH2 0x1349 JUMPI PUSH2 0x100 DUP1 DUP4 SLOAD DIV MUL DUP4 MSTORE SWAP2 PUSH1 0x20 ADD SWAP2 PUSH2 0x1372 JUMP JUMPDEST DUP3 ADD SWAP2 SWAP1 PUSH0 MSTORE PUSH1 0x20 PUSH0 KECCAK256 SWAP1 JUMPDEST DUP2 SLOAD DUP2 MSTORE SWAP1 PUSH1 0x1 ADD SWAP1 PUSH1 0x20 ADD DUP1 DUP4 GT PUSH2 0x1355 JUMPI DUP3 SWAP1 SUB PUSH1 0x1F AND DUP3 ADD SWAP2 JUMPDEST POP POP POP POP POP SWAP1 POP PUSH0 DUP2 MLOAD GT ISZERO PUSH2 0x1388 JUMPI SWAP3 SWAP2 POP POP JUMP JUMPDEST PUSH0 PUSH2 0x1392 DUP5 PUSH2 0x2163 JUMP JUMPDEST SWAP1 POP DUP1 PUSH2 0x139E DUP6 PUSH2 0x22D8 JUMP JUMPDEST PUSH1 0x40 MLOAD PUSH1 0x20 ADD PUSH2 0x13AF SWAP3 SWAP2 SWAP1 PUSH2 0x2E60 JUMP JUMPDEST PUSH1 0x40 MLOAD PUSH1 0x20 DUP2 DUP4 SUB SUB DUP2 MSTORE SWAP1 PUSH1 0x40 MSTORE SWAP3 POP POP POP SWAP2 SWAP1 POP JUMP JUMPDEST PUSH1 0x9 SLOAD PUSH1 0x1 PUSH1 0x1 PUSH1 0xA0 SHL SUB AND CALLER EQ PUSH2 0x1412 JUMPI PUSH1 0x40 MLOAD PUSH3 0x461BCD PUSH1 0xE5 SHL DUP2 MSTORE PUSH1 0x20 PUSH1 0x4 DUP3 ADD MSTORE PUSH1 0xE PUSH1 0x24 DUP3 ADD MSTORE PUSH14 0x139BDD08185D5D1A1BDC9A5E9959 PUSH1 0x92 SHL PUSH1 0x44 DUP3 ADD MSTORE PUSH1 0x64 ADD PUSH2 0x68C JUMP JUMPDEST DUP3 DUP2 EQ PUSH2 0x1461 JUMPI PUSH1 0x40 MLOAD PUSH3 0x461BCD PUSH1 0xE5 SHL DUP2 MSTORE PUSH1 0x20 PUSH1 0x4 DUP3 ADD MSTORE PUSH1 0x18 PUSH1 0x24 DUP3 ADD MSTORE PUSH32 0x4172726179206C656E67746873206D757374206D617463680000000000000000 PUSH1 0x44 DUP3 ADD MSTORE PUSH1 0x64 ADD PUSH2 0x68C JUMP JUMPDEST PUSH0 JUMPDEST DUP4 DUP2 LT ISZERO PUSH2 0x14FA JUMPI PUSH2 0x14F2 DUP6 DUP6 DUP4 DUP2 DUP2 LT PUSH2 0x1480 JUMPI PUSH2 0x1480 PUSH2 0x2D7A JUMP JUMPDEST SWAP1 POP PUSH1 0x20 MUL ADD PUSH1 0x20 DUP2 ADD SWAP1 PUSH2 0x1495 SWAP2 SWAP1 PUSH2 0x2849 JUMP JUMPDEST DUP5 DUP5 DUP5 DUP2 DUP2 LT PUSH2 0x14A7 JUMPI PUSH2 0x14A7 PUSH2 0x2D7A JUMP JUMPDEST SWAP1 POP PUSH1 0x20 MUL DUP2 ADD SWAP1 PUSH2 0x14B9 SWAP2 SWAP1 PUSH2 0x2DE0 JUMP JUMPDEST DUP1 DUP1 PUSH1 0x1F ADD PUSH1 0x20 DUP1 SWAP2 DIV MUL PUSH1 0x20 ADD PUSH1 0x40 MLOAD SWAP1 DUP2 ADD PUSH1 0x40 MSTORE DUP1 SWAP4 SWAP3 SWAP2 SWAP1 DUP2 DUP2 MSTORE PUSH1 0x20 ADD DUP4 DUP4 DUP1 DUP3 DUP5 CALLDATACOPY PUSH0 SWAP3 ADD SWAP2 SWAP1 SWAP2 MSTORE POP PUSH2 0x1802 SWAP3 POP POP POP JUMP JUMPDEST PUSH1 0x1 ADD PUSH2 0x1463 JUMP JUMPDEST POP POP POP POP POP JUMP JUMPDEST PUSH1 0x8 DUP1 SLOAD PUSH2 0x150E SWAP1 PUSH2 0x2D42 JUMP JUMPDEST DUP1 PUSH1 0x1F ADD PUSH1 0x20 DUP1 SWAP2 DIV MUL PUSH1 0x20 ADD PUSH1 0x40 MLOAD SWAP1 DUP2 ADD PUSH1 0x40 MSTORE DUP1 SWAP3 SWAP2 SWAP1 DUP2 DUP2 MSTORE PUSH1 0x20 ADD DUP3 DUP1 SLOAD PUSH2 0x153A SWAP1 PUSH2 0x2D42 JUMP JUMPDEST DUP1 ISZERO PUSH2 0x1585 JUMPI DUP1 PUSH1 0x1F LT PUSH2 0x155C JUMPI PUSH2 0x100 DUP1 DUP4 SLOAD DIV MUL DUP4 MSTORE SWAP2 PUSH1 0x20 ADD SWAP2 PUSH2 0x1585 JUMP JUMPDEST DUP3 ADD SWAP2 SWAP1 PUSH0 MSTORE PUSH1 0x20 PUSH0 KECCAK256 SWAP1 JUMPDEST DUP2 SLOAD DUP2 MSTORE SWAP1 PUSH1 0x1 ADD SWAP1 PUSH1 0x20 ADD DUP1 DUP4 GT PUSH2 0x1568 JUMPI DUP3 SWAP1 SUB PUSH1 0x1F AND DUP3 ADD SWAP2 JUMPDEST POP POP POP POP POP DUP2 JUMP JUMPDEST PUSH0 PUSH2 0x15A0 PUSH1 0x9 SLOAD PUSH1 0x1 PUSH1 0x1 PUSH1 0xA0 SHL SUB AND SWAP1 JUMP JUMPDEST PUSH1 0x1 PUSH1 0x1 PUSH1 0xA0 SHL SUB AND CALLER PUSH1 0x1 PUSH1 0x1 PUSH1 0xA0 SHL SUB AND EQ SWAP1 POP SWAP1 JUMP JUMPDEST PUSH0 DUP3 DUP2 MSTORE PUSH1 0xF PUSH1 0x20 MSTORE PUSH1 0x40 SWAP1 KECCAK256 DUP1 SLOAD PUSH2 0x15D1 SWAP1 PUSH2 0x2D42 JUMP JUMPDEST ISZERO SWAP1 POP PUSH2 0x1620 JUMPI PUSH1 0x40 MLOAD PUSH3 0x461BCD PUSH1 0xE5 SHL DUP2 MSTORE PUSH1 0x20 PUSH1 0x4 DUP3 ADD MSTORE PUSH1 0xF PUSH1 0x24 DUP3 ADD MSTORE PUSH32 0x55524920616C7265616479207365740000000000000000000000000000000000 PUSH1 0x44 DUP3 ADD MSTORE PUSH1 0x64 ADD PUSH2 0x68C JUMP JUMPDEST PUSH0 DUP3 DUP2 MSTORE PUSH1 0xF PUSH1 0x20 MSTORE PUSH1 0x40 SWAP1 KECCAK256 PUSH2 0x84A DUP3 DUP3 PUSH2 0x2EB8 JUMP JUMPDEST PUSH0 SLOAD PUSH1 0x1 PUSH1 0x1 PUSH1 0xA0 SHL SUB DUP5 AND PUSH2 0x165F JUMPI PUSH1 0x40 MLOAD PUSH3 0x2E0763 PUSH1 0xE8 SHL DUP2 MSTORE PUSH1 0x4 ADD PUSH1 0x40 MLOAD DUP1 SWAP2 SUB SWAP1 REVERT JUMPDEST DUP3 PUSH0 SUB PUSH2 0x167F JUMPI PUSH1 0x40 MLOAD PUSH4 0xB562E8DD PUSH1 0xE0 SHL DUP2 MSTORE PUSH1 0x4 ADD PUSH1 0x40 MLOAD DUP1 SWAP2 SUB SWAP1 REVERT JUMPDEST PUSH2 0x168B PUSH0 DUP6 DUP4 DUP7 PUSH2 0x23ED JUMP JUMPDEST PUSH1 0x1 PUSH1 0x1 PUSH1 0xA0 SHL SUB DUP5 AND PUSH0 DUP2 DUP2 MSTORE PUSH1 0x5 PUSH1 0x20 SWAP1 DUP2 MSTORE PUSH1 0x40 DUP1 DUP4 KECCAK256 DUP1 SLOAD PUSH16 0xFFFFFFFFFFFFFFFFFFFFFFFFFFFFFFFF NOT DUP2 AND PUSH8 0xFFFFFFFFFFFFFFFF DUP1 DUP4 AND DUP12 ADD DUP2 AND SWAP2 DUP3 OR PUSH9 0x10000000000000000 PUSH8 0xFFFFFFFFFFFFFFFF NOT SWAP1 SWAP5 AND SWAP1 SWAP3 OR DUP4 SWAP1 DIV DUP2 AND DUP12 ADD DUP2 AND SWAP1 SWAP3 MUL OR SWAP1 SWAP2 SSTORE DUP6 DUP5 MSTORE PUSH1 0x4 SWAP1 SWAP3 MSTORE SWAP1 SWAP2 KECCAK256 DUP1 SLOAD PUSH1 0x1 PUSH1 0x1 PUSH1 0xE0 SHL SUB NOT AND DUP4 OR PUSH1 0x1 PUSH1 0xA0 SHL TIMESTAMP SWAP1 SWAP4 AND SWAP3 SWAP1 SWAP3 MUL SWAP2 SWAP1 SWAP2 OR SWAP1 SSTORE DUP2 SWAP1 DUP2 DUP6 ADD SWAP1 EXTCODESIZE ISZERO PUSH2 0x17AF JUMPI JUMPDEST PUSH1 0x40 MLOAD DUP3 SWAP1 PUSH1 0x1 PUSH1 0x1 PUSH1 0xA0 SHL SUB DUP9 AND SWAP1 PUSH0 SWAP1 PUSH32 0xDDF252AD1BE2C89B69C2B068FC378DAA952BA7F163C4A11628F55A4DF523B3EF SWAP1 DUP3 SWAP1 LOG4 PUSH2 0x177A PUSH0 DUP8 DUP5 DUP1 PUSH1 0x1 ADD SWAP6 POP DUP8 PUSH2 0x207C JUMP JUMPDEST PUSH2 0x1797 JUMPI PUSH1 0x40 MLOAD PUSH4 0x68D2BF6B PUSH1 0xE1 SHL DUP2 MSTORE PUSH1 0x4 ADD PUSH1 0x40 MLOAD DUP1 SWAP2 SUB SWAP1 REVERT JUMPDEST DUP1 DUP3 LT PUSH2 0x1731 JUMPI DUP3 PUSH0 SLOAD EQ PUSH2 0x17AA JUMPI PUSH0 DUP1 REVERT JUMPDEST PUSH2 0x17F3 JUMP JUMPDEST JUMPDEST PUSH1 0x40 MLOAD PUSH1 0x1 DUP4 ADD SWAP3 SWAP1 PUSH1 0x1 PUSH1 0x1 PUSH1 0xA0 SHL SUB DUP9 AND SWAP1 PUSH0 SWAP1 PUSH32 0xDDF252AD1BE2C89B69C2B068FC378DAA952BA7F163C4A11628F55A4DF523B3EF SWAP1 DUP3 SWAP1 LOG4 DUP1 DUP3 LT PUSH2 0x17B0 JUMPI JUMPDEST POP PUSH0 SWAP1 DUP2 SSTORE PUSH2 0xC6D SWAP1 DUP6 DUP4 DUP7 DUP5 JUMP JUMPDEST PUSH0 SLOAD PUSH2 0x180E DUP2 DUP4 PUSH2 0x15B9 JUMP JUMPDEST PUSH2 0x84A DUP4 PUSH1 0x1 PUSH1 0x40 MLOAD DUP1 PUSH1 0x20 ADD PUSH1 0x40 MSTORE DUP1 PUSH0 DUP2 MSTORE POP PUSH2 0x1637 JUMP JUMPDEST PUSH0 DUP1 SLOAD DUP3 LT DUP1 ISZERO PUSH2 0x72A JUMPI POP POP PUSH0 SWAP1 DUP2 MSTORE PUSH1 0x4 PUSH1 0x20 MSTORE PUSH1 0x40 SWAP1 KECCAK256 SLOAD PUSH1 0x1 PUSH1 0xE0 SHL SWAP1 DIV PUSH1 0xFF AND ISZERO SWAP1 JUMP JUMPDEST PUSH1 0x9 DUP1 SLOAD PUSH1 0x1 PUSH1 0x1 PUSH1 0xA0 SHL SUB DUP4 DUP2 AND PUSH20 0xFFFFFFFFFFFFFFFFFFFFFFFFFFFFFFFFFFFFFFFF NOT DUP4 AND DUP2 OR SWAP1 SWAP4 SSTORE PUSH1 0x40 MLOAD SWAP2 AND SWAP2 SWAP1 DUP3 SWAP1 PUSH32 0x8292FCE18FA69EDF4DB7B94EA2E58241DF0AE57F97E0A6C9B29067028BF92D76 SWAP1 PUSH0 SWAP1 LOG3 POP POP JUMP JUMPDEST PUSH0 PUSH2 0x18B9 DUP3 PUSH2 0x1D46 JUMP JUMPDEST SWAP1 POP DUP4 PUSH1 0x1 PUSH1 0x1 PUSH1 0xA0 SHL SUB AND DUP2 PUSH0 ADD MLOAD PUSH1 0x1 PUSH1 0x1 PUSH1 0xA0 SHL SUB AND EQ PUSH2 0x18EF JUMPI PUSH1 0x40 MLOAD PUSH3 0xA11481 PUSH1 0xE8 SHL DUP2 MSTORE PUSH1 0x4 ADD PUSH1 0x40 MLOAD DUP1 SWAP2 SUB SWAP1 REVERT JUMPDEST PUSH0 CALLER PUSH1 0x1 PUSH1 0x1 PUSH1 0xA0 SHL SUB DUP7 AND EQ DUP1 PUSH2 0x190C JUMPI POP PUSH2 0x190C DUP6 CALLER PUSH2 0x635 JUMP JUMPDEST DUP1 PUSH2 0x1927 JUMPI POP CALLER PUSH2 0x191C DUP5 PUSH2 0x84F JUMP JUMPDEST PUSH1 0x1 PUSH1 0x1 PUSH1 0xA0 SHL SUB AND EQ JUMPDEST SWAP1 POP DUP1 PUSH2 0x1947 JUMPI PUSH1 0x40 MLOAD PUSH4 0x2CE44B5F PUSH1 0xE1 SHL DUP2 MSTORE PUSH1 0x4 ADD PUSH1 0x40 MLOAD DUP1 SWAP2 SUB SWAP1 REVERT JUMPDEST PUSH1 0x1 PUSH1 0x1 PUSH1 0xA0 SHL SUB DUP5 AND PUSH2 0x196E JUMPI PUSH1 0x40 MLOAD PUSH4 0x3A954ECD PUSH1 0xE2 SHL DUP2 MSTORE PUSH1 0x4 ADD PUSH1 0x40 MLOAD DUP1 SWAP2 SUB SWAP1 REVERT JUMPDEST PUSH2 0x197B DUP6 DUP6 DUP6 PUSH1 0x1 PUSH2 0x23ED JUMP JUMPDEST PUSH2 0x1986 PUSH0 DUP5 DUP8 PUSH2 0x248E JUMP JUMPDEST PUSH1 0x1 PUSH1 0x1 PUSH1 0xA0 SHL SUB DUP6 DUP2 AND PUSH0 SWAP1 DUP2 MSTORE PUSH1 0x5 PUSH1 0x20 SWAP1 DUP2 MSTORE PUSH1 0x40 DUP1 DUP4 KECCAK256 DUP1 SLOAD PUSH8 0xFFFFFFFFFFFFFFFF NOT DUP1 DUP3 AND PUSH8 0xFFFFFFFFFFFFFFFF SWAP3 DUP4 AND PUSH0 NOT ADD DUP4 AND OR SWAP1 SWAP3 SSTORE DUP10 DUP7 AND DUP1 DUP7 MSTORE DUP4 DUP7 KECCAK256 DUP1 SLOAD SWAP4 DUP5 AND SWAP4 DUP4 AND PUSH1 0x1 SWAP1 DUP2 ADD DUP5 AND SWAP5 SWAP1 SWAP5 OR SWAP1 SSTORE DUP10 DUP7 MSTORE PUSH1 0x4 SWAP1 SWAP5 MSTORE DUP3 DUP6 KECCAK256 DUP1 SLOAD PUSH1 0x1 PUSH1 0x1 PUSH1 0xE0 SHL SUB NOT AND SWAP1 SWAP5 OR PUSH1 0x1 PUSH1 0xA0 SHL TIMESTAMP SWAP1 SWAP3 AND SWAP2 SWAP1 SWAP2 MUL OR DUP4 SSTORE DUP8 ADD DUP1 DUP5 MSTORE SWAP3 KECCAK256 DUP1 SLOAD SWAP2 SWAP4 SWAP1 SWAP2 AND PUSH2 0x1A59 JUMPI PUSH0 SLOAD DUP3 EQ PUSH2 0x1A59 JUMPI DUP1 SLOAD PUSH1 0x20 DUP7 ADD MLOAD PUSH8 0xFFFFFFFFFFFFFFFF AND PUSH1 0x1 PUSH1 0xA0 SHL MUL PUSH1 0x1 PUSH1 0x1 PUSH1 0xE0 SHL SUB NOT SWAP1 SWAP2 AND PUSH1 0x1 PUSH1 0x1 PUSH1 0xA0 SHL SUB DUP11 AND OR OR DUP2 SSTORE JUMPDEST POP POP POP DUP3 DUP5 PUSH1 0x1 PUSH1 0x1 PUSH1 0xA0 SHL SUB AND DUP7 PUSH1 0x1 PUSH1 0x1 PUSH1 0xA0 SHL SUB AND PUSH32 0xDDF252AD1BE2C89B69C2B068FC378DAA952BA7F163C4A11628F55A4DF523B3EF PUSH1 0x40 MLOAD PUSH1 0x40 MLOAD DUP1 SWAP2 SUB SWAP1 LOG4 PUSH2 0x14FA JUMP JUMPDEST PUSH0 PUSH2 0x1AAC DUP4 PUSH2 0x1D46 JUMP JUMPDEST DUP1 MLOAD SWAP1 SWAP2 POP DUP3 ISZERO PUSH2 0x1B11 JUMPI PUSH0 CALLER PUSH1 0x1 PUSH1 0x1 PUSH1 0xA0 SHL SUB DUP4 AND EQ DUP1 PUSH2 0x1AD4 JUMPI POP PUSH2 0x1AD4 DUP3 CALLER PUSH2 0x635 JUMP JUMPDEST DUP1 PUSH2 0x1AEF JUMPI POP CALLER PUSH2 0x1AE4 DUP7 PUSH2 0x84F JUMP JUMPDEST PUSH1 0x1 PUSH1 0x1 PUSH1 0xA0 SHL SUB AND EQ JUMPDEST SWAP1 POP DUP1 PUSH2 0x1B0F JUMPI PUSH1 0x40 MLOAD PUSH4 0x2CE44B5F PUSH1 0xE1 SHL DUP2 MSTORE PUSH1 0x4 ADD PUSH1 0x40 MLOAD DUP1 SWAP2 SUB SWAP1 REVERT JUMPDEST POP JUMPDEST PUSH2 0x1B1E DUP2 PUSH0 DUP7 PUSH1 0x1 PUSH2 0x23ED JUMP JUMPDEST PUSH2 0x1B29 PUSH0 DUP6 DUP4 PUSH2 0x248E JUMP JUMPDEST PUSH1 0x1 PUSH1 0x1 PUSH1 0xA0 SHL SUB DUP1 DUP3 AND PUSH0 DUP2 DUP2 MSTORE PUSH1 0x5 PUSH1 0x20 SWAP1 DUP2 MSTORE PUSH1 0x40 DUP1 DUP4 KECCAK256 DUP1 SLOAD PUSH17 0x100000000000000000000000000000000 PUSH0 NOT PUSH8 0xFFFFFFFFFFFFFFFF DUP1 DUP5 AND SWAP2 SWAP1 SWAP2 ADD DUP2 AND PUSH8 0xFFFFFFFFFFFFFFFF NOT DUP5 AND DUP2 OR DUP4 SWAP1 DIV DUP3 AND PUSH1 0x1 SWAP1 DUP2 ADD DUP4 AND SWAP1 SWAP4 MUL PUSH32 0xFFFFFFFFFFFFFFFF0000000000000000FFFFFFFFFFFFFFFF0000000000000000 SWAP1 SWAP5 AND OR SWAP3 SWAP1 SWAP3 OR DUP4 SSTORE DUP12 DUP7 MSTORE PUSH1 0x4 SWAP1 SWAP5 MSTORE DUP3 DUP6 KECCAK256 DUP1 SLOAD PUSH32 0xFFFFFF00FFFFFFFFFFFFFFFFFFFFFFFFFFFFFFFFFFFFFFFFFFFFFFFFFFFFFFFF TIMESTAMP SWAP1 SWAP4 AND PUSH1 0x1 PUSH1 0xA0 SHL MUL PUSH1 0x1 PUSH1 0x1 PUSH1 0xE0 SHL SUB NOT SWAP1 SWAP2 AND SWAP1 SWAP8 OR SWAP7 SWAP1 SWAP7 OR AND PUSH1 0x1 PUSH1 0xE0 SHL OR DUP6 SSTORE SWAP2 DUP10 ADD DUP1 DUP5 MSTORE SWAP3 KECCAK256 DUP1 SLOAD SWAP2 SWAP5 SWAP1 SWAP2 AND PUSH2 0x1C55 JUMPI PUSH0 SLOAD DUP3 EQ PUSH2 0x1C55 JUMPI DUP1 SLOAD PUSH1 0x20 DUP8 ADD MLOAD PUSH8 0xFFFFFFFFFFFFFFFF AND PUSH1 0x1 PUSH1 0xA0 SHL MUL PUSH1 0x1 PUSH1 0x1 PUSH1 0xE0 SHL SUB NOT SWAP1 SWAP2 AND PUSH1 0x1 PUSH1 0x1 PUSH1 0xA0 SHL SUB DUP8 AND OR OR DUP2 SSTORE JUMPDEST POP POP PUSH1 0x40 MLOAD DUP7 SWAP3 POP PUSH0 SWAP2 POP PUSH1 0x1 PUSH1 0x1 PUSH1 0xA0 SHL SUB DUP5 AND SWAP1 PUSH32 0xDDF252AD1BE2C89B69C2B068FC378DAA952BA7F163C4A11628F55A4DF523B3EF SWAP1 DUP4 SWAP1 LOG4 POP POP PUSH1 0x1 DUP1 SLOAD DUP2 ADD SWAP1 SSTORE POP POP JUMP JUMPDEST PUSH2 0x2710 DUP2 GT ISZERO PUSH2 0x1CCC JUMPI PUSH1 0x40 MLOAD PUSH4 0xA4930AD PUSH1 0xE3 SHL DUP2 MSTORE PUSH2 0x2710 PUSH1 0x4 DUP3 ADD MSTORE PUSH1 0x24 DUP2 ADD DUP3 SWAP1 MSTORE PUSH1 0x44 ADD PUSH2 0x68C JUMP JUMPDEST PUSH1 0xA DUP1 SLOAD PUSH1 0x1 PUSH1 0x1 PUSH1 0xA0 SHL SUB DUP5 AND PUSH32 0xFFFFFFFFFFFFFFFFFFFF00000000000000000000000000000000000000000000 SWAP1 SWAP2 AND DUP2 OR PUSH1 0x1 PUSH1 0xA0 SHL PUSH2 0xFFFF DUP6 AND MUL OR SWAP1 SWAP2 SSTORE PUSH1 0x40 MLOAD DUP3 DUP2 MSTORE PUSH32 0x90D7EC04BCB8978719414F82E52E4CB651DB41D0E6F8CEA6118C2191E6183ADB SWAP1 PUSH1 0x20 ADD PUSH1 0x40 MLOAD DUP1 SWAP2 SUB SWAP1 LOG2 POP POP JUMP JUMPDEST PUSH1 0x40 DUP1 MLOAD PUSH1 0x60 DUP2 ADD DUP3 MSTORE PUSH0 DUP1 DUP3 MSTORE PUSH1 0x20 DUP3 ADD DUP2 SWAP1 MSTORE SWAP2 DUP2 ADD SWAP2 SWAP1 SWAP2 MSTORE DUP2 PUSH0 SLOAD DUP2 LT ISZERO PUSH2 0x1E44 JUMPI PUSH0 DUP2 DUP2 MSTORE PUSH1 0x4 PUSH1 0x20 SWAP1 DUP2 MSTORE PUSH1 0x40 SWAP2 DUP3 SWAP1 KECCAK256 DUP3 MLOAD PUSH1 0x60 DUP2 ADD DUP5 MSTORE SWAP1 SLOAD PUSH1 0x1 PUSH1 0x1 PUSH1 0xA0 SHL SUB DUP2 AND DUP3 MSTORE PUSH1 0x1 PUSH1 0xA0 SHL DUP2 DIV PUSH8 0xFFFFFFFFFFFFFFFF AND SWAP3 DUP3 ADD SWAP3 SWAP1 SWAP3 MSTORE PUSH1 0x1 PUSH1 0xE0 SHL SWAP1 SWAP2 DIV PUSH1 0xFF AND ISZERO ISZERO SWAP2 DUP2 ADD DUP3 SWAP1 MSTORE SWAP1 PUSH2 0x1E42 JUMPI DUP1 MLOAD PUSH1 0x1 PUSH1 0x1 PUSH1 0xA0 SHL SUB AND ISZERO PUSH2 0x1DDA JUMPI SWAP4 SWAP3 POP POP POP JUMP JUMPDEST POP PUSH0 NOT ADD PUSH0 DUP2 DUP2 MSTORE PUSH1 0x4 PUSH1 0x20 SWAP1 DUP2 MSTORE PUSH1 0x40 SWAP2 DUP3 SWAP1 KECCAK256 DUP3 MLOAD PUSH1 0x60 DUP2 ADD DUP5 MSTORE SWAP1 SLOAD PUSH1 0x1 PUSH1 0x1 PUSH1 0xA0 SHL SUB DUP2 AND DUP1 DUP4 MSTORE PUSH1 0x1 PUSH1 0xA0 SHL DUP3 DIV PUSH8 0xFFFFFFFFFFFFFFFF AND SWAP4 DUP4 ADD SWAP4 SWAP1 SWAP4 MSTORE PUSH1 0x1 PUSH1 0xE0 SHL SWAP1 DIV PUSH1 0xFF AND ISZERO ISZERO SWAP3 DUP2 ADD SWAP3 SWAP1 SWAP3 MSTORE ISZERO PUSH2 0x1E3D JUMPI SWAP4 SWAP3 POP POP POP JUMP JUMPDEST PUSH2 0x1DDA JUMP JUMPDEST POP JUMPDEST PUSH1 0x40 MLOAD PUSH4 0x6F96CDA1 PUSH1 0xE1 SHL DUP2 MSTORE PUSH1 0x4 ADD PUSH1 0x40 MLOAD DUP1 SWAP2 SUB SWAP1 REVERT JUMPDEST PUSH0 DUP1 PUSH2 0x1E69 DUP5 DUP7 PUSH2 0x2F78 JUMP JUMPDEST PUSH1 0xC DUP1 SLOAD PUSH1 0x1 DUP2 ADD SWAP1 SWAP2 SSTORE PUSH32 0xDF6966C971051C3D54EC59162606531493A51404A002842F56009D7E5CF4A8C7 ADD DUP2 SWAP1 SSTORE PUSH0 DUP2 DUP2 MSTORE PUSH1 0xD PUSH1 0x20 MSTORE PUSH1 0x40 SWAP1 KECCAK256 SWAP1 SWAP3 POP DUP3 SWAP2 POP PUSH2 0x1EB6 DUP5 DUP3 PUSH2 0x2EB8 JUMP JUMPDEST POP SWAP4 POP SWAP4 SWAP2 POP POP JUMP JUMPDEST PUSH0 PUSH1 0x8 DUP1 SLOAD PUSH2 0x1ECD SWAP1 PUSH2 0x2D42 JUMP JUMPDEST DUP1 PUSH1 0x1F ADD PUSH1 0x20 DUP1 SWAP2 DIV MUL PUSH1 0x20 ADD PUSH1 0x40 MLOAD SWAP1 DUP2 ADD PUSH1 0x40 MSTORE DUP1 SWAP3 SWAP2 SWAP1 DUP2 DUP2 MSTORE PUSH1 0x20 ADD DUP3 DUP1 SLOAD PUSH2 0x1EF9 SWAP1 PUSH2 0x2D42 JUMP JUMPDEST DUP1 ISZERO PUSH2 0x1F44 JUMPI DUP1 PUSH1 0x1F LT PUSH2 0x1F1B JUMPI PUSH2 0x100 DUP1 DUP4 SLOAD DIV MUL DUP4 MSTORE SWAP2 PUSH1 0x20 ADD SWAP2 PUSH2 0x1F44 JUMP JUMPDEST DUP3 ADD SWAP2 SWAP1 PUSH0 MSTORE PUSH1 0x20 PUSH0 KECCAK256 SWAP1 JUMPDEST DUP2 SLOAD DUP2 MSTORE SWAP1 PUSH1 0x1 ADD SWAP1 PUSH1 0x20 ADD DUP1 DUP4 GT PUSH2 0x1F27 JUMPI DUP3 SWAP1 SUB PUSH1 0x1F AND DUP3 ADD SWAP2 JUMPDEST POP POP POP POP POP SWAP1 POP DUP2 PUSH1 0x8 SWAP1 DUP2 PUSH2 0x1F5A SWAP2 SWAP1 PUSH2 0x2EB8 JUMP JUMPDEST POP PUSH32 0xC9C7C3FE08B88B4DF9D4D47EF47D2C43D55C025A0BA88CA442580ED9E7348A16 DUP2 DUP4 PUSH1 0x40 MLOAD PUSH2 0x1F8C SWAP3 SWAP2 SWAP1 PUSH2 0x2F8B JUMP JUMPDEST PUSH1 0x40 MLOAD DUP1 SWAP2 SUB SWAP1 LOG1 POP POP JUMP JUMPDEST PUSH2 0x2710 DUP2 GT ISZERO PUSH2 0x1FC6 JUMPI PUSH1 0x40 MLOAD PUSH4 0xA4930AD PUSH1 0xE3 SHL DUP2 MSTORE PUSH2 0x2710 PUSH1 0x4 DUP3 ADD MSTORE PUSH1 0x24 DUP2 ADD DUP3 SWAP1 MSTORE PUSH1 0x44 ADD PUSH2 0x68C JUMP JUMPDEST PUSH1 0x40 DUP1 MLOAD DUP1 DUP3 ADD DUP3 MSTORE PUSH1 0x1 PUSH1 0x1 PUSH1 0xA0 SHL SUB DUP5 DUP2 AND DUP1 DUP4 MSTORE PUSH1 0x20 DUP1 DUP5 ADD DUP7 DUP2 MSTORE PUSH0 DUP10 DUP2 MSTORE PUSH1 0xB DUP4 MSTORE DUP7 SWAP1 KECCAK256 SWAP5 MLOAD DUP6 SLOAD PUSH20 0xFFFFFFFFFFFFFFFFFFFFFFFFFFFFFFFFFFFFFFFF NOT AND SWAP5 AND SWAP4 SWAP1 SWAP4 OR DUP5 SSTORE SWAP2 MLOAD PUSH1 0x1 SWAP1 SWAP4 ADD SWAP3 SWAP1 SWAP3 SSTORE SWAP2 MLOAD DUP4 DUP2 MSTORE SWAP1 SWAP2 DUP6 SWAP2 PUSH32 0x7365CF4122F072A3365C20D54EFF9B38D73C096C28E1892EC8F5B0E403A0F12D SWAP2 ADD PUSH1 0x40 MLOAD DUP1 SWAP2 SUB SWAP1 LOG3 POP POP POP JUMP JUMPDEST PUSH1 0x60 PUSH2 0xF90 DUP4 DUP4 PUSH1 0x40 MLOAD DUP1 PUSH1 0x60 ADD PUSH1 0x40 MSTORE DUP1 PUSH1 0x27 DUP2 MSTORE PUSH1 0x20 ADD PUSH2 0x304E PUSH1 0x27 SWAP2 CODECOPY PUSH2 0x24F6 JUMP JUMPDEST PUSH1 0x40 MLOAD PUSH4 0xA85BD01 PUSH1 0xE1 SHL DUP2 MSTORE PUSH0 SWAP1 PUSH1 0x1 PUSH1 0x1 PUSH1 0xA0 SHL SUB DUP6 AND SWAP1 PUSH4 0x150B7A02 SWAP1 PUSH2 0x20B0 SWAP1 CALLER SWAP1 DUP10 SWAP1 DUP9 SWAP1 DUP9 SWAP1 PUSH1 0x4 ADD PUSH2 0x2FB8 JUMP JUMPDEST PUSH1 0x20 PUSH1 0x40 MLOAD DUP1 DUP4 SUB DUP2 PUSH0 DUP8 GAS CALL SWAP3 POP POP POP DUP1 ISZERO PUSH2 0x20EA JUMPI POP PUSH1 0x40 DUP1 MLOAD PUSH1 0x1F RETURNDATASIZE SWAP1 DUP2 ADD PUSH1 0x1F NOT AND DUP3 ADD SWAP1 SWAP3 MSTORE PUSH2 0x20E7 SWAP2 DUP2 ADD SWAP1 PUSH2 0x2FE9 JUMP JUMPDEST PUSH1 0x1 JUMPDEST PUSH2 0x2146 JUMPI RETURNDATASIZE DUP1 DUP1 ISZERO PUSH2 0x2117 JUMPI PUSH1 0x40 MLOAD SWAP2 POP PUSH1 0x1F NOT PUSH1 0x3F RETURNDATASIZE ADD AND DUP3 ADD PUSH1 0x40 MSTORE RETURNDATASIZE DUP3 MSTORE RETURNDATASIZE PUSH0 PUSH1 0x20 DUP5 ADD RETURNDATACOPY PUSH2 0x211C JUMP JUMPDEST PUSH1 0x60 SWAP2 POP JUMPDEST POP DUP1 MLOAD PUSH0 SUB PUSH2 0x213E JUMPI PUSH1 0x40 MLOAD PUSH4 0x68D2BF6B PUSH1 0xE1 SHL DUP2 MSTORE PUSH1 0x4 ADD PUSH1 0x40 MLOAD DUP1 SWAP2 SUB SWAP1 REVERT JUMPDEST DUP1 MLOAD DUP2 PUSH1 0x20 ADD REVERT JUMPDEST PUSH1 0x1 PUSH1 0x1 PUSH1 0xE0 SHL SUB NOT AND PUSH4 0xA85BD01 PUSH1 0xE1 SHL EQ SWAP1 POP SWAP5 SWAP4 POP POP POP POP JUMP JUMPDEST PUSH1 0x60 PUSH0 PUSH2 0x216F PUSH1 0xC SLOAD SWAP1 JUMP JUMPDEST SWAP1 POP PUSH0 PUSH1 0xC DUP1 SLOAD DUP1 PUSH1 0x20 MUL PUSH1 0x20 ADD PUSH1 0x40 MLOAD SWAP1 DUP2 ADD PUSH1 0x40 MSTORE DUP1 SWAP3 SWAP2 SWAP1 DUP2 DUP2 MSTORE PUSH1 0x20 ADD DUP3 DUP1 SLOAD DUP1 ISZERO PUSH2 0x21BC JUMPI PUSH1 0x20 MUL DUP3 ADD SWAP2 SWAP1 PUSH0 MSTORE PUSH1 0x20 PUSH0 KECCAK256 SWAP1 JUMPDEST DUP2 SLOAD DUP2 MSTORE PUSH1 0x20 ADD SWAP1 PUSH1 0x1 ADD SWAP1 DUP1 DUP4 GT PUSH2 0x21A8 JUMPI JUMPDEST POP POP POP POP POP SWAP1 POP PUSH0 JUMPDEST DUP3 DUP2 LT ISZERO PUSH2 0x22BB JUMPI DUP2 DUP2 DUP2 MLOAD DUP2 LT PUSH2 0x21DF JUMPI PUSH2 0x21DF PUSH2 0x2D7A JUMP JUMPDEST PUSH1 0x20 MUL PUSH1 0x20 ADD ADD MLOAD DUP6 LT ISZERO PUSH2 0x22A9 JUMPI PUSH1 0xD PUSH0 DUP4 DUP4 DUP2 MLOAD DUP2 LT PUSH2 0x2203 JUMPI PUSH2 0x2203 PUSH2 0x2D7A JUMP JUMPDEST PUSH1 0x20 MUL PUSH1 0x20 ADD ADD MLOAD DUP2 MSTORE PUSH1 0x20 ADD SWAP1 DUP2 MSTORE PUSH1 0x20 ADD PUSH0 KECCAK256 DUP1 SLOAD PUSH2 0x2223 SWAP1 PUSH2 0x2D42 JUMP JUMPDEST DUP1 PUSH1 0x1F ADD PUSH1 0x20 DUP1 SWAP2 DIV MUL PUSH1 0x20 ADD PUSH1 0x40 MLOAD SWAP1 DUP2 ADD PUSH1 0x40 MSTORE DUP1 SWAP3 SWAP2 SWAP1 DUP2 DUP2 MSTORE PUSH1 0x20 ADD DUP3 DUP1 SLOAD PUSH2 0x224F SWAP1 PUSH2 0x2D42 JUMP JUMPDEST DUP1 ISZERO PUSH2 0x229A JUMPI DUP1 PUSH1 0x1F LT PUSH2 0x2271 JUMPI PUSH2 0x100 DUP1 DUP4 SLOAD DIV MUL DUP4 MSTORE SWAP2 PUSH1 0x20 ADD SWAP2 PUSH2 0x229A JUMP JUMPDEST DUP3 ADD SWAP2 SWAP1 PUSH0 MSTORE PUSH1 0x20 PUSH0 KECCAK256 SWAP1 JUMPDEST DUP2 SLOAD DUP2 MSTORE SWAP1 PUSH1 0x1 ADD SWAP1 PUSH1 0x20 ADD DUP1 DUP4 GT PUSH2 0x227D JUMPI DUP3 SWAP1 SUB PUSH1 0x1F AND DUP3 ADD SWAP2 JUMPDEST POP POP POP POP POP SWAP4 POP POP POP POP SWAP2 SWAP1 POP JUMP JUMPDEST PUSH2 0x22B4 PUSH1 0x1 DUP3 PUSH2 0x2F78 JUMP JUMPDEST SWAP1 POP PUSH2 0x21C5 JUMP JUMPDEST POP PUSH1 0x40 MLOAD PUSH4 0x9797F69 PUSH1 0xE2 SHL DUP2 MSTORE PUSH1 0x4 DUP2 ADD DUP6 SWAP1 MSTORE PUSH1 0x24 ADD PUSH2 0x68C JUMP JUMPDEST PUSH1 0x60 DUP2 PUSH0 SUB PUSH2 0x22FE JUMPI POP POP PUSH1 0x40 DUP1 MLOAD DUP1 DUP3 ADD SWAP1 SWAP2 MSTORE PUSH1 0x1 DUP2 MSTORE PUSH1 0x3 PUSH1 0xFC SHL PUSH1 0x20 DUP3 ADD MSTORE SWAP1 JUMP JUMPDEST DUP2 PUSH0 JUMPDEST DUP2 ISZERO PUSH2 0x2327 JUMPI DUP1 PUSH2 0x2311 DUP2 PUSH2 0x3004 JUMP JUMPDEST SWAP2 POP PUSH2 0x2320 SWAP1 POP PUSH1 0xA DUP4 PUSH2 0x2DCD JUMP JUMPDEST SWAP2 POP PUSH2 0x2301 JUMP JUMPDEST PUSH0 DUP2 PUSH8 0xFFFFFFFFFFFFFFFF DUP2 GT ISZERO PUSH2 0x2341 JUMPI PUSH2 0x2341 PUSH2 0x2622 JUMP JUMPDEST PUSH1 0x40 MLOAD SWAP1 DUP1 DUP3 MSTORE DUP1 PUSH1 0x1F ADD PUSH1 0x1F NOT AND PUSH1 0x20 ADD DUP3 ADD PUSH1 0x40 MSTORE DUP1 ISZERO PUSH2 0x236B JUMPI PUSH1 0x20 DUP3 ADD DUP2 DUP1 CALLDATASIZE DUP4 CALLDATACOPY ADD SWAP1 POP JUMPDEST POP SWAP1 POP JUMPDEST DUP5 ISZERO PUSH2 0xA38 JUMPI PUSH2 0x2380 PUSH1 0x1 DUP4 PUSH2 0x301C JUMP JUMPDEST SWAP2 POP PUSH2 0x238D PUSH1 0xA DUP7 PUSH2 0x302F JUMP JUMPDEST PUSH2 0x2398 SWAP1 PUSH1 0x30 PUSH2 0x2F78 JUMP JUMPDEST PUSH1 0xF8 SHL DUP2 DUP4 DUP2 MLOAD DUP2 LT PUSH2 0x23AD JUMPI PUSH2 0x23AD PUSH2 0x2D7A JUMP JUMPDEST PUSH1 0x20 ADD ADD SWAP1 PUSH31 0xFFFFFFFFFFFFFFFFFFFFFFFFFFFFFFFFFFFFFFFFFFFFFFFFFFFFFFFFFFFFFF NOT AND SWAP1 DUP2 PUSH0 BYTE SWAP1 MSTORE8 POP PUSH2 0x23E6 PUSH1 0xA DUP7 PUSH2 0x2DCD JUMP JUMPDEST SWAP5 POP PUSH2 0x236F JUMP JUMPDEST PUSH1 0x1 PUSH1 0x1 PUSH1 0xA0 SHL SUB DUP5 AND ISZERO DUP1 ISZERO SWAP1 PUSH2 0x240D JUMPI POP PUSH1 0x1 PUSH1 0x1 PUSH1 0xA0 SHL SUB DUP4 AND ISZERO ISZERO JUMPDEST ISZERO PUSH2 0xC6D JUMPI PUSH1 0x40 MLOAD PUSH3 0x461BCD PUSH1 0xE5 SHL DUP2 MSTORE PUSH1 0x20 PUSH1 0x4 DUP3 ADD MSTORE PUSH1 0x44 PUSH1 0x24 DUP3 ADD DUP2 SWAP1 MSTORE PUSH32 0x536572746966696B617420696E69206164616C6168204B726564656E7369616C SWAP1 DUP3 ADD MSTORE PUSH32 0x20536F756C626F756E642064616E20746964616B20626973612064697472616E PUSH1 0x64 DUP3 ADD MSTORE PUSH4 0x39B332B9 PUSH1 0xE1 SHL PUSH1 0x84 DUP3 ADD MSTORE PUSH1 0xA4 ADD PUSH2 0x68C JUMP JUMPDEST PUSH0 DUP3 DUP2 MSTORE PUSH1 0x6 PUSH1 0x20 MSTORE PUSH1 0x40 DUP1 DUP3 KECCAK256 DUP1 SLOAD PUSH20 0xFFFFFFFFFFFFFFFFFFFFFFFFFFFFFFFFFFFFFFFF NOT AND PUSH1 0x1 PUSH1 0x1 PUSH1 0xA0 SHL SUB DUP8 DUP2 AND SWAP2 DUP3 OR SWAP1 SWAP3 SSTORE SWAP2 MLOAD DUP6 SWAP4 SWAP2 DUP6 AND SWAP2 PUSH32 0x8C5BE1E5EBEC7D5BD14F71427D1E84F3DD0314C0F7B2291E5B200AC8C7C3B925 SWAP2 LOG4 POP POP POP JUMP JUMPDEST PUSH1 0x60 PUSH0 DUP1 DUP6 PUSH1 0x1 PUSH1 0x1 PUSH1 0xA0 SHL SUB AND DUP6 PUSH1 0x40 MLOAD PUSH2 0x2512 SWAP2 SWAP1 PUSH2 0x3042 JUMP JUMPDEST PUSH0 PUSH1 0x40 MLOAD DUP1 DUP4 SUB DUP2 DUP6 GAS DELEGATECALL SWAP2 POP POP RETURNDATASIZE DUP1 PUSH0 DUP2 EQ PUSH2 0x254A JUMPI PUSH1 0x40 MLOAD SWAP2 POP PUSH1 0x1F NOT PUSH1 0x3F RETURNDATASIZE ADD AND DUP3 ADD PUSH1 0x40 MSTORE RETURNDATASIZE DUP3 MSTORE RETURNDATASIZE PUSH0 PUSH1 0x20 DUP5 ADD RETURNDATACOPY PUSH2 0x254F JUMP JUMPDEST PUSH1 0x60 SWAP2 POP JUMPDEST POP SWAP2 POP SWAP2 POP PUSH2 0x2560 DUP7 DUP4 DUP4 DUP8 PUSH2 0x256A JUMP JUMPDEST SWAP7 SWAP6 POP POP POP POP POP POP JUMP JUMPDEST PUSH1 0x60 DUP4 ISZERO PUSH2 0x25D8 JUMPI DUP3 MLOAD PUSH0 SUB PUSH2 0x25D1 JUMPI PUSH1 0x1 PUSH1 0x1 PUSH1 0xA0 SHL SUB DUP6 AND EXTCODESIZE PUSH2 0x25D1 JUMPI PUSH1 0x40 MLOAD PUSH3 0x461BCD PUSH1 0xE5 SHL DUP2 MSTORE PUSH1 0x20 PUSH1 0x4 DUP3 ADD MSTORE PUSH1 0x1D PUSH1 0x24 DUP3 ADD MSTORE PUSH32 0x416464726573733A2063616C6C20746F206E6F6E2D636F6E7472616374000000 PUSH1 0x44 DUP3 ADD MSTORE PUSH1 0x64 ADD PUSH2 0x68C JUMP JUMPDEST POP DUP2 PUSH2 0xA38 JUMP JUMPDEST PUSH2 0xA38 DUP4 DUP4 DUP2 MLOAD ISZERO PUSH2 0x25ED JUMPI DUP2 MLOAD DUP1 DUP4 PUSH1 0x20 ADD REVERT JUMPDEST DUP1 PUSH1 0x40 MLOAD PUSH3 0x461BCD PUSH1 0xE5 SHL DUP2 MSTORE PUSH1 0x4 ADD PUSH2 0x68C SWAP2 SWAP1 PUSH2 0x277C JUMP JUMPDEST DUP1 CALLDATALOAD PUSH1 0x1 PUSH1 0x1 PUSH1 0xA0 SHL SUB DUP2 AND DUP2 EQ PUSH2 0x261D JUMPI PUSH0 DUP1 REVERT JUMPDEST SWAP2 SWAP1 POP JUMP JUMPDEST PUSH4 0x4E487B71 PUSH1 0xE0 SHL PUSH0 MSTORE PUSH1 0x41 PUSH1 0x4 MSTORE PUSH1 0x24 PUSH0 REVERT JUMPDEST PUSH1 0x40 MLOAD PUSH1 0x1F DUP3 ADD PUSH1 0x1F NOT AND DUP2 ADD PUSH8 0xFFFFFFFFFFFFFFFF DUP2 GT DUP3 DUP3 LT OR ISZERO PUSH2 0x265F JUMPI PUSH2 0x265F PUSH2 0x2622 JUMP JUMPDEST PUSH1 0x40 MSTORE SWAP2 SWAP1 POP JUMP JUMPDEST PUSH0 DUP3 PUSH1 0x1F DUP4 ADD SLT PUSH2 0x2676 JUMPI PUSH0 DUP1 REVERT JUMPDEST DUP2 CALLDATALOAD PUSH8 0xFFFFFFFFFFFFFFFF DUP2 GT ISZERO PUSH2 0x2690 JUMPI PUSH2 0x2690 PUSH2 0x2622 JUMP JUMPDEST PUSH2 0x26A3 PUSH1 0x1F DUP3 ADD PUSH1 0x1F NOT AND PUSH1 0x20 ADD PUSH2 0x2636 JUMP JUMPDEST DUP2 DUP2 MSTORE DUP5 PUSH1 0x20 DUP4 DUP7 ADD ADD GT ISZERO PUSH2 0x26B7 JUMPI PUSH0 DUP1 REVERT JUMPDEST DUP2 PUSH1 0x20 DUP6 ADD PUSH1 0x20 DUP4 ADD CALLDATACOPY PUSH0 SWAP2 DUP2 ADD PUSH1 0x20 ADD SWAP2 SWAP1 SWAP2 MSTORE SWAP4 SWAP3 POP POP POP JUMP JUMPDEST PUSH0 DUP1 PUSH1 0x40 DUP4 DUP6 SUB SLT ISZERO PUSH2 0x26E4 JUMPI PUSH0 DUP1 REVERT JUMPDEST PUSH2 0x26ED DUP4 PUSH2 0x2607 JUMP JUMPDEST SWAP2 POP PUSH1 0x20 DUP4 ADD CALLDATALOAD PUSH8 0xFFFFFFFFFFFFFFFF DUP2 GT ISZERO PUSH2 0x2708 JUMPI PUSH0 DUP1 REVERT JUMPDEST PUSH2 0x2714 DUP6 DUP3 DUP7 ADD PUSH2 0x2667 JUMP JUMPDEST SWAP2 POP POP SWAP3 POP SWAP3 SWAP1 POP JUMP JUMPDEST PUSH1 0x1 PUSH1 0x1 PUSH1 0xE0 SHL SUB NOT DUP2 AND DUP2 EQ PUSH2 0x92D JUMPI PUSH0 DUP1 REVERT JUMPDEST PUSH0 PUSH1 0x20 DUP3 DUP5 SUB SLT ISZERO PUSH2 0x2743 JUMPI PUSH0 DUP1 REVERT JUMPDEST DUP2 CALLDATALOAD PUSH2 0xF90 DUP2 PUSH2 0x271E JUMP JUMPDEST PUSH0 DUP2 MLOAD DUP1 DUP5 MSTORE DUP1 PUSH1 0x20 DUP5 ADD PUSH1 0x20 DUP7 ADD MCOPY PUSH0 PUSH1 0x20 DUP3 DUP7 ADD ADD MSTORE PUSH1 0x20 PUSH1 0x1F NOT PUSH1 0x1F DUP4 ADD AND DUP6 ADD ADD SWAP2 POP POP SWAP3 SWAP2 POP POP JUMP JUMPDEST PUSH1 0x20 DUP2 MSTORE PUSH0 PUSH2 0xF90 PUSH1 0x20 DUP4 ADD DUP5 PUSH2 0x274E JUMP JUMPDEST PUSH0 DUP1 PUSH0 PUSH1 0x40 DUP5 DUP7 SUB SLT ISZERO PUSH2 0x27A0 JUMPI PUSH0 DUP1 REVERT JUMPDEST PUSH2 0x27A9 DUP5 PUSH2 0x2607 JUMP JUMPDEST SWAP3 POP PUSH1 0x20 DUP5 ADD CALLDATALOAD PUSH8 0xFFFFFFFFFFFFFFFF DUP1 DUP3 GT ISZERO PUSH2 0x27C5 JUMPI PUSH0 DUP1 REVERT JUMPDEST DUP2 DUP7 ADD SWAP2 POP DUP7 PUSH1 0x1F DUP4 ADD SLT PUSH2 0x27D8 JUMPI PUSH0 DUP1 REVERT JUMPDEST DUP2 CALLDATALOAD DUP2 DUP2 GT ISZERO PUSH2 0x27E6 JUMPI PUSH0 DUP1 REVERT JUMPDEST DUP8 PUSH1 0x20 DUP3 DUP6 ADD ADD GT ISZERO PUSH2 0x27F7 JUMPI PUSH0 DUP1 REVERT JUMPDEST PUSH1 0x20 DUP4 ADD SWAP5 POP DUP1 SWAP4 POP POP POP POP SWAP3 POP SWAP3 POP SWAP3 JUMP JUMPDEST PUSH0 PUSH1 0x20 DUP3 DUP5 SUB SLT ISZERO PUSH2 0x281A JUMPI PUSH0 DUP1 REVERT JUMPDEST POP CALLDATALOAD SWAP2 SWAP1 POP JUMP JUMPDEST PUSH0 DUP1 PUSH1 0x40 DUP4 DUP6 SUB SLT ISZERO PUSH2 0x2832 JUMPI PUSH0 DUP1 REVERT JUMPDEST PUSH2 0x283B DUP4 PUSH2 0x2607 JUMP JUMPDEST SWAP5 PUSH1 0x20 SWAP4 SWAP1 SWAP4 ADD CALLDATALOAD SWAP4 POP POP POP JUMP JUMPDEST PUSH0 PUSH1 0x20 DUP3 DUP5 SUB SLT ISZERO PUSH2 0x2859 JUMPI PUSH0 DUP1 REVERT JUMPDEST PUSH2 0xF90 DUP3 PUSH2 0x2607 JUMP JUMPDEST PUSH0 DUP1 PUSH0 PUSH1 0x60 DUP5 DUP7 SUB SLT ISZERO PUSH2 0x2874 JUMPI PUSH0 DUP1 REVERT JUMPDEST PUSH2 0x287D DUP5 PUSH2 0x2607 JUMP JUMPDEST SWAP3 POP PUSH2 0x288B PUSH1 0x20 DUP6 ADD PUSH2 0x2607 JUMP JUMPDEST SWAP2 POP PUSH1 0x40 DUP5 ADD CALLDATALOAD SWAP1 POP SWAP3 POP SWAP3 POP SWAP3 JUMP JUMPDEST PUSH0 DUP1 PUSH1 0x40 DUP4 DUP6 SUB SLT ISZERO PUSH2 0x28AC JUMPI PUSH0 DUP1 REVERT JUMPDEST POP POP DUP1 CALLDATALOAD SWAP3 PUSH1 0x20 SWAP1 SWAP2 ADD CALLDATALOAD SWAP2 POP JUMP JUMPDEST PUSH0 PUSH1 0x20 DUP1 DUP4 DUP6 SUB SLT ISZERO PUSH2 0x28CC JUMPI PUSH0 DUP1 REVERT JUMPDEST DUP3 CALLDATALOAD PUSH8 0xFFFFFFFFFFFFFFFF DUP1 DUP3 GT ISZERO PUSH2 0x28E3 JUMPI PUSH0 DUP1 REVERT JUMPDEST DUP2 DUP6 ADD SWAP2 POP DUP6 PUSH1 0x1F DUP4 ADD SLT PUSH2 0x28F6 JUMPI PUSH0 DUP1 REVERT JUMPDEST DUP2 CALLDATALOAD DUP2 DUP2 GT ISZERO PUSH2 0x2908 JUMPI PUSH2 0x2908 PUSH2 0x2622 JUMP JUMPDEST DUP1 PUSH1 0x5 SHL SWAP2 POP PUSH2 0x2919 DUP5 DUP4 ADD PUSH2 0x2636 JUMP JUMPDEST DUP2 DUP2 MSTORE SWAP2 DUP4 ADD DUP5 ADD SWAP2 DUP5 DUP2 ADD SWAP1 DUP9 DUP5 GT ISZERO PUSH2 0x2932 JUMPI PUSH0 DUP1 REVERT JUMPDEST SWAP4 DUP6 ADD SWAP4 JUMPDEST DUP4 DUP6 LT ISZERO PUSH2 0x2950 JUMPI DUP5 CALLDATALOAD DUP3 MSTORE SWAP4 DUP6 ADD SWAP4 SWAP1 DUP6 ADD SWAP1 PUSH2 0x2937 JUMP JUMPDEST SWAP9 SWAP8 POP POP POP POP POP POP POP POP JUMP JUMPDEST PUSH1 0x20 DUP1 DUP3 MSTORE DUP3 MLOAD DUP3 DUP3 ADD DUP2 SWAP1 MSTORE PUSH0 SWAP2 SWAP1 DUP5 DUP3 ADD SWAP1 PUSH1 0x40 DUP6 ADD SWAP1 DUP5 JUMPDEST DUP2 DUP2 LT ISZERO PUSH2 0xDA1 JUMPI PUSH2 0x29B3 DUP4 DUP6 MLOAD DUP1 MLOAD PUSH1 0x1 PUSH1 0x1 PUSH1 0xA0 SHL SUB AND DUP3 MSTORE PUSH1 0x20 DUP1 DUP3 ADD MLOAD PUSH8 0xFFFFFFFFFFFFFFFF AND SWAP1 DUP4 ADD MSTORE PUSH1 0x40 SWAP1 DUP2 ADD MLOAD ISZERO ISZERO SWAP2 ADD MSTORE JUMP JUMPDEST SWAP3 DUP5 ADD SWAP3 PUSH1 0x60 SWAP3 SWAP1 SWAP3 ADD SWAP2 PUSH1 0x1 ADD PUSH2 0x2977 JUMP JUMPDEST PUSH0 DUP1 PUSH0 DUP1 PUSH1 0x80 DUP6 DUP8 SUB SLT ISZERO PUSH2 0x29D9 JUMPI PUSH0 DUP1 REVERT JUMPDEST PUSH2 0x29E2 DUP6 PUSH2 0x2607 JUMP JUMPDEST SWAP4 POP PUSH1 0x20 DUP6 ADD CALLDATALOAD SWAP3 POP PUSH1 0x40 DUP6 ADD CALLDATALOAD PUSH8 0xFFFFFFFFFFFFFFFF DUP1 DUP3 GT ISZERO PUSH2 0x2A05 JUMPI PUSH0 DUP1 REVERT JUMPDEST PUSH2 0x2A11 DUP9 DUP4 DUP10 ADD PUSH2 0x2667 JUMP JUMPDEST SWAP4 POP PUSH1 0x60 DUP8 ADD CALLDATALOAD SWAP2 POP DUP1 DUP3 GT ISZERO PUSH2 0x2A26 JUMPI PUSH0 DUP1 REVERT JUMPDEST POP PUSH2 0x2A33 DUP8 DUP3 DUP9 ADD PUSH2 0x2667 JUMP JUMPDEST SWAP2 POP POP SWAP3 SWAP6 SWAP2 SWAP5 POP SWAP3 POP JUMP JUMPDEST PUSH1 0x20 DUP1 DUP3 MSTORE DUP3 MLOAD DUP3 DUP3 ADD DUP2 SWAP1 MSTORE PUSH0 SWAP2 SWAP1 DUP5 DUP3 ADD SWAP1 PUSH1 0x40 DUP6 ADD SWAP1 DUP5 JUMPDEST DUP2 DUP2 LT ISZERO PUSH2 0xDA1 JUMPI DUP4 MLOAD DUP4 MSTORE SWAP3 DUP5 ADD SWAP3 SWAP2 DUP5 ADD SWAP2 PUSH1 0x1 ADD PUSH2 0x2A5A JUMP JUMPDEST PUSH0 PUSH1 0x20 DUP3 DUP5 SUB SLT ISZERO PUSH2 0x2A86 JUMPI PUSH0 DUP1 REVERT JUMPDEST DUP2 CALLDATALOAD PUSH8 0xFFFFFFFFFFFFFFFF DUP2 GT ISZERO PUSH2 0x2A9C JUMPI PUSH0 DUP1 REVERT JUMPDEST PUSH2 0xA38 DUP5 DUP3 DUP6 ADD PUSH2 0x2667 JUMP JUMPDEST PUSH0 DUP1 PUSH0 PUSH1 0x60 DUP5 DUP7 SUB SLT ISZERO PUSH2 0x2ABA JUMPI PUSH0 DUP1 REVERT JUMPDEST PUSH2 0x2AC3 DUP5 PUSH2 0x2607 JUMP JUMPDEST SWAP6 PUSH1 0x20 DUP6 ADD CALLDATALOAD SWAP6 POP PUSH1 0x40 SWAP1 SWAP5 ADD CALLDATALOAD SWAP4 SWAP3 POP POP POP JUMP JUMPDEST PUSH0 DUP1 PUSH0 PUSH1 0x60 DUP5 DUP7 SUB SLT ISZERO PUSH2 0x2AEA JUMPI PUSH0 DUP1 REVERT JUMPDEST DUP4 CALLDATALOAD SWAP3 POP PUSH2 0x288B PUSH1 0x20 DUP6 ADD PUSH2 0x2607 JUMP JUMPDEST PUSH0 DUP1 PUSH1 0x40 DUP4 DUP6 SUB SLT ISZERO PUSH2 0x2B0B JUMPI PUSH0 DUP1 REVERT JUMPDEST PUSH2 0x2B14 DUP4 PUSH2 0x2607 JUMP JUMPDEST SWAP2 POP PUSH1 0x20 DUP4 ADD CALLDATALOAD DUP1 ISZERO ISZERO DUP2 EQ PUSH2 0x2B28 JUMPI PUSH0 DUP1 REVERT JUMPDEST DUP1 SWAP2 POP POP SWAP3 POP SWAP3 SWAP1 POP JUMP JUMPDEST PUSH0 DUP1 DUP4 PUSH1 0x1F DUP5 ADD SLT PUSH2 0x2B43 JUMPI PUSH0 DUP1 REVERT JUMPDEST POP DUP2 CALLDATALOAD PUSH8 0xFFFFFFFFFFFFFFFF DUP2 GT ISZERO PUSH2 0x2B5A JUMPI PUSH0 DUP1 REVERT JUMPDEST PUSH1 0x20 DUP4 ADD SWAP2 POP DUP4 PUSH1 0x20 DUP3 PUSH1 0x5 SHL DUP6 ADD ADD GT ISZERO PUSH2 0x2B74 JUMPI PUSH0 DUP1 REVERT JUMPDEST SWAP3 POP SWAP3 SWAP1 POP JUMP JUMPDEST PUSH0 DUP1 PUSH1 0x20 DUP4 DUP6 SUB SLT ISZERO PUSH2 0x2B8C JUMPI PUSH0 DUP1 REVERT JUMPDEST DUP3 CALLDATALOAD PUSH8 0xFFFFFFFFFFFFFFFF DUP2 GT ISZERO PUSH2 0x2BA2 JUMPI PUSH0 DUP1 REVERT JUMPDEST PUSH2 0x2BAE DUP6 DUP3 DUP7 ADD PUSH2 0x2B33 JUMP JUMPDEST SWAP1 SWAP7 SWAP1 SWAP6 POP SWAP4 POP POP POP POP JUMP JUMPDEST PUSH0 PUSH1 0x20 DUP1 DUP4 ADD PUSH1 0x20 DUP5 MSTORE DUP1 DUP6 MLOAD DUP1 DUP4 MSTORE PUSH1 0x40 DUP7 ADD SWAP2 POP PUSH1 0x40 DUP2 PUSH1 0x5 SHL DUP8 ADD ADD SWAP3 POP PUSH1 0x20 DUP8 ADD PUSH0 JUMPDEST DUP3 DUP2 LT ISZERO PUSH2 0x2C0F JUMPI PUSH1 0x3F NOT DUP9 DUP7 SUB ADD DUP5 MSTORE PUSH2 0x2BFD DUP6 DUP4 MLOAD PUSH2 0x274E JUMP JUMPDEST SWAP5 POP SWAP3 DUP6 ADD SWAP3 SWAP1 DUP6 ADD SWAP1 PUSH1 0x1 ADD PUSH2 0x2BE1 JUMP JUMPDEST POP SWAP3 SWAP8 SWAP7 POP POP POP POP POP POP POP JUMP JUMPDEST PUSH0 DUP1 PUSH0 DUP1 PUSH1 0x80 DUP6 DUP8 SUB SLT ISZERO PUSH2 0x2C2F JUMPI PUSH0 DUP1 REVERT JUMPDEST PUSH2 0x2C38 DUP6 PUSH2 0x2607 JUMP JUMPDEST SWAP4 POP PUSH2 0x2C46 PUSH1 0x20 DUP7 ADD PUSH2 0x2607 JUMP JUMPDEST SWAP3 POP PUSH1 0x40 DUP6 ADD CALLDATALOAD SWAP2 POP PUSH1 0x60 DUP6 ADD CALLDATALOAD PUSH8 0xFFFFFFFFFFFFFFFF DUP2 GT ISZERO PUSH2 0x2C68 JUMPI PUSH0 DUP1 REVERT JUMPDEST PUSH2 0x2A33 DUP8 DUP3 DUP9 ADD PUSH2 0x2667 JUMP JUMPDEST DUP2 MLOAD PUSH1 0x1 PUSH1 0x1 PUSH1 0xA0 SHL SUB AND DUP2 MSTORE PUSH1 0x20 DUP1 DUP4 ADD MLOAD PUSH8 0xFFFFFFFFFFFFFFFF AND SWAP1 DUP3 ADD MSTORE PUSH1 0x40 DUP1 DUP4 ADD MLOAD ISZERO ISZERO SWAP1 DUP3 ADD MSTORE PUSH1 0x60 DUP2 ADD PUSH2 0x72A JUMP JUMPDEST PUSH0 DUP1 PUSH0 DUP1 PUSH1 0x40 DUP6 DUP8 SUB SLT ISZERO PUSH2 0x2CBD JUMPI PUSH0 DUP1 REVERT JUMPDEST DUP5 CALLDATALOAD PUSH8 0xFFFFFFFFFFFFFFFF DUP1 DUP3 GT ISZERO PUSH2 0x2CD4 JUMPI PUSH0 DUP1 REVERT JUMPDEST PUSH2 0x2CE0 DUP9 DUP4 DUP10 ADD PUSH2 0x2B33 JUMP JUMPDEST SWAP1 SWAP7 POP SWAP5 POP PUSH1 0x20 DUP8 ADD CALLDATALOAD SWAP2 POP DUP1 DUP3 GT ISZERO PUSH2 0x2CF8 JUMPI PUSH0 DUP1 REVERT JUMPDEST POP PUSH2 0x2D05 DUP8 DUP3 DUP9 ADD PUSH2 0x2B33 JUMP JUMPDEST SWAP6 SWAP9 SWAP5 SWAP8 POP SWAP6 POP POP POP POP JUMP JUMPDEST PUSH0 DUP1 PUSH1 0x40 DUP4 DUP6 SUB SLT ISZERO PUSH2 0x2D22 JUMPI PUSH0 DUP1 REVERT JUMPDEST PUSH2 0x2D2B DUP4 PUSH2 0x2607 JUMP JUMPDEST SWAP2 POP PUSH2 0x2D39 PUSH1 0x20 DUP5 ADD PUSH2 0x2607 JUMP JUMPDEST SWAP1 POP SWAP3 POP SWAP3 SWAP1 POP JUMP JUMPDEST PUSH1 0x1 DUP2 DUP2 SHR SWAP1 DUP3 AND DUP1 PUSH2 0x2D56 JUMPI PUSH1 0x7F DUP3 AND SWAP2 POP JUMPDEST PUSH1 0x20 DUP3 LT DUP2 SUB PUSH2 0x2D74 JUMPI PUSH4 0x4E487B71 PUSH1 0xE0 SHL PUSH0 MSTORE PUSH1 0x22 PUSH1 0x4 MSTORE PUSH1 0x24 PUSH0 REVERT JUMPDEST POP SWAP2 SWAP1 POP JUMP JUMPDEST PUSH4 0x4E487B71 PUSH1 0xE0 SHL PUSH0 MSTORE PUSH1 0x32 PUSH1 0x4 MSTORE PUSH1 0x24 PUSH0 REVERT JUMPDEST PUSH4 0x4E487B71 PUSH1 0xE0 SHL PUSH0 MSTORE PUSH1 0x11 PUSH1 0x4 MSTORE PUSH1 0x24 PUSH0 REVERT JUMPDEST DUP1 DUP3 MUL DUP2 ISZERO DUP3 DUP3 DIV DUP5 EQ OR PUSH2 0x72A JUMPI PUSH2 0x72A PUSH2 0x2D8E JUMP JUMPDEST PUSH4 0x4E487B71 PUSH1 0xE0 SHL PUSH0 MSTORE PUSH1 0x12 PUSH1 0x4 MSTORE PUSH1 0x24 PUSH0 REVERT JUMPDEST PUSH0 DUP3 PUSH2 0x2DDB JUMPI PUSH2 0x2DDB PUSH2 0x2DB9 JUMP JUMPDEST POP DIV SWAP1 JUMP JUMPDEST PUSH0 DUP1 DUP4 CALLDATALOAD PUSH1 0x1E NOT DUP5 CALLDATASIZE SUB ADD DUP2 SLT PUSH2 0x2DF5 JUMPI PUSH0 DUP1 REVERT JUMPDEST DUP4 ADD DUP1 CALLDATALOAD SWAP2 POP PUSH8 0xFFFFFFFFFFFFFFFF DUP3 GT ISZERO PUSH2 0x2E0F JUMPI PUSH0 DUP1 REVERT JUMPDEST PUSH1 0x20 ADD SWAP2 POP CALLDATASIZE DUP2 SWAP1 SUB DUP3 SGT ISZERO PUSH2 0x2B74 JUMPI PUSH0 DUP1 REVERT JUMPDEST DUP3 DUP5 DUP3 CALLDATACOPY PUSH1 0x60 SWAP2 SWAP1 SWAP2 SHL PUSH12 0xFFFFFFFFFFFFFFFFFFFFFFFF NOT AND SWAP2 ADD SWAP1 DUP2 MSTORE PUSH1 0x14 ADD SWAP2 SWAP1 POP JUMP JUMPDEST PUSH0 DUP2 MLOAD DUP1 PUSH1 0x20 DUP5 ADD DUP6 MCOPY PUSH0 SWAP4 ADD SWAP3 DUP4 MSTORE POP SWAP1 SWAP2 SWAP1 POP JUMP JUMPDEST PUSH0 PUSH2 0xA38 PUSH2 0x2E6E DUP4 DUP7 PUSH2 0x2E49 JUMP JUMPDEST DUP5 PUSH2 0x2E49 JUMP JUMPDEST PUSH1 0x1F DUP3 GT ISZERO PUSH2 0x84A JUMPI DUP1 PUSH0 MSTORE PUSH1 0x20 PUSH0 KECCAK256 PUSH1 0x1F DUP5 ADD PUSH1 0x5 SHR DUP2 ADD PUSH1 0x20 DUP6 LT ISZERO PUSH2 0x2E99 JUMPI POP DUP1 JUMPDEST PUSH1 0x1F DUP5 ADD PUSH1 0x5 SHR DUP3 ADD SWAP2 POP JUMPDEST DUP2 DUP2 LT ISZERO PUSH2 0x14FA JUMPI PUSH0 DUP2 SSTORE PUSH1 0x1 ADD PUSH2 0x2EA5 JUMP JUMPDEST DUP2 MLOAD PUSH8 0xFFFFFFFFFFFFFFFF DUP2 GT ISZERO PUSH2 0x2ED2 JUMPI PUSH2 0x2ED2 PUSH2 0x2622 JUMP JUMPDEST PUSH2 0x2EE6 DUP2 PUSH2 0x2EE0 DUP5 SLOAD PUSH2 0x2D42 JUMP JUMPDEST DUP5 PUSH2 0x2E74 JUMP JUMPDEST PUSH1 0x20 DUP1 PUSH1 0x1F DUP4 GT PUSH1 0x1 DUP2 EQ PUSH2 0x2F19 JUMPI PUSH0 DUP5 ISZERO PUSH2 0x2F02 JUMPI POP DUP6 DUP4 ADD MLOAD JUMPDEST PUSH0 NOT PUSH1 0x3 DUP7 SWAP1 SHL SHR NOT AND PUSH1 0x1 DUP6 SWAP1 SHL OR DUP6 SSTORE PUSH2 0x2F70 JUMP JUMPDEST PUSH0 DUP6 DUP2 MSTORE PUSH1 0x20 DUP2 KECCAK256 PUSH1 0x1F NOT DUP7 AND SWAP2 JUMPDEST DUP3 DUP2 LT ISZERO PUSH2 0x2F47 JUMPI DUP9 DUP7 ADD MLOAD DUP3 SSTORE SWAP5 DUP5 ADD SWAP5 PUSH1 0x1 SWAP1 SWAP2 ADD SWAP1 DUP5 ADD PUSH2 0x2F28 JUMP JUMPDEST POP DUP6 DUP3 LT ISZERO PUSH2 0x2F64 JUMPI DUP8 DUP6 ADD MLOAD PUSH0 NOT PUSH1 0x3 DUP9 SWAP1 SHL PUSH1 0xF8 AND SHR NOT AND DUP2 SSTORE JUMPDEST POP POP PUSH1 0x1 DUP5 PUSH1 0x1 SHL ADD DUP6 SSTORE JUMPDEST POP POP POP POP POP POP JUMP JUMPDEST DUP1 DUP3 ADD DUP1 DUP3 GT ISZERO PUSH2 0x72A JUMPI PUSH2 0x72A PUSH2 0x2D8E JUMP JUMPDEST PUSH1 0x40 DUP2 MSTORE PUSH0 PUSH2 0x2F9D PUSH1 0x40 DUP4 ADD DUP6 PUSH2 0x274E JUMP JUMPDEST DUP3 DUP2 SUB PUSH1 0x20 DUP5 ADD MSTORE PUSH2 0x2FAF DUP2 DUP6 PUSH2 0x274E JUMP JUMPDEST SWAP6 SWAP5 POP POP POP POP POP JUMP JUMPDEST PUSH0 PUSH1 0x1 PUSH1 0x1 PUSH1 0xA0 SHL SUB DUP1 DUP8 AND DUP4 MSTORE DUP1 DUP7 AND PUSH1 0x20 DUP5 ADD MSTORE POP DUP4 PUSH1 0x40 DUP4 ADD MSTORE PUSH1 0x80 PUSH1 0x60 DUP4 ADD MSTORE PUSH2 0x2560 PUSH1 0x80 DUP4 ADD DUP5 PUSH2 0x274E JUMP JUMPDEST PUSH0 PUSH1 0x20 DUP3 DUP5 SUB SLT ISZERO PUSH2 0x2FF9 JUMPI PUSH0 DUP1 REVERT JUMPDEST DUP2 MLOAD PUSH2 0xF90 DUP2 PUSH2 0x271E JUMP JUMPDEST PUSH0 PUSH1 0x1 DUP3 ADD PUSH2 0x3015 JUMPI PUSH2 0x3015 PUSH2 0x2D8E JUMP JUMPDEST POP PUSH1 0x1 ADD SWAP1 JUMP JUMPDEST DUP2 DUP2 SUB DUP2 DUP2 GT ISZERO PUSH2 0x72A JUMPI PUSH2 0x72A PUSH2 0x2D8E JUMP JUMPDEST PUSH0 DUP3 PUSH2 0x303D JUMPI PUSH2 0x303D PUSH2 0x2DB9 JUMP JUMPDEST POP MOD SWAP1 JUMP JUMPDEST PUSH0 PUSH2 0xF90 DUP3 DUP5 PUSH2 0x2E49 JUMP INVALID COINBASE PUSH5 0x6472657373 GASPRICE KECCAK256 PUSH13 0x6F772D6C6576656C2064656C65 PUSH8 0x6174652063616C6C KECCAK256 PUSH7 0x61696C6564A264 PUSH10 0x70667358221220DDB6A4 SWAP15 0xDF PUSH8 0x49886E21E01ED1FC PUSH22 0xF8DA1612059A44103EF4E55E67C6619FB564736F6C63 NUMBER STOP ADDMOD NOT STOP CALLER "
    },
    "gasEstimates": {
      "creation": {
        "codeDepositCost": "2491600",
        "executionCost": "infinite",
        "totalCost": "infinite"
      },
      "external": {
        "adminBurn(uint256)": "infinite",
        "approve(address,uint256)": "516",
        "balanceOf(address)": "2682",
        "batchFrozen(uint256)": "2526",
        "batchMintTo(address,uint256,string,bytes)": "infinite",
        "batchMintToMultiple(address[],string[])": "infinite",
        "burn(uint256)": "infinite",
        "contractURI()": "infinite",
        "explicitOwnershipOf(uint256)": "infinite",
        "explicitOwnershipsOf(uint256[])": "infinite",
        "getApproved(uint256)": "6975",
        "getBaseURICount()": "2360",
        "getBatchIdAtIndex(uint256)": "6779",
        "getDefaultRoyaltyInfo()": "2453",
        "getRoyaltyInfoForToken(uint256)": "6978",
        "isApprovedForAll(address,address)": "infinite",
        "isApprovedOrOwner(address,uint256)": "infinite",
        "mintCertificate(address,string)": "infinite",
        "mintTo(address,string)": "infinite",
        "multicall(bytes[])": "infinite",
        "name()": "infinite",
        "nextTokenIdToMint()": "2358",
        "owner()": "2398",
        "ownerOf(uint256)": "infinite",
        "royaltyInfo(uint256,uint256)": "7238",
        "safeTransferFrom(address,address,uint256)": "infinite",
        "safeTransferFrom(address,address,uint256,bytes)": "infinite",
        "setApprovalForAll(address,bool)": "554",
        "setContractURI(string)": "infinite",
        "setDefaultRoyaltyInfo(address,uint256)": "28408",
        "setOwner(address)": "28415",
        "setRoyaltyInfoForToken(uint256,address,uint256)": "51086",
        "soulbound()": "280",
        "supportsInterface(bytes4)": "654",
        "symbol()": "infinite",
        "tokenURI(uint256)": "infinite",
        "tokensOfOwner(address)": "infinite",
        "tokensOfOwnerIn(address,uint256,uint256)": "infinite",
        "totalSupply()": "4475",
        "transferFrom(address,address,uint256)": "infinite"
      },
      "internal": {
        "_beforeTokenTransfers(address,address,uint256,uint256)": "infinite",
        "_mintTo(address,string memory)": "infinite"
      }
    },
    "methodIdentifiers": {
      "adminBurn(uint256)": "badb97ff",
      "approve(address,uint256)": "095ea7b3",
      "balanceOf(address)": "70a08231",
      "batchFrozen(uint256)": "83040532",
      "batchMintTo(address,uint256,string,bytes)": "754a81d9",
      "batchMintToMultiple(address[],string[])": "d32812e7",
      "burn(uint256)": "42966c68",
      "contractURI()": "e8a3d485",
      "explicitOwnershipOf(uint256)": "c23dc68f",
      "explicitOwnershipsOf(uint256[])": "5bbb2177",
      "getApproved(uint256)": "081812fc",
      "getBaseURICount()": "63b45e2d",
      "getBatchIdAtIndex(uint256)": "2419f51b",
      "getDefaultRoyaltyInfo()": "b24f2d39",
      "getRoyaltyInfoForToken(uint256)": "4cc157df",
      "isApprovedForAll(address,address)": "e985e9c5",
      "isApprovedOrOwner(address,uint256)": "430c2081",
      "mintCertificate(address,string)": "0712249f",
      "mintTo(address,string)": "0075a317",
      "multicall(bytes[])": "ac9650d8",
      "name()": "06fdde03",
      "nextTokenIdToMint()": "3b1475a7",
      "owner()": "8da5cb5b",
      "ownerOf(uint256)": "6352211e",
      "royaltyInfo(uint256,uint256)": "2a55205a",
      "safeTransferFrom(address,address,uint256)": "42842e0e",
      "safeTransferFrom(address,address,uint256,bytes)": "b88d4fde",
      "setApprovalForAll(address,bool)": "a22cb465",
      "setContractURI(string)": "938e3d7b",
      "setDefaultRoyaltyInfo(address,uint256)": "600dd5ea",
      "setOwner(address)": "13af4035",
      "setRoyaltyInfoForToken(uint256,address,uint256)": "9bcf7a15",
      "soulbound()": "0fad0f51",
      "supportsInterface(bytes4)": "01ffc9a7",
      "symbol()": "95d89b41",
      "tokenURI(uint256)": "c87b56dd",
      "tokensOfOwner(address)": "8462151c",
      "tokensOfOwnerIn(address,uint256,uint256)": "99a2557a",
      "totalSupply()": "18160ddd",
      "transferFrom(address,address,uint256)": "23b872dd"
    }
  },
  "storageLayout": {
    "storage": [
      {
        "astId": 2092,
        "contract": "SertifikatDigital.sol:SertifikatDigital",
        "label": "_currentIndex",
        "offset": 0,
        "slot": "0",
        "type": "t_uint256"
      },
      {
        "astId": 2094,
        "contract": "SertifikatDigital.sol:SertifikatDigital",
        "label": "_burnCounter",
        "offset": 0,
        "slot": "1",
        "type": "t_uint256"
      },
      {
        "astId": 2096,
        "contract": "SertifikatDigital.sol:SertifikatDigital",
        "label": "_name",
        "offset": 0,
        "slot": "2",
        "type": "t_string_storage"
      },
      {
        "astId": 2098,
        "contract": "SertifikatDigital.sol:SertifikatDigital",
        "label": "_symbol",
        "offset": 0,
        "slot": "3",
        "type": "t_string_storage"
      },
      {
        "astId": 2103,
        "contract": "SertifikatDigital.sol:SertifikatDigital",
        "label": "_ownerships",
        "offset": 0,
        "slot": "4",
        "type": "t_mapping(t_uint256,t_struct(TokenOwnership)4027_storage)"
      },
      {
        "astId": 2108,
        "contract": "SertifikatDigital.sol:SertifikatDigital",
        "label": "_addressData",
        "offset": 0,
        "slot": "5",
        "type": "t_mapping(t_address,t_struct(AddressData)4036_storage)"
      },
      {
        "astId": 2112,
        "contract": "SertifikatDigital.sol:SertifikatDigital",
        "label": "_tokenApprovals",
        "offset": 0,
        "slot": "6",
        "type": "t_mapping(t_uint256,t_address)"
      },
      {
        "astId": 2118,
        "contract": "SertifikatDigital.sol:SertifikatDigital",
        "label": "_operatorApprovals",
        "offset": 0,
        "slot": "7",
        "type": "t_mapping(t_address,t_mapping(t_address,t_bool))"
      },
      {
        "astId": 1311,
        "contract": "SertifikatDigital.sol:SertifikatDigital",
        "label": "contractURI",
        "offset": 0,
        "slot": "8",
        "type": "t_string_storage"
      },
      {
        "astId": 1473,
        "contract": "SertifikatDigital.sol:SertifikatDigital",
        "label": "_owner",
        "offset": 0,
        "slot": "9",
        "type": "t_address"
      },
      {
        "astId": 1568,
        "contract": "SertifikatDigital.sol:SertifikatDigital",
        "label": "royaltyRecipient",
        "offset": 0,
        "slot": "10",
        "type": "t_address"
      },
      {
        "astId": 1571,
        "contract": "SertifikatDigital.sol:SertifikatDigital",
        "label": "royaltyBps",
        "offset": 20,
        "slot": "10",
        "type": "t_uint16"
      },
      {
        "astId": 1577,
        "contract": "SertifikatDigital.sol:SertifikatDigital",
        "label": "royaltyInfoForToken",
        "offset": 0,
        "slot": "11",
        "type": "t_mapping(t_uint256,t_struct(RoyaltyInfo)3895_storage)"
      },
      {
        "astId": 972,
        "contract": "SertifikatDigital.sol:SertifikatDigital",
        "label": "batchIds",
        "offset": 0,
        "slot": "12",
        "type": "t_array(t_uint256)dyn_storage"
      },
      {
        "astId": 977,
        "contract": "SertifikatDigital.sol:SertifikatDigital",
        "label": "baseURI",
        "offset": 0,
        "slot": "13",
        "type": "t_mapping(t_uint256,t_string_storage)"
      },
      {
        "astId": 982,
        "contract": "SertifikatDigital.sol:SertifikatDigital",
        "label": "batchFrozen",
        "offset": 0,
        "slot": "14",
        "type": "t_mapping(t_uint256,t_bool)"
      },
      {
        "astId": 260,
        "contract": "SertifikatDigital.sol:SertifikatDigital",
        "label": "fullURI",
        "offset": 0,
        "slot": "15",
        "type": "t_mapping(t_uint256,t_string_storage)"
      }
    ],
    "types": {
      "t_address": {
        "encoding": "inplace",
        "label": "address",
        "numberOfBytes": "20"
      },
      "t_array(t_uint256)dyn_storage": {
        "base": "t_uint256",
        "encoding": "dynamic_array",
        "label": "uint256[]",
        "numberOfBytes": "32"
      },
      "t_bool": {
        "encoding": "inplace",
        "label": "bool",
        "numberOfBytes": "1"
      },
      "t_mapping(t_address,t_bool)": {
        "encoding": "mapping",
        "key": "t_address",
        "label": "mapping(address => bool)",
        "numberOfBytes": "32",
        "value": "t_bool"
      },
      "t_mapping(t_address,t_mapping(t_address,t_bool))": {
        "encoding": "mapping",
        "key": "t_address",
        "label": "mapping(address => mapping(address => bool))",
        "numberOfBytes": "32",
        "value": "t_mapping(t_address,t_bool)"
      },
      "t_mapping(t_address,t_struct(AddressData)4036_storage)": {
        "encoding": "mapping",
        "key": "t_address",
        "label": "mapping(address => struct IERC721A.AddressData)",
        "numberOfBytes": "32",
        "value": "t_struct(AddressData)4036_storage"
      },
      "t_mapping(t_uint256,t_address)": {
        "encoding": "mapping",
        "key": "t_uint256",
        "label": "mapping(uint256 => address)",
        "numberOfBytes": "32",
        "value": "t_address"
      },
      "t_mapping(t_uint256,t_bool)": {
        "encoding": "mapping",
        "key": "t_uint256",
        "label": "mapping(uint256 => bool)",
        "numberOfBytes": "32",
        "value": "t_bool"
      },
      "t_mapping(t_uint256,t_string_storage)": {
        "encoding": "mapping",
        "key": "t_uint256",
        "label": "mapping(uint256 => string)",
        "numberOfBytes": "32",
        "value": "t_string_storage"
      },
      "t_mapping(t_uint256,t_struct(RoyaltyInfo)3895_storage)": {
        "encoding": "mapping",
        "key": "t_uint256",
        "label": "mapping(uint256 => struct IRoyalty.RoyaltyInfo)",
        "numberOfBytes": "32",
        "value": "t_struct(RoyaltyInfo)3895_storage"
      },
      "t_mapping(t_uint256,t_struct(TokenOwnership)4027_storage)": {
        "encoding": "mapping",
        "key": "t_uint256",
        "label": "mapping(uint256 => struct IERC721A.TokenOwnership)",
        "numberOfBytes": "32",
        "value": "t_struct(TokenOwnership)4027_storage"
      },
      "t_string_storage": {
        "encoding": "bytes",
        "label": "string",
        "numberOfBytes": "32"
      },
      "t_struct(AddressData)4036_storage": {
        "encoding": "inplace",
        "label": "struct IERC721A.AddressData",
        "members": [
          {
            "astId": 4029,
            "contract": "SertifikatDigital.sol:SertifikatDigital",
            "label": "balance",
            "offset": 0,
            "slot": "0",
            "type": "t_uint64"
          },
          {
            "astId": 4031,
            "contract": "SertifikatDigital.sol:SertifikatDigital",
            "label": "numberMinted",
            "offset": 8,
            "slot": "0",
            "type": "t_uint64"
          },
          {
            "astId": 4033,
            "contract": "SertifikatDigital.sol:SertifikatDigital",
            "label": "numberBurned",
            "offset": 16,
            "slot": "0",
            "type": "t_uint64"
          },
          {
            "astId": 4035,
            "contract": "SertifikatDigital.sol:SertifikatDigital",
            "label": "aux",
            "offset": 24,
            "slot": "0",
            "type": "t_uint64"
          }
        ],
        "numberOfBytes": "32"
      },
      "t_struct(RoyaltyInfo)3895_storage": {
        "encoding": "inplace",
        "label": "struct IRoyalty.RoyaltyInfo",
        "members": [
          {
            "astId": 3892,
            "contract": "SertifikatDigital.sol:SertifikatDigital",
            "label": "recipient",
            "offset": 0,
            "slot": "0",
            "type": "t_address"
          },
          {
            "astId": 3894,
            "contract": "SertifikatDigital.sol:SertifikatDigital",
            "label": "bps",
            "offset": 0,
            "slot": "1",
            "type": "t_uint256"
          }
        ],
        "numberOfBytes": "64"
      },
      "t_struct(TokenOwnership)4027_storage": {
        "encoding": "inplace",
        "label": "struct IERC721A.TokenOwnership",
        "members": [
          {
            "astId": 4022,
            "contract": "SertifikatDigital.sol:SertifikatDigital",
            "label": "addr",
            "offset": 0,
            "slot": "0",
            "type": "t_address"
          },
          {
            "astId": 4024,
            "contract": "SertifikatDigital.sol:SertifikatDigital",
            "label": "startTimestamp",
            "offset": 20,
            "slot": "0",
            "type": "t_uint64"
          },
          {
            "astId": 4026,
            "contract": "SertifikatDigital.sol:SertifikatDigital",
            "label": "burned",
            "offset": 28,
            "slot": "0",
            "type": "t_bool"
          }
        ],
        "numberOfBytes": "32"
      },
      "t_uint16": {
        "encoding": "inplace",
        "label": "uint16",
        "numberOfBytes": "2"
      },
      "t_uint256": {
        "encoding": "inplace",
        "label": "uint256",
        "numberOfBytes": "32"
      },
      "t_uint64": {
        "encoding": "inplace",
        "label": "uint64",
        "numberOfBytes": "8"
      }
    }
  },
  "userdoc": {
    "errors": {
      "ApprovalCallerNotOwnerNorApproved()": [
        {
          "notice": "The caller must own the token or be an approved operator."
        }
      ],
      "ApprovalQueryForNonexistentToken()": [
        {
          "notice": "The token does not exist."
        }
      ],
      "ApprovalToCurrentOwner()": [
        {
          "notice": "The caller cannot approve to the current owner."
        }
      ],
      "ApproveToCaller()": [
        {
          "notice": "The caller cannot approve to their own address."
        }
      ],
      "BalanceQueryForZeroAddress()": [
        {
          "notice": "Cannot query the balance for the zero address."
        }
      ],
      "InvalidQueryRange()": [
        {
          "notice": "Invalid query range (`start` >= `stop`)."
        }
      ],
      "MintToZeroAddress()": [
        {
          "notice": "Cannot mint to the zero address."
        }
      ],
      "MintZeroQuantity()": [
        {
          "notice": "The quantity of tokens minted must be more than zero."
        }
      ],
      "OwnerQueryForNonexistentToken()": [
        {
          "notice": "The token does not exist."
        }
      ],
      "TransferCallerNotOwnerNorApproved()": [
        {
          "notice": "The caller must own the token or be an approved operator."
        }
      ],
      "TransferFromIncorrectOwner()": [
        {
          "notice": "The token must be owned by `from`."
        }
      ],
      "TransferToNonERC721ReceiverImplementer()": [
        {
          "notice": "Cannot safely transfer to a contract that does not implement the ERC721Receiver interface."
        }
      ],
      "TransferToZeroAddress()": [
        {
          "notice": "Cannot transfer to the zero address."
        }
      ],
      "URIQueryForNonexistentToken()": [
        {
          "notice": "The token does not exist."
        }
      ]
    },
    "events": {
      "BatchMetadataUpdate(uint256,uint256)": {
        "notice": "So that the third-party platforms such as NFT market could timely update the images and related attributes of the NFTs."
      }
    },
    "kind": "user",
    "methods": {
      "batchMintTo(address,uint256,string,bytes)": {
        "notice": "Lets an authorized address mint multiple NFTs at once to a recipient."
      },
      "burn(uint256)": {
        "notice": "Lets an owner or approved operator burn the NFT of the given tokenId."
      },
      "contractURI()": {
        "notice": "Returns the contract metadata URI."
      },
      "getBaseURICount()": {
        "notice": "Returns the count of batches of NFTs."
      },
      "getBatchIdAtIndex(uint256)": {
        "notice": "Returns the ID for the batch of tokens at the given index."
      },
      "getDefaultRoyaltyInfo()": {
        "notice": "Returns the defualt royalty recipient and BPS for this contract's NFTs."
      },
      "getRoyaltyInfoForToken(uint256)": {
        "notice": "View royalty info for a given token."
      },
      "isApprovedOrOwner(address,uint256)": {
        "notice": "Returns whether a given address is the owner, or approved to transfer an NFT."
      },
      "mintTo(address,string)": {
        "notice": "Lets an authorized address mint an NFT to a recipient."
      },
      "multicall(bytes[])": {
        "notice": "Receives and executes a batch of function calls on this contract."
      },
      "nextTokenIdToMint()": {
        "notice": "The tokenId assigned to the next new NFT to be minted."
      },
      "owner()": {
        "notice": "Returns the owner of the contract."
      },
      "royaltyInfo(uint256,uint256)": {
        "notice": "View royalty info for a given token and sale price."
      },
      "setContractURI(string)": {
        "notice": "Lets a contract admin set the URI for contract-level metadata."
      },
      "setDefaultRoyaltyInfo(address,uint256)": {
        "notice": "Updates default royalty recipient and bps."
      },
      "setOwner(address)": {
        "notice": "Lets an authorized wallet set a new owner for the contract."
      },
      "setRoyaltyInfoForToken(uint256,address,uint256)": {
        "notice": "Updates default royalty recipient and bps for a particular token."
      },
      "tokenURI(uint256)": {
        "notice": "Returns the metadata URI for an NFT."
      }
    },
    "version": 1
  }
}