{
  "abi": [
    {
      "inputs": [
        {
          "internalType": "address",
          "name": "_defaultAdmin",
          "type": "address"
        },
        {
          "internalType": "string",
          "name": "_name",
          "type": "string"
        },
        {
          "internalType": "string",
          "name": "_symbol",
          "type": "string"
        },
        {
          "internalType": "address",
          "name": "_royaltyRecipient",
          "type": "address"
        },
        {
          "internalType": "uint128",
          "name": "_royaltyBps",
          "type": "uint128"
        }
      ],
      "stateMutability": "nonpayable",
      "type": "constructor"
    },
    {
      "inputs": [],
      "name": "ApprovalCallerNotOwnerNorApproved",
      "type": "error"
    },
    {
      "inputs": [],
      "name": "ApprovalQueryForNonexistentToken",
      "type": "error"
    },
    {
      "inputs": [],
      "name": "ApprovalToCurrentOwner",
      "type": "error"
    },
    {
      "inputs": [],
      "name": "ApproveToCaller",
      "type": "error"
    },
    {
      "inputs": [],
      "name": "BalanceQueryForZeroAddress",
      "type": "error"
    },
    {
      "inputs": [
        {
          "internalType": "uint256",
          "name": "index",
          "type": "uint256"
        }
      ],
      "name": "BatchMintInvalidBatchId",
      "type": "error"
    },
    {
      "inputs": [
        {
          "internalType": "uint256",
          "name": "tokenId",
          "type": "uint256"
        }
      ],
      "name": "BatchMintInvalidTokenId",
      "type": "error"
    },
    {
      "inputs": [
        {
          "internalType": "uint256",
          "name": "batchId",
          "type": "uint256"
        }
      ],
      "name": "BatchMintMetadataFrozen",
      "type": "error"
    },
    {
      "inputs": [],
      "name": "ContractMetadataUnauthorized",
      "type": "error"
    },
    {
      "inputs": [],
      "name": "InvalidQueryRange",
      "type": "error"
    },
    {
      "inputs": [],
      "name": "MintToZeroAddress",
      "type": "error"
    },
    {
      "inputs": [],
      "name": "MintZeroQuantity",
      "type": "error"
    },
    {
      "inputs": [],
      "name": "OwnableUnauthorized",
      "type": "error"
    },
    {
      "inputs": [],
      "name": "OwnerQueryForNonexistentToken",
      "type": "error"
    },
    {
      "inputs": [
        {
          "internalType": "uint256",
          "name": "max",
          "type": "uint256"
        },
        {
          "internalType": "uint256",
          "name": "actual",
          "type": "uint256"
        }
      ],
      "name": "RoyaltyExceededMaxFeeBps",
      "type": "error"
    },
    {
      "inputs": [
        {
          "internalType": "address",
          "name": "recipient",
          "type": "address"
        }
      ],
      "name": "RoyaltyInvalidRecipient",
      "type": "error"
    },
    {
      "inputs": [],
      "name": "RoyaltyUnauthorized",
      "type": "error"
    },
    {
      "inputs": [],
      "name": "TransferCallerNotOwnerNorApproved",
      "type": "error"
    },
    {
      "inputs": [],
      "name": "TransferFromIncorrectOwner",
      "type": "error"
    },
    {
      "inputs": [],
      "name": "TransferToNonERC721ReceiverImplementer",
      "type": "error"
    },
    {
      "inputs": [],
      "name": "TransferToZeroAddress",
      "type": "error"
    },
    {
      "inputs": [],
      "name": "URIQueryForNonexistentToken",
      "type": "error"
    },
    {
      "anonymous": false,
      "inputs": [
        {
          "indexed": true,
          "internalType": "address",
          "name": "owner",
          "type": "address"
        },
        {
          "indexed": true,
          "internalType": "address",
          "name": "approved",
          "type": "address"
        },
        {
          "indexed": true,
          "internalType": "uint256",
          "name": "tokenId",
          "type": "uint256"
        }
      ],
      "name": "Approval",
      "type": "event"
    },
    {
      "anonymous": false,
      "inputs": [
        {
          "indexed": true,
          "internalType": "address",
          "name": "owner",
          "type": "address"
        },
        {
          "indexed": true,
          "internalType": "address",
          "name": "operator",
          "type": "address"
        },
        {
          "indexed": false,
          "internalType": "bool",
          "name": "approved",
          "type": "bool"
        }
      ],
      "name": "ApprovalForAll",
      "type": "event"
    },
    {
      "anonymous": false,
      "inputs": [
        {
          "indexed": false,
          "internalType": "uint256",
          "name": "_fromTokenId",
          "type": "uint256"
        },
        {
          "indexed": false,
          "internalType": "uint256",
          "name": "_toTokenId",
          "type": "uint256"
        }
      ],
      "name": "BatchMetadataUpdate",
      "type": "event"
    },
    {
      "anonymous": false,
      "inputs": [
        {
          "indexed": false,
          "internalType": "string",
          "name": "prevURI",
          "type": "string"
        },
        {
          "indexed": false,
          "internalType": "string",
          "name": "newURI",
          "type": "string"
        }
      ],
      "name": "ContractURIUpdated",
      "type": "event"
    },
    {
      "anonymous": false,
      "inputs": [
        {
          "indexed": true,
          "internalType": "address",
          "name": "newRoyaltyRecipient",
          "type": "address"
        },
        {
          "indexed": false,
          "internalType": "uint256",
          "name": "newRoyaltyBps",
          "type": "uint256"
        }
      ],
      "name": "DefaultRoyalty",
      "type": "event"
    },
    {
      "anonymous": false,
      "inputs": [],
      "name": "MetadataFrozen",
      "type": "event"
    },
    {
      "anonymous": false,
      "inputs": [
        {
          "indexed": true,
          "internalType": "address",
          "name": "prevOwner",
          "type": "address"
        },
        {
          "indexed": true,
          "internalType": "address",
          "name": "newOwner",
          "type": "address"
        }
      ],
      "name": "OwnerUpdated",
      "type": "event"
    },
    {
      "anonymous": false,
      "inputs": [
        {
          "indexed": true,
          "internalType": "uint256",
          "name": "tokenId",
          "type": "uint256"
        },
        {
          "indexed": true,
          "internalType": "address",
          "name": "royaltyRecipient",
          "type": "address"
        },
        {
          "indexed": false,
          "internalType": "uint256",
          "name": "royaltyBps",
          "type": "uint256"
        }
      ],
      "name": "RoyaltyForToken",
      "type": "event"
    },
    {
      "anonymous": false,
      "inputs": [
        {
          "indexed": true,
          "internalType": "address",
          "name": "from",
          "type": "address"
        },
        {
          "indexed": true,
          "internalType": "address",
          "name": "to",
          "type": "address"
        },
        {
          "indexed": true,
          "internalType": "uint256",
          "name": "tokenId",
          "type": "uint256"
        }
      ],
      "name": "Transfer",
      "type": "event"
    },
    {
      "inputs": [
        {
          "internalType": "uint256",
          "name": "tokenId",
          "type": "uint256"
        }
      ],
      "name": "adminBurn",
      "outputs": [],
      "stateMutability": "nonpayable",
      "type": "function"
    },
    {
      "inputs": [
        {
          "internalType": "address",
          "name": "",
          "type": "address"
        },
        {
          "internalType": "uint256",
          "name": "",
          "type": "uint256"
        }
      ],
      "name": "approve",
      "outputs": [],
      "stateMutability": "nonpayable",
      "type": "function"
    },
    {
      "inputs": [
        {
          "internalType": "address",
          "name": "owner",
          "type": "address"
        }
      ],
      "name": "balanceOf",
      "outputs": [
        {
          "internalType": "uint256",
          "name": "",
          "type": "uint256"
        }
      ],
      "stateMutability": "view",
      "type": "function"
    },
    {
      "inputs": [
        {
          "internalType": "uint256",
          "name": "",
          "type": "uint256"
        }
      ],
      "name": "batchFrozen",
      "outputs": [
        {
          "internalType": "bool",
          "name": "",
          "type": "bool"
        }
      ],
      "stateMutability": "view",
      "type": "function"
    },
    {
      "inputs": [
        {
          "internalType": "address",
          "name": "_to",
          "type": "address"
        },
        {
          "internalType": "uint256",
          "name": "_quantity",
          "type": "uint256"
        },
        {
          "internalType": "string",
          "name": "_baseURI",
          "type": "string"
        },
        {
          "internalType": "bytes",
          "name": "_data",
          "type": "bytes"
        }
      ],
      "name": "batchMintTo",
      "outputs": [],
      "stateMutability": "nonpayable",
      "type": "function"
    },
    {
      "inputs": [
        {
          "internalType": "uint256",
          "name": "_tokenId",
          "type": "uint256"
        }
      ],
      "name": "burn",
      "outputs": [],
      "stateMutability": "nonpayable",
      "type": "function"
    },
    {
      "inputs": [],
      "name": "contractURI",
      "outputs": [
        {
          "internalType": "string",
          "name": "",
          "type": "string"
        }
      ],
      "stateMutability": "view",
      "type": "function"
    },
    {
      "inputs": [
        {
          "internalType": "uint256",
          "name": "tokenId",
          "type": "uint256"
        }
      ],
      "name": "explicitOwnershipOf",
      "outputs": [
        {
          "components": [
            {
              "internalType": "address",
              "name": "addr",
              "type": "address"
            },
            {
              "internalType": "uint64",
              "name": "startTimestamp",
              "type": "uint64"
            },
            {
              "internalType": "bool",
              "name": "burned",
              "type": "bool"
            }
          ],
          "internalType": "struct IERC721A.TokenOwnership",
          "name": "",
          "type": "tuple"
        }
      ],
      "stateMutability": "view",
      "type": "function"
    },
    {
      "inputs": [
        {
          "internalType": "uint256[]",
          "name": "tokenIds",
          "type": "uint256[]"
        }
      ],
      "name": "explicitOwnershipsOf",
      "outputs": [
        {
          "components": [
            {
              "internalType": "address",
              "name": "addr",
              "type": "address"
            },
            {
              "internalType": "uint64",
              "name": "startTimestamp",
              "type": "uint64"
            },
            {
              "internalType": "bool",
              "name": "burned",
              "type": "bool"
            }
          ],
          "internalType": "struct IERC721A.TokenOwnership[]",
          "name": "",
          "type": "tuple[]"
        }
      ],
      "stateMutability": "view",
      "type": "function"
    },
    {
      "inputs": [
        {
          "internalType": "uint256",
          "name": "tokenId",
          "type": "uint256"
        }
      ],
      "name": "getApproved",
      "outputs": [
        {
          "internalType": "address",
          "name": "",
          "type": "address"
        }
      ],
      "stateMutability": "view",
      "type": "function"
    },
    {
      "inputs": [],
      "name": "getBaseURICount",
      "outputs": [
        {
          "internalType": "uint256",
          "name": "",
          "type": "uint256"
        }
      ],
      "stateMutability": "view",
      "type": "function"
    },
    {
      "inputs": [
        {
          "internalType": "uint256",
          "name": "_index",
          "type": "uint256"
        }
      ],
      "name": "getBatchIdAtIndex",
      "outputs": [
        {
          "internalType": "uint256",
          "name": "",
          "type": "uint256"
        }
      ],
      "stateMutability": "view",
      "type": "function"
    },
    {
      "inputs": [],
      "name": "getDefaultRoyaltyInfo",
      "outputs": [
        {
          "internalType": "address",
          "name": "",
          "type": "address"
        },
        {
          "internalType": "uint16",
          "name": "",
          "type": "uint16"
        }
      ],
      "stateMutability": "view",
      "type": "function"
    },
    {
      "inputs": [
        {
          "internalType": "uint256",
          "name": "_tokenId",
          "type": "uint256"
        }
      ],
      "name": "getRoyaltyInfoForToken",
      "outputs": [
        {
          "internalType": "address",
          "name": "",
          "type": "address"
        },
        {
          "internalType": "uint16",
          "name": "",
          "type": "uint16"
        }
      ],
      "stateMutability": "view",
      "type": "function"
    },
    {
      "inputs": [
        {
          "internalType": "address",
          "name": "",
          "type": "address"
        },
        {
          "internalType": "address",
          "name": "",
          "type": "address"
        }
      ],
      "name": "isApprovedForAll",
      "outputs": [
        {
          "internalType": "bool",
          "name": "",
          "type": "bool"
        }
      ],
      "stateMutability": "view",
      "type": "function"
    },
    {
      "inputs": [
        {
          "internalType": "address",
          "name": "_operator",
          "type": "address"
        },
        {
          "internalType": "uint256",
          "name": "_tokenId",
          "type": "uint256"
        }
      ],
      "name": "isApprovedOrOwner",
      "outputs": [
        {
          "internalType": "bool",
          "name": "isApprovedOrOwnerOf",
          "type": "bool"
        }
      ],
      "stateMutability": "view",
      "type": "function"
    },
    {
      "inputs": [
        {
          "internalType": "address",
          "name": "recipient",
          "type": "address"
        },
        {
          "internalType": "string",
          "name": "tokenUri",
          "type": "string"
        }
      ],
      "name": "mintCertificate",
      "outputs": [],
      "stateMutability": "nonpayable",
      "type": "function"
    },
    {
      "inputs": [
        {
          "internalType": "address",
          "name": "_to",
          "type": "address"
        },
        {
          "internalType": "string",
          "name": "_tokenURI",
          "type": "string"
        }
      ],
      "name": "mintTo",
      "outputs": [],
      "stateMutability": "nonpayable",
      "type": "function"
    },
    {
      "inputs": [
        {
          "internalType": "bytes[]",
          "name": "data",
          "type": "bytes[]"
        }
      ],
      "name": "multicall",
      "outputs": [
        {
          "internalType": "bytes[]",
          "name": "results",
          "type": "bytes[]"
        }
      ],
      "stateMutability": "nonpayable",
      "type": "function"
    },
    {
      "inputs": [],
      "name": "name",
      "outputs": [
        {
          "internalType": "string",
          "name": "",
          "type": "string"
        }
      ],
      "stateMutability": "view",
      "type": "function"
    },
    {
      "inputs": [],
      "name": "nextTokenIdToMint",
      "outputs": [
        {
          "internalType": "uint256",
          "name": "",
          "type": "uint256"
        }
      ],
      "stateMutability": "view",
      "type": "function"
    },
    {
      "inputs": [],
      "name": "owner",
      "outputs": [
        {
          "internalType": "address",
          "name": "",
          "type": "address"
        }
      ],
      "stateMutability": "view",
      "type": "function"
    },
    {
      "inputs": [
        {
          "internalType": "uint256",
          "name": "tokenId",
          "type": "uint256"
        }
      ],
      "name": "ownerOf",
      "outputs": [
        {
          "internalType": "address",
          "name": "",
          "type": "address"
        }
      ],
      "stateMutability": "view",
      "type": "function"
    },
    {
      "inputs": [
        {
          "internalType": "uint256",
          "name": "tokenId",
          "type": "uint256"
        },
        {
          "internalType": "uint256",
          "name": "salePrice",
          "type": "uint256"
        }
      ],
      "name": "royaltyInfo",
      "outputs": [
        {
          "internalType": "address",
          "name": "receiver",
          "type": "address"
        },
        {
          "internalType": "uint256",
          "name": "royaltyAmount",
          "type": "uint256"
        }
      ],
      "stateMutability": "view",
      "type": "function"
    },
    {
      "inputs": [
        {
          "internalType": "address",
          "name": "from",
          "type": "address"
        },
        {
          "internalType": "address",
          "name": "to",
          "type": "address"
        },
        {
          "internalType": "uint256",
          "name": "tokenId",
          "type": "uint256"
        }
      ],
      "name": "safeTransferFrom",
      "outputs": [],
      "stateMutability": "nonpayable",
      "type": "function"
    },
    {
      "inputs": [
        {
          "internalType": "address",
          "name": "from",
          "type": "address"
        },
        {
          "internalType": "address",
          "name": "to",
          "type": "address"
        },
        {
          "internalType": "uint256",
          "name": "tokenId",
          "type": "uint256"
        },
        {
          "internalType": "bytes",
          "name": "_data",
          "type": "bytes"
        }
      ],
      "name": "safeTransferFrom",
      "outputs": [],
      "stateMutability": "nonpayable",
      "type": "function"
    },
    {
      "inputs": [
        {
          "internalType": "address",
          "name": "",
          "type": "address"
        },
        {
          "internalType": "bool",
          "name": "",
          "type": "bool"
        }
      ],
      "name": "setApprovalForAll",
      "outputs": [],
      "stateMutability": "nonpayable",
      "type": "function"
    },
    {
      "inputs": [
        {
          "internalType": "string",
          "name": "_uri",
          "type": "string"
        }
      ],
      "name": "setContractURI",
      "outputs": [],
      "stateMutability": "nonpayable",
      "type": "function"
    },
    {
      "inputs": [
        {
          "internalType": "address",
          "name": "_royaltyRecipient",
          "type": "address"
        },
        {
          "internalType": "uint256",
          "name": "_royaltyBps",
          "type": "uint256"
        }
      ],
      "name": "setDefaultRoyaltyInfo",
      "outputs": [],
      "stateMutability": "nonpayable",
      "type": "function"
    },
    {
      "inputs": [
        {
          "internalType": "address",
          "name": "_newOwner",
          "type": "address"
        }
      ],
      "name": "setOwner",
      "outputs": [],
      "stateMutability": "nonpayable",
      "type": "function"
    },
    {
      "inputs": [
        {
          "internalType": "uint256",
          "name": "_tokenId",
          "type": "uint256"
        },
        {
          "internalType": "address",
          "name": "_recipient",
          "type": "address"
        },
        {
          "internalType": "uint256",
          "name": "_bps",
          "type": "uint256"
        }
      ],
      "name": "setRoyaltyInfoForToken",
      "outputs": [],
      "stateMutability": "nonpayable",
      "type": "function"
    },
    {
      "inputs": [
        {
          "internalType": "bool",
          "name": "_enabled",
          "type": "bool"
        }
      ],
      "name": "setSoulbound",
      "outputs": [],
      "stateMutability": "nonpayable",
      "type": "function"
    },
    {
      "inputs": [],
      "name": "soulbound",
      "outputs": [
        {
          "internalType": "bool",
          "name": "",
          "type": "bool"
        }
      ],
      "stateMutability": "view",
      "type": "function"
    },
    {
      "inputs": [
        {
          "internalType": "bytes4",
          "name": "interfaceId",
          "type": "bytes4"
        }
      ],
      "name": "supportsInterface",
      "outputs": [
        {
          "internalType": "bool",
          "name": "",
          "type": "bool"
        }
      ],
      "stateMutability": "view",
      "type": "function"
    },
    {
      "inputs": [],
      "name": "symbol",
      "outputs": [
        {
          "internalType": "string",
          "name": "",
          "type": "string"
        }
      ],
      "stateMutability": "view",
      "type": "function"
    },
    {
      "inputs": [
        {
          "internalType": "uint256",
          "name": "_tokenId",
          "type": "uint256"
        }
      ],
      "name": "tokenURI",
      "outputs": [
        {
          "internalType": "string",
          "name": "",
          "type": "string"
        }
      ],
      "stateMutability": "view",
      "type": "function"
    },
    {
      "inputs": [
        {
          "internalType": "address",
          "name": "owner",
          "type": "address"
        }
      ],
      "name": "tokensOfOwner",
      "outputs": [
        {
          "internalType": "uint256[]",
          "name": "",
          "type": "uint256[]"
        }
      ],
      "stateMutability": "view",
      "type": "function"
    },
    {
      "inputs": [
        {
          "internalType": "address",
          "name": "owner",
          "type": "address"
        },
        {
          "internalType": "uint256",
          "name": "start",
          "type": "uint256"
        },
        {
          "internalType": "uint256",
          "name": "stop",
          "type": "uint256"
        }
      ],
      "name": "tokensOfOwnerIn",
      "outputs": [
        {
          "internalType": "uint256[]",
          "name": "",
          "type": "uint256[]"
        }
      ],
      "stateMutability": "view",
      "type": "function"
    },
    {
      "inputs": [],
      "name": "totalSupply",
      "outputs": [
        {
          "internalType": "uint256",
          "name": "",
          "type": "uint256"
        }
      ],
      "stateMutability": "view",
      "type": "function"
    },
    {
      "inputs": [
        {
          "internalType": "address",
          "name": "from",
          "type": "address"
        },
        {
          "internalType": "address",
          "name": "to",
          "type": "address"
        },
        {
          "internalType": "uint256",
          "name": "tokenId",
          "type": "uint256"
        }
      ],
      "name": "transferFrom",
      "outputs": [],
      "stateMutability": "nonpayable",
      "type": "function"
    }
  ],
  "devdoc": {
    "errors": {
      "BatchMintInvalidBatchId(uint256)": [
        {
          "details": "Invalid index for batch"
        }
      ],
      "BatchMintInvalidTokenId(uint256)": [
        {
          "details": "Invalid token"
        }
      ],
      "BatchMintMetadataFrozen(uint256)": [
        {
          "details": "Metadata frozen"
        }
      ],
      "ContractMetadataUnauthorized()": [
        {
          "details": "The sender is not authorized to perform the action"
        }
      ],
      "OwnableUnauthorized()": [
        {
          "details": "The sender is not authorized to perform the action"
        }
      ],
      "RoyaltyExceededMaxFeeBps(uint256,uint256)": [
        {
          "details": "The fee bps exceeded the max value"
        }
      ],
      "RoyaltyInvalidRecipient(address)": [
        {
          "details": "The recipient is invalid"
        }
      ],
      "RoyaltyUnauthorized()": [
        {
          "details": "The sender is not authorized to perform the action"
        }
      ]
    },
    "events": {
      "Approval(address,address,uint256)": {
        "details": "Emitted when `owner` enables `approved` to manage the `tokenId` token."
      },
      "ApprovalForAll(address,address,bool)": {
        "details": "Emitted when `owner` enables or disables (`approved`) `operator` to manage all of its assets."
      },
      "ContractURIUpdated(string,string)": {
        "details": "Emitted when the contract URI is updated."
      },
      "DefaultRoyalty(address,uint256)": {
        "details": "Emitted when royalty info is updated."
      },
      "MetadataFrozen()": {
        "details": "This event emits when the metadata of all tokens are frozen. While not currently supported by marketplaces, this event allows future indexing if desired."
      },
      "OwnerUpdated(address,address)": {
        "details": "Emitted when a new Owner is set."
      },
      "RoyaltyForToken(uint256,address,uint256)": {
        "details": "Emitted when royalty recipient for tokenId is set"
      },
      "Transfer(address,address,uint256)": {
        "details": "Emitted when `tokenId` token is transferred from `from` to `to`."
      }
    },
    "kind": "dev",
    "methods": {
      "balanceOf(address)": {
        "details": "See {IERC721-balanceOf}."
      },
      "batchMintTo(address,uint256,string,bytes)": {
        "details": "The logic in the `_canMint` function determines whether the caller is authorized to mint NFTs.",
        "params": {
          "_baseURI": "The baseURI for the `n` number of NFTs minted. The metadata for each NFT is `baseURI/tokenId`",
          "_data": "Additional data to pass along during the minting of the NFT.",
          "_quantity": "The number of NFTs to mint.",
          "_to": "The recipient of the NFT to mint."
        }
      },
      "burn(uint256)": {
        "details": "ERC721A's `_burn(uint256,bool)` internally checks for token approvals.",
        "params": {
          "_tokenId": "The tokenId of the NFT to burn."
        }
      },
      "explicitOwnershipOf(uint256)": {
        "details": "Returns the `TokenOwnership` struct at `tokenId` without reverting. If the `tokenId` is out of bounds:   - `addr` = `address(0)`   - `startTimestamp` = `0`   - `burned` = `false` If the `tokenId` is burned:   - `addr` = `<Address of owner before token was burned>`   - `startTimestamp` = `<Timestamp when token was burned>`   - `burned = `true` Otherwise:   - `addr` = `<Address of owner>`   - `startTimestamp` = `<Timestamp of start of ownership>`   - `burned = `false`"
      },
      "explicitOwnershipsOf(uint256[])": {
        "details": "Returns an array of `TokenOwnership` structs at `tokenIds` in order. See {ERC721AQueryable-explicitOwnershipOf}"
      },
      "getApproved(uint256)": {
        "details": "See {IERC721-getApproved}."
      },
      "getBaseURICount()": {
        "details": "Each batch of tokens has an in ID and an associated `baseURI`.                  See {batchIds}."
      },
      "getBatchIdAtIndex(uint256)": {
        "details": "See {getBaseURICount}.",
        "params": {
          "_index": "Index of the desired batch in batchIds array."
        }
      },
      "getRoyaltyInfoForToken(uint256)": {
        "details": "Returns royalty recipient and bps for `_tokenId`.",
        "params": {
          "_tokenId": "The tokenID of the NFT for which to query royalty info."
        }
      },
      "isApprovedOrOwner(address,uint256)": {
        "params": {
          "_operator": "The address to check.",
          "_tokenId": "The tokenId of the NFT to check."
        },
        "returns": {
          "isApprovedOrOwnerOf": "Whether the given address is approved to transfer the given NFT."
        }
      },
      "mintTo(address,string)": {
        "details": "The logic in the `_canMint` function determines whether the caller is authorized to mint NFTs.",
        "params": {
          "_to": "The recipient of the NFT to mint.",
          "_tokenURI": "The full metadata URI for the NFT minted."
        }
      },
      "multicall(bytes[])": {
        "details": "Receives and executes a batch of function calls on this contract.",
        "params": {
          "data": "The bytes data that makes up the batch of function calls to execute."
        },
        "returns": {
          "results": "The bytes data that makes up the result of the batch of function calls executed."
        }
      },
      "name()": {
        "details": "See {IERC721Metadata-name}."
      },
      "ownerOf(uint256)": {
        "details": "See {IERC721-ownerOf}."
      },
      "royaltyInfo(uint256,uint256)": {
        "details": "Returns royalty amount and recipient for `tokenId` and `salePrice`.",
        "params": {
          "salePrice": "Sale price of the token.",
          "tokenId": "The tokenID of the NFT for which to query royalty info."
        },
        "returns": {
          "receiver": "       Address of royalty recipient account.",
          "royaltyAmount": "  Royalty amount calculated at current royaltyBps value."
        }
      },
      "safeTransferFrom(address,address,uint256)": {
        "details": "See {IERC721-safeTransferFrom}."
      },
      "safeTransferFrom(address,address,uint256,bytes)": {
        "details": "See {IERC721-safeTransferFrom}."
      },
      "setContractURI(string)": {
        "details": "Caller should be authorized to setup contractURI, e.g. contract admin.                  See {_canSetContractURI}.                  Emits {ContractURIUpdated Event}.",
        "params": {
          "_uri": "keccak256 hash of the role. e.g. keccak256(\"TRANSFER_ROLE\")"
        }
      },
      "setDefaultRoyaltyInfo(address,uint256)": {
        "details": "Caller should be authorized to set royalty info.                  See {_canSetRoyaltyInfo}.                  Emits {DefaultRoyalty Event}; See {_setupDefaultRoyaltyInfo}.",
        "params": {
          "_royaltyBps": "Updated royalty bps.",
          "_royaltyRecipient": "Address to be set as default royalty recipient."
        }
      },
      "setOwner(address)": {
        "params": {
          "_newOwner": "The address to set as the new owner of the contract."
        }
      },
      "setRoyaltyInfoForToken(uint256,address,uint256)": {
        "details": "Sets royalty info for `_tokenId`. Caller should be authorized to set royalty info.                  See {_canSetRoyaltyInfo}.                  Emits {RoyaltyForToken Event}; See {_setupRoyaltyInfoForToken}.",
        "params": {
          "_bps": "Updated royalty bps for the token Id.",
          "_recipient": "Address to be set as royalty recipient for given token Id."
        }
      },
      "supportsInterface(bytes4)": {
        "details": "See ERC165: https://eips.ethereum.org/EIPS/eip-165"
      },
      "symbol()": {
        "details": "See {IERC721Metadata-symbol}."
      },
      "tokenURI(uint256)": {
        "details": "See `BatchMintMetadata` for handling of metadata in this contract.",
        "params": {
          "_tokenId": "The tokenId of an NFT."
        }
      },
      "tokensOfOwner(address)": {
        "details": "Returns an array of token IDs owned by `owner`. This function scans the ownership mapping and is O(totalSupply) in complexity. It is meant to be called off-chain. See {ERC721AQueryable-tokensOfOwnerIn} for splitting the scan into multiple smaller scans if the collection is large enough to cause an out-of-gas error (10K pfp collections should be fine)."
      },
      "tokensOfOwnerIn(address,uint256,uint256)": {
        "details": "Returns an array of token IDs owned by `owner`, in the range [`start`, `stop`) (i.e. `start <= tokenId < stop`). This function allows for tokens to be queried if the collection grows too big for a single call of {ERC721AQueryable-tokensOfOwner}. Requirements: - `start` < `stop`"
      },
      "totalSupply()": {
        "details": "Burned tokens are calculated here, use _totalMinted() if you want to count just minted tokens."
      },
      "transferFrom(address,address,uint256)": {
        "details": "See {IERC721-transferFrom}."
      }
    },
    "version": 1
  },
  "evm": {
    "assembly": "    /* \"SertifikatDigital.sol\":118:2035  contract SertifikatDigital is ERC721Base {... */\n  mstore(0x40, 0x80)\n    /* \"SertifikatDigital.sol\":166:194  bool public soulbound = true */\n  0x10\n  dup1\n  sload\n  not(0xff)\n  and\n    /* \"SertifikatDigital.sol\":190:194  true */\n  0x01\n    /* \"SertifikatDigital.sol\":166:194  bool public soulbound = true */\n  or\n  swap1\n  sstore\n    /* \"SertifikatDigital.sol\":203:472  constructor(... */\n  callvalue\n  dup1\n  iszero\n  tag_1\n  jumpi\n  0x00\n  dup1\n  revert\ntag_1:\n  pop\n  mload(0x40)\n  sub(codesize, bytecodeSize)\n  dup1\n  bytecodeSize\n  dup4\n  codecopy\n  dup2\n  add\n  0x40\n  dup2\n  swap1\n  mstore\n  tag_2\n  swap2\n  tag_3\n  jump\t// in\ntag_2:\n    /* \"SertifikatDigital.sol\":402:415  _defaultAdmin */\n  dup5\n    /* \"SertifikatDigital.sol\":417:422  _name */\n  dup5\n    /* \"SertifikatDigital.sol\":424:431  _symbol */\n  dup5\n    /* \"SertifikatDigital.sol\":433:450  _royaltyRecipient */\n  dup5\n    /* \"SertifikatDigital.sol\":452:463  _royaltyBps */\n  dup5\n    /* \"SertifikatDigital.sol\":417:422  _name */\n  dup4\n    /* \"SertifikatDigital.sol\":424:431  _symbol */\n  dup4\n    /* \"@thirdweb-dev/contracts/eip/ERC721AVirtualApprove.sol\":1883:1888   */\n  0x02\n    /* \"@thirdweb-dev/contracts/eip/ERC721AVirtualApprove.sol\":1883:1896   */\n  tag_8\n    /* \"SertifikatDigital.sol\":417:422  _name */\n  dup4\n    /* \"@thirdweb-dev/contracts/eip/ERC721AVirtualApprove.sol\":1883:1888   */\n  dup3\n    /* \"@thirdweb-dev/contracts/eip/ERC721AVirtualApprove.sol\":1883:1896   */\n  tag_9\n  jump\t// in\ntag_8:\n  pop\n    /* \"@thirdweb-dev/contracts/eip/ERC721AVirtualApprove.sol\":1906:1913   */\n  0x03\n    /* \"@thirdweb-dev/contracts/eip/ERC721AVirtualApprove.sol\":1906:1923   */\n  tag_10\n    /* \"@thirdweb-dev/contracts/eip/ERC721AVirtualApprove.sol\":1916:1923   */\n  dup3\n    /* \"@thirdweb-dev/contracts/eip/ERC721AVirtualApprove.sol\":1906:1913   */\n  dup3\n    /* \"@thirdweb-dev/contracts/eip/ERC721AVirtualApprove.sol\":1906:1923   */\n  tag_9\n  jump\t// in\ntag_10:\n  pop\n  pop\n    /* \"@thirdweb-dev/contracts/eip/ERC721AVirtualApprove.sol\":2119:2126   */\n  0x00\n    /* \"@thirdweb-dev/contracts/eip/ERC721AVirtualApprove.sol\":1933:1964   */\n  dup1\n  sstore\n  pop\n    /* \"@thirdweb-dev/contracts/base/ERC721Base.sol\":2264:2290   */\n  tag_14\n    /* \"@thirdweb-dev/contracts/base/ERC721Base.sol\":2276:2289   */\n  dup6\n    /* \"@thirdweb-dev/contracts/base/ERC721Base.sol\":2264:2275   */\n  tag_15\n    /* \"@thirdweb-dev/contracts/base/ERC721Base.sol\":2264:2290   */\n  jump\t// in\ntag_14:\n    /* \"@thirdweb-dev/contracts/base/ERC721Base.sol\":2300:2356   */\n  tag_16\n    /* \"@thirdweb-dev/contracts/base/ERC721Base.sol\":2325:2342   */\n  dup3\n  sub(shl(0x80, 0x01), 0x01)\n    /* \"@thirdweb-dev/contracts/base/ERC721Base.sol\":2300:2356   */\n  dup4\n  and\n    /* \"@thirdweb-dev/contracts/base/ERC721Base.sol\":2300:2324   */\n  tag_17\n    /* \"@thirdweb-dev/contracts/base/ERC721Base.sol\":2300:2356   */\n  jump\t// in\ntag_16:\n    /* \"@thirdweb-dev/contracts/base/ERC721Base.sol\":2057:2363   */\n  pop\n  pop\n  pop\n  pop\n  pop\n    /* \"SertifikatDigital.sol\":203:472  constructor(... */\n  pop\n  pop\n  pop\n  pop\n  pop\n    /* \"SertifikatDigital.sol\":118:2035  contract SertifikatDigital is ERC721Base {... */\n  jump(tag_35)\n    /* \"@thirdweb-dev/contracts/extension/Ownable.sol\":1527:1699   */\ntag_15:\n    /* \"@thirdweb-dev/contracts/extension/Ownable.sol\":1607:1613   */\n  0x09\n  dup1\n  sload\n  sub(shl(0xa0, 0x01), 0x01)\n    /* \"@thirdweb-dev/contracts/extension/Ownable.sol\":1623:1641   */\n  dup4\n  dup2\n  and\n  not(sub(shl(0xa0, 0x01), 0x01))\n  dup4\n  and\n  dup2\n  or\n  swap1\n  swap4\n  sstore\n    /* \"@thirdweb-dev/contracts/extension/Ownable.sol\":1657:1692   */\n  mload(0x40)\n    /* \"@thirdweb-dev/contracts/extension/Ownable.sol\":1607:1613   */\n  swap2\n  and\n  swap2\n    /* \"@thirdweb-dev/contracts/extension/Ownable.sol\":1623:1641   */\n  swap1\n    /* \"@thirdweb-dev/contracts/extension/Ownable.sol\":1607:1613   */\n  dup3\n  swap1\n    /* \"@thirdweb-dev/contracts/extension/Ownable.sol\":1657:1692   */\n  0x8292fce18fa69edf4db7b94ea2e58241df0ae57f97e0a6c9b29067028bf92d76\n  swap1\n    /* \"@thirdweb-dev/contracts/extension/Ownable.sol\":1586:1604   */\n  0x00\n  swap1\n    /* \"@thirdweb-dev/contracts/extension/Ownable.sol\":1657:1692   */\n  log3\n    /* \"@thirdweb-dev/contracts/extension/Ownable.sol\":1576:1699   */\n  pop\n    /* \"@thirdweb-dev/contracts/extension/Ownable.sol\":1527:1699   */\n  pop\n  jump\t// out\n    /* \"@thirdweb-dev/contracts/extension/Royalty.sol\":3717:4078   */\ntag_17:\n    /* \"@thirdweb-dev/contracts/extension/Royalty.sol\":3836:3842   */\n  0x2710\n    /* \"@thirdweb-dev/contracts/extension/Royalty.sol\":3822:3833   */\n  dup2\n    /* \"@thirdweb-dev/contracts/extension/Royalty.sol\":3822:3842   */\n  gt\n    /* \"@thirdweb-dev/contracts/extension/Royalty.sol\":3818:3921   */\n  iszero\n  tag_23\n  jumpi\n    /* \"@thirdweb-dev/contracts/extension/Royalty.sol\":3865:3910   */\n  mload(0x40)\n  shl(0xe3, 0x0a4930ad)\n  dup2\n  mstore\n    /* \"@thirdweb-dev/contracts/extension/Royalty.sol\":3890:3896   */\n  0x2710\n    /* \"@thirdweb-dev/contracts/extension/Royalty.sol\":3865:3910   */\n  0x04\n  dup3\n  add\n    /* \"#utility.yul\":4696:4721   */\n  mstore\n    /* \"#utility.yul\":4737:4755   */\n  0x24\n  dup2\n  add\n    /* \"#utility.yul\":4730:4764   */\n  dup3\n  swap1\n  mstore\n    /* \"#utility.yul\":4669:4687   */\n  0x44\n  add\n    /* \"@thirdweb-dev/contracts/extension/Royalty.sol\":3865:3910   */\n  mload(0x40)\n  dup1\n  swap2\n  sub\n  swap1\n  revert\n    /* \"@thirdweb-dev/contracts/extension/Royalty.sol\":3818:3921   */\ntag_23:\n    /* \"@thirdweb-dev/contracts/extension/Royalty.sol\":3931:3947   */\n  0x0a\n    /* \"@thirdweb-dev/contracts/extension/Royalty.sol\":3931:3967   */\n  dup1\n  sload\n  sub(shl(0xa0, 0x01), 0x01)\n  dup5\n  and\n  not(sub(shl(0xb0, 0x01), 0x01))\n    /* \"@thirdweb-dev/contracts/extension/Royalty.sol\":3977:4009   */\n  swap1\n  swap2\n  and\n  dup2\n  or\n  shl(0xa0, 0x01)\n  0xffff\n  dup6\n  and\n  mul\n  or\n  swap1\n  swap2\n  sstore\n    /* \"@thirdweb-dev/contracts/extension/Royalty.sol\":4025:4071   */\n  mload(0x40)\n    /* \"#utility.yul\":4921:4946   */\n  dup3\n  dup2\n  mstore\n    /* \"@thirdweb-dev/contracts/extension/Royalty.sol\":4025:4071   */\n  0x90d7ec04bcb8978719414f82e52e4cb651db41d0e6f8cea6118c2191e6183adb\n  swap1\n    /* \"#utility.yul\":4909:4911   */\n  0x20\n    /* \"#utility.yul\":4894:4912   */\n  add\n    /* \"@thirdweb-dev/contracts/extension/Royalty.sol\":4025:4071   */\n  mload(0x40)\n  dup1\n  swap2\n  sub\n  swap1\n  log2\n    /* \"@thirdweb-dev/contracts/extension/Royalty.sol\":3717:4078   */\n  pop\n  pop\n  jump\t// out\n    /* \"#utility.yul\":14:191   */\ntag_28:\n    /* \"#utility.yul\":93:106   */\n  dup1\n  mload\n  sub(shl(0xa0, 0x01), 0x01)\n    /* \"#utility.yul\":135:166   */\n  dup2\n  and\n    /* \"#utility.yul\":125:167   */\n  dup2\n  eq\n    /* \"#utility.yul\":115:185   */\n  tag_37\n  jumpi\n    /* \"#utility.yul\":181:182   */\n  0x00\n    /* \"#utility.yul\":178:179   */\n  dup1\n    /* \"#utility.yul\":171:183   */\n  revert\n    /* \"#utility.yul\":115:185   */\ntag_37:\n    /* \"#utility.yul\":14:191   */\n  swap2\n  swap1\n  pop\n  jump\t// out\n    /* \"#utility.yul\":196:323   */\ntag_29:\n    /* \"#utility.yul\":257:267   */\n  0x4e487b71\n    /* \"#utility.yul\":252:255   */\n  0xe0\n    /* \"#utility.yul\":248:268   */\n  shl\n    /* \"#utility.yul\":245:246   */\n  0x00\n    /* \"#utility.yul\":238:269   */\n  mstore\n    /* \"#utility.yul\":288:292   */\n  0x41\n    /* \"#utility.yul\":285:286   */\n  0x04\n    /* \"#utility.yul\":278:293   */\n  mstore\n    /* \"#utility.yul\":312:316   */\n  0x24\n    /* \"#utility.yul\":309:310   */\n  0x00\n    /* \"#utility.yul\":302:317   */\n  revert\n    /* \"#utility.yul\":328:1044   */\ntag_30:\n    /* \"#utility.yul\":382:387   */\n  0x00\n    /* \"#utility.yul\":435:438   */\n  dup3\n    /* \"#utility.yul\":428:432   */\n  0x1f\n    /* \"#utility.yul\":420:426   */\n  dup4\n    /* \"#utility.yul\":416:433   */\n  add\n    /* \"#utility.yul\":412:439   */\n  slt\n    /* \"#utility.yul\":402:457   */\n  tag_40\n  jumpi\n    /* \"#utility.yul\":453:454   */\n  0x00\n    /* \"#utility.yul\":450:451   */\n  dup1\n    /* \"#utility.yul\":443:455   */\n  revert\n    /* \"#utility.yul\":402:457   */\ntag_40:\n    /* \"#utility.yul\":476:489   */\n  dup2\n  mload\n  sub(shl(0x40, 0x01), 0x01)\n    /* \"#utility.yul\":538:548   */\n  dup1\n  dup3\n  gt\n    /* \"#utility.yul\":535:571   */\n  iszero\n  tag_42\n  jumpi\n    /* \"#utility.yul\":551:569   */\n  tag_42\n  tag_29\n  jump\t// in\ntag_42:\n    /* \"#utility.yul\":626:628   */\n  0x40\n    /* \"#utility.yul\":620:629   */\n  mload\n    /* \"#utility.yul\":594:596   */\n  0x1f\n    /* \"#utility.yul\":680:693   */\n  dup4\n  add\n  not(0x1f)\n    /* \"#utility.yul\":676:698   */\n  swap1\n  dup2\n  and\n    /* \"#utility.yul\":700:702   */\n  0x3f\n    /* \"#utility.yul\":672:703   */\n  add\n    /* \"#utility.yul\":668:708   */\n  and\n    /* \"#utility.yul\":656:709   */\n  dup2\n  add\n  swap1\n    /* \"#utility.yul\":724:742   */\n  dup3\n  dup3\n  gt\n    /* \"#utility.yul\":744:766   */\n  dup2\n  dup4\n  lt\n    /* \"#utility.yul\":721:767   */\n  or\n    /* \"#utility.yul\":718:790   */\n  iszero\n  tag_44\n  jumpi\n    /* \"#utility.yul\":770:788   */\n  tag_44\n  tag_29\n  jump\t// in\ntag_44:\n    /* \"#utility.yul\":810:820   */\n  dup2\n    /* \"#utility.yul\":806:808   */\n  0x40\n    /* \"#utility.yul\":799:821   */\n  mstore\n    /* \"#utility.yul\":845:847   */\n  dup4\n    /* \"#utility.yul\":837:843   */\n  dup2\n    /* \"#utility.yul\":830:848   */\n  mstore\n    /* \"#utility.yul\":891:894   */\n  dup7\n    /* \"#utility.yul\":884:888   */\n  0x20\n    /* \"#utility.yul\":879:881   */\n  dup6\n    /* \"#utility.yul\":871:877   */\n  dup9\n    /* \"#utility.yul\":867:882   */\n  add\n    /* \"#utility.yul\":863:889   */\n  add\n    /* \"#utility.yul\":860:895   */\n  gt\n    /* \"#utility.yul\":857:912   */\n  iszero\n  tag_45\n  jumpi\n    /* \"#utility.yul\":908:909   */\n  0x00\n    /* \"#utility.yul\":905:906   */\n  dup1\n    /* \"#utility.yul\":898:910   */\n  revert\n    /* \"#utility.yul\":857:912   */\ntag_45:\n    /* \"#utility.yul\":965:967   */\n  dup4\n    /* \"#utility.yul\":958:962   */\n  0x20\n    /* \"#utility.yul\":950:956   */\n  dup8\n    /* \"#utility.yul\":946:963   */\n  add\n    /* \"#utility.yul\":939:943   */\n  0x20\n    /* \"#utility.yul\":931:937   */\n  dup4\n    /* \"#utility.yul\":927:944   */\n  add\n    /* \"#utility.yul\":921:968   */\n  mcopy\n    /* \"#utility.yul\":1012:1013   */\n  0x00\n    /* \"#utility.yul\":1005:1009   */\n  0x20\n    /* \"#utility.yul\":1000:1002   */\n  dup6\n    /* \"#utility.yul\":992:998   */\n  dup4\n    /* \"#utility.yul\":988:1003   */\n  add\n    /* \"#utility.yul\":984:1010   */\n  add\n    /* \"#utility.yul\":977:1014   */\n  mstore\n    /* \"#utility.yul\":1032:1038   */\n  dup1\n    /* \"#utility.yul\":1023:1038   */\n  swap5\n  pop\n  pop\n  pop\n  pop\n  pop\n    /* \"#utility.yul\":328:1044   */\n  swap3\n  swap2\n  pop\n  pop\n  jump\t// out\n    /* \"#utility.yul\":1049:1950   */\ntag_3:\n    /* \"#utility.yul\":1175:1181   */\n  0x00\n    /* \"#utility.yul\":1183:1189   */\n  dup1\n    /* \"#utility.yul\":1191:1197   */\n  0x00\n    /* \"#utility.yul\":1199:1205   */\n  dup1\n    /* \"#utility.yul\":1207:1213   */\n  0x00\n    /* \"#utility.yul\":1260:1263   */\n  0xa0\n    /* \"#utility.yul\":1248:1257   */\n  dup7\n    /* \"#utility.yul\":1239:1246   */\n  dup9\n    /* \"#utility.yul\":1235:1258   */\n  sub\n    /* \"#utility.yul\":1231:1264   */\n  slt\n    /* \"#utility.yul\":1228:1281   */\n  iszero\n  tag_47\n  jumpi\n    /* \"#utility.yul\":1277:1278   */\n  0x00\n    /* \"#utility.yul\":1274:1275   */\n  dup1\n    /* \"#utility.yul\":1267:1279   */\n  revert\n    /* \"#utility.yul\":1228:1281   */\ntag_47:\n    /* \"#utility.yul\":1300:1340   */\n  tag_48\n    /* \"#utility.yul\":1330:1339   */\n  dup7\n    /* \"#utility.yul\":1300:1340   */\n  tag_28\n  jump\t// in\ntag_48:\n    /* \"#utility.yul\":1384:1386   */\n  0x20\n    /* \"#utility.yul\":1369:1387   */\n  dup8\n  add\n    /* \"#utility.yul\":1363:1388   */\n  mload\n    /* \"#utility.yul\":1290:1340   */\n  swap1\n  swap6\n  pop\n  sub(shl(0x40, 0x01), 0x01)\n    /* \"#utility.yul\":1437:1451   */\n  dup1\n  dup3\n  gt\n    /* \"#utility.yul\":1434:1468   */\n  iszero\n  tag_49\n  jumpi\n    /* \"#utility.yul\":1464:1465   */\n  0x00\n    /* \"#utility.yul\":1461:1462   */\n  dup1\n    /* \"#utility.yul\":1454:1466   */\n  revert\n    /* \"#utility.yul\":1434:1468   */\ntag_49:\n    /* \"#utility.yul\":1487:1548   */\n  tag_50\n    /* \"#utility.yul\":1540:1547   */\n  dup10\n    /* \"#utility.yul\":1531:1537   */\n  dup4\n    /* \"#utility.yul\":1520:1529   */\n  dup11\n    /* \"#utility.yul\":1516:1538   */\n  add\n    /* \"#utility.yul\":1487:1548   */\n  tag_30\n  jump\t// in\ntag_50:\n    /* \"#utility.yul\":1477:1548   */\n  swap6\n  pop\n    /* \"#utility.yul\":1594:1596   */\n  0x40\n    /* \"#utility.yul\":1583:1592   */\n  dup9\n    /* \"#utility.yul\":1579:1597   */\n  add\n    /* \"#utility.yul\":1573:1598   */\n  mload\n    /* \"#utility.yul\":1557:1598   */\n  swap2\n  pop\n    /* \"#utility.yul\":1623:1625   */\n  dup1\n    /* \"#utility.yul\":1613:1621   */\n  dup3\n    /* \"#utility.yul\":1610:1626   */\n  gt\n    /* \"#utility.yul\":1607:1643   */\n  iszero\n  tag_51\n  jumpi\n    /* \"#utility.yul\":1639:1640   */\n  0x00\n    /* \"#utility.yul\":1636:1637   */\n  dup1\n    /* \"#utility.yul\":1629:1641   */\n  revert\n    /* \"#utility.yul\":1607:1643   */\ntag_51:\n  pop\n    /* \"#utility.yul\":1662:1725   */\n  tag_52\n    /* \"#utility.yul\":1717:1724   */\n  dup9\n    /* \"#utility.yul\":1706:1714   */\n  dup3\n    /* \"#utility.yul\":1695:1704   */\n  dup10\n    /* \"#utility.yul\":1691:1715   */\n  add\n    /* \"#utility.yul\":1662:1725   */\n  tag_30\n  jump\t// in\ntag_52:\n    /* \"#utility.yul\":1652:1725   */\n  swap4\n  pop\n  pop\n    /* \"#utility.yul\":1744:1793   */\n  tag_53\n    /* \"#utility.yul\":1789:1791   */\n  0x60\n    /* \"#utility.yul\":1778:1787   */\n  dup8\n    /* \"#utility.yul\":1774:1792   */\n  add\n    /* \"#utility.yul\":1744:1793   */\n  tag_28\n  jump\t// in\ntag_53:\n    /* \"#utility.yul\":1836:1839   */\n  0x80\n    /* \"#utility.yul\":1821:1840   */\n  dup8\n  add\n    /* \"#utility.yul\":1815:1841   */\n  mload\n    /* \"#utility.yul\":1734:1793   */\n  swap1\n  swap3\n  pop\n  sub(shl(0x80, 0x01), 0x01)\n    /* \"#utility.yul\":1870:1901   */\n  dup2\n  and\n    /* \"#utility.yul\":1860:1902   */\n  dup2\n  eq\n    /* \"#utility.yul\":1850:1920   */\n  tag_54\n  jumpi\n    /* \"#utility.yul\":1916:1917   */\n  0x00\n    /* \"#utility.yul\":1913:1914   */\n  dup1\n    /* \"#utility.yul\":1906:1918   */\n  revert\n    /* \"#utility.yul\":1850:1920   */\ntag_54:\n    /* \"#utility.yul\":1939:1944   */\n  dup1\n    /* \"#utility.yul\":1929:1944   */\n  swap2\n  pop\n  pop\n    /* \"#utility.yul\":1049:1950   */\n  swap3\n  swap6\n  pop\n  swap3\n  swap6\n  swap1\n  swap4\n  pop\n  jump\t// out\n    /* \"#utility.yul\":1955:2335   */\ntag_31:\n    /* \"#utility.yul\":2034:2035   */\n  0x01\n    /* \"#utility.yul\":2030:2042   */\n  dup2\n  dup2\n  shr\n  swap1\n    /* \"#utility.yul\":2077:2089   */\n  dup3\n  and\n  dup1\n    /* \"#utility.yul\":2098:2159   */\n  tag_56\n  jumpi\n    /* \"#utility.yul\":2152:2156   */\n  0x7f\n    /* \"#utility.yul\":2144:2150   */\n  dup3\n    /* \"#utility.yul\":2140:2157   */\n  and\n    /* \"#utility.yul\":2130:2157   */\n  swap2\n  pop\n    /* \"#utility.yul\":2098:2159   */\ntag_56:\n    /* \"#utility.yul\":2205:2207   */\n  0x20\n    /* \"#utility.yul\":2197:2203   */\n  dup3\n    /* \"#utility.yul\":2194:2208   */\n  lt\n    /* \"#utility.yul\":2174:2192   */\n  dup2\n    /* \"#utility.yul\":2171:2209   */\n  sub\n    /* \"#utility.yul\":2168:2329   */\n  tag_57\n  jumpi\n    /* \"#utility.yul\":2251:2261   */\n  0x4e487b71\n    /* \"#utility.yul\":2246:2249   */\n  0xe0\n    /* \"#utility.yul\":2242:2262   */\n  shl\n    /* \"#utility.yul\":2239:2240   */\n  0x00\n    /* \"#utility.yul\":2232:2263   */\n  mstore\n    /* \"#utility.yul\":2286:2290   */\n  0x22\n    /* \"#utility.yul\":2283:2284   */\n  0x04\n    /* \"#utility.yul\":2276:2291   */\n  mstore\n    /* \"#utility.yul\":2314:2318   */\n  0x24\n    /* \"#utility.yul\":2311:2312   */\n  0x00\n    /* \"#utility.yul\":2304:2319   */\n  revert\n    /* \"#utility.yul\":2168:2329   */\ntag_57:\n  pop\n    /* \"#utility.yul\":1955:2335   */\n  swap2\n  swap1\n  pop\n  jump\t// out\n    /* \"#utility.yul\":2466:2984   */\ntag_33:\n    /* \"#utility.yul\":2568:2570   */\n  0x1f\n    /* \"#utility.yul\":2563:2566   */\n  dup3\n    /* \"#utility.yul\":2560:2571   */\n  gt\n    /* \"#utility.yul\":2557:2978   */\n  iszero\n  tag_60\n  jumpi\n    /* \"#utility.yul\":2604:2609   */\n  dup1\n    /* \"#utility.yul\":2601:2602   */\n  0x00\n    /* \"#utility.yul\":2594:2610   */\n  mstore\n    /* \"#utility.yul\":2648:2652   */\n  0x20\n    /* \"#utility.yul\":2645:2646   */\n  0x00\n    /* \"#utility.yul\":2635:2653   */\n  keccak256\n    /* \"#utility.yul\":2718:2720   */\n  0x1f\n    /* \"#utility.yul\":2706:2716   */\n  dup5\n    /* \"#utility.yul\":2702:2721   */\n  add\n    /* \"#utility.yul\":2699:2700   */\n  0x05\n    /* \"#utility.yul\":2695:2722   */\n  shr\n    /* \"#utility.yul\":2689:2693   */\n  dup2\n    /* \"#utility.yul\":2685:2723   */\n  add\n    /* \"#utility.yul\":2754:2758   */\n  0x20\n    /* \"#utility.yul\":2742:2752   */\n  dup6\n    /* \"#utility.yul\":2739:2759   */\n  lt\n    /* \"#utility.yul\":2736:2783   */\n  iszero\n  tag_61\n  jumpi\n  pop\n    /* \"#utility.yul\":2777:2781   */\n  dup1\n    /* \"#utility.yul\":2736:2783   */\ntag_61:\n    /* \"#utility.yul\":2832:2834   */\n  0x1f\n    /* \"#utility.yul\":2827:2830   */\n  dup5\n    /* \"#utility.yul\":2823:2835   */\n  add\n    /* \"#utility.yul\":2820:2821   */\n  0x05\n    /* \"#utility.yul\":2816:2836   */\n  shr\n    /* \"#utility.yul\":2810:2814   */\n  dup3\n    /* \"#utility.yul\":2806:2837   */\n  add\n    /* \"#utility.yul\":2796:2837   */\n  swap2\n  pop\n    /* \"#utility.yul\":2887:2968   */\ntag_62:\n    /* \"#utility.yul\":2905:2907   */\n  dup2\n    /* \"#utility.yul\":2898:2903   */\n  dup2\n    /* \"#utility.yul\":2895:2908   */\n  lt\n    /* \"#utility.yul\":2887:2968   */\n  iszero\n  tag_64\n  jumpi\n    /* \"#utility.yul\":2964:2965   */\n  0x00\n    /* \"#utility.yul\":2950:2966   */\n  dup2\n  sstore\n    /* \"#utility.yul\":2931:2932   */\n  0x01\n    /* \"#utility.yul\":2920:2933   */\n  add\n    /* \"#utility.yul\":2887:2968   */\n  jump(tag_62)\ntag_64:\n    /* \"#utility.yul\":2891:2894   */\n  pop\n  pop\n    /* \"#utility.yul\":2557:2978   */\ntag_60:\n    /* \"#utility.yul\":2466:2984   */\n  pop\n  pop\n  pop\n  jump\t// out\n    /* \"#utility.yul\":3160:4505   */\ntag_9:\n    /* \"#utility.yul\":3280:3290   */\n  dup2\n  mload\n  sub(shl(0x40, 0x01), 0x01)\n    /* \"#utility.yul\":3302:3332   */\n  dup2\n  gt\n    /* \"#utility.yul\":3299:3355   */\n  iszero\n  tag_68\n  jumpi\n    /* \"#utility.yul\":3335:3353   */\n  tag_68\n  tag_29\n  jump\t// in\ntag_68:\n    /* \"#utility.yul\":3364:3461   */\n  tag_69\n    /* \"#utility.yul\":3454:3460   */\n  dup2\n    /* \"#utility.yul\":3414:3452   */\n  tag_70\n    /* \"#utility.yul\":3446:3450   */\n  dup5\n    /* \"#utility.yul\":3440:3451   */\n  sload\n    /* \"#utility.yul\":3414:3452   */\n  tag_31\n  jump\t// in\ntag_70:\n    /* \"#utility.yul\":3408:3412   */\n  dup5\n    /* \"#utility.yul\":3364:3461   */\n  tag_33\n  jump\t// in\ntag_69:\n    /* \"#utility.yul\":3516:3520   */\n  0x20\n  dup1\n    /* \"#utility.yul\":3573:3575   */\n  0x1f\n    /* \"#utility.yul\":3562:3576   */\n  dup4\n  gt\n    /* \"#utility.yul\":3590:3591   */\n  0x01\n    /* \"#utility.yul\":3585:4248   */\n  dup2\n  eq\n  tag_72\n  jumpi\n    /* \"#utility.yul\":4292:4293   */\n  0x00\n    /* \"#utility.yul\":4309:4315   */\n  dup5\n    /* \"#utility.yul\":4306:4395   */\n  iszero\n  tag_73\n  jumpi\n  pop\n    /* \"#utility.yul\":4361:4380   */\n  dup6\n  dup4\n  add\n    /* \"#utility.yul\":4355:4381   */\n  mload\n    /* \"#utility.yul\":4306:4395   */\ntag_73:\n  not(0x00)\n    /* \"#utility.yul\":3117:3118   */\n  0x03\n    /* \"#utility.yul\":3113:3124   */\n  dup7\n  swap1\n  shl\n    /* \"#utility.yul\":3109:3133   */\n  shr\n    /* \"#utility.yul\":3105:3134   */\n  not\n    /* \"#utility.yul\":3095:3135   */\n  and\n    /* \"#utility.yul\":3141:3142   */\n  0x01\n    /* \"#utility.yul\":3137:3148   */\n  dup6\n  swap1\n  shl\n    /* \"#utility.yul\":3092:3149   */\n  or\n    /* \"#utility.yul\":4408:4489   */\n  dup6\n  sstore\n    /* \"#utility.yul\":3555:4499   */\n  jump(tag_71)\n    /* \"#utility.yul\":3585:4248   */\ntag_72:\n    /* \"#utility.yul\":2413:2414   */\n  0x00\n    /* \"#utility.yul\":2406:2420   */\n  dup6\n  dup2\n  mstore\n    /* \"#utility.yul\":2450:2454   */\n  0x20\n    /* \"#utility.yul\":2437:2455   */\n  dup2\n  keccak256\n  not(0x1f)\n    /* \"#utility.yul\":3621:3641   */\n  dup7\n  and\n  swap2\n    /* \"#utility.yul\":3739:3975   */\ntag_76:\n    /* \"#utility.yul\":3753:3760   */\n  dup3\n    /* \"#utility.yul\":3750:3751   */\n  dup2\n    /* \"#utility.yul\":3747:3761   */\n  lt\n    /* \"#utility.yul\":3739:3975   */\n  iszero\n  tag_78\n  jumpi\n    /* \"#utility.yul\":3842:3861   */\n  dup9\n  dup7\n  add\n    /* \"#utility.yul\":3836:3862   */\n  mload\n    /* \"#utility.yul\":3821:3863   */\n  dup3\n  sstore\n    /* \"#utility.yul\":3934:3961   */\n  swap5\n  dup5\n  add\n  swap5\n    /* \"#utility.yul\":3902:3903   */\n  0x01\n    /* \"#utility.yul\":3890:3904   */\n  swap1\n  swap2\n  add\n  swap1\n    /* \"#utility.yul\":3769:3788   */\n  dup5\n  add\n    /* \"#utility.yul\":3739:3975   */\n  jump(tag_76)\ntag_78:\n    /* \"#utility.yul\":3743:3746   */\n  pop\n    /* \"#utility.yul\":4003:4009   */\n  dup6\n    /* \"#utility.yul\":3994:4001   */\n  dup3\n    /* \"#utility.yul\":3991:4010   */\n  lt\n    /* \"#utility.yul\":3988:4189   */\n  iszero\n  tag_79\n  jumpi\n    /* \"#utility.yul\":4064:4083   */\n  dup8\n  dup6\n  add\n    /* \"#utility.yul\":4058:4084   */\n  mload\n  not(0x00)\n    /* \"#utility.yul\":4147:4148   */\n  0x03\n    /* \"#utility.yul\":4143:4157   */\n  dup9\n  swap1\n  shl\n    /* \"#utility.yul\":4159:4162   */\n  0xf8\n    /* \"#utility.yul\":4139:4163   */\n  and\n    /* \"#utility.yul\":4135:4172   */\n  shr\n    /* \"#utility.yul\":4131:4173   */\n  not\n    /* \"#utility.yul\":4116:4174   */\n  and\n    /* \"#utility.yul\":4101:4175   */\n  dup2\n  sstore\n    /* \"#utility.yul\":3988:4189   */\ntag_79:\n  pop\n  pop\n    /* \"#utility.yul\":4235:4236   */\n  0x01\n    /* \"#utility.yul\":4226:4232   */\n  dup5\n    /* \"#utility.yul\":4223:4224   */\n  0x01\n    /* \"#utility.yul\":4219:4233   */\n  shl\n    /* \"#utility.yul\":4215:4237   */\n  add\n    /* \"#utility.yul\":4209:4213   */\n  dup6\n    /* \"#utility.yul\":4202:4238   */\n  sstore\n    /* \"#utility.yul\":3555:4499   */\ntag_71:\n  pop\n  pop\n  pop\n  pop\n    /* \"#utility.yul\":3160:4505   */\n  pop\n  pop\n  jump\t// out\n    /* \"#utility.yul\":4775:4952   */\ntag_35:\n    /* \"SertifikatDigital.sol\":118:2035  contract SertifikatDigital is ERC721Base {... */\n  dataSize(sub_0)\n  dup1\n  dataOffset(sub_0)\n  0x00\n  codecopy\n  0x00\n  return\nstop\n\nsub_0: assembly {\n        /* \"SertifikatDigital.sol\":118:2035  contract SertifikatDigital is ERC721Base {... */\n      mstore(0x40, 0x80)\n      callvalue\n      dup1\n      iszero\n      tag_1\n      jumpi\n      0x00\n      dup1\n      revert\n    tag_1:\n      pop\n      jumpi(tag_2, lt(calldatasize, 0x04))\n      shr(0xe0, calldataload(0x00))\n      dup1\n      0x63b45e2d\n      gt\n      tag_43\n      jumpi\n      dup1\n      0xa22cb465\n      gt\n      tag_44\n      jumpi\n      dup1\n      0xc23dc68f\n      gt\n      tag_45\n      jumpi\n      dup1\n      0xdf30e54b\n      gt\n      tag_46\n      jumpi\n      dup1\n      0xdf30e54b\n      eq\n      tag_40\n      jumpi\n      dup1\n      0xe8a3d485\n      eq\n      tag_41\n      jumpi\n      dup1\n      0xe985e9c5\n      eq\n      tag_42\n      jumpi\n      0x00\n      dup1\n      revert\n    tag_46:\n      dup1\n      0xc23dc68f\n      eq\n      tag_38\n      jumpi\n      dup1\n      0xc87b56dd\n      eq\n      tag_39\n      jumpi\n      0x00\n      dup1\n      revert\n    tag_45:\n      dup1\n      0xb24f2d39\n      gt\n      tag_47\n      jumpi\n      dup1\n      0xb24f2d39\n      eq\n      tag_35\n      jumpi\n      dup1\n      0xb88d4fde\n      eq\n      tag_36\n      jumpi\n      dup1\n      0xbadb97ff\n      eq\n      tag_37\n      jumpi\n      0x00\n      dup1\n      revert\n    tag_47:\n      dup1\n      0xa22cb465\n      eq\n      tag_33\n      jumpi\n      dup1\n      0xac9650d8\n      eq\n      tag_34\n      jumpi\n      0x00\n      dup1\n      revert\n    tag_44:\n      dup1\n      0x8da5cb5b\n      gt\n      tag_48\n      jumpi\n      dup1\n      0x95d89b41\n      gt\n      tag_49\n      jumpi\n      dup1\n      0x95d89b41\n      eq\n      tag_30\n      jumpi\n      dup1\n      0x99a2557a\n      eq\n      tag_31\n      jumpi\n      dup1\n      0x9bcf7a15\n      eq\n      tag_32\n      jumpi\n      0x00\n      dup1\n      revert\n    tag_49:\n      dup1\n      0x8da5cb5b\n      eq\n      tag_28\n      jumpi\n      dup1\n      0x938e3d7b\n      eq\n      tag_29\n      jumpi\n      0x00\n      dup1\n      revert\n    tag_48:\n      dup1\n      0x754a81d9\n      gt\n      tag_50\n      jumpi\n      dup1\n      0x754a81d9\n      eq\n      tag_25\n      jumpi\n      dup1\n      0x83040532\n      eq\n      tag_26\n      jumpi\n      dup1\n      0x8462151c\n      eq\n      tag_27\n      jumpi\n      0x00\n      dup1\n      revert\n    tag_50:\n      dup1\n      0x63b45e2d\n      eq\n      tag_23\n      jumpi\n      dup1\n      0x70a08231\n      eq\n      tag_24\n      jumpi\n      0x00\n      dup1\n      revert\n    tag_43:\n      dup1\n      0x2419f51b\n      gt\n      tag_51\n      jumpi\n      dup1\n      0x430c2081\n      gt\n      tag_52\n      jumpi\n      dup1\n      0x5bbb2177\n      gt\n      tag_53\n      jumpi\n      dup1\n      0x5bbb2177\n      eq\n      tag_20\n      jumpi\n      dup1\n      0x600dd5ea\n      eq\n      tag_21\n      jumpi\n      dup1\n      0x6352211e\n      eq\n      tag_22\n      jumpi\n      0x00\n      dup1\n      revert\n    tag_53:\n      dup1\n      0x430c2081\n      eq\n      tag_18\n      jumpi\n      dup1\n      0x4cc157df\n      eq\n      tag_19\n      jumpi\n      0x00\n      dup1\n      revert\n    tag_52:\n      dup1\n      0x3b1475a7\n      gt\n      tag_54\n      jumpi\n      dup1\n      0x3b1475a7\n      eq\n      tag_15\n      jumpi\n      dup1\n      0x42842e0e\n      eq\n      tag_16\n      jumpi\n      dup1\n      0x42966c68\n      eq\n      tag_17\n      jumpi\n      0x00\n      dup1\n      revert\n    tag_54:\n      dup1\n      0x2419f51b\n      eq\n      tag_13\n      jumpi\n      dup1\n      0x2a55205a\n      eq\n      tag_14\n      jumpi\n      0x00\n      dup1\n      revert\n    tag_51:\n      dup1\n      0x095ea7b3\n      gt\n      tag_55\n      jumpi\n      dup1\n      0x13af4035\n      gt\n      tag_56\n      jumpi\n      dup1\n      0x13af4035\n      eq\n      tag_10\n      jumpi\n      dup1\n      0x18160ddd\n      eq\n      tag_11\n      jumpi\n      dup1\n      0x23b872dd\n      eq\n      tag_12\n      jumpi\n      0x00\n      dup1\n      revert\n    tag_56:\n      dup1\n      0x095ea7b3\n      eq\n      tag_8\n      jumpi\n      dup1\n      0x0fad0f51\n      eq\n      tag_9\n      jumpi\n      0x00\n      dup1\n      revert\n    tag_55:\n      dup1\n      0x06fdde03\n      gt\n      tag_57\n      jumpi\n      dup1\n      0x06fdde03\n      eq\n      tag_5\n      jumpi\n      dup1\n      0x0712249f\n      eq\n      tag_6\n      jumpi\n      dup1\n      0x081812fc\n      eq\n      tag_7\n      jumpi\n      0x00\n      dup1\n      revert\n    tag_57:\n      dup1\n      0x75a317\n      eq\n      tag_3\n      jumpi\n      dup1\n      0x01ffc9a7\n      eq\n      tag_4\n      jumpi\n    tag_2:\n      0x00\n      dup1\n      revert\n        /* \"@thirdweb-dev/contracts/base/ERC721Base.sol\":4454:4671   */\n    tag_3:\n      tag_58\n      tag_59\n      calldatasize\n      0x04\n      tag_60\n      jump\t// in\n    tag_59:\n      tag_61\n      jump\t// in\n    tag_58:\n      stop\n        /* \"@thirdweb-dev/contracts/base/ERC721Base.sol\":2655:3099   */\n    tag_4:\n      tag_62\n      tag_63\n      calldatasize\n      0x04\n      tag_64\n      jump\t// in\n    tag_63:\n      tag_65\n      jump\t// in\n    tag_62:\n      mload(0x40)\n        /* \"#utility.yul\":2115:2129   */\n      swap1\n      iszero\n        /* \"#utility.yul\":2108:2130   */\n      iszero\n        /* \"#utility.yul\":2090:2131   */\n      dup2\n      mstore\n        /* \"#utility.yul\":2078:2080   */\n      0x20\n        /* \"#utility.yul\":2063:2081   */\n      add\n        /* \"@thirdweb-dev/contracts/base/ERC721Base.sol\":2655:3099   */\n    tag_66:\n      mload(0x40)\n      dup1\n      swap2\n      sub\n      swap1\n      return\n        /* \"@thirdweb-dev/contracts/eip/ERC721AVirtualApprove.sol\":6129:6227   */\n    tag_5:\n      tag_68\n      tag_69\n      jump\t// in\n    tag_68:\n      mload(0x40)\n      tag_66\n      swap2\n      swap1\n      tag_71\n      jump\t// in\n        /* \"SertifikatDigital.sol\":480:850  function mintCertificate(address recipient, string memory tokenUri) external {... */\n    tag_6:\n      tag_58\n      tag_73\n      calldatasize\n      0x04\n      tag_60\n      jump\t// in\n    tag_73:\n      tag_74\n      jump\t// in\n        /* \"@thirdweb-dev/contracts/eip/ERC721AVirtualApprove.sol\":7615:7815   */\n    tag_7:\n      tag_75\n      tag_76\n      calldatasize\n      0x04\n      tag_77\n      jump\t// in\n    tag_76:\n      tag_78\n      jump\t// in\n    tag_75:\n      mload(0x40)\n      sub(shl(0xa0, 0x01), 0x01)\n        /* \"#utility.yul\":3032:3087   */\n      swap1\n      swap2\n      and\n        /* \"#utility.yul\":3014:3088   */\n      dup2\n      mstore\n        /* \"#utility.yul\":3002:3004   */\n      0x20\n        /* \"#utility.yul\":2987:3005   */\n      add\n        /* \"@thirdweb-dev/contracts/eip/ERC721AVirtualApprove.sol\":7615:7815   */\n      tag_66\n        /* \"#utility.yul\":2868:3094   */\n      jump\n        /* \"SertifikatDigital.sol\":1560:1721  function approve(address, uint256) public virtual override(ERC721A, IERC721) {... */\n    tag_8:\n      tag_58\n      tag_82\n      calldatasize\n      0x04\n      tag_83\n      jump\t// in\n    tag_82:\n      tag_84\n      jump\t// in\n        /* \"SertifikatDigital.sol\":166:194  bool public soulbound = true */\n    tag_9:\n      sload(0x10)\n      tag_62\n      swap1\n      0xff\n      and\n      dup2\n      jump\n        /* \"@thirdweb-dev/contracts/extension/Ownable.sol\":1235:1412   */\n    tag_10:\n      tag_58\n      tag_89\n      calldatasize\n      0x04\n      tag_90\n      jump\t// in\n    tag_89:\n      tag_91\n      jump\t// in\n        /* \"@thirdweb-dev/contracts/eip/ERC721AVirtualApprove.sol\":2282:2588   */\n    tag_11:\n        /* \"@thirdweb-dev/contracts/eip/ERC721AVirtualApprove.sol\":2541:2553   */\n      sload(0x01)\n        /* \"@thirdweb-dev/contracts/eip/ERC721AVirtualApprove.sol\":2335:2342   */\n      0x00\n        /* \"@thirdweb-dev/contracts/eip/ERC721AVirtualApprove.sol\":2525:2538   */\n      sload\n        /* \"@thirdweb-dev/contracts/eip/ERC721AVirtualApprove.sol\":2525:2553   */\n      sub\n        /* \"@thirdweb-dev/contracts/eip/ERC721AVirtualApprove.sol\":2282:2588   */\n    tag_92:\n      mload(0x40)\n        /* \"#utility.yul\":3695:3720   */\n      swap1\n      dup2\n      mstore\n        /* \"#utility.yul\":3683:3685   */\n      0x20\n        /* \"#utility.yul\":3668:3686   */\n      add\n        /* \"@thirdweb-dev/contracts/eip/ERC721AVirtualApprove.sol\":2282:2588   */\n      tag_66\n        /* \"#utility.yul\":3549:3726   */\n      jump\n        /* \"@thirdweb-dev/contracts/eip/ERC721AVirtualApprove.sol\":8454:8588   */\n    tag_12:\n      tag_58\n      tag_97\n      calldatasize\n      0x04\n      tag_98\n      jump\t// in\n    tag_97:\n      tag_99\n      jump\t// in\n        /* \"@thirdweb-dev/contracts/extension/BatchMintMetadata.sol\":2279:2497   */\n    tag_13:\n      tag_92\n      tag_101\n      calldatasize\n      0x04\n      tag_77\n      jump\t// in\n    tag_101:\n      tag_102\n      jump\t// in\n        /* \"@thirdweb-dev/contracts/extension/Royalty.sol\":1726:2051   */\n    tag_14:\n      tag_104\n      tag_105\n      calldatasize\n      0x04\n      tag_106\n      jump\t// in\n    tag_105:\n      tag_107\n      jump\t// in\n    tag_104:\n      0x40\n      dup1\n      mload\n      sub(shl(0xa0, 0x01), 0x01)\n        /* \"#utility.yul\":4509:4564   */\n      swap1\n      swap4\n      and\n        /* \"#utility.yul\":4491:4565   */\n      dup4\n      mstore\n        /* \"#utility.yul\":4596:4598   */\n      0x20\n        /* \"#utility.yul\":4581:4599   */\n      dup4\n      add\n        /* \"#utility.yul\":4574:4608   */\n      swap2\n      swap1\n      swap2\n      mstore\n        /* \"#utility.yul\":4464:4482   */\n      add\n        /* \"@thirdweb-dev/contracts/extension/Royalty.sol\":1726:2051   */\n      tag_66\n        /* \"#utility.yul\":4317:4614   */\n      jump\n        /* \"@thirdweb-dev/contracts/base/ERC721Base.sol\":6135:6239   */\n    tag_15:\n        /* \"@thirdweb-dev/contracts/base/ERC721Base.sol\":6193:6200   */\n      0x00\n        /* \"@thirdweb-dev/contracts/base/ERC721Base.sol\":6219:6232   */\n      sload\n        /* \"@thirdweb-dev/contracts/base/ERC721Base.sol\":6135:6239   */\n      jump(tag_92)\n        /* \"@thirdweb-dev/contracts/eip/ERC721AVirtualApprove.sol\":8654:8803   */\n    tag_16:\n      tag_58\n      tag_114\n      calldatasize\n      0x04\n      tag_98\n      jump\t// in\n    tag_114:\n      tag_115\n      jump\t// in\n        /* \"@thirdweb-dev/contracts/base/ERC721Base.sol\":5793:5880   */\n    tag_17:\n      tag_58\n      tag_117\n      calldatasize\n      0x04\n      tag_77\n      jump\t// in\n    tag_117:\n      tag_118\n      jump\t// in\n        /* \"@thirdweb-dev/contracts/base/ERC721Base.sol\":6571:6914   */\n    tag_18:\n      tag_62\n      tag_120\n      calldatasize\n      0x04\n      tag_83\n      jump\t// in\n    tag_120:\n      tag_121\n      jump\t// in\n        /* \"@thirdweb-dev/contracts/extension/Royalty.sol\":2291:2672   */\n    tag_19:\n      tag_123\n      tag_124\n      calldatasize\n      0x04\n      tag_77\n      jump\t// in\n    tag_124:\n      tag_125\n      jump\t// in\n    tag_123:\n      0x40\n      dup1\n      mload\n      sub(shl(0xa0, 0x01), 0x01)\n        /* \"#utility.yul\":4809:4864   */\n      swap1\n      swap4\n      and\n        /* \"#utility.yul\":4791:4865   */\n      dup4\n      mstore\n        /* \"#utility.yul\":4913:4919   */\n      0xffff\n        /* \"#utility.yul\":4901:4920   */\n      swap1\n      swap2\n      and\n        /* \"#utility.yul\":4896:4898   */\n      0x20\n        /* \"#utility.yul\":4881:4899   */\n      dup4\n      add\n        /* \"#utility.yul\":4874:4921   */\n      mstore\n        /* \"#utility.yul\":4764:4782   */\n      add\n        /* \"@thirdweb-dev/contracts/extension/Royalty.sol\":2291:2672   */\n      tag_66\n        /* \"#utility.yul\":4619:4927   */\n      jump\n        /* \"@thirdweb-dev/contracts/eip/queryable/ERC721AQueryable.sol\":1514:1973   */\n    tag_20:\n      tag_128\n      tag_129\n      calldatasize\n      0x04\n      tag_130\n      jump\t// in\n    tag_129:\n      tag_131\n      jump\t// in\n    tag_128:\n      mload(0x40)\n      tag_66\n      swap2\n      swap1\n      tag_133\n      jump\t// in\n        /* \"@thirdweb-dev/contracts/extension/Royalty.sol\":3370:3630   */\n    tag_21:\n      tag_58\n      tag_135\n      calldatasize\n      0x04\n      tag_83\n      jump\t// in\n    tag_135:\n      tag_136\n      jump\t// in\n        /* \"@thirdweb-dev/contracts/eip/ERC721AVirtualApprove.sol\":5944:6067   */\n    tag_22:\n      tag_75\n      tag_138\n      calldatasize\n      0x04\n      tag_77\n      jump\t// in\n    tag_138:\n      tag_139\n      jump\t// in\n        /* \"@thirdweb-dev/contracts/extension/BatchMintMetadata.sol\":1961:2057   */\n    tag_23:\n        /* \"@thirdweb-dev/contracts/extension/BatchMintMetadata.sol\":2035:2043   */\n      0x0c\n        /* \"@thirdweb-dev/contracts/extension/BatchMintMetadata.sol\":2035:2050   */\n      sload\n        /* \"@thirdweb-dev/contracts/extension/BatchMintMetadata.sol\":1961:2057   */\n      jump(tag_92)\n        /* \"@thirdweb-dev/contracts/eip/ERC721AVirtualApprove.sol\":3370:3573   */\n    tag_24:\n      tag_92\n      tag_145\n      calldatasize\n      0x04\n      tag_90\n      jump\t// in\n    tag_145:\n      tag_146\n      jump\t// in\n        /* \"@thirdweb-dev/contracts/base/ERC721Base.sol\":5232:5519   */\n    tag_25:\n      tag_58\n      tag_149\n      calldatasize\n      0x04\n      tag_150\n      jump\t// in\n    tag_149:\n      tag_151\n      jump\t// in\n        /* \"@thirdweb-dev/contracts/extension/BatchMintMetadata.sol\":1204:1247   */\n    tag_26:\n      tag_62\n      tag_153\n      calldatasize\n      0x04\n      tag_77\n      jump\t// in\n    tag_153:\n      mstore(0x20, 0x0e)\n      0x00\n      swap1\n      dup2\n      mstore\n      0x40\n      swap1\n      keccak256\n      sload\n      0xff\n      and\n      dup2\n      jump\n        /* \"@thirdweb-dev/contracts/eip/queryable/ERC721AQueryable.sol\":5285:6155   */\n    tag_27:\n      tag_156\n      tag_157\n      calldatasize\n      0x04\n      tag_90\n      jump\t// in\n    tag_157:\n      tag_158\n      jump\t// in\n    tag_156:\n      mload(0x40)\n      tag_66\n      swap2\n      swap1\n      tag_160\n      jump\t// in\n        /* \"@thirdweb-dev/contracts/extension/Ownable.sol\":973:1059   */\n    tag_28:\n        /* \"@thirdweb-dev/contracts/extension/Ownable.sol\":1046:1052   */\n      and(sub(shl(0xa0, 0x01), 0x01), sload(0x09))\n        /* \"@thirdweb-dev/contracts/extension/Ownable.sol\":973:1059   */\n      jump(tag_75)\n        /* \"@thirdweb-dev/contracts/extension/ContractMetadata.sol\":1110:1311   */\n    tag_29:\n      tag_58\n      tag_165\n      calldatasize\n      0x04\n      tag_166\n      jump\t// in\n    tag_165:\n      tag_167\n      jump\t// in\n        /* \"@thirdweb-dev/contracts/eip/ERC721AVirtualApprove.sol\":6291:6393   */\n    tag_30:\n      tag_68\n      tag_169\n      jump\t// in\n        /* \"@thirdweb-dev/contracts/eip/queryable/ERC721AQueryable.sol\":2374:4822   */\n    tag_31:\n      tag_156\n      tag_172\n      calldatasize\n      0x04\n      tag_173\n      jump\t// in\n    tag_172:\n      tag_174\n      jump\t// in\n        /* \"@thirdweb-dev/contracts/extension/Royalty.sol\":4595:4857   */\n    tag_32:\n      tag_58\n      tag_177\n      calldatasize\n      0x04\n      tag_178\n      jump\t// in\n    tag_177:\n      tag_179\n      jump\t// in\n        /* \"SertifikatDigital.sol\":1729:1887  function setApprovalForAll(address, bool) public virtual override(ERC721A, IERC721) {... */\n    tag_33:\n      tag_58\n      tag_181\n      calldatasize\n      0x04\n      tag_182\n      jump\t// in\n    tag_181:\n      tag_183\n      jump\t// in\n        /* \"@thirdweb-dev/contracts/extension/Multicall.sol\":696:1263   */\n    tag_34:\n      tag_184\n      tag_185\n      calldatasize\n      0x04\n      tag_186\n      jump\t// in\n    tag_185:\n      tag_187\n      jump\t// in\n    tag_184:\n      mload(0x40)\n      tag_66\n      swap2\n      swap1\n      tag_189\n      jump\t// in\n        /* \"@thirdweb-dev/contracts/extension/Royalty.sol\":2782:2926   */\n    tag_35:\n        /* \"@thirdweb-dev/contracts/extension/Royalty.sol\":2882:2898   */\n      sload(0x0a)\n      sub(shl(0xa0, 0x01), 0x01)\n      dup2\n      and\n      swap1\n      shl(0xa0, 0x01)\n        /* \"@thirdweb-dev/contracts/extension/Royalty.sol\":2907:2917   */\n      swap1\n      div\n      0xffff\n      and\n        /* \"@thirdweb-dev/contracts/extension/Royalty.sol\":2782:2926   */\n      jump(tag_123)\n        /* \"@thirdweb-dev/contracts/eip/ERC721AVirtualApprove.sol\":8869:9212   */\n    tag_36:\n      tag_58\n      tag_194\n      calldatasize\n      0x04\n      tag_195\n      jump\t// in\n    tag_194:\n      tag_196\n      jump\t// in\n        /* \"SertifikatDigital.sol\":858:1002  function adminBurn(uint256 tokenId) external {... */\n    tag_37:\n      tag_58\n      tag_198\n      calldatasize\n      0x04\n      tag_77\n      jump\t// in\n    tag_198:\n      tag_199\n      jump\t// in\n        /* \"@thirdweb-dev/contracts/eip/queryable/ERC721AQueryable.sol\":953:1361   */\n    tag_38:\n      tag_200\n      tag_201\n      calldatasize\n      0x04\n      tag_77\n      jump\t// in\n    tag_201:\n      tag_202\n      jump\t// in\n    tag_200:\n      mload(0x40)\n      tag_66\n      swap2\n      swap1\n      tag_204\n      jump\t// in\n        /* \"@thirdweb-dev/contracts/base/ERC721Base.sol\":3513:3918   */\n    tag_39:\n      tag_68\n      tag_206\n      calldatasize\n      0x04\n      tag_77\n      jump\t// in\n    tag_206:\n      tag_207\n      jump\t// in\n        /* \"SertifikatDigital.sol\":1408:1552  function setSoulbound(bool _enabled) external {... */\n    tag_40:\n      tag_58\n      tag_210\n      calldatasize\n      0x04\n      tag_211\n      jump\t// in\n    tag_210:\n      tag_212\n      jump\t// in\n        /* \"@thirdweb-dev/contracts/extension/ContractMetadata.sol\":672:706   */\n    tag_41:\n      tag_68\n      tag_214\n      jump\t// in\n        /* \"SertifikatDigital.sol\":1895:2032  function isApprovedForAll(address, address) public view virtual override(ERC721A, IERC721) returns (bool) {... */\n    tag_42:\n      tag_62\n      tag_217\n      calldatasize\n      0x04\n      tag_218\n      jump\t// in\n    tag_217:\n        /* \"SertifikatDigital.sol\":1995:1999  bool */\n      0x00\n        /* \"SertifikatDigital.sol\":1895:2032  function isApprovedForAll(address, address) public view virtual override(ERC721A, IERC721) returns (bool) {... */\n      swap3\n      swap2\n      pop\n      pop\n      jump\n        /* \"@thirdweb-dev/contracts/base/ERC721Base.sol\":4454:4671   */\n    tag_61:\n        /* \"@thirdweb-dev/contracts/base/ERC721Base.sol\":4541:4551   */\n      tag_222\n        /* \"@thirdweb-dev/contracts/base/ERC721Base.sol\":4541:4549   */\n      tag_223\n        /* \"@thirdweb-dev/contracts/base/ERC721Base.sol\":4541:4551   */\n      jump\t// in\n    tag_222:\n        /* \"@thirdweb-dev/contracts/base/ERC721Base.sol\":4533:4579   */\n      tag_224\n      jumpi\n      mload(0x40)\n      shl(0xe5, 0x461bcd)\n      dup2\n      mstore\n        /* \"#utility.yul\":12565:12567   */\n      0x20\n        /* \"@thirdweb-dev/contracts/base/ERC721Base.sol\":4533:4579   */\n      0x04\n      dup3\n      add\n        /* \"#utility.yul\":12547:12568   */\n      mstore\n        /* \"#utility.yul\":12604:12606   */\n      0x17\n        /* \"#utility.yul\":12584:12602   */\n      0x24\n      dup3\n      add\n        /* \"#utility.yul\":12577:12607   */\n      mstore\n        /* \"#utility.yul\":12643:12668   */\n      0x4e6f7420617574686f72697a656420746f206d696e742e000000000000000000\n        /* \"#utility.yul\":12623:12641   */\n      0x44\n      dup3\n      add\n        /* \"#utility.yul\":12616:12669   */\n      mstore\n        /* \"#utility.yul\":12686:12704   */\n      0x64\n      add\n        /* \"@thirdweb-dev/contracts/base/ERC721Base.sol\":4533:4579   */\n    tag_225:\n      mload(0x40)\n      dup1\n      swap2\n      sub\n      swap1\n      revert\n    tag_224:\n        /* \"@thirdweb-dev/contracts/base/ERC721Base.sol\":4589:4633   */\n      tag_227\n        /* \"@thirdweb-dev/contracts/base/ERC721Base.sol\":4602:4621   */\n      tag_228\n        /* \"@thirdweb-dev/contracts/base/ERC721Base.sol\":6193:6200   */\n      0x00\n        /* \"@thirdweb-dev/contracts/base/ERC721Base.sol\":6219:6232   */\n      sload\n      swap1\n        /* \"@thirdweb-dev/contracts/base/ERC721Base.sol\":6135:6239   */\n      jump\n        /* \"@thirdweb-dev/contracts/base/ERC721Base.sol\":4602:4621   */\n    tag_228:\n        /* \"@thirdweb-dev/contracts/base/ERC721Base.sol\":4623:4632   */\n      dup3\n        /* \"@thirdweb-dev/contracts/base/ERC721Base.sol\":4589:4601   */\n      tag_229\n        /* \"@thirdweb-dev/contracts/base/ERC721Base.sol\":4589:4633   */\n      jump\t// in\n    tag_227:\n        /* \"@thirdweb-dev/contracts/base/ERC721Base.sol\":4643:4664   */\n      tag_230\n        /* \"@thirdweb-dev/contracts/base/ERC721Base.sol\":4653:4656   */\n      dup3\n        /* \"@thirdweb-dev/contracts/base/ERC721Base.sol\":4658:4659   */\n      0x01\n        /* \"@thirdweb-dev/contracts/base/ERC721Base.sol\":4643:4664   */\n      mload(0x40)\n      dup1\n      0x20\n      add\n      0x40\n      mstore\n      dup1\n      0x00\n      dup2\n      mstore\n      pop\n        /* \"@thirdweb-dev/contracts/base/ERC721Base.sol\":4643:4652   */\n      tag_231\n        /* \"@thirdweb-dev/contracts/base/ERC721Base.sol\":4643:4664   */\n      jump\t// in\n    tag_230:\n        /* \"@thirdweb-dev/contracts/base/ERC721Base.sol\":4454:4671   */\n      pop\n      pop\n      jump\t// out\n        /* \"@thirdweb-dev/contracts/base/ERC721Base.sol\":2655:3099   */\n    tag_65:\n        /* \"@thirdweb-dev/contracts/base/ERC721Base.sol\":2758:2762   */\n      0x00\n      shl(0xe0, 0x01ffc9a7)\n      not(sub(shl(0xe0, 0x01), 0x01))\n        /* \"@thirdweb-dev/contracts/base/ERC721Base.sol\":2793:2818   */\n      dup4\n      and\n      eq\n      dup1\n        /* \"@thirdweb-dev/contracts/base/ERC721Base.sol\":2793:2893   */\n      tag_233\n      jumpi\n      pop\n      shl(0xe0, 0x80ac58cd)\n      not(sub(shl(0xe0, 0x01), 0x01))\n        /* \"@thirdweb-dev/contracts/base/ERC721Base.sol\":2868:2893   */\n      dup4\n      and\n      eq\n        /* \"@thirdweb-dev/contracts/base/ERC721Base.sol\":2793:2893   */\n    tag_233:\n        /* \"@thirdweb-dev/contracts/base/ERC721Base.sol\":2793:2968   */\n      dup1\n      tag_234\n      jumpi\n      pop\n      shl(0xe0, 0x5b5e139f)\n      not(sub(shl(0xe0, 0x01), 0x01))\n        /* \"@thirdweb-dev/contracts/base/ERC721Base.sol\":2943:2968   */\n      dup4\n      and\n      eq\n        /* \"@thirdweb-dev/contracts/base/ERC721Base.sol\":2793:2968   */\n    tag_234:\n        /* \"@thirdweb-dev/contracts/base/ERC721Base.sol\":2793:3067   */\n      dup1\n      tag_235\n      jumpi\n      pop\n      not(sub(shl(0xe0, 0x01), 0x01))\n        /* \"@thirdweb-dev/contracts/base/ERC721Base.sol\":3026:3067   */\n      dup3\n      and\n      shl(0xe1, 0x152a902d)\n      eq\n        /* \"@thirdweb-dev/contracts/base/ERC721Base.sol\":2793:3067   */\n    tag_235:\n        /* \"@thirdweb-dev/contracts/base/ERC721Base.sol\":2774:3067   */\n      swap3\n        /* \"@thirdweb-dev/contracts/base/ERC721Base.sol\":2655:3099   */\n      swap2\n      pop\n      pop\n      jump\t// out\n        /* \"@thirdweb-dev/contracts/eip/ERC721AVirtualApprove.sol\":6129:6227   */\n    tag_69:\n        /* \"@thirdweb-dev/contracts/eip/ERC721AVirtualApprove.sol\":6183:6196   */\n      0x60\n        /* \"@thirdweb-dev/contracts/eip/ERC721AVirtualApprove.sol\":6215:6220   */\n      0x02\n        /* \"@thirdweb-dev/contracts/eip/ERC721AVirtualApprove.sol\":6208:6220   */\n      dup1\n      sload\n      tag_237\n      swap1\n      tag_238\n      jump\t// in\n    tag_237:\n      dup1\n      0x1f\n      add\n      0x20\n      dup1\n      swap2\n      div\n      mul\n      0x20\n      add\n      mload(0x40)\n      swap1\n      dup2\n      add\n      0x40\n      mstore\n      dup1\n      swap3\n      swap2\n      swap1\n      dup2\n      dup2\n      mstore\n      0x20\n      add\n      dup3\n      dup1\n      sload\n      tag_239\n      swap1\n      tag_238\n      jump\t// in\n    tag_239:\n      dup1\n      iszero\n      tag_240\n      jumpi\n      dup1\n      0x1f\n      lt\n      tag_241\n      jumpi\n      0x0100\n      dup1\n      dup4\n      sload\n      div\n      mul\n      dup4\n      mstore\n      swap2\n      0x20\n      add\n      swap2\n      jump(tag_240)\n    tag_241:\n      dup3\n      add\n      swap2\n      swap1\n      0x00\n      mstore\n      keccak256(0x00, 0x20)\n      swap1\n    tag_242:\n      dup2\n      sload\n      dup2\n      mstore\n      swap1\n      0x01\n      add\n      swap1\n      0x20\n      add\n      dup1\n      dup4\n      gt\n      tag_242\n      jumpi\n      dup3\n      swap1\n      sub\n      0x1f\n      and\n      dup3\n      add\n      swap2\n    tag_240:\n      pop\n      pop\n      pop\n      pop\n      pop\n      swap1\n      pop\n        /* \"@thirdweb-dev/contracts/eip/ERC721AVirtualApprove.sol\":6129:6227   */\n      swap1\n      jump\t// out\n        /* \"SertifikatDigital.sol\":480:850  function mintCertificate(address recipient, string memory tokenUri) external {... */\n    tag_74:\n        /* \"@thirdweb-dev/contracts/extension/Ownable.sol\":1046:1052   */\n      and(sub(shl(0xa0, 0x01), 0x01), sload(0x09))\n        /* \"SertifikatDigital.sol\":576:586  msg.sender */\n      caller\n        /* \"SertifikatDigital.sol\":576:597  msg.sender == owner() */\n      eq\n        /* \"SertifikatDigital.sol\":568:616  require(msg.sender == owner(), \"Not authorized\") */\n      tag_245\n      jumpi\n      mload(0x40)\n      shl(0xe5, 0x461bcd)\n      dup2\n      mstore\n        /* \"#utility.yul\":13302:13304   */\n      0x20\n        /* \"SertifikatDigital.sol\":568:616  require(msg.sender == owner(), \"Not authorized\") */\n      0x04\n      dup3\n      add\n        /* \"#utility.yul\":13284:13305   */\n      mstore\n        /* \"#utility.yul\":13341:13343   */\n      0x0e\n        /* \"#utility.yul\":13321:13339   */\n      0x24\n      dup3\n      add\n        /* \"#utility.yul\":13314:13344   */\n      mstore\n      shl(0x92, 0x139bdd08185d5d1a1bdc9a5e9959)\n        /* \"#utility.yul\":13360:13378   */\n      0x44\n      dup3\n      add\n        /* \"#utility.yul\":13353:13397   */\n      mstore\n        /* \"#utility.yul\":13414:13432   */\n      0x64\n      add\n        /* \"SertifikatDigital.sol\":568:616  require(msg.sender == owner(), \"Not authorized\") */\n      tag_225\n        /* \"#utility.yul\":13100:13438   */\n      jump\n        /* \"SertifikatDigital.sol\":568:616  require(msg.sender == owner(), \"Not authorized\") */\n    tag_245:\n      sub(shl(0xa0, 0x01), 0x01)\n        /* \"SertifikatDigital.sol\":635:658  recipient != address(0) */\n      dup3\n      and\n        /* \"SertifikatDigital.sol\":627:680  require(recipient != address(0), \"Invalid recipient\") */\n      tag_248\n      jumpi\n      mload(0x40)\n      shl(0xe5, 0x461bcd)\n      dup2\n      mstore\n        /* \"#utility.yul\":13645:13647   */\n      0x20\n        /* \"SertifikatDigital.sol\":627:680  require(recipient != address(0), \"Invalid recipient\") */\n      0x04\n      dup3\n      add\n        /* \"#utility.yul\":13627:13648   */\n      mstore\n        /* \"#utility.yul\":13684:13686   */\n      0x11\n        /* \"#utility.yul\":13664:13682   */\n      0x24\n      dup3\n      add\n        /* \"#utility.yul\":13657:13687   */\n      mstore\n        /* \"#utility.yul\":13723:13742   */\n      0x496e76616c696420726563697069656e74000000000000000000000000000000\n        /* \"#utility.yul\":13703:13721   */\n      0x44\n      dup3\n      add\n        /* \"#utility.yul\":13696:13743   */\n      mstore\n        /* \"#utility.yul\":13760:13778   */\n      0x64\n      add\n        /* \"SertifikatDigital.sol\":627:680  require(recipient != address(0), \"Invalid recipient\") */\n      tag_225\n        /* \"#utility.yul\":13443:13784   */\n      jump\n        /* \"SertifikatDigital.sol\":627:680  require(recipient != address(0), \"Invalid recipient\") */\n    tag_248:\n        /* \"SertifikatDigital.sol\":724:725  0 */\n      0x00\n        /* \"SertifikatDigital.sol\":705:713  tokenUri */\n      dup2\n        /* \"SertifikatDigital.sol\":699:721  bytes(tokenUri).length */\n      mload\n        /* \"SertifikatDigital.sol\":699:725  bytes(tokenUri).length > 0 */\n      gt\n        /* \"SertifikatDigital.sol\":691:748  require(bytes(tokenUri).length > 0, \"Token URI required\") */\n      tag_224\n      jumpi\n      mload(0x40)\n      shl(0xe5, 0x461bcd)\n      dup2\n      mstore\n        /* \"#utility.yul\":13991:13993   */\n      0x20\n        /* \"SertifikatDigital.sol\":691:748  require(bytes(tokenUri).length > 0, \"Token URI required\") */\n      0x04\n      dup3\n      add\n        /* \"#utility.yul\":13973:13994   */\n      mstore\n        /* \"#utility.yul\":14030:14032   */\n      0x12\n        /* \"#utility.yul\":14010:14028   */\n      0x24\n      dup3\n      add\n        /* \"#utility.yul\":14003:14033   */\n      mstore\n        /* \"#utility.yul\":14069:14089   */\n      0x546f6b656e205552492072657175697265640000000000000000000000000000\n        /* \"#utility.yul\":14049:14067   */\n      0x44\n      dup3\n      add\n        /* \"#utility.yul\":14042:14090   */\n      mstore\n        /* \"#utility.yul\":14107:14125   */\n      0x64\n      add\n        /* \"SertifikatDigital.sol\":691:748  require(bytes(tokenUri).length > 0, \"Token URI required\") */\n      tag_225\n        /* \"#utility.yul\":13789:14131   */\n      jump\n        /* \"@thirdweb-dev/contracts/eip/ERC721AVirtualApprove.sol\":7615:7815   */\n    tag_78:\n        /* \"@thirdweb-dev/contracts/eip/ERC721AVirtualApprove.sol\":7683:7690   */\n      0x00\n        /* \"@thirdweb-dev/contracts/eip/ERC721AVirtualApprove.sol\":7707:7723   */\n      tag_258\n        /* \"@thirdweb-dev/contracts/eip/ERC721AVirtualApprove.sol\":7715:7722   */\n      dup3\n        /* \"@thirdweb-dev/contracts/eip/ERC721AVirtualApprove.sol\":7707:7714   */\n      tag_259\n        /* \"@thirdweb-dev/contracts/eip/ERC721AVirtualApprove.sol\":7707:7723   */\n      jump\t// in\n    tag_258:\n        /* \"@thirdweb-dev/contracts/eip/ERC721AVirtualApprove.sol\":7702:7766   */\n      tag_260\n      jumpi\n        /* \"@thirdweb-dev/contracts/eip/ERC721AVirtualApprove.sol\":7732:7766   */\n      mload(0x40)\n      shl(0xe2, 0x33d1c039)\n      dup2\n      mstore\n      0x04\n      add\n      mload(0x40)\n      dup1\n      swap2\n      sub\n      swap1\n      revert\n        /* \"@thirdweb-dev/contracts/eip/ERC721AVirtualApprove.sol\":7702:7766   */\n    tag_260:\n      pop\n        /* \"@thirdweb-dev/contracts/eip/ERC721AVirtualApprove.sol\":7784:7808   */\n      0x00\n      swap1\n      dup2\n      mstore\n        /* \"@thirdweb-dev/contracts/eip/ERC721AVirtualApprove.sol\":7784:7799   */\n      0x06\n        /* \"@thirdweb-dev/contracts/eip/ERC721AVirtualApprove.sol\":7784:7808   */\n      0x20\n      mstore\n      0x40\n      swap1\n      keccak256\n      sload\n      sub(shl(0xa0, 0x01), 0x01)\n      and\n      swap1\n        /* \"@thirdweb-dev/contracts/eip/ERC721AVirtualApprove.sol\":7615:7815   */\n      jump\t// out\n        /* \"SertifikatDigital.sol\":1560:1721  function approve(address, uint256) public virtual override(ERC721A, IERC721) {... */\n    tag_84:\n        /* \"SertifikatDigital.sol\":1648:1713  revert(\"Sertifikat Soulbound: Fungsi persetujuan dinonaktifkan!\") */\n      mload(0x40)\n      shl(0xe5, 0x461bcd)\n      dup2\n      mstore\n        /* \"#utility.yul\":14338:14340   */\n      0x20\n        /* \"SertifikatDigital.sol\":1648:1713  revert(\"Sertifikat Soulbound: Fungsi persetujuan dinonaktifkan!\") */\n      0x04\n      dup3\n      add\n        /* \"#utility.yul\":14320:14341   */\n      mstore\n        /* \"#utility.yul\":14377:14379   */\n      0x37\n        /* \"#utility.yul\":14357:14375   */\n      0x24\n      dup3\n      add\n        /* \"#utility.yul\":14350:14380   */\n      mstore\n        /* \"#utility.yul\":14416:14450   */\n      0x536572746966696b617420536f756c626f756e643a2046756e67736920706572\n        /* \"#utility.yul\":14396:14414   */\n      0x44\n      dup3\n      add\n        /* \"#utility.yul\":14389:14451   */\n      mstore\n        /* \"#utility.yul\":14487:14512   */\n      0x736574756a75616e2064696e6f6e616b7469666b616e21000000000000000000\n        /* \"#utility.yul\":14467:14485   */\n      0x64\n      dup3\n      add\n        /* \"#utility.yul\":14460:14513   */\n      mstore\n        /* \"#utility.yul\":14530:14549   */\n      0x84\n      add\n        /* \"SertifikatDigital.sol\":1648:1713  revert(\"Sertifikat Soulbound: Fungsi persetujuan dinonaktifkan!\") */\n      tag_225\n        /* \"#utility.yul\":14136:14555   */\n      jump\n        /* \"@thirdweb-dev/contracts/extension/Ownable.sol\":1235:1412   */\n    tag_91:\n        /* \"@thirdweb-dev/contracts/extension/Ownable.sol\":1305:1319   */\n      tag_265\n        /* \"@thirdweb-dev/contracts/extension/Ownable.sol\":1305:1317   */\n      tag_223\n        /* \"@thirdweb-dev/contracts/extension/Ownable.sol\":1305:1319   */\n      jump\t// in\n    tag_265:\n        /* \"@thirdweb-dev/contracts/extension/Ownable.sol\":1300:1374   */\n      tag_267\n      jumpi\n        /* \"@thirdweb-dev/contracts/extension/Ownable.sol\":1342:1363   */\n      mload(0x40)\n      shl(0xe1, 0x16ccb9cb)\n      dup2\n      mstore\n      0x04\n      add\n      mload(0x40)\n      dup1\n      swap2\n      sub\n      swap1\n      revert\n        /* \"@thirdweb-dev/contracts/extension/Ownable.sol\":1300:1374   */\n    tag_267:\n        /* \"@thirdweb-dev/contracts/extension/Ownable.sol\":1383:1405   */\n      tag_268\n        /* \"@thirdweb-dev/contracts/extension/Ownable.sol\":1395:1404   */\n      dup2\n        /* \"@thirdweb-dev/contracts/extension/Ownable.sol\":1383:1394   */\n      tag_269\n        /* \"@thirdweb-dev/contracts/extension/Ownable.sol\":1383:1405   */\n      jump\t// in\n    tag_268:\n        /* \"@thirdweb-dev/contracts/extension/Ownable.sol\":1235:1412   */\n      pop\n      jump\t// out\n        /* \"@thirdweb-dev/contracts/eip/ERC721AVirtualApprove.sol\":8454:8588   */\n    tag_99:\n        /* \"@thirdweb-dev/contracts/eip/ERC721AVirtualApprove.sol\":8553:8581   */\n      tag_274\n        /* \"@thirdweb-dev/contracts/eip/ERC721AVirtualApprove.sol\":8563:8567   */\n      dup4\n        /* \"@thirdweb-dev/contracts/eip/ERC721AVirtualApprove.sol\":8569:8571   */\n      dup4\n        /* \"@thirdweb-dev/contracts/eip/ERC721AVirtualApprove.sol\":8573:8580   */\n      dup4\n        /* \"@thirdweb-dev/contracts/eip/ERC721AVirtualApprove.sol\":8553:8562   */\n      tag_275\n        /* \"@thirdweb-dev/contracts/eip/ERC721AVirtualApprove.sol\":8553:8581   */\n      jump\t// in\n    tag_274:\n        /* \"@thirdweb-dev/contracts/eip/ERC721AVirtualApprove.sol\":8454:8588   */\n      pop\n      pop\n      pop\n      jump\t// out\n        /* \"@thirdweb-dev/contracts/extension/BatchMintMetadata.sol\":2279:2497   */\n    tag_102:\n        /* \"@thirdweb-dev/contracts/extension/BatchMintMetadata.sol\":2343:2350   */\n      0x00\n        /* \"@thirdweb-dev/contracts/extension/BatchMintMetadata.sol\":2376:2393   */\n      tag_277\n        /* \"@thirdweb-dev/contracts/extension/BatchMintMetadata.sol\":2035:2043   */\n      0x0c\n        /* \"@thirdweb-dev/contracts/extension/BatchMintMetadata.sol\":2035:2050   */\n      sload\n      swap1\n        /* \"@thirdweb-dev/contracts/extension/BatchMintMetadata.sol\":1961:2057   */\n      jump\n        /* \"@thirdweb-dev/contracts/extension/BatchMintMetadata.sol\":2376:2393   */\n    tag_277:\n        /* \"@thirdweb-dev/contracts/extension/BatchMintMetadata.sol\":2366:2372   */\n      dup3\n        /* \"@thirdweb-dev/contracts/extension/BatchMintMetadata.sol\":2366:2393   */\n      lt\n        /* \"@thirdweb-dev/contracts/extension/BatchMintMetadata.sol\":2362:2458   */\n      tag_278\n      jumpi\n        /* \"@thirdweb-dev/contracts/extension/BatchMintMetadata.sol\":2416:2447   */\n      mload(0x40)\n      shl(0xe1, 0x07931277)\n      dup2\n      mstore\n      0x04\n      dup2\n      add\n        /* \"#utility.yul\":3695:3720   */\n      dup4\n      swap1\n      mstore\n        /* \"#utility.yul\":3668:3686   */\n      0x24\n      add\n        /* \"@thirdweb-dev/contracts/extension/BatchMintMetadata.sol\":2416:2447   */\n      tag_225\n        /* \"#utility.yul\":3549:3726   */\n      jump\n        /* \"@thirdweb-dev/contracts/extension/BatchMintMetadata.sol\":2362:2458   */\n    tag_278:\n        /* \"@thirdweb-dev/contracts/extension/BatchMintMetadata.sol\":2474:2482   */\n      0x0c\n        /* \"@thirdweb-dev/contracts/extension/BatchMintMetadata.sol\":2483:2489   */\n      dup3\n        /* \"@thirdweb-dev/contracts/extension/BatchMintMetadata.sol\":2474:2490   */\n      dup2\n      sload\n      dup2\n      lt\n      tag_281\n      jumpi\n      tag_281\n      tag_282\n      jump\t// in\n    tag_281:\n      swap1\n      0x00\n      mstore\n      keccak256(0x00, 0x20)\n      add\n      sload\n        /* \"@thirdweb-dev/contracts/extension/BatchMintMetadata.sol\":2467:2490   */\n      swap1\n      pop\n        /* \"@thirdweb-dev/contracts/extension/BatchMintMetadata.sol\":2279:2497   */\n      swap2\n      swap1\n      pop\n      jump\t// out\n        /* \"@thirdweb-dev/contracts/extension/Royalty.sol\":1726:2051   */\n    tag_107:\n        /* \"@thirdweb-dev/contracts/extension/Royalty.sol\":1845:1861   */\n      0x00\n        /* \"@thirdweb-dev/contracts/extension/Royalty.sol\":1863:1884   */\n      dup1\n        /* \"@thirdweb-dev/contracts/extension/Royalty.sol\":1897:1914   */\n      0x00\n        /* \"@thirdweb-dev/contracts/extension/Royalty.sol\":1916:1927   */\n      dup1\n        /* \"@thirdweb-dev/contracts/extension/Royalty.sol\":1931:1962   */\n      tag_285\n        /* \"@thirdweb-dev/contracts/extension/Royalty.sol\":1954:1961   */\n      dup7\n        /* \"@thirdweb-dev/contracts/extension/Royalty.sol\":1931:1953   */\n      tag_125\n        /* \"@thirdweb-dev/contracts/extension/Royalty.sol\":1931:1962   */\n      jump\t// in\n    tag_285:\n        /* \"@thirdweb-dev/contracts/extension/Royalty.sol\":1896:1962   */\n      swap1\n      swap5\n      pop\n      dup5\n      swap3\n      pop\n      0xffff\n      and\n      swap1\n      pop\n        /* \"@thirdweb-dev/contracts/extension/Royalty.sol\":2038:2044   */\n      0x2710\n        /* \"@thirdweb-dev/contracts/extension/Royalty.sol\":2019:2034   */\n      tag_286\n        /* \"@thirdweb-dev/contracts/extension/Royalty.sol\":1896:1962   */\n      dup3\n        /* \"@thirdweb-dev/contracts/extension/Royalty.sol\":2019:2028   */\n      dup8\n        /* \"@thirdweb-dev/contracts/extension/Royalty.sol\":2019:2034   */\n      tag_287\n      jump\t// in\n    tag_286:\n        /* \"@thirdweb-dev/contracts/extension/Royalty.sol\":2018:2044   */\n      tag_288\n      swap2\n      swap1\n      tag_289\n      jump\t// in\n    tag_288:\n        /* \"@thirdweb-dev/contracts/extension/Royalty.sol\":2002:2044   */\n      swap3\n      pop\n        /* \"@thirdweb-dev/contracts/extension/Royalty.sol\":1886:2051   */\n      pop\n      pop\n        /* \"@thirdweb-dev/contracts/extension/Royalty.sol\":1726:2051   */\n      swap3\n      pop\n      swap3\n      swap1\n      pop\n      jump\t// out\n        /* \"@thirdweb-dev/contracts/eip/ERC721AVirtualApprove.sol\":8654:8803   */\n    tag_115:\n        /* \"@thirdweb-dev/contracts/eip/ERC721AVirtualApprove.sol\":8757:8796   */\n      tag_274\n        /* \"@thirdweb-dev/contracts/eip/ERC721AVirtualApprove.sol\":8774:8778   */\n      dup4\n        /* \"@thirdweb-dev/contracts/eip/ERC721AVirtualApprove.sol\":8780:8782   */\n      dup4\n        /* \"@thirdweb-dev/contracts/eip/ERC721AVirtualApprove.sol\":8784:8791   */\n      dup4\n        /* \"@thirdweb-dev/contracts/eip/ERC721AVirtualApprove.sol\":8757:8796   */\n      mload(0x40)\n      dup1\n      0x20\n      add\n      0x40\n      mstore\n      dup1\n      0x00\n      dup2\n      mstore\n      pop\n        /* \"@thirdweb-dev/contracts/eip/ERC721AVirtualApprove.sol\":8757:8773   */\n      tag_196\n        /* \"@thirdweb-dev/contracts/eip/ERC721AVirtualApprove.sol\":8757:8796   */\n      jump\t// in\n        /* \"@thirdweb-dev/contracts/base/ERC721Base.sol\":5793:5880   */\n    tag_118:\n        /* \"@thirdweb-dev/contracts/base/ERC721Base.sol\":5852:5873   */\n      tag_268\n        /* \"@thirdweb-dev/contracts/base/ERC721Base.sol\":5858:5866   */\n      dup2\n        /* \"@thirdweb-dev/contracts/base/ERC721Base.sol\":5868:5872   */\n      0x01\n        /* \"@thirdweb-dev/contracts/base/ERC721Base.sol\":5852:5857   */\n      tag_295\n        /* \"@thirdweb-dev/contracts/base/ERC721Base.sol\":5852:5873   */\n      jump\t// in\n        /* \"@thirdweb-dev/contracts/base/ERC721Base.sol\":6571:6914   */\n    tag_121:\n        /* \"@thirdweb-dev/contracts/base/ERC721Base.sol\":6686:6710   */\n      0x00\n        /* \"@thirdweb-dev/contracts/base/ERC721Base.sol\":6722:6735   */\n      dup1\n        /* \"@thirdweb-dev/contracts/base/ERC721Base.sol\":6738:6755   */\n      tag_297\n        /* \"@thirdweb-dev/contracts/base/ERC721Base.sol\":6746:6754   */\n      dup4\n        /* \"@thirdweb-dev/contracts/base/ERC721Base.sol\":6738:6745   */\n      tag_139\n        /* \"@thirdweb-dev/contracts/base/ERC721Base.sol\":6738:6755   */\n      jump\t// in\n    tag_297:\n        /* \"@thirdweb-dev/contracts/base/ERC721Base.sol\":6722:6755   */\n      swap1\n      pop\n        /* \"@thirdweb-dev/contracts/base/ERC721Base.sol\":6801:6806   */\n      dup1\n      sub(shl(0xa0, 0x01), 0x01)\n        /* \"@thirdweb-dev/contracts/base/ERC721Base.sol\":6788:6806   */\n      and\n        /* \"@thirdweb-dev/contracts/base/ERC721Base.sol\":6788:6797   */\n      dup5\n      sub(shl(0xa0, 0x01), 0x01)\n        /* \"@thirdweb-dev/contracts/base/ERC721Base.sol\":6788:6806   */\n      and\n      eq\n        /* \"@thirdweb-dev/contracts/base/ERC721Base.sol\":6788:6856   */\n      dup1\n      tag_299\n      jumpi\n      pop\n        /* \"SertifikatDigital.sol\":1995:1999  bool */\n      0x00\n        /* \"@thirdweb-dev/contracts/base/ERC721Base.sol\":6822:6856   */\n    tag_299:\n        /* \"@thirdweb-dev/contracts/base/ERC721Base.sol\":6788:6906   */\n      dup1\n      tag_300\n      jumpi\n      pop\n        /* \"@thirdweb-dev/contracts/base/ERC721Base.sol\":6897:6906   */\n      dup4\n      sub(shl(0xa0, 0x01), 0x01)\n        /* \"@thirdweb-dev/contracts/base/ERC721Base.sol\":6872:6906   */\n      and\n        /* \"@thirdweb-dev/contracts/base/ERC721Base.sol\":6872:6893   */\n      tag_301\n        /* \"@thirdweb-dev/contracts/base/ERC721Base.sol\":6884:6892   */\n      dup5\n        /* \"@thirdweb-dev/contracts/base/ERC721Base.sol\":6872:6883   */\n      tag_78\n        /* \"@thirdweb-dev/contracts/base/ERC721Base.sol\":6872:6893   */\n      jump\t// in\n    tag_301:\n      sub(shl(0xa0, 0x01), 0x01)\n        /* \"@thirdweb-dev/contracts/base/ERC721Base.sol\":6872:6906   */\n      and\n      eq\n        /* \"@thirdweb-dev/contracts/base/ERC721Base.sol\":6788:6906   */\n    tag_300:\n        /* \"@thirdweb-dev/contracts/base/ERC721Base.sol\":6765:6907   */\n      swap5\n        /* \"@thirdweb-dev/contracts/base/ERC721Base.sol\":6571:6914   */\n      swap4\n      pop\n      pop\n      pop\n      pop\n      jump\t// out\n        /* \"@thirdweb-dev/contracts/extension/Royalty.sol\":2291:2672   */\n    tag_125:\n        /* \"@thirdweb-dev/contracts/extension/Royalty.sol\":2371:2378   */\n      0x00\n        /* \"@thirdweb-dev/contracts/extension/Royalty.sol\":2435:2464   */\n      dup2\n      dup2\n      mstore\n        /* \"@thirdweb-dev/contracts/extension/Royalty.sol\":2435:2454   */\n      0x0b\n        /* \"@thirdweb-dev/contracts/extension/Royalty.sol\":2435:2464   */\n      0x20\n      swap1\n      dup2\n      mstore\n      0x40\n      dup1\n      dup4\n      keccak256\n        /* \"@thirdweb-dev/contracts/extension/Royalty.sol\":2398:2464   */\n      dup2\n      mload\n      dup1\n      dup4\n      add\n      swap1\n      swap3\n      mstore\n      dup1\n      sload\n      sub(shl(0xa0, 0x01), 0x01)\n      and\n      dup1\n      dup4\n      mstore\n      0x01\n      swap1\n      swap2\n      add\n      sload\n      swap3\n      dup3\n      add\n      swap3\n      swap1\n      swap3\n      mstore\n        /* \"@thirdweb-dev/contracts/extension/Royalty.sol\":2371:2378   */\n      dup3\n      swap2\n        /* \"@thirdweb-dev/contracts/extension/Royalty.sol\":2494:2533   */\n      iszero\n        /* \"@thirdweb-dev/contracts/extension/Royalty.sol\":2494:2665   */\n      tag_303\n      jumpi\n        /* \"@thirdweb-dev/contracts/extension/Royalty.sol\":2610:2635   */\n      dup1\n      mload\n        /* \"@thirdweb-dev/contracts/extension/Royalty.sol\":2644:2663   */\n      0x20\n      dup3\n      add\n      mload\n        /* \"@thirdweb-dev/contracts/extension/Royalty.sol\":2494:2665   */\n      jump(tag_304)\n    tag_303:\n        /* \"@thirdweb-dev/contracts/extension/Royalty.sol\":2553:2569   */\n      sload(0x0a)\n      sub(shl(0xa0, 0x01), 0x01)\n      dup2\n      and\n      swap1\n      shl(0xa0, 0x01)\n        /* \"@thirdweb-dev/contracts/extension/Royalty.sol\":2578:2588   */\n      swap1\n      div\n      0xffff\n      and\n        /* \"@thirdweb-dev/contracts/extension/Royalty.sol\":2494:2665   */\n    tag_304:\n        /* \"@thirdweb-dev/contracts/extension/Royalty.sol\":2475:2665   */\n      swap3\n      pop\n      swap3\n      pop\n      pop\n        /* \"@thirdweb-dev/contracts/extension/Royalty.sol\":2291:2672   */\n      swap2\n      pop\n      swap2\n      jump\t// out\n        /* \"@thirdweb-dev/contracts/eip/queryable/ERC721AQueryable.sol\":1514:1973   */\n    tag_131:\n        /* \"@thirdweb-dev/contracts/eip/queryable/ERC721AQueryable.sol\":1687:1702   */\n      dup1\n      mload\n        /* \"@thirdweb-dev/contracts/eip/queryable/ERC721AQueryable.sol\":1603:1626   */\n      0x60\n      swap1\n        /* \"@thirdweb-dev/contracts/eip/queryable/ERC721AQueryable.sol\":1662:1684   */\n      0x00\n        /* \"@thirdweb-dev/contracts/eip/queryable/ERC721AQueryable.sol\":1687:1702   */\n      dup2\n        /* \"@thirdweb-dev/contracts/eip/queryable/ERC721AQueryable.sol\":1753:1789   */\n      0xffffffffffffffff\n      dup2\n      gt\n      iszero\n      tag_307\n      jumpi\n      tag_307\n      tag_308\n      jump\t// in\n    tag_307:\n      mload(0x40)\n      swap1\n      dup1\n      dup3\n      mstore\n      dup1\n      0x20\n      mul\n      0x20\n      add\n      dup3\n      add\n      0x40\n      mstore\n      dup1\n      iszero\n      tag_309\n      jumpi\n      dup2\n      0x20\n      add\n    tag_310:\n      0x40\n      dup1\n      mload\n      0x60\n      dup2\n      add\n      dup3\n      mstore\n      0x00\n      dup1\n      dup3\n      mstore\n      0x20\n      dup1\n      dup4\n      add\n      dup3\n      swap1\n      mstore\n      swap3\n      dup3\n      add\n      mstore\n      dup3\n      mstore\n      not(0x00)\n      swap1\n      swap3\n      add\n      swap2\n      add\n      dup2\n      tag_310\n      jumpi\n      swap1\n      pop\n    tag_309:\n      pop\n        /* \"@thirdweb-dev/contracts/eip/queryable/ERC721AQueryable.sol\":1716:1789   */\n      swap1\n      pop\n        /* \"@thirdweb-dev/contracts/eip/queryable/ERC721AQueryable.sol\":1808:1817   */\n      0x00\n        /* \"@thirdweb-dev/contracts/eip/queryable/ERC721AQueryable.sol\":1803:1926   */\n    tag_313:\n        /* \"@thirdweb-dev/contracts/eip/queryable/ERC721AQueryable.sol\":1824:1838   */\n      dup3\n        /* \"@thirdweb-dev/contracts/eip/queryable/ERC721AQueryable.sol\":1819:1820   */\n      dup2\n        /* \"@thirdweb-dev/contracts/eip/queryable/ERC721AQueryable.sol\":1819:1838   */\n      eq\n        /* \"@thirdweb-dev/contracts/eip/queryable/ERC721AQueryable.sol\":1803:1926   */\n      tag_314\n      jumpi\n        /* \"@thirdweb-dev/contracts/eip/queryable/ERC721AQueryable.sol\":1879:1911   */\n      tag_316\n        /* \"@thirdweb-dev/contracts/eip/queryable/ERC721AQueryable.sol\":1899:1907   */\n      dup6\n        /* \"@thirdweb-dev/contracts/eip/queryable/ERC721AQueryable.sol\":1908:1909   */\n      dup3\n        /* \"@thirdweb-dev/contracts/eip/queryable/ERC721AQueryable.sol\":1899:1910   */\n      dup2\n      mload\n      dup2\n      lt\n      tag_318\n      jumpi\n      tag_318\n      tag_282\n      jump\t// in\n    tag_318:\n      0x20\n      mul\n      0x20\n      add\n      add\n      mload\n        /* \"@thirdweb-dev/contracts/eip/queryable/ERC721AQueryable.sol\":1879:1898   */\n      tag_202\n        /* \"@thirdweb-dev/contracts/eip/queryable/ERC721AQueryable.sol\":1879:1911   */\n      jump\t// in\n    tag_316:\n        /* \"@thirdweb-dev/contracts/eip/queryable/ERC721AQueryable.sol\":1863:1873   */\n      dup3\n        /* \"@thirdweb-dev/contracts/eip/queryable/ERC721AQueryable.sol\":1874:1875   */\n      dup3\n        /* \"@thirdweb-dev/contracts/eip/queryable/ERC721AQueryable.sol\":1863:1876   */\n      dup2\n      mload\n      dup2\n      lt\n      tag_320\n      jumpi\n      tag_320\n      tag_282\n      jump\t// in\n    tag_320:\n      0x20\n      swap1\n      dup2\n      mul\n      swap2\n      swap1\n      swap2\n      add\n      add\n        /* \"@thirdweb-dev/contracts/eip/queryable/ERC721AQueryable.sol\":1863:1911   */\n      mstore\n        /* \"@thirdweb-dev/contracts/eip/queryable/ERC721AQueryable.sol\":1840:1843   */\n      0x01\n      add\n        /* \"@thirdweb-dev/contracts/eip/queryable/ERC721AQueryable.sol\":1803:1926   */\n      jump(tag_313)\n    tag_314:\n      pop\n        /* \"@thirdweb-dev/contracts/eip/queryable/ERC721AQueryable.sol\":1946:1956   */\n      swap4\n        /* \"@thirdweb-dev/contracts/eip/queryable/ERC721AQueryable.sol\":1514:1973   */\n      swap3\n      pop\n      pop\n      pop\n      jump\t// out\n        /* \"@thirdweb-dev/contracts/extension/Royalty.sol\":3370:3630   */\n    tag_136:\n        /* \"@thirdweb-dev/contracts/extension/Royalty.sol\":3482:3502   */\n      tag_322\n        /* \"@thirdweb-dev/contracts/extension/Royalty.sol\":3482:3500   */\n      tag_223\n        /* \"@thirdweb-dev/contracts/extension/Royalty.sol\":3482:3502   */\n      jump\t// in\n    tag_322:\n        /* \"@thirdweb-dev/contracts/extension/Royalty.sol\":3477:3557   */\n      tag_324\n      jumpi\n        /* \"@thirdweb-dev/contracts/extension/Royalty.sol\":3525:3546   */\n      mload(0x40)\n      shl(0xe1, 0x6fae3581)\n      dup2\n      mstore\n      0x04\n      add\n      mload(0x40)\n      dup1\n      swap2\n      sub\n      swap1\n      revert\n        /* \"@thirdweb-dev/contracts/extension/Royalty.sol\":3477:3557   */\n    tag_324:\n        /* \"@thirdweb-dev/contracts/extension/Royalty.sol\":3567:3623   */\n      tag_230\n        /* \"@thirdweb-dev/contracts/extension/Royalty.sol\":3592:3609   */\n      dup3\n        /* \"@thirdweb-dev/contracts/extension/Royalty.sol\":3611:3622   */\n      dup3\n        /* \"@thirdweb-dev/contracts/extension/Royalty.sol\":3567:3591   */\n      tag_326\n        /* \"@thirdweb-dev/contracts/extension/Royalty.sol\":3567:3623   */\n      jump\t// in\n        /* \"@thirdweb-dev/contracts/eip/ERC721AVirtualApprove.sol\":5944:6067   */\n    tag_139:\n        /* \"@thirdweb-dev/contracts/eip/ERC721AVirtualApprove.sol\":6008:6015   */\n      0x00\n        /* \"@thirdweb-dev/contracts/eip/ERC721AVirtualApprove.sol\":6034:6055   */\n      tag_328\n        /* \"@thirdweb-dev/contracts/eip/ERC721AVirtualApprove.sol\":6047:6054   */\n      dup3\n        /* \"@thirdweb-dev/contracts/eip/ERC721AVirtualApprove.sol\":6034:6046   */\n      tag_329\n        /* \"@thirdweb-dev/contracts/eip/ERC721AVirtualApprove.sol\":6034:6055   */\n      jump\t// in\n    tag_328:\n        /* \"@thirdweb-dev/contracts/eip/ERC721AVirtualApprove.sol\":6034:6060   */\n      mload\n      swap3\n        /* \"@thirdweb-dev/contracts/eip/ERC721AVirtualApprove.sol\":5944:6067   */\n      swap2\n      pop\n      pop\n      jump\t// out\n        /* \"@thirdweb-dev/contracts/eip/ERC721AVirtualApprove.sol\":3370:3573   */\n    tag_146:\n        /* \"@thirdweb-dev/contracts/eip/ERC721AVirtualApprove.sol\":3434:3441   */\n      0x00\n      sub(shl(0xa0, 0x01), 0x01)\n        /* \"@thirdweb-dev/contracts/eip/ERC721AVirtualApprove.sol\":3457:3476   */\n      dup3\n      and\n        /* \"@thirdweb-dev/contracts/eip/ERC721AVirtualApprove.sol\":3453:3513   */\n      tag_332\n      jumpi\n        /* \"@thirdweb-dev/contracts/eip/ERC721AVirtualApprove.sol\":3485:3513   */\n      mload(0x40)\n      shl(0xe2, 0x23d3ad81)\n      dup2\n      mstore\n      0x04\n      add\n      mload(0x40)\n      dup1\n      swap2\n      sub\n      swap1\n      revert\n        /* \"@thirdweb-dev/contracts/eip/ERC721AVirtualApprove.sol\":3453:3513   */\n    tag_332:\n      pop\n      sub(shl(0xa0, 0x01), 0x01)\n        /* \"@thirdweb-dev/contracts/eip/ERC721AVirtualApprove.sol\":3538:3557   */\n      and\n      0x00\n      swap1\n      dup2\n      mstore\n        /* \"@thirdweb-dev/contracts/eip/ERC721AVirtualApprove.sol\":3538:3550   */\n      0x05\n        /* \"@thirdweb-dev/contracts/eip/ERC721AVirtualApprove.sol\":3538:3557   */\n      0x20\n      mstore\n      0x40\n      swap1\n      keccak256\n        /* \"@thirdweb-dev/contracts/eip/ERC721AVirtualApprove.sol\":3538:3565   */\n      sload\n      0xffffffffffffffff\n      and\n      swap1\n        /* \"@thirdweb-dev/contracts/eip/ERC721AVirtualApprove.sol\":3370:3573   */\n      jump\t// out\n        /* \"@thirdweb-dev/contracts/base/ERC721Base.sol\":5232:5519   */\n    tag_151:\n        /* \"@thirdweb-dev/contracts/base/ERC721Base.sol\":5362:5372   */\n      tag_334\n        /* \"@thirdweb-dev/contracts/base/ERC721Base.sol\":5362:5370   */\n      tag_223\n        /* \"@thirdweb-dev/contracts/base/ERC721Base.sol\":5362:5372   */\n      jump\t// in\n    tag_334:\n        /* \"@thirdweb-dev/contracts/base/ERC721Base.sol\":5354:5400   */\n      tag_335\n      jumpi\n      mload(0x40)\n      shl(0xe5, 0x461bcd)\n      dup2\n      mstore\n        /* \"#utility.yul\":12565:12567   */\n      0x20\n        /* \"@thirdweb-dev/contracts/base/ERC721Base.sol\":5354:5400   */\n      0x04\n      dup3\n      add\n        /* \"#utility.yul\":12547:12568   */\n      mstore\n        /* \"#utility.yul\":12604:12606   */\n      0x17\n        /* \"#utility.yul\":12584:12602   */\n      0x24\n      dup3\n      add\n        /* \"#utility.yul\":12577:12607   */\n      mstore\n        /* \"#utility.yul\":12643:12668   */\n      0x4e6f7420617574686f72697a656420746f206d696e742e000000000000000000\n        /* \"#utility.yul\":12623:12641   */\n      0x44\n      dup3\n      add\n        /* \"#utility.yul\":12616:12669   */\n      mstore\n        /* \"#utility.yul\":12686:12704   */\n      0x64\n      add\n        /* \"@thirdweb-dev/contracts/base/ERC721Base.sol\":5354:5400   */\n      tag_225\n        /* \"#utility.yul\":12363:12710   */\n      jump\n        /* \"@thirdweb-dev/contracts/base/ERC721Base.sol\":5354:5400   */\n    tag_335:\n        /* \"@thirdweb-dev/contracts/base/ERC721Base.sol\":5410:5470   */\n      tag_337\n        /* \"@thirdweb-dev/contracts/base/ERC721Base.sol\":5429:5448   */\n      tag_338\n        /* \"@thirdweb-dev/contracts/base/ERC721Base.sol\":6193:6200   */\n      0x00\n        /* \"@thirdweb-dev/contracts/base/ERC721Base.sol\":6219:6232   */\n      sload\n      swap1\n        /* \"@thirdweb-dev/contracts/base/ERC721Base.sol\":6135:6239   */\n      jump\n        /* \"@thirdweb-dev/contracts/base/ERC721Base.sol\":5429:5448   */\n    tag_338:\n        /* \"@thirdweb-dev/contracts/base/ERC721Base.sol\":5450:5459   */\n      dup5\n        /* \"@thirdweb-dev/contracts/base/ERC721Base.sol\":5461:5469   */\n      dup5\n        /* \"@thirdweb-dev/contracts/base/ERC721Base.sol\":5410:5428   */\n      tag_339\n        /* \"@thirdweb-dev/contracts/base/ERC721Base.sol\":5410:5470   */\n      jump\t// in\n    tag_337:\n      pop\n      pop\n        /* \"@thirdweb-dev/contracts/base/ERC721Base.sol\":5480:5512   */\n      tag_340\n        /* \"@thirdweb-dev/contracts/base/ERC721Base.sol\":5490:5493   */\n      dup5\n        /* \"@thirdweb-dev/contracts/base/ERC721Base.sol\":5495:5504   */\n      dup5\n        /* \"@thirdweb-dev/contracts/base/ERC721Base.sol\":5506:5511   */\n      dup4\n        /* \"@thirdweb-dev/contracts/base/ERC721Base.sol\":5480:5489   */\n      tag_231\n        /* \"@thirdweb-dev/contracts/base/ERC721Base.sol\":5480:5512   */\n      jump\t// in\n    tag_340:\n        /* \"@thirdweb-dev/contracts/base/ERC721Base.sol\":5232:5519   */\n      pop\n      pop\n      pop\n      pop\n      jump\t// out\n        /* \"@thirdweb-dev/contracts/eip/queryable/ERC721AQueryable.sol\":5285:6155   */\n    tag_158:\n        /* \"@thirdweb-dev/contracts/eip/queryable/ERC721AQueryable.sol\":5355:5371   */\n      0x60\n        /* \"@thirdweb-dev/contracts/eip/queryable/ERC721AQueryable.sol\":5407:5426   */\n      0x00\n        /* \"@thirdweb-dev/contracts/eip/queryable/ERC721AQueryable.sol\":5440:5465   */\n      dup1\n        /* \"@thirdweb-dev/contracts/eip/queryable/ERC721AQueryable.sol\":5479:5501   */\n      0x00\n        /* \"@thirdweb-dev/contracts/eip/queryable/ERC721AQueryable.sol\":5504:5520   */\n      tag_342\n        /* \"@thirdweb-dev/contracts/eip/queryable/ERC721AQueryable.sol\":5514:5519   */\n      dup6\n        /* \"@thirdweb-dev/contracts/eip/queryable/ERC721AQueryable.sol\":5504:5513   */\n      tag_146\n        /* \"@thirdweb-dev/contracts/eip/queryable/ERC721AQueryable.sol\":5504:5520   */\n      jump\t// in\n    tag_342:\n        /* \"@thirdweb-dev/contracts/eip/queryable/ERC721AQueryable.sol\":5479:5520   */\n      swap1\n      pop\n        /* \"@thirdweb-dev/contracts/eip/queryable/ERC721AQueryable.sol\":5534:5559   */\n      0x00\n        /* \"@thirdweb-dev/contracts/eip/queryable/ERC721AQueryable.sol\":5576:5590   */\n      dup2\n        /* \"@thirdweb-dev/contracts/eip/queryable/ERC721AQueryable.sol\":5562:5591   */\n      0xffffffffffffffff\n      dup2\n      gt\n      iszero\n      tag_344\n      jumpi\n      tag_344\n      tag_308\n      jump\t// in\n    tag_344:\n      mload(0x40)\n      swap1\n      dup1\n      dup3\n      mstore\n      dup1\n      0x20\n      mul\n      0x20\n      add\n      dup3\n      add\n      0x40\n      mstore\n      dup1\n      iszero\n      tag_345\n      jumpi\n      dup2\n      0x20\n      add\n      0x20\n      dup3\n      mul\n      dup1\n      calldatasize\n      dup4\n      calldatacopy\n      add\n      swap1\n      pop\n    tag_345:\n      pop\n      0x40\n      dup1\n      mload\n      0x60\n      dup2\n      add\n      dup3\n      mstore\n      0x00\n      dup1\n      dup3\n      mstore\n      0x20\n      dup3\n      add\n      dup2\n      swap1\n      mstore\n      swap2\n      dup2\n      add\n      dup3\n      swap1\n      mstore\n        /* \"@thirdweb-dev/contracts/eip/queryable/ERC721AQueryable.sol\":5534:5591   */\n      swap2\n      swap3\n      pop\n        /* \"@thirdweb-dev/contracts/eip/queryable/ERC721AQueryable.sol\":5650:6110   */\n    tag_347:\n        /* \"@thirdweb-dev/contracts/eip/queryable/ERC721AQueryable.sol\":5699:5713   */\n      dup4\n        /* \"@thirdweb-dev/contracts/eip/queryable/ERC721AQueryable.sol\":5684:5695   */\n      dup7\n        /* \"@thirdweb-dev/contracts/eip/queryable/ERC721AQueryable.sol\":5684:5713   */\n      eq\n        /* \"@thirdweb-dev/contracts/eip/queryable/ERC721AQueryable.sol\":5650:6110   */\n      tag_348\n      jumpi\n        /* \"@thirdweb-dev/contracts/eip/queryable/ERC721AQueryable.sol\":5750:5764   */\n      0x00\n      dup2\n      dup2\n      mstore\n        /* \"@thirdweb-dev/contracts/eip/queryable/ERC721AQueryable.sol\":5750:5761   */\n      0x04\n        /* \"@thirdweb-dev/contracts/eip/queryable/ERC721AQueryable.sol\":5750:5764   */\n      0x20\n      swap1\n      dup2\n      mstore\n      0x40\n      swap2\n      dup3\n      swap1\n      keccak256\n        /* \"@thirdweb-dev/contracts/eip/queryable/ERC721AQueryable.sol\":5738:5764   */\n      dup3\n      mload\n      0x60\n      dup2\n      add\n      dup5\n      mstore\n      swap1\n      sload\n      sub(shl(0xa0, 0x01), 0x01)\n      dup2\n      and\n      dup3\n      mstore\n      shl(0xa0, 0x01)\n      dup2\n      div\n      0xffffffffffffffff\n      and\n      swap3\n      dup3\n      add\n      swap3\n      swap1\n      swap3\n      mstore\n      shl(0xe0, 0x01)\n      swap1\n      swap2\n      div\n      0xff\n      and\n      iszero\n      iszero\n      swap2\n      dup2\n      add\n      dup3\n      swap1\n      mstore\n      swap3\n      pop\n        /* \"@thirdweb-dev/contracts/eip/queryable/ERC721AQueryable.sol\":5826:5834   */\n      tag_353\n        /* \"@thirdweb-dev/contracts/eip/queryable/ERC721AQueryable.sol\":5782:5853   */\n      jumpi\n        /* \"@thirdweb-dev/contracts/eip/queryable/ERC721AQueryable.sol\":5874:5888   */\n      dup2\n      mload\n      sub(shl(0xa0, 0x01), 0x01)\n        /* \"@thirdweb-dev/contracts/eip/queryable/ERC721AQueryable.sol\":5874:5902   */\n      and\n      iszero\n        /* \"@thirdweb-dev/contracts/eip/queryable/ERC721AQueryable.sol\":5870:5979   */\n      tag_352\n      jumpi\n        /* \"@thirdweb-dev/contracts/eip/queryable/ERC721AQueryable.sol\":5946:5960   */\n      dup2\n      mload\n      swap5\n      pop\n        /* \"@thirdweb-dev/contracts/eip/queryable/ERC721AQueryable.sol\":5870:5979   */\n    tag_352:\n        /* \"@thirdweb-dev/contracts/eip/queryable/ERC721AQueryable.sol\":6021:6026   */\n      dup8\n      sub(shl(0xa0, 0x01), 0x01)\n        /* \"@thirdweb-dev/contracts/eip/queryable/ERC721AQueryable.sol\":6000:6026   */\n      and\n        /* \"@thirdweb-dev/contracts/eip/queryable/ERC721AQueryable.sol\":6000:6017   */\n      dup6\n      sub(shl(0xa0, 0x01), 0x01)\n        /* \"@thirdweb-dev/contracts/eip/queryable/ERC721AQueryable.sol\":6000:6026   */\n      and\n      sub\n        /* \"@thirdweb-dev/contracts/eip/queryable/ERC721AQueryable.sol\":5996:6096   */\n      tag_353\n      jumpi\n        /* \"@thirdweb-dev/contracts/eip/queryable/ERC721AQueryable.sol\":6076:6077   */\n      dup1\n        /* \"@thirdweb-dev/contracts/eip/queryable/ERC721AQueryable.sol\":6050:6058   */\n      dup4\n        /* \"@thirdweb-dev/contracts/eip/queryable/ERC721AQueryable.sol\":6059:6072   */\n      dup8\n      dup1\n      0x01\n      add\n      swap9\n      pop\n        /* \"@thirdweb-dev/contracts/eip/queryable/ERC721AQueryable.sol\":6050:6073   */\n      dup2\n      mload\n      dup2\n      lt\n      tag_355\n      jumpi\n      tag_355\n      tag_282\n      jump\t// in\n    tag_355:\n      0x20\n      mul\n      0x20\n      add\n      add\n        /* \"@thirdweb-dev/contracts/eip/queryable/ERC721AQueryable.sol\":6050:6077   */\n      dup2\n      dup2\n      mstore\n      pop\n      pop\n        /* \"@thirdweb-dev/contracts/eip/queryable/ERC721AQueryable.sol\":5996:6096   */\n    tag_353:\n        /* \"@thirdweb-dev/contracts/eip/queryable/ERC721AQueryable.sol\":5715:5718   */\n      0x01\n      add\n        /* \"@thirdweb-dev/contracts/eip/queryable/ERC721AQueryable.sol\":5650:6110   */\n      jump(tag_347)\n    tag_348:\n      pop\n        /* \"@thirdweb-dev/contracts/eip/queryable/ERC721AQueryable.sol\":6130:6138   */\n      swap1\n      swap7\n        /* \"@thirdweb-dev/contracts/eip/queryable/ERC721AQueryable.sol\":5285:6155   */\n      swap6\n      pop\n      pop\n      pop\n      pop\n      pop\n      pop\n      jump\t// out\n        /* \"@thirdweb-dev/contracts/extension/ContractMetadata.sol\":1110:1311   */\n    tag_167:\n        /* \"@thirdweb-dev/contracts/extension/ContractMetadata.sol\":1187:1207   */\n      tag_358\n        /* \"@thirdweb-dev/contracts/extension/ContractMetadata.sol\":1187:1205   */\n      tag_223\n        /* \"@thirdweb-dev/contracts/extension/ContractMetadata.sol\":1187:1207   */\n      jump\t// in\n    tag_358:\n        /* \"@thirdweb-dev/contracts/extension/ContractMetadata.sol\":1182:1271   */\n      tag_360\n      jumpi\n        /* \"@thirdweb-dev/contracts/extension/ContractMetadata.sol\":1230:1260   */\n      mload(0x40)\n      shl(0xe0, 0x9f7f0925)\n      dup2\n      mstore\n      0x04\n      add\n      mload(0x40)\n      dup1\n      swap2\n      sub\n      swap1\n      revert\n        /* \"@thirdweb-dev/contracts/extension/ContractMetadata.sol\":1182:1271   */\n    tag_360:\n        /* \"@thirdweb-dev/contracts/extension/ContractMetadata.sol\":1281:1304   */\n      tag_268\n        /* \"@thirdweb-dev/contracts/extension/ContractMetadata.sol\":1299:1303   */\n      dup2\n        /* \"@thirdweb-dev/contracts/extension/ContractMetadata.sol\":1281:1298   */\n      tag_362\n        /* \"@thirdweb-dev/contracts/extension/ContractMetadata.sol\":1281:1304   */\n      jump\t// in\n        /* \"@thirdweb-dev/contracts/eip/ERC721AVirtualApprove.sol\":6291:6393   */\n    tag_169:\n        /* \"@thirdweb-dev/contracts/eip/ERC721AVirtualApprove.sol\":6347:6360   */\n      0x60\n        /* \"@thirdweb-dev/contracts/eip/ERC721AVirtualApprove.sol\":6379:6386   */\n      0x03\n        /* \"@thirdweb-dev/contracts/eip/ERC721AVirtualApprove.sol\":6372:6386   */\n      dup1\n      sload\n      tag_237\n      swap1\n      tag_238\n      jump\t// in\n        /* \"@thirdweb-dev/contracts/eip/queryable/ERC721AQueryable.sol\":2374:4822   */\n    tag_174:\n        /* \"@thirdweb-dev/contracts/eip/queryable/ERC721AQueryable.sol\":2505:2521   */\n      0x60\n        /* \"@thirdweb-dev/contracts/eip/queryable/ERC721AQueryable.sol\":2570:2574   */\n      dup2\n        /* \"@thirdweb-dev/contracts/eip/queryable/ERC721AQueryable.sol\":2561:2566   */\n      dup4\n        /* \"@thirdweb-dev/contracts/eip/queryable/ERC721AQueryable.sol\":2561:2574   */\n      lt\n        /* \"@thirdweb-dev/contracts/eip/queryable/ERC721AQueryable.sol\":2557:2602   */\n      tag_370\n      jumpi\n        /* \"@thirdweb-dev/contracts/eip/queryable/ERC721AQueryable.sol\":2583:2602   */\n      mload(0x40)\n      shl(0xe1, 0x1960ccad)\n      dup2\n      mstore\n      0x04\n      add\n      mload(0x40)\n      dup1\n      swap2\n      sub\n      swap1\n      revert\n        /* \"@thirdweb-dev/contracts/eip/queryable/ERC721AQueryable.sol\":2557:2602   */\n    tag_370:\n        /* \"@thirdweb-dev/contracts/eip/queryable/ERC721AQueryable.sol\":2616:2635   */\n      0x00\n        /* \"@thirdweb-dev/contracts/eip/queryable/ERC721AQueryable.sol\":2669:2682   */\n      dup1\n      sload\n        /* \"@thirdweb-dev/contracts/eip/queryable/ERC721AQueryable.sol\":2917:2926   */\n      dup1\n        /* \"@thirdweb-dev/contracts/eip/queryable/ERC721AQueryable.sol\":2910:2914   */\n      dup5\n        /* \"@thirdweb-dev/contracts/eip/queryable/ERC721AQueryable.sol\":2910:2926   */\n      gt\n        /* \"@thirdweb-dev/contracts/eip/queryable/ERC721AQueryable.sol\":2906:2977   */\n      iszero\n      tag_374\n      jumpi\n        /* \"@thirdweb-dev/contracts/eip/queryable/ERC721AQueryable.sol\":2953:2962   */\n      dup1\n        /* \"@thirdweb-dev/contracts/eip/queryable/ERC721AQueryable.sol\":2946:2962   */\n      swap4\n      pop\n        /* \"@thirdweb-dev/contracts/eip/queryable/ERC721AQueryable.sol\":2906:2977   */\n    tag_374:\n        /* \"@thirdweb-dev/contracts/eip/queryable/ERC721AQueryable.sol\":2990:3015   */\n      0x00\n        /* \"@thirdweb-dev/contracts/eip/queryable/ERC721AQueryable.sol\":3018:3034   */\n      tag_375\n        /* \"@thirdweb-dev/contracts/eip/queryable/ERC721AQueryable.sol\":3028:3033   */\n      dup8\n        /* \"@thirdweb-dev/contracts/eip/queryable/ERC721AQueryable.sol\":3018:3027   */\n      tag_146\n        /* \"@thirdweb-dev/contracts/eip/queryable/ERC721AQueryable.sol\":3018:3034   */\n      jump\t// in\n    tag_375:\n        /* \"@thirdweb-dev/contracts/eip/queryable/ERC721AQueryable.sol\":2990:3034   */\n      swap1\n      pop\n        /* \"@thirdweb-dev/contracts/eip/queryable/ERC721AQueryable.sol\":3209:3213   */\n      dup5\n        /* \"@thirdweb-dev/contracts/eip/queryable/ERC721AQueryable.sol\":3201:3206   */\n      dup7\n        /* \"@thirdweb-dev/contracts/eip/queryable/ERC721AQueryable.sol\":3201:3213   */\n      lt\n        /* \"@thirdweb-dev/contracts/eip/queryable/ERC721AQueryable.sol\":3197:3468   */\n      iszero\n      tag_376\n      jumpi\n        /* \"@thirdweb-dev/contracts/eip/queryable/ERC721AQueryable.sol\":3255:3267   */\n      dup6\n      dup6\n      sub\n        /* \"@thirdweb-dev/contracts/eip/queryable/ERC721AQueryable.sol\":3289:3320   */\n      dup2\n      dup2\n      lt\n        /* \"@thirdweb-dev/contracts/eip/queryable/ERC721AQueryable.sol\":3285:3394   */\n      iszero\n      tag_377\n      jumpi\n        /* \"@thirdweb-dev/contracts/eip/queryable/ERC721AQueryable.sol\":3364:3375   */\n      dup1\n        /* \"@thirdweb-dev/contracts/eip/queryable/ERC721AQueryable.sol\":3344:3375   */\n      swap2\n      pop\n        /* \"@thirdweb-dev/contracts/eip/queryable/ERC721AQueryable.sol\":3285:3394   */\n    tag_377:\n        /* \"@thirdweb-dev/contracts/eip/queryable/ERC721AQueryable.sol\":3215:3408   */\n      pop\n        /* \"@thirdweb-dev/contracts/eip/queryable/ERC721AQueryable.sol\":3197:3468   */\n      jump(tag_378)\n    tag_376:\n      pop\n        /* \"@thirdweb-dev/contracts/eip/queryable/ERC721AQueryable.sol\":3452:3453   */\n      0x00\n        /* \"@thirdweb-dev/contracts/eip/queryable/ERC721AQueryable.sol\":3197:3468   */\n    tag_378:\n        /* \"@thirdweb-dev/contracts/eip/queryable/ERC721AQueryable.sol\":3481:3506   */\n      0x00\n        /* \"@thirdweb-dev/contracts/eip/queryable/ERC721AQueryable.sol\":3523:3540   */\n      dup2\n        /* \"@thirdweb-dev/contracts/eip/queryable/ERC721AQueryable.sol\":3509:3541   */\n      0xffffffffffffffff\n      dup2\n      gt\n      iszero\n      tag_380\n      jumpi\n      tag_380\n      tag_308\n      jump\t// in\n    tag_380:\n      mload(0x40)\n      swap1\n      dup1\n      dup3\n      mstore\n      dup1\n      0x20\n      mul\n      0x20\n      add\n      dup3\n      add\n      0x40\n      mstore\n      dup1\n      iszero\n      tag_381\n      jumpi\n      dup2\n      0x20\n      add\n      0x20\n      dup3\n      mul\n      dup1\n      calldatasize\n      dup4\n      calldatacopy\n      add\n      swap1\n      pop\n    tag_381:\n      pop\n        /* \"@thirdweb-dev/contracts/eip/queryable/ERC721AQueryable.sol\":3481:3541   */\n      swap1\n      pop\n        /* \"@thirdweb-dev/contracts/eip/queryable/ERC721AQueryable.sol\":3559:3576   */\n      dup2\n        /* \"@thirdweb-dev/contracts/eip/queryable/ERC721AQueryable.sol\":3580:3581   */\n      0x00\n        /* \"@thirdweb-dev/contracts/eip/queryable/ERC721AQueryable.sol\":3559:3581   */\n      sub\n        /* \"@thirdweb-dev/contracts/eip/queryable/ERC721AQueryable.sol\":3555:3631   */\n      tag_382\n      jumpi\n        /* \"@thirdweb-dev/contracts/eip/queryable/ERC721AQueryable.sol\":3608:3616   */\n      swap4\n      pop\n        /* \"@thirdweb-dev/contracts/eip/queryable/ERC721AQueryable.sol\":3601:3616   */\n      tag_369\n      swap3\n      pop\n      pop\n      pop\n      jump\n        /* \"@thirdweb-dev/contracts/eip/queryable/ERC721AQueryable.sol\":3555:3631   */\n    tag_382:\n        /* \"@thirdweb-dev/contracts/eip/queryable/ERC721AQueryable.sol\":3772:3803   */\n      0x00\n        /* \"@thirdweb-dev/contracts/eip/queryable/ERC721AQueryable.sol\":3806:3832   */\n      tag_383\n        /* \"@thirdweb-dev/contracts/eip/queryable/ERC721AQueryable.sol\":3826:3831   */\n      dup9\n        /* \"@thirdweb-dev/contracts/eip/queryable/ERC721AQueryable.sol\":3806:3825   */\n      tag_202\n        /* \"@thirdweb-dev/contracts/eip/queryable/ERC721AQueryable.sol\":3806:3832   */\n      jump\t// in\n    tag_383:\n        /* \"@thirdweb-dev/contracts/eip/queryable/ERC721AQueryable.sol\":3772:3832   */\n      swap1\n      pop\n        /* \"@thirdweb-dev/contracts/eip/queryable/ERC721AQueryable.sol\":3846:3871   */\n      0x00\n        /* \"@thirdweb-dev/contracts/eip/queryable/ERC721AQueryable.sol\":4088:4097   */\n      dup2\n        /* \"@thirdweb-dev/contracts/eip/queryable/ERC721AQueryable.sol\":4088:4104   */\n      0x40\n      add\n      mload\n        /* \"@thirdweb-dev/contracts/eip/queryable/ERC721AQueryable.sol\":4083:4173   */\n      tag_384\n      jumpi\n      pop\n        /* \"@thirdweb-dev/contracts/eip/queryable/ERC721AQueryable.sol\":4144:4158   */\n      dup1\n      mload\n        /* \"@thirdweb-dev/contracts/eip/queryable/ERC721AQueryable.sol\":4083:4173   */\n    tag_384:\n        /* \"@thirdweb-dev/contracts/eip/queryable/ERC721AQueryable.sol\":4203:4208   */\n      dup9\n        /* \"@thirdweb-dev/contracts/eip/queryable/ERC721AQueryable.sol\":4186:4652   */\n    tag_385:\n        /* \"@thirdweb-dev/contracts/eip/queryable/ERC721AQueryable.sol\":4215:4219   */\n      dup9\n        /* \"@thirdweb-dev/contracts/eip/queryable/ERC721AQueryable.sol\":4210:4211   */\n      dup2\n        /* \"@thirdweb-dev/contracts/eip/queryable/ERC721AQueryable.sol\":4210:4219   */\n      eq\n      iszero\n        /* \"@thirdweb-dev/contracts/eip/queryable/ERC721AQueryable.sol\":4210:4255   */\n      dup1\n      iszero\n      tag_388\n      jumpi\n      pop\n        /* \"@thirdweb-dev/contracts/eip/queryable/ERC721AQueryable.sol\":4238:4255   */\n      dup5\n        /* \"@thirdweb-dev/contracts/eip/queryable/ERC721AQueryable.sol\":4223:4234   */\n      dup8\n        /* \"@thirdweb-dev/contracts/eip/queryable/ERC721AQueryable.sol\":4223:4255   */\n      eq\n      iszero\n        /* \"@thirdweb-dev/contracts/eip/queryable/ERC721AQueryable.sol\":4210:4255   */\n    tag_388:\n        /* \"@thirdweb-dev/contracts/eip/queryable/ERC721AQueryable.sol\":4186:4652   */\n      iszero\n      tag_386\n      jumpi\n        /* \"@thirdweb-dev/contracts/eip/queryable/ERC721AQueryable.sol\":4292:4306   */\n      0x00\n      dup2\n      dup2\n      mstore\n        /* \"@thirdweb-dev/contracts/eip/queryable/ERC721AQueryable.sol\":4292:4303   */\n      0x04\n        /* \"@thirdweb-dev/contracts/eip/queryable/ERC721AQueryable.sol\":4292:4306   */\n      0x20\n      swap1\n      dup2\n      mstore\n      0x40\n      swap2\n      dup3\n      swap1\n      keccak256\n        /* \"@thirdweb-dev/contracts/eip/queryable/ERC721AQueryable.sol\":4280:4306   */\n      dup3\n      mload\n      0x60\n      dup2\n      add\n      dup5\n      mstore\n      swap1\n      sload\n      sub(shl(0xa0, 0x01), 0x01)\n      dup2\n      and\n      dup3\n      mstore\n      shl(0xa0, 0x01)\n      dup2\n      div\n      0xffffffffffffffff\n      and\n      swap3\n      dup3\n      add\n      swap3\n      swap1\n      swap3\n      mstore\n      shl(0xe0, 0x01)\n      swap1\n      swap2\n      div\n      0xff\n      and\n      iszero\n      iszero\n      swap2\n      dup2\n      add\n      dup3\n      swap1\n      mstore\n      swap4\n      pop\n        /* \"@thirdweb-dev/contracts/eip/queryable/ERC721AQueryable.sol\":4368:4376   */\n      tag_391\n        /* \"@thirdweb-dev/contracts/eip/queryable/ERC721AQueryable.sol\":4324:4395   */\n      jumpi\n        /* \"@thirdweb-dev/contracts/eip/queryable/ERC721AQueryable.sol\":4416:4430   */\n      dup3\n      mload\n      sub(shl(0xa0, 0x01), 0x01)\n        /* \"@thirdweb-dev/contracts/eip/queryable/ERC721AQueryable.sol\":4416:4444   */\n      and\n      iszero\n        /* \"@thirdweb-dev/contracts/eip/queryable/ERC721AQueryable.sol\":4412:4521   */\n      tag_390\n      jumpi\n        /* \"@thirdweb-dev/contracts/eip/queryable/ERC721AQueryable.sol\":4488:4502   */\n      dup3\n      mload\n      swap2\n      pop\n        /* \"@thirdweb-dev/contracts/eip/queryable/ERC721AQueryable.sol\":4412:4521   */\n    tag_390:\n        /* \"@thirdweb-dev/contracts/eip/queryable/ERC721AQueryable.sol\":4563:4568   */\n      dup11\n      sub(shl(0xa0, 0x01), 0x01)\n        /* \"@thirdweb-dev/contracts/eip/queryable/ERC721AQueryable.sol\":4542:4568   */\n      and\n        /* \"@thirdweb-dev/contracts/eip/queryable/ERC721AQueryable.sol\":4542:4559   */\n      dup3\n      sub(shl(0xa0, 0x01), 0x01)\n        /* \"@thirdweb-dev/contracts/eip/queryable/ERC721AQueryable.sol\":4542:4568   */\n      and\n      sub\n        /* \"@thirdweb-dev/contracts/eip/queryable/ERC721AQueryable.sol\":4538:4638   */\n      tag_391\n      jumpi\n        /* \"@thirdweb-dev/contracts/eip/queryable/ERC721AQueryable.sol\":4618:4619   */\n      dup1\n        /* \"@thirdweb-dev/contracts/eip/queryable/ERC721AQueryable.sol\":4592:4600   */\n      dup5\n        /* \"@thirdweb-dev/contracts/eip/queryable/ERC721AQueryable.sol\":4601:4614   */\n      dup9\n      dup1\n      0x01\n      add\n      swap10\n      pop\n        /* \"@thirdweb-dev/contracts/eip/queryable/ERC721AQueryable.sol\":4592:4615   */\n      dup2\n      mload\n      dup2\n      lt\n      tag_393\n      jumpi\n      tag_393\n      tag_282\n      jump\t// in\n    tag_393:\n      0x20\n      mul\n      0x20\n      add\n      add\n        /* \"@thirdweb-dev/contracts/eip/queryable/ERC721AQueryable.sol\":4592:4619   */\n      dup2\n      dup2\n      mstore\n      pop\n      pop\n        /* \"@thirdweb-dev/contracts/eip/queryable/ERC721AQueryable.sol\":4538:4638   */\n    tag_391:\n        /* \"@thirdweb-dev/contracts/eip/queryable/ERC721AQueryable.sol\":4257:4260   */\n      0x01\n      add\n        /* \"@thirdweb-dev/contracts/eip/queryable/ERC721AQueryable.sol\":4186:4652   */\n      jump(tag_385)\n    tag_386:\n      pop\n      pop\n      pop\n        /* \"@thirdweb-dev/contracts/eip/queryable/ERC721AQueryable.sol\":4734:4763   */\n      swap3\n      dup4\n      mstore\n      pop\n        /* \"@thirdweb-dev/contracts/eip/queryable/ERC721AQueryable.sol\":4741:4749   */\n      swap1\n      swap2\n      pop\n      pop\n        /* \"@thirdweb-dev/contracts/eip/queryable/ERC721AQueryable.sol\":2374:4822   */\n    tag_369:\n      swap4\n      swap3\n      pop\n      pop\n      pop\n      jump\t// out\n        /* \"@thirdweb-dev/contracts/extension/Royalty.sol\":4595:4857   */\n    tag_179:\n        /* \"@thirdweb-dev/contracts/extension/Royalty.sol\":4712:4732   */\n      tag_395\n        /* \"@thirdweb-dev/contracts/extension/Royalty.sol\":4712:4730   */\n      tag_223\n        /* \"@thirdweb-dev/contracts/extension/Royalty.sol\":4712:4732   */\n      jump\t// in\n    tag_395:\n        /* \"@thirdweb-dev/contracts/extension/Royalty.sol\":4707:4787   */\n      tag_396\n      jumpi\n        /* \"@thirdweb-dev/contracts/extension/Royalty.sol\":4755:4776   */\n      mload(0x40)\n      shl(0xe1, 0x6fae3581)\n      dup2\n      mstore\n      0x04\n      add\n      mload(0x40)\n      dup1\n      swap2\n      sub\n      swap1\n      revert\n        /* \"@thirdweb-dev/contracts/extension/Royalty.sol\":4707:4787   */\n    tag_396:\n        /* \"@thirdweb-dev/contracts/extension/Royalty.sol\":4797:4850   */\n      tag_274\n        /* \"@thirdweb-dev/contracts/extension/Royalty.sol\":4823:4831   */\n      dup4\n        /* \"@thirdweb-dev/contracts/extension/Royalty.sol\":4833:4843   */\n      dup4\n        /* \"@thirdweb-dev/contracts/extension/Royalty.sol\":4845:4849   */\n      dup4\n        /* \"@thirdweb-dev/contracts/extension/Royalty.sol\":4797:4822   */\n      tag_398\n        /* \"@thirdweb-dev/contracts/extension/Royalty.sol\":4797:4850   */\n      jump\t// in\n        /* \"SertifikatDigital.sol\":1729:1887  function setApprovalForAll(address, bool) public virtual override(ERC721A, IERC721) {... */\n    tag_183:\n        /* \"SertifikatDigital.sol\":1824:1879  revert(\"Sertifikat Soulbound: Delegasi dinonaktifkan!\") */\n      mload(0x40)\n      shl(0xe5, 0x461bcd)\n      dup2\n      mstore\n        /* \"#utility.yul\":15456:15458   */\n      0x20\n        /* \"SertifikatDigital.sol\":1824:1879  revert(\"Sertifikat Soulbound: Delegasi dinonaktifkan!\") */\n      0x04\n      dup3\n      add\n        /* \"#utility.yul\":15438:15459   */\n      mstore\n        /* \"#utility.yul\":15495:15497   */\n      0x2d\n        /* \"#utility.yul\":15475:15493   */\n      0x24\n      dup3\n      add\n        /* \"#utility.yul\":15468:15498   */\n      mstore\n        /* \"#utility.yul\":15534:15568   */\n      0x536572746966696b617420536f756c626f756e643a2044656c65676173692064\n        /* \"#utility.yul\":15514:15532   */\n      0x44\n      dup3\n      add\n        /* \"#utility.yul\":15507:15569   */\n      mstore\n        /* \"#utility.yul\":15605:15620   */\n      0x696e6f6e616b7469666b616e2100000000000000000000000000000000000000\n        /* \"#utility.yul\":15585:15603   */\n      0x64\n      dup3\n      add\n        /* \"#utility.yul\":15578:15621   */\n      mstore\n        /* \"#utility.yul\":15638:15657   */\n      0x84\n      add\n        /* \"SertifikatDigital.sol\":1824:1879  revert(\"Sertifikat Soulbound: Delegasi dinonaktifkan!\") */\n      tag_225\n        /* \"#utility.yul\":15254:15663   */\n      jump\n        /* \"@thirdweb-dev/contracts/extension/Multicall.sol\":696:1263   */\n    tag_187:\n        /* \"@thirdweb-dev/contracts/extension/Multicall.sol\":756:778   */\n      0x60\n        /* \"@thirdweb-dev/contracts/extension/Multicall.sol\":812:816   */\n      dup2\n        /* \"@thirdweb-dev/contracts/extension/Multicall.sol\":800:824   */\n      0xffffffffffffffff\n      dup2\n      gt\n      iszero\n      tag_404\n      jumpi\n      tag_404\n      tag_308\n      jump\t// in\n    tag_404:\n      mload(0x40)\n      swap1\n      dup1\n      dup3\n      mstore\n      dup1\n      0x20\n      mul\n      0x20\n      add\n      dup3\n      add\n      0x40\n      mstore\n      dup1\n      iszero\n      tag_405\n      jumpi\n      dup2\n      0x20\n      add\n    tag_406:\n      0x60\n      dup2\n      mstore\n      0x20\n      add\n      swap1\n      0x01\n      swap1\n      sub\n      swap1\n      dup2\n      tag_406\n      jumpi\n      swap1\n      pop\n    tag_405:\n      pop\n        /* \"@thirdweb-dev/contracts/extension/Multicall.sol\":790:824   */\n      swap1\n      pop\n        /* \"@thirdweb-dev/contracts/base/ERC721Base.sol\":8521:8531   */\n      caller\n        /* \"@thirdweb-dev/contracts/extension/Multicall.sol\":834:848   */\n      0x00\n      dup1\n        /* \"@thirdweb-dev/contracts/extension/Multicall.sol\":922:1233   */\n    tag_409:\n        /* \"@thirdweb-dev/contracts/extension/Multicall.sol\":942:957   */\n      dup5\n      dup2\n      lt\n        /* \"@thirdweb-dev/contracts/extension/Multicall.sol\":922:1233   */\n      iszero\n      tag_410\n      jumpi\n        /* \"@thirdweb-dev/contracts/extension/Multicall.sol\":982:993   */\n      dup2\n        /* \"@thirdweb-dev/contracts/extension/Multicall.sol\":978:1223   */\n      iszero\n      tag_412\n      jumpi\n        /* \"@thirdweb-dev/contracts/extension/Multicall.sol\":1026:1104   */\n      tag_413\n        /* \"@thirdweb-dev/contracts/extension/Multicall.sol\":1063:1067   */\n      address\n        /* \"@thirdweb-dev/contracts/extension/Multicall.sol\":1087:1091   */\n      dup8\n      dup8\n        /* \"@thirdweb-dev/contracts/extension/Multicall.sol\":1092:1093   */\n      dup5\n        /* \"@thirdweb-dev/contracts/extension/Multicall.sol\":1087:1094   */\n      dup2\n      dup2\n      lt\n      tag_415\n      jumpi\n      tag_415\n      tag_282\n      jump\t// in\n    tag_415:\n      swap1\n      pop\n      0x20\n      mul\n      dup2\n      add\n      swap1\n      tag_416\n      swap2\n      swap1\n      tag_417\n      jump\t// in\n    tag_416:\n        /* \"@thirdweb-dev/contracts/extension/Multicall.sol\":1096:1102   */\n      dup7\n        /* \"@thirdweb-dev/contracts/extension/Multicall.sol\":1070:1103   */\n      add(0x20, mload(0x40))\n      tag_418\n      swap4\n      swap3\n      swap2\n      swap1\n      tag_419\n      jump\t// in\n    tag_418:\n      mload(0x40)\n      0x20\n      dup2\n      dup4\n      sub\n      sub\n      dup2\n      mstore\n      swap1\n      0x40\n      mstore\n        /* \"@thirdweb-dev/contracts/extension/Multicall.sol\":1026:1054   */\n      tag_420\n        /* \"@thirdweb-dev/contracts/extension/Multicall.sol\":1026:1104   */\n      jump\t// in\n    tag_413:\n        /* \"@thirdweb-dev/contracts/extension/Multicall.sol\":1013:1020   */\n      dup5\n        /* \"@thirdweb-dev/contracts/extension/Multicall.sol\":1021:1022   */\n      dup3\n        /* \"@thirdweb-dev/contracts/extension/Multicall.sol\":1013:1023   */\n      dup2\n      mload\n      dup2\n      lt\n      tag_422\n      jumpi\n      tag_422\n      tag_282\n      jump\t// in\n    tag_422:\n      0x20\n      mul\n      0x20\n      add\n      add\n        /* \"@thirdweb-dev/contracts/extension/Multicall.sol\":1013:1104   */\n      dup2\n      swap1\n      mstore\n      pop\n        /* \"@thirdweb-dev/contracts/extension/Multicall.sol\":978:1223   */\n      jump(tag_423)\n    tag_412:\n        /* \"@thirdweb-dev/contracts/extension/Multicall.sol\":1156:1208   */\n      tag_424\n        /* \"@thirdweb-dev/contracts/extension/Multicall.sol\":1193:1197   */\n      address\n        /* \"@thirdweb-dev/contracts/extension/Multicall.sol\":1200:1204   */\n      dup8\n      dup8\n        /* \"@thirdweb-dev/contracts/extension/Multicall.sol\":1205:1206   */\n      dup5\n        /* \"@thirdweb-dev/contracts/extension/Multicall.sol\":1200:1207   */\n      dup2\n      dup2\n      lt\n      tag_426\n      jumpi\n      tag_426\n      tag_282\n      jump\t// in\n    tag_426:\n      swap1\n      pop\n      0x20\n      mul\n      dup2\n      add\n      swap1\n      tag_427\n      swap2\n      swap1\n      tag_417\n      jump\t// in\n    tag_427:\n        /* \"@thirdweb-dev/contracts/extension/Multicall.sol\":1156:1208   */\n      dup1\n      dup1\n      0x1f\n      add\n      0x20\n      dup1\n      swap2\n      div\n      mul\n      0x20\n      add\n      mload(0x40)\n      swap1\n      dup2\n      add\n      0x40\n      mstore\n      dup1\n      swap4\n      swap3\n      swap2\n      swap1\n      dup2\n      dup2\n      mstore\n      0x20\n      add\n      dup4\n      dup4\n      dup1\n      dup3\n      dup5\n      calldatacopy\n      0x00\n      swap3\n      add\n      swap2\n      swap1\n      swap2\n      mstore\n      pop\n        /* \"@thirdweb-dev/contracts/extension/Multicall.sol\":1156:1184   */\n      tag_420\n      swap3\n      pop\n      pop\n      pop\n        /* \"@thirdweb-dev/contracts/extension/Multicall.sol\":1156:1208   */\n      jump\t// in\n    tag_424:\n        /* \"@thirdweb-dev/contracts/extension/Multicall.sol\":1143:1150   */\n      dup5\n        /* \"@thirdweb-dev/contracts/extension/Multicall.sol\":1151:1152   */\n      dup3\n        /* \"@thirdweb-dev/contracts/extension/Multicall.sol\":1143:1153   */\n      dup2\n      mload\n      dup2\n      lt\n      tag_429\n      jumpi\n      tag_429\n      tag_282\n      jump\t// in\n    tag_429:\n      0x20\n      mul\n      0x20\n      add\n      add\n        /* \"@thirdweb-dev/contracts/extension/Multicall.sol\":1143:1208   */\n      dup2\n      swap1\n      mstore\n      pop\n        /* \"@thirdweb-dev/contracts/extension/Multicall.sol\":978:1223   */\n    tag_423:\n        /* \"@thirdweb-dev/contracts/extension/Multicall.sol\":959:962   */\n      0x01\n      add\n        /* \"@thirdweb-dev/contracts/extension/Multicall.sol\":922:1233   */\n      jump(tag_409)\n    tag_410:\n      pop\n        /* \"@thirdweb-dev/contracts/extension/Multicall.sol\":1242:1256   */\n      pop\n      pop\n        /* \"@thirdweb-dev/contracts/extension/Multicall.sol\":696:1263   */\n      swap3\n      swap2\n      pop\n      pop\n      jump\t// out\n        /* \"@thirdweb-dev/contracts/eip/ERC721AVirtualApprove.sol\":8869:9212   */\n    tag_196:\n        /* \"@thirdweb-dev/contracts/eip/ERC721AVirtualApprove.sol\":8992:9020   */\n      tag_432\n        /* \"@thirdweb-dev/contracts/eip/ERC721AVirtualApprove.sol\":9002:9006   */\n      dup5\n        /* \"@thirdweb-dev/contracts/eip/ERC721AVirtualApprove.sol\":9008:9010   */\n      dup5\n        /* \"@thirdweb-dev/contracts/eip/ERC721AVirtualApprove.sol\":9012:9019   */\n      dup5\n        /* \"@thirdweb-dev/contracts/eip/ERC721AVirtualApprove.sol\":8992:9001   */\n      tag_275\n        /* \"@thirdweb-dev/contracts/eip/ERC721AVirtualApprove.sol\":8992:9020   */\n      jump\t// in\n    tag_432:\n      sub(shl(0xa0, 0x01), 0x01)\n        /* \"@thirdweb-dev/contracts/eip/ERC721AVirtualApprove.sol\":9034:9047   */\n      dup4\n      and\n        /* \"@thirdweb-dev/contracts/lib/Address.sol\":1695:1714   */\n      extcodesize\n        /* \"@thirdweb-dev/contracts/lib/Address.sol\":1695:1718   */\n      iszero\n        /* \"@thirdweb-dev/contracts/eip/ERC721AVirtualApprove.sol\":9030:9206   */\n      tag_340\n      jumpi\n        /* \"@thirdweb-dev/contracts/eip/ERC721AVirtualApprove.sol\":9068:9124   */\n      tag_436\n        /* \"@thirdweb-dev/contracts/eip/ERC721AVirtualApprove.sol\":9099:9103   */\n      dup5\n        /* \"@thirdweb-dev/contracts/eip/ERC721AVirtualApprove.sol\":9105:9107   */\n      dup5\n        /* \"@thirdweb-dev/contracts/eip/ERC721AVirtualApprove.sol\":9109:9116   */\n      dup5\n        /* \"@thirdweb-dev/contracts/eip/ERC721AVirtualApprove.sol\":9118:9123   */\n      dup5\n        /* \"@thirdweb-dev/contracts/eip/ERC721AVirtualApprove.sol\":9068:9098   */\n      tag_437\n        /* \"@thirdweb-dev/contracts/eip/ERC721AVirtualApprove.sol\":9068:9124   */\n      jump\t// in\n    tag_436:\n        /* \"@thirdweb-dev/contracts/eip/ERC721AVirtualApprove.sol\":9063:9206   */\n      tag_340\n      jumpi\n        /* \"@thirdweb-dev/contracts/eip/ERC721AVirtualApprove.sol\":9151:9191   */\n      mload(0x40)\n      shl(0xe1, 0x68d2bf6b)\n      dup2\n      mstore\n      0x04\n      add\n      mload(0x40)\n      dup1\n      swap2\n      sub\n      swap1\n      revert\n        /* \"SertifikatDigital.sol\":858:1002  function adminBurn(uint256 tokenId) external {... */\n    tag_199:\n        /* \"@thirdweb-dev/contracts/extension/Ownable.sol\":1046:1052   */\n      and(sub(shl(0xa0, 0x01), 0x01), sload(0x09))\n        /* \"SertifikatDigital.sol\":922:932  msg.sender */\n      caller\n        /* \"SertifikatDigital.sol\":922:943  msg.sender == owner() */\n      eq\n        /* \"SertifikatDigital.sol\":914:962  require(msg.sender == owner(), \"Not authorized\") */\n      tag_441\n      jumpi\n      mload(0x40)\n      shl(0xe5, 0x461bcd)\n      dup2\n      mstore\n        /* \"#utility.yul\":13302:13304   */\n      0x20\n        /* \"SertifikatDigital.sol\":914:962  require(msg.sender == owner(), \"Not authorized\") */\n      0x04\n      dup3\n      add\n        /* \"#utility.yul\":13284:13305   */\n      mstore\n        /* \"#utility.yul\":13341:13343   */\n      0x0e\n        /* \"#utility.yul\":13321:13339   */\n      0x24\n      dup3\n      add\n        /* \"#utility.yul\":13314:13344   */\n      mstore\n      shl(0x92, 0x139bdd08185d5d1a1bdc9a5e9959)\n        /* \"#utility.yul\":13360:13378   */\n      0x44\n      dup3\n      add\n        /* \"#utility.yul\":13353:13397   */\n      mstore\n        /* \"#utility.yul\":13414:13432   */\n      0x64\n      add\n        /* \"SertifikatDigital.sol\":914:962  require(msg.sender == owner(), \"Not authorized\") */\n      tag_225\n        /* \"#utility.yul\":13100:13438   */\n      jump\n        /* \"SertifikatDigital.sol\":914:962  require(msg.sender == owner(), \"Not authorized\") */\n    tag_441:\n        /* \"SertifikatDigital.sol\":973:994  _burn(tokenId, false) */\n      tag_268\n        /* \"SertifikatDigital.sol\":979:986  tokenId */\n      dup2\n        /* \"SertifikatDigital.sol\":988:993  false */\n      0x00\n        /* \"SertifikatDigital.sol\":973:978  _burn */\n      tag_295\n        /* \"SertifikatDigital.sol\":973:994  _burn(tokenId, false) */\n      jump\t// in\n        /* \"@thirdweb-dev/contracts/eip/queryable/ERC721AQueryable.sol\":953:1361   */\n    tag_202:\n      0x40\n      dup1\n      mload\n      0x60\n      dup1\n      dup3\n      add\n      dup4\n      mstore\n      0x00\n      dup1\n      dup4\n      mstore\n      0x20\n      dup1\n      dup5\n      add\n      dup3\n      swap1\n      mstore\n      dup4\n      dup6\n      add\n      dup3\n      swap1\n      mstore\n      dup5\n      mload\n      swap3\n      dup4\n      add\n      dup6\n      mstore\n      dup2\n      dup4\n      mstore\n      dup3\n      add\n      dup2\n      swap1\n      mstore\n      swap3\n      dup2\n      add\n      dup4\n      swap1\n      mstore\n      swap1\n      swap2\n        /* \"@thirdweb-dev/contracts/eip/queryable/ERC721AQueryable.sol\":1107:1160   */\n      pop\n        /* \"@thirdweb-dev/contracts/eip/queryable/ERC721AQueryable.sol\":1147:1160   */\n      sload(0x00)\n        /* \"@thirdweb-dev/contracts/eip/queryable/ERC721AQueryable.sol\":1136:1143   */\n      dup4\n        /* \"@thirdweb-dev/contracts/eip/queryable/ERC721AQueryable.sol\":1136:1160   */\n      lt\n        /* \"@thirdweb-dev/contracts/eip/queryable/ERC721AQueryable.sol\":1103:1203   */\n      tag_449\n      jumpi\n        /* \"@thirdweb-dev/contracts/eip/queryable/ERC721AQueryable.sol\":1183:1192   */\n      swap3\n        /* \"@thirdweb-dev/contracts/eip/queryable/ERC721AQueryable.sol\":953:1361   */\n      swap2\n      pop\n      pop\n      jump\t// out\n        /* \"@thirdweb-dev/contracts/eip/queryable/ERC721AQueryable.sol\":1103:1203   */\n    tag_449:\n      pop\n        /* \"@thirdweb-dev/contracts/eip/queryable/ERC721AQueryable.sol\":1224:1244   */\n      0x00\n      dup3\n      dup2\n      mstore\n        /* \"@thirdweb-dev/contracts/eip/queryable/ERC721AQueryable.sol\":1224:1235   */\n      0x04\n        /* \"@thirdweb-dev/contracts/eip/queryable/ERC721AQueryable.sol\":1224:1244   */\n      0x20\n      swap1\n      dup2\n      mstore\n      0x40\n      swap2\n      dup3\n      swap1\n      keccak256\n        /* \"@thirdweb-dev/contracts/eip/queryable/ERC721AQueryable.sol\":1212:1244   */\n      dup3\n      mload\n      0x60\n      dup2\n      add\n      dup5\n      mstore\n      swap1\n      sload\n      sub(shl(0xa0, 0x01), 0x01)\n      dup2\n      and\n      dup3\n      mstore\n      shl(0xa0, 0x01)\n      dup2\n      div\n      0xffffffffffffffff\n      and\n      swap3\n      dup3\n      add\n      swap3\n      swap1\n      swap3\n      mstore\n      shl(0xe0, 0x01)\n      swap1\n      swap2\n      div\n      0xff\n      and\n      iszero\n      dup1\n      iszero\n      swap3\n      dup3\n      add\n      swap3\n      swap1\n      swap3\n      mstore\n      swap1\n        /* \"@thirdweb-dev/contracts/eip/queryable/ERC721AQueryable.sol\":1254:1317   */\n      tag_450\n      jumpi\n        /* \"@thirdweb-dev/contracts/eip/queryable/ERC721AQueryable.sol\":1297:1306   */\n      swap3\n        /* \"@thirdweb-dev/contracts/eip/queryable/ERC721AQueryable.sol\":953:1361   */\n      swap2\n      pop\n      pop\n      jump\t// out\n        /* \"@thirdweb-dev/contracts/eip/queryable/ERC721AQueryable.sol\":1254:1317   */\n    tag_450:\n        /* \"@thirdweb-dev/contracts/eip/queryable/ERC721AQueryable.sol\":1333:1354   */\n      tag_369\n        /* \"@thirdweb-dev/contracts/eip/queryable/ERC721AQueryable.sol\":1346:1353   */\n      dup4\n        /* \"@thirdweb-dev/contracts/eip/queryable/ERC721AQueryable.sol\":1333:1345   */\n      tag_329\n        /* \"@thirdweb-dev/contracts/eip/queryable/ERC721AQueryable.sol\":1333:1354   */\n      jump\t// in\n        /* \"@thirdweb-dev/contracts/base/ERC721Base.sol\":3513:3918   */\n    tag_207:\n        /* \"@thirdweb-dev/contracts/base/ERC721Base.sol\":3638:3667   */\n      0x00\n        /* \"@thirdweb-dev/contracts/base/ERC721Base.sol\":3670:3687   */\n      dup2\n      dup2\n      mstore\n        /* \"@thirdweb-dev/contracts/base/ERC721Base.sol\":3670:3677   */\n      0x0f\n        /* \"@thirdweb-dev/contracts/base/ERC721Base.sol\":3670:3687   */\n      0x20\n      mstore\n      0x40\n      dup2\n      keccak256\n        /* \"@thirdweb-dev/contracts/base/ERC721Base.sol\":3638:3687   */\n      dup1\n      sload\n        /* \"@thirdweb-dev/contracts/base/ERC721Base.sol\":3613:3626   */\n      0x60\n      swap3\n        /* \"@thirdweb-dev/contracts/base/ERC721Base.sol\":3638:3667   */\n      swap2\n        /* \"@thirdweb-dev/contracts/base/ERC721Base.sol\":3670:3687   */\n      swap1\n        /* \"@thirdweb-dev/contracts/base/ERC721Base.sol\":3638:3687   */\n      tag_453\n      swap1\n      tag_238\n      jump\t// in\n    tag_453:\n      dup1\n      0x1f\n      add\n      0x20\n      dup1\n      swap2\n      div\n      mul\n      0x20\n      add\n      mload(0x40)\n      swap1\n      dup2\n      add\n      0x40\n      mstore\n      dup1\n      swap3\n      swap2\n      swap1\n      dup2\n      dup2\n      mstore\n      0x20\n      add\n      dup3\n      dup1\n      sload\n      tag_454\n      swap1\n      tag_238\n      jump\t// in\n    tag_454:\n      dup1\n      iszero\n      tag_455\n      jumpi\n      dup1\n      0x1f\n      lt\n      tag_456\n      jumpi\n      0x0100\n      dup1\n      dup4\n      sload\n      div\n      mul\n      dup4\n      mstore\n      swap2\n      0x20\n      add\n      swap2\n      jump(tag_455)\n    tag_456:\n      dup3\n      add\n      swap2\n      swap1\n      0x00\n      mstore\n      keccak256(0x00, 0x20)\n      swap1\n    tag_457:\n      dup2\n      sload\n      dup2\n      mstore\n      swap1\n      0x01\n      add\n      swap1\n      0x20\n      add\n      dup1\n      dup4\n      gt\n      tag_457\n      jumpi\n      dup3\n      swap1\n      sub\n      0x1f\n      and\n      dup3\n      add\n      swap2\n    tag_455:\n      pop\n      pop\n      pop\n      pop\n      pop\n      swap1\n      pop\n        /* \"@thirdweb-dev/contracts/base/ERC721Base.sol\":3733:3734   */\n      0x00\n        /* \"@thirdweb-dev/contracts/base/ERC721Base.sol\":3707:3722   */\n      dup2\n        /* \"@thirdweb-dev/contracts/base/ERC721Base.sol\":3701:3730   */\n      mload\n        /* \"@thirdweb-dev/contracts/base/ERC721Base.sol\":3701:3734   */\n      gt\n        /* \"@thirdweb-dev/contracts/base/ERC721Base.sol\":3697:3783   */\n      iszero\n      tag_458\n      jumpi\n        /* \"@thirdweb-dev/contracts/base/ERC721Base.sol\":3757:3772   */\n      swap3\n        /* \"@thirdweb-dev/contracts/base/ERC721Base.sol\":3513:3918   */\n      swap2\n      pop\n      pop\n      jump\t// out\n        /* \"@thirdweb-dev/contracts/base/ERC721Base.sol\":3697:3783   */\n    tag_458:\n        /* \"@thirdweb-dev/contracts/base/ERC721Base.sol\":3793:3815   */\n      0x00\n        /* \"@thirdweb-dev/contracts/base/ERC721Base.sol\":3818:3839   */\n      tag_459\n        /* \"@thirdweb-dev/contracts/base/ERC721Base.sol\":3830:3838   */\n      dup5\n        /* \"@thirdweb-dev/contracts/base/ERC721Base.sol\":3818:3829   */\n      tag_460\n        /* \"@thirdweb-dev/contracts/base/ERC721Base.sol\":3818:3839   */\n      jump\t// in\n    tag_459:\n        /* \"@thirdweb-dev/contracts/base/ERC721Base.sol\":3793:3839   */\n      swap1\n      pop\n        /* \"@thirdweb-dev/contracts/base/ERC721Base.sol\":3880:3888   */\n      dup1\n        /* \"@thirdweb-dev/contracts/base/ERC721Base.sol\":3890:3909   */\n      tag_461\n        /* \"@thirdweb-dev/contracts/base/ERC721Base.sol\":3890:3898   */\n      dup6\n        /* \"@thirdweb-dev/contracts/base/ERC721Base.sol\":3890:3907   */\n      tag_462\n        /* \"@thirdweb-dev/contracts/base/ERC721Base.sol\":3890:3909   */\n      jump\t// in\n    tag_461:\n        /* \"@thirdweb-dev/contracts/base/ERC721Base.sol\":3863:3910   */\n      add(0x20, mload(0x40))\n      tag_463\n      swap3\n      swap2\n      swap1\n      tag_464\n      jump\t// in\n    tag_463:\n      mload(0x40)\n      0x20\n      dup2\n      dup4\n      sub\n      sub\n      dup2\n      mstore\n      swap1\n      0x40\n      mstore\n        /* \"@thirdweb-dev/contracts/base/ERC721Base.sol\":3849:3911   */\n      swap3\n      pop\n      pop\n      pop\n        /* \"@thirdweb-dev/contracts/base/ERC721Base.sol\":3513:3918   */\n      swap2\n      swap1\n      pop\n      jump\t// out\n        /* \"SertifikatDigital.sol\":1408:1552  function setSoulbound(bool _enabled) external {... */\n    tag_212:\n        /* \"@thirdweb-dev/contracts/extension/Ownable.sol\":1046:1052   */\n      and(sub(shl(0xa0, 0x01), 0x01), sload(0x09))\n        /* \"SertifikatDigital.sol\":1473:1483  msg.sender */\n      caller\n        /* \"SertifikatDigital.sol\":1473:1494  msg.sender == owner() */\n      eq\n        /* \"SertifikatDigital.sol\":1465:1513  require(msg.sender == owner(), \"Not authorized\") */\n      tag_467\n      jumpi\n      mload(0x40)\n      shl(0xe5, 0x461bcd)\n      dup2\n      mstore\n        /* \"#utility.yul\":13302:13304   */\n      0x20\n        /* \"SertifikatDigital.sol\":1465:1513  require(msg.sender == owner(), \"Not authorized\") */\n      0x04\n      dup3\n      add\n        /* \"#utility.yul\":13284:13305   */\n      mstore\n        /* \"#utility.yul\":13341:13343   */\n      0x0e\n        /* \"#utility.yul\":13321:13339   */\n      0x24\n      dup3\n      add\n        /* \"#utility.yul\":13314:13344   */\n      mstore\n      shl(0x92, 0x139bdd08185d5d1a1bdc9a5e9959)\n        /* \"#utility.yul\":13360:13378   */\n      0x44\n      dup3\n      add\n        /* \"#utility.yul\":13353:13397   */\n      mstore\n        /* \"#utility.yul\":13414:13432   */\n      0x64\n      add\n        /* \"SertifikatDigital.sol\":1465:1513  require(msg.sender == owner(), \"Not authorized\") */\n      tag_225\n        /* \"#utility.yul\":13100:13438   */\n      jump\n        /* \"SertifikatDigital.sol\":1465:1513  require(msg.sender == owner(), \"Not authorized\") */\n    tag_467:\n        /* \"SertifikatDigital.sol\":1524:1533  soulbound */\n      0x10\n        /* \"SertifikatDigital.sol\":1524:1544  soulbound = _enabled */\n      dup1\n      sload\n      not(0xff)\n      and\n      swap2\n      iszero\n      iszero\n      swap2\n      swap1\n      swap2\n      or\n      swap1\n      sstore\n        /* \"SertifikatDigital.sol\":1408:1552  function setSoulbound(bool _enabled) external {... */\n      jump\t// out\n        /* \"@thirdweb-dev/contracts/extension/ContractMetadata.sol\":672:706   */\n    tag_214:\n      0x08\n      dup1\n      sload\n      tag_469\n      swap1\n      tag_238\n      jump\t// in\n    tag_469:\n      dup1\n      0x1f\n      add\n      0x20\n      dup1\n      swap2\n      div\n      mul\n      0x20\n      add\n      mload(0x40)\n      swap1\n      dup2\n      add\n      0x40\n      mstore\n      dup1\n      swap3\n      swap2\n      swap1\n      dup2\n      dup2\n      mstore\n      0x20\n      add\n      dup3\n      dup1\n      sload\n      tag_470\n      swap1\n      tag_238\n      jump\t// in\n    tag_470:\n      dup1\n      iszero\n      tag_471\n      jumpi\n      dup1\n      0x1f\n      lt\n      tag_472\n      jumpi\n      0x0100\n      dup1\n      dup4\n      sload\n      div\n      mul\n      dup4\n      mstore\n      swap2\n      0x20\n      add\n      swap2\n      jump(tag_471)\n    tag_472:\n      dup3\n      add\n      swap2\n      swap1\n      0x00\n      mstore\n      keccak256(0x00, 0x20)\n      swap1\n    tag_473:\n      dup2\n      sload\n      dup2\n      mstore\n      swap1\n      0x01\n      add\n      swap1\n      0x20\n      add\n      dup1\n      dup4\n      gt\n      tag_473\n      jumpi\n      dup3\n      swap1\n      sub\n      0x1f\n      and\n      dup3\n      add\n      swap2\n    tag_471:\n      pop\n      pop\n      pop\n      pop\n      pop\n      dup2\n      jump\t// out\n        /* \"@thirdweb-dev/contracts/base/ERC721Base.sol\":7835:7937   */\n    tag_223:\n        /* \"@thirdweb-dev/contracts/base/ERC721Base.sol\":7886:7890   */\n      0x00\n        /* \"@thirdweb-dev/contracts/base/ERC721Base.sol\":7923:7930   */\n      tag_476\n        /* \"@thirdweb-dev/contracts/extension/Ownable.sol\":1046:1052   */\n      and(sub(shl(0xa0, 0x01), 0x01), sload(0x09))\n      swap1\n        /* \"@thirdweb-dev/contracts/extension/Ownable.sol\":973:1059   */\n      jump\n        /* \"@thirdweb-dev/contracts/base/ERC721Base.sol\":7923:7930   */\n    tag_476:\n      sub(shl(0xa0, 0x01), 0x01)\n        /* \"@thirdweb-dev/contracts/base/ERC721Base.sol\":7909:7930   */\n      and\n        /* \"@thirdweb-dev/contracts/base/ERC721Base.sol\":7909:7919   */\n      caller\n      sub(shl(0xa0, 0x01), 0x01)\n        /* \"@thirdweb-dev/contracts/base/ERC721Base.sol\":7909:7930   */\n      and\n      eq\n        /* \"@thirdweb-dev/contracts/base/ERC721Base.sol\":7902:7930   */\n      swap1\n      pop\n        /* \"@thirdweb-dev/contracts/base/ERC721Base.sol\":7835:7937   */\n      swap1\n      jump\t// out\n        /* \"@thirdweb-dev/contracts/base/ERC721Base.sol\":7327:7529   */\n    tag_229:\n        /* \"@thirdweb-dev/contracts/base/ERC721Base.sol\":7433:7450   */\n      0x00\n      dup3\n      dup2\n      mstore\n        /* \"@thirdweb-dev/contracts/base/ERC721Base.sol\":7433:7440   */\n      0x0f\n        /* \"@thirdweb-dev/contracts/base/ERC721Base.sol\":7433:7450   */\n      0x20\n      mstore\n      0x40\n      swap1\n      keccak256\n        /* \"@thirdweb-dev/contracts/base/ERC721Base.sol\":7427:7458   */\n      dup1\n      sload\n      tag_478\n      swap1\n      tag_238\n      jump\t// in\n    tag_478:\n        /* \"@thirdweb-dev/contracts/base/ERC721Base.sol\":7427:7463   */\n      iszero\n      swap1\n      pop\n        /* \"@thirdweb-dev/contracts/base/ERC721Base.sol\":7419:7483   */\n      tag_479\n      jumpi\n      mload(0x40)\n      shl(0xe5, 0x461bcd)\n      dup2\n      mstore\n        /* \"#utility.yul\":17250:17252   */\n      0x20\n        /* \"@thirdweb-dev/contracts/base/ERC721Base.sol\":7419:7483   */\n      0x04\n      dup3\n      add\n        /* \"#utility.yul\":17232:17253   */\n      mstore\n        /* \"#utility.yul\":17289:17291   */\n      0x0f\n        /* \"#utility.yul\":17269:17287   */\n      0x24\n      dup3\n      add\n        /* \"#utility.yul\":17262:17292   */\n      mstore\n        /* \"#utility.yul\":17328:17345   */\n      0x55524920616c7265616479207365740000000000000000000000000000000000\n        /* \"#utility.yul\":17308:17326   */\n      0x44\n      dup3\n      add\n        /* \"#utility.yul\":17301:17346   */\n      mstore\n        /* \"#utility.yul\":17363:17381   */\n      0x64\n      add\n        /* \"@thirdweb-dev/contracts/base/ERC721Base.sol\":7419:7483   */\n      tag_225\n        /* \"#utility.yul\":17048:17387   */\n      jump\n        /* \"@thirdweb-dev/contracts/base/ERC721Base.sol\":7419:7483   */\n    tag_479:\n        /* \"@thirdweb-dev/contracts/base/ERC721Base.sol\":7493:7510   */\n      0x00\n      dup3\n      dup2\n      mstore\n        /* \"@thirdweb-dev/contracts/base/ERC721Base.sol\":7493:7500   */\n      0x0f\n        /* \"@thirdweb-dev/contracts/base/ERC721Base.sol\":7493:7510   */\n      0x20\n      mstore\n      0x40\n      swap1\n      keccak256\n        /* \"@thirdweb-dev/contracts/base/ERC721Base.sol\":7493:7522   */\n      tag_274\n        /* \"@thirdweb-dev/contracts/base/ERC721Base.sol\":7513:7522   */\n      dup3\n        /* \"@thirdweb-dev/contracts/base/ERC721Base.sol\":7493:7510   */\n      dup3\n        /* \"@thirdweb-dev/contracts/base/ERC721Base.sol\":7493:7522   */\n      tag_483\n      jump\t// in\n        /* \"@thirdweb-dev/contracts/eip/ERC721AVirtualApprove.sol\":10171:11849   */\n    tag_231:\n        /* \"@thirdweb-dev/contracts/eip/ERC721AVirtualApprove.sol\":10259:10279   */\n      0x00\n        /* \"@thirdweb-dev/contracts/eip/ERC721AVirtualApprove.sol\":10282:10295   */\n      sload\n      sub(shl(0xa0, 0x01), 0x01)\n        /* \"@thirdweb-dev/contracts/eip/ERC721AVirtualApprove.sol\":10309:10325   */\n      dup5\n      and\n        /* \"@thirdweb-dev/contracts/eip/ERC721AVirtualApprove.sol\":10305:10353   */\n      tag_485\n      jumpi\n        /* \"@thirdweb-dev/contracts/eip/ERC721AVirtualApprove.sol\":10334:10353   */\n      mload(0x40)\n      shl(0xe8, 0x2e0763)\n      dup2\n      mstore\n      0x04\n      add\n      mload(0x40)\n      dup1\n      swap2\n      sub\n      swap1\n      revert\n        /* \"@thirdweb-dev/contracts/eip/ERC721AVirtualApprove.sol\":10305:10353   */\n    tag_485:\n        /* \"@thirdweb-dev/contracts/eip/ERC721AVirtualApprove.sol\":10367:10375   */\n      dup3\n        /* \"@thirdweb-dev/contracts/eip/ERC721AVirtualApprove.sol\":10379:10380   */\n      0x00\n        /* \"@thirdweb-dev/contracts/eip/ERC721AVirtualApprove.sol\":10367:10380   */\n      sub\n        /* \"@thirdweb-dev/contracts/eip/ERC721AVirtualApprove.sol\":10363:10407   */\n      tag_486\n      jumpi\n        /* \"@thirdweb-dev/contracts/eip/ERC721AVirtualApprove.sol\":10389:10407   */\n      mload(0x40)\n      shl(0xe0, 0xb562e8dd)\n      dup2\n      mstore\n      0x04\n      add\n      mload(0x40)\n      dup1\n      swap2\n      sub\n      swap1\n      revert\n        /* \"@thirdweb-dev/contracts/eip/ERC721AVirtualApprove.sol\":10363:10407   */\n    tag_486:\n        /* \"@thirdweb-dev/contracts/eip/ERC721AVirtualApprove.sol\":10418:10479   */\n      tag_487\n        /* \"@thirdweb-dev/contracts/eip/ERC721AVirtualApprove.sol\":10448:10449   */\n      0x00\n        /* \"@thirdweb-dev/contracts/eip/ERC721AVirtualApprove.sol\":10452:10454   */\n      dup6\n        /* \"@thirdweb-dev/contracts/eip/ERC721AVirtualApprove.sol\":10456:10468   */\n      dup4\n        /* \"@thirdweb-dev/contracts/eip/ERC721AVirtualApprove.sol\":10470:10478   */\n      dup7\n        /* \"@thirdweb-dev/contracts/eip/ERC721AVirtualApprove.sol\":10418:10439   */\n      tag_488\n        /* \"@thirdweb-dev/contracts/eip/ERC721AVirtualApprove.sol\":10418:10479   */\n      jump\t// in\n    tag_487:\n      sub(shl(0xa0, 0x01), 0x01)\n        /* \"@thirdweb-dev/contracts/eip/ERC721AVirtualApprove.sol\":10750:10766   */\n      dup5\n      and\n      0x00\n      dup2\n      dup2\n      mstore\n        /* \"@thirdweb-dev/contracts/eip/ERC721AVirtualApprove.sol\":10750:10762   */\n      0x05\n        /* \"@thirdweb-dev/contracts/eip/ERC721AVirtualApprove.sol\":10750:10766   */\n      0x20\n      swap1\n      dup2\n      mstore\n      0x40\n      dup1\n      dup4\n      keccak256\n        /* \"@thirdweb-dev/contracts/eip/ERC721AVirtualApprove.sol\":10750:10794   */\n      dup1\n      sload\n      not(0xffffffffffffffffffffffffffffffff)\n        /* \"@thirdweb-dev/contracts/eip/ERC721AVirtualApprove.sol\":10808:10857   */\n      dup2\n      and\n        /* \"@thirdweb-dev/contracts/eip/ERC721AVirtualApprove.sol\":10750:10794   */\n      0xffffffffffffffff\n      dup1\n      dup4\n      and\n      dup12\n      add\n      dup2\n      and\n        /* \"@thirdweb-dev/contracts/eip/ERC721AVirtualApprove.sol\":10808:10857   */\n      swap2\n      dup3\n      or\n      0x010000000000000000\n      not(0xffffffffffffffff)\n        /* \"@thirdweb-dev/contracts/eip/ERC721AVirtualApprove.sol\":10750:10794   */\n      swap1\n      swap5\n      and\n      swap1\n      swap3\n      or\n        /* \"@thirdweb-dev/contracts/eip/ERC721AVirtualApprove.sol\":10808:10857   */\n      dup4\n      swap1\n      div\n      dup2\n      and\n      dup12\n      add\n      dup2\n      and\n      swap1\n      swap3\n      mul\n      or\n      swap1\n      swap2\n      sstore\n        /* \"@thirdweb-dev/contracts/eip/ERC721AVirtualApprove.sol\":10872:10897   */\n      dup6\n      dup5\n      mstore\n        /* \"@thirdweb-dev/contracts/eip/ERC721AVirtualApprove.sol\":10872:10883   */\n      0x04\n        /* \"@thirdweb-dev/contracts/eip/ERC721AVirtualApprove.sol\":10872:10897   */\n      swap1\n      swap3\n      mstore\n      swap1\n      swap2\n      keccak256\n        /* \"@thirdweb-dev/contracts/eip/ERC721AVirtualApprove.sol\":10872:10907   */\n      dup1\n      sload\n      not(sub(shl(0xe0, 0x01), 0x01))\n        /* \"@thirdweb-dev/contracts/eip/ERC721AVirtualApprove.sol\":10921:10987   */\n      and\n      dup4\n      or\n      shl(0xa0, 0x01)\n        /* \"@thirdweb-dev/contracts/eip/ERC721AVirtualApprove.sol\":10971:10986   */\n      timestamp\n        /* \"@thirdweb-dev/contracts/eip/ERC721AVirtualApprove.sol\":10921:10987   */\n      swap1\n      swap4\n      and\n      swap3\n      swap1\n      swap3\n      mul\n      swap2\n      swap1\n      swap2\n      or\n      swap1\n      sstore\n        /* \"@thirdweb-dev/contracts/eip/ERC721AVirtualApprove.sol\":10872:10897   */\n      dup2\n      swap1\n        /* \"@thirdweb-dev/contracts/eip/ERC721AVirtualApprove.sol\":11065:11088   */\n      dup2\n      dup6\n      add\n      swap1\n        /* \"@thirdweb-dev/contracts/lib/Address.sol\":1695:1714   */\n      extcodesize\n        /* \"@thirdweb-dev/contracts/lib/Address.sol\":1695:1718   */\n      iszero\n        /* \"@thirdweb-dev/contracts/eip/ERC721AVirtualApprove.sol\":11103:11721   */\n      tag_490\n      jumpi\n        /* \"@thirdweb-dev/contracts/eip/ERC721AVirtualApprove.sol\":11142:11450   */\n    tag_491:\n        /* \"@thirdweb-dev/contracts/eip/ERC721AVirtualApprove.sol\":11172:11210   */\n      mload(0x40)\n        /* \"@thirdweb-dev/contracts/eip/ERC721AVirtualApprove.sol\":11197:11209   */\n      dup3\n      swap1\n      sub(shl(0xa0, 0x01), 0x01)\n        /* \"@thirdweb-dev/contracts/eip/ERC721AVirtualApprove.sol\":11172:11210   */\n      dup9\n      and\n      swap1\n        /* \"@thirdweb-dev/contracts/eip/ERC721AVirtualApprove.sol\":11189:11190   */\n      0x00\n      swap1\n        /* \"@thirdweb-dev/contracts/eip/ERC721AVirtualApprove.sol\":11172:11210   */\n      0xddf252ad1be2c89b69c2b068fc378daa952ba7f163c4a11628f55a4df523b3ef\n      swap1\n        /* \"@thirdweb-dev/contracts/eip/ERC721AVirtualApprove.sol\":11189:11190   */\n      dup3\n      swap1\n        /* \"@thirdweb-dev/contracts/eip/ERC721AVirtualApprove.sol\":11172:11210   */\n      log4\n        /* \"@thirdweb-dev/contracts/eip/ERC721AVirtualApprove.sol\":11237:11306   */\n      tag_494\n        /* \"@thirdweb-dev/contracts/eip/ERC721AVirtualApprove.sol\":11276:11277   */\n      0x00\n        /* \"@thirdweb-dev/contracts/eip/ERC721AVirtualApprove.sol\":11280:11282   */\n      dup8\n        /* \"@thirdweb-dev/contracts/eip/ERC721AVirtualApprove.sol\":11284:11298   */\n      dup5\n      dup1\n      0x01\n      add\n      swap6\n      pop\n        /* \"@thirdweb-dev/contracts/eip/ERC721AVirtualApprove.sol\":11300:11305   */\n      dup8\n        /* \"@thirdweb-dev/contracts/eip/ERC721AVirtualApprove.sol\":11237:11267   */\n      tag_437\n        /* \"@thirdweb-dev/contracts/eip/ERC721AVirtualApprove.sol\":11237:11306   */\n      jump\t// in\n    tag_494:\n        /* \"@thirdweb-dev/contracts/eip/ERC721AVirtualApprove.sol\":11232:11404   */\n      tag_495\n      jumpi\n        /* \"@thirdweb-dev/contracts/eip/ERC721AVirtualApprove.sol\":11341:11381   */\n      mload(0x40)\n      shl(0xe1, 0x68d2bf6b)\n      dup2\n      mstore\n      0x04\n      add\n      mload(0x40)\n      dup1\n      swap2\n      sub\n      swap1\n      revert\n        /* \"@thirdweb-dev/contracts/eip/ERC721AVirtualApprove.sol\":11232:11404   */\n    tag_495:\n        /* \"@thirdweb-dev/contracts/eip/ERC721AVirtualApprove.sol\":11445:11448   */\n      dup1\n        /* \"@thirdweb-dev/contracts/eip/ERC721AVirtualApprove.sol\":11430:11442   */\n      dup3\n        /* \"@thirdweb-dev/contracts/eip/ERC721AVirtualApprove.sol\":11430:11448   */\n      lt\n        /* \"@thirdweb-dev/contracts/eip/ERC721AVirtualApprove.sol\":11142:11450   */\n      tag_491\n      jumpi\n        /* \"@thirdweb-dev/contracts/eip/ERC721AVirtualApprove.sol\":11529:11541   */\n      dup3\n        /* \"@thirdweb-dev/contracts/eip/ERC721AVirtualApprove.sol\":11512:11525   */\n      sload(0x00)\n        /* \"@thirdweb-dev/contracts/eip/ERC721AVirtualApprove.sol\":11512:11541   */\n      eq\n        /* \"@thirdweb-dev/contracts/eip/ERC721AVirtualApprove.sol\":11508:11551   */\n      tag_496\n      jumpi\n        /* \"@thirdweb-dev/contracts/eip/ERC721AVirtualApprove.sol\":11543:11551   */\n      0x00\n      dup1\n      revert\n        /* \"@thirdweb-dev/contracts/eip/ERC721AVirtualApprove.sol\":11508:11551   */\n    tag_496:\n        /* \"@thirdweb-dev/contracts/eip/ERC721AVirtualApprove.sol\":11103:11721   */\n      jump(tag_497)\n    tag_490:\n        /* \"@thirdweb-dev/contracts/eip/ERC721AVirtualApprove.sol\":11590:11707   */\n    tag_498:\n        /* \"@thirdweb-dev/contracts/eip/ERC721AVirtualApprove.sol\":11620:11660   */\n      mload(0x40)\n        /* \"@thirdweb-dev/contracts/eip/ERC721AVirtualApprove.sol\":11645:11659   */\n      0x01\n      dup4\n      add\n      swap3\n      swap1\n      sub(shl(0xa0, 0x01), 0x01)\n        /* \"@thirdweb-dev/contracts/eip/ERC721AVirtualApprove.sol\":11620:11660   */\n      dup9\n      and\n      swap1\n        /* \"@thirdweb-dev/contracts/eip/ERC721AVirtualApprove.sol\":11637:11638   */\n      0x00\n      swap1\n        /* \"@thirdweb-dev/contracts/eip/ERC721AVirtualApprove.sol\":11620:11660   */\n      0xddf252ad1be2c89b69c2b068fc378daa952ba7f163c4a11628f55a4df523b3ef\n      swap1\n        /* \"@thirdweb-dev/contracts/eip/ERC721AVirtualApprove.sol\":11637:11638   */\n      dup3\n      swap1\n        /* \"@thirdweb-dev/contracts/eip/ERC721AVirtualApprove.sol\":11620:11660   */\n      log4\n        /* \"@thirdweb-dev/contracts/eip/ERC721AVirtualApprove.sol\":11702:11705   */\n      dup1\n        /* \"@thirdweb-dev/contracts/eip/ERC721AVirtualApprove.sol\":11687:11699   */\n      dup3\n        /* \"@thirdweb-dev/contracts/eip/ERC721AVirtualApprove.sol\":11687:11705   */\n      lt\n        /* \"@thirdweb-dev/contracts/eip/ERC721AVirtualApprove.sol\":11590:11707   */\n      tag_498\n      jumpi\n        /* \"@thirdweb-dev/contracts/eip/ERC721AVirtualApprove.sol\":11103:11721   */\n    tag_497:\n      pop\n        /* \"@thirdweb-dev/contracts/eip/ERC721AVirtualApprove.sol\":11734:11747   */\n      0x00\n        /* \"@thirdweb-dev/contracts/eip/ERC721AVirtualApprove.sol\":11734:11762   */\n      swap1\n      dup2\n      sstore\n        /* \"@thirdweb-dev/contracts/eip/ERC721AVirtualApprove.sol\":11782:11842   */\n      tag_340\n      swap1\n        /* \"@thirdweb-dev/contracts/eip/ERC721AVirtualApprove.sol\":11815:11817   */\n      dup6\n        /* \"@thirdweb-dev/contracts/eip/ERC721AVirtualApprove.sol\":11819:11831   */\n      dup4\n        /* \"@thirdweb-dev/contracts/eip/ERC721AVirtualApprove.sol\":11833:11841   */\n      dup7\n        /* \"@thirdweb-dev/contracts/eip/ERC721AVirtualApprove.sol\":11782:11842   */\n      dup5\n      jump\t// in\n        /* \"@thirdweb-dev/contracts/eip/ERC721AVirtualApprove.sol\":9458:9630   */\n    tag_259:\n        /* \"@thirdweb-dev/contracts/eip/ERC721AVirtualApprove.sol\":9515:9519   */\n      0x00\n        /* \"@thirdweb-dev/contracts/eip/ERC721AVirtualApprove.sol\":9578:9591   */\n      dup1\n      sload\n        /* \"@thirdweb-dev/contracts/eip/ERC721AVirtualApprove.sol\":9568:9575   */\n      dup3\n        /* \"@thirdweb-dev/contracts/eip/ERC721AVirtualApprove.sol\":9568:9591   */\n      lt\n        /* \"@thirdweb-dev/contracts/eip/ERC721AVirtualApprove.sol\":9538:9623   */\n      dup1\n      iszero\n      tag_235\n      jumpi\n      pop\n      pop\n        /* \"@thirdweb-dev/contracts/eip/ERC721AVirtualApprove.sol\":9596:9616   */\n      0x00\n      swap1\n      dup2\n      mstore\n        /* \"@thirdweb-dev/contracts/eip/ERC721AVirtualApprove.sol\":9596:9607   */\n      0x04\n        /* \"@thirdweb-dev/contracts/eip/ERC721AVirtualApprove.sol\":9596:9616   */\n      0x20\n      mstore\n      0x40\n      swap1\n      keccak256\n        /* \"@thirdweb-dev/contracts/eip/ERC721AVirtualApprove.sol\":9596:9623   */\n      sload\n      shl(0xe0, 0x01)\n      swap1\n      div\n      0xff\n      and\n        /* \"@thirdweb-dev/contracts/eip/ERC721AVirtualApprove.sol\":9595:9623   */\n      iszero\n      swap1\n        /* \"@thirdweb-dev/contracts/eip/ERC721AVirtualApprove.sol\":9458:9630   */\n      jump\t// out\n        /* \"@thirdweb-dev/contracts/extension/Ownable.sol\":1527:1699   */\n    tag_269:\n        /* \"@thirdweb-dev/contracts/extension/Ownable.sol\":1607:1613   */\n      0x09\n      dup1\n      sload\n      sub(shl(0xa0, 0x01), 0x01)\n        /* \"@thirdweb-dev/contracts/extension/Ownable.sol\":1623:1641   */\n      dup4\n      dup2\n      and\n      not(0xffffffffffffffffffffffffffffffffffffffff)\n      dup4\n      and\n      dup2\n      or\n      swap1\n      swap4\n      sstore\n        /* \"@thirdweb-dev/contracts/extension/Ownable.sol\":1657:1692   */\n      mload(0x40)\n        /* \"@thirdweb-dev/contracts/extension/Ownable.sol\":1607:1613   */\n      swap2\n      and\n      swap2\n        /* \"@thirdweb-dev/contracts/extension/Ownable.sol\":1623:1641   */\n      swap1\n        /* \"@thirdweb-dev/contracts/extension/Ownable.sol\":1607:1613   */\n      dup3\n      swap1\n        /* \"@thirdweb-dev/contracts/extension/Ownable.sol\":1657:1692   */\n      0x8292fce18fa69edf4db7b94ea2e58241df0ae57f97e0a6c9b29067028bf92d76\n      swap1\n        /* \"@thirdweb-dev/contracts/extension/Ownable.sol\":1586:1604   */\n      0x00\n      swap1\n        /* \"@thirdweb-dev/contracts/extension/Ownable.sol\":1657:1692   */\n      log3\n        /* \"@thirdweb-dev/contracts/extension/Ownable.sol\":1576:1699   */\n      pop\n        /* \"@thirdweb-dev/contracts/extension/Ownable.sol\":1527:1699   */\n      pop\n      jump\t// out\n        /* \"@thirdweb-dev/contracts/eip/ERC721AVirtualApprove.sol\":13484:15536   */\n    tag_275:\n        /* \"@thirdweb-dev/contracts/eip/ERC721AVirtualApprove.sol\":13564:13599   */\n      0x00\n        /* \"@thirdweb-dev/contracts/eip/ERC721AVirtualApprove.sol\":13602:13623   */\n      tag_512\n        /* \"@thirdweb-dev/contracts/eip/ERC721AVirtualApprove.sol\":13615:13622   */\n      dup3\n        /* \"@thirdweb-dev/contracts/eip/ERC721AVirtualApprove.sol\":13602:13614   */\n      tag_329\n        /* \"@thirdweb-dev/contracts/eip/ERC721AVirtualApprove.sol\":13602:13623   */\n      jump\t// in\n    tag_512:\n        /* \"@thirdweb-dev/contracts/eip/ERC721AVirtualApprove.sol\":13564:13623   */\n      swap1\n      pop\n        /* \"@thirdweb-dev/contracts/eip/ERC721AVirtualApprove.sol\":13660:13664   */\n      dup4\n      sub(shl(0xa0, 0x01), 0x01)\n        /* \"@thirdweb-dev/contracts/eip/ERC721AVirtualApprove.sol\":13638:13664   */\n      and\n        /* \"@thirdweb-dev/contracts/eip/ERC721AVirtualApprove.sol\":13638:13651   */\n      dup2\n        /* \"@thirdweb-dev/contracts/eip/ERC721AVirtualApprove.sol\":13638:13656   */\n      0x00\n      add\n      mload\n      sub(shl(0xa0, 0x01), 0x01)\n        /* \"@thirdweb-dev/contracts/eip/ERC721AVirtualApprove.sol\":13638:13664   */\n      and\n      eq\n        /* \"@thirdweb-dev/contracts/eip/ERC721AVirtualApprove.sol\":13634:13701   */\n      tag_513\n      jumpi\n        /* \"@thirdweb-dev/contracts/eip/ERC721AVirtualApprove.sol\":13673:13701   */\n      mload(0x40)\n      shl(0xe8, 0xa11481)\n      dup2\n      mstore\n      0x04\n      add\n      mload(0x40)\n      dup1\n      swap2\n      sub\n      swap1\n      revert\n        /* \"@thirdweb-dev/contracts/eip/ERC721AVirtualApprove.sol\":13634:13701   */\n    tag_513:\n        /* \"@thirdweb-dev/contracts/eip/ERC721AVirtualApprove.sol\":13712:13734   */\n      0x00\n        /* \"@thirdweb-dev/contracts/base/ERC721Base.sol\":8521:8531   */\n      caller\n      sub(shl(0xa0, 0x01), 0x01)\n        /* \"@thirdweb-dev/contracts/eip/ERC721AVirtualApprove.sol\":13738:13758   */\n      dup7\n      and\n      eq\n      dup1\n        /* \"@thirdweb-dev/contracts/eip/ERC721AVirtualApprove.sol\":13738:13810   */\n      tag_516\n      jumpi\n      pop\n        /* \"@thirdweb-dev/contracts/eip/ERC721AVirtualApprove.sol\":13774:13810   */\n      tag_516\n        /* \"@thirdweb-dev/contracts/eip/ERC721AVirtualApprove.sol\":13791:13795   */\n      dup6\n        /* \"@thirdweb-dev/contracts/base/ERC721Base.sol\":8521:8531   */\n      caller\n        /* \"SertifikatDigital.sol\":1895:2032  function isApprovedForAll(address, address) public view virtual override(ERC721A, IERC721) returns (bool) {... */\n      tag_217\n      jump\t// in\n        /* \"@thirdweb-dev/contracts/eip/ERC721AVirtualApprove.sol\":13774:13810   */\n    tag_516:\n        /* \"@thirdweb-dev/contracts/eip/ERC721AVirtualApprove.sol\":13738:13862   */\n      dup1\n      tag_518\n      jumpi\n      pop\n        /* \"@thirdweb-dev/contracts/base/ERC721Base.sol\":8521:8531   */\n      caller\n        /* \"@thirdweb-dev/contracts/eip/ERC721AVirtualApprove.sol\":13826:13846   */\n      tag_520\n        /* \"@thirdweb-dev/contracts/eip/ERC721AVirtualApprove.sol\":13838:13845   */\n      dup5\n        /* \"@thirdweb-dev/contracts/eip/ERC721AVirtualApprove.sol\":13826:13837   */\n      tag_78\n        /* \"@thirdweb-dev/contracts/eip/ERC721AVirtualApprove.sol\":13826:13846   */\n      jump\t// in\n    tag_520:\n      sub(shl(0xa0, 0x01), 0x01)\n        /* \"@thirdweb-dev/contracts/eip/ERC721AVirtualApprove.sol\":13826:13862   */\n      and\n      eq\n        /* \"@thirdweb-dev/contracts/eip/ERC721AVirtualApprove.sol\":13738:13862   */\n    tag_518:\n        /* \"@thirdweb-dev/contracts/eip/ERC721AVirtualApprove.sol\":13712:13863   */\n      swap1\n      pop\n        /* \"@thirdweb-dev/contracts/eip/ERC721AVirtualApprove.sol\":13879:13896   */\n      dup1\n        /* \"@thirdweb-dev/contracts/eip/ERC721AVirtualApprove.sol\":13874:13940   */\n      tag_521\n      jumpi\n        /* \"@thirdweb-dev/contracts/eip/ERC721AVirtualApprove.sol\":13905:13940   */\n      mload(0x40)\n      shl(0xe1, 0x2ce44b5f)\n      dup2\n      mstore\n      0x04\n      add\n      mload(0x40)\n      dup1\n      swap2\n      sub\n      swap1\n      revert\n        /* \"@thirdweb-dev/contracts/eip/ERC721AVirtualApprove.sol\":13874:13940   */\n    tag_521:\n      sub(shl(0xa0, 0x01), 0x01)\n        /* \"@thirdweb-dev/contracts/eip/ERC721AVirtualApprove.sol\":13954:13970   */\n      dup5\n      and\n        /* \"@thirdweb-dev/contracts/eip/ERC721AVirtualApprove.sol\":13950:14002   */\n      tag_522\n      jumpi\n        /* \"@thirdweb-dev/contracts/eip/ERC721AVirtualApprove.sol\":13979:14002   */\n      mload(0x40)\n      shl(0xe2, 0x3a954ecd)\n      dup2\n      mstore\n      0x04\n      add\n      mload(0x40)\n      dup1\n      swap2\n      sub\n      swap1\n      revert\n        /* \"@thirdweb-dev/contracts/eip/ERC721AVirtualApprove.sol\":13950:14002   */\n    tag_522:\n        /* \"@thirdweb-dev/contracts/eip/ERC721AVirtualApprove.sol\":14013:14056   */\n      tag_523\n        /* \"@thirdweb-dev/contracts/eip/ERC721AVirtualApprove.sol\":14035:14039   */\n      dup6\n        /* \"@thirdweb-dev/contracts/eip/ERC721AVirtualApprove.sol\":14041:14043   */\n      dup6\n        /* \"@thirdweb-dev/contracts/eip/ERC721AVirtualApprove.sol\":14045:14052   */\n      dup6\n        /* \"@thirdweb-dev/contracts/eip/ERC721AVirtualApprove.sol\":14054:14055   */\n      0x01\n        /* \"@thirdweb-dev/contracts/eip/ERC721AVirtualApprove.sol\":14013:14034   */\n      tag_488\n        /* \"@thirdweb-dev/contracts/eip/ERC721AVirtualApprove.sol\":14013:14056   */\n      jump\t// in\n    tag_523:\n        /* \"@thirdweb-dev/contracts/eip/ERC721AVirtualApprove.sol\":14118:14153   */\n      tag_524\n        /* \"@thirdweb-dev/contracts/eip/ERC721AVirtualApprove.sol\":14135:14136   */\n      0x00\n        /* \"@thirdweb-dev/contracts/eip/ERC721AVirtualApprove.sol\":14139:14146   */\n      dup5\n        /* \"@thirdweb-dev/contracts/eip/ERC721AVirtualApprove.sol\":14148:14152   */\n      dup8\n        /* \"@thirdweb-dev/contracts/eip/ERC721AVirtualApprove.sol\":14118:14126   */\n      tag_525\n        /* \"@thirdweb-dev/contracts/eip/ERC721AVirtualApprove.sol\":14118:14153   */\n      jump\t// in\n    tag_524:\n      sub(shl(0xa0, 0x01), 0x01)\n        /* \"@thirdweb-dev/contracts/eip/ERC721AVirtualApprove.sol\":14443:14461   */\n      dup6\n      dup2\n      and\n      0x00\n      swap1\n      dup2\n      mstore\n        /* \"@thirdweb-dev/contracts/eip/ERC721AVirtualApprove.sol\":14443:14455   */\n      0x05\n        /* \"@thirdweb-dev/contracts/eip/ERC721AVirtualApprove.sol\":14443:14461   */\n      0x20\n      swap1\n      dup2\n      mstore\n      0x40\n      dup1\n      dup4\n      keccak256\n        /* \"@thirdweb-dev/contracts/eip/ERC721AVirtualApprove.sol\":14443:14474   */\n      dup1\n      sload\n      not(0xffffffffffffffff)\n      dup1\n      dup3\n      and\n      0xffffffffffffffff\n      swap3\n      dup4\n      and\n      not(0x00)\n      add\n      dup4\n      and\n      or\n      swap1\n      swap3\n      sstore\n        /* \"@thirdweb-dev/contracts/eip/ERC721AVirtualApprove.sol\":14488:14504   */\n      dup10\n      dup7\n      and\n      dup1\n      dup7\n      mstore\n      dup4\n      dup7\n      keccak256\n        /* \"@thirdweb-dev/contracts/eip/ERC721AVirtualApprove.sol\":14488:14517   */\n      dup1\n      sload\n      swap4\n      dup5\n      and\n      swap4\n      dup4\n      and\n      0x01\n      swap1\n      dup2\n      add\n      dup5\n      and\n      swap5\n      swap1\n      swap5\n      or\n      swap1\n      sstore\n        /* \"@thirdweb-dev/contracts/eip/ERC721AVirtualApprove.sol\":14566:14586   */\n      dup10\n      dup7\n      mstore\n        /* \"@thirdweb-dev/contracts/eip/ERC721AVirtualApprove.sol\":14566:14577   */\n      0x04\n        /* \"@thirdweb-dev/contracts/eip/ERC721AVirtualApprove.sol\":14566:14586   */\n      swap1\n      swap5\n      mstore\n      dup3\n      dup6\n      keccak256\n        /* \"@thirdweb-dev/contracts/eip/ERC721AVirtualApprove.sol\":14600:14618   */\n      dup1\n      sload\n      not(sub(shl(0xe0, 0x01), 0x01))\n        /* \"@thirdweb-dev/contracts/eip/ERC721AVirtualApprove.sol\":14632:14681   */\n      and\n      swap1\n      swap5\n      or\n      shl(0xa0, 0x01)\n        /* \"@thirdweb-dev/contracts/eip/ERC721AVirtualApprove.sol\":14665:14680   */\n      timestamp\n        /* \"@thirdweb-dev/contracts/eip/ERC721AVirtualApprove.sol\":14632:14681   */\n      swap1\n      swap3\n      and\n      swap2\n      swap1\n      swap2\n      mul\n      or\n      dup4\n      sstore\n        /* \"@thirdweb-dev/contracts/eip/ERC721AVirtualApprove.sol\":14951:14962   */\n      dup8\n      add\n        /* \"@thirdweb-dev/contracts/eip/ERC721AVirtualApprove.sol\":15010:15034   */\n      dup1\n      dup5\n      mstore\n      swap3\n      keccak256\n        /* \"@thirdweb-dev/contracts/eip/ERC721AVirtualApprove.sol\":15052:15065   */\n      dup1\n      sload\n        /* \"@thirdweb-dev/contracts/eip/ERC721AVirtualApprove.sol\":14566:14586   */\n      swap2\n      swap4\n        /* \"@thirdweb-dev/contracts/eip/ERC721AVirtualApprove.sol\":15010:15034   */\n      swap1\n      swap2\n        /* \"@thirdweb-dev/contracts/eip/ERC721AVirtualApprove.sol\":15052:15065   */\n      and\n        /* \"@thirdweb-dev/contracts/eip/ERC721AVirtualApprove.sol\":15048:15425   */\n      tag_527\n      jumpi\n        /* \"@thirdweb-dev/contracts/eip/ERC721AVirtualApprove.sol\":15259:15272   */\n      sload(0x00)\n        /* \"@thirdweb-dev/contracts/eip/ERC721AVirtualApprove.sol\":15244:15255   */\n      dup3\n        /* \"@thirdweb-dev/contracts/eip/ERC721AVirtualApprove.sol\":15244:15272   */\n      eq\n        /* \"@thirdweb-dev/contracts/eip/ERC721AVirtualApprove.sol\":15240:15411   */\n      tag_527\n      jumpi\n        /* \"@thirdweb-dev/contracts/eip/ERC721AVirtualApprove.sol\":15296:15316   */\n      dup1\n      sload\n        /* \"@thirdweb-dev/contracts/eip/ERC721AVirtualApprove.sol\":15364:15392   */\n      0x20\n      dup7\n      add\n      mload\n        /* \"@thirdweb-dev/contracts/eip/ERC721AVirtualApprove.sol\":15338:15392   */\n      0xffffffffffffffff\n      and\n      shl(0xa0, 0x01)\n      mul\n      not(sub(shl(0xe0, 0x01), 0x01))\n      swap1\n      swap2\n      and\n      sub(shl(0xa0, 0x01), 0x01)\n        /* \"@thirdweb-dev/contracts/eip/ERC721AVirtualApprove.sol\":15296:15316   */\n      dup11\n      and\n        /* \"@thirdweb-dev/contracts/eip/ERC721AVirtualApprove.sol\":15338:15392   */\n      or\n      or\n      dup2\n      sstore\n        /* \"@thirdweb-dev/contracts/eip/ERC721AVirtualApprove.sol\":15240:15411   */\n    tag_527:\n        /* \"@thirdweb-dev/contracts/eip/ERC721AVirtualApprove.sol\":14419:15435   */\n      pop\n      pop\n      pop\n        /* \"@thirdweb-dev/contracts/eip/ERC721AVirtualApprove.sol\":15469:15476   */\n      dup3\n        /* \"@thirdweb-dev/contracts/eip/ERC721AVirtualApprove.sol\":15465:15467   */\n      dup5\n      sub(shl(0xa0, 0x01), 0x01)\n        /* \"@thirdweb-dev/contracts/eip/ERC721AVirtualApprove.sol\":15450:15477   */\n      and\n        /* \"@thirdweb-dev/contracts/eip/ERC721AVirtualApprove.sol\":15459:15463   */\n      dup7\n      sub(shl(0xa0, 0x01), 0x01)\n        /* \"@thirdweb-dev/contracts/eip/ERC721AVirtualApprove.sol\":15450:15477   */\n      and\n      0xddf252ad1be2c89b69c2b068fc378daa952ba7f163c4a11628f55a4df523b3ef\n      mload(0x40)\n      mload(0x40)\n      dup1\n      swap2\n      sub\n      swap1\n      log4\n        /* \"@thirdweb-dev/contracts/eip/ERC721AVirtualApprove.sol\":15487:15529   */\n    tag_528:\n        /* \"@thirdweb-dev/contracts/eip/ERC721AVirtualApprove.sol\":13554:15536   */\n      pop\n      pop\n        /* \"@thirdweb-dev/contracts/eip/ERC721AVirtualApprove.sol\":13484:15536   */\n      pop\n      pop\n      pop\n      jump\t// out\n        /* \"@thirdweb-dev/contracts/eip/ERC721AVirtualApprove.sol\":15913:18268   */\n    tag_295:\n        /* \"@thirdweb-dev/contracts/eip/ERC721AVirtualApprove.sol\":15992:16027   */\n      0x00\n        /* \"@thirdweb-dev/contracts/eip/ERC721AVirtualApprove.sol\":16030:16051   */\n      tag_530\n        /* \"@thirdweb-dev/contracts/eip/ERC721AVirtualApprove.sol\":16043:16050   */\n      dup4\n        /* \"@thirdweb-dev/contracts/eip/ERC721AVirtualApprove.sol\":16030:16042   */\n      tag_329\n        /* \"@thirdweb-dev/contracts/eip/ERC721AVirtualApprove.sol\":16030:16051   */\n      jump\t// in\n    tag_530:\n        /* \"@thirdweb-dev/contracts/eip/ERC721AVirtualApprove.sol\":16077:16095   */\n      dup1\n      mload\n        /* \"@thirdweb-dev/contracts/eip/ERC721AVirtualApprove.sol\":15992:16051   */\n      swap1\n      swap2\n      pop\n        /* \"@thirdweb-dev/contracts/eip/ERC721AVirtualApprove.sol\":16106:16390   */\n      dup3\n      iszero\n      tag_531\n      jumpi\n        /* \"@thirdweb-dev/contracts/eip/ERC721AVirtualApprove.sol\":16139:16161   */\n      0x00\n        /* \"@thirdweb-dev/contracts/base/ERC721Base.sol\":8521:8531   */\n      caller\n      sub(shl(0xa0, 0x01), 0x01)\n        /* \"@thirdweb-dev/contracts/eip/ERC721AVirtualApprove.sol\":16165:16185   */\n      dup4\n      and\n      eq\n      dup1\n        /* \"@thirdweb-dev/contracts/eip/ERC721AVirtualApprove.sol\":16165:16241   */\n      tag_534\n      jumpi\n      pop\n        /* \"@thirdweb-dev/contracts/eip/ERC721AVirtualApprove.sol\":16205:16241   */\n      tag_534\n        /* \"@thirdweb-dev/contracts/eip/ERC721AVirtualApprove.sol\":16222:16226   */\n      dup3\n        /* \"@thirdweb-dev/contracts/base/ERC721Base.sol\":8521:8531   */\n      caller\n        /* \"SertifikatDigital.sol\":1895:2032  function isApprovedForAll(address, address) public view virtual override(ERC721A, IERC721) returns (bool) {... */\n      tag_217\n      jump\t// in\n        /* \"@thirdweb-dev/contracts/eip/ERC721AVirtualApprove.sol\":16205:16241   */\n    tag_534:\n        /* \"@thirdweb-dev/contracts/eip/ERC721AVirtualApprove.sol\":16165:16297   */\n      dup1\n      tag_536\n      jumpi\n      pop\n        /* \"@thirdweb-dev/contracts/base/ERC721Base.sol\":8521:8531   */\n      caller\n        /* \"@thirdweb-dev/contracts/eip/ERC721AVirtualApprove.sol\":16261:16281   */\n      tag_538\n        /* \"@thirdweb-dev/contracts/eip/ERC721AVirtualApprove.sol\":16273:16280   */\n      dup7\n        /* \"@thirdweb-dev/contracts/eip/ERC721AVirtualApprove.sol\":16261:16272   */\n      tag_78\n        /* \"@thirdweb-dev/contracts/eip/ERC721AVirtualApprove.sol\":16261:16281   */\n      jump\t// in\n    tag_538:\n      sub(shl(0xa0, 0x01), 0x01)\n        /* \"@thirdweb-dev/contracts/eip/ERC721AVirtualApprove.sol\":16261:16297   */\n      and\n      eq\n        /* \"@thirdweb-dev/contracts/eip/ERC721AVirtualApprove.sol\":16165:16297   */\n    tag_536:\n        /* \"@thirdweb-dev/contracts/eip/ERC721AVirtualApprove.sol\":16139:16298   */\n      swap1\n      pop\n        /* \"@thirdweb-dev/contracts/eip/ERC721AVirtualApprove.sol\":16318:16335   */\n      dup1\n        /* \"@thirdweb-dev/contracts/eip/ERC721AVirtualApprove.sol\":16313:16379   */\n      tag_539\n      jumpi\n        /* \"@thirdweb-dev/contracts/eip/ERC721AVirtualApprove.sol\":16344:16379   */\n      mload(0x40)\n      shl(0xe1, 0x2ce44b5f)\n      dup2\n      mstore\n      0x04\n      add\n      mload(0x40)\n      dup1\n      swap2\n      sub\n      swap1\n      revert\n        /* \"@thirdweb-dev/contracts/eip/ERC721AVirtualApprove.sol\":16313:16379   */\n    tag_539:\n        /* \"@thirdweb-dev/contracts/eip/ERC721AVirtualApprove.sol\":16125:16390   */\n      pop\n        /* \"@thirdweb-dev/contracts/eip/ERC721AVirtualApprove.sol\":16106:16390   */\n    tag_531:\n        /* \"@thirdweb-dev/contracts/eip/ERC721AVirtualApprove.sol\":16400:16451   */\n      tag_540\n        /* \"@thirdweb-dev/contracts/eip/ERC721AVirtualApprove.sol\":16422:16426   */\n      dup2\n        /* \"@thirdweb-dev/contracts/eip/ERC721AVirtualApprove.sol\":16436:16437   */\n      0x00\n        /* \"@thirdweb-dev/contracts/eip/ERC721AVirtualApprove.sol\":16440:16447   */\n      dup7\n        /* \"@thirdweb-dev/contracts/eip/ERC721AVirtualApprove.sol\":16449:16450   */\n      0x01\n        /* \"@thirdweb-dev/contracts/eip/ERC721AVirtualApprove.sol\":16400:16421   */\n      tag_488\n        /* \"@thirdweb-dev/contracts/eip/ERC721AVirtualApprove.sol\":16400:16451   */\n      jump\t// in\n    tag_540:\n        /* \"@thirdweb-dev/contracts/eip/ERC721AVirtualApprove.sol\":16513:16548   */\n      tag_541\n        /* \"@thirdweb-dev/contracts/eip/ERC721AVirtualApprove.sol\":16530:16531   */\n      0x00\n        /* \"@thirdweb-dev/contracts/eip/ERC721AVirtualApprove.sol\":16534:16541   */\n      dup6\n        /* \"@thirdweb-dev/contracts/eip/ERC721AVirtualApprove.sol\":16543:16547   */\n      dup4\n        /* \"@thirdweb-dev/contracts/eip/ERC721AVirtualApprove.sol\":16513:16521   */\n      tag_525\n        /* \"@thirdweb-dev/contracts/eip/ERC721AVirtualApprove.sol\":16513:16548   */\n      jump\t// in\n    tag_541:\n      sub(shl(0xa0, 0x01), 0x01)\n        /* \"@thirdweb-dev/contracts/eip/ERC721AVirtualApprove.sol\":16872:16890   */\n      dup1\n      dup3\n      and\n        /* \"@thirdweb-dev/contracts/eip/ERC721AVirtualApprove.sol\":16838:16869   */\n      0x00\n        /* \"@thirdweb-dev/contracts/eip/ERC721AVirtualApprove.sol\":16872:16890   */\n      dup2\n      dup2\n      mstore\n        /* \"@thirdweb-dev/contracts/eip/ERC721AVirtualApprove.sol\":16872:16884   */\n      0x05\n        /* \"@thirdweb-dev/contracts/eip/ERC721AVirtualApprove.sol\":16872:16890   */\n      0x20\n      swap1\n      dup2\n      mstore\n      0x40\n      dup1\n      dup4\n      keccak256\n        /* \"@thirdweb-dev/contracts/eip/ERC721AVirtualApprove.sol\":16904:16928   */\n      dup1\n      sload\n        /* \"@thirdweb-dev/contracts/eip/ERC721AVirtualApprove.sol\":16942:16971   */\n      0x0100000000000000000000000000000000\n      not(0x00)\n        /* \"@thirdweb-dev/contracts/eip/ERC721AVirtualApprove.sol\":16904:16928   */\n      0xffffffffffffffff\n      dup1\n      dup5\n      and\n      swap2\n      swap1\n      swap2\n      add\n      dup2\n      and\n      not(0xffffffffffffffff)\n      dup5\n      and\n      dup2\n      or\n        /* \"@thirdweb-dev/contracts/eip/ERC721AVirtualApprove.sol\":16942:16971   */\n      dup4\n      swap1\n      div\n      dup3\n      and\n        /* \"@thirdweb-dev/contracts/eip/ERC721AVirtualApprove.sol\":16927:16928   */\n      0x01\n        /* \"@thirdweb-dev/contracts/eip/ERC721AVirtualApprove.sol\":16942:16971   */\n      swap1\n      dup2\n      add\n      dup4\n      and\n      swap1\n      swap4\n      mul\n      0xffffffffffffffff0000000000000000ffffffffffffffff0000000000000000\n      swap1\n      swap5\n      and\n      or\n      swap3\n      swap1\n      swap3\n      or\n      dup4\n      sstore\n        /* \"@thirdweb-dev/contracts/eip/ERC721AVirtualApprove.sol\":17101:17121   */\n      dup12\n      dup7\n      mstore\n        /* \"@thirdweb-dev/contracts/eip/ERC721AVirtualApprove.sol\":17101:17112   */\n      0x04\n        /* \"@thirdweb-dev/contracts/eip/ERC721AVirtualApprove.sol\":17101:17121   */\n      swap1\n      swap5\n      mstore\n      dup3\n      dup6\n      keccak256\n        /* \"@thirdweb-dev/contracts/eip/ERC721AVirtualApprove.sol\":17135:17155   */\n      dup1\n      sload\n        /* \"@thirdweb-dev/contracts/eip/ERC721AVirtualApprove.sol\":17232:17254   */\n      0xffffff00ffffffffffffffffffffffffffffffffffffffffffffffffffffffff\n        /* \"@thirdweb-dev/contracts/eip/ERC721AVirtualApprove.sol\":17202:17217   */\n      timestamp\n        /* \"@thirdweb-dev/contracts/eip/ERC721AVirtualApprove.sol\":17169:17218   */\n      swap1\n      swap4\n      and\n      shl(0xa0, 0x01)\n      mul\n      not(sub(shl(0xe0, 0x01), 0x01))\n      swap1\n      swap2\n      and\n      swap1\n      swap8\n      or\n      swap7\n      swap1\n      swap7\n      or\n        /* \"@thirdweb-dev/contracts/eip/ERC721AVirtualApprove.sol\":17232:17254   */\n      and\n      shl(0xe0, 0x01)\n      or\n      dup6\n      sstore\n        /* \"@thirdweb-dev/contracts/eip/ERC721AVirtualApprove.sol\":17520:17531   */\n      swap2\n      dup10\n      add\n        /* \"@thirdweb-dev/contracts/eip/ERC721AVirtualApprove.sol\":17579:17603   */\n      dup1\n      dup5\n      mstore\n      swap3\n      keccak256\n        /* \"@thirdweb-dev/contracts/eip/ERC721AVirtualApprove.sol\":17621:17634   */\n      dup1\n      sload\n        /* \"@thirdweb-dev/contracts/eip/ERC721AVirtualApprove.sol\":16872:16890   */\n      swap2\n      swap5\n        /* \"@thirdweb-dev/contracts/eip/ERC721AVirtualApprove.sol\":17579:17603   */\n      swap1\n      swap2\n        /* \"@thirdweb-dev/contracts/eip/ERC721AVirtualApprove.sol\":17621:17634   */\n      and\n        /* \"@thirdweb-dev/contracts/eip/ERC721AVirtualApprove.sol\":17617:17994   */\n      tag_543\n      jumpi\n        /* \"@thirdweb-dev/contracts/eip/ERC721AVirtualApprove.sol\":17828:17841   */\n      sload(0x00)\n        /* \"@thirdweb-dev/contracts/eip/ERC721AVirtualApprove.sol\":17813:17824   */\n      dup3\n        /* \"@thirdweb-dev/contracts/eip/ERC721AVirtualApprove.sol\":17813:17841   */\n      eq\n        /* \"@thirdweb-dev/contracts/eip/ERC721AVirtualApprove.sol\":17809:17980   */\n      tag_543\n      jumpi\n        /* \"@thirdweb-dev/contracts/eip/ERC721AVirtualApprove.sol\":17865:17885   */\n      dup1\n      sload\n        /* \"@thirdweb-dev/contracts/eip/ERC721AVirtualApprove.sol\":17933:17961   */\n      0x20\n      dup8\n      add\n      mload\n        /* \"@thirdweb-dev/contracts/eip/ERC721AVirtualApprove.sol\":17907:17961   */\n      0xffffffffffffffff\n      and\n      shl(0xa0, 0x01)\n      mul\n      not(sub(shl(0xe0, 0x01), 0x01))\n      swap1\n      swap2\n      and\n      sub(shl(0xa0, 0x01), 0x01)\n        /* \"@thirdweb-dev/contracts/eip/ERC721AVirtualApprove.sol\":17865:17885   */\n      dup8\n      and\n        /* \"@thirdweb-dev/contracts/eip/ERC721AVirtualApprove.sol\":17907:17961   */\n      or\n      or\n      dup2\n      sstore\n        /* \"@thirdweb-dev/contracts/eip/ERC721AVirtualApprove.sol\":17809:17980   */\n    tag_543:\n      pop\n      pop\n        /* \"@thirdweb-dev/contracts/eip/ERC721AVirtualApprove.sol\":18019:18054   */\n      mload(0x40)\n        /* \"@thirdweb-dev/contracts/eip/ERC721AVirtualApprove.sol\":18046:18053   */\n      dup7\n      swap3\n      pop\n        /* \"@thirdweb-dev/contracts/eip/ERC721AVirtualApprove.sol\":18042:18043   */\n      0x00\n      swap2\n      pop\n      sub(shl(0xa0, 0x01), 0x01)\n        /* \"@thirdweb-dev/contracts/eip/ERC721AVirtualApprove.sol\":18019:18054   */\n      dup5\n      and\n      swap1\n      0xddf252ad1be2c89b69c2b068fc378daa952ba7f163c4a11628f55a4df523b3ef\n      swap1\n        /* \"@thirdweb-dev/contracts/eip/ERC721AVirtualApprove.sol\":18042:18043   */\n      dup4\n      swap1\n        /* \"@thirdweb-dev/contracts/eip/ERC721AVirtualApprove.sol\":18019:18054   */\n      log4\n      pop\n      pop\n        /* \"@thirdweb-dev/contracts/eip/ERC721AVirtualApprove.sol\":18237:18249   */\n      0x01\n        /* \"@thirdweb-dev/contracts/eip/ERC721AVirtualApprove.sol\":18237:18251   */\n      dup1\n      sload\n      dup2\n      add\n      swap1\n      sstore\n      pop\n      pop\n        /* \"@thirdweb-dev/contracts/eip/ERC721AVirtualApprove.sol\":15913:18268   */\n      jump\t// out\n        /* \"@thirdweb-dev/contracts/extension/Royalty.sol\":3717:4078   */\n    tag_326:\n        /* \"@thirdweb-dev/contracts/extension/Royalty.sol\":3836:3842   */\n      0x2710\n        /* \"@thirdweb-dev/contracts/extension/Royalty.sol\":3822:3833   */\n      dup2\n        /* \"@thirdweb-dev/contracts/extension/Royalty.sol\":3822:3842   */\n      gt\n        /* \"@thirdweb-dev/contracts/extension/Royalty.sol\":3818:3921   */\n      iszero\n      tag_548\n      jumpi\n        /* \"@thirdweb-dev/contracts/extension/Royalty.sol\":3865:3910   */\n      mload(0x40)\n      shl(0xe3, 0x0a4930ad)\n      dup2\n      mstore\n        /* \"@thirdweb-dev/contracts/extension/Royalty.sol\":3890:3896   */\n      0x2710\n        /* \"@thirdweb-dev/contracts/extension/Royalty.sol\":3865:3910   */\n      0x04\n      dup3\n      add\n        /* \"#utility.yul\":19748:19773   */\n      mstore\n        /* \"#utility.yul\":19789:19807   */\n      0x24\n      dup2\n      add\n        /* \"#utility.yul\":19782:19816   */\n      dup3\n      swap1\n      mstore\n        /* \"#utility.yul\":19721:19739   */\n      0x44\n      add\n        /* \"@thirdweb-dev/contracts/extension/Royalty.sol\":3865:3910   */\n      tag_225\n        /* \"#utility.yul\":19562:19822   */\n      jump\n        /* \"@thirdweb-dev/contracts/extension/Royalty.sol\":3818:3921   */\n    tag_548:\n        /* \"@thirdweb-dev/contracts/extension/Royalty.sol\":3931:3947   */\n      0x0a\n        /* \"@thirdweb-dev/contracts/extension/Royalty.sol\":3931:3967   */\n      dup1\n      sload\n      sub(shl(0xa0, 0x01), 0x01)\n      dup5\n      and\n        /* \"@thirdweb-dev/contracts/extension/Royalty.sol\":3977:4009   */\n      0xffffffffffffffffffff00000000000000000000000000000000000000000000\n      swap1\n      swap2\n      and\n      dup2\n      or\n      shl(0xa0, 0x01)\n      0xffff\n      dup6\n      and\n      mul\n      or\n      swap1\n      swap2\n      sstore\n        /* \"@thirdweb-dev/contracts/extension/Royalty.sol\":4025:4071   */\n      mload(0x40)\n        /* \"#utility.yul\":3695:3720   */\n      dup3\n      dup2\n      mstore\n        /* \"@thirdweb-dev/contracts/extension/Royalty.sol\":4025:4071   */\n      0x90d7ec04bcb8978719414f82e52e4cb651db41d0e6f8cea6118c2191e6183adb\n      swap1\n        /* \"#utility.yul\":3683:3685   */\n      0x20\n        /* \"#utility.yul\":3668:3686   */\n      add\n        /* \"@thirdweb-dev/contracts/extension/Royalty.sol\":4025:4071   */\n      mload(0x40)\n      dup1\n      swap2\n      sub\n      swap1\n      log2\n        /* \"@thirdweb-dev/contracts/extension/Royalty.sol\":3717:4078   */\n      pop\n      pop\n      jump\t// out\n        /* \"@thirdweb-dev/contracts/eip/ERC721AVirtualApprove.sol\":4713:5887   */\n    tag_329:\n      0x40\n      dup1\n      mload\n      0x60\n      dup2\n      add\n      dup3\n      mstore\n      0x00\n      dup1\n      dup3\n      mstore\n      0x20\n      dup3\n      add\n      dup2\n      swap1\n      mstore\n      swap2\n      dup2\n      add\n      swap2\n      swap1\n      swap2\n      mstore\n        /* \"@thirdweb-dev/contracts/eip/ERC721AVirtualApprove.sol\":4823:4830   */\n      dup2\n        /* \"@thirdweb-dev/contracts/eip/ERC721AVirtualApprove.sol\":4921:4934   */\n      sload(0x00)\n        /* \"@thirdweb-dev/contracts/eip/ERC721AVirtualApprove.sol\":4914:4918   */\n      dup2\n        /* \"@thirdweb-dev/contracts/eip/ERC721AVirtualApprove.sol\":4914:4934   */\n      lt\n        /* \"@thirdweb-dev/contracts/eip/ERC721AVirtualApprove.sol\":4910:5823   */\n      iszero\n      tag_556\n      jumpi\n        /* \"@thirdweb-dev/contracts/eip/ERC721AVirtualApprove.sol\":4958:4989   */\n      0x00\n        /* \"@thirdweb-dev/contracts/eip/ERC721AVirtualApprove.sol\":4992:5009   */\n      dup2\n      dup2\n      mstore\n        /* \"@thirdweb-dev/contracts/eip/ERC721AVirtualApprove.sol\":4992:5003   */\n      0x04\n        /* \"@thirdweb-dev/contracts/eip/ERC721AVirtualApprove.sol\":4992:5009   */\n      0x20\n      swap1\n      dup2\n      mstore\n      0x40\n      swap2\n      dup3\n      swap1\n      keccak256\n        /* \"@thirdweb-dev/contracts/eip/ERC721AVirtualApprove.sol\":4958:5009   */\n      dup3\n      mload\n      0x60\n      dup2\n      add\n      dup5\n      mstore\n      swap1\n      sload\n      sub(shl(0xa0, 0x01), 0x01)\n      dup2\n      and\n      dup3\n      mstore\n      shl(0xa0, 0x01)\n      dup2\n      div\n      0xffffffffffffffff\n      and\n      swap3\n      dup3\n      add\n      swap3\n      swap1\n      swap3\n      mstore\n      shl(0xe0, 0x01)\n      swap1\n      swap2\n      div\n      0xff\n      and\n      iszero\n      iszero\n      swap2\n      dup2\n      add\n      dup3\n      swap1\n      mstore\n      swap1\n        /* \"@thirdweb-dev/contracts/eip/ERC721AVirtualApprove.sol\":5031:5805   */\n      tag_560\n      jumpi\n        /* \"@thirdweb-dev/contracts/eip/ERC721AVirtualApprove.sol\":5084:5098   */\n      dup1\n      mload\n      sub(shl(0xa0, 0x01), 0x01)\n        /* \"@thirdweb-dev/contracts/eip/ERC721AVirtualApprove.sol\":5084:5112   */\n      and\n      iszero\n        /* \"@thirdweb-dev/contracts/eip/ERC721AVirtualApprove.sol\":5080:5187   */\n      tag_558\n      jumpi\n        /* \"@thirdweb-dev/contracts/eip/ERC721AVirtualApprove.sol\":5151:5160   */\n      swap4\n        /* \"@thirdweb-dev/contracts/eip/ERC721AVirtualApprove.sol\":4713:5887   */\n      swap3\n      pop\n      pop\n      pop\n      jump\t// out\n        /* \"@thirdweb-dev/contracts/eip/ERC721AVirtualApprove.sol\":5080:5187   */\n    tag_558:\n      pop\n      not(0x00)\n        /* \"@thirdweb-dev/contracts/eip/ERC721AVirtualApprove.sol\":5547:5553   */\n      add\n        /* \"@thirdweb-dev/contracts/eip/ERC721AVirtualApprove.sol\":5595:5612   */\n      0x00\n      dup2\n      dup2\n      mstore\n        /* \"@thirdweb-dev/contracts/eip/ERC721AVirtualApprove.sol\":5595:5606   */\n      0x04\n        /* \"@thirdweb-dev/contracts/eip/ERC721AVirtualApprove.sol\":5595:5612   */\n      0x20\n      swap1\n      dup2\n      mstore\n      0x40\n      swap2\n      dup3\n      swap1\n      keccak256\n        /* \"@thirdweb-dev/contracts/eip/ERC721AVirtualApprove.sol\":5583:5612   */\n      dup3\n      mload\n      0x60\n      dup2\n      add\n      dup5\n      mstore\n      swap1\n      sload\n      sub(shl(0xa0, 0x01), 0x01)\n      dup2\n      and\n      dup1\n      dup4\n      mstore\n      shl(0xa0, 0x01)\n      dup3\n      div\n      0xffffffffffffffff\n      and\n      swap4\n      dup4\n      add\n      swap4\n      swap1\n      swap4\n      mstore\n      shl(0xe0, 0x01)\n      swap1\n      div\n      0xff\n      and\n      iszero\n      iszero\n      swap3\n      dup2\n      add\n      swap3\n      swap1\n      swap3\n      mstore\n        /* \"@thirdweb-dev/contracts/eip/ERC721AVirtualApprove.sol\":5646:5674   */\n      iszero\n        /* \"@thirdweb-dev/contracts/eip/ERC721AVirtualApprove.sol\":5642:5757   */\n      tag_561\n      jumpi\n        /* \"@thirdweb-dev/contracts/eip/ERC721AVirtualApprove.sol\":5717:5726   */\n      swap4\n        /* \"@thirdweb-dev/contracts/eip/ERC721AVirtualApprove.sol\":4713:5887   */\n      swap3\n      pop\n      pop\n      pop\n      jump\t// out\n        /* \"@thirdweb-dev/contracts/eip/ERC721AVirtualApprove.sol\":5642:5757   */\n    tag_561:\n        /* \"@thirdweb-dev/contracts/eip/ERC721AVirtualApprove.sol\":5504:5783   */\n      jump(tag_558)\n    tag_560:\n        /* \"@thirdweb-dev/contracts/eip/ERC721AVirtualApprove.sol\":4936:5823   */\n      pop\n        /* \"@thirdweb-dev/contracts/eip/ERC721AVirtualApprove.sol\":4910:5823   */\n    tag_556:\n        /* \"@thirdweb-dev/contracts/eip/ERC721AVirtualApprove.sol\":5849:5880   */\n      mload(0x40)\n      shl(0xe1, 0x6f96cda1)\n      dup2\n      mstore\n      0x04\n      add\n      mload(0x40)\n      dup1\n      swap2\n      sub\n      swap1\n      revert\n        /* \"@thirdweb-dev/contracts/extension/BatchMintMetadata.sol\":4992:5354   */\n    tag_339:\n        /* \"@thirdweb-dev/contracts/extension/BatchMintMetadata.sol\":5142:5167   */\n      0x00\n      dup1\n        /* \"@thirdweb-dev/contracts/extension/BatchMintMetadata.sol\":5206:5230   */\n      tag_563\n        /* \"@thirdweb-dev/contracts/extension/BatchMintMetadata.sol\":5217:5230   */\n      dup5\n        /* \"@thirdweb-dev/contracts/extension/BatchMintMetadata.sol\":5206:5214   */\n      dup7\n        /* \"@thirdweb-dev/contracts/extension/BatchMintMetadata.sol\":5206:5230   */\n      tag_564\n      jump\t// in\n    tag_563:\n        /* \"@thirdweb-dev/contracts/extension/BatchMintMetadata.sol\":5278:5286   */\n      0x0c\n        /* \"@thirdweb-dev/contracts/extension/BatchMintMetadata.sol\":5278:5300   */\n      dup1\n      sload\n      0x01\n      dup2\n      add\n      swap1\n      swap2\n      sstore\n      0xdf6966c971051c3d54ec59162606531493a51404a002842f56009d7e5cf4a8c7\n      add\n      dup2\n      swap1\n      sstore\n      0x00\n        /* \"@thirdweb-dev/contracts/extension/BatchMintMetadata.sol\":5311:5327   */\n      dup2\n      dup2\n      mstore\n        /* \"@thirdweb-dev/contracts/extension/BatchMintMetadata.sol\":5311:5318   */\n      0x0d\n        /* \"@thirdweb-dev/contracts/extension/BatchMintMetadata.sol\":5278:5300   */\n      0x20\n        /* \"@thirdweb-dev/contracts/extension/BatchMintMetadata.sol\":5311:5327   */\n      mstore\n      0x40\n      swap1\n      keccak256\n        /* \"@thirdweb-dev/contracts/extension/BatchMintMetadata.sol\":5196:5230   */\n      swap1\n      swap3\n      pop\n      dup3\n      swap2\n      pop\n        /* \"@thirdweb-dev/contracts/extension/BatchMintMetadata.sol\":5311:5347   */\n      tag_566\n        /* \"@thirdweb-dev/contracts/extension/BatchMintMetadata.sol\":5330:5347   */\n      dup5\n        /* \"@thirdweb-dev/contracts/extension/BatchMintMetadata.sol\":5311:5327   */\n      dup3\n        /* \"@thirdweb-dev/contracts/extension/BatchMintMetadata.sol\":5311:5347   */\n      tag_483\n      jump\t// in\n    tag_566:\n      pop\n        /* \"@thirdweb-dev/contracts/extension/BatchMintMetadata.sol\":4992:5354   */\n      swap4\n      pop\n      swap4\n      swap2\n      pop\n      pop\n      jump\t// out\n        /* \"@thirdweb-dev/contracts/extension/ContractMetadata.sol\":1393:1578   */\n    tag_362:\n        /* \"@thirdweb-dev/contracts/extension/ContractMetadata.sol\":1459:1480   */\n      0x00\n        /* \"@thirdweb-dev/contracts/extension/ContractMetadata.sol\":1483:1494   */\n      0x08\n        /* \"@thirdweb-dev/contracts/extension/ContractMetadata.sol\":1459:1494   */\n      dup1\n      sload\n      tag_570\n      swap1\n      tag_238\n      jump\t// in\n    tag_570:\n      dup1\n      0x1f\n      add\n      0x20\n      dup1\n      swap2\n      div\n      mul\n      0x20\n      add\n      mload(0x40)\n      swap1\n      dup2\n      add\n      0x40\n      mstore\n      dup1\n      swap3\n      swap2\n      swap1\n      dup2\n      dup2\n      mstore\n      0x20\n      add\n      dup3\n      dup1\n      sload\n      tag_571\n      swap1\n      tag_238\n      jump\t// in\n    tag_571:\n      dup1\n      iszero\n      tag_572\n      jumpi\n      dup1\n      0x1f\n      lt\n      tag_573\n      jumpi\n      0x0100\n      dup1\n      dup4\n      sload\n      div\n      mul\n      dup4\n      mstore\n      swap2\n      0x20\n      add\n      swap2\n      jump(tag_572)\n    tag_573:\n      dup3\n      add\n      swap2\n      swap1\n      0x00\n      mstore\n      keccak256(0x00, 0x20)\n      swap1\n    tag_574:\n      dup2\n      sload\n      dup2\n      mstore\n      swap1\n      0x01\n      add\n      swap1\n      0x20\n      add\n      dup1\n      dup4\n      gt\n      tag_574\n      jumpi\n      dup3\n      swap1\n      sub\n      0x1f\n      and\n      dup3\n      add\n      swap2\n    tag_572:\n      pop\n      pop\n      pop\n      pop\n      pop\n      swap1\n      pop\n        /* \"@thirdweb-dev/contracts/extension/ContractMetadata.sol\":1518:1522   */\n      dup2\n        /* \"@thirdweb-dev/contracts/extension/ContractMetadata.sol\":1504:1515   */\n      0x08\n        /* \"@thirdweb-dev/contracts/extension/ContractMetadata.sol\":1504:1522   */\n      swap1\n      dup2\n      tag_575\n      swap2\n      swap1\n      tag_483\n      jump\t// in\n    tag_575:\n      pop\n        /* \"@thirdweb-dev/contracts/extension/ContractMetadata.sol\":1538:1571   */\n      0xc9c7c3fe08b88b4df9d4d47ef47d2c43d55c025a0ba88ca442580ed9e7348a16\n        /* \"@thirdweb-dev/contracts/extension/ContractMetadata.sol\":1557:1564   */\n      dup2\n        /* \"@thirdweb-dev/contracts/extension/ContractMetadata.sol\":1566:1570   */\n      dup4\n        /* \"@thirdweb-dev/contracts/extension/ContractMetadata.sol\":1538:1571   */\n      mload(0x40)\n      tag_576\n      swap3\n      swap2\n      swap1\n      tag_577\n      jump\t// in\n    tag_576:\n      mload(0x40)\n      dup1\n      swap2\n      sub\n      swap1\n      log1\n        /* \"@thirdweb-dev/contracts/extension/ContractMetadata.sol\":1449:1578   */\n      pop\n        /* \"@thirdweb-dev/contracts/extension/ContractMetadata.sol\":1393:1578   */\n      pop\n      jump\t// out\n        /* \"@thirdweb-dev/contracts/extension/Royalty.sol\":4959:5311   */\n    tag_398:\n        /* \"@thirdweb-dev/contracts/extension/Royalty.sol\":5076:5082   */\n      0x2710\n        /* \"@thirdweb-dev/contracts/extension/Royalty.sol\":5069:5073   */\n      dup2\n        /* \"@thirdweb-dev/contracts/extension/Royalty.sol\":5069:5082   */\n      gt\n        /* \"@thirdweb-dev/contracts/extension/Royalty.sol\":5065:5154   */\n      iszero\n      tag_579\n      jumpi\n        /* \"@thirdweb-dev/contracts/extension/Royalty.sol\":5105:5143   */\n      mload(0x40)\n      shl(0xe3, 0x0a4930ad)\n      dup2\n      mstore\n        /* \"@thirdweb-dev/contracts/extension/Royalty.sol\":5130:5136   */\n      0x2710\n        /* \"@thirdweb-dev/contracts/extension/Royalty.sol\":5105:5143   */\n      0x04\n      dup3\n      add\n        /* \"#utility.yul\":19748:19773   */\n      mstore\n        /* \"#utility.yul\":19789:19807   */\n      0x24\n      dup2\n      add\n        /* \"#utility.yul\":19782:19816   */\n      dup3\n      swap1\n      mstore\n        /* \"#utility.yul\":19721:19739   */\n      0x44\n      add\n        /* \"@thirdweb-dev/contracts/extension/Royalty.sol\":5105:5143   */\n      tag_225\n        /* \"#utility.yul\":19562:19822   */\n      jump\n        /* \"@thirdweb-dev/contracts/extension/Royalty.sol\":5065:5154   */\n    tag_579:\n        /* \"@thirdweb-dev/contracts/extension/Royalty.sol\":5196:5245   */\n      0x40\n      dup1\n      mload\n      dup1\n      dup3\n      add\n      dup3\n      mstore\n      sub(shl(0xa0, 0x01), 0x01)\n      dup5\n      dup2\n      and\n      dup1\n      dup4\n      mstore\n      0x20\n      dup1\n      dup5\n      add\n      dup7\n      dup2\n      mstore\n      0x00\n        /* \"@thirdweb-dev/contracts/extension/Royalty.sol\":5164:5193   */\n      dup10\n      dup2\n      mstore\n        /* \"@thirdweb-dev/contracts/extension/Royalty.sol\":5164:5183   */\n      0x0b\n        /* \"@thirdweb-dev/contracts/extension/Royalty.sol\":5164:5193   */\n      dup4\n      mstore\n      dup7\n      swap1\n      keccak256\n        /* \"@thirdweb-dev/contracts/extension/Royalty.sol\":5164:5245   */\n      swap5\n      mload\n      dup6\n      sload\n      not(0xffffffffffffffffffffffffffffffffffffffff)\n      and\n      swap5\n      and\n      swap4\n      swap1\n      swap4\n      or\n      dup5\n      sstore\n      swap2\n      mload\n      0x01\n      swap1\n      swap4\n      add\n      swap3\n      swap1\n      swap3\n      sstore\n        /* \"@thirdweb-dev/contracts/extension/Royalty.sol\":5261:5304   */\n      swap2\n      mload\n        /* \"#utility.yul\":3695:3720   */\n      dup4\n      dup2\n      mstore\n        /* \"@thirdweb-dev/contracts/extension/Royalty.sol\":5196:5245   */\n      swap1\n      swap2\n        /* \"@thirdweb-dev/contracts/extension/Royalty.sol\":5164:5193   */\n      dup6\n      swap2\n        /* \"@thirdweb-dev/contracts/extension/Royalty.sol\":5261:5304   */\n      0x7365cf4122f072a3365c20d54eff9b38d73c096c28e1892ec8f5b0e403a0f12d\n      swap2\n        /* \"#utility.yul\":3668:3686   */\n      add\n        /* \"@thirdweb-dev/contracts/extension/Royalty.sol\":5261:5304   */\n      mload(0x40)\n      dup1\n      swap2\n      sub\n      swap1\n      log3\n        /* \"@thirdweb-dev/contracts/extension/Royalty.sol\":4959:5311   */\n      pop\n      pop\n      pop\n      jump\t// out\n        /* \"@thirdweb-dev/contracts/lib/Address.sol\":6671:6869   */\n    tag_420:\n        /* \"@thirdweb-dev/contracts/lib/Address.sol\":6754:6766   */\n      0x60\n        /* \"@thirdweb-dev/contracts/lib/Address.sol\":6785:6862   */\n      tag_369\n        /* \"@thirdweb-dev/contracts/lib/Address.sol\":6806:6812   */\n      dup4\n        /* \"@thirdweb-dev/contracts/lib/Address.sol\":6814:6818   */\n      dup4\n        /* \"@thirdweb-dev/contracts/lib/Address.sol\":6785:6862   */\n      mload(0x40)\n      dup1\n      0x60\n      add\n      0x40\n      mstore\n      dup1\n      0x27\n      dup2\n      mstore\n      0x20\n      add\n      data_9fdcd12e4b726339b32a442b0a448365d5d85c96b2d2cff917b4f66c63110398\n      0x27\n      swap2\n      codecopy\n        /* \"@thirdweb-dev/contracts/lib/Address.sol\":6785:6805   */\n      tag_585\n        /* \"@thirdweb-dev/contracts/lib/Address.sol\":6785:6862   */\n      jump\t// in\n        /* \"@thirdweb-dev/contracts/eip/ERC721AVirtualApprove.sol\":19019:19669   */\n    tag_437:\n        /* \"@thirdweb-dev/contracts/eip/ERC721AVirtualApprove.sol\":19197:19269   */\n      mload(0x40)\n      shl(0xe1, 0x0a85bd01)\n      dup2\n      mstore\n        /* \"@thirdweb-dev/contracts/eip/ERC721AVirtualApprove.sol\":19177:19181   */\n      0x00\n      swap1\n      sub(shl(0xa0, 0x01), 0x01)\n        /* \"@thirdweb-dev/contracts/eip/ERC721AVirtualApprove.sol\":19197:19233   */\n      dup6\n      and\n      swap1\n      0x150b7a02\n      swap1\n        /* \"@thirdweb-dev/contracts/eip/ERC721AVirtualApprove.sol\":19197:19269   */\n      tag_589\n      swap1\n        /* \"@thirdweb-dev/contracts/base/ERC721Base.sol\":8521:8531   */\n      caller\n      swap1\n        /* \"@thirdweb-dev/contracts/eip/ERC721AVirtualApprove.sol\":19248:19252   */\n      dup10\n      swap1\n        /* \"@thirdweb-dev/contracts/eip/ERC721AVirtualApprove.sol\":19254:19261   */\n      dup9\n      swap1\n        /* \"@thirdweb-dev/contracts/eip/ERC721AVirtualApprove.sol\":19263:19268   */\n      dup9\n      swap1\n        /* \"@thirdweb-dev/contracts/eip/ERC721AVirtualApprove.sol\":19197:19269   */\n      0x04\n      add\n      tag_590\n      jump\t// in\n    tag_589:\n      0x20\n      mload(0x40)\n      dup1\n      dup4\n      sub\n      dup2\n      0x00\n      dup8\n      gas\n      call\n      swap3\n      pop\n      pop\n      pop\n      dup1\n      iszero\n      tag_591\n      jumpi\n      pop\n      0x40\n      dup1\n      mload\n      0x1f\n      returndatasize\n      swap1\n      dup2\n      add\n      not(0x1f)\n      and\n      dup3\n      add\n      swap1\n      swap3\n      mstore\n      tag_592\n      swap2\n      dup2\n      add\n      swap1\n      tag_593\n      jump\t// in\n    tag_592:\n      0x01\n    tag_591:\n        /* \"@thirdweb-dev/contracts/eip/ERC721AVirtualApprove.sol\":19193:19663   */\n      tag_594\n      jumpi\n      returndatasize\n      dup1\n      dup1\n      iszero\n      tag_599\n      jumpi\n      mload(0x40)\n      swap2\n      pop\n      and(add(returndatasize, 0x3f), not(0x1f))\n      dup3\n      add\n      0x40\n      mstore\n      returndatasize\n      dup3\n      mstore\n      returndatasize\n      0x00\n      0x20\n      dup5\n      add\n      returndatacopy\n      jump(tag_598)\n    tag_599:\n      0x60\n      swap2\n      pop\n    tag_598:\n      pop\n        /* \"@thirdweb-dev/contracts/eip/ERC721AVirtualApprove.sol\":19428:19434   */\n      dup1\n        /* \"@thirdweb-dev/contracts/eip/ERC721AVirtualApprove.sol\":19428:19441   */\n      mload\n        /* \"@thirdweb-dev/contracts/eip/ERC721AVirtualApprove.sol\":19445:19446   */\n      0x00\n        /* \"@thirdweb-dev/contracts/eip/ERC721AVirtualApprove.sol\":19428:19446   */\n      sub\n        /* \"@thirdweb-dev/contracts/eip/ERC721AVirtualApprove.sol\":19424:19653   */\n      tag_600\n      jumpi\n        /* \"@thirdweb-dev/contracts/eip/ERC721AVirtualApprove.sol\":19473:19513   */\n      mload(0x40)\n      shl(0xe1, 0x68d2bf6b)\n      dup2\n      mstore\n      0x04\n      add\n      mload(0x40)\n      dup1\n      swap2\n      sub\n      swap1\n      revert\n        /* \"@thirdweb-dev/contracts/eip/ERC721AVirtualApprove.sol\":19424:19653   */\n    tag_600:\n        /* \"@thirdweb-dev/contracts/eip/ERC721AVirtualApprove.sol\":19613:19619   */\n      dup1\n        /* \"@thirdweb-dev/contracts/eip/ERC721AVirtualApprove.sol\":19607:19620   */\n      mload\n        /* \"@thirdweb-dev/contracts/eip/ERC721AVirtualApprove.sol\":19598:19604   */\n      dup2\n        /* \"@thirdweb-dev/contracts/eip/ERC721AVirtualApprove.sol\":19594:19596   */\n      0x20\n        /* \"@thirdweb-dev/contracts/eip/ERC721AVirtualApprove.sol\":19590:19605   */\n      add\n        /* \"@thirdweb-dev/contracts/eip/ERC721AVirtualApprove.sol\":19583:19621   */\n      revert\n        /* \"@thirdweb-dev/contracts/eip/ERC721AVirtualApprove.sol\":19193:19663   */\n    tag_594:\n      not(sub(shl(0xe0, 0x01), 0x01))\n        /* \"@thirdweb-dev/contracts/eip/ERC721AVirtualApprove.sol\":19315:19370   */\n      and\n      shl(0xe1, 0x0a85bd01)\n      eq\n      swap1\n      pop\n        /* \"@thirdweb-dev/contracts/eip/ERC721AVirtualApprove.sol\":19019:19669   */\n      swap5\n      swap4\n      pop\n      pop\n      pop\n      pop\n      jump\t// out\n        /* \"@thirdweb-dev/contracts/extension/BatchMintMetadata.sol\":3185:3591   */\n    tag_460:\n        /* \"@thirdweb-dev/contracts/extension/BatchMintMetadata.sol\":3247:3260   */\n      0x60\n        /* \"@thirdweb-dev/contracts/extension/BatchMintMetadata.sol\":3272:3297   */\n      0x00\n        /* \"@thirdweb-dev/contracts/extension/BatchMintMetadata.sol\":3300:3317   */\n      tag_604\n        /* \"@thirdweb-dev/contracts/extension/BatchMintMetadata.sol\":2035:2043   */\n      0x0c\n        /* \"@thirdweb-dev/contracts/extension/BatchMintMetadata.sol\":2035:2050   */\n      sload\n      swap1\n        /* \"@thirdweb-dev/contracts/extension/BatchMintMetadata.sol\":1961:2057   */\n      jump\n        /* \"@thirdweb-dev/contracts/extension/BatchMintMetadata.sol\":3300:3317   */\n    tag_604:\n        /* \"@thirdweb-dev/contracts/extension/BatchMintMetadata.sol\":3272:3317   */\n      swap1\n      pop\n        /* \"@thirdweb-dev/contracts/extension/BatchMintMetadata.sol\":3327:3351   */\n      0x00\n        /* \"@thirdweb-dev/contracts/extension/BatchMintMetadata.sol\":3354:3362   */\n      0x0c\n        /* \"@thirdweb-dev/contracts/extension/BatchMintMetadata.sol\":3327:3362   */\n      dup1\n      sload\n      dup1\n      0x20\n      mul\n      0x20\n      add\n      mload(0x40)\n      swap1\n      dup2\n      add\n      0x40\n      mstore\n      dup1\n      swap3\n      swap2\n      swap1\n      dup2\n      dup2\n      mstore\n      0x20\n      add\n      dup3\n      dup1\n      sload\n      dup1\n      iszero\n      tag_605\n      jumpi\n      0x20\n      mul\n      dup3\n      add\n      swap2\n      swap1\n      0x00\n      mstore\n      keccak256(0x00, 0x20)\n      swap1\n    tag_606:\n      dup2\n      sload\n      dup2\n      mstore\n      0x20\n      add\n      swap1\n      0x01\n      add\n      swap1\n      dup1\n      dup4\n      gt\n      tag_606\n      jumpi\n    tag_605:\n      pop\n      pop\n      pop\n      pop\n      pop\n      swap1\n      pop\n        /* \"@thirdweb-dev/contracts/extension/BatchMintMetadata.sol\":3378:3387   */\n      0x00\n        /* \"@thirdweb-dev/contracts/extension/BatchMintMetadata.sol\":3373:3534   */\n    tag_607:\n        /* \"@thirdweb-dev/contracts/extension/BatchMintMetadata.sol\":3397:3414   */\n      dup3\n        /* \"@thirdweb-dev/contracts/extension/BatchMintMetadata.sol\":3393:3394   */\n      dup2\n        /* \"@thirdweb-dev/contracts/extension/BatchMintMetadata.sol\":3393:3414   */\n      lt\n        /* \"@thirdweb-dev/contracts/extension/BatchMintMetadata.sol\":3373:3534   */\n      iszero\n      tag_608\n      jumpi\n        /* \"@thirdweb-dev/contracts/extension/BatchMintMetadata.sol\":3453:3460   */\n      dup2\n        /* \"@thirdweb-dev/contracts/extension/BatchMintMetadata.sol\":3461:3462   */\n      dup2\n        /* \"@thirdweb-dev/contracts/extension/BatchMintMetadata.sol\":3453:3463   */\n      dup2\n      mload\n      dup2\n      lt\n      tag_611\n      jumpi\n      tag_611\n      tag_282\n      jump\t// in\n    tag_611:\n      0x20\n      mul\n      0x20\n      add\n      add\n      mload\n        /* \"@thirdweb-dev/contracts/extension/BatchMintMetadata.sol\":3442:3450   */\n      dup6\n        /* \"@thirdweb-dev/contracts/extension/BatchMintMetadata.sol\":3442:3463   */\n      lt\n        /* \"@thirdweb-dev/contracts/extension/BatchMintMetadata.sol\":3438:3524   */\n      iszero\n      tag_612\n      jumpi\n        /* \"@thirdweb-dev/contracts/extension/BatchMintMetadata.sol\":3490:3497   */\n      0x0d\n        /* \"@thirdweb-dev/contracts/extension/BatchMintMetadata.sol\":3490:3509   */\n      0x00\n        /* \"@thirdweb-dev/contracts/extension/BatchMintMetadata.sol\":3498:3505   */\n      dup4\n        /* \"@thirdweb-dev/contracts/extension/BatchMintMetadata.sol\":3506:3507   */\n      dup4\n        /* \"@thirdweb-dev/contracts/extension/BatchMintMetadata.sol\":3498:3508   */\n      dup2\n      mload\n      dup2\n      lt\n      tag_614\n      jumpi\n      tag_614\n      tag_282\n      jump\t// in\n    tag_614:\n      0x20\n      mul\n      0x20\n      add\n      add\n      mload\n        /* \"@thirdweb-dev/contracts/extension/BatchMintMetadata.sol\":3490:3509   */\n      dup2\n      mstore\n      0x20\n      add\n      swap1\n      dup2\n      mstore\n      0x20\n      add\n      0x00\n      keccak256\n        /* \"@thirdweb-dev/contracts/extension/BatchMintMetadata.sol\":3483:3509   */\n      dup1\n      sload\n      tag_615\n      swap1\n      tag_238\n      jump\t// in\n    tag_615:\n      dup1\n      0x1f\n      add\n      0x20\n      dup1\n      swap2\n      div\n      mul\n      0x20\n      add\n      mload(0x40)\n      swap1\n      dup2\n      add\n      0x40\n      mstore\n      dup1\n      swap3\n      swap2\n      swap1\n      dup2\n      dup2\n      mstore\n      0x20\n      add\n      dup3\n      dup1\n      sload\n      tag_616\n      swap1\n      tag_238\n      jump\t// in\n    tag_616:\n      dup1\n      iszero\n      tag_617\n      jumpi\n      dup1\n      0x1f\n      lt\n      tag_618\n      jumpi\n      0x0100\n      dup1\n      dup4\n      sload\n      div\n      mul\n      dup4\n      mstore\n      swap2\n      0x20\n      add\n      swap2\n      jump(tag_617)\n    tag_618:\n      dup3\n      add\n      swap2\n      swap1\n      0x00\n      mstore\n      keccak256(0x00, 0x20)\n      swap1\n    tag_619:\n      dup2\n      sload\n      dup2\n      mstore\n      swap1\n      0x01\n      add\n      swap1\n      0x20\n      add\n      dup1\n      dup4\n      gt\n      tag_619\n      jumpi\n      dup3\n      swap1\n      sub\n      0x1f\n      and\n      dup3\n      add\n      swap2\n    tag_617:\n      pop\n      pop\n      pop\n      pop\n      pop\n      swap4\n      pop\n      pop\n      pop\n      pop\n        /* \"@thirdweb-dev/contracts/extension/BatchMintMetadata.sol\":3185:3591   */\n      swap2\n      swap1\n      pop\n      jump\t// out\n        /* \"@thirdweb-dev/contracts/extension/BatchMintMetadata.sol\":3438:3524   */\n    tag_612:\n        /* \"@thirdweb-dev/contracts/extension/BatchMintMetadata.sol\":3416:3422   */\n      tag_620\n        /* \"@thirdweb-dev/contracts/extension/BatchMintMetadata.sol\":3421:3422   */\n      0x01\n        /* \"@thirdweb-dev/contracts/extension/BatchMintMetadata.sol\":3416:3422   */\n      dup3\n      tag_564\n      jump\t// in\n    tag_620:\n      swap1\n      pop\n        /* \"@thirdweb-dev/contracts/extension/BatchMintMetadata.sol\":3373:3534   */\n      jump(tag_607)\n    tag_608:\n      pop\n        /* \"@thirdweb-dev/contracts/extension/BatchMintMetadata.sol\":3551:3584   */\n      mload(0x40)\n      shl(0xe2, 0x09797f69)\n      dup2\n      mstore\n      0x04\n      dup2\n      add\n        /* \"#utility.yul\":3695:3720   */\n      dup6\n      swap1\n      mstore\n        /* \"#utility.yul\":3668:3686   */\n      0x24\n      add\n        /* \"@thirdweb-dev/contracts/extension/BatchMintMetadata.sol\":3551:3584   */\n      tag_225\n        /* \"#utility.yul\":3549:3726   */\n      jump\n        /* \"@thirdweb-dev/contracts/lib/Strings.sol\":303:1006   */\n    tag_462:\n        /* \"@thirdweb-dev/contracts/lib/Strings.sol\":359:372   */\n      0x60\n        /* \"@thirdweb-dev/contracts/lib/Strings.sol\":576:581   */\n      dup2\n        /* \"@thirdweb-dev/contracts/lib/Strings.sol\":585:586   */\n      0x00\n        /* \"@thirdweb-dev/contracts/lib/Strings.sol\":576:586   */\n      sub\n        /* \"@thirdweb-dev/contracts/lib/Strings.sol\":572:623   */\n      tag_623\n      jumpi\n      pop\n      pop\n        /* \"@thirdweb-dev/contracts/lib/Strings.sol\":602:612   */\n      0x40\n      dup1\n      mload\n      dup1\n      dup3\n      add\n      swap1\n      swap2\n      mstore\n      0x01\n      dup2\n      mstore\n      shl(0xfc, 0x03)\n      0x20\n      dup3\n      add\n      mstore\n      swap1\n        /* \"@thirdweb-dev/contracts/lib/Strings.sol\":303:1006   */\n      jump\t// out\n        /* \"@thirdweb-dev/contracts/lib/Strings.sol\":572:623   */\n    tag_623:\n        /* \"@thirdweb-dev/contracts/lib/Strings.sol\":647:652   */\n      dup2\n        /* \"@thirdweb-dev/contracts/lib/Strings.sol\":632:644   */\n      0x00\n        /* \"@thirdweb-dev/contracts/lib/Strings.sol\":686:761   */\n    tag_624:\n        /* \"@thirdweb-dev/contracts/lib/Strings.sol\":693:702   */\n      dup2\n      iszero\n        /* \"@thirdweb-dev/contracts/lib/Strings.sol\":686:761   */\n      tag_625\n      jumpi\n        /* \"@thirdweb-dev/contracts/lib/Strings.sol\":718:726   */\n      dup1\n      tag_626\n      dup2\n      tag_627\n      jump\t// in\n    tag_626:\n      swap2\n      pop\n        /* \"@thirdweb-dev/contracts/lib/Strings.sol\":740:750   */\n      tag_628\n      swap1\n      pop\n        /* \"@thirdweb-dev/contracts/lib/Strings.sol\":748:750   */\n      0x0a\n        /* \"@thirdweb-dev/contracts/lib/Strings.sol\":740:750   */\n      dup4\n      tag_289\n      jump\t// in\n    tag_628:\n      swap2\n      pop\n        /* \"@thirdweb-dev/contracts/lib/Strings.sol\":686:761   */\n      jump(tag_624)\n    tag_625:\n        /* \"@thirdweb-dev/contracts/lib/Strings.sol\":770:789   */\n      0x00\n        /* \"@thirdweb-dev/contracts/lib/Strings.sol\":802:808   */\n      dup2\n        /* \"@thirdweb-dev/contracts/lib/Strings.sol\":792:809   */\n      0xffffffffffffffff\n      dup2\n      gt\n      iszero\n      tag_630\n      jumpi\n      tag_630\n      tag_308\n      jump\t// in\n    tag_630:\n      mload(0x40)\n      swap1\n      dup1\n      dup3\n      mstore\n      dup1\n      0x1f\n      add\n      not(0x1f)\n      and\n      0x20\n      add\n      dup3\n      add\n      0x40\n      mstore\n      dup1\n      iszero\n      tag_631\n      jumpi\n      0x20\n      dup3\n      add\n      dup2\n      dup1\n      calldatasize\n      dup4\n      calldatacopy\n      add\n      swap1\n      pop\n    tag_631:\n      pop\n        /* \"@thirdweb-dev/contracts/lib/Strings.sol\":770:809   */\n      swap1\n      pop\n        /* \"@thirdweb-dev/contracts/lib/Strings.sol\":819:969   */\n    tag_632:\n        /* \"@thirdweb-dev/contracts/lib/Strings.sol\":826:836   */\n      dup5\n      iszero\n        /* \"@thirdweb-dev/contracts/lib/Strings.sol\":819:969   */\n      tag_300\n      jumpi\n        /* \"@thirdweb-dev/contracts/lib/Strings.sol\":852:863   */\n      tag_634\n        /* \"@thirdweb-dev/contracts/lib/Strings.sol\":862:863   */\n      0x01\n        /* \"@thirdweb-dev/contracts/lib/Strings.sol\":852:863   */\n      dup4\n      tag_635\n      jump\t// in\n    tag_634:\n      swap2\n      pop\n        /* \"@thirdweb-dev/contracts/lib/Strings.sol\":920:930   */\n      tag_636\n        /* \"@thirdweb-dev/contracts/lib/Strings.sol\":928:930   */\n      0x0a\n        /* \"@thirdweb-dev/contracts/lib/Strings.sol\":920:925   */\n      dup7\n        /* \"@thirdweb-dev/contracts/lib/Strings.sol\":920:930   */\n      tag_637\n      jump\t// in\n    tag_636:\n        /* \"@thirdweb-dev/contracts/lib/Strings.sol\":907:931   */\n      tag_638\n      swap1\n        /* \"@thirdweb-dev/contracts/lib/Strings.sol\":907:909   */\n      0x30\n        /* \"@thirdweb-dev/contracts/lib/Strings.sol\":907:931   */\n      tag_564\n      jump\t// in\n    tag_638:\n        /* \"@thirdweb-dev/contracts/lib/Strings.sol\":894:933   */\n      0xf8\n      shl\n        /* \"@thirdweb-dev/contracts/lib/Strings.sol\":877:883   */\n      dup2\n        /* \"@thirdweb-dev/contracts/lib/Strings.sol\":884:890   */\n      dup4\n        /* \"@thirdweb-dev/contracts/lib/Strings.sol\":877:891   */\n      dup2\n      mload\n      dup2\n      lt\n      tag_640\n      jumpi\n      tag_640\n      tag_282\n      jump\t// in\n    tag_640:\n      0x20\n      add\n      add\n        /* \"@thirdweb-dev/contracts/lib/Strings.sol\":877:933   */\n      swap1\n      not(0xffffffffffffffffffffffffffffffffffffffffffffffffffffffffffffff)\n      and\n      swap1\n      dup2\n      0x00\n      byte\n      swap1\n      mstore8\n      pop\n        /* \"@thirdweb-dev/contracts/lib/Strings.sol\":947:958   */\n      tag_641\n        /* \"@thirdweb-dev/contracts/lib/Strings.sol\":956:958   */\n      0x0a\n        /* \"@thirdweb-dev/contracts/lib/Strings.sol\":947:958   */\n      dup7\n      tag_289\n      jump\t// in\n    tag_641:\n      swap5\n      pop\n        /* \"@thirdweb-dev/contracts/lib/Strings.sol\":819:969   */\n      jump(tag_632)\n        /* \"SertifikatDigital.sol\":1010:1400  function _beforeTokenTransfers(address from, address to, uint256 startTokenId, uint256 quantity)... */\n    tag_488:\n        /* \"SertifikatDigital.sol\":1235:1244  soulbound */\n      and(0xff, sload(0x10))\n        /* \"SertifikatDigital.sol\":1235:1266  soulbound && from != address(0) */\n      dup1\n      iszero\n      tag_645\n      jumpi\n      pop\n      sub(shl(0xa0, 0x01), 0x01)\n        /* \"SertifikatDigital.sol\":1248:1266  from != address(0) */\n      dup5\n      and\n      iszero\n      iszero\n        /* \"SertifikatDigital.sol\":1235:1266  soulbound && from != address(0) */\n    tag_645:\n        /* \"SertifikatDigital.sol\":1235:1286  soulbound && from != address(0) && to != address(0) */\n      dup1\n      iszero\n      tag_646\n      jumpi\n      pop\n      sub(shl(0xa0, 0x01), 0x01)\n        /* \"SertifikatDigital.sol\":1270:1286  to != address(0) */\n      dup4\n      and\n      iszero\n      iszero\n        /* \"SertifikatDigital.sol\":1235:1286  soulbound && from != address(0) && to != address(0) */\n    tag_646:\n        /* \"SertifikatDigital.sol\":1231:1393  if (soulbound && from != address(0) && to != address(0)) {... */\n      iszero\n      tag_340\n      jumpi\n        /* \"SertifikatDigital.sol\":1303:1381  revert(\"Sertifikat ini adalah Kredensial Soulbound dan tidak bisa ditransfer\") */\n      mload(0x40)\n      shl(0xe5, 0x461bcd)\n      dup2\n      mstore\n        /* \"#utility.yul\":21741:21743   */\n      0x20\n        /* \"SertifikatDigital.sol\":1303:1381  revert(\"Sertifikat ini adalah Kredensial Soulbound dan tidak bisa ditransfer\") */\n      0x04\n      dup3\n      add\n        /* \"#utility.yul\":21723:21744   */\n      mstore\n        /* \"#utility.yul\":21780:21782   */\n      0x44\n        /* \"#utility.yul\":21760:21778   */\n      0x24\n      dup3\n      add\n        /* \"#utility.yul\":21753:21783   */\n      dup2\n      swap1\n      mstore\n        /* \"#utility.yul\":21819:21853   */\n      0x536572746966696b617420696e69206164616c6168204b726564656e7369616c\n        /* \"#utility.yul\":21799:21817   */\n      swap1\n      dup3\n      add\n        /* \"#utility.yul\":21792:21854   */\n      mstore\n        /* \"#utility.yul\":21890:21924   */\n      0x20536f756c626f756e642064616e20746964616b20626973612064697472616e\n        /* \"#utility.yul\":21870:21888   */\n      0x64\n      dup3\n      add\n        /* \"#utility.yul\":21863:21925   */\n      mstore\n      shl(0xe1, 0x39b332b9)\n        /* \"#utility.yul\":21941:21960   */\n      0x84\n      dup3\n      add\n        /* \"#utility.yul\":21934:21969   */\n      mstore\n        /* \"#utility.yul\":21986:22005   */\n      0xa4\n      add\n        /* \"SertifikatDigital.sol\":1303:1381  revert(\"Sertifikat ini adalah Kredensial Soulbound dan tidak bisa ditransfer\") */\n      tag_225\n        /* \"#utility.yul\":21539:22011   */\n      jump\n        /* \"@thirdweb-dev/contracts/eip/ERC721AVirtualApprove.sol\":18379:18538   */\n    tag_525:\n        /* \"@thirdweb-dev/contracts/eip/ERC721AVirtualApprove.sol\":18459:18483   */\n      0x00\n      dup3\n      dup2\n      mstore\n        /* \"@thirdweb-dev/contracts/eip/ERC721AVirtualApprove.sol\":18459:18474   */\n      0x06\n        /* \"@thirdweb-dev/contracts/eip/ERC721AVirtualApprove.sol\":18459:18483   */\n      0x20\n      mstore\n      0x40\n      dup1\n      dup3\n      keccak256\n        /* \"@thirdweb-dev/contracts/eip/ERC721AVirtualApprove.sol\":18459:18488   */\n      dup1\n      sload\n      not(0xffffffffffffffffffffffffffffffffffffffff)\n      and\n      sub(shl(0xa0, 0x01), 0x01)\n      dup8\n      dup2\n      and\n      swap2\n      dup3\n      or\n      swap1\n      swap3\n      sstore\n        /* \"@thirdweb-dev/contracts/eip/ERC721AVirtualApprove.sol\":18503:18531   */\n      swap2\n      mload\n        /* \"@thirdweb-dev/contracts/eip/ERC721AVirtualApprove.sol\":18459:18483   */\n      dup6\n      swap4\n        /* \"@thirdweb-dev/contracts/eip/ERC721AVirtualApprove.sol\":18503:18531   */\n      swap2\n      dup6\n      and\n      swap2\n      0x8c5be1e5ebec7d5bd14f71427d1e84f3dd0314c0f7b2291e5b200ac8c7c3b925\n      swap2\n      log4\n        /* \"@thirdweb-dev/contracts/eip/ERC721AVirtualApprove.sol\":18379:18538   */\n      pop\n      pop\n      pop\n      jump\t// out\n        /* \"@thirdweb-dev/contracts/lib/Address.sol\":7055:7380   */\n    tag_585:\n        /* \"@thirdweb-dev/contracts/lib/Address.sol\":7196:7208   */\n      0x60\n        /* \"@thirdweb-dev/contracts/lib/Address.sol\":7221:7233   */\n      0x00\n        /* \"@thirdweb-dev/contracts/lib/Address.sol\":7235:7258   */\n      dup1\n        /* \"@thirdweb-dev/contracts/lib/Address.sol\":7262:7268   */\n      dup6\n      sub(shl(0xa0, 0x01), 0x01)\n        /* \"@thirdweb-dev/contracts/lib/Address.sol\":7262:7281   */\n      and\n        /* \"@thirdweb-dev/contracts/lib/Address.sol\":7282:7286   */\n      dup6\n        /* \"@thirdweb-dev/contracts/lib/Address.sol\":7262:7287   */\n      mload(0x40)\n      tag_653\n      swap2\n      swap1\n      tag_654\n      jump\t// in\n    tag_653:\n      0x00\n      mload(0x40)\n      dup1\n      dup4\n      sub\n      dup2\n      dup6\n      gas\n      delegatecall\n      swap2\n      pop\n      pop\n      returndatasize\n      dup1\n      0x00\n      dup2\n      eq\n      tag_657\n      jumpi\n      mload(0x40)\n      swap2\n      pop\n      and(add(returndatasize, 0x3f), not(0x1f))\n      dup3\n      add\n      0x40\n      mstore\n      returndatasize\n      dup3\n      mstore\n      returndatasize\n      0x00\n      0x20\n      dup5\n      add\n      returndatacopy\n      jump(tag_656)\n    tag_657:\n      0x60\n      swap2\n      pop\n    tag_656:\n      pop\n        /* \"@thirdweb-dev/contracts/lib/Address.sol\":7220:7287   */\n      swap2\n      pop\n      swap2\n      pop\n        /* \"@thirdweb-dev/contracts/lib/Address.sol\":7304:7373   */\n      tag_658\n        /* \"@thirdweb-dev/contracts/lib/Address.sol\":7331:7337   */\n      dup7\n        /* \"@thirdweb-dev/contracts/lib/Address.sol\":7339:7346   */\n      dup4\n        /* \"@thirdweb-dev/contracts/lib/Address.sol\":7348:7358   */\n      dup4\n        /* \"@thirdweb-dev/contracts/lib/Address.sol\":7360:7372   */\n      dup8\n        /* \"@thirdweb-dev/contracts/lib/Address.sol\":7304:7330   */\n      tag_659\n        /* \"@thirdweb-dev/contracts/lib/Address.sol\":7304:7373   */\n      jump\t// in\n    tag_658:\n        /* \"@thirdweb-dev/contracts/lib/Address.sol\":7297:7373   */\n      swap7\n        /* \"@thirdweb-dev/contracts/lib/Address.sol\":7055:7380   */\n      swap6\n      pop\n      pop\n      pop\n      pop\n      pop\n      pop\n      jump\t// out\n        /* \"@thirdweb-dev/contracts/lib/Address.sol\":7668:8296   */\n    tag_659:\n        /* \"@thirdweb-dev/contracts/lib/Address.sol\":7848:7860   */\n      0x60\n        /* \"@thirdweb-dev/contracts/lib/Address.sol\":7876:7883   */\n      dup4\n        /* \"@thirdweb-dev/contracts/lib/Address.sol\":7872:8290   */\n      iszero\n      tag_662\n      jumpi\n        /* \"@thirdweb-dev/contracts/lib/Address.sol\":7903:7913   */\n      dup3\n        /* \"@thirdweb-dev/contracts/lib/Address.sol\":7903:7920   */\n      mload\n        /* \"@thirdweb-dev/contracts/lib/Address.sol\":7924:7925   */\n      0x00\n        /* \"@thirdweb-dev/contracts/lib/Address.sol\":7903:7925   */\n      sub\n        /* \"@thirdweb-dev/contracts/lib/Address.sol\":7899:8185   */\n      tag_665\n      jumpi\n      sub(shl(0xa0, 0x01), 0x01)\n        /* \"@thirdweb-dev/contracts/lib/Address.sol\":1695:1714   */\n      dup6\n      and\n      extcodesize\n        /* \"@thirdweb-dev/contracts/lib/Address.sol\":8110:8170   */\n      tag_665\n      jumpi\n      mload(0x40)\n      shl(0xe5, 0x461bcd)\n      dup2\n      mstore\n        /* \"#utility.yul\":22413:22415   */\n      0x20\n        /* \"@thirdweb-dev/contracts/lib/Address.sol\":8110:8170   */\n      0x04\n      dup3\n      add\n        /* \"#utility.yul\":22395:22416   */\n      mstore\n        /* \"#utility.yul\":22452:22454   */\n      0x1d\n        /* \"#utility.yul\":22432:22450   */\n      0x24\n      dup3\n      add\n        /* \"#utility.yul\":22425:22455   */\n      mstore\n        /* \"#utility.yul\":22491:22522   */\n      0x416464726573733a2063616c6c20746f206e6f6e2d636f6e7472616374000000\n        /* \"#utility.yul\":22471:22489   */\n      0x44\n      dup3\n      add\n        /* \"#utility.yul\":22464:22523   */\n      mstore\n        /* \"#utility.yul\":22540:22558   */\n      0x64\n      add\n        /* \"@thirdweb-dev/contracts/lib/Address.sol\":8110:8170   */\n      tag_225\n        /* \"#utility.yul\":22211:22564   */\n      jump\n        /* \"@thirdweb-dev/contracts/lib/Address.sol\":8110:8170   */\n    tag_665:\n      pop\n        /* \"@thirdweb-dev/contracts/lib/Address.sol\":8205:8215   */\n      dup2\n        /* \"@thirdweb-dev/contracts/lib/Address.sol\":8198:8215   */\n      jump(tag_300)\n        /* \"@thirdweb-dev/contracts/lib/Address.sol\":7872:8290   */\n    tag_662:\n        /* \"@thirdweb-dev/contracts/lib/Address.sol\":8246:8279   */\n      tag_300\n        /* \"@thirdweb-dev/contracts/lib/Address.sol\":8254:8264   */\n      dup4\n        /* \"@thirdweb-dev/contracts/lib/Address.sol\":8266:8278   */\n      dup4\n        /* \"@thirdweb-dev/contracts/lib/Address.sol\":8977:8994   */\n      dup2\n      mload\n        /* \"@thirdweb-dev/contracts/lib/Address.sol\":8977:8998   */\n      iszero\n        /* \"@thirdweb-dev/contracts/lib/Address.sol\":8973:9352   */\n      tag_672\n      jumpi\n        /* \"@thirdweb-dev/contracts/lib/Address.sol\":9205:9215   */\n      dup2\n        /* \"@thirdweb-dev/contracts/lib/Address.sol\":9199:9216   */\n      mload\n        /* \"@thirdweb-dev/contracts/lib/Address.sol\":9261:9276   */\n      dup1\n        /* \"@thirdweb-dev/contracts/lib/Address.sol\":9248:9258   */\n      dup4\n        /* \"@thirdweb-dev/contracts/lib/Address.sol\":9244:9246   */\n      0x20\n        /* \"@thirdweb-dev/contracts/lib/Address.sol\":9240:9259   */\n      add\n        /* \"@thirdweb-dev/contracts/lib/Address.sol\":9233:9277   */\n      revert\n        /* \"@thirdweb-dev/contracts/lib/Address.sol\":8973:9352   */\n    tag_672:\n        /* \"@thirdweb-dev/contracts/lib/Address.sol\":9328:9340   */\n      dup1\n        /* \"@thirdweb-dev/contracts/lib/Address.sol\":9321:9341   */\n      mload(0x40)\n      shl(0xe5, 0x461bcd)\n      dup2\n      mstore\n      0x04\n      add\n      tag_225\n      swap2\n      swap1\n      tag_71\n      jump\t// in\n        /* \"#utility.yul\":14:210   */\n    tag_675:\n        /* \"#utility.yul\":82:102   */\n      dup1\n      calldataload\n      sub(shl(0xa0, 0x01), 0x01)\n        /* \"#utility.yul\":131:185   */\n      dup2\n      and\n        /* \"#utility.yul\":121:186   */\n      dup2\n      eq\n        /* \"#utility.yul\":111:204   */\n      tag_690\n      jumpi\n        /* \"#utility.yul\":200:201   */\n      0x00\n        /* \"#utility.yul\":197:198   */\n      dup1\n        /* \"#utility.yul\":190:202   */\n      revert\n        /* \"#utility.yul\":111:204   */\n    tag_690:\n        /* \"#utility.yul\":14:210   */\n      swap2\n      swap1\n      pop\n      jump\t// out\n        /* \"#utility.yul\":215:342   */\n    tag_308:\n        /* \"#utility.yul\":276:286   */\n      0x4e487b71\n        /* \"#utility.yul\":271:274   */\n      0xe0\n        /* \"#utility.yul\":267:287   */\n      shl\n        /* \"#utility.yul\":264:265   */\n      0x00\n        /* \"#utility.yul\":257:288   */\n      mstore\n        /* \"#utility.yul\":307:311   */\n      0x41\n        /* \"#utility.yul\":304:305   */\n      0x04\n        /* \"#utility.yul\":297:312   */\n      mstore\n        /* \"#utility.yul\":331:335   */\n      0x24\n        /* \"#utility.yul\":328:329   */\n      0x00\n        /* \"#utility.yul\":321:336   */\n      revert\n        /* \"#utility.yul\":347:622   */\n    tag_676:\n        /* \"#utility.yul\":418:420   */\n      0x40\n        /* \"#utility.yul\":412:421   */\n      mload\n        /* \"#utility.yul\":483:485   */\n      0x1f\n        /* \"#utility.yul\":464:477   */\n      dup3\n      add\n      not(0x1f)\n        /* \"#utility.yul\":460:487   */\n      and\n        /* \"#utility.yul\":448:488   */\n      dup2\n      add\n        /* \"#utility.yul\":518:536   */\n      0xffffffffffffffff\n        /* \"#utility.yul\":503:537   */\n      dup2\n      gt\n        /* \"#utility.yul\":539:561   */\n      dup3\n      dup3\n      lt\n        /* \"#utility.yul\":500:562   */\n      or\n        /* \"#utility.yul\":497:585   */\n      iszero\n      tag_694\n      jumpi\n        /* \"#utility.yul\":565:583   */\n      tag_694\n      tag_308\n      jump\t// in\n    tag_694:\n        /* \"#utility.yul\":601:603   */\n      0x40\n        /* \"#utility.yul\":594:616   */\n      mstore\n        /* \"#utility.yul\":347:622   */\n      swap2\n      swap1\n      pop\n      jump\t// out\n        /* \"#utility.yul\":627:1158   */\n    tag_677:\n        /* \"#utility.yul\":670:675   */\n      0x00\n        /* \"#utility.yul\":723:726   */\n      dup3\n        /* \"#utility.yul\":716:720   */\n      0x1f\n        /* \"#utility.yul\":708:714   */\n      dup4\n        /* \"#utility.yul\":704:721   */\n      add\n        /* \"#utility.yul\":700:727   */\n      slt\n        /* \"#utility.yul\":690:745   */\n      tag_696\n      jumpi\n        /* \"#utility.yul\":741:742   */\n      0x00\n        /* \"#utility.yul\":738:739   */\n      dup1\n        /* \"#utility.yul\":731:743   */\n      revert\n        /* \"#utility.yul\":690:745   */\n    tag_696:\n        /* \"#utility.yul\":777:783   */\n      dup2\n        /* \"#utility.yul\":764:784   */\n      calldataload\n        /* \"#utility.yul\":803:821   */\n      0xffffffffffffffff\n        /* \"#utility.yul\":799:801   */\n      dup2\n        /* \"#utility.yul\":796:822   */\n      gt\n        /* \"#utility.yul\":793:845   */\n      iszero\n      tag_698\n      jumpi\n        /* \"#utility.yul\":825:843   */\n      tag_698\n      tag_308\n      jump\t// in\n    tag_698:\n        /* \"#utility.yul\":869:924   */\n      tag_699\n        /* \"#utility.yul\":912:914   */\n      0x1f\n        /* \"#utility.yul\":893:906   */\n      dup3\n      add\n      not(0x1f)\n        /* \"#utility.yul\":889:916   */\n      and\n        /* \"#utility.yul\":918:922   */\n      0x20\n        /* \"#utility.yul\":885:923   */\n      add\n        /* \"#utility.yul\":869:924   */\n      tag_676\n      jump\t// in\n    tag_699:\n        /* \"#utility.yul\":949:951   */\n      dup2\n        /* \"#utility.yul\":940:947   */\n      dup2\n        /* \"#utility.yul\":933:952   */\n      mstore\n        /* \"#utility.yul\":995:998   */\n      dup5\n        /* \"#utility.yul\":988:992   */\n      0x20\n        /* \"#utility.yul\":983:985   */\n      dup4\n        /* \"#utility.yul\":975:981   */\n      dup7\n        /* \"#utility.yul\":971:986   */\n      add\n        /* \"#utility.yul\":967:993   */\n      add\n        /* \"#utility.yul\":964:999   */\n      gt\n        /* \"#utility.yul\":961:1016   */\n      iszero\n      tag_700\n      jumpi\n        /* \"#utility.yul\":1012:1013   */\n      0x00\n        /* \"#utility.yul\":1009:1010   */\n      dup1\n        /* \"#utility.yul\":1002:1014   */\n      revert\n        /* \"#utility.yul\":961:1016   */\n    tag_700:\n        /* \"#utility.yul\":1077:1079   */\n      dup2\n        /* \"#utility.yul\":1070:1074   */\n      0x20\n        /* \"#utility.yul\":1062:1068   */\n      dup6\n        /* \"#utility.yul\":1058:1075   */\n      add\n        /* \"#utility.yul\":1051:1055   */\n      0x20\n        /* \"#utility.yul\":1042:1049   */\n      dup4\n        /* \"#utility.yul\":1038:1056   */\n      add\n        /* \"#utility.yul\":1025:1080   */\n      calldatacopy\n        /* \"#utility.yul\":1125:1126   */\n      0x00\n        /* \"#utility.yul\":1100:1116   */\n      swap2\n      dup2\n      add\n        /* \"#utility.yul\":1118:1122   */\n      0x20\n        /* \"#utility.yul\":1096:1123   */\n      add\n        /* \"#utility.yul\":1089:1127   */\n      swap2\n      swap1\n      swap2\n      mstore\n        /* \"#utility.yul\":1104:1111   */\n      swap4\n        /* \"#utility.yul\":627:1158   */\n      swap3\n      pop\n      pop\n      pop\n      jump\t// out\n        /* \"#utility.yul\":1163:1559   */\n    tag_60:\n        /* \"#utility.yul\":1241:1247   */\n      0x00\n        /* \"#utility.yul\":1249:1255   */\n      dup1\n        /* \"#utility.yul\":1302:1304   */\n      0x40\n        /* \"#utility.yul\":1290:1299   */\n      dup4\n        /* \"#utility.yul\":1281:1288   */\n      dup6\n        /* \"#utility.yul\":1277:1300   */\n      sub\n        /* \"#utility.yul\":1273:1305   */\n      slt\n        /* \"#utility.yul\":1270:1322   */\n      iszero\n      tag_702\n      jumpi\n        /* \"#utility.yul\":1318:1319   */\n      0x00\n        /* \"#utility.yul\":1315:1316   */\n      dup1\n        /* \"#utility.yul\":1308:1320   */\n      revert\n        /* \"#utility.yul\":1270:1322   */\n    tag_702:\n        /* \"#utility.yul\":1341:1370   */\n      tag_703\n        /* \"#utility.yul\":1360:1369   */\n      dup4\n        /* \"#utility.yul\":1341:1370   */\n      tag_675\n      jump\t// in\n    tag_703:\n        /* \"#utility.yul\":1331:1370   */\n      swap2\n      pop\n        /* \"#utility.yul\":1421:1423   */\n      0x20\n        /* \"#utility.yul\":1410:1419   */\n      dup4\n        /* \"#utility.yul\":1406:1424   */\n      add\n        /* \"#utility.yul\":1393:1425   */\n      calldataload\n        /* \"#utility.yul\":1448:1466   */\n      0xffffffffffffffff\n        /* \"#utility.yul\":1440:1446   */\n      dup2\n        /* \"#utility.yul\":1437:1467   */\n      gt\n        /* \"#utility.yul\":1434:1484   */\n      iszero\n      tag_704\n      jumpi\n        /* \"#utility.yul\":1480:1481   */\n      0x00\n        /* \"#utility.yul\":1477:1478   */\n      dup1\n        /* \"#utility.yul\":1470:1482   */\n      revert\n        /* \"#utility.yul\":1434:1484   */\n    tag_704:\n        /* \"#utility.yul\":1503:1553   */\n      tag_705\n        /* \"#utility.yul\":1545:1552   */\n      dup6\n        /* \"#utility.yul\":1536:1542   */\n      dup3\n        /* \"#utility.yul\":1525:1534   */\n      dup7\n        /* \"#utility.yul\":1521:1543   */\n      add\n        /* \"#utility.yul\":1503:1553   */\n      tag_677\n      jump\t// in\n    tag_705:\n        /* \"#utility.yul\":1493:1553   */\n      swap2\n      pop\n      pop\n        /* \"#utility.yul\":1163:1559   */\n      swap3\n      pop\n      swap3\n      swap1\n      pop\n      jump\t// out\n        /* \"#utility.yul\":1564:1695   */\n    tag_678:\n      not(sub(shl(0xe0, 0x01), 0x01))\n        /* \"#utility.yul\":1638:1670   */\n      dup2\n      and\n        /* \"#utility.yul\":1628:1671   */\n      dup2\n      eq\n        /* \"#utility.yul\":1618:1689   */\n      tag_268\n      jumpi\n        /* \"#utility.yul\":1685:1686   */\n      0x00\n        /* \"#utility.yul\":1682:1683   */\n      dup1\n        /* \"#utility.yul\":1675:1687   */\n      revert\n        /* \"#utility.yul\":1700:1945   */\n    tag_64:\n        /* \"#utility.yul\":1758:1764   */\n      0x00\n        /* \"#utility.yul\":1811:1813   */\n      0x20\n        /* \"#utility.yul\":1799:1808   */\n      dup3\n        /* \"#utility.yul\":1790:1797   */\n      dup5\n        /* \"#utility.yul\":1786:1809   */\n      sub\n        /* \"#utility.yul\":1782:1814   */\n      slt\n        /* \"#utility.yul\":1779:1831   */\n      iszero\n      tag_709\n      jumpi\n        /* \"#utility.yul\":1827:1828   */\n      0x00\n        /* \"#utility.yul\":1824:1825   */\n      dup1\n        /* \"#utility.yul\":1817:1829   */\n      revert\n        /* \"#utility.yul\":1779:1831   */\n    tag_709:\n        /* \"#utility.yul\":1866:1875   */\n      dup2\n        /* \"#utility.yul\":1853:1876   */\n      calldataload\n        /* \"#utility.yul\":1885:1915   */\n      tag_369\n        /* \"#utility.yul\":1909:1914   */\n      dup2\n        /* \"#utility.yul\":1885:1915   */\n      tag_678\n      jump\t// in\n        /* \"#utility.yul\":2142:2442   */\n    tag_679:\n        /* \"#utility.yul\":2195:2198   */\n      0x00\n        /* \"#utility.yul\":2233:2238   */\n      dup2\n        /* \"#utility.yul\":2227:2239   */\n      mload\n        /* \"#utility.yul\":2260:2266   */\n      dup1\n        /* \"#utility.yul\":2255:2258   */\n      dup5\n        /* \"#utility.yul\":2248:2267   */\n      mstore\n        /* \"#utility.yul\":2316:2322   */\n      dup1\n        /* \"#utility.yul\":2309:2313   */\n      0x20\n        /* \"#utility.yul\":2302:2307   */\n      dup5\n        /* \"#utility.yul\":2298:2314   */\n      add\n        /* \"#utility.yul\":2291:2295   */\n      0x20\n        /* \"#utility.yul\":2286:2289   */\n      dup7\n        /* \"#utility.yul\":2282:2296   */\n      add\n        /* \"#utility.yul\":2276:2323   */\n      mcopy\n        /* \"#utility.yul\":2368:2369   */\n      0x00\n        /* \"#utility.yul\":2361:2365   */\n      0x20\n        /* \"#utility.yul\":2352:2358   */\n      dup3\n        /* \"#utility.yul\":2347:2350   */\n      dup7\n        /* \"#utility.yul\":2343:2359   */\n      add\n        /* \"#utility.yul\":2339:2366   */\n      add\n        /* \"#utility.yul\":2332:2370   */\n      mstore\n        /* \"#utility.yul\":2431:2435   */\n      0x20\n        /* \"#utility.yul\":2424:2426   */\n      0x1f\n        /* \"#utility.yul\":2420:2427   */\n      not\n        /* \"#utility.yul\":2415:2417   */\n      0x1f\n        /* \"#utility.yul\":2407:2413   */\n      dup4\n        /* \"#utility.yul\":2403:2418   */\n      add\n        /* \"#utility.yul\":2399:2428   */\n      and\n        /* \"#utility.yul\":2394:2397   */\n      dup6\n        /* \"#utility.yul\":2390:2429   */\n      add\n        /* \"#utility.yul\":2386:2436   */\n      add\n        /* \"#utility.yul\":2379:2436   */\n      swap2\n      pop\n      pop\n        /* \"#utility.yul\":2142:2442   */\n      swap3\n      swap2\n      pop\n      pop\n      jump\t// out\n        /* \"#utility.yul\":2447:2678   */\n    tag_71:\n        /* \"#utility.yul\":2596:2598   */\n      0x20\n        /* \"#utility.yul\":2585:2594   */\n      dup2\n        /* \"#utility.yul\":2578:2599   */\n      mstore\n        /* \"#utility.yul\":2559:2563   */\n      0x00\n        /* \"#utility.yul\":2616:2672   */\n      tag_369\n        /* \"#utility.yul\":2668:2670   */\n      0x20\n        /* \"#utility.yul\":2657:2666   */\n      dup4\n        /* \"#utility.yul\":2653:2671   */\n      add\n        /* \"#utility.yul\":2645:2651   */\n      dup5\n        /* \"#utility.yul\":2616:2672   */\n      tag_679\n      jump\t// in\n        /* \"#utility.yul\":2683:2863   */\n    tag_77:\n        /* \"#utility.yul\":2742:2748   */\n      0x00\n        /* \"#utility.yul\":2795:2797   */\n      0x20\n        /* \"#utility.yul\":2783:2792   */\n      dup3\n        /* \"#utility.yul\":2774:2781   */\n      dup5\n        /* \"#utility.yul\":2770:2793   */\n      sub\n        /* \"#utility.yul\":2766:2798   */\n      slt\n        /* \"#utility.yul\":2763:2815   */\n      iszero\n      tag_716\n      jumpi\n        /* \"#utility.yul\":2811:2812   */\n      0x00\n        /* \"#utility.yul\":2808:2809   */\n      dup1\n        /* \"#utility.yul\":2801:2813   */\n      revert\n        /* \"#utility.yul\":2763:2815   */\n    tag_716:\n      pop\n        /* \"#utility.yul\":2834:2857   */\n      calldataload\n      swap2\n        /* \"#utility.yul\":2683:2863   */\n      swap1\n      pop\n      jump\t// out\n        /* \"#utility.yul\":3099:3353   */\n    tag_83:\n        /* \"#utility.yul\":3167:3173   */\n      0x00\n        /* \"#utility.yul\":3175:3181   */\n      dup1\n        /* \"#utility.yul\":3228:3230   */\n      0x40\n        /* \"#utility.yul\":3216:3225   */\n      dup4\n        /* \"#utility.yul\":3207:3214   */\n      dup6\n        /* \"#utility.yul\":3203:3226   */\n      sub\n        /* \"#utility.yul\":3199:3231   */\n      slt\n        /* \"#utility.yul\":3196:3248   */\n      iszero\n      tag_719\n      jumpi\n        /* \"#utility.yul\":3244:3245   */\n      0x00\n        /* \"#utility.yul\":3241:3242   */\n      dup1\n        /* \"#utility.yul\":3234:3246   */\n      revert\n        /* \"#utility.yul\":3196:3248   */\n    tag_719:\n        /* \"#utility.yul\":3267:3296   */\n      tag_720\n        /* \"#utility.yul\":3286:3295   */\n      dup4\n        /* \"#utility.yul\":3267:3296   */\n      tag_675\n      jump\t// in\n    tag_720:\n        /* \"#utility.yul\":3257:3296   */\n      swap5\n        /* \"#utility.yul\":3343:3345   */\n      0x20\n        /* \"#utility.yul\":3328:3346   */\n      swap4\n      swap1\n      swap4\n      add\n        /* \"#utility.yul\":3315:3347   */\n      calldataload\n      swap4\n      pop\n      pop\n      pop\n        /* \"#utility.yul\":3099:3353   */\n      jump\t// out\n        /* \"#utility.yul\":3358:3544   */\n    tag_90:\n        /* \"#utility.yul\":3417:3423   */\n      0x00\n        /* \"#utility.yul\":3470:3472   */\n      0x20\n        /* \"#utility.yul\":3458:3467   */\n      dup3\n        /* \"#utility.yul\":3449:3456   */\n      dup5\n        /* \"#utility.yul\":3445:3468   */\n      sub\n        /* \"#utility.yul\":3441:3473   */\n      slt\n        /* \"#utility.yul\":3438:3490   */\n      iszero\n      tag_722\n      jumpi\n        /* \"#utility.yul\":3486:3487   */\n      0x00\n        /* \"#utility.yul\":3483:3484   */\n      dup1\n        /* \"#utility.yul\":3476:3488   */\n      revert\n        /* \"#utility.yul\":3438:3490   */\n    tag_722:\n        /* \"#utility.yul\":3509:3538   */\n      tag_369\n        /* \"#utility.yul\":3528:3537   */\n      dup3\n        /* \"#utility.yul\":3509:3538   */\n      tag_675\n      jump\t// in\n        /* \"#utility.yul\":3731:4059   */\n    tag_98:\n        /* \"#utility.yul\":3808:3814   */\n      0x00\n        /* \"#utility.yul\":3816:3822   */\n      dup1\n        /* \"#utility.yul\":3824:3830   */\n      0x00\n        /* \"#utility.yul\":3877:3879   */\n      0x60\n        /* \"#utility.yul\":3865:3874   */\n      dup5\n        /* \"#utility.yul\":3856:3863   */\n      dup7\n        /* \"#utility.yul\":3852:3875   */\n      sub\n        /* \"#utility.yul\":3848:3880   */\n      slt\n        /* \"#utility.yul\":3845:3897   */\n      iszero\n      tag_726\n      jumpi\n        /* \"#utility.yul\":3893:3894   */\n      0x00\n        /* \"#utility.yul\":3890:3891   */\n      dup1\n        /* \"#utility.yul\":3883:3895   */\n      revert\n        /* \"#utility.yul\":3845:3897   */\n    tag_726:\n        /* \"#utility.yul\":3916:3945   */\n      tag_727\n        /* \"#utility.yul\":3935:3944   */\n      dup5\n        /* \"#utility.yul\":3916:3945   */\n      tag_675\n      jump\t// in\n    tag_727:\n        /* \"#utility.yul\":3906:3945   */\n      swap3\n      pop\n        /* \"#utility.yul\":3964:4002   */\n      tag_728\n        /* \"#utility.yul\":3998:4000   */\n      0x20\n        /* \"#utility.yul\":3987:3996   */\n      dup6\n        /* \"#utility.yul\":3983:4001   */\n      add\n        /* \"#utility.yul\":3964:4002   */\n      tag_675\n      jump\t// in\n    tag_728:\n        /* \"#utility.yul\":3954:4002   */\n      swap2\n      pop\n        /* \"#utility.yul\":4049:4051   */\n      0x40\n        /* \"#utility.yul\":4038:4047   */\n      dup5\n        /* \"#utility.yul\":4034:4052   */\n      add\n        /* \"#utility.yul\":4021:4053   */\n      calldataload\n        /* \"#utility.yul\":4011:4053   */\n      swap1\n      pop\n        /* \"#utility.yul\":3731:4059   */\n      swap3\n      pop\n      swap3\n      pop\n      swap3\n      jump\t// out\n        /* \"#utility.yul\":4064:4312   */\n    tag_106:\n        /* \"#utility.yul\":4132:4138   */\n      0x00\n        /* \"#utility.yul\":4140:4146   */\n      dup1\n        /* \"#utility.yul\":4193:4195   */\n      0x40\n        /* \"#utility.yul\":4181:4190   */\n      dup4\n        /* \"#utility.yul\":4172:4179   */\n      dup6\n        /* \"#utility.yul\":4168:4191   */\n      sub\n        /* \"#utility.yul\":4164:4196   */\n      slt\n        /* \"#utility.yul\":4161:4213   */\n      iszero\n      tag_730\n      jumpi\n        /* \"#utility.yul\":4209:4210   */\n      0x00\n        /* \"#utility.yul\":4206:4207   */\n      dup1\n        /* \"#utility.yul\":4199:4211   */\n      revert\n        /* \"#utility.yul\":4161:4213   */\n    tag_730:\n      pop\n      pop\n        /* \"#utility.yul\":4232:4255   */\n      dup1\n      calldataload\n      swap3\n        /* \"#utility.yul\":4302:4304   */\n      0x20\n        /* \"#utility.yul\":4287:4305   */\n      swap1\n      swap2\n      add\n        /* \"#utility.yul\":4274:4306   */\n      calldataload\n      swap2\n      pop\n        /* \"#utility.yul\":4064:4312   */\n      jump\t// out\n        /* \"#utility.yul\":4932:5878   */\n    tag_130:\n        /* \"#utility.yul\":5016:5022   */\n      0x00\n        /* \"#utility.yul\":5047:5049   */\n      0x20\n        /* \"#utility.yul\":5090:5092   */\n      dup1\n        /* \"#utility.yul\":5078:5087   */\n      dup4\n        /* \"#utility.yul\":5069:5076   */\n      dup6\n        /* \"#utility.yul\":5065:5088   */\n      sub\n        /* \"#utility.yul\":5061:5093   */\n      slt\n        /* \"#utility.yul\":5058:5110   */\n      iszero\n      tag_734\n      jumpi\n        /* \"#utility.yul\":5106:5107   */\n      0x00\n        /* \"#utility.yul\":5103:5104   */\n      dup1\n        /* \"#utility.yul\":5096:5108   */\n      revert\n        /* \"#utility.yul\":5058:5110   */\n    tag_734:\n        /* \"#utility.yul\":5146:5155   */\n      dup3\n        /* \"#utility.yul\":5133:5156   */\n      calldataload\n        /* \"#utility.yul\":5175:5193   */\n      0xffffffffffffffff\n        /* \"#utility.yul\":5216:5218   */\n      dup1\n        /* \"#utility.yul\":5208:5214   */\n      dup3\n        /* \"#utility.yul\":5205:5219   */\n      gt\n        /* \"#utility.yul\":5202:5236   */\n      iszero\n      tag_735\n      jumpi\n        /* \"#utility.yul\":5232:5233   */\n      0x00\n        /* \"#utility.yul\":5229:5230   */\n      dup1\n        /* \"#utility.yul\":5222:5234   */\n      revert\n        /* \"#utility.yul\":5202:5236   */\n    tag_735:\n        /* \"#utility.yul\":5270:5276   */\n      dup2\n        /* \"#utility.yul\":5259:5268   */\n      dup6\n        /* \"#utility.yul\":5255:5277   */\n      add\n        /* \"#utility.yul\":5245:5277   */\n      swap2\n      pop\n        /* \"#utility.yul\":5315:5322   */\n      dup6\n        /* \"#utility.yul\":5308:5312   */\n      0x1f\n        /* \"#utility.yul\":5304:5306   */\n      dup4\n        /* \"#utility.yul\":5300:5313   */\n      add\n        /* \"#utility.yul\":5296:5323   */\n      slt\n        /* \"#utility.yul\":5286:5341   */\n      tag_736\n      jumpi\n        /* \"#utility.yul\":5337:5338   */\n      0x00\n        /* \"#utility.yul\":5334:5335   */\n      dup1\n        /* \"#utility.yul\":5327:5339   */\n      revert\n        /* \"#utility.yul\":5286:5341   */\n    tag_736:\n        /* \"#utility.yul\":5373:5375   */\n      dup2\n        /* \"#utility.yul\":5360:5376   */\n      calldataload\n        /* \"#utility.yul\":5395:5397   */\n      dup2\n        /* \"#utility.yul\":5391:5393   */\n      dup2\n        /* \"#utility.yul\":5388:5398   */\n      gt\n        /* \"#utility.yul\":5385:5421   */\n      iszero\n      tag_738\n      jumpi\n        /* \"#utility.yul\":5401:5419   */\n      tag_738\n      tag_308\n      jump\t// in\n    tag_738:\n        /* \"#utility.yul\":5447:5449   */\n      dup1\n        /* \"#utility.yul\":5444:5445   */\n      0x05\n        /* \"#utility.yul\":5440:5450   */\n      shl\n        /* \"#utility.yul\":5430:5450   */\n      swap2\n      pop\n        /* \"#utility.yul\":5470:5498   */\n      tag_739\n        /* \"#utility.yul\":5494:5496   */\n      dup5\n        /* \"#utility.yul\":5490:5492   */\n      dup4\n        /* \"#utility.yul\":5486:5497   */\n      add\n        /* \"#utility.yul\":5470:5498   */\n      tag_676\n      jump\t// in\n    tag_739:\n        /* \"#utility.yul\":5532:5547   */\n      dup2\n      dup2\n      mstore\n        /* \"#utility.yul\":5602:5613   */\n      swap2\n      dup4\n      add\n        /* \"#utility.yul\":5598:5618   */\n      dup5\n      add\n      swap2\n        /* \"#utility.yul\":5563:5575   */\n      dup5\n      dup2\n      add\n      swap1\n        /* \"#utility.yul\":5630:5649   */\n      dup9\n      dup5\n      gt\n        /* \"#utility.yul\":5627:5666   */\n      iszero\n      tag_740\n      jumpi\n        /* \"#utility.yul\":5662:5663   */\n      0x00\n        /* \"#utility.yul\":5659:5660   */\n      dup1\n        /* \"#utility.yul\":5652:5664   */\n      revert\n        /* \"#utility.yul\":5627:5666   */\n    tag_740:\n        /* \"#utility.yul\":5686:5697   */\n      swap4\n      dup6\n      add\n      swap4\n        /* \"#utility.yul\":5706:5848   */\n    tag_741:\n        /* \"#utility.yul\":5722:5728   */\n      dup4\n        /* \"#utility.yul\":5717:5720   */\n      dup6\n        /* \"#utility.yul\":5714:5729   */\n      lt\n        /* \"#utility.yul\":5706:5848   */\n      iszero\n      tag_743\n      jumpi\n        /* \"#utility.yul\":5788:5805   */\n      dup5\n      calldataload\n        /* \"#utility.yul\":5776:5806   */\n      dup3\n      mstore\n        /* \"#utility.yul\":5739:5751   */\n      swap4\n      dup6\n      add\n      swap4\n        /* \"#utility.yul\":5826:5838   */\n      swap1\n      dup6\n      add\n      swap1\n        /* \"#utility.yul\":5706:5848   */\n      jump(tag_741)\n    tag_743:\n        /* \"#utility.yul\":5867:5872   */\n      swap9\n        /* \"#utility.yul\":4932:5878   */\n      swap8\n      pop\n      pop\n      pop\n      pop\n      pop\n      pop\n      pop\n      pop\n      jump\t// out\n        /* \"#utility.yul\":6189:6913   */\n    tag_133:\n        /* \"#utility.yul\":6424:6426   */\n      0x20\n        /* \"#utility.yul\":6476:6497   */\n      dup1\n      dup3\n      mstore\n        /* \"#utility.yul\":6546:6559   */\n      dup3\n      mload\n        /* \"#utility.yul\":6449:6467   */\n      dup3\n      dup3\n      add\n        /* \"#utility.yul\":6568:6590   */\n      dup2\n      swap1\n      mstore\n        /* \"#utility.yul\":6395:6399   */\n      0x00\n      swap2\n        /* \"#utility.yul\":6424:6426   */\n      swap1\n        /* \"#utility.yul\":6647:6662   */\n      dup5\n      dup3\n      add\n      swap1\n        /* \"#utility.yul\":6621:6623   */\n      0x40\n        /* \"#utility.yul\":6606:6624   */\n      dup6\n      add\n      swap1\n        /* \"#utility.yul\":6395:6399   */\n      dup5\n        /* \"#utility.yul\":6690:6887   */\n    tag_746:\n        /* \"#utility.yul\":6704:6710   */\n      dup2\n        /* \"#utility.yul\":6701:6702   */\n      dup2\n        /* \"#utility.yul\":6698:6711   */\n      lt\n        /* \"#utility.yul\":6690:6887   */\n      iszero\n      tag_348\n      jumpi\n        /* \"#utility.yul\":6753:6805   */\n      tag_749\n        /* \"#utility.yul\":6801:6804   */\n      dup4\n        /* \"#utility.yul\":6792:6798   */\n      dup6\n        /* \"#utility.yul\":6786:6799   */\n      mload\n        /* \"#utility.yul\":5967:5979   */\n      dup1\n      mload\n      sub(shl(0xa0, 0x01), 0x01)\n        /* \"#utility.yul\":5963:6024   */\n      and\n        /* \"#utility.yul\":5951:6025   */\n      dup3\n      mstore\n        /* \"#utility.yul\":6078:6082   */\n      0x20\n        /* \"#utility.yul\":6067:6083   */\n      dup1\n      dup3\n      add\n        /* \"#utility.yul\":6061:6084   */\n      mload\n        /* \"#utility.yul\":6086:6104   */\n      0xffffffffffffffff\n        /* \"#utility.yul\":6057:6105   */\n      and\n        /* \"#utility.yul\":6041:6055   */\n      swap1\n      dup4\n      add\n        /* \"#utility.yul\":6034:6106   */\n      mstore\n        /* \"#utility.yul\":6169:6173   */\n      0x40\n        /* \"#utility.yul\":6158:6174   */\n      swap1\n      dup2\n      add\n        /* \"#utility.yul\":6152:6175   */\n      mload\n        /* \"#utility.yul\":6145:6176   */\n      iszero\n        /* \"#utility.yul\":6138:6177   */\n      iszero\n        /* \"#utility.yul\":6122:6136   */\n      swap2\n      add\n        /* \"#utility.yul\":6115:6178   */\n      mstore\n        /* \"#utility.yul\":5883:6184   */\n      jump\n        /* \"#utility.yul\":6753:6805   */\n    tag_749:\n        /* \"#utility.yul\":6862:6877   */\n      swap3\n      dup5\n      add\n      swap3\n        /* \"#utility.yul\":6834:6838   */\n      0x60\n        /* \"#utility.yul\":6825:6839   */\n      swap3\n      swap1\n      swap3\n      add\n      swap2\n        /* \"#utility.yul\":6726:6727   */\n      0x01\n        /* \"#utility.yul\":6719:6728   */\n      add\n        /* \"#utility.yul\":6690:6887   */\n      jump(tag_746)\n        /* \"#utility.yul\":6918:7603   */\n    tag_150:\n        /* \"#utility.yul\":7023:7029   */\n      0x00\n        /* \"#utility.yul\":7031:7037   */\n      dup1\n        /* \"#utility.yul\":7039:7045   */\n      0x00\n        /* \"#utility.yul\":7047:7053   */\n      dup1\n        /* \"#utility.yul\":7100:7103   */\n      0x80\n        /* \"#utility.yul\":7088:7097   */\n      dup6\n        /* \"#utility.yul\":7079:7086   */\n      dup8\n        /* \"#utility.yul\":7075:7098   */\n      sub\n        /* \"#utility.yul\":7071:7104   */\n      slt\n        /* \"#utility.yul\":7068:7121   */\n      iszero\n      tag_751\n      jumpi\n        /* \"#utility.yul\":7117:7118   */\n      0x00\n        /* \"#utility.yul\":7114:7115   */\n      dup1\n        /* \"#utility.yul\":7107:7119   */\n      revert\n        /* \"#utility.yul\":7068:7121   */\n    tag_751:\n        /* \"#utility.yul\":7140:7169   */\n      tag_752\n        /* \"#utility.yul\":7159:7168   */\n      dup6\n        /* \"#utility.yul\":7140:7169   */\n      tag_675\n      jump\t// in\n    tag_752:\n        /* \"#utility.yul\":7130:7169   */\n      swap4\n      pop\n        /* \"#utility.yul\":7216:7218   */\n      0x20\n        /* \"#utility.yul\":7205:7214   */\n      dup6\n        /* \"#utility.yul\":7201:7219   */\n      add\n        /* \"#utility.yul\":7188:7220   */\n      calldataload\n        /* \"#utility.yul\":7178:7220   */\n      swap3\n      pop\n        /* \"#utility.yul\":7271:7273   */\n      0x40\n        /* \"#utility.yul\":7260:7269   */\n      dup6\n        /* \"#utility.yul\":7256:7274   */\n      add\n        /* \"#utility.yul\":7243:7275   */\n      calldataload\n        /* \"#utility.yul\":7294:7312   */\n      0xffffffffffffffff\n        /* \"#utility.yul\":7335:7337   */\n      dup1\n        /* \"#utility.yul\":7327:7333   */\n      dup3\n        /* \"#utility.yul\":7324:7338   */\n      gt\n        /* \"#utility.yul\":7321:7355   */\n      iszero\n      tag_753\n      jumpi\n        /* \"#utility.yul\":7351:7352   */\n      0x00\n        /* \"#utility.yul\":7348:7349   */\n      dup1\n        /* \"#utility.yul\":7341:7353   */\n      revert\n        /* \"#utility.yul\":7321:7355   */\n    tag_753:\n        /* \"#utility.yul\":7374:7424   */\n      tag_754\n        /* \"#utility.yul\":7416:7423   */\n      dup9\n        /* \"#utility.yul\":7407:7413   */\n      dup4\n        /* \"#utility.yul\":7396:7405   */\n      dup10\n        /* \"#utility.yul\":7392:7414   */\n      add\n        /* \"#utility.yul\":7374:7424   */\n      tag_677\n      jump\t// in\n    tag_754:\n        /* \"#utility.yul\":7364:7424   */\n      swap4\n      pop\n        /* \"#utility.yul\":7477:7479   */\n      0x60\n        /* \"#utility.yul\":7466:7475   */\n      dup8\n        /* \"#utility.yul\":7462:7480   */\n      add\n        /* \"#utility.yul\":7449:7481   */\n      calldataload\n        /* \"#utility.yul\":7433:7481   */\n      swap2\n      pop\n        /* \"#utility.yul\":7506:7508   */\n      dup1\n        /* \"#utility.yul\":7496:7504   */\n      dup3\n        /* \"#utility.yul\":7493:7509   */\n      gt\n        /* \"#utility.yul\":7490:7526   */\n      iszero\n      tag_755\n      jumpi\n        /* \"#utility.yul\":7522:7523   */\n      0x00\n        /* \"#utility.yul\":7519:7520   */\n      dup1\n        /* \"#utility.yul\":7512:7524   */\n      revert\n        /* \"#utility.yul\":7490:7526   */\n    tag_755:\n      pop\n        /* \"#utility.yul\":7545:7597   */\n      tag_756\n        /* \"#utility.yul\":7589:7596   */\n      dup8\n        /* \"#utility.yul\":7578:7586   */\n      dup3\n        /* \"#utility.yul\":7567:7576   */\n      dup9\n        /* \"#utility.yul\":7563:7587   */\n      add\n        /* \"#utility.yul\":7545:7597   */\n      tag_677\n      jump\t// in\n    tag_756:\n        /* \"#utility.yul\":7535:7597   */\n      swap2\n      pop\n      pop\n        /* \"#utility.yul\":6918:7603   */\n      swap3\n      swap6\n      swap2\n      swap5\n      pop\n      swap3\n      pop\n      jump\t// out\n        /* \"#utility.yul\":7608:8240   */\n    tag_160:\n        /* \"#utility.yul\":7779:7781   */\n      0x20\n        /* \"#utility.yul\":7831:7852   */\n      dup1\n      dup3\n      mstore\n        /* \"#utility.yul\":7901:7914   */\n      dup3\n      mload\n        /* \"#utility.yul\":7804:7822   */\n      dup3\n      dup3\n      add\n        /* \"#utility.yul\":7923:7945   */\n      dup2\n      swap1\n      mstore\n        /* \"#utility.yul\":7750:7754   */\n      0x00\n      swap2\n        /* \"#utility.yul\":7779:7781   */\n      swap1\n        /* \"#utility.yul\":8002:8017   */\n      dup5\n      dup3\n      add\n      swap1\n        /* \"#utility.yul\":7976:7978   */\n      0x40\n        /* \"#utility.yul\":7961:7979   */\n      dup6\n      add\n      swap1\n        /* \"#utility.yul\":7750:7754   */\n      dup5\n        /* \"#utility.yul\":8045:8214   */\n    tag_758:\n        /* \"#utility.yul\":8059:8065   */\n      dup2\n        /* \"#utility.yul\":8056:8057   */\n      dup2\n        /* \"#utility.yul\":8053:8066   */\n      lt\n        /* \"#utility.yul\":8045:8214   */\n      iszero\n      tag_348\n      jumpi\n        /* \"#utility.yul\":8120:8133   */\n      dup4\n      mload\n        /* \"#utility.yul\":8108:8134   */\n      dup4\n      mstore\n        /* \"#utility.yul\":8189:8204   */\n      swap3\n      dup5\n      add\n      swap3\n        /* \"#utility.yul\":8154:8166   */\n      swap2\n      dup5\n      add\n      swap2\n        /* \"#utility.yul\":8081:8082   */\n      0x01\n        /* \"#utility.yul\":8074:8083   */\n      add\n        /* \"#utility.yul\":8045:8214   */\n      jump(tag_758)\n        /* \"#utility.yul\":8245:8567   */\n    tag_166:\n        /* \"#utility.yul\":8314:8320   */\n      0x00\n        /* \"#utility.yul\":8367:8369   */\n      0x20\n        /* \"#utility.yul\":8355:8364   */\n      dup3\n        /* \"#utility.yul\":8346:8353   */\n      dup5\n        /* \"#utility.yul\":8342:8365   */\n      sub\n        /* \"#utility.yul\":8338:8370   */\n      slt\n        /* \"#utility.yul\":8335:8387   */\n      iszero\n      tag_762\n      jumpi\n        /* \"#utility.yul\":8383:8384   */\n      0x00\n        /* \"#utility.yul\":8380:8381   */\n      dup1\n        /* \"#utility.yul\":8373:8385   */\n      revert\n        /* \"#utility.yul\":8335:8387   */\n    tag_762:\n        /* \"#utility.yul\":8423:8432   */\n      dup2\n        /* \"#utility.yul\":8410:8433   */\n      calldataload\n        /* \"#utility.yul\":8456:8474   */\n      0xffffffffffffffff\n        /* \"#utility.yul\":8448:8454   */\n      dup2\n        /* \"#utility.yul\":8445:8475   */\n      gt\n        /* \"#utility.yul\":8442:8492   */\n      iszero\n      tag_763\n      jumpi\n        /* \"#utility.yul\":8488:8489   */\n      0x00\n        /* \"#utility.yul\":8485:8486   */\n      dup1\n        /* \"#utility.yul\":8478:8490   */\n      revert\n        /* \"#utility.yul\":8442:8492   */\n    tag_763:\n        /* \"#utility.yul\":8511:8561   */\n      tag_300\n        /* \"#utility.yul\":8553:8560   */\n      dup5\n        /* \"#utility.yul\":8544:8550   */\n      dup3\n        /* \"#utility.yul\":8533:8542   */\n      dup6\n        /* \"#utility.yul\":8529:8551   */\n      add\n        /* \"#utility.yul\":8511:8561   */\n      tag_677\n      jump\t// in\n        /* \"#utility.yul\":8572:8894   */\n    tag_173:\n        /* \"#utility.yul\":8649:8655   */\n      0x00\n        /* \"#utility.yul\":8657:8663   */\n      dup1\n        /* \"#utility.yul\":8665:8671   */\n      0x00\n        /* \"#utility.yul\":8718:8720   */\n      0x60\n        /* \"#utility.yul\":8706:8715   */\n      dup5\n        /* \"#utility.yul\":8697:8704   */\n      dup7\n        /* \"#utility.yul\":8693:8716   */\n      sub\n        /* \"#utility.yul\":8689:8721   */\n      slt\n        /* \"#utility.yul\":8686:8738   */\n      iszero\n      tag_766\n      jumpi\n        /* \"#utility.yul\":8734:8735   */\n      0x00\n        /* \"#utility.yul\":8731:8732   */\n      dup1\n        /* \"#utility.yul\":8724:8736   */\n      revert\n        /* \"#utility.yul\":8686:8738   */\n    tag_766:\n        /* \"#utility.yul\":8757:8786   */\n      tag_767\n        /* \"#utility.yul\":8776:8785   */\n      dup5\n        /* \"#utility.yul\":8757:8786   */\n      tag_675\n      jump\t// in\n    tag_767:\n        /* \"#utility.yul\":8747:8786   */\n      swap6\n        /* \"#utility.yul\":8833:8835   */\n      0x20\n        /* \"#utility.yul\":8818:8836   */\n      dup6\n      add\n        /* \"#utility.yul\":8805:8837   */\n      calldataload\n      swap6\n      pop\n        /* \"#utility.yul\":8884:8886   */\n      0x40\n        /* \"#utility.yul\":8869:8887   */\n      swap1\n      swap5\n      add\n        /* \"#utility.yul\":8856:8888   */\n      calldataload\n      swap4\n        /* \"#utility.yul\":8572:8894   */\n      swap3\n      pop\n      pop\n      pop\n      jump\t// out\n        /* \"#utility.yul\":8899:9221   */\n    tag_178:\n        /* \"#utility.yul\":8976:8982   */\n      0x00\n        /* \"#utility.yul\":8984:8990   */\n      dup1\n        /* \"#utility.yul\":8992:8998   */\n      0x00\n        /* \"#utility.yul\":9045:9047   */\n      0x60\n        /* \"#utility.yul\":9033:9042   */\n      dup5\n        /* \"#utility.yul\":9024:9031   */\n      dup7\n        /* \"#utility.yul\":9020:9043   */\n      sub\n        /* \"#utility.yul\":9016:9048   */\n      slt\n        /* \"#utility.yul\":9013:9065   */\n      iszero\n      tag_769\n      jumpi\n        /* \"#utility.yul\":9061:9062   */\n      0x00\n        /* \"#utility.yul\":9058:9059   */\n      dup1\n        /* \"#utility.yul\":9051:9063   */\n      revert\n        /* \"#utility.yul\":9013:9065   */\n    tag_769:\n        /* \"#utility.yul\":9097:9106   */\n      dup4\n        /* \"#utility.yul\":9084:9107   */\n      calldataload\n        /* \"#utility.yul\":9074:9107   */\n      swap3\n      pop\n        /* \"#utility.yul\":9126:9164   */\n      tag_728\n        /* \"#utility.yul\":9160:9162   */\n      0x20\n        /* \"#utility.yul\":9149:9158   */\n      dup6\n        /* \"#utility.yul\":9145:9163   */\n      add\n        /* \"#utility.yul\":9126:9164   */\n      tag_675\n      jump\t// in\n        /* \"#utility.yul\":9226:9386   */\n    tag_681:\n        /* \"#utility.yul\":9291:9311   */\n      dup1\n      calldataload\n        /* \"#utility.yul\":9347:9360   */\n      dup1\n      iszero\n        /* \"#utility.yul\":9340:9361   */\n      iszero\n        /* \"#utility.yul\":9330:9362   */\n      dup2\n      eq\n        /* \"#utility.yul\":9320:9380   */\n      tag_690\n      jumpi\n        /* \"#utility.yul\":9376:9377   */\n      0x00\n        /* \"#utility.yul\":9373:9374   */\n      dup1\n        /* \"#utility.yul\":9366:9378   */\n      revert\n        /* \"#utility.yul\":9391:9645   */\n    tag_182:\n        /* \"#utility.yul\":9456:9462   */\n      0x00\n        /* \"#utility.yul\":9464:9470   */\n      dup1\n        /* \"#utility.yul\":9517:9519   */\n      0x40\n        /* \"#utility.yul\":9505:9514   */\n      dup4\n        /* \"#utility.yul\":9496:9503   */\n      dup6\n        /* \"#utility.yul\":9492:9515   */\n      sub\n        /* \"#utility.yul\":9488:9520   */\n      slt\n        /* \"#utility.yul\":9485:9537   */\n      iszero\n      tag_774\n      jumpi\n        /* \"#utility.yul\":9533:9534   */\n      0x00\n        /* \"#utility.yul\":9530:9531   */\n      dup1\n        /* \"#utility.yul\":9523:9535   */\n      revert\n        /* \"#utility.yul\":9485:9537   */\n    tag_774:\n        /* \"#utility.yul\":9556:9585   */\n      tag_775\n        /* \"#utility.yul\":9575:9584   */\n      dup4\n        /* \"#utility.yul\":9556:9585   */\n      tag_675\n      jump\t// in\n    tag_775:\n        /* \"#utility.yul\":9546:9585   */\n      swap2\n      pop\n        /* \"#utility.yul\":9604:9639   */\n      tag_776\n        /* \"#utility.yul\":9635:9637   */\n      0x20\n        /* \"#utility.yul\":9624:9633   */\n      dup5\n        /* \"#utility.yul\":9620:9638   */\n      add\n        /* \"#utility.yul\":9604:9639   */\n      tag_681\n      jump\t// in\n    tag_776:\n        /* \"#utility.yul\":9594:9639   */\n      swap1\n      pop\n        /* \"#utility.yul\":9391:9645   */\n      swap3\n      pop\n      swap3\n      swap1\n      pop\n      jump\t// out\n        /* \"#utility.yul\":9650:10276   */\n    tag_186:\n        /* \"#utility.yul\":9747:9753   */\n      0x00\n        /* \"#utility.yul\":9755:9761   */\n      dup1\n        /* \"#utility.yul\":9808:9810   */\n      0x20\n        /* \"#utility.yul\":9796:9805   */\n      dup4\n        /* \"#utility.yul\":9787:9794   */\n      dup6\n        /* \"#utility.yul\":9783:9806   */\n      sub\n        /* \"#utility.yul\":9779:9811   */\n      slt\n        /* \"#utility.yul\":9776:9828   */\n      iszero\n      tag_778\n      jumpi\n        /* \"#utility.yul\":9824:9825   */\n      0x00\n        /* \"#utility.yul\":9821:9822   */\n      dup1\n        /* \"#utility.yul\":9814:9826   */\n      revert\n        /* \"#utility.yul\":9776:9828   */\n    tag_778:\n        /* \"#utility.yul\":9864:9873   */\n      dup3\n        /* \"#utility.yul\":9851:9874   */\n      calldataload\n        /* \"#utility.yul\":9893:9911   */\n      0xffffffffffffffff\n        /* \"#utility.yul\":9934:9936   */\n      dup1\n        /* \"#utility.yul\":9926:9932   */\n      dup3\n        /* \"#utility.yul\":9923:9937   */\n      gt\n        /* \"#utility.yul\":9920:9954   */\n      iszero\n      tag_779\n      jumpi\n        /* \"#utility.yul\":9950:9951   */\n      0x00\n        /* \"#utility.yul\":9947:9948   */\n      dup1\n        /* \"#utility.yul\":9940:9952   */\n      revert\n        /* \"#utility.yul\":9920:9954   */\n    tag_779:\n        /* \"#utility.yul\":9988:9994   */\n      dup2\n        /* \"#utility.yul\":9977:9986   */\n      dup6\n        /* \"#utility.yul\":9973:9995   */\n      add\n        /* \"#utility.yul\":9963:9995   */\n      swap2\n      pop\n        /* \"#utility.yul\":10033:10040   */\n      dup6\n        /* \"#utility.yul\":10026:10030   */\n      0x1f\n        /* \"#utility.yul\":10022:10024   */\n      dup4\n        /* \"#utility.yul\":10018:10031   */\n      add\n        /* \"#utility.yul\":10014:10041   */\n      slt\n        /* \"#utility.yul\":10004:10059   */\n      tag_780\n      jumpi\n        /* \"#utility.yul\":10055:10056   */\n      0x00\n        /* \"#utility.yul\":10052:10053   */\n      dup1\n        /* \"#utility.yul\":10045:10057   */\n      revert\n        /* \"#utility.yul\":10004:10059   */\n    tag_780:\n        /* \"#utility.yul\":10095:10097   */\n      dup2\n        /* \"#utility.yul\":10082:10098   */\n      calldataload\n        /* \"#utility.yul\":10121:10123   */\n      dup2\n        /* \"#utility.yul\":10113:10119   */\n      dup2\n        /* \"#utility.yul\":10110:10124   */\n      gt\n        /* \"#utility.yul\":10107:10141   */\n      iszero\n      tag_781\n      jumpi\n        /* \"#utility.yul\":10137:10138   */\n      0x00\n        /* \"#utility.yul\":10134:10135   */\n      dup1\n        /* \"#utility.yul\":10127:10139   */\n      revert\n        /* \"#utility.yul\":10107:10141   */\n    tag_781:\n        /* \"#utility.yul\":10190:10197   */\n      dup7\n        /* \"#utility.yul\":10185:10187   */\n      0x20\n        /* \"#utility.yul\":10175:10181   */\n      dup3\n        /* \"#utility.yul\":10172:10173   */\n      0x05\n        /* \"#utility.yul\":10168:10182   */\n      shl\n        /* \"#utility.yul\":10164:10166   */\n      dup6\n        /* \"#utility.yul\":10160:10183   */\n      add\n        /* \"#utility.yul\":10156:10188   */\n      add\n        /* \"#utility.yul\":10153:10198   */\n      gt\n        /* \"#utility.yul\":10150:10215   */\n      iszero\n      tag_782\n      jumpi\n        /* \"#utility.yul\":10211:10212   */\n      0x00\n        /* \"#utility.yul\":10208:10209   */\n      dup1\n        /* \"#utility.yul\":10201:10213   */\n      revert\n        /* \"#utility.yul\":10150:10215   */\n    tag_782:\n        /* \"#utility.yul\":10242:10244   */\n      0x20\n        /* \"#utility.yul\":10234:10245   */\n      swap3\n      swap1\n      swap3\n      add\n      swap7\n        /* \"#utility.yul\":10264:10270   */\n      swap2\n      swap6\n      pop\n        /* \"#utility.yul\":9650:10276   */\n      swap1\n      swap4\n      pop\n      pop\n      pop\n      pop\n      jump\t// out\n        /* \"#utility.yul\":10281:11093   */\n    tag_189:\n        /* \"#utility.yul\":10441:10445   */\n      0x00\n        /* \"#utility.yul\":10470:10472   */\n      0x20\n        /* \"#utility.yul\":10510:10512   */\n      dup1\n        /* \"#utility.yul\":10499:10508   */\n      dup4\n        /* \"#utility.yul\":10495:10513   */\n      add\n        /* \"#utility.yul\":10540:10542   */\n      0x20\n        /* \"#utility.yul\":10529:10538   */\n      dup5\n        /* \"#utility.yul\":10522:10543   */\n      mstore\n        /* \"#utility.yul\":10563:10569   */\n      dup1\n        /* \"#utility.yul\":10598:10604   */\n      dup6\n        /* \"#utility.yul\":10592:10605   */\n      mload\n        /* \"#utility.yul\":10629:10635   */\n      dup1\n        /* \"#utility.yul\":10621:10627   */\n      dup4\n        /* \"#utility.yul\":10614:10636   */\n      mstore\n        /* \"#utility.yul\":10667:10669   */\n      0x40\n        /* \"#utility.yul\":10656:10665   */\n      dup7\n        /* \"#utility.yul\":10652:10670   */\n      add\n        /* \"#utility.yul\":10645:10670   */\n      swap2\n      pop\n        /* \"#utility.yul\":10729:10731   */\n      0x40\n        /* \"#utility.yul\":10719:10725   */\n      dup2\n        /* \"#utility.yul\":10716:10717   */\n      0x05\n        /* \"#utility.yul\":10712:10726   */\n      shl\n        /* \"#utility.yul\":10701:10710   */\n      dup8\n        /* \"#utility.yul\":10697:10727   */\n      add\n        /* \"#utility.yul\":10693:10732   */\n      add\n        /* \"#utility.yul\":10679:10732   */\n      swap3\n      pop\n        /* \"#utility.yul\":10767:10769   */\n      0x20\n        /* \"#utility.yul\":10759:10765   */\n      dup8\n        /* \"#utility.yul\":10755:10770   */\n      add\n        /* \"#utility.yul\":10788:10789   */\n      0x00\n        /* \"#utility.yul\":10798:11064   */\n    tag_784:\n        /* \"#utility.yul\":10812:10818   */\n      dup3\n        /* \"#utility.yul\":10809:10810   */\n      dup2\n        /* \"#utility.yul\":10806:10819   */\n      lt\n        /* \"#utility.yul\":10798:11064   */\n      iszero\n      tag_786\n      jumpi\n        /* \"#utility.yul\":10905:10907   */\n      0x3f\n        /* \"#utility.yul\":10901:10908   */\n      not\n        /* \"#utility.yul\":10889:10898   */\n      dup9\n        /* \"#utility.yul\":10881:10887   */\n      dup7\n        /* \"#utility.yul\":10877:10899   */\n      sub\n        /* \"#utility.yul\":10873:10909   */\n      add\n        /* \"#utility.yul\":10868:10871   */\n      dup5\n        /* \"#utility.yul\":10861:10910   */\n      mstore\n        /* \"#utility.yul\":10933:10984   */\n      tag_787\n        /* \"#utility.yul\":10977:10983   */\n      dup6\n        /* \"#utility.yul\":10968:10974   */\n      dup4\n        /* \"#utility.yul\":10962:10975   */\n      mload\n        /* \"#utility.yul\":10933:10984   */\n      tag_679\n      jump\t// in\n    tag_787:\n        /* \"#utility.yul\":10923:10984   */\n      swap5\n      pop\n        /* \"#utility.yul\":11042:11054   */\n      swap3\n      dup6\n      add\n      swap3\n        /* \"#utility.yul\":11007:11022   */\n      swap1\n      dup6\n      add\n      swap1\n        /* \"#utility.yul\":10834:10835   */\n      0x01\n        /* \"#utility.yul\":10827:10836   */\n      add\n        /* \"#utility.yul\":10798:11064   */\n      jump(tag_784)\n    tag_786:\n      pop\n        /* \"#utility.yul\":11081:11087   */\n      swap3\n      swap8\n        /* \"#utility.yul\":10281:11093   */\n      swap7\n      pop\n      pop\n      pop\n      pop\n      pop\n      pop\n      pop\n      jump\t// out\n        /* \"#utility.yul\":11098:11636   */\n    tag_195:\n        /* \"#utility.yul\":11193:11199   */\n      0x00\n        /* \"#utility.yul\":11201:11207   */\n      dup1\n        /* \"#utility.yul\":11209:11215   */\n      0x00\n        /* \"#utility.yul\":11217:11223   */\n      dup1\n        /* \"#utility.yul\":11270:11273   */\n      0x80\n        /* \"#utility.yul\":11258:11267   */\n      dup6\n        /* \"#utility.yul\":11249:11256   */\n      dup8\n        /* \"#utility.yul\":11245:11268   */\n      sub\n        /* \"#utility.yul\":11241:11274   */\n      slt\n        /* \"#utility.yul\":11238:11291   */\n      iszero\n      tag_789\n      jumpi\n        /* \"#utility.yul\":11287:11288   */\n      0x00\n        /* \"#utility.yul\":11284:11285   */\n      dup1\n        /* \"#utility.yul\":11277:11289   */\n      revert\n        /* \"#utility.yul\":11238:11291   */\n    tag_789:\n        /* \"#utility.yul\":11310:11339   */\n      tag_790\n        /* \"#utility.yul\":11329:11338   */\n      dup6\n        /* \"#utility.yul\":11310:11339   */\n      tag_675\n      jump\t// in\n    tag_790:\n        /* \"#utility.yul\":11300:11339   */\n      swap4\n      pop\n        /* \"#utility.yul\":11358:11396   */\n      tag_791\n        /* \"#utility.yul\":11392:11394   */\n      0x20\n        /* \"#utility.yul\":11381:11390   */\n      dup7\n        /* \"#utility.yul\":11377:11395   */\n      add\n        /* \"#utility.yul\":11358:11396   */\n      tag_675\n      jump\t// in\n    tag_791:\n        /* \"#utility.yul\":11348:11396   */\n      swap3\n      pop\n        /* \"#utility.yul\":11443:11445   */\n      0x40\n        /* \"#utility.yul\":11432:11441   */\n      dup6\n        /* \"#utility.yul\":11428:11446   */\n      add\n        /* \"#utility.yul\":11415:11447   */\n      calldataload\n        /* \"#utility.yul\":11405:11447   */\n      swap2\n      pop\n        /* \"#utility.yul\":11498:11500   */\n      0x60\n        /* \"#utility.yul\":11487:11496   */\n      dup6\n        /* \"#utility.yul\":11483:11501   */\n      add\n        /* \"#utility.yul\":11470:11502   */\n      calldataload\n        /* \"#utility.yul\":11525:11543   */\n      0xffffffffffffffff\n        /* \"#utility.yul\":11517:11523   */\n      dup2\n        /* \"#utility.yul\":11514:11544   */\n      gt\n        /* \"#utility.yul\":11511:11561   */\n      iszero\n      tag_792\n      jumpi\n        /* \"#utility.yul\":11557:11558   */\n      0x00\n        /* \"#utility.yul\":11554:11555   */\n      dup1\n        /* \"#utility.yul\":11547:11559   */\n      revert\n        /* \"#utility.yul\":11511:11561   */\n    tag_792:\n        /* \"#utility.yul\":11580:11630   */\n      tag_756\n        /* \"#utility.yul\":11622:11629   */\n      dup8\n        /* \"#utility.yul\":11613:11619   */\n      dup3\n        /* \"#utility.yul\":11602:11611   */\n      dup9\n        /* \"#utility.yul\":11598:11620   */\n      add\n        /* \"#utility.yul\":11580:11630   */\n      tag_677\n      jump\t// in\n        /* \"#utility.yul\":11641:11908   */\n    tag_204:\n        /* \"#utility.yul\":5967:5979   */\n      dup2\n      mload\n      sub(shl(0xa0, 0x01), 0x01)\n        /* \"#utility.yul\":5963:6024   */\n      and\n        /* \"#utility.yul\":5951:6025   */\n      dup2\n      mstore\n        /* \"#utility.yul\":6078:6082   */\n      0x20\n        /* \"#utility.yul\":6067:6083   */\n      dup1\n      dup4\n      add\n        /* \"#utility.yul\":6061:6084   */\n      mload\n        /* \"#utility.yul\":6086:6104   */\n      0xffffffffffffffff\n        /* \"#utility.yul\":6057:6105   */\n      and\n        /* \"#utility.yul\":6041:6055   */\n      swap1\n      dup3\n      add\n        /* \"#utility.yul\":6034:6106   */\n      mstore\n        /* \"#utility.yul\":6169:6173   */\n      0x40\n        /* \"#utility.yul\":6158:6174   */\n      dup1\n      dup4\n      add\n        /* \"#utility.yul\":6152:6175   */\n      mload\n        /* \"#utility.yul\":6145:6176   */\n      iszero\n        /* \"#utility.yul\":6138:6177   */\n      iszero\n        /* \"#utility.yul\":6122:6136   */\n      swap1\n      dup3\n      add\n        /* \"#utility.yul\":6115:6178   */\n      mstore\n        /* \"#utility.yul\":11839:11841   */\n      0x60\n        /* \"#utility.yul\":11824:11842   */\n      dup2\n      add\n        /* \"#utility.yul\":11851:11902   */\n      tag_235\n        /* \"#utility.yul\":5883:6184   */\n      jump\n        /* \"#utility.yul\":11913:12093   */\n    tag_211:\n        /* \"#utility.yul\":11969:11975   */\n      0x00\n        /* \"#utility.yul\":12022:12024   */\n      0x20\n        /* \"#utility.yul\":12010:12019   */\n      dup3\n        /* \"#utility.yul\":12001:12008   */\n      dup5\n        /* \"#utility.yul\":11997:12020   */\n      sub\n        /* \"#utility.yul\":11993:12025   */\n      slt\n        /* \"#utility.yul\":11990:12042   */\n      iszero\n      tag_797\n      jumpi\n        /* \"#utility.yul\":12038:12039   */\n      0x00\n        /* \"#utility.yul\":12035:12036   */\n      dup1\n        /* \"#utility.yul\":12028:12040   */\n      revert\n        /* \"#utility.yul\":11990:12042   */\n    tag_797:\n        /* \"#utility.yul\":12061:12087   */\n      tag_369\n        /* \"#utility.yul\":12077:12086   */\n      dup3\n        /* \"#utility.yul\":12061:12087   */\n      tag_681\n      jump\t// in\n        /* \"#utility.yul\":12098:12358   */\n    tag_218:\n        /* \"#utility.yul\":12166:12172   */\n      0x00\n        /* \"#utility.yul\":12174:12180   */\n      dup1\n        /* \"#utility.yul\":12227:12229   */\n      0x40\n        /* \"#utility.yul\":12215:12224   */\n      dup4\n        /* \"#utility.yul\":12206:12213   */\n      dup6\n        /* \"#utility.yul\":12202:12225   */\n      sub\n        /* \"#utility.yul\":12198:12230   */\n      slt\n        /* \"#utility.yul\":12195:12247   */\n      iszero\n      tag_800\n      jumpi\n        /* \"#utility.yul\":12243:12244   */\n      0x00\n        /* \"#utility.yul\":12240:12241   */\n      dup1\n        /* \"#utility.yul\":12233:12245   */\n      revert\n        /* \"#utility.yul\":12195:12247   */\n    tag_800:\n        /* \"#utility.yul\":12266:12295   */\n      tag_801\n        /* \"#utility.yul\":12285:12294   */\n      dup4\n        /* \"#utility.yul\":12266:12295   */\n      tag_675\n      jump\t// in\n    tag_801:\n        /* \"#utility.yul\":12256:12295   */\n      swap2\n      pop\n        /* \"#utility.yul\":12314:12352   */\n      tag_776\n        /* \"#utility.yul\":12348:12350   */\n      0x20\n        /* \"#utility.yul\":12337:12346   */\n      dup5\n        /* \"#utility.yul\":12333:12351   */\n      add\n        /* \"#utility.yul\":12314:12352   */\n      tag_675\n      jump\t// in\n        /* \"#utility.yul\":12715:13095   */\n    tag_238:\n        /* \"#utility.yul\":12794:12795   */\n      0x01\n        /* \"#utility.yul\":12790:12802   */\n      dup2\n      dup2\n      shr\n      swap1\n        /* \"#utility.yul\":12837:12849   */\n      dup3\n      and\n      dup1\n        /* \"#utility.yul\":12858:12919   */\n      tag_805\n      jumpi\n        /* \"#utility.yul\":12912:12916   */\n      0x7f\n        /* \"#utility.yul\":12904:12910   */\n      dup3\n        /* \"#utility.yul\":12900:12917   */\n      and\n        /* \"#utility.yul\":12890:12917   */\n      swap2\n      pop\n        /* \"#utility.yul\":12858:12919   */\n    tag_805:\n        /* \"#utility.yul\":12965:12967   */\n      0x20\n        /* \"#utility.yul\":12957:12963   */\n      dup3\n        /* \"#utility.yul\":12954:12968   */\n      lt\n        /* \"#utility.yul\":12934:12952   */\n      dup2\n        /* \"#utility.yul\":12931:12969   */\n      sub\n        /* \"#utility.yul\":12928:13089   */\n      tag_806\n      jumpi\n        /* \"#utility.yul\":13011:13021   */\n      0x4e487b71\n        /* \"#utility.yul\":13006:13009   */\n      0xe0\n        /* \"#utility.yul\":13002:13022   */\n      shl\n        /* \"#utility.yul\":12999:13000   */\n      0x00\n        /* \"#utility.yul\":12992:13023   */\n      mstore\n        /* \"#utility.yul\":13046:13050   */\n      0x22\n        /* \"#utility.yul\":13043:13044   */\n      0x04\n        /* \"#utility.yul\":13036:13051   */\n      mstore\n        /* \"#utility.yul\":13074:13078   */\n      0x24\n        /* \"#utility.yul\":13071:13072   */\n      0x00\n        /* \"#utility.yul\":13064:13079   */\n      revert\n        /* \"#utility.yul\":12928:13089   */\n    tag_806:\n      pop\n        /* \"#utility.yul\":12715:13095   */\n      swap2\n      swap1\n      pop\n      jump\t// out\n        /* \"#utility.yul\":14560:14687   */\n    tag_282:\n        /* \"#utility.yul\":14621:14631   */\n      0x4e487b71\n        /* \"#utility.yul\":14616:14619   */\n      0xe0\n        /* \"#utility.yul\":14612:14632   */\n      shl\n        /* \"#utility.yul\":14609:14610   */\n      0x00\n        /* \"#utility.yul\":14602:14633   */\n      mstore\n        /* \"#utility.yul\":14652:14656   */\n      0x32\n        /* \"#utility.yul\":14649:14650   */\n      0x04\n        /* \"#utility.yul\":14642:14657   */\n      mstore\n        /* \"#utility.yul\":14676:14680   */\n      0x24\n        /* \"#utility.yul\":14673:14674   */\n      0x00\n        /* \"#utility.yul\":14666:14681   */\n      revert\n        /* \"#utility.yul\":14692:14819   */\n    tag_682:\n        /* \"#utility.yul\":14753:14763   */\n      0x4e487b71\n        /* \"#utility.yul\":14748:14751   */\n      0xe0\n        /* \"#utility.yul\":14744:14764   */\n      shl\n        /* \"#utility.yul\":14741:14742   */\n      0x00\n        /* \"#utility.yul\":14734:14765   */\n      mstore\n        /* \"#utility.yul\":14784:14788   */\n      0x11\n        /* \"#utility.yul\":14781:14782   */\n      0x04\n        /* \"#utility.yul\":14774:14789   */\n      mstore\n        /* \"#utility.yul\":14808:14812   */\n      0x24\n        /* \"#utility.yul\":14805:14806   */\n      0x00\n        /* \"#utility.yul\":14798:14813   */\n      revert\n        /* \"#utility.yul\":14824:14992   */\n    tag_287:\n        /* \"#utility.yul\":14897:14906   */\n      dup1\n      dup3\n      mul\n        /* \"#utility.yul\":14928:14937   */\n      dup2\n      iszero\n        /* \"#utility.yul\":14945:14960   */\n      dup3\n      dup3\n      div\n        /* \"#utility.yul\":14939:14961   */\n      dup5\n      eq\n        /* \"#utility.yul\":14925:14962   */\n      or\n        /* \"#utility.yul\":14915:14986   */\n      tag_235\n      jumpi\n        /* \"#utility.yul\":14966:14984   */\n      tag_235\n      tag_682\n      jump\t// in\n        /* \"#utility.yul\":14997:15124   */\n    tag_683:\n        /* \"#utility.yul\":15058:15068   */\n      0x4e487b71\n        /* \"#utility.yul\":15053:15056   */\n      0xe0\n        /* \"#utility.yul\":15049:15069   */\n      shl\n        /* \"#utility.yul\":15046:15047   */\n      0x00\n        /* \"#utility.yul\":15039:15070   */\n      mstore\n        /* \"#utility.yul\":15089:15093   */\n      0x12\n        /* \"#utility.yul\":15086:15087   */\n      0x04\n        /* \"#utility.yul\":15079:15094   */\n      mstore\n        /* \"#utility.yul\":15113:15117   */\n      0x24\n        /* \"#utility.yul\":15110:15111   */\n      0x00\n        /* \"#utility.yul\":15103:15118   */\n      revert\n        /* \"#utility.yul\":15129:15249   */\n    tag_289:\n        /* \"#utility.yul\":15169:15170   */\n      0x00\n        /* \"#utility.yul\":15195:15196   */\n      dup3\n        /* \"#utility.yul\":15185:15220   */\n      tag_819\n      jumpi\n        /* \"#utility.yul\":15200:15218   */\n      tag_819\n      tag_683\n      jump\t// in\n    tag_819:\n      pop\n        /* \"#utility.yul\":15234:15243   */\n      div\n      swap1\n        /* \"#utility.yul\":15129:15249   */\n      jump\t// out\n        /* \"#utility.yul\":15668:16189   */\n    tag_417:\n        /* \"#utility.yul\":15745:15749   */\n      0x00\n        /* \"#utility.yul\":15751:15757   */\n      dup1\n        /* \"#utility.yul\":15811:15822   */\n      dup4\n        /* \"#utility.yul\":15798:15823   */\n      calldataload\n        /* \"#utility.yul\":15905:15907   */\n      0x1e\n        /* \"#utility.yul\":15901:15908   */\n      not\n        /* \"#utility.yul\":15890:15898   */\n      dup5\n        /* \"#utility.yul\":15874:15888   */\n      calldatasize\n        /* \"#utility.yul\":15870:15899   */\n      sub\n        /* \"#utility.yul\":15866:15909   */\n      add\n        /* \"#utility.yul\":15846:15864   */\n      dup2\n        /* \"#utility.yul\":15842:15910   */\n      slt\n        /* \"#utility.yul\":15832:15928   */\n      tag_822\n      jumpi\n        /* \"#utility.yul\":15924:15925   */\n      0x00\n        /* \"#utility.yul\":15921:15922   */\n      dup1\n        /* \"#utility.yul\":15914:15926   */\n      revert\n        /* \"#utility.yul\":15832:15928   */\n    tag_822:\n        /* \"#utility.yul\":15951:15984   */\n      dup4\n      add\n        /* \"#utility.yul\":16003:16023   */\n      dup1\n      calldataload\n      swap2\n      pop\n        /* \"#utility.yul\":16046:16064   */\n      0xffffffffffffffff\n        /* \"#utility.yul\":16035:16065   */\n      dup3\n      gt\n        /* \"#utility.yul\":16032:16082   */\n      iszero\n      tag_823\n      jumpi\n        /* \"#utility.yul\":16078:16079   */\n      0x00\n        /* \"#utility.yul\":16075:16076   */\n      dup1\n        /* \"#utility.yul\":16068:16080   */\n      revert\n        /* \"#utility.yul\":16032:16082   */\n    tag_823:\n        /* \"#utility.yul\":16111:16115   */\n      0x20\n        /* \"#utility.yul\":16099:16116   */\n      add\n      swap2\n      pop\n        /* \"#utility.yul\":16142:16156   */\n      calldatasize\n        /* \"#utility.yul\":16138:16165   */\n      dup2\n      swap1\n      sub\n        /* \"#utility.yul\":16128:16166   */\n      dup3\n      sgt\n        /* \"#utility.yul\":16125:16183   */\n      iszero\n      tag_824\n      jumpi\n        /* \"#utility.yul\":16179:16180   */\n      0x00\n        /* \"#utility.yul\":16176:16177   */\n      dup1\n        /* \"#utility.yul\":16169:16181   */\n      revert\n        /* \"#utility.yul\":16125:16183   */\n    tag_824:\n        /* \"#utility.yul\":15668:16189   */\n      swap3\n      pop\n      swap3\n      swap1\n      pop\n      jump\t// out\n        /* \"#utility.yul\":16194:16554   */\n    tag_419:\n        /* \"#utility.yul\":16405:16411   */\n      dup3\n        /* \"#utility.yul\":16397:16403   */\n      dup5\n        /* \"#utility.yul\":16392:16395   */\n      dup3\n        /* \"#utility.yul\":16379:16412   */\n      calldatacopy\n        /* \"#utility.yul\":16475:16477   */\n      0x60\n        /* \"#utility.yul\":16471:16486   */\n      swap2\n      swap1\n      swap2\n      shl\n      not(0xffffffffffffffffffffffff)\n        /* \"#utility.yul\":16467:16520   */\n      and\n        /* \"#utility.yul\":16431:16447   */\n      swap2\n      add\n        /* \"#utility.yul\":16456:16521   */\n      swap1\n      dup2\n      mstore\n        /* \"#utility.yul\":16545:16547   */\n      0x14\n        /* \"#utility.yul\":16537:16548   */\n      add\n      swap2\n        /* \"#utility.yul\":16194:16554   */\n      swap1\n      pop\n      jump\t// out\n        /* \"#utility.yul\":16559:16771   */\n    tag_684:\n        /* \"#utility.yul\":16601:16604   */\n      0x00\n        /* \"#utility.yul\":16639:16644   */\n      dup2\n        /* \"#utility.yul\":16633:16645   */\n      mload\n        /* \"#utility.yul\":16683:16689   */\n      dup1\n        /* \"#utility.yul\":16676:16680   */\n      0x20\n        /* \"#utility.yul\":16669:16674   */\n      dup5\n        /* \"#utility.yul\":16665:16681   */\n      add\n        /* \"#utility.yul\":16660:16663   */\n      dup6\n        /* \"#utility.yul\":16654:16690   */\n      mcopy\n        /* \"#utility.yul\":16745:16746   */\n      0x00\n        /* \"#utility.yul\":16709:16725   */\n      swap4\n      add\n        /* \"#utility.yul\":16734:16747   */\n      swap3\n      dup4\n      mstore\n      pop\n        /* \"#utility.yul\":16709:16725   */\n      swap1\n      swap2\n        /* \"#utility.yul\":16559:16771   */\n      swap1\n      pop\n      jump\t// out\n        /* \"#utility.yul\":16776:17043   */\n    tag_464:\n        /* \"#utility.yul\":16955:16958   */\n      0x00\n        /* \"#utility.yul\":16980:17037   */\n      tag_300\n        /* \"#utility.yul\":17006:17036   */\n      tag_829\n        /* \"#utility.yul\":17032:17035   */\n      dup4\n        /* \"#utility.yul\":17024:17030   */\n      dup7\n        /* \"#utility.yul\":17006:17036   */\n      tag_684\n      jump\t// in\n    tag_829:\n        /* \"#utility.yul\":16998:17004   */\n      dup5\n        /* \"#utility.yul\":16980:17037   */\n      tag_684\n      jump\t// in\n        /* \"#utility.yul\":17518:18036   */\n    tag_686:\n        /* \"#utility.yul\":17620:17622   */\n      0x1f\n        /* \"#utility.yul\":17615:17618   */\n      dup3\n        /* \"#utility.yul\":17612:17623   */\n      gt\n        /* \"#utility.yul\":17609:18030   */\n      iszero\n      tag_274\n      jumpi\n        /* \"#utility.yul\":17656:17661   */\n      dup1\n        /* \"#utility.yul\":17653:17654   */\n      0x00\n        /* \"#utility.yul\":17646:17662   */\n      mstore\n        /* \"#utility.yul\":17700:17704   */\n      0x20\n        /* \"#utility.yul\":17697:17698   */\n      0x00\n        /* \"#utility.yul\":17687:17705   */\n      keccak256\n        /* \"#utility.yul\":17770:17772   */\n      0x1f\n        /* \"#utility.yul\":17758:17768   */\n      dup5\n        /* \"#utility.yul\":17754:17773   */\n      add\n        /* \"#utility.yul\":17751:17752   */\n      0x05\n        /* \"#utility.yul\":17747:17774   */\n      shr\n        /* \"#utility.yul\":17741:17745   */\n      dup2\n        /* \"#utility.yul\":17737:17775   */\n      add\n        /* \"#utility.yul\":17806:17810   */\n      0x20\n        /* \"#utility.yul\":17794:17804   */\n      dup6\n        /* \"#utility.yul\":17791:17811   */\n      lt\n        /* \"#utility.yul\":17788:17835   */\n      iszero\n      tag_834\n      jumpi\n      pop\n        /* \"#utility.yul\":17829:17833   */\n      dup1\n        /* \"#utility.yul\":17788:17835   */\n    tag_834:\n        /* \"#utility.yul\":17884:17886   */\n      0x1f\n        /* \"#utility.yul\":17879:17882   */\n      dup5\n        /* \"#utility.yul\":17875:17887   */\n      add\n        /* \"#utility.yul\":17872:17873   */\n      0x05\n        /* \"#utility.yul\":17868:17888   */\n      shr\n        /* \"#utility.yul\":17862:17866   */\n      dup3\n        /* \"#utility.yul\":17858:17889   */\n      add\n        /* \"#utility.yul\":17848:17889   */\n      swap2\n      pop\n        /* \"#utility.yul\":17939:18020   */\n    tag_835:\n        /* \"#utility.yul\":17957:17959   */\n      dup2\n        /* \"#utility.yul\":17950:17955   */\n      dup2\n        /* \"#utility.yul\":17947:17960   */\n      lt\n        /* \"#utility.yul\":17939:18020   */\n      iszero\n      tag_528\n      jumpi\n        /* \"#utility.yul\":18016:18017   */\n      0x00\n        /* \"#utility.yul\":18002:18018   */\n      dup2\n      sstore\n        /* \"#utility.yul\":17983:17984   */\n      0x01\n        /* \"#utility.yul\":17972:17985   */\n      add\n        /* \"#utility.yul\":17939:18020   */\n      jump(tag_835)\n        /* \"#utility.yul\":18212:19557   */\n    tag_483:\n        /* \"#utility.yul\":18338:18341   */\n      dup2\n        /* \"#utility.yul\":18332:18342   */\n      mload\n        /* \"#utility.yul\":18365:18383   */\n      0xffffffffffffffff\n        /* \"#utility.yul\":18357:18363   */\n      dup2\n        /* \"#utility.yul\":18354:18384   */\n      gt\n        /* \"#utility.yul\":18351:18407   */\n      iszero\n      tag_841\n      jumpi\n        /* \"#utility.yul\":18387:18405   */\n      tag_841\n      tag_308\n      jump\t// in\n    tag_841:\n        /* \"#utility.yul\":18416:18513   */\n      tag_842\n        /* \"#utility.yul\":18506:18512   */\n      dup2\n        /* \"#utility.yul\":18466:18504   */\n      tag_843\n        /* \"#utility.yul\":18498:18502   */\n      dup5\n        /* \"#utility.yul\":18492:18503   */\n      sload\n        /* \"#utility.yul\":18466:18504   */\n      tag_238\n      jump\t// in\n    tag_843:\n        /* \"#utility.yul\":18460:18464   */\n      dup5\n        /* \"#utility.yul\":18416:18513   */\n      tag_686\n      jump\t// in\n    tag_842:\n        /* \"#utility.yul\":18568:18572   */\n      0x20\n      dup1\n        /* \"#utility.yul\":18625:18627   */\n      0x1f\n        /* \"#utility.yul\":18614:18628   */\n      dup4\n      gt\n        /* \"#utility.yul\":18642:18643   */\n      0x01\n        /* \"#utility.yul\":18637:19300   */\n      dup2\n      eq\n      tag_845\n      jumpi\n        /* \"#utility.yul\":19344:19345   */\n      0x00\n        /* \"#utility.yul\":19361:19367   */\n      dup5\n        /* \"#utility.yul\":19358:19447   */\n      iszero\n      tag_846\n      jumpi\n      pop\n        /* \"#utility.yul\":19413:19432   */\n      dup6\n      dup4\n      add\n        /* \"#utility.yul\":19407:19433   */\n      mload\n        /* \"#utility.yul\":19358:19447   */\n    tag_846:\n      not(0x00)\n        /* \"#utility.yul\":18169:18170   */\n      0x03\n        /* \"#utility.yul\":18165:18176   */\n      dup7\n      swap1\n      shl\n        /* \"#utility.yul\":18161:18185   */\n      shr\n        /* \"#utility.yul\":18157:18186   */\n      not\n        /* \"#utility.yul\":18147:18187   */\n      and\n        /* \"#utility.yul\":18193:18194   */\n      0x01\n        /* \"#utility.yul\":18189:18200   */\n      dup6\n      swap1\n      shl\n        /* \"#utility.yul\":18144:18201   */\n      or\n        /* \"#utility.yul\":19460:19541   */\n      dup6\n      sstore\n        /* \"#utility.yul\":18607:19551   */\n      jump(tag_844)\n        /* \"#utility.yul\":18637:19300   */\n    tag_845:\n        /* \"#utility.yul\":17465:17466   */\n      0x00\n        /* \"#utility.yul\":17458:17472   */\n      dup6\n      dup2\n      mstore\n        /* \"#utility.yul\":17502:17506   */\n      0x20\n        /* \"#utility.yul\":17489:17507   */\n      dup2\n      keccak256\n      not(0x1f)\n        /* \"#utility.yul\":18673:18693   */\n      dup7\n      and\n      swap2\n        /* \"#utility.yul\":18791:19027   */\n    tag_849:\n        /* \"#utility.yul\":18805:18812   */\n      dup3\n        /* \"#utility.yul\":18802:18803   */\n      dup2\n        /* \"#utility.yul\":18799:18813   */\n      lt\n        /* \"#utility.yul\":18791:19027   */\n      iszero\n      tag_851\n      jumpi\n        /* \"#utility.yul\":18894:18913   */\n      dup9\n      dup7\n      add\n        /* \"#utility.yul\":18888:18914   */\n      mload\n        /* \"#utility.yul\":18873:18915   */\n      dup3\n      sstore\n        /* \"#utility.yul\":18986:19013   */\n      swap5\n      dup5\n      add\n      swap5\n        /* \"#utility.yul\":18954:18955   */\n      0x01\n        /* \"#utility.yul\":18942:18956   */\n      swap1\n      swap2\n      add\n      swap1\n        /* \"#utility.yul\":18821:18840   */\n      dup5\n      add\n        /* \"#utility.yul\":18791:19027   */\n      jump(tag_849)\n    tag_851:\n        /* \"#utility.yul\":18795:18798   */\n      pop\n        /* \"#utility.yul\":19055:19061   */\n      dup6\n        /* \"#utility.yul\":19046:19053   */\n      dup3\n        /* \"#utility.yul\":19043:19062   */\n      lt\n        /* \"#utility.yul\":19040:19241   */\n      iszero\n      tag_852\n      jumpi\n        /* \"#utility.yul\":19116:19135   */\n      dup8\n      dup6\n      add\n        /* \"#utility.yul\":19110:19136   */\n      mload\n      not(0x00)\n        /* \"#utility.yul\":19199:19200   */\n      0x03\n        /* \"#utility.yul\":19195:19209   */\n      dup9\n      swap1\n      shl\n        /* \"#utility.yul\":19211:19214   */\n      0xf8\n        /* \"#utility.yul\":19191:19215   */\n      and\n        /* \"#utility.yul\":19187:19224   */\n      shr\n        /* \"#utility.yul\":19183:19225   */\n      not\n        /* \"#utility.yul\":19168:19226   */\n      and\n        /* \"#utility.yul\":19153:19227   */\n      dup2\n      sstore\n        /* \"#utility.yul\":19040:19241   */\n    tag_852:\n      pop\n      pop\n        /* \"#utility.yul\":19287:19288   */\n      0x01\n        /* \"#utility.yul\":19278:19284   */\n      dup5\n        /* \"#utility.yul\":19275:19276   */\n      0x01\n        /* \"#utility.yul\":19271:19285   */\n      shl\n        /* \"#utility.yul\":19267:19289   */\n      add\n        /* \"#utility.yul\":19261:19265   */\n      dup6\n        /* \"#utility.yul\":19254:19290   */\n      sstore\n        /* \"#utility.yul\":18607:19551   */\n    tag_844:\n      pop\n      pop\n      pop\n      pop\n        /* \"#utility.yul\":18212:19557   */\n      pop\n      pop\n      jump\t// out\n        /* \"#utility.yul\":19827:19952   */\n    tag_564:\n        /* \"#utility.yul\":19892:19901   */\n      dup1\n      dup3\n      add\n        /* \"#utility.yul\":19913:19923   */\n      dup1\n      dup3\n      gt\n        /* \"#utility.yul\":19910:19946   */\n      iszero\n      tag_235\n      jumpi\n        /* \"#utility.yul\":19926:19944   */\n      tag_235\n      tag_682\n      jump\t// in\n        /* \"#utility.yul\":19957:20362   */\n    tag_577:\n        /* \"#utility.yul\":20154:20156   */\n      0x40\n        /* \"#utility.yul\":20143:20152   */\n      dup2\n        /* \"#utility.yul\":20136:20157   */\n      mstore\n        /* \"#utility.yul\":20117:20121   */\n      0x00\n        /* \"#utility.yul\":20180:20236   */\n      tag_858\n        /* \"#utility.yul\":20232:20234   */\n      0x40\n        /* \"#utility.yul\":20221:20230   */\n      dup4\n        /* \"#utility.yul\":20217:20235   */\n      add\n        /* \"#utility.yul\":20209:20215   */\n      dup6\n        /* \"#utility.yul\":20180:20236   */\n      tag_679\n      jump\t// in\n    tag_858:\n        /* \"#utility.yul\":20284:20293   */\n      dup3\n        /* \"#utility.yul\":20276:20282   */\n      dup2\n        /* \"#utility.yul\":20272:20294   */\n      sub\n        /* \"#utility.yul\":20267:20269   */\n      0x20\n        /* \"#utility.yul\":20256:20265   */\n      dup5\n        /* \"#utility.yul\":20252:20270   */\n      add\n        /* \"#utility.yul\":20245:20295   */\n      mstore\n        /* \"#utility.yul\":20312:20356   */\n      tag_859\n        /* \"#utility.yul\":20349:20355   */\n      dup2\n        /* \"#utility.yul\":20341:20347   */\n      dup6\n        /* \"#utility.yul\":20312:20356   */\n      tag_679\n      jump\t// in\n    tag_859:\n        /* \"#utility.yul\":20304:20356   */\n      swap6\n        /* \"#utility.yul\":19957:20362   */\n      swap5\n      pop\n      pop\n      pop\n      pop\n      pop\n      jump\t// out\n        /* \"#utility.yul\":20367:20890   */\n    tag_590:\n        /* \"#utility.yul\":20561:20565   */\n      0x00\n      sub(shl(0xa0, 0x01), 0x01)\n        /* \"#utility.yul\":20671:20673   */\n      dup1\n        /* \"#utility.yul\":20663:20669   */\n      dup8\n        /* \"#utility.yul\":20659:20674   */\n      and\n        /* \"#utility.yul\":20648:20657   */\n      dup4\n        /* \"#utility.yul\":20641:20675   */\n      mstore\n        /* \"#utility.yul\":20723:20725   */\n      dup1\n        /* \"#utility.yul\":20715:20721   */\n      dup7\n        /* \"#utility.yul\":20711:20726   */\n      and\n        /* \"#utility.yul\":20706:20708   */\n      0x20\n        /* \"#utility.yul\":20695:20704   */\n      dup5\n        /* \"#utility.yul\":20691:20709   */\n      add\n        /* \"#utility.yul\":20684:20727   */\n      mstore\n      pop\n        /* \"#utility.yul\":20763:20769   */\n      dup4\n        /* \"#utility.yul\":20758:20760   */\n      0x40\n        /* \"#utility.yul\":20747:20756   */\n      dup4\n        /* \"#utility.yul\":20743:20761   */\n      add\n        /* \"#utility.yul\":20736:20770   */\n      mstore\n        /* \"#utility.yul\":20806:20809   */\n      0x80\n        /* \"#utility.yul\":20801:20803   */\n      0x60\n        /* \"#utility.yul\":20790:20799   */\n      dup4\n        /* \"#utility.yul\":20786:20804   */\n      add\n        /* \"#utility.yul\":20779:20810   */\n      mstore\n        /* \"#utility.yul\":20827:20884   */\n      tag_658\n        /* \"#utility.yul\":20879:20882   */\n      0x80\n        /* \"#utility.yul\":20868:20877   */\n      dup4\n        /* \"#utility.yul\":20864:20883   */\n      add\n        /* \"#utility.yul\":20856:20862   */\n      dup5\n        /* \"#utility.yul\":20827:20884   */\n      tag_679\n      jump\t// in\n        /* \"#utility.yul\":20895:21144   */\n    tag_593:\n        /* \"#utility.yul\":20964:20970   */\n      0x00\n        /* \"#utility.yul\":21017:21019   */\n      0x20\n        /* \"#utility.yul\":21005:21014   */\n      dup3\n        /* \"#utility.yul\":20996:21003   */\n      dup5\n        /* \"#utility.yul\":20992:21015   */\n      sub\n        /* \"#utility.yul\":20988:21020   */\n      slt\n        /* \"#utility.yul\":20985:21037   */\n      iszero\n      tag_863\n      jumpi\n        /* \"#utility.yul\":21033:21034   */\n      0x00\n        /* \"#utility.yul\":21030:21031   */\n      dup1\n        /* \"#utility.yul\":21023:21035   */\n      revert\n        /* \"#utility.yul\":20985:21037   */\n    tag_863:\n        /* \"#utility.yul\":21065:21074   */\n      dup2\n        /* \"#utility.yul\":21059:21075   */\n      mload\n        /* \"#utility.yul\":21084:21114   */\n      tag_369\n        /* \"#utility.yul\":21108:21113   */\n      dup2\n        /* \"#utility.yul\":21084:21114   */\n      tag_678\n      jump\t// in\n        /* \"#utility.yul\":21149:21284   */\n    tag_627:\n        /* \"#utility.yul\":21188:21191   */\n      0x00\n        /* \"#utility.yul\":21209:21226   */\n      0x01\n      dup3\n      add\n        /* \"#utility.yul\":21206:21249   */\n      tag_867\n      jumpi\n        /* \"#utility.yul\":21229:21247   */\n      tag_867\n      tag_682\n      jump\t// in\n    tag_867:\n      pop\n        /* \"#utility.yul\":21276:21277   */\n      0x01\n        /* \"#utility.yul\":21265:21278   */\n      add\n      swap1\n        /* \"#utility.yul\":21149:21284   */\n      jump\t// out\n        /* \"#utility.yul\":21289:21417   */\n    tag_635:\n        /* \"#utility.yul\":21356:21365   */\n      dup2\n      dup2\n      sub\n        /* \"#utility.yul\":21377:21388   */\n      dup2\n      dup2\n      gt\n        /* \"#utility.yul\":21374:21411   */\n      iszero\n      tag_235\n      jumpi\n        /* \"#utility.yul\":21391:21409   */\n      tag_235\n      tag_682\n      jump\t// in\n        /* \"#utility.yul\":21422:21534   */\n    tag_637:\n        /* \"#utility.yul\":21454:21455   */\n      0x00\n        /* \"#utility.yul\":21480:21481   */\n      dup3\n        /* \"#utility.yul\":21470:21505   */\n      tag_873\n      jumpi\n        /* \"#utility.yul\":21485:21503   */\n      tag_873\n      tag_683\n      jump\t// in\n    tag_873:\n      pop\n        /* \"#utility.yul\":21519:21528   */\n      mod\n      swap1\n        /* \"#utility.yul\":21422:21534   */\n      jump\t// out\n        /* \"#utility.yul\":22016:22206   */\n    tag_654:\n        /* \"#utility.yul\":22145:22148   */\n      0x00\n        /* \"#utility.yul\":22170:22200   */\n      tag_369\n        /* \"#utility.yul\":22196:22199   */\n      dup3\n        /* \"#utility.yul\":22188:22194   */\n      dup5\n        /* \"#utility.yul\":22170:22200   */\n      tag_684\n      jump\t// in\n    stop\n    data_9fdcd12e4b726339b32a442b0a448365d5d85c96b2d2cff917b4f66c63110398 416464726573733a206c6f772d6c6576656c2064656c65676174652063616c6c206661696c6564\n\n    auxdata: 0xa2646970667358221220c1807395dbf1ad8d4d0319688ffe85bf9b02cd0cc28b8a0c8516aef4ccf380a464736f6c63430008190033\n}\n",
    "bytecode": {
      "linkReferences": {},
      "object": "60806040526010805460ff1916600117905534801561001c575f80fd5b5060405161336038038061336083398101604081905261003b91610228565b84848484848383600261004e838261034c565b50600361005b828261034c565b50505f80555061006a8561008c565b61007d826001600160801b0383166100dd565b5050505050505050505061040b565b600980546001600160a01b038381166001600160a01b0319831681179093556040519116919082907f8292fce18fa69edf4db7b94ea2e58241df0ae57f97e0a6c9b29067028bf92d76905f90a35050565b61271081111561010f57604051630a4930ad60e31b815261271060048201526024810182905260440160405180910390fd5b600a80546001600160a01b0384166001600160b01b03199091168117600160a01b61ffff851602179091556040518281527f90d7ec04bcb8978719414f82e52e4cb651db41d0e6f8cea6118c2191e6183adb9060200160405180910390a25050565b80516001600160a01b0381168114610187575f80fd5b919050565b634e487b7160e01b5f52604160045260245ffd5b5f82601f8301126101af575f80fd5b81516001600160401b03808211156101c9576101c961018c565b604051601f8301601f19908116603f011681019082821181831017156101f1576101f161018c565b81604052838152866020858801011115610209575f80fd5b8360208701602083015e5f602085830101528094505050505092915050565b5f805f805f60a0868803121561023c575f80fd5b61024586610171565b60208701519095506001600160401b0380821115610261575f80fd5b61026d89838a016101a0565b95506040880151915080821115610282575f80fd5b5061028f888289016101a0565b93505061029e60608701610171565b60808701519092506001600160801b03811681146102ba575f80fd5b809150509295509295909350565b600181811c908216806102dc57607f821691505b6020821081036102fa57634e487b7160e01b5f52602260045260245ffd5b50919050565b601f82111561034757805f5260205f20601f840160051c810160208510156103255750805b601f840160051c820191505b81811015610344575f8155600101610331565b50505b505050565b81516001600160401b038111156103655761036561018c565b6103798161037384546102c8565b84610300565b602080601f8311600181146103ac575f84156103955750858301515b5f19600386901b1c1916600185901b178555610403565b5f85815260208120601f198616915b828110156103da578886015182559484019460019091019084016103bb565b50858210156103f757878501515f19600388901b60f8161c191681555b505060018460011b0185555b505050505050565b612f48806104185f395ff3fe608060405234801561000f575f80fd5b50600436106102b6575f3560e01c806363b45e2d11610171578063a22cb465116100d2578063c23dc68f11610088578063df30e54b1161006e578063df30e54b14610611578063e8a3d48514610624578063e985e9c51461062c575f80fd5b8063c23dc68f146105de578063c87b56dd146105fe575f80fd5b8063b24f2d39116100b8578063b24f2d391461059a578063b88d4fde146105b8578063badb97ff146105cb575f80fd5b8063a22cb46514610567578063ac9650d81461057a575f80fd5b80638da5cb5b1161012757806395d89b411161010d57806395d89b411461053957806399a2557a146105415780639bcf7a1514610554575f80fd5b80638da5cb5b14610515578063938e3d7b14610526575f80fd5b8063754a81d911610157578063754a81d9146104c057806383040532146104d35780638462151c146104f5575f80fd5b806363b45e2d146104a557806370a08231146104ad575f80fd5b80632419f51b1161021b578063430c2081116101d15780635bbb2177116101b75780635bbb21771461045f578063600dd5ea1461047f5780636352211e14610492575f80fd5b8063430c2081146104175780634cc157df1461042a575f80fd5b80633b1475a7116102015780633b1475a7146103ea57806342842e0e146103f157806342966c6814610404575f80fd5b80632419f51b146103a55780632a55205a146103b8575f80fd5b8063095ea7b31161027057806313af40351161025657806313af40351461036a57806318160ddd1461037d57806323b872dd14610392575f80fd5b8063095ea7b31461034a5780630fad0f511461035d575f80fd5b806306fdde03116102a057806306fdde03146102f75780630712249f1461030c578063081812fc1461031f575f80fd5b806275a317146102ba57806301ffc9a7146102cf575b5f80fd5b6102cd6102c836600461264e565b610641565b005b6102e26102dd3660046126ae565b6106c9565b60405190151581526020015b60405180910390f35b6102ff610735565b6040516102ee91906126f7565b6102cd61031a36600461264e565b6107c5565b61033261032d366004612709565b6108b6565b6040516001600160a01b0390911681526020016102ee565b6102cd610358366004612720565b6108f8565b6010546102e29060ff1681565b6102cd610378366004612748565b610966565b6001545f54035b6040519081526020016102ee565b6102cd6103a0366004612761565b610997565b6103846103b3366004612709565b6109a7565b6103cb6103c636600461279a565b6109f6565b604080516001600160a01b0390931683526020830191909152016102ee565b5f54610384565b6102cd6103ff366004612761565b610a31565b6102cd610412366004612709565b610a4b565b6102e2610425366004612720565b610a56565b61043d610438366004612709565b610aac565b604080516001600160a01b03909316835261ffff9091166020830152016102ee565b61047261046d3660046127ba565b610b16565b6040516102ee919061285b565b6102cd61048d366004612720565b610bd9565b6103326104a0366004612709565b610c08565b600c54610384565b6103846104bb366004612748565b610c19565b6102cd6104ce3660046128c5565b610c66565b6102e26104e1366004612709565b600e6020525f908152604090205460ff1681565b610508610503366004612748565b610cdf565b6040516102ee919061293e565b6009546001600160a01b0316610332565b6102cd610534366004612975565b610e19565b6102ff610e47565b61050861054f3660046129a7565b610e56565b6102cd6105623660046129d7565b611003565b6102cd610575366004612a08565b611033565b61058d610588366004612a39565b6110a1565b6040516102ee9190612aa8565b600a546001600160a01b03811690600160a01b900461ffff1661043d565b6102cd6105c6366004612b0a565b611205565b6102cd6105d9366004612709565b611249565b6105f16105ec366004612709565b61129e565b6040516102ee9190612b62565b6102ff61060c366004612709565b61134a565b6102cd61061f366004612b98565b611433565b6102ff611491565b6102e261063a366004612bb1565b5f92915050565b61064961151d565b61069a5760405162461bcd60e51b815260206004820152601760248201527f4e6f7420617574686f72697a656420746f206d696e742e00000000000000000060448201526064015b60405180910390fd5b6106ab6106a55f5490565b82611549565b6106c582600160405180602001604052805f8152506115c7565b5050565b5f6301ffc9a760e01b6001600160e01b0319831614806106f957506380ac58cd60e01b6001600160e01b03198316145b806107145750635b5e139f60e01b6001600160e01b03198316145b8061072f57506001600160e01b0319821663152a902d60e11b145b92915050565b60606002805461074490612bd9565b80601f016020809104026020016040519081016040528092919081815260200182805461077090612bd9565b80156107bb5780601f10610792576101008083540402835291602001916107bb565b820191905f5260205f20905b81548152906001019060200180831161079e57829003601f168201915b5050505050905090565b6009546001600160a01b031633146108105760405162461bcd60e51b815260206004820152600e60248201526d139bdd08185d5d1a1bdc9a5e995960921b6044820152606401610691565b6001600160a01b0382166108665760405162461bcd60e51b815260206004820152601160248201527f496e76616c696420726563697069656e740000000000000000000000000000006044820152606401610691565b5f81511161069a5760405162461bcd60e51b815260206004820152601260248201527f546f6b656e2055524920726571756972656400000000000000000000000000006044820152606401610691565b5f6108c082611792565b6108dd576040516333d1c03960e21b815260040160405180910390fd5b505f908152600660205260409020546001600160a01b031690565b60405162461bcd60e51b815260206004820152603760248201527f536572746966696b617420536f756c626f756e643a2046756e6773692070657260448201527f736574756a75616e2064696e6f6e616b7469666b616e210000000000000000006064820152608401610691565b61096e61151d565b61098b576040516316ccb9cb60e11b815260040160405180910390fd5b610994816117bb565b50565b6109a2838383611819565b505050565b5f6109b1600c5490565b82106109d357604051630793127760e11b815260048101839052602401610691565b600c82815481106109e6576109e6612c11565b905f5260205f2001549050919050565b5f805f80610a0386610aac565b90945084925061ffff169050612710610a1c8287612c39565b610a269190612c64565b925050509250929050565b6109a283838360405180602001604052805f815250611205565b610994816001611a0f565b5f80610a6183610c08565b9050806001600160a01b0316846001600160a01b03161480610a8057505f5b80610aa45750836001600160a01b0316610a99846108b6565b6001600160a01b0316145b949350505050565b5f818152600b60209081526040808320815180830190925280546001600160a01b031680835260019091015492820192909252829115610af25780516020820151610b0c565b600a546001600160a01b03811690600160a01b900461ffff165b9250925050915091565b80516060905f8167ffffffffffffffff811115610b3557610b3561259d565b604051908082528060200260200182016040528015610b7e57816020015b604080516060810182525f80825260208083018290529282015282525f19909201910181610b535790505b5090505f5b828114610bd157610bac858281518110610b9f57610b9f612c11565b602002602001015161129e565b828281518110610bbe57610bbe612c11565b6020908102919091010152600101610b83565b509392505050565b610be161151d565b610bfe57604051636fae358160e11b815260040160405180910390fd5b6106c58282611c0b565b5f610c1282611cb3565b5192915050565b5f6001600160a01b038216610c41576040516323d3ad8160e21b815260040160405180910390fd5b506001600160a01b03165f9081526005602052604090205467ffffffffffffffff1690565b610c6e61151d565b610cba5760405162461bcd60e51b815260206004820152601760248201527f4e6f7420617574686f72697a656420746f206d696e742e0000000000000000006044820152606401610691565b610ccc610cc55f5490565b8484611dca565b5050610cd98484836115c7565b50505050565b60605f805f610ced85610c19565b90505f8167ffffffffffffffff811115610d0957610d0961259d565b604051908082528060200260200182016040528015610d32578160200160208202803683370190505b50604080516060810182525f808252602082018190529181018290529192505b838614610e0d575f81815260046020908152604091829020825160608101845290546001600160a01b0381168252600160a01b810467ffffffffffffffff1692820192909252600160e01b90910460ff1615159181018290529250610e055781516001600160a01b031615610dc657815194505b876001600160a01b0316856001600160a01b031603610e055780838780600101985081518110610df857610df8612c11565b6020026020010181815250505b600101610d52565b50909695505050505050565b610e2161151d565b610e3e57604051639f7f092560e01b815260040160405180910390fd5b61099481611e2c565b60606003805461074490612bd9565b6060818310610e7857604051631960ccad60e11b815260040160405180910390fd5b5f805480841115610e87578093505b5f610e9187610c19565b905084861015610eb05785850381811015610eaa578091505b50610eb3565b505f5b5f8167ffffffffffffffff811115610ecd57610ecd61259d565b604051908082528060200260200182016040528015610ef6578160200160208202803683370190505b509050815f03610f0b579350610ffc92505050565b5f610f158861129e565b90505f8160400151610f25575080515b885b888114158015610f375750848714155b15610ff0575f81815260046020908152604091829020825160608101845290546001600160a01b0381168252600160a01b810467ffffffffffffffff1692820192909252600160e01b90910460ff1615159181018290529350610fe85782516001600160a01b031615610fa957825191505b8a6001600160a01b0316826001600160a01b031603610fe85780848880600101995081518110610fdb57610fdb612c11565b6020026020010181815250505b600101610f27565b50505092835250909150505b9392505050565b61100b61151d565b61102857604051636fae358160e11b815260040160405180910390fd5b6109a2838383611f05565b60405162461bcd60e51b815260206004820152602d60248201527f536572746966696b617420536f756c626f756e643a2044656c6567617369206460448201527f696e6f6e616b7469666b616e21000000000000000000000000000000000000006064820152608401610691565b60608167ffffffffffffffff8111156110bc576110bc61259d565b6040519080825280602002602001820160405280156110ef57816020015b60608152602001906001900390816110da5790505b509050335f805b848110156111fc578115611175576111533087878481811061111a5761111a612c11565b905060200281019061112c9190612c77565b8660405160200161113f93929190612cc1565b604051602081830303815290604052611fc4565b84828151811061116557611165612c11565b60200260200101819052506111f4565b6111d63087878481811061118b5761118b612c11565b905060200281019061119d9190612c77565b8080601f0160208091040260200160405190810160405280939291908181526020018383808284375f92019190915250611fc492505050565b8482815181106111e8576111e8612c11565b60200260200101819052505b6001016110f6565b50505092915050565b611210848484611819565b6001600160a01b0383163b15610cd95761122c84848484611fe9565b610cd9576040516368d2bf6b60e11b815260040160405180910390fd5b6009546001600160a01b031633146112945760405162461bcd60e51b815260206004820152600e60248201526d139bdd08185d5d1a1bdc9a5e995960921b6044820152606401610691565b610994815f611a0f565b60408051606080820183525f80835260208084018290528385018290528451928301855281835282018190529281018390529091505f5483106112e15792915050565b505f82815260046020908152604091829020825160608101845290546001600160a01b0381168252600160a01b810467ffffffffffffffff1692820192909252600160e01b90910460ff1615801592820192909252906113415792915050565b610ffc83611cb3565b5f818152600f602052604081208054606092919061136790612bd9565b80601f016020809104026020016040519081016040528092919081815260200182805461139390612bd9565b80156113de5780601f106113b5576101008083540402835291602001916113de565b820191905f5260205f20905b8154815290600101906020018083116113c157829003601f168201915b505050505090505f815111156113f45792915050565b5f6113fe846120d0565b90508061140a85612245565b60405160200161141b929190612cfe565b60405160208183030381529060405292505050919050565b6009546001600160a01b0316331461147e5760405162461bcd60e51b815260206004820152600e60248201526d139bdd08185d5d1a1bdc9a5e995960921b6044820152606401610691565b6010805460ff1916911515919091179055565b6008805461149e90612bd9565b80601f01602080910402602001604051908101604052809291908181526020018280546114ca90612bd9565b80156115155780601f106114ec57610100808354040283529160200191611515565b820191905f5260205f20905b8154815290600101906020018083116114f857829003601f168201915b505050505081565b5f6115306009546001600160a01b031690565b6001600160a01b0316336001600160a01b031614905090565b5f828152600f60205260409020805461156190612bd9565b1590506115b05760405162461bcd60e51b815260206004820152600f60248201527f55524920616c72656164792073657400000000000000000000000000000000006044820152606401610691565b5f828152600f602052604090206109a28282612d56565b5f546001600160a01b0384166115ef57604051622e076360e81b815260040160405180910390fd5b825f0361160f5760405163b562e8dd60e01b815260040160405180910390fd5b61161b5f85838661235a565b6001600160a01b0384165f81815260056020908152604080832080546fffffffffffffffffffffffffffffffff19811667ffffffffffffffff8083168b0181169182176801000000000000000067ffffffffffffffff1990941690921783900481168b01811690920217909155858452600490925290912080546001600160e01b0319168317600160a01b42909316929092029190911790558190818501903b1561173f575b60405182906001600160a01b038816905f907fddf252ad1be2c89b69c2b068fc378daa952ba7f163c4a11628f55a4df523b3ef908290a461170a5f878480600101955087611fe9565b611727576040516368d2bf6b60e11b815260040160405180910390fd5b8082106116c157825f541461173a575f80fd5b611783565b5b6040516001830192906001600160a01b038816905f907fddf252ad1be2c89b69c2b068fc378daa952ba7f163c4a11628f55a4df523b3ef908290a4808210611740575b505f908155610cd99085838684565b5f80548210801561072f5750505f90815260046020526040902054600160e01b900460ff161590565b600980546001600160a01b0383811673ffffffffffffffffffffffffffffffffffffffff19831681179093556040519116919082907f8292fce18fa69edf4db7b94ea2e58241df0ae57f97e0a6c9b29067028bf92d76905f90a35050565b5f61182382611cb3565b9050836001600160a01b0316815f01516001600160a01b0316146118595760405162a1148160e81b815260040160405180910390fd5b5f336001600160a01b03861614806118765750611876853361063a565b80611891575033611886846108b6565b6001600160a01b0316145b9050806118b157604051632ce44b5f60e11b815260040160405180910390fd5b6001600160a01b0384166118d857604051633a954ecd60e21b815260040160405180910390fd5b6118e5858585600161235a565b6118f05f8487612409565b6001600160a01b038581165f908152600560209081526040808320805467ffffffffffffffff1980821667ffffffffffffffff9283165f1901831617909255898616808652838620805493841693831660019081018416949094179055898652600490945282852080546001600160e01b031916909417600160a01b429092169190910217835587018084529220805491939091166119c3575f5482146119c3578054602086015167ffffffffffffffff16600160a01b026001600160e01b03199091166001600160a01b038a16171781555b50505082846001600160a01b0316866001600160a01b03167fddf252ad1be2c89b69c2b068fc378daa952ba7f163c4a11628f55a4df523b3ef60405160405180910390a45b5050505050565b5f611a1983611cb3565b80519091508215611a7e575f336001600160a01b0383161480611a415750611a41823361063a565b80611a5c575033611a51866108b6565b6001600160a01b0316145b905080611a7c57604051632ce44b5f60e11b815260040160405180910390fd5b505b611a8b815f86600161235a565b611a965f8583612409565b6001600160a01b038082165f81815260056020908152604080832080547001000000000000000000000000000000005f1967ffffffffffffffff80841691909101811667ffffffffffffffff19841681178390048216600190810183169093027fffffffffffffffff0000000000000000ffffffffffffffff0000000000000000909416179290921783558b8652600490945282852080547fffffff00ffffffffffffffffffffffffffffffffffffffffffffffffffffffff42909316600160a01b026001600160e01b03199091169097179690961716600160e01b178555918901808452922080549194909116611bc2575f548214611bc2578054602087015167ffffffffffffffff16600160a01b026001600160e01b03199091166001600160a01b038716171781555b50506040518692505f91506001600160a01b038416907fddf252ad1be2c89b69c2b068fc378daa952ba7f163c4a11628f55a4df523b3ef908390a4505060018054810190555050565b612710811115611c3957604051630a4930ad60e31b8152612710600482015260248101829052604401610691565b600a80546001600160a01b0384167fffffffffffffffffffff000000000000000000000000000000000000000000009091168117600160a01b61ffff851602179091556040518281527f90d7ec04bcb8978719414f82e52e4cb651db41d0e6f8cea6118c2191e6183adb9060200160405180910390a25050565b604080516060810182525f8082526020820181905291810191909152815f54811015611db1575f81815260046020908152604091829020825160608101845290546001600160a01b0381168252600160a01b810467ffffffffffffffff1692820192909252600160e01b90910460ff16151591810182905290611daf5780516001600160a01b031615611d47579392505050565b505f19015f81815260046020908152604091829020825160608101845290546001600160a01b038116808352600160a01b820467ffffffffffffffff1693830193909352600160e01b900460ff1615159281019290925215611daa579392505050565b611d47565b505b604051636f96cda160e11b815260040160405180910390fd5b5f80611dd68486612e16565b600c8054600181019091557fdf6966c971051c3d54ec59162606531493a51404a002842f56009d7e5cf4a8c7018190555f818152600d60205260409020909250829150611e238482612d56565b50935093915050565b5f60088054611e3a90612bd9565b80601f0160208091040260200160405190810160405280929190818152602001828054611e6690612bd9565b8015611eb15780601f10611e8857610100808354040283529160200191611eb1565b820191905f5260205f20905b815481529060010190602001808311611e9457829003601f168201915b505050505090508160089081611ec79190612d56565b507fc9c7c3fe08b88b4df9d4d47ef47d2c43d55c025a0ba88ca442580ed9e7348a168183604051611ef9929190612e29565b60405180910390a15050565b612710811115611f3357604051630a4930ad60e31b8152612710600482015260248101829052604401610691565b6040805180820182526001600160a01b0384811680835260208084018681525f898152600b83528690209451855473ffffffffffffffffffffffffffffffffffffffff1916941693909317845591516001909301929092559151838152909185917f7365cf4122f072a3365c20d54eff9b38d73c096c28e1892ec8f5b0e403a0f12d910160405180910390a3505050565b6060610ffc8383604051806060016040528060278152602001612eec60279139612471565b604051630a85bd0160e11b81525f906001600160a01b0385169063150b7a029061201d903390899088908890600401612e56565b6020604051808303815f875af1925050508015612057575060408051601f3d908101601f1916820190925261205491810190612e87565b60015b6120b3573d808015612084576040519150601f19603f3d011682016040523d82523d5f602084013e612089565b606091505b5080515f036120ab576040516368d2bf6b60e11b815260040160405180910390fd5b805181602001fd5b6001600160e01b031916630a85bd0160e11b149050949350505050565b60605f6120dc600c5490565b90505f600c80548060200260200160405190810160405280929190818152602001828054801561212957602002820191905f5260205f20905b815481526020019060010190808311612115575b505050505090505f5b828110156122285781818151811061214c5761214c612c11565b602002602001015185101561221657600d5f83838151811061217057612170612c11565b602002602001015181526020019081526020015f20805461219090612bd9565b80601f01602080910402602001604051908101604052809291908181526020018280546121bc90612bd9565b80156122075780601f106121de57610100808354040283529160200191612207565b820191905f5260205f20905b8154815290600101906020018083116121ea57829003601f168201915b50505050509350505050919050565b612221600182612e16565b9050612132565b506040516309797f6960e21b815260048101859052602401610691565b6060815f0361226b5750506040805180820190915260018152600360fc1b602082015290565b815f5b8115612294578061227e81612ea2565b915061228d9050600a83612c64565b915061226e565b5f8167ffffffffffffffff8111156122ae576122ae61259d565b6040519080825280601f01601f1916602001820160405280156122d8576020820181803683370190505b5090505b8415610aa4576122ed600183612eba565b91506122fa600a86612ecd565b612305906030612e16565b60f81b81838151811061231a5761231a612c11565b60200101907effffffffffffffffffffffffffffffffffffffffffffffffffffffffffffff191690815f1a905350612353600a86612c64565b94506122dc565b60105460ff16801561237457506001600160a01b03841615155b801561238857506001600160a01b03831615155b15610cd95760405162461bcd60e51b8152602060048201526044602482018190527f536572746966696b617420696e69206164616c6168204b726564656e7369616c908201527f20536f756c626f756e642064616e20746964616b20626973612064697472616e60648201526339b332b960e11b608482015260a401610691565b5f82815260066020526040808220805473ffffffffffffffffffffffffffffffffffffffff19166001600160a01b0387811691821790925591518593918516917f8c5be1e5ebec7d5bd14f71427d1e84f3dd0314c0f7b2291e5b200ac8c7c3b92591a4505050565b60605f80856001600160a01b03168560405161248d9190612ee0565b5f60405180830381855af49150503d805f81146124c5576040519150601f19603f3d011682016040523d82523d5f602084013e6124ca565b606091505b50915091506124db868383876124e5565b9695505050505050565b606083156125535782515f0361254c576001600160a01b0385163b61254c5760405162461bcd60e51b815260206004820152601d60248201527f416464726573733a2063616c6c20746f206e6f6e2d636f6e74726163740000006044820152606401610691565b5081610aa4565b610aa483838151156125685781518083602001fd5b8060405162461bcd60e51b815260040161069191906126f7565b80356001600160a01b0381168114612598575f80fd5b919050565b634e487b7160e01b5f52604160045260245ffd5b604051601f8201601f1916810167ffffffffffffffff811182821017156125da576125da61259d565b604052919050565b5f82601f8301126125f1575f80fd5b813567ffffffffffffffff81111561260b5761260b61259d565b61261e601f8201601f19166020016125b1565b818152846020838601011115612632575f80fd5b816020850160208301375f918101602001919091529392505050565b5f806040838503121561265f575f80fd5b61266883612582565b9150602083013567ffffffffffffffff811115612683575f80fd5b61268f858286016125e2565b9150509250929050565b6001600160e01b031981168114610994575f80fd5b5f602082840312156126be575f80fd5b8135610ffc81612699565b5f81518084528060208401602086015e5f602082860101526020601f19601f83011685010191505092915050565b602081525f610ffc60208301846126c9565b5f60208284031215612719575f80fd5b5035919050565b5f8060408385031215612731575f80fd5b61273a83612582565b946020939093013593505050565b5f60208284031215612758575f80fd5b610ffc82612582565b5f805f60608486031215612773575f80fd5b61277c84612582565b925061278a60208501612582565b9150604084013590509250925092565b5f80604083850312156127ab575f80fd5b50508035926020909101359150565b5f60208083850312156127cb575f80fd5b823567ffffffffffffffff808211156127e2575f80fd5b818501915085601f8301126127f5575f80fd5b8135818111156128075761280761259d565b8060051b91506128188483016125b1565b8181529183018401918481019088841115612831575f80fd5b938501935b8385101561284f57843582529385019390850190612836565b98975050505050505050565b602080825282518282018190525f9190848201906040850190845b81811015610e0d576128b283855180516001600160a01b0316825260208082015167ffffffffffffffff16908301526040908101511515910152565b9284019260609290920191600101612876565b5f805f80608085870312156128d8575f80fd5b6128e185612582565b935060208501359250604085013567ffffffffffffffff80821115612904575f80fd5b612910888389016125e2565b93506060870135915080821115612925575f80fd5b50612932878288016125e2565b91505092959194509250565b602080825282518282018190525f9190848201906040850190845b81811015610e0d57835183529284019291840191600101612959565b5f60208284031215612985575f80fd5b813567ffffffffffffffff81111561299b575f80fd5b610aa4848285016125e2565b5f805f606084860312156129b9575f80fd5b6129c284612582565b95602085013595506040909401359392505050565b5f805f606084860312156129e9575f80fd5b8335925061278a60208501612582565b80358015158114612598575f80fd5b5f8060408385031215612a19575f80fd5b612a2283612582565b9150612a30602084016129f9565b90509250929050565b5f8060208385031215612a4a575f80fd5b823567ffffffffffffffff80821115612a61575f80fd5b818501915085601f830112612a74575f80fd5b813581811115612a82575f80fd5b8660208260051b8501011115612a96575f80fd5b60209290920196919550909350505050565b5f60208083016020845280855180835260408601915060408160051b8701019250602087015f5b82811015612afd57603f19888603018452612aeb8583516126c9565b94509285019290850190600101612acf565b5092979650505050505050565b5f805f8060808587031215612b1d575f80fd5b612b2685612582565b9350612b3460208601612582565b925060408501359150606085013567ffffffffffffffff811115612b56575f80fd5b612932878288016125e2565b81516001600160a01b0316815260208083015167ffffffffffffffff16908201526040808301511515908201526060810161072f565b5f60208284031215612ba8575f80fd5b610ffc826129f9565b5f8060408385031215612bc2575f80fd5b612bcb83612582565b9150612a3060208401612582565b600181811c90821680612bed57607f821691505b602082108103612c0b57634e487b7160e01b5f52602260045260245ffd5b50919050565b634e487b7160e01b5f52603260045260245ffd5b634e487b7160e01b5f52601160045260245ffd5b808202811582820484141761072f5761072f612c25565b634e487b7160e01b5f52601260045260245ffd5b5f82612c7257612c72612c50565b500490565b5f808335601e19843603018112612c8c575f80fd5b83018035915067ffffffffffffffff821115612ca6575f80fd5b602001915036819003821315612cba575f80fd5b9250929050565b8284823760609190911b6bffffffffffffffffffffffff19169101908152601401919050565b5f81518060208401855e5f93019283525090919050565b5f610aa4612d0c8386612ce7565b84612ce7565b601f8211156109a257805f5260205f20601f840160051c81016020851015612d375750805b601f840160051c820191505b81811015611a08575f8155600101612d43565b815167ffffffffffffffff811115612d7057612d7061259d565b612d8481612d7e8454612bd9565b84612d12565b602080601f831160018114612db7575f8415612da05750858301515b5f19600386901b1c1916600185901b178555612e0e565b5f85815260208120601f198616915b82811015612de557888601518255948401946001909101908401612dc6565b5085821015612e0257878501515f19600388901b60f8161c191681555b505060018460011b0185555b505050505050565b8082018082111561072f5761072f612c25565b604081525f612e3b60408301856126c9565b8281036020840152612e4d81856126c9565b95945050505050565b5f6001600160a01b038087168352808616602084015250836040830152608060608301526124db60808301846126c9565b5f60208284031215612e97575f80fd5b8151610ffc81612699565b5f60018201612eb357612eb3612c25565b5060010190565b8181038181111561072f5761072f612c25565b5f82612edb57612edb612c50565b500690565b5f610ffc8284612ce756fe416464726573733a206c6f772d6c6576656c2064656c65676174652063616c6c206661696c6564a2646970667358221220c1807395dbf1ad8d4d0319688ffe85bf9b02cd0cc28b8a0c8516aef4ccf380a464736f6c63430008190033",
      "opcodes": "PUSH1 0x80 PUSH1 0x40 MSTORE PUSH1 0x10 DUP1 SLOAD PUSH1 0xFF NOT AND PUSH1 0x1 OR SWAP1 SSTORE CALLVALUE DUP1 ISZERO PUSH2 0x1C JUMPI PUSH0 DUP1 REVERT JUMPDEST POP PUSH1 0x40 MLOAD PUSH2 0x3360 CODESIZE SUB DUP1 PUSH2 0x3360 DUP4 CODECOPY DUP2 ADD PUSH1 0x40 DUP2 SWAP1 MSTORE PUSH2 0x3B SWAP2 PUSH2 0x228 JUMP JUMPDEST DUP5 DUP5 DUP5 DUP5 DUP5 DUP4 DUP4 PUSH1 0x2 PUSH2 0x4E DUP4 DUP3 PUSH2 0x34C JUMP JUMPDEST POP PUSH1 0x3 PUSH2 0x5B DUP3 DUP3 PUSH2 0x34C JUMP JUMPDEST POP POP PUSH0 DUP1 SSTORE POP PUSH2 0x6A DUP6 PUSH2 0x8C JUMP JUMPDEST PUSH2 0x7D DUP3 PUSH1 0x1 PUSH1 0x1 PUSH1 0x80 SHL SUB DUP4 AND PUSH2 0xDD JUMP JUMPDEST POP POP POP POP POP POP POP POP POP POP PUSH2 0x40B JUMP JUMPDEST PUSH1 0x9 DUP1 SLOAD PUSH1 0x1 PUSH1 0x1 PUSH1 0xA0 SHL SUB DUP4 DUP2 AND PUSH1 0x1 PUSH1 0x1 PUSH1 0xA0 SHL SUB NOT DUP4 AND DUP2 OR SWAP1 SWAP4 SSTORE PUSH1 0x40 MLOAD SWAP2 AND SWAP2 SWAP1 DUP3 SWAP1 PUSH32 0x8292FCE18FA69EDF4DB7B94EA2E58241DF0AE57F97E0A6C9B29067028BF92D76 SWAP1 PUSH0 SWAP1 LOG3 POP POP JUMP JUMPDEST PUSH2 0x2710 DUP2 GT ISZERO PUSH2 0x10F JUMPI PUSH1 0x40 MLOAD PUSH4 0xA4930AD PUSH1 0xE3 SHL DUP2 MSTORE PUSH2 0x2710 PUSH1 0x4 DUP3 ADD MSTORE PUSH1 0x24 DUP2 ADD DUP3 SWAP1 MSTORE PUSH1 0x44 ADD PUSH1 0x40 MLOAD DUP1 SWAP2 SUB SWAP1 REVERT JUMPDEST PUSH1 0xA DUP1 SLOAD PUSH1 0x1 PUSH1 0x1 PUSH1 0xA0 SHL SUB DUP5 AND PUSH1 0x1 PUSH1 0x1 PUSH1 0xB0 SHL SUB NOT SWAP1 SWAP2 AND DUP2 OR PUSH1 0x1 PUSH1 0xA0 SHL PUSH2 0xFFFF DUP6 AND MUL OR SWAP1 SWAP2 SSTORE PUSH1 0x40 MLOAD DUP3 DUP2 MSTORE PUSH32 0x90D7EC04BCB8978719414F82E52E4CB651DB41D0E6F8CEA6118C2191E6183ADB SWAP1 PUSH1 0x20 ADD PUSH1 0x40 MLOAD DUP1 SWAP2 SUB SWAP1 LOG2 POP POP JUMP JUMPDEST DUP1 MLOAD PUSH1 0x1 PUSH1 0x1 PUSH1 0xA0 SHL SUB DUP2 AND DUP2 EQ PUSH2 0x187 JUMPI PUSH0 DUP1 REVERT JUMPDEST SWAP2 SWAP1 POP JUMP JUMPDEST PUSH4 0x4E487B71 PUSH1 0xE0 SHL PUSH0 MSTORE PUSH1 0x41 PUSH1 0x4 MSTORE PUSH1 0x24 PUSH0 REVERT JUMPDEST PUSH0 DUP3 PUSH1 0x1F DUP4 ADD SLT PUSH2 0x1AF JUMPI PUSH0 DUP1 REVERT JUMPDEST DUP2 MLOAD PUSH1 0x1 PUSH1 0x1 PUSH1 0x40 SHL SUB DUP1 DUP3 GT ISZERO PUSH2 0x1C9 JUMPI PUSH2 0x1C9 PUSH2 0x18C JUMP JUMPDEST PUSH1 0x40 MLOAD PUSH1 0x1F DUP4 ADD PUSH1 0x1F NOT SWAP1 DUP2 AND PUSH1 0x3F ADD AND DUP2 ADD SWAP1 DUP3 DUP3 GT DUP2 DUP4 LT OR ISZERO PUSH2 0x1F1 JUMPI PUSH2 0x1F1 PUSH2 0x18C JUMP JUMPDEST DUP2 PUSH1 0x40 MSTORE DUP4 DUP2 MSTORE DUP7 PUSH1 0x20 DUP6 DUP9 ADD ADD GT ISZERO PUSH2 0x209 JUMPI PUSH0 DUP1 REVERT JUMPDEST DUP4 PUSH1 0x20 DUP8 ADD PUSH1 0x20 DUP4 ADD MCOPY PUSH0 PUSH1 0x20 DUP6 DUP4 ADD ADD MSTORE DUP1 SWAP5 POP POP POP POP POP SWAP3 SWAP2 POP POP JUMP JUMPDEST PUSH0 DUP1 PUSH0 DUP1 PUSH0 PUSH1 0xA0 DUP7 DUP9 SUB SLT ISZERO PUSH2 0x23C JUMPI PUSH0 DUP1 REVERT JUMPDEST PUSH2 0x245 DUP7 PUSH2 0x171 JUMP JUMPDEST PUSH1 0x20 DUP8 ADD MLOAD SWAP1 SWAP6 POP PUSH1 0x1 PUSH1 0x1 PUSH1 0x40 SHL SUB DUP1 DUP3 GT ISZERO PUSH2 0x261 JUMPI PUSH0 DUP1 REVERT JUMPDEST PUSH2 0x26D DUP10 DUP4 DUP11 ADD PUSH2 0x1A0 JUMP JUMPDEST SWAP6 POP PUSH1 0x40 DUP9 ADD MLOAD SWAP2 POP DUP1 DUP3 GT ISZERO PUSH2 0x282 JUMPI PUSH0 DUP1 REVERT JUMPDEST POP PUSH2 0x28F DUP9 DUP3 DUP10 ADD PUSH2 0x1A0 JUMP JUMPDEST SWAP4 POP POP PUSH2 0x29E PUSH1 0x60 DUP8 ADD PUSH2 0x171 JUMP JUMPDEST PUSH1 0x80 DUP8 ADD MLOAD SWAP1 SWAP3 POP PUSH1 0x1 PUSH1 0x1 PUSH1 0x80 SHL SUB DUP2 AND DUP2 EQ PUSH2 0x2BA JUMPI PUSH0 DUP1 REVERT JUMPDEST DUP1 SWAP2 POP POP SWAP3 SWAP6 POP SWAP3 SWAP6 SWAP1 SWAP4 POP JUMP JUMPDEST PUSH1 0x1 DUP2 DUP2 SHR SWAP1 DUP3 AND DUP1 PUSH2 0x2DC JUMPI PUSH1 0x7F DUP3 AND SWAP2 POP JUMPDEST PUSH1 0x20 DUP3 LT DUP2 SUB PUSH2 0x2FA JUMPI PUSH4 0x4E487B71 PUSH1 0xE0 SHL PUSH0 MSTORE PUSH1 0x22 PUSH1 0x4 MSTORE PUSH1 0x24 PUSH0 REVERT JUMPDEST POP SWAP2 SWAP1 POP JUMP JUMPDEST PUSH1 0x1F DUP3 GT ISZERO PUSH2 0x347 JUMPI DUP1 PUSH0 MSTORE PUSH1 0x20 PUSH0 KECCAK256 PUSH1 0x1F DUP5 ADD PUSH1 0x5 SHR DUP2 ADD PUSH1 0x20 DUP6 LT ISZERO PUSH2 0x325 JUMPI POP DUP1 JUMPDEST PUSH1 0x1F DUP5 ADD PUSH1 0x5 SHR DUP3 ADD SWAP2 POP JUMPDEST DUP2 DUP2 LT ISZERO PUSH2 0x344 JUMPI PUSH0 DUP2 SSTORE PUSH1 0x1 ADD PUSH2 0x331 JUMP JUMPDEST POP POP JUMPDEST POP POP POP JUMP JUMPDEST DUP2 MLOAD PUSH1 0x1 PUSH1 0x1 PUSH1 0x40 SHL SUB DUP2 GT ISZERO PUSH2 0x365 JUMPI PUSH2 0x365 PUSH2 0x18C JUMP JUMPDEST PUSH2 0x379 DUP2 PUSH2 0x373 DUP5 SLOAD PUSH2 0x2C8 JUMP JUMPDEST DUP5 PUSH2 0x300 JUMP JUMPDEST PUSH1 0x20 DUP1 PUSH1 0x1F DUP4 GT PUSH1 0x1 DUP2 EQ PUSH2 0x3AC JUMPI PUSH0 DUP5 ISZERO PUSH2 0x395 JUMPI POP DUP6 DUP4 ADD MLOAD JUMPDEST PUSH0 NOT PUSH1 0x3 DUP7 SWAP1 SHL SHR NOT AND PUSH1 0x1 DUP6 SWAP1 SHL OR DUP6 SSTORE PUSH2 0x403 JUMP JUMPDEST PUSH0 DUP6 DUP2 MSTORE PUSH1 0x20 DUP2 KECCAK256 PUSH1 0x1F NOT DUP7 AND SWAP2 JUMPDEST DUP3 DUP2 LT ISZERO PUSH2 0x3DA JUMPI DUP9 DUP7 ADD MLOAD DUP3 SSTORE SWAP5 DUP5 ADD SWAP5 PUSH1 0x1 SWAP1 SWAP2 ADD SWAP1 DUP5 ADD PUSH2 0x3BB JUMP JUMPDEST POP DUP6 DUP3 LT ISZERO PUSH2 0x3F7 JUMPI DUP8 DUP6 ADD MLOAD PUSH0 NOT PUSH1 0x3 DUP9 SWAP1 SHL PUSH1 0xF8 AND SHR NOT AND DUP2 SSTORE JUMPDEST POP POP PUSH1 0x1 DUP5 PUSH1 0x1 SHL ADD DUP6 SSTORE JUMPDEST POP POP POP POP POP POP JUMP JUMPDEST PUSH2 0x2F48 DUP1 PUSH2 0x418 PUSH0 CODECOPY PUSH0 RETURN INVALID PUSH1 0x80 PUSH1 0x40 MSTORE CALLVALUE DUP1 ISZERO PUSH2 0xF JUMPI PUSH0 DUP1 REVERT JUMPDEST POP PUSH1 0x4 CALLDATASIZE LT PUSH2 0x2B6 JUMPI PUSH0 CALLDATALOAD PUSH1 0xE0 SHR DUP1 PUSH4 0x63B45E2D GT PUSH2 0x171 JUMPI DUP1 PUSH4 0xA22CB465 GT PUSH2 0xD2 JUMPI DUP1 PUSH4 0xC23DC68F GT PUSH2 0x88 JUMPI DUP1 PUSH4 0xDF30E54B GT PUSH2 0x6E JUMPI DUP1 PUSH4 0xDF30E54B EQ PUSH2 0x611 JUMPI DUP1 PUSH4 0xE8A3D485 EQ PUSH2 0x624 JUMPI DUP1 PUSH4 0xE985E9C5 EQ PUSH2 0x62C JUMPI PUSH0 DUP1 REVERT JUMPDEST DUP1 PUSH4 0xC23DC68F EQ PUSH2 0x5DE JUMPI DUP1 PUSH4 0xC87B56DD EQ PUSH2 0x5FE JUMPI PUSH0 DUP1 REVERT JUMPDEST DUP1 PUSH4 0xB24F2D39 GT PUSH2 0xB8 JUMPI DUP1 PUSH4 0xB24F2D39 EQ PUSH2 0x59A JUMPI DUP1 PUSH4 0xB88D4FDE EQ PUSH2 0x5B8 JUMPI DUP1 PUSH4 0xBADB97FF EQ PUSH2 0x5CB JUMPI PUSH0 DUP1 REVERT JUMPDEST DUP1 PUSH4 0xA22CB465 EQ PUSH2 0x567 JUMPI DUP1 PUSH4 0xAC9650D8 EQ PUSH2 0x57A JUMPI PUSH0 DUP1 REVERT JUMPDEST DUP1 PUSH4 0x8DA5CB5B GT PUSH2 0x127 JUMPI DUP1 PUSH4 0x95D89B41 GT PUSH2 0x10D JUMPI DUP1 PUSH4 0x95D89B41 EQ PUSH2 0x539 JUMPI DUP1 PUSH4 0x99A2557A EQ PUSH2 0x541 JUMPI DUP1 PUSH4 0x9BCF7A15 EQ PUSH2 0x554 JUMPI PUSH0 DUP1 REVERT JUMPDEST DUP1 PUSH4 0x8DA5CB5B EQ PUSH2 0x515 JUMPI DUP1 PUSH4 0x938E3D7B EQ PUSH2 0x526 JUMPI PUSH0 DUP1 REVERT JUMPDEST DUP1 PUSH4 0x754A81D9 GT PUSH2 0x157 JUMPI DUP1 PUSH4 0x754A81D9 EQ PUSH2 0x4C0 JUMPI DUP1 PUSH4 0x83040532 EQ PUSH2 0x4D3 JUMPI DUP1 PUSH4 0x8462151C EQ PUSH2 0x4F5 JUMPI PUSH0 DUP1 REVERT JUMPDEST DUP1 PUSH4 0x63B45E2D EQ PUSH2 0x4A5 JUMPI DUP1 PUSH4 0x70A08231 EQ PUSH2 0x4AD JUMPI PUSH0 DUP1 REVERT JUMPDEST DUP1 PUSH4 0x2419F51B GT PUSH2 0x21B JUMPI DUP1 PUSH4 0x430C2081 GT PUSH2 0x1D1 JUMPI DUP1 PUSH4 0x5BBB2177 GT PUSH2 0x1B7 JUMPI DUP1 PUSH4 0x5BBB2177 EQ PUSH2 0x45F JUMPI DUP1 PUSH4 0x600DD5EA EQ PUSH2 0x47F JUMPI DUP1 PUSH4 0x6352211E EQ PUSH2 0x492 JUMPI PUSH0 DUP1 REVERT JUMPDEST DUP1 PUSH4 0x430C2081 EQ PUSH2 0x417 JUMPI DUP1 PUSH4 0x4CC157DF EQ PUSH2 0x42A JUMPI PUSH0 DUP1 REVERT JUMPDEST DUP1 PUSH4 0x3B1475A7 GT PUSH2 0x201 JUMPI DUP1 PUSH4 0x3B1475A7 EQ PUSH2 0x3EA JUMPI DUP1 PUSH4 0x42842E0E EQ PUSH2 0x3F1 JUMPI DUP1 PUSH4 0x42966C68 EQ PUSH2 0x404 JUMPI PUSH0 DUP1 REVERT JUMPDEST DUP1 PUSH4 0x2419F51B EQ PUSH2 0x3A5 JUMPI DUP1 PUSH4 0x2A55205A EQ PUSH2 0x3B8 JUMPI PUSH0 DUP1 REVERT JUMPDEST DUP1 PUSH4 0x95EA7B3 GT PUSH2 0x270 JUMPI DUP1 PUSH4 0x13AF4035 GT PUSH2 0x256 JUMPI DUP1 PUSH4 0x13AF4035 EQ PUSH2 0x36A JUMPI DUP1 PUSH4 0x18160DDD EQ PUSH2 0x37D JUMPI DUP1 PUSH4 0x23B872DD EQ PUSH2 0x392 JUMPI PUSH0 DUP1 REVERT JUMPDEST DUP1 PUSH4 0x95EA7B3 EQ PUSH2 0x34A JUMPI DUP1 PUSH4 0xFAD0F51 EQ PUSH2 0x35D JUMPI PUSH0 DUP1 REVERT JUMPDEST DUP1 PUSH4 0x6FDDE03 GT PUSH2 0x2A0 JUMPI DUP1 PUSH4 0x6FDDE03 EQ PUSH2 0x2F7 JUMPI DUP1 PUSH4 0x712249F EQ PUSH2 0x30C JUMPI DUP1 PUSH4 0x81812FC EQ PUSH2 0x31F JUMPI PUSH0 DUP1 REVERT JUMPDEST DUP1 PUSH3 0x75A317 EQ PUSH2 0x2BA JUMPI DUP1 PUSH4 0x1FFC9A7 EQ PUSH2 0x2CF JUMPI JUMPDEST PUSH0 DUP1 REVERT JUMPDEST PUSH2 0x2CD PUSH2 0x2C8 CALLDATASIZE PUSH1 0x4 PUSH2 0x264E JUMP JUMPDEST PUSH2 0x641 JUMP JUMPDEST STOP JUMPDEST PUSH2 0x2E2 PUSH2 0x2DD CALLDATASIZE PUSH1 0x4 PUSH2 0x26AE JUMP JUMPDEST PUSH2 0x6C9 JUMP JUMPDEST PUSH1 0x40 MLOAD SWAP1 ISZERO ISZERO DUP2 MSTORE PUSH1 0x20 ADD JUMPDEST PUSH1 0x40 MLOAD DUP1 SWAP2 SUB SWAP1 RETURN JUMPDEST PUSH2 0x2FF PUSH2 0x735 JUMP JUMPDEST PUSH1 0x40 MLOAD PUSH2 0x2EE SWAP2 SWAP1 PUSH2 0x26F7 JUMP JUMPDEST PUSH2 0x2CD PUSH2 0x31A CALLDATASIZE PUSH1 0x4 PUSH2 0x264E JUMP JUMPDEST PUSH2 0x7C5 JUMP JUMPDEST PUSH2 0x332 PUSH2 0x32D CALLDATASIZE PUSH1 0x4 PUSH2 0x2709 JUMP JUMPDEST PUSH2 0x8B6 JUMP JUMPDEST PUSH1 0x40 MLOAD PUSH1 0x1 PUSH1 0x1 PUSH1 0xA0 SHL SUB SWAP1 SWAP2 AND DUP2 MSTORE PUSH1 0x20 ADD PUSH2 0x2EE JUMP JUMPDEST PUSH2 0x2CD PUSH2 0x358 CALLDATASIZE PUSH1 0x4 PUSH2 0x2720 JUMP JUMPDEST PUSH2 0x8F8 JUMP JUMPDEST PUSH1 0x10 SLOAD PUSH2 0x2E2 SWAP1 PUSH1 0xFF AND DUP2 JUMP JUMPDEST PUSH2 0x2CD PUSH2 0x378 CALLDATASIZE PUSH1 0x4 PUSH2 0x2748 JUMP JUMPDEST PUSH2 0x966 JUMP JUMPDEST PUSH1 0x1 SLOAD PUSH0 SLOAD SUB JUMPDEST PUSH1 0x40 MLOAD SWAP1 DUP2 MSTORE PUSH1 0x20 ADD PUSH2 0x2EE JUMP JUMPDEST PUSH2 0x2CD PUSH2 0x3A0 CALLDATASIZE PUSH1 0x4 PUSH2 0x2761 JUMP JUMPDEST PUSH2 0x997 JUMP JUMPDEST PUSH2 0x384 PUSH2 0x3B3 CALLDATASIZE PUSH1 0x4 PUSH2 0x2709 JUMP JUMPDEST PUSH2 0x9A7 JUMP JUMPDEST PUSH2 0x3CB PUSH2 0x3C6 CALLDATASIZE PUSH1 0x4 PUSH2 0x279A JUMP JUMPDEST PUSH2 0x9F6 JUMP JUMPDEST PUSH1 0x40 DUP1 MLOAD PUSH1 0x1 PUSH1 0x1 PUSH1 0xA0 SHL SUB SWAP1 SWAP4 AND DUP4 MSTORE PUSH1 0x20 DUP4 ADD SWAP2 SWAP1 SWAP2 MSTORE ADD PUSH2 0x2EE JUMP JUMPDEST PUSH0 SLOAD PUSH2 0x384 JUMP JUMPDEST PUSH2 0x2CD PUSH2 0x3FF CALLDATASIZE PUSH1 0x4 PUSH2 0x2761 JUMP JUMPDEST PUSH2 0xA31 JUMP JUMPDEST PUSH2 0x2CD PUSH2 0x412 CALLDATASIZE PUSH1 0x4 PUSH2 0x2709 JUMP JUMPDEST PUSH2 0xA4B JUMP JUMPDEST PUSH2 0x2E2 PUSH2 0x425 CALLDATASIZE PUSH1 0x4 PUSH2 0x2720 JUMP JUMPDEST PUSH2 0xA56 JUMP JUMPDEST PUSH2 0x43D PUSH2 0x438 CALLDATASIZE PUSH1 0x4 PUSH2 0x2709 JUMP JUMPDEST PUSH2 0xAAC JUMP JUMPDEST PUSH1 0x40 DUP1 MLOAD PUSH1 0x1 PUSH1 0x1 PUSH1 0xA0 SHL SUB SWAP1 SWAP4 AND DUP4 MSTORE PUSH2 0xFFFF SWAP1 SWAP2 AND PUSH1 0x20 DUP4 ADD MSTORE ADD PUSH2 0x2EE JUMP JUMPDEST PUSH2 0x472 PUSH2 0x46D CALLDATASIZE PUSH1 0x4 PUSH2 0x27BA JUMP JUMPDEST PUSH2 0xB16 JUMP JUMPDEST PUSH1 0x40 MLOAD PUSH2 0x2EE SWAP2 SWAP1 PUSH2 0x285B JUMP JUMPDEST PUSH2 0x2CD PUSH2 0x48D CALLDATASIZE PUSH1 0x4 PUSH2 0x2720 JUMP JUMPDEST PUSH2 0xBD9 JUMP JUMPDEST PUSH2 0x332 PUSH2 0x4A0 CALLDATASIZE PUSH1 0x4 PUSH2 0x2709 JUMP JUMPDEST PUSH2 0xC08 JUMP JUMPDEST PUSH1 0xC SLOAD PUSH2 0x384 JUMP JUMPDEST PUSH2 0x384 PUSH2 0x4BB CALLDATASIZE PUSH1 0x4 PUSH2 0x2748 JUMP JUMPDEST PUSH2 0xC19 JUMP JUMPDEST PUSH2 0x2CD PUSH2 0x4CE CALLDATASIZE PUSH1 0x4 PUSH2 0x28C5 JUMP JUMPDEST PUSH2 0xC66 JUMP JUMPDEST PUSH2 0x2E2 PUSH2 0x4E1 CALLDATASIZE PUSH1 0x4 PUSH2 0x2709 JUMP JUMPDEST PUSH1 0xE PUSH1 0x20 MSTORE PUSH0 SWAP1 DUP2 MSTORE PUSH1 0x40 SWAP1 KECCAK256 SLOAD PUSH1 0xFF AND DUP2 JUMP JUMPDEST PUSH2 0x508 PUSH2 0x503 CALLDATASIZE PUSH1 0x4 PUSH2 0x2748 JUMP JUMPDEST PUSH2 0xCDF JUMP JUMPDEST PUSH1 0x40 MLOAD PUSH2 0x2EE SWAP2 SWAP1 PUSH2 0x293E JUMP JUMPDEST PUSH1 0x9 SLOAD PUSH1 0x1 PUSH1 0x1 PUSH1 0xA0 SHL SUB AND PUSH2 0x332 JUMP JUMPDEST PUSH2 0x2CD PUSH2 0x534 CALLDATASIZE PUSH1 0x4 PUSH2 0x2975 JUMP JUMPDEST PUSH2 0xE19 JUMP JUMPDEST PUSH2 0x2FF PUSH2 0xE47 JUMP JUMPDEST PUSH2 0x508 PUSH2 0x54F CALLDATASIZE PUSH1 0x4 PUSH2 0x29A7 JUMP JUMPDEST PUSH2 0xE56 JUMP JUMPDEST PUSH2 0x2CD PUSH2 0x562 CALLDATASIZE PUSH1 0x4 PUSH2 0x29D7 JUMP JUMPDEST PUSH2 0x1003 JUMP JUMPDEST PUSH2 0x2CD PUSH2 0x575 CALLDATASIZE PUSH1 0x4 PUSH2 0x2A08 JUMP JUMPDEST PUSH2 0x1033 JUMP JUMPDEST PUSH2 0x58D PUSH2 0x588 CALLDATASIZE PUSH1 0x4 PUSH2 0x2A39 JUMP JUMPDEST PUSH2 0x10A1 JUMP JUMPDEST PUSH1 0x40 MLOAD PUSH2 0x2EE SWAP2 SWAP1 PUSH2 0x2AA8 JUMP JUMPDEST PUSH1 0xA SLOAD PUSH1 0x1 PUSH1 0x1 PUSH1 0xA0 SHL SUB DUP2 AND SWAP1 PUSH1 0x1 PUSH1 0xA0 SHL SWAP1 DIV PUSH2 0xFFFF AND PUSH2 0x43D JUMP JUMPDEST PUSH2 0x2CD PUSH2 0x5C6 CALLDATASIZE PUSH1 0x4 PUSH2 0x2B0A JUMP JUMPDEST PUSH2 0x1205 JUMP JUMPDEST PUSH2 0x2CD PUSH2 0x5D9 CALLDATASIZE PUSH1 0x4 PUSH2 0x2709 JUMP JUMPDEST PUSH2 0x1249 JUMP JUMPDEST PUSH2 0x5F1 PUSH2 0x5EC CALLDATASIZE PUSH1 0x4 PUSH2 0x2709 JUMP JUMPDEST PUSH2 0x129E JUMP JUMPDEST PUSH1 0x40 MLOAD PUSH2 0x2EE SWAP2 SWAP1 PUSH2 0x2B62 JUMP JUMPDEST PUSH2 0x2FF PUSH2 0x60C CALLDATASIZE PUSH1 0x4 PUSH2 0x2709 JUMP JUMPDEST PUSH2 0x134A JUMP JUMPDEST PUSH2 0x2CD PUSH2 0x61F CALLDATASIZE PUSH1 0x4 PUSH2 0x2B98 JUMP JUMPDEST PUSH2 0x1433 JUMP JUMPDEST PUSH2 0x2FF PUSH2 0x1491 JUMP JUMPDEST PUSH2 0x2E2 PUSH2 0x63A CALLDATASIZE PUSH1 0x4 PUSH2 0x2BB1 JUMP JUMPDEST PUSH0 SWAP3 SWAP2 POP POP JUMP JUMPDEST PUSH2 0x649 PUSH2 0x151D JUMP JUMPDEST PUSH2 0x69A JUMPI PUSH1 0x40 MLOAD PUSH3 0x461BCD PUSH1 0xE5 SHL DUP2 MSTORE PUSH1 0x20 PUSH1 0x4 DUP3 ADD MSTORE PUSH1 0x17 PUSH1 0x24 DUP3 ADD MSTORE PUSH32 0x4E6F7420617574686F72697A656420746F206D696E742E000000000000000000 PUSH1 0x44 DUP3 ADD MSTORE PUSH1 0x64 ADD JUMPDEST PUSH1 0x40 MLOAD DUP1 SWAP2 SUB SWAP1 REVERT JUMPDEST PUSH2 0x6AB PUSH2 0x6A5 PUSH0 SLOAD SWAP1 JUMP JUMPDEST DUP3 PUSH2 0x1549 JUMP JUMPDEST PUSH2 0x6C5 DUP3 PUSH1 0x1 PUSH1 0x40 MLOAD DUP1 PUSH1 0x20 ADD PUSH1 0x40 MSTORE DUP1 PUSH0 DUP2 MSTORE POP PUSH2 0x15C7 JUMP JUMPDEST POP POP JUMP JUMPDEST PUSH0 PUSH4 0x1FFC9A7 PUSH1 0xE0 SHL PUSH1 0x1 PUSH1 0x1 PUSH1 0xE0 SHL SUB NOT DUP4 AND EQ DUP1 PUSH2 0x6F9 JUMPI POP PUSH4 0x80AC58CD PUSH1 0xE0 SHL PUSH1 0x1 PUSH1 0x1 PUSH1 0xE0 SHL SUB NOT DUP4 AND EQ JUMPDEST DUP1 PUSH2 0x714 JUMPI POP PUSH4 0x5B5E139F PUSH1 0xE0 SHL PUSH1 0x1 PUSH1 0x1 PUSH1 0xE0 SHL SUB NOT DUP4 AND EQ JUMPDEST DUP1 PUSH2 0x72F JUMPI POP PUSH1 0x1 PUSH1 0x1 PUSH1 0xE0 SHL SUB NOT DUP3 AND PUSH4 0x152A902D PUSH1 0xE1 SHL EQ JUMPDEST SWAP3 SWAP2 POP POP JUMP JUMPDEST PUSH1 0x60 PUSH1 0x2 DUP1 SLOAD PUSH2 0x744 SWAP1 PUSH2 0x2BD9 JUMP JUMPDEST DUP1 PUSH1 0x1F ADD PUSH1 0x20 DUP1 SWAP2 DIV MUL PUSH1 0x20 ADD PUSH1 0x40 MLOAD SWAP1 DUP2 ADD PUSH1 0x40 MSTORE DUP1 SWAP3 SWAP2 SWAP1 DUP2 DUP2 MSTORE PUSH1 0x20 ADD DUP3 DUP1 SLOAD PUSH2 0x770 SWAP1 PUSH2 0x2BD9 JUMP JUMPDEST DUP1 ISZERO PUSH2 0x7BB JUMPI DUP1 PUSH1 0x1F LT PUSH2 0x792 JUMPI PUSH2 0x100 DUP1 DUP4 SLOAD DIV MUL DUP4 MSTORE SWAP2 PUSH1 0x20 ADD SWAP2 PUSH2 0x7BB JUMP JUMPDEST DUP3 ADD SWAP2 SWAP1 PUSH0 MSTORE PUSH1 0x20 PUSH0 KECCAK256 SWAP1 JUMPDEST DUP2 SLOAD DUP2 MSTORE SWAP1 PUSH1 0x1 ADD SWAP1 PUSH1 0x20 ADD DUP1 DUP4 GT PUSH2 0x79E JUMPI DUP3 SWAP1 SUB PUSH1 0x1F AND DUP3 ADD SWAP2 JUMPDEST POP POP POP POP POP SWAP1 POP SWAP1 JUMP JUMPDEST PUSH1 0x9 SLOAD PUSH1 0x1 PUSH1 0x1 PUSH1 0xA0 SHL SUB AND CALLER EQ PUSH2 0x810 JUMPI PUSH1 0x40 MLOAD PUSH3 0x461BCD PUSH1 0xE5 SHL DUP2 MSTORE PUSH1 0x20 PUSH1 0x4 DUP3 ADD MSTORE PUSH1 0xE PUSH1 0x24 DUP3 ADD MSTORE PUSH14 0x139BDD08185D5D1A1BDC9A5E9959 PUSH1 0x92 SHL PUSH1 0x44 DUP3 ADD MSTORE PUSH1 0x64 ADD PUSH2 0x691 JUMP JUMPDEST PUSH1 0x1 PUSH1 0x1 PUSH1 0xA0 SHL SUB DUP3 AND PUSH2 0x866 JUMPI PUSH1 0x40 MLOAD PUSH3 0x461BCD PUSH1 0xE5 SHL DUP2 MSTORE PUSH1 0x20 PUSH1 0x4 DUP3 ADD MSTORE PUSH1 0x11 PUSH1 0x24 DUP3 ADD MSTORE PUSH32 0x496E76616C696420726563697069656E74000000000000000000000000000000 PUSH1 0x44 DUP3 ADD MSTORE PUSH1 0x64 ADD PUSH2 0x691 JUMP JUMPDEST PUSH0 DUP2 MLOAD GT PUSH2 0x69A JUMPI PUSH1 0x40 MLOAD PUSH3 0x461BCD PUSH1 0xE5 SHL DUP2 MSTORE PUSH1 0x20 PUSH1 0x4 DUP3 ADD MSTORE PUSH1 0x12 PUSH1 0x24 DUP3 ADD MSTORE PUSH32 0x546F6B656E205552492072657175697265640000000000000000000000000000 PUSH1 0x44 DUP3 ADD MSTORE PUSH1 0x64 ADD PUSH2 0x691 JUMP JUMPDEST PUSH0 PUSH2 0x8C0 DUP3 PUSH2 0x1792 JUMP JUMPDEST PUSH2 0x8DD JUMPI PUSH1 0x40 MLOAD PUSH4 0x33D1C039 PUSH1 0xE2 SHL DUP2 MSTORE PUSH1 0x4 ADD PUSH1 0x40 MLOAD DUP1 SWAP2 SUB SWAP1 REVERT JUMPDEST POP PUSH0 SWAP1 DUP2 MSTORE PUSH1 0x6 PUSH1 0x20 MSTORE PUSH1 0x40 SWAP1 KECCAK256 SLOAD PUSH1 0x1 PUSH1 0x1 PUSH1 0xA0 SHL SUB AND SWAP1 JUMP JUMPDEST PUSH1 0x40 MLOAD PUSH3 0x461BCD PUSH1 0xE5 SHL DUP2 MSTORE PUSH1 0x20 PUSH1 0x4 DUP3 ADD MSTORE PUSH1 0x37 PUSH1 0x24 DUP3 ADD MSTORE PUSH32 0x536572746966696B617420536F756C626F756E643A2046756E67736920706572 PUSH1 0x44 DUP3 ADD MSTORE PUSH32 0x736574756A75616E2064696E6F6E616B7469666B616E21000000000000000000 PUSH1 0x64 DUP3 ADD MSTORE PUSH1 0x84 ADD PUSH2 0x691 JUMP JUMPDEST PUSH2 0x96E PUSH2 0x151D JUMP JUMPDEST PUSH2 0x98B JUMPI PUSH1 0x40 MLOAD PUSH4 0x16CCB9CB PUSH1 0xE1 SHL DUP2 MSTORE PUSH1 0x4 ADD PUSH1 0x40 MLOAD DUP1 SWAP2 SUB SWAP1 REVERT JUMPDEST PUSH2 0x994 DUP2 PUSH2 0x17BB JUMP JUMPDEST POP JUMP JUMPDEST PUSH2 0x9A2 DUP4 DUP4 DUP4 PUSH2 0x1819 JUMP JUMPDEST POP POP POP JUMP JUMPDEST PUSH0 PUSH2 0x9B1 PUSH1 0xC SLOAD SWAP1 JUMP JUMPDEST DUP3 LT PUSH2 0x9D3 JUMPI PUSH1 0x40 MLOAD PUSH4 0x7931277 PUSH1 0xE1 SHL DUP2 MSTORE PUSH1 0x4 DUP2 ADD DUP4 SWAP1 MSTORE PUSH1 0x24 ADD PUSH2 0x691 JUMP JUMPDEST PUSH1 0xC DUP3 DUP2 SLOAD DUP2 LT PUSH2 0x9E6 JUMPI PUSH2 0x9E6 PUSH2 0x2C11 JUMP JUMPDEST SWAP1 PUSH0 MSTORE PUSH1 0x20 PUSH0 KECCAK256 ADD SLOAD SWAP1 POP SWAP2 SWAP1 POP JUMP JUMPDEST PUSH0 DUP1 PUSH0 DUP1 PUSH2 0xA03 DUP7 PUSH2 0xAAC JUMP JUMPDEST SWAP1 SWAP5 POP DUP5 SWAP3 POP PUSH2 0xFFFF AND SWAP1 POP PUSH2 0x2710 PUSH2 0xA1C DUP3 DUP8 PUSH2 0x2C39 JUMP JUMPDEST PUSH2 0xA26 SWAP2 SWAP1 PUSH2 0x2C64 JUMP JUMPDEST SWAP3 POP POP POP SWAP3 POP SWAP3 SWAP1 POP JUMP JUMPDEST PUSH2 0x9A2 DUP4 DUP4 DUP4 PUSH1 0x40 MLOAD DUP1 PUSH1 0x20 ADD PUSH1 0x40 MSTORE DUP1 PUSH0 DUP2 MSTORE POP PUSH2 0x1205 JUMP JUMPDEST PUSH2 0x994 DUP2 PUSH1 0x1 PUSH2 0x1A0F JUMP JUMPDEST PUSH0 DUP1 PUSH2 0xA61 DUP4 PUSH2 0xC08 JUMP JUMPDEST SWAP1 POP DUP1 PUSH1 0x1 PUSH1 0x1 PUSH1 0xA0 SHL SUB AND DUP5 PUSH1 0x1 PUSH1 0x1 PUSH1 0xA0 SHL SUB AND EQ DUP1 PUSH2 0xA80 JUMPI POP PUSH0 JUMPDEST DUP1 PUSH2 0xAA4 JUMPI POP DUP4 PUSH1 0x1 PUSH1 0x1 PUSH1 0xA0 SHL SUB AND PUSH2 0xA99 DUP5 PUSH2 0x8B6 JUMP JUMPDEST PUSH1 0x1 PUSH1 0x1 PUSH1 0xA0 SHL SUB AND EQ JUMPDEST SWAP5 SWAP4 POP POP POP POP JUMP JUMPDEST PUSH0 DUP2 DUP2 MSTORE PUSH1 0xB PUSH1 0x20 SWAP1 DUP2 MSTORE PUSH1 0x40 DUP1 DUP4 KECCAK256 DUP2 MLOAD DUP1 DUP4 ADD SWAP1 SWAP3 MSTORE DUP1 SLOAD PUSH1 0x1 PUSH1 0x1 PUSH1 0xA0 SHL SUB AND DUP1 DUP4 MSTORE PUSH1 0x1 SWAP1 SWAP2 ADD SLOAD SWAP3 DUP3 ADD SWAP3 SWAP1 SWAP3 MSTORE DUP3 SWAP2 ISZERO PUSH2 0xAF2 JUMPI DUP1 MLOAD PUSH1 0x20 DUP3 ADD MLOAD PUSH2 0xB0C JUMP JUMPDEST PUSH1 0xA SLOAD PUSH1 0x1 PUSH1 0x1 PUSH1 0xA0 SHL SUB DUP2 AND SWAP1 PUSH1 0x1 PUSH1 0xA0 SHL SWAP1 DIV PUSH2 0xFFFF AND JUMPDEST SWAP3 POP SWAP3 POP POP SWAP2 POP SWAP2 JUMP JUMPDEST DUP1 MLOAD PUSH1 0x60 SWAP1 PUSH0 DUP2 PUSH8 0xFFFFFFFFFFFFFFFF DUP2 GT ISZERO PUSH2 0xB35 JUMPI PUSH2 0xB35 PUSH2 0x259D JUMP JUMPDEST PUSH1 0x40 MLOAD SWAP1 DUP1 DUP3 MSTORE DUP1 PUSH1 0x20 MUL PUSH1 0x20 ADD DUP3 ADD PUSH1 0x40 MSTORE DUP1 ISZERO PUSH2 0xB7E JUMPI DUP2 PUSH1 0x20 ADD JUMPDEST PUSH1 0x40 DUP1 MLOAD PUSH1 0x60 DUP2 ADD DUP3 MSTORE PUSH0 DUP1 DUP3 MSTORE PUSH1 0x20 DUP1 DUP4 ADD DUP3 SWAP1 MSTORE SWAP3 DUP3 ADD MSTORE DUP3 MSTORE PUSH0 NOT SWAP1 SWAP3 ADD SWAP2 ADD DUP2 PUSH2 0xB53 JUMPI SWAP1 POP JUMPDEST POP SWAP1 POP PUSH0 JUMPDEST DUP3 DUP2 EQ PUSH2 0xBD1 JUMPI PUSH2 0xBAC DUP6 DUP3 DUP2 MLOAD DUP2 LT PUSH2 0xB9F JUMPI PUSH2 0xB9F PUSH2 0x2C11 JUMP JUMPDEST PUSH1 0x20 MUL PUSH1 0x20 ADD ADD MLOAD PUSH2 0x129E JUMP JUMPDEST DUP3 DUP3 DUP2 MLOAD DUP2 LT PUSH2 0xBBE JUMPI PUSH2 0xBBE PUSH2 0x2C11 JUMP JUMPDEST PUSH1 0x20 SWAP1 DUP2 MUL SWAP2 SWAP1 SWAP2 ADD ADD MSTORE PUSH1 0x1 ADD PUSH2 0xB83 JUMP JUMPDEST POP SWAP4 SWAP3 POP POP POP JUMP JUMPDEST PUSH2 0xBE1 PUSH2 0x151D JUMP JUMPDEST PUSH2 0xBFE JUMPI PUSH1 0x40 MLOAD PUSH4 0x6FAE3581 PUSH1 0xE1 SHL DUP2 MSTORE PUSH1 0x4 ADD PUSH1 0x40 MLOAD DUP1 SWAP2 SUB SWAP1 REVERT JUMPDEST PUSH2 0x6C5 DUP3 DUP3 PUSH2 0x1C0B JUMP JUMPDEST PUSH0 PUSH2 0xC12 DUP3 PUSH2 0x1CB3 JUMP JUMPDEST MLOAD SWAP3 SWAP2 POP POP JUMP JUMPDEST PUSH0 PUSH1 0x1 PUSH1 0x1 PUSH1 0xA0 SHL SUB DUP3 AND PUSH2 0xC41 JUMPI PUSH1 0x40 MLOAD PUSH4 0x23D3AD81 PUSH1 0xE2 SHL DUP2 MSTORE PUSH1 0x4 ADD PUSH1 0x40 MLOAD DUP1 SWAP2 SUB SWAP1 REVERT JUMPDEST POP PUSH1 0x1 PUSH1 0x1 PUSH1 0xA0 SHL SUB AND PUSH0 SWAP1 DUP2 MSTORE PUSH1 0x5 PUSH1 0x20 MSTORE PUSH1 0x40 SWAP1 KECCAK256 SLOAD PUSH8 0xFFFFFFFFFFFFFFFF AND SWAP1 JUMP JUMPDEST PUSH2 0xC6E PUSH2 0x151D JUMP JUMPDEST PUSH2 0xCBA JUMPI PUSH1 0x40 MLOAD PUSH3 0x461BCD PUSH1 0xE5 SHL DUP2 MSTORE PUSH1 0x20 PUSH1 0x4 DUP3 ADD MSTORE PUSH1 0x17 PUSH1 0x24 DUP3 ADD MSTORE PUSH32 0x4E6F7420617574686F72697A656420746F206D696E742E000000000000000000 PUSH1 0x44 DUP3 ADD MSTORE PUSH1 0x64 ADD PUSH2 0x691 JUMP JUMPDEST PUSH2 0xCCC PUSH2 0xCC5 PUSH0 SLOAD SWAP1 JUMP JUMPDEST DUP5 DUP5 PUSH2 0x1DCA JUMP JUMPDEST POP POP PUSH2 0xCD9 DUP5 DUP5 DUP4 PUSH2 0x15C7 JUMP JUMPDEST POP POP POP POP JUMP JUMPDEST PUSH1 0x60 PUSH0 DUP1 PUSH0 PUSH2 0xCED DUP6 PUSH2 0xC19 JUMP JUMPDEST SWAP1 POP PUSH0 DUP2 PUSH8 0xFFFFFFFFFFFFFFFF DUP2 GT ISZERO PUSH2 0xD09 JUMPI PUSH2 0xD09 PUSH2 0x259D JUMP JUMPDEST PUSH1 0x40 MLOAD SWAP1 DUP1 DUP3 MSTORE DUP1 PUSH1 0x20 MUL PUSH1 0x20 ADD DUP3 ADD PUSH1 0x40 MSTORE DUP1 ISZERO PUSH2 0xD32 JUMPI DUP2 PUSH1 0x20 ADD PUSH1 0x20 DUP3 MUL DUP1 CALLDATASIZE DUP4 CALLDATACOPY ADD SWAP1 POP JUMPDEST POP PUSH1 0x40 DUP1 MLOAD PUSH1 0x60 DUP2 ADD DUP3 MSTORE PUSH0 DUP1 DUP3 MSTORE PUSH1 0x20 DUP3 ADD DUP2 SWAP1 MSTORE SWAP2 DUP2 ADD DUP3 SWAP1 MSTORE SWAP2 SWAP3 POP JUMPDEST DUP4 DUP7 EQ PUSH2 0xE0D JUMPI PUSH0 DUP2 DUP2 MSTORE PUSH1 0x4 PUSH1 0x20 SWAP1 DUP2 MSTORE PUSH1 0x40 SWAP2 DUP3 SWAP1 KECCAK256 DUP3 MLOAD PUSH1 0x60 DUP2 ADD DUP5 MSTORE SWAP1 SLOAD PUSH1 0x1 PUSH1 0x1 PUSH1 0xA0 SHL SUB DUP2 AND DUP3 MSTORE PUSH1 0x1 PUSH1 0xA0 SHL DUP2 DIV PUSH8 0xFFFFFFFFFFFFFFFF AND SWAP3 DUP3 ADD SWAP3 SWAP1 SWAP3 MSTORE PUSH1 0x1 PUSH1 0xE0 SHL SWAP1 SWAP2 DIV PUSH1 0xFF AND ISZERO ISZERO SWAP2 DUP2 ADD DUP3 SWAP1 MSTORE SWAP3 POP PUSH2 0xE05 JUMPI DUP2 MLOAD PUSH1 0x1 PUSH1 0x1 PUSH1 0xA0 SHL SUB AND ISZERO PUSH2 0xDC6 JUMPI DUP2 MLOAD SWAP5 POP JUMPDEST DUP8 PUSH1 0x1 PUSH1 0x1 PUSH1 0xA0 SHL SUB AND DUP6 PUSH1 0x1 PUSH1 0x1 PUSH1 0xA0 SHL SUB AND SUB PUSH2 0xE05 JUMPI DUP1 DUP4 DUP8 DUP1 PUSH1 0x1 ADD SWAP9 POP DUP2 MLOAD DUP2 LT PUSH2 0xDF8 JUMPI PUSH2 0xDF8 PUSH2 0x2C11 JUMP JUMPDEST PUSH1 0x20 MUL PUSH1 0x20 ADD ADD DUP2 DUP2 MSTORE POP POP JUMPDEST PUSH1 0x1 ADD PUSH2 0xD52 JUMP JUMPDEST POP SWAP1 SWAP7 SWAP6 POP POP POP POP POP POP JUMP JUMPDEST PUSH2 0xE21 PUSH2 0x151D JUMP JUMPDEST PUSH2 0xE3E JUMPI PUSH1 0x40 MLOAD PUSH4 0x9F7F0925 PUSH1 0xE0 SHL DUP2 MSTORE PUSH1 0x4 ADD PUSH1 0x40 MLOAD DUP1 SWAP2 SUB SWAP1 REVERT JUMPDEST PUSH2 0x994 DUP2 PUSH2 0x1E2C JUMP JUMPDEST PUSH1 0x60 PUSH1 0x3 DUP1 SLOAD PUSH2 0x744 SWAP1 PUSH2 0x2BD9 JUMP JUMPDEST PUSH1 0x60 DUP2 DUP4 LT PUSH2 0xE78 JUMPI PUSH1 0x40 MLOAD PUSH4 0x1960CCAD PUSH1 0xE1 SHL DUP2 MSTORE PUSH1 0x4 ADD PUSH1 0x40 MLOAD DUP1 SWAP2 SUB SWAP1 REVERT JUMPDEST PUSH0 DUP1 SLOAD DUP1 DUP5 GT ISZERO PUSH2 0xE87 JUMPI DUP1 SWAP4 POP JUMPDEST PUSH0 PUSH2 0xE91 DUP8 PUSH2 0xC19 JUMP JUMPDEST SWAP1 POP DUP5 DUP7 LT ISZERO PUSH2 0xEB0 JUMPI DUP6 DUP6 SUB DUP2 DUP2 LT ISZERO PUSH2 0xEAA JUMPI DUP1 SWAP2 POP JUMPDEST POP PUSH2 0xEB3 JUMP JUMPDEST POP PUSH0 JUMPDEST PUSH0 DUP2 PUSH8 0xFFFFFFFFFFFFFFFF DUP2 GT ISZERO PUSH2 0xECD JUMPI PUSH2 0xECD PUSH2 0x259D JUMP JUMPDEST PUSH1 0x40 MLOAD SWAP1 DUP1 DUP3 MSTORE DUP1 PUSH1 0x20 MUL PUSH1 0x20 ADD DUP3 ADD PUSH1 0x40 MSTORE DUP1 ISZERO PUSH2 0xEF6 JUMPI DUP2 PUSH1 0x20 ADD PUSH1 0x20 DUP3 MUL DUP1 CALLDATASIZE DUP4 CALLDATACOPY ADD SWAP1 POP JUMPDEST POP SWAP1 POP DUP2 PUSH0 SUB PUSH2 0xF0B JUMPI SWAP4 POP PUSH2 0xFFC SWAP3 POP POP POP JUMP JUMPDEST PUSH0 PUSH2 0xF15 DUP9 PUSH2 0x129E JUMP JUMPDEST SWAP1 POP PUSH0 DUP2 PUSH1 0x40 ADD MLOAD PUSH2 0xF25 JUMPI POP DUP1 MLOAD JUMPDEST DUP9 JUMPDEST DUP9 DUP2 EQ ISZERO DUP1 ISZERO PUSH2 0xF37 JUMPI POP DUP5 DUP8 EQ ISZERO JUMPDEST ISZERO PUSH2 0xFF0 JUMPI PUSH0 DUP2 DUP2 MSTORE PUSH1 0x4 PUSH1 0x20 SWAP1 DUP2 MSTORE PUSH1 0x40 SWAP2 DUP3 SWAP1 KECCAK256 DUP3 MLOAD PUSH1 0x60 DUP2 ADD DUP5 MSTORE SWAP1 SLOAD PUSH1 0x1 PUSH1 0x1 PUSH1 0xA0 SHL SUB DUP2 AND DUP3 MSTORE PUSH1 0x1 PUSH1 0xA0 SHL DUP2 DIV PUSH8 0xFFFFFFFFFFFFFFFF AND SWAP3 DUP3 ADD SWAP3 SWAP1 SWAP3 MSTORE PUSH1 0x1 PUSH1 0xE0 SHL SWAP1 SWAP2 DIV PUSH1 0xFF AND ISZERO ISZERO SWAP2 DUP2 ADD DUP3 SWAP1 MSTORE SWAP4 POP PUSH2 0xFE8 JUMPI DUP3 MLOAD PUSH1 0x1 PUSH1 0x1 PUSH1 0xA0 SHL SUB AND ISZERO PUSH2 0xFA9 JUMPI DUP3 MLOAD SWAP2 POP JUMPDEST DUP11 PUSH1 0x1 PUSH1 0x1 PUSH1 0xA0 SHL SUB AND DUP3 PUSH1 0x1 PUSH1 0x1 PUSH1 0xA0 SHL SUB AND SUB PUSH2 0xFE8 JUMPI DUP1 DUP5 DUP9 DUP1 PUSH1 0x1 ADD SWAP10 POP DUP2 MLOAD DUP2 LT PUSH2 0xFDB JUMPI PUSH2 0xFDB PUSH2 0x2C11 JUMP JUMPDEST PUSH1 0x20 MUL PUSH1 0x20 ADD ADD DUP2 DUP2 MSTORE POP POP JUMPDEST PUSH1 0x1 ADD PUSH2 0xF27 JUMP JUMPDEST POP POP POP SWAP3 DUP4 MSTORE POP SWAP1 SWAP2 POP POP JUMPDEST SWAP4 SWAP3 POP POP POP JUMP JUMPDEST PUSH2 0x100B PUSH2 0x151D JUMP JUMPDEST PUSH2 0x1028 JUMPI PUSH1 0x40 MLOAD PUSH4 0x6FAE3581 PUSH1 0xE1 SHL DUP2 MSTORE PUSH1 0x4 ADD PUSH1 0x40 MLOAD DUP1 SWAP2 SUB SWAP1 REVERT JUMPDEST PUSH2 0x9A2 DUP4 DUP4 DUP4 PUSH2 0x1F05 JUMP JUMPDEST PUSH1 0x40 MLOAD PUSH3 0x461BCD PUSH1 0xE5 SHL DUP2 MSTORE PUSH1 0x20 PUSH1 0x4 DUP3 ADD MSTORE PUSH1 0x2D PUSH1 0x24 DUP3 ADD MSTORE PUSH32 0x536572746966696B617420536F756C626F756E643A2044656C65676173692064 PUSH1 0x44 DUP3 ADD MSTORE PUSH32 0x696E6F6E616B7469666B616E2100000000000000000000000000000000000000 PUSH1 0x64 DUP3 ADD MSTORE PUSH1 0x84 ADD PUSH2 0x691 JUMP JUMPDEST PUSH1 0x60 DUP2 PUSH8 0xFFFFFFFFFFFFFFFF DUP2 GT ISZERO PUSH2 0x10BC JUMPI PUSH2 0x10BC PUSH2 0x259D JUMP JUMPDEST PUSH1 0x40 MLOAD SWAP1 DUP1 DUP3 MSTORE DUP1 PUSH1 0x20 MUL PUSH1 0x20 ADD DUP3 ADD PUSH1 0x40 MSTORE DUP1 ISZERO PUSH2 0x10EF JUMPI DUP2 PUSH1 0x20 ADD JUMPDEST PUSH1 0x60 DUP2 MSTORE PUSH1 0x20 ADD SWAP1 PUSH1 0x1 SWAP1 SUB SWAP1 DUP2 PUSH2 0x10DA JUMPI SWAP1 POP JUMPDEST POP SWAP1 POP CALLER PUSH0 DUP1 JUMPDEST DUP5 DUP2 LT ISZERO PUSH2 0x11FC JUMPI DUP2 ISZERO PUSH2 0x1175 JUMPI PUSH2 0x1153 ADDRESS DUP8 DUP8 DUP5 DUP2 DUP2 LT PUSH2 0x111A JUMPI PUSH2 0x111A PUSH2 0x2C11 JUMP JUMPDEST SWAP1 POP PUSH1 0x20 MUL DUP2 ADD SWAP1 PUSH2 0x112C SWAP2 SWAP1 PUSH2 0x2C77 JUMP JUMPDEST DUP7 PUSH1 0x40 MLOAD PUSH1 0x20 ADD PUSH2 0x113F SWAP4 SWAP3 SWAP2 SWAP1 PUSH2 0x2CC1 JUMP JUMPDEST PUSH1 0x40 MLOAD PUSH1 0x20 DUP2 DUP4 SUB SUB DUP2 MSTORE SWAP1 PUSH1 0x40 MSTORE PUSH2 0x1FC4 JUMP JUMPDEST DUP5 DUP3 DUP2 MLOAD DUP2 LT PUSH2 0x1165 JUMPI PUSH2 0x1165 PUSH2 0x2C11 JUMP JUMPDEST PUSH1 0x20 MUL PUSH1 0x20 ADD ADD DUP2 SWAP1 MSTORE POP PUSH2 0x11F4 JUMP JUMPDEST PUSH2 0x11D6 ADDRESS DUP8 DUP8 DUP5 DUP2 DUP2 LT PUSH2 0x118B JUMPI PUSH2 0x118B PUSH2 0x2C11 JUMP JUMPDEST SWAP1 POP PUSH1 0x20 MUL DUP2 ADD SWAP1 PUSH2 0x119D SWAP2 SWAP1 PUSH2 0x2C77 JUMP JUMPDEST DUP1 DUP1 PUSH1 0x1F ADD PUSH1 0x20 DUP1 SWAP2 DIV MUL PUSH1 0x20 ADD PUSH1 0x40 MLOAD SWAP1 DUP2 ADD PUSH1 0x40 MSTORE DUP1 SWAP4 SWAP3 SWAP2 SWAP1 DUP2 DUP2 MSTORE PUSH1 0x20 ADD DUP4 DUP4 DUP1 DUP3 DUP5 CALLDATACOPY PUSH0 SWAP3 ADD SWAP2 SWAP1 SWAP2 MSTORE POP PUSH2 0x1FC4 SWAP3 POP POP POP JUMP JUMPDEST DUP5 DUP3 DUP2 MLOAD DUP2 LT PUSH2 0x11E8 JUMPI PUSH2 0x11E8 PUSH2 0x2C11 JUMP JUMPDEST PUSH1 0x20 MUL PUSH1 0x20 ADD ADD DUP2 SWAP1 MSTORE POP JUMPDEST PUSH1 0x1 ADD PUSH2 0x10F6 JUMP JUMPDEST POP POP POP SWAP3 SWAP2 POP POP JUMP JUMPDEST PUSH2 0x1210 DUP5 DUP5 DUP5 PUSH2 0x1819 JUMP JUMPDEST PUSH1 0x1 PUSH1 0x1 PUSH1 0xA0 SHL SUB DUP4 AND EXTCODESIZE ISZERO PUSH2 0xCD9 JUMPI PUSH2 0x122C DUP5 DUP5 DUP5 DUP5 PUSH2 0x1FE9 JUMP JUMPDEST PUSH2 0xCD9 JUMPI PUSH1 0x40 MLOAD PUSH4 0x68D2BF6B PUSH1 0xE1 SHL DUP2 MSTORE PUSH1 0x4 ADD PUSH1 0x40 MLOAD DUP1 SWAP2 SUB SWAP1 REVERT JUMPDEST PUSH1 0x9 SLOAD PUSH1 0x1 PUSH1 0x1 PUSH1 0xA0 SHL SUB AND CALLER EQ PUSH2 0x1294 JUMPI PUSH1 0x40 MLOAD PUSH3 0x461BCD PUSH1 0xE5 SHL DUP2 MSTORE PUSH1 0x20 PUSH1 0x4 DUP3 ADD MSTORE PUSH1 0xE PUSH1 0x24 DUP3 ADD MSTORE PUSH14 0x139BDD08185D5D1A1BDC9A5E9959 PUSH1 0x92 SHL PUSH1 0x44 DUP3 ADD MSTORE PUSH1 0x64 ADD PUSH2 0x691 JUMP JUMPDEST PUSH2 0x994 DUP2 PUSH0 PUSH2 0x1A0F JUMP JUMPDEST PUSH1 0x40 DUP1 MLOAD PUSH1 0x60 DUP1 DUP3 ADD DUP4 MSTORE PUSH0 DUP1 DUP4 MSTORE PUSH1 0x20 DUP1 DUP5 ADD DUP3 SWAP1 MSTORE DUP4 DUP6 ADD DUP3 SWAP1 MSTORE DUP5 MLOAD SWAP3 DUP4 ADD DUP6 MSTORE DUP2 DUP4 MSTORE DUP3 ADD DUP2 SWAP1 MSTORE SWAP3 DUP2 ADD DUP4 SWAP1 MSTORE SWAP1 SWAP2 POP PUSH0 SLOAD DUP4 LT PUSH2 0x12E1 JUMPI SWAP3 SWAP2 POP POP JUMP JUMPDEST POP PUSH0 DUP3 DUP2 MSTORE PUSH1 0x4 PUSH1 0x20 SWAP1 DUP2 MSTORE PUSH1 0x40 SWAP2 DUP3 SWAP1 KECCAK256 DUP3 MLOAD PUSH1 0x60 DUP2 ADD DUP5 MSTORE SWAP1 SLOAD PUSH1 0x1 PUSH1 0x1 PUSH1 0xA0 SHL SUB DUP2 AND DUP3 MSTORE PUSH1 0x1 PUSH1 0xA0 SHL DUP2 DIV PUSH8 0xFFFFFFFFFFFFFFFF AND SWAP3 DUP3 ADD SWAP3 SWAP1 SWAP3 MSTORE PUSH1 0x1 PUSH1 0xE0 SHL SWAP1 SWAP2 DIV PUSH1 0xFF AND ISZERO DUP1 ISZERO SWAP3 DUP3 ADD SWAP3 SWAP1 SWAP3 MSTORE SWAP1 PUSH2 0x1341 JUMPI SWAP3 SWAP2 POP POP JUMP JUMPDEST PUSH2 0xFFC DUP4 PUSH2 0x1CB3 JUMP JUMPDEST PUSH0 DUP2 DUP2 MSTORE PUSH1 0xF PUSH1 0x20 MSTORE PUSH1 0x40 DUP2 KECCAK256 DUP1 SLOAD PUSH1 0x60 SWAP3 SWAP2 SWAP1 PUSH2 0x1367 SWAP1 PUSH2 0x2BD9 JUMP JUMPDEST DUP1 PUSH1 0x1F ADD PUSH1 0x20 DUP1 SWAP2 DIV MUL PUSH1 0x20 ADD PUSH1 0x40 MLOAD SWAP1 DUP2 ADD PUSH1 0x40 MSTORE DUP1 SWAP3 SWAP2 SWAP1 DUP2 DUP2 MSTORE PUSH1 0x20 ADD DUP3 DUP1 SLOAD PUSH2 0x1393 SWAP1 PUSH2 0x2BD9 JUMP JUMPDEST DUP1 ISZERO PUSH2 0x13DE JUMPI DUP1 PUSH1 0x1F LT PUSH2 0x13B5 JUMPI PUSH2 0x100 DUP1 DUP4 SLOAD DIV MUL DUP4 MSTORE SWAP2 PUSH1 0x20 ADD SWAP2 PUSH2 0x13DE JUMP JUMPDEST DUP3 ADD SWAP2 SWAP1 PUSH0 MSTORE PUSH1 0x20 PUSH0 KECCAK256 SWAP1 JUMPDEST DUP2 SLOAD DUP2 MSTORE SWAP1 PUSH1 0x1 ADD SWAP1 PUSH1 0x20 ADD DUP1 DUP4 GT PUSH2 0x13C1 JUMPI DUP3 SWAP1 SUB PUSH1 0x1F AND DUP3 ADD SWAP2 JUMPDEST POP POP POP POP POP SWAP1 POP PUSH0 DUP2 MLOAD GT ISZERO PUSH2 0x13F4 JUMPI SWAP3 SWAP2 POP POP JUMP JUMPDEST PUSH0 PUSH2 0x13FE DUP5 PUSH2 0x20D0 JUMP JUMPDEST SWAP1 POP DUP1 PUSH2 0x140A DUP6 PUSH2 0x2245 JUMP JUMPDEST PUSH1 0x40 MLOAD PUSH1 0x20 ADD PUSH2 0x141B SWAP3 SWAP2 SWAP1 PUSH2 0x2CFE JUMP JUMPDEST PUSH1 0x40 MLOAD PUSH1 0x20 DUP2 DUP4 SUB SUB DUP2 MSTORE SWAP1 PUSH1 0x40 MSTORE SWAP3 POP POP POP SWAP2 SWAP1 POP JUMP JUMPDEST PUSH1 0x9 SLOAD PUSH1 0x1 PUSH1 0x1 PUSH1 0xA0 SHL SUB AND CALLER EQ PUSH2 0x147E JUMPI PUSH1 0x40 MLOAD PUSH3 0x461BCD PUSH1 0xE5 SHL DUP2 MSTORE PUSH1 0x20 PUSH1 0x4 DUP3 ADD MSTORE PUSH1 0xE PUSH1 0x24 DUP3 ADD MSTORE PUSH14 0x139BDD08185D5D1A1BDC9A5E9959 PUSH1 0x92 SHL PUSH1 0x44 DUP3 ADD MSTORE PUSH1 0x64 ADD PUSH2 0x691 JUMP JUMPDEST PUSH1 0x10 DUP1 SLOAD PUSH1 0xFF NOT AND SWAP2 ISZERO ISZERO SWAP2 SWAP1 SWAP2 OR SWAP1 SSTORE JUMP JUMPDEST PUSH1 0x8 DUP1 SLOAD PUSH2 0x149E SWAP1 PUSH2 0x2BD9 JUMP JUMPDEST DUP1 PUSH1 0x1F ADD PUSH1 0x20 DUP1 SWAP2 DIV MUL PUSH1 0x20 ADD PUSH1 0x40 MLOAD SWAP1 DUP2 ADD PUSH1 0x40 MSTORE DUP1 SWAP3 SWAP2 SWAP1 DUP2 DUP2 MSTORE PUSH1 0x20 ADD DUP3 DUP1 SLOAD PUSH2 0x14CA SWAP1 PUSH2 0x2BD9 JUMP JUMPDEST DUP1 ISZERO PUSH2 0x1515 JUMPI DUP1 PUSH1 0x1F LT PUSH2 0x14EC JUMPI PUSH2 0x100 DUP1 DUP4 SLOAD DIV MUL DUP4 MSTORE SWAP2 PUSH1 0x20 ADD SWAP2 PUSH2 0x1515 JUMP JUMPDEST DUP3 ADD SWAP2 SWAP1 PUSH0 MSTORE PUSH1 0x20 PUSH0 KECCAK256 SWAP1 JUMPDEST DUP2 SLOAD DUP2 MSTORE SWAP1 PUSH1 0x1 ADD SWAP1 PUSH1 0x20 ADD DUP1 DUP4 GT PUSH2 0x14F8 JUMPI DUP3 SWAP1 SUB PUSH1 0x1F AND DUP3 ADD SWAP2 JUMPDEST POP POP POP POP POP DUP2 JUMP JUMPDEST PUSH0 PUSH2 0x1530 PUSH1 0x9 SLOAD PUSH1 0x1 PUSH1 0x1 PUSH1 0xA0 SHL SUB AND SWAP1 JUMP JUMPDEST PUSH1 0x1 PUSH1 0x1 PUSH1 0xA0 SHL SUB AND CALLER PUSH1 0x1 PUSH1 0x1 PUSH1 0xA0 SHL SUB AND EQ SWAP1 POP SWAP1 JUMP JUMPDEST PUSH0 DUP3 DUP2 MSTORE PUSH1 0xF PUSH1 0x20 MSTORE PUSH1 0x40 SWAP1 KECCAK256 DUP1 SLOAD PUSH2 0x1561 SWAP1 PUSH2 0x2BD9 JUMP JUMPDEST ISZERO SWAP1 POP PUSH2 0x15B0 JUMPI PUSH1 0x40 MLOAD PUSH3 0x461BCD PUSH1 0xE5 SHL DUP2 MSTORE PUSH1 0x20 PUSH1 0x4 DUP3 ADD MSTORE PUSH1 0xF PUSH1 0x24 DUP3 ADD MSTORE PUSH32 0x55524920616C7265616479207365740000000000000000000000000000000000 PUSH1 0x44 DUP3 ADD MSTORE PUSH1 0x64 ADD PUSH2 0x691 JUMP JUMPDEST PUSH0 DUP3 DUP2 MSTORE PUSH1 0xF PUSH1 0x20 MSTORE PUSH1 0x40 SWAP1 KECCAK256 PUSH2 0x9A2 DUP3 DUP3 PUSH2 0x2D56 JUMP JUMPDEST PUSH0 SLOAD PUSH1 0x1 PUSH1 0x1 PUSH1 0xA0 SHL SUB DUP5 AND PUSH2 0x15EF JUMPI PUSH1 0x40 MLOAD PUSH3 0x2E0763 PUSH1 0xE8 SHL DUP2 MSTORE PUSH1 0x4 ADD PUSH1 0x40 MLOAD DUP1 SWAP2 SUB SWAP1 REVERT JUMPDEST DUP3 PUSH0 SUB PUSH2 0x160F JUMPI PUSH1 0x40 MLOAD PUSH4 0xB562E8DD PUSH1 0xE0 SHL DUP2 MSTORE PUSH1 0x4 ADD PUSH1 0x40 MLOAD DUP1 SWAP2 SUB SWAP1 REVERT JUMPDEST PUSH2 0x161B PUSH0 DUP6 DUP4 DUP7 PUSH2 0x235A JUMP JUMPDEST PUSH1 0x1 PUSH1 0x1 PUSH1 0xA0 SHL SUB DUP5 AND PUSH0 DUP2 DUP2 MSTORE PUSH1 0x5 PUSH1 0x20 SWAP1 DUP2 MSTORE PUSH1 0x40 DUP1 DUP4 KECCAK256 DUP1 SLOAD PUSH16 0xFFFFFFFFFFFFFFFFFFFFFFFFFFFFFFFF NOT DUP2 AND PUSH8 0xFFFFFFFFFFFFFFFF DUP1 DUP4 AND DUP12 ADD DUP2 AND SWAP2 DUP3 OR PUSH9 0x10000000000000000 PUSH8 0xFFFFFFFFFFFFFFFF NOT SWAP1 SWAP5 AND SWAP1 SWAP3 OR DUP4 SWAP1 DIV DUP2 AND DUP12 ADD DUP2 AND SWAP1 SWAP3 MUL OR SWAP1 SWAP2 SSTORE DUP6 DUP5 MSTORE PUSH1 0x4 SWAP1 SWAP3 MSTORE SWAP1 SWAP2 KECCAK256 DUP1 SLOAD PUSH1 0x1 PUSH1 0x1 PUSH1 0xE0 SHL SUB NOT AND DUP4 OR PUSH1 0x1 PUSH1 0xA0 SHL TIMESTAMP SWAP1 SWAP4 AND SWAP3 SWAP1 SWAP3 MUL SWAP2 SWAP1 SWAP2 OR SWAP1 SSTORE DUP2 SWAP1 DUP2 DUP6 ADD SWAP1 EXTCODESIZE ISZERO PUSH2 0x173F JUMPI JUMPDEST PUSH1 0x40 MLOAD DUP3 SWAP1 PUSH1 0x1 PUSH1 0x1 PUSH1 0xA0 SHL SUB DUP9 AND SWAP1 PUSH0 SWAP1 PUSH32 0xDDF252AD1BE2C89B69C2B068FC378DAA952BA7F163C4A11628F55A4DF523B3EF SWAP1 DUP3 SWAP1 LOG4 PUSH2 0x170A PUSH0 DUP8 DUP5 DUP1 PUSH1 0x1 ADD SWAP6 POP DUP8 PUSH2 0x1FE9 JUMP JUMPDEST PUSH2 0x1727 JUMPI PUSH1 0x40 MLOAD PUSH4 0x68D2BF6B PUSH1 0xE1 SHL DUP2 MSTORE PUSH1 0x4 ADD PUSH1 0x40 MLOAD DUP1 SWAP2 SUB SWAP1 REVERT JUMPDEST DUP1 DUP3 LT PUSH2 0x16C1 JUMPI DUP3 PUSH0 SLOAD EQ PUSH2 0x173A JUMPI PUSH0 DUP1 REVERT JUMPDEST PUSH2 0x1783 JUMP JUMPDEST JUMPDEST PUSH1 0x40 MLOAD PUSH1 0x1 DUP4 ADD SWAP3 SWAP1 PUSH1 0x1 PUSH1 0x1 PUSH1 0xA0 SHL SUB DUP9 AND SWAP1 PUSH0 SWAP1 PUSH32 0xDDF252AD1BE2C89B69C2B068FC378DAA952BA7F163C4A11628F55A4DF523B3EF SWAP1 DUP3 SWAP1 LOG4 DUP1 DUP3 LT PUSH2 0x1740 JUMPI JUMPDEST POP PUSH0 SWAP1 DUP2 SSTORE PUSH2 0xCD9 SWAP1 DUP6 DUP4 DUP7 DUP5 JUMP JUMPDEST PUSH0 DUP1 SLOAD DUP3 LT DUP1 ISZERO PUSH2 0x72F JUMPI POP POP PUSH0 SWAP1 DUP2 MSTORE PUSH1 0x4 PUSH1 0x20 MSTORE PUSH1 0x40 SWAP1 KECCAK256 SLOAD PUSH1 0x1 PUSH1 0xE0 SHL SWAP1 DIV PUSH1 0xFF AND ISZERO SWAP1 JUMP JUMPDEST PUSH1 0x9 DUP1 SLOAD PUSH1 0x1 PUSH1 0x1 PUSH1 0xA0 SHL SUB DUP4 DUP2 AND PUSH20 0xFFFFFFFFFFFFFFFFFFFFFFFFFFFFFFFFFFFFFFFF NOT DUP4 AND DUP2 OR SWAP1 SWAP4 SSTORE PUSH1 0x40 MLOAD SWAP2 AND SWAP2 SWAP1 DUP3 SWAP1 PUSH32 0x8292FCE18FA69EDF4DB7B94EA2E58241DF0AE57F97E0A6C9B29067028BF92D76 SWAP1 PUSH0 SWAP1 LOG3 POP POP JUMP JUMPDEST PUSH0 PUSH2 0x1823 DUP3 PUSH2 0x1CB3 JUMP JUMPDEST SWAP1 POP DUP4 PUSH1 0x1 PUSH1 0x1 PUSH1 0xA0 SHL SUB AND DUP2 PUSH0 ADD MLOAD PUSH1 0x1 PUSH1 0x1 PUSH1 0xA0 SHL SUB AND EQ PUSH2 0x1859 JUMPI PUSH1 0x40 MLOAD PUSH3 0xA11481 PUSH1 0xE8 SHL DUP2 MSTORE PUSH1 0x4 ADD PUSH1 0x40 MLOAD DUP1 SWAP2 SUB SWAP1 REVERT JUMPDEST PUSH0 CALLER PUSH1 0x1 PUSH1 0x1 PUSH1 0xA0 SHL SUB DUP7 AND EQ DUP1 PUSH2 0x1876 JUMPI POP PUSH2 0x1876 DUP6 CALLER PUSH2 0x63A JUMP JUMPDEST DUP1 PUSH2 0x1891 JUMPI POP CALLER PUSH2 0x1886 DUP5 PUSH2 0x8B6 JUMP JUMPDEST PUSH1 0x1 PUSH1 0x1 PUSH1 0xA0 SHL SUB AND EQ JUMPDEST SWAP1 POP DUP1 PUSH2 0x18B1 JUMPI PUSH1 0x40 MLOAD PUSH4 0x2CE44B5F PUSH1 0xE1 SHL DUP2 MSTORE PUSH1 0x4 ADD PUSH1 0x40 MLOAD DUP1 SWAP2 SUB SWAP1 REVERT JUMPDEST PUSH1 0x1 PUSH1 0x1 PUSH1 0xA0 SHL SUB DUP5 AND PUSH2 0x18D8 JUMPI PUSH1 0x40 MLOAD PUSH4 0x3A954ECD PUSH1 0xE2 SHL DUP2 MSTORE PUSH1 0x4 ADD PUSH1 0x40 MLOAD DUP1 SWAP2 SUB SWAP1 REVERT JUMPDEST PUSH2 0x18E5 DUP6 DUP6 DUP6 PUSH1 0x1 PUSH2 0x235A JUMP JUMPDEST PUSH2 0x18F0 PUSH0 DUP5 DUP8 PUSH2 0x2409 JUMP JUMPDEST PUSH1 0x1 PUSH1 0x1 PUSH1 0xA0 SHL SUB DUP6 DUP2 AND PUSH0 SWAP1 DUP2 MSTORE PUSH1 0x5 PUSH1 0x20 SWAP1 DUP2 MSTORE PUSH1 0x40 DUP1 DUP4 KECCAK256 DUP1 SLOAD PUSH8 0xFFFFFFFFFFFFFFFF NOT DUP1 DUP3 AND PUSH8 0xFFFFFFFFFFFFFFFF SWAP3 DUP4 AND PUSH0 NOT ADD DUP4 AND OR SWAP1 SWAP3 SSTORE DUP10 DUP7 AND DUP1 DUP7 MSTORE DUP4 DUP7 KECCAK256 DUP1 SLOAD SWAP4 DUP5 AND SWAP4 DUP4 AND PUSH1 0x1 SWAP1 DUP2 ADD DUP5 AND SWAP5 SWAP1 SWAP5 OR SWAP1 SSTORE DUP10 DUP7 MSTORE PUSH1 0x4 SWAP1 SWAP5 MSTORE DUP3 DUP6 KECCAK256 DUP1 SLOAD PUSH1 0x1 PUSH1 0x1 PUSH1 0xE0 SHL SUB NOT AND SWAP1 SWAP5 OR PUSH1 0x1 PUSH1 0xA0 SHL TIMESTAMP SWAP1 SWAP3 AND SWAP2 SWAP1 SWAP2 MUL OR DUP4 SSTORE DUP8 ADD DUP1 DUP5 MSTORE SWAP3 KECCAK256 DUP1 SLOAD SWAP2 SWAP4 SWAP1 SWAP2 AND PUSH2 0x19C3 JUMPI PUSH0 SLOAD DUP3 EQ PUSH2 0x19C3 JUMPI DUP1 SLOAD PUSH1 0x20 DUP7 ADD MLOAD PUSH8 0xFFFFFFFFFFFFFFFF AND PUSH1 0x1 PUSH1 0xA0 SHL MUL PUSH1 0x1 PUSH1 0x1 PUSH1 0xE0 SHL SUB NOT SWAP1 SWAP2 AND PUSH1 0x1 PUSH1 0x1 PUSH1 0xA0 SHL SUB DUP11 AND OR OR DUP2 SSTORE JUMPDEST POP POP POP DUP3 DUP5 PUSH1 0x1 PUSH1 0x1 PUSH1 0xA0 SHL SUB AND DUP7 PUSH1 0x1 PUSH1 0x1 PUSH1 0xA0 SHL SUB AND PUSH32 0xDDF252AD1BE2C89B69C2B068FC378DAA952BA7F163C4A11628F55A4DF523B3EF PUSH1 0x40 MLOAD PUSH1 0x40 MLOAD DUP1 SWAP2 SUB SWAP1 LOG4 JUMPDEST POP POP POP POP POP JUMP JUMPDEST PUSH0 PUSH2 0x1A19 DUP4 PUSH2 0x1CB3 JUMP JUMPDEST DUP1 MLOAD SWAP1 SWAP2 POP DUP3 ISZERO PUSH2 0x1A7E JUMPI PUSH0 CALLER PUSH1 0x1 PUSH1 0x1 PUSH1 0xA0 SHL SUB DUP4 AND EQ DUP1 PUSH2 0x1A41 JUMPI POP PUSH2 0x1A41 DUP3 CALLER PUSH2 0x63A JUMP JUMPDEST DUP1 PUSH2 0x1A5C JUMPI POP CALLER PUSH2 0x1A51 DUP7 PUSH2 0x8B6 JUMP JUMPDEST PUSH1 0x1 PUSH1 0x1 PUSH1 0xA0 SHL SUB AND EQ JUMPDEST SWAP1 POP DUP1 PUSH2 0x1A7C JUMPI PUSH1 0x40 MLOAD PUSH4 0x2CE44B5F PUSH1 0xE1 SHL DUP2 MSTORE PUSH1 0x4 ADD PUSH1 0x40 MLOAD DUP1 SWAP2 SUB SWAP1 REVERT JUMPDEST POP JUMPDEST PUSH2 0x1A8B DUP2 PUSH0 DUP7 PUSH1 0x1 PUSH2 0x235A JUMP JUMPDEST PUSH2 0x1A96 PUSH0 DUP6 DUP4 PUSH2 0x2409 JUMP JUMPDEST PUSH1 0x1 PUSH1 0x1 PUSH1 0xA0 SHL SUB DUP1 DUP3 AND PUSH0 DUP2 DUP2 MSTORE PUSH1 0x5 PUSH1 0x20 SWAP1 DUP2 MSTORE PUSH1 0x40 DUP1 DUP4 KECCAK256 DUP1 SLOAD PUSH17 0x100000000000000000000000000000000 PUSH0 NOT PUSH8 0xFFFFFFFFFFFFFFFF DUP1 DUP5 AND SWAP2 SWAP1 SWAP2 ADD DUP2 AND PUSH8 0xFFFFFFFFFFFFFFFF NOT DUP5 AND DUP2 OR DUP4 SWAP1 DIV DUP3 AND PUSH1 0x1 SWAP1 DUP2 ADD DUP4 AND SWAP1 SWAP4 MUL PUSH32 0xFFFFFFFFFFFFFFFF0000000000000000FFFFFFFFFFFFFFFF0000000000000000 SWAP1 SWAP5 AND OR SWAP3 SWAP1 SWAP3 OR DUP4 SSTORE DUP12 DUP7 MSTORE PUSH1 0x4 SWAP1 SWAP5 MSTORE DUP3 DUP6 KECCAK256 DUP1 SLOAD PUSH32 0xFFFFFF00FFFFFFFFFFFFFFFFFFFFFFFFFFFFFFFFFFFFFFFFFFFFFFFFFFFFFFFF TIMESTAMP SWAP1 SWAP4 AND PUSH1 0x1 PUSH1 0xA0 SHL MUL PUSH1 0x1 PUSH1 0x1 PUSH1 0xE0 SHL SUB NOT SWAP1 SWAP2 AND SWAP1 SWAP8 OR SWAP7 SWAP1 SWAP7 OR AND PUSH1 0x1 PUSH1 0xE0 SHL OR DUP6 SSTORE SWAP2 DUP10 ADD DUP1 DUP5 MSTORE SWAP3 KECCAK256 DUP1 SLOAD SWAP2 SWAP5 SWAP1 SWAP2 AND PUSH2 0x1BC2 JUMPI PUSH0 SLOAD DUP3 EQ PUSH2 0x1BC2 JUMPI DUP1 SLOAD PUSH1 0x20 DUP8 ADD MLOAD PUSH8 0xFFFFFFFFFFFFFFFF AND PUSH1 0x1 PUSH1 0xA0 SHL MUL PUSH1 0x1 PUSH1 0x1 PUSH1 0xE0 SHL SUB NOT SWAP1 SWAP2 AND PUSH1 0x1 PUSH1 0x1 PUSH1 0xA0 SHL SUB DUP8 AND OR OR DUP2 SSTORE JUMPDEST POP POP PUSH1 0x40 MLOAD DUP7 SWAP3 POP PUSH0 SWAP2 POP PUSH1 0x1 PUSH1 0x1 PUSH1 0xA0 SHL SUB DUP5 AND SWAP1 PUSH32 0xDDF252AD1BE2C89B69C2B068FC378DAA952BA7F163C4A11628F55A4DF523B3EF SWAP1 DUP4 SWAP1 LOG4 POP POP PUSH1 0x1 DUP1 SLOAD DUP2 ADD SWAP1 SSTORE POP POP JUMP JUMPDEST PUSH2 0x2710 DUP2 GT ISZERO PUSH2 0x1C39 JUMPI PUSH1 0x40 MLOAD PUSH4 0xA4930AD PUSH1 0xE3 SHL DUP2 MSTORE PUSH2 0x2710 PUSH1 0x4 DUP3 ADD MSTORE PUSH1 0x24 DUP2 ADD DUP3 SWAP1 MSTORE PUSH1 0x44 ADD PUSH2 0x691 JUMP JUMPDEST PUSH1 0xA DUP1 SLOAD PUSH1 0x1 PUSH1 0x1 PUSH1 0xA0 SHL SUB DUP5 AND PUSH32 0xFFFFFFFFFFFFFFFFFFFF00000000000000000000000000000000000000000000 SWAP1 SWAP2 AND DUP2 OR PUSH1 0x1 PUSH1 0xA0 SHL PUSH2 0xFFFF DUP6 AND MUL OR SWAP1 SWAP2 SSTORE PUSH1 0x40 MLOAD DUP3 DUP2 MSTORE PUSH32 0x90D7EC04BCB8978719414F82E52E4CB651DB41D0E6F8CEA6118C2191E6183ADB SWAP1 PUSH1 0x20 ADD PUSH1 0x40 MLOAD DUP1 SWAP2 SUB SWAP1 LOG2 POP POP JUMP JUMPDEST PUSH1 0x40 DUP1 MLOAD PUSH1 0x60 DUP2 ADD DUP3 MSTORE PUSH0 DUP1 DUP3 MSTORE PUSH1 0x20 DUP3 ADD DUP2 SWAP1 MSTORE SWAP2 DUP2 ADD SWAP2 SWAP1 SWAP2 MSTORE DUP2 PUSH0 SLOAD DUP2 LT ISZERO PUSH2 0x1DB1 JUMPI PUSH0 DUP2 DUP2 MSTORE PUSH1 0x4 PUSH1 0x20 SWAP1 DUP2 MSTORE PUSH1 0x40 SWAP2 DUP3 SWAP1 KECCAK256 DUP3 MLOAD PUSH1 0x60 DUP2 ADD DUP5 MSTORE SWAP1 SLOAD PUSH1 0x1 PUSH1 0x1 PUSH1 0xA0 SHL SUB DUP2 AND DUP3 MSTORE PUSH1 0x1 PUSH1 0xA0 SHL DUP2 DIV PUSH8 0xFFFFFFFFFFFFFFFF AND SWAP3 DUP3 ADD SWAP3 SWAP1 SWAP3 MSTORE PUSH1 0x1 PUSH1 0xE0 SHL SWAP1 SWAP2 DIV PUSH1 0xFF AND ISZERO ISZERO SWAP2 DUP2 ADD DUP3 SWAP1 MSTORE SWAP1 PUSH2 0x1DAF JUMPI DUP1 MLOAD PUSH1 0x1 PUSH1 0x1 PUSH1 0xA0 SHL SUB AND ISZERO PUSH2 0x1D47 JUMPI SWAP4 SWAP3 POP POP POP JUMP JUMPDEST POP PUSH0 NOT ADD PUSH0 DUP2 DUP2 MSTORE PUSH1 0x4 PUSH1 0x20 SWAP1 DUP2 MSTORE PUSH1 0x40 SWAP2 DUP3 SWAP1 KECCAK256 DUP3 MLOAD PUSH1 0x60 DUP2 ADD DUP5 MSTORE SWAP1 SLOAD PUSH1 0x1 PUSH1 0x1 PUSH1 0xA0 SHL SUB DUP2 AND DUP1 DUP4 MSTORE PUSH1 0x1 PUSH1 0xA0 SHL DUP3 DIV PUSH8 0xFFFFFFFFFFFFFFFF AND SWAP4 DUP4 ADD SWAP4 SWAP1 SWAP4 MSTORE PUSH1 0x1 PUSH1 0xE0 SHL SWAP1 DIV PUSH1 0xFF AND ISZERO ISZERO SWAP3 DUP2 ADD SWAP3 SWAP1 SWAP3 MSTORE ISZERO PUSH2 0x1DAA JUMPI SWAP4 SWAP3 POP POP POP JUMP JUMPDEST PUSH2 0x1D47 JUMP JUMPDEST POP JUMPDEST PUSH1 0x40 MLOAD PUSH4 0x6F96CDA1 PUSH1 0xE1 SHL DUP2 MSTORE PUSH1 0x4 ADD PUSH1 0x40 MLOAD DUP1 SWAP2 SUB SWAP1 REVERT JUMPDEST PUSH0 DUP1 PUSH2 0x1DD6 DUP5 DUP7 PUSH2 0x2E16 JUMP JUMPDEST PUSH1 0xC DUP1 SLOAD PUSH1 0x1 DUP2 ADD SWAP1 SWAP2 SSTORE PUSH32 0xDF6966C971051C3D54EC59162606531493A51404A002842F56009D7E5CF4A8C7 ADD DUP2 SWAP1 SSTORE PUSH0 DUP2 DUP2 MSTORE PUSH1 0xD PUSH1 0x20 MSTORE PUSH1 0x40 SWAP1 KECCAK256 SWAP1 SWAP3 POP DUP3 SWAP2 POP PUSH2 0x1E23 DUP5 DUP3 PUSH2 0x2D56 JUMP JUMPDEST POP SWAP4 POP SWAP4 SWAP2 POP POP JUMP JUMPDEST PUSH0 PUSH1 0x8 DUP1 SLOAD PUSH2 0x1E3A SWAP1 PUSH2 0x2BD9 JUMP JUMPDEST DUP1 PUSH1 0x1F ADD PUSH1 0x20 DUP1 SWAP2 DIV MUL PUSH1 0x20 ADD PUSH1 0x40 MLOAD SWAP1 DUP2 ADD PUSH1 0x40 MSTORE DUP1 SWAP3 SWAP2 SWAP1 DUP2 DUP2 MSTORE PUSH1 0x20 ADD DUP3 DUP1 SLOAD PUSH2 0x1E66 SWAP1 PUSH2 0x2BD9 JUMP JUMPDEST DUP1 ISZERO PUSH2 0x1EB1 JUMPI DUP1 PUSH1 0x1F LT PUSH2 0x1E88 JUMPI PUSH2 0x100 DUP1 DUP4 SLOAD DIV MUL DUP4 MSTORE SWAP2 PUSH1 0x20 ADD SWAP2 PUSH2 0x1EB1 JUMP JUMPDEST DUP3 ADD SWAP2 SWAP1 PUSH0 MSTORE PUSH1 0x20 PUSH0 KECCAK256 SWAP1 JUMPDEST DUP2 SLOAD DUP2 MSTORE SWAP1 PUSH1 0x1 ADD SWAP1 PUSH1 0x20 ADD DUP1 DUP4 GT PUSH2 0x1E94 JUMPI DUP3 SWAP1 SUB PUSH1 0x1F AND DUP3 ADD SWAP2 JUMPDEST POP POP POP POP POP SWAP1 POP DUP2 PUSH1 0x8 SWAP1 DUP2 PUSH2 0x1EC7 SWAP2 SWAP1 PUSH2 0x2D56 JUMP JUMPDEST POP PUSH32 0xC9C7C3FE08B88B4DF9D4D47EF47D2C43D55C025A0BA88CA442580ED9E7348A16 DUP2 DUP4 PUSH1 0x40 MLOAD PUSH2 0x1EF9 SWAP3 SWAP2 SWAP1 PUSH2 0x2E29 JUMP JUMPDEST PUSH1 0x40 MLOAD DUP1 SWAP2 SUB SWAP1 LOG1 POP POP JUMP JUMPDEST PUSH2 0x2710 DUP2 GT ISZERO PUSH2 0x1F33 JUMPI PUSH1 0x40 MLOAD PUSH4 0xA4930AD PUSH1 0xE3 SHL DUP2 MSTORE PUSH2 0x2710 PUSH1 0x4 DUP3 ADD MSTORE PUSH1 0x24 DUP2 ADD DUP3 SWAP1 MSTORE PUSH1 0x44 ADD PUSH2 0x691 JUMP JUMPDEST PUSH1 0x40 DUP1 MLOAD DUP1 DUP3 ADD DUP3 MSTORE PUSH1 0x1 PUSH1 0x1 PUSH1 0xA0 SHL SUB DUP5 DUP2 AND DUP1 DUP4 MSTORE PUSH1 0x20 DUP1 DUP5 ADD DUP7 DUP2 MSTORE PUSH0 DUP10 DUP2 MSTORE PUSH1 0xB DUP4 MSTORE DUP7 SWAP1 KECCAK256 SWAP5 MLOAD DUP6 SLOAD PUSH20 0xFFFFFFFFFFFFFFFFFFFFFFFFFFFFFFFFFFFFFFFF NOT AND SWAP5 AND SWAP4 SWAP1 SWAP4 OR DUP5 SSTORE SWAP2 MLOAD PUSH1 0x1 SWAP1 SWAP4 ADD SWAP3 SWAP1 SWAP3 SSTORE SWAP2 MLOAD DUP4 DUP2 MSTORE SWAP1 SWAP2 DUP6 SWAP2 PUSH32 0x7365CF4122F072A3365C20D54EFF9B38D73C096C28E1892EC8F5B0E403A0F12D SWAP2 ADD PUSH1 0x40 MLOAD DUP1 SWAP2 SUB SWAP1 LOG3 POP POP POP JUMP JUMPDEST PUSH1 0x60 PUSH2 0xFFC DUP4 DUP4 PUSH1 0x40 MLOAD DUP1 PUSH1 0x60 ADD PUSH1 0x40 MSTORE DUP1 PUSH1 0x27 DUP2 MSTORE PUSH1 0x20 ADD PUSH2 0x2EEC PUSH1 0x27 SWAP2 CODECOPY PUSH2 0x2471 JUMP JUMPDEST PUSH1 0x40 MLOAD PUSH4 0xA85BD01 PUSH1 0xE1 SHL DUP2 MSTORE PUSH0 SWAP1 PUSH1 0x1 PUSH1 0x1 PUSH1 0xA0 SHL SUB DUP6 AND SWAP1 PUSH4 0x150B7A02 SWAP1 PUSH2 0x201D SWAP1 CALLER SWAP1 DUP10 SWAP1 DUP9 SWAP1 DUP9 SWAP1 PUSH1 0x4 ADD PUSH2 0x2E56 JUMP JUMPDEST PUSH1 0x20 PUSH1 0x40 MLOAD DUP1 DUP4 SUB DUP2 PUSH0 DUP8 GAS CALL SWAP3 POP POP POP DUP1 ISZERO PUSH2 0x2057 JUMPI POP PUSH1 0x40 DUP1 MLOAD PUSH1 0x1F RETURNDATASIZE SWAP1 DUP2 ADD PUSH1 0x1F NOT AND DUP3 ADD SWAP1 SWAP3 MSTORE PUSH2 0x2054 SWAP2 DUP2 ADD SWAP1 PUSH2 0x2E87 JUMP JUMPDEST PUSH1 0x1 JUMPDEST PUSH2 0x20B3 JUMPI RETURNDATASIZE DUP1 DUP1 ISZERO PUSH2 0x2084 JUMPI PUSH1 0x40 MLOAD SWAP2 POP PUSH1 0x1F NOT PUSH1 0x3F RETURNDATASIZE ADD AND DUP3 ADD PUSH1 0x40 MSTORE RETURNDATASIZE DUP3 MSTORE RETURNDATASIZE PUSH0 PUSH1 0x20 DUP5 ADD RETURNDATACOPY PUSH2 0x2089 JUMP JUMPDEST PUSH1 0x60 SWAP2 POP JUMPDEST POP DUP1 MLOAD PUSH0 SUB PUSH2 0x20AB JUMPI PUSH1 0x40 MLOAD PUSH4 0x68D2BF6B PUSH1 0xE1 SHL DUP2 MSTORE PUSH1 0x4 ADD PUSH1 0x40 MLOAD DUP1 SWAP2 SUB SWAP1 REVERT JUMPDEST DUP1 MLOAD DUP2 PUSH1 0x20 ADD REVERT JUMPDEST PUSH1 0x1 PUSH1 0x1 PUSH1 0xE0 SHL SUB NOT AND PUSH4 0xA85BD01 PUSH1 0xE1 SHL EQ SWAP1 POP SWAP5 SWAP4 POP POP POP POP JUMP JUMPDEST PUSH1 0x60 PUSH0 PUSH2 0x20DC PUSH1 0xC SLOAD SWAP1 JUMP JUMPDEST SWAP1 POP PUSH0 PUSH1 0xC DUP1 SLOAD DUP1 PUSH1 0x20 MUL PUSH1 0x20 ADD PUSH1 0x40 MLOAD SWAP1 DUP2 ADD PUSH1 0x40 MSTORE DUP1 SWAP3 SWAP2 SWAP1 DUP2 DUP2 MSTORE PUSH1 0x20 ADD DUP3 DUP1 SLOAD DUP1 ISZERO PUSH2 0x2129 JUMPI PUSH1 0x20 MUL DUP3 ADD SWAP2 SWAP1 PUSH0 MSTORE PUSH1 0x20 PUSH0 KECCAK256 SWAP1 JUMPDEST DUP2 SLOAD DUP2 MSTORE PUSH1 0x20 ADD SWAP1 PUSH1 0x1 ADD SWAP1 DUP1 DUP4 GT PUSH2 0x2115 JUMPI JUMPDEST POP POP POP POP POP SWAP1 POP PUSH0 JUMPDEST DUP3 DUP2 LT ISZERO PUSH2 0x2228 JUMPI DUP2 DUP2 DUP2 MLOAD DUP2 LT PUSH2 0x214C JUMPI PUSH2 0x214C PUSH2 0x2C11 JUMP JUMPDEST PUSH1 0x20 MUL PUSH1 0x20 ADD ADD MLOAD DUP6 LT ISZERO PUSH2 0x2216 JUMPI PUSH1 0xD PUSH0 DUP4 DUP4 DUP2 MLOAD DUP2 LT PUSH2 0x2170 JUMPI PUSH2 0x2170 PUSH2 0x2C11 JUMP JUMPDEST PUSH1 0x20 MUL PUSH1 0x20 ADD ADD MLOAD DUP2 MSTORE PUSH1 0x20 ADD SWAP1 DUP2 MSTORE PUSH1 0x20 ADD PUSH0 KECCAK256 DUP1 SLOAD PUSH2 0x2190 SWAP1 PUSH2 0x2BD9 JUMP JUMPDEST DUP1 PUSH1 0x1F ADD PUSH1 0x20 DUP1 SWAP2 DIV MUL PUSH1 0x20 ADD PUSH1 0x40 MLOAD SWAP1 DUP2 ADD PUSH1 0x40 MSTORE DUP1 SWAP3 SWAP2 SWAP1 DUP2 DUP2 MSTORE PUSH1 0x20 ADD DUP3 DUP1 SLOAD PUSH2 0x21BC SWAP1 PUSH2 0x2BD9 JUMP JUMPDEST DUP1 ISZERO PUSH2 0x2207 JUMPI DUP1 PUSH1 0x1F LT PUSH2 0x21DE JUMPI PUSH2 0x100 DUP1 DUP4 SLOAD DIV MUL DUP4 MSTORE SWAP2 PUSH1 0x20 ADD SWAP2 PUSH2 0x2207 JUMP JUMPDEST DUP3 ADD SWAP2 SWAP1 PUSH0 MSTORE PUSH1 0x20 PUSH0 KECCAK256 SWAP1 JUMPDEST DUP2 SLOAD DUP2 MSTORE SWAP1 PUSH1 0x1 ADD SWAP1 PUSH1 0x20 ADD DUP1 DUP4 GT PUSH2 0x21EA JUMPI DUP3 SWAP1 SUB PUSH1 0x1F AND DUP3 ADD SWAP2 JUMPDEST POP POP POP POP POP SWAP4 POP POP POP POP SWAP2 SWAP1 POP JUMP JUMPDEST PUSH2 0x2221 PUSH1 0x1 DUP3 PUSH2 0x2E16 JUMP JUMPDEST SWAP1 POP PUSH2 0x2132 JUMP JUMPDEST POP PUSH1 0x40 MLOAD PUSH4 0x9797F69 PUSH1 0xE2 SHL DUP2 MSTORE PUSH1 0x4 DUP2 ADD DUP6 SWAP1 MSTORE PUSH1 0x24 ADD PUSH2 0x691 JUMP JUMPDEST PUSH1 0x60 DUP2 PUSH0 SUB PUSH2 0x226B JUMPI POP POP PUSH1 0x40 DUP1 MLOAD DUP1 DUP3 ADD SWAP1 SWAP2 MSTORE PUSH1 0x1 DUP2 MSTORE PUSH1 0x3 PUSH1 0xFC SHL PUSH1 0x20 DUP3 ADD MSTORE SWAP1 JUMP JUMPDEST DUP2 PUSH0 JUMPDEST DUP2 ISZERO PUSH2 0x2294 JUMPI DUP1 PUSH2 0x227E DUP2 PUSH2 0x2EA2 JUMP JUMPDEST SWAP2 POP PUSH2 0x228D SWAP1 POP PUSH1 0xA DUP4 PUSH2 0x2C64 JUMP JUMPDEST SWAP2 POP PUSH2 0x226E JUMP JUMPDEST PUSH0 DUP2 PUSH8 0xFFFFFFFFFFFFFFFF DUP2 GT ISZERO PUSH2 0x22AE JUMPI PUSH2 0x22AE PUSH2 0x259D JUMP JUMPDEST PUSH1 0x40 MLOAD SWAP1 DUP1 DUP3 MSTORE DUP1 PUSH1 0x1F ADD PUSH1 0x1F NOT AND PUSH1 0x20 ADD DUP3 ADD PUSH1 0x40 MSTORE DUP1 ISZERO PUSH2 0x22D8 JUMPI PUSH1 0x20 DUP3 ADD DUP2 DUP1 CALLDATASIZE DUP4 CALLDATACOPY ADD SWAP1 POP JUMPDEST POP SWAP1 POP JUMPDEST DUP5 ISZERO PUSH2 0xAA4 JUMPI PUSH2 0x22ED PUSH1 0x1 DUP4 PUSH2 0x2EBA JUMP JUMPDEST SWAP2 POP PUSH2 0x22FA PUSH1 0xA DUP7 PUSH2 0x2ECD JUMP JUMPDEST PUSH2 0x2305 SWAP1 PUSH1 0x30 PUSH2 0x2E16 JUMP JUMPDEST PUSH1 0xF8 SHL DUP2 DUP4 DUP2 MLOAD DUP2 LT PUSH2 0x231A JUMPI PUSH2 0x231A PUSH2 0x2C11 JUMP JUMPDEST PUSH1 0x20 ADD ADD SWAP1 PUSH31 0xFFFFFFFFFFFFFFFFFFFFFFFFFFFFFFFFFFFFFFFFFFFFFFFFFFFFFFFFFFFFFF NOT AND SWAP1 DUP2 PUSH0 BYTE SWAP1 MSTORE8 POP PUSH2 0x2353 PUSH1 0xA DUP7 PUSH2 0x2C64 JUMP JUMPDEST SWAP5 POP PUSH2 0x22DC JUMP JUMPDEST PUSH1 0x10 SLOAD PUSH1 0xFF AND DUP1 ISZERO PUSH2 0x2374 JUMPI POP PUSH1 0x1 PUSH1 0x1 PUSH1 0xA0 SHL SUB DUP5 AND ISZERO ISZERO JUMPDEST DUP1 ISZERO PUSH2 0x2388 JUMPI POP PUSH1 0x1 PUSH1 0x1 PUSH1 0xA0 SHL SUB DUP4 AND ISZERO ISZERO JUMPDEST ISZERO PUSH2 0xCD9 JUMPI PUSH1 0x40 MLOAD PUSH3 0x461BCD PUSH1 0xE5 SHL DUP2 MSTORE PUSH1 0x20 PUSH1 0x4 DUP3 ADD MSTORE PUSH1 0x44 PUSH1 0x24 DUP3 ADD DUP2 SWAP1 MSTORE PUSH32 0x536572746966696B617420696E69206164616C6168204B726564656E7369616C SWAP1 DUP3 ADD MSTORE PUSH32 0x20536F756C626F756E642064616E20746964616B20626973612064697472616E PUSH1 0x64 DUP3 ADD MSTORE PUSH4 0x39B332B9 PUSH1 0xE1 SHL PUSH1 0x84 DUP3 ADD MSTORE PUSH1 0xA4 ADD PUSH2 0x691 JUMP JUMPDEST PUSH0 DUP3 DUP2 MSTORE PUSH1 0x6 PUSH1 0x20 MSTORE PUSH1 0x40 DUP1 DUP3 KECCAK256 DUP1 SLOAD PUSH20 0xFFFFFFFFFFFFFFFFFFFFFFFFFFFFFFFFFFFFFFFF NOT AND PUSH1 0x1 PUSH1 0x1 PUSH1 0xA0 SHL SUB DUP8 DUP2 AND SWAP2 DUP3 OR SWAP1 SWAP3 SSTORE SWAP2 MLOAD DUP6 SWAP4 SWAP2 DUP6 AND SWAP2 PUSH32 0x8C5BE1E5EBEC7D5BD14F71427D1E84F3DD0314C0F7B2291E5B200AC8C7C3B925 SWAP2 LOG4 POP POP POP JUMP JUMPDEST PUSH1 0x60 PUSH0 DUP1 DUP6 PUSH1 0x1 PUSH1 0x1 PUSH1 0xA0 SHL SUB AND DUP6 PUSH1 0x40 MLOAD PUSH2 0x248D SWAP2 SWAP1 PUSH2 0x2EE0 JUMP JUMPDEST PUSH0 PUSH1 0x40 MLOAD DUP1 DUP4 SUB DUP2 DUP6 GAS DELEGATECALL SWAP2 POP POP RETURNDATASIZE DUP1 PUSH0 DUP2 EQ PUSH2 0x24C5 JUMPI PUSH1 0x40 MLOAD SWAP2 POP PUSH1 0x1F NOT PUSH1 0x3F RETURNDATASIZE ADD AND DUP3 ADD PUSH1 0x40 MSTORE RETURNDATASIZE DUP3 MSTORE RETURNDATASIZE PUSH0 PUSH1 0x20 DUP5 ADD RETURNDATACOPY PUSH2 0x24CA JUMP JUMPDEST PUSH1 0x60 SWAP2 POP JUMPDEST POP SWAP2 POP SWAP2 POP PUSH2 0x24DB DUP7 DUP4 DUP4 DUP8 PUSH2 0x24E5 JUMP JUMPDEST SWAP7 SWAP6 POP POP POP POP POP POP JUMP JUMPDEST PUSH1 0x60 DUP4 ISZERO PUSH2 0x2553 JUMPI DUP3 MLOAD PUSH0 SUB PUSH2 0x254C JUMPI PUSH1 0x1 PUSH1 0x1 PUSH1 0xA0 SHL SUB DUP6 AND EXTCODESIZE PUSH2 0x254C JUMPI PUSH1 0x40 MLOAD PUSH3 0x461BCD PUSH1 0xE5 SHL DUP2 MSTORE PUSH1 0x20 PUSH1 0x4 DUP3 ADD MSTORE PUSH1 0x1D PUSH1 0x24 DUP3 ADD MSTORE PUSH32 0x416464726573733A2063616C6C20746F206E6F6E2D636F6E7472616374000000 PUSH1 0x44 DUP3 ADD MSTORE PUSH1 0x64 ADD PUSH2 0x691 JUMP JUMPDEST POP DUP2 PUSH2 0xAA4 JUMP JUMPDEST PUSH2 0xAA4 DUP4 DUP4 DUP2 MLOAD ISZERO PUSH2 0x2568 JUMPI DUP2 MLOAD DUP1 DUP4 PUSH1 0x20 ADD REVERT JUMPDEST DUP1 PUSH1 0x40 MLOAD PUSH3 0x461BCD PUSH1 0xE5 SHL DUP2 MSTORE PUSH1 0x4 ADD PUSH2 0x691 SWAP2 SWAP1 PUSH2 0x26F7 JUMP JUMPDEST DUP1 CALLDATALOAD PUSH1 0x1 PUSH1 0x1 PUSH1 0xA0 SHL SUB DUP2 AND DUP2 EQ PUSH2 0x2598 JUMPI PUSH0 DUP1 REVERT JUMPDEST SWAP2 SWAP1 POP JUMP JUMPDEST PUSH4 0x4E487B71 PUSH1 0xE0 SHL PUSH0 MSTORE PUSH1 0x41 PUSH1 0x4 MSTORE PUSH1 0x24 PUSH0 REVERT JUMPDEST PUSH1 0x40 MLOAD PUSH1 0x1F DUP3 ADD PUSH1 0x1F NOT AND DUP2 ADD PUSH8 0xFFFFFFFFFFFFFFFF DUP2 GT DUP3 DUP3 LT OR ISZERO PUSH2 0x25DA JUMPI PUSH2 0x25DA PUSH2 0x259D JUMP JUMPDEST PUSH1 0x40 MSTORE SWAP2 SWAP1 POP JUMP JUMPDEST PUSH0 DUP3 PUSH1 0x1F DUP4 ADD SLT PUSH2 0x25F1 JUMPI PUSH0 DUP1 REVERT JUMPDEST DUP2 CALLDATALOAD PUSH8 0xFFFFFFFFFFFFFFFF DUP2 GT ISZERO PUSH2 0x260B JUMPI PUSH2 0x260B PUSH2 0x259D JUMP JUMPDEST PUSH2 0x261E PUSH1 0x1F DUP3 ADD PUSH1 0x1F NOT AND PUSH1 0x20 ADD PUSH2 0x25B1 JUMP JUMPDEST DUP2 DUP2 MSTORE DUP5 PUSH1 0x20 DUP4 DUP7 ADD ADD GT ISZERO PUSH2 0x2632 JUMPI PUSH0 DUP1 REVERT JUMPDEST DUP2 PUSH1 0x20 DUP6 ADD PUSH1 0x20 DUP4 ADD CALLDATACOPY PUSH0 SWAP2 DUP2 ADD PUSH1 0x20 ADD SWAP2 SWAP1 SWAP2 MSTORE SWAP4 SWAP3 POP POP POP JUMP JUMPDEST PUSH0 DUP1 PUSH1 0x40 DUP4 DUP6 SUB SLT ISZERO PUSH2 0x265F JUMPI PUSH0 DUP1 REVERT JUMPDEST PUSH2 0x2668 DUP4 PUSH2 0x2582 JUMP JUMPDEST SWAP2 POP PUSH1 0x20 DUP4 ADD CALLDATALOAD PUSH8 0xFFFFFFFFFFFFFFFF DUP2 GT ISZERO PUSH2 0x2683 JUMPI PUSH0 DUP1 REVERT JUMPDEST PUSH2 0x268F DUP6 DUP3 DUP7 ADD PUSH2 0x25E2 JUMP JUMPDEST SWAP2 POP POP SWAP3 POP SWAP3 SWAP1 POP JUMP JUMPDEST PUSH1 0x1 PUSH1 0x1 PUSH1 0xE0 SHL SUB NOT DUP2 AND DUP2 EQ PUSH2 0x994 JUMPI PUSH0 DUP1 REVERT JUMPDEST PUSH0 PUSH1 0x20 DUP3 DUP5 SUB SLT ISZERO PUSH2 0x26BE JUMPI PUSH0 DUP1 REVERT JUMPDEST DUP2 CALLDATALOAD PUSH2 0xFFC DUP2 PUSH2 0x2699 JUMP JUMPDEST PUSH0 DUP2 MLOAD DUP1 DUP5 MSTORE DUP1 PUSH1 0x20 DUP5 ADD PUSH1 0x20 DUP7 ADD MCOPY PUSH0 PUSH1 0x20 DUP3 DUP7 ADD ADD MSTORE PUSH1 0x20 PUSH1 0x1F NOT PUSH1 0x1F DUP4 ADD AND DUP6 ADD ADD SWAP2 POP POP SWAP3 SWAP2 POP POP JUMP JUMPDEST PUSH1 0x20 DUP2 MSTORE PUSH0 PUSH2 0xFFC PUSH1 0x20 DUP4 ADD DUP5 PUSH2 0x26C9 JUMP JUMPDEST PUSH0 PUSH1 0x20 DUP3 DUP5 SUB SLT ISZERO PUSH2 0x2719 JUMPI PUSH0 DUP1 REVERT JUMPDEST POP CALLDATALOAD SWAP2 SWAP1 POP JUMP JUMPDEST PUSH0 DUP1 PUSH1 0x40 DUP4 DUP6 SUB SLT ISZERO PUSH2 0x2731 JUMPI PUSH0 DUP1 REVERT JUMPDEST PUSH2 0x273A DUP4 PUSH2 0x2582 JUMP JUMPDEST SWAP5 PUSH1 0x20 SWAP4 SWAP1 SWAP4 ADD CALLDATALOAD SWAP4 POP POP POP JUMP JUMPDEST PUSH0 PUSH1 0x20 DUP3 DUP5 SUB SLT ISZERO PUSH2 0x2758 JUMPI PUSH0 DUP1 REVERT JUMPDEST PUSH2 0xFFC DUP3 PUSH2 0x2582 JUMP JUMPDEST PUSH0 DUP1 PUSH0 PUSH1 0x60 DUP5 DUP7 SUB SLT ISZERO PUSH2 0x2773 JUMPI PUSH0 DUP1 REVERT JUMPDEST PUSH2 0x277C DUP5 PUSH2 0x2582 JUMP JUMPDEST SWAP3 POP PUSH2 0x278A PUSH1 0x20 DUP6 ADD PUSH2 0x2582 JUMP JUMPDEST SWAP2 POP PUSH1 0x40 DUP5 ADD CALLDATALOAD SWAP1 POP SWAP3 POP SWAP3 POP SWAP3 JUMP JUMPDEST PUSH0 DUP1 PUSH1 0x40 DUP4 DUP6 SUB SLT ISZERO PUSH2 0x27AB JUMPI PUSH0 DUP1 REVERT JUMPDEST POP POP DUP1 CALLDATALOAD SWAP3 PUSH1 0x20 SWAP1 SWAP2 ADD CALLDATALOAD SWAP2 POP JUMP JUMPDEST PUSH0 PUSH1 0x20 DUP1 DUP4 DUP6 SUB SLT ISZERO PUSH2 0x27CB JUMPI PUSH0 DUP1 REVERT JUMPDEST DUP3 CALLDATALOAD PUSH8 0xFFFFFFFFFFFFFFFF DUP1 DUP3 GT ISZERO PUSH2 0x27E2 JUMPI PUSH0 DUP1 REVERT JUMPDEST DUP2 DUP6 ADD SWAP2 POP DUP6 PUSH1 0x1F DUP4 ADD SLT PUSH2 0x27F5 JUMPI PUSH0 DUP1 REVERT JUMPDEST DUP2 CALLDATALOAD DUP2 DUP2 GT ISZERO PUSH2 0x2807 JUMPI PUSH2 0x2807 PUSH2 0x259D JUMP JUMPDEST DUP1 PUSH1 0x5 SHL SWAP2 POP PUSH2 0x2818 DUP5 DUP4 ADD PUSH2 0x25B1 JUMP JUMPDEST DUP2 DUP2 MSTORE SWAP2 DUP4 ADD DUP5 ADD SWAP2 DUP5 DUP2 ADD SWAP1 DUP9 DUP5 GT ISZERO PUSH2 0x2831 JUMPI PUSH0 DUP1 REVERT JUMPDEST SWAP4 DUP6 ADD SWAP4 JUMPDEST DUP4 DUP6 LT ISZERO PUSH2 0x284F JUMPI DUP5 CALLDATALOAD DUP3 MSTORE SWAP4 DUP6 ADD SWAP4 SWAP1 DUP6 ADD SWAP1 PUSH2 0x2836 JUMP JUMPDEST SWAP9 SWAP8 POP POP POP POP POP POP POP POP JUMP JUMPDEST PUSH1 0x20 DUP1 DUP3 MSTORE DUP3 MLOAD DUP3 DUP3 ADD DUP2 SWAP1 MSTORE PUSH0 SWAP2 SWAP1 DUP5 DUP3 ADD SWAP1 PUSH1 0x40 DUP6 ADD SWAP1 DUP5 JUMPDEST DUP2 DUP2 LT ISZERO PUSH2 0xE0D JUMPI PUSH2 0x28B2 DUP4 DUP6 MLOAD DUP1 MLOAD PUSH1 0x1 PUSH1 0x1 PUSH1 0xA0 SHL SUB AND DUP3 MSTORE PUSH1 0x20 DUP1 DUP3 ADD MLOAD PUSH8 0xFFFFFFFFFFFFFFFF AND SWAP1 DUP4 ADD MSTORE PUSH1 0x40 SWAP1 DUP2 ADD MLOAD ISZERO ISZERO SWAP2 ADD MSTORE JUMP JUMPDEST SWAP3 DUP5 ADD SWAP3 PUSH1 0x60 SWAP3 SWAP1 SWAP3 ADD SWAP2 PUSH1 0x1 ADD PUSH2 0x2876 JUMP JUMPDEST PUSH0 DUP1 PUSH0 DUP1 PUSH1 0x80 DUP6 DUP8 SUB SLT ISZERO PUSH2 0x28D8 JUMPI PUSH0 DUP1 REVERT JUMPDEST PUSH2 0x28E1 DUP6 PUSH2 0x2582 JUMP JUMPDEST SWAP4 POP PUSH1 0x20 DUP6 ADD CALLDATALOAD SWAP3 POP PUSH1 0x40 DUP6 ADD CALLDATALOAD PUSH8 0xFFFFFFFFFFFFFFFF DUP1 DUP3 GT ISZERO PUSH2 0x2904 JUMPI PUSH0 DUP1 REVERT JUMPDEST PUSH2 0x2910 DUP9 DUP4 DUP10 ADD PUSH2 0x25E2 JUMP JUMPDEST SWAP4 POP PUSH1 0x60 DUP8 ADD CALLDATALOAD SWAP2 POP DUP1 DUP3 GT ISZERO PUSH2 0x2925 JUMPI PUSH0 DUP1 REVERT JUMPDEST POP PUSH2 0x2932 DUP8 DUP3 DUP9 ADD PUSH2 0x25E2 JUMP JUMPDEST SWAP2 POP POP SWAP3 SWAP6 SWAP2 SWAP5 POP SWAP3 POP JUMP JUMPDEST PUSH1 0x20 DUP1 DUP3 MSTORE DUP3 MLOAD DUP3 DUP3 ADD DUP2 SWAP1 MSTORE PUSH0 SWAP2 SWAP1 DUP5 DUP3 ADD SWAP1 PUSH1 0x40 DUP6 ADD SWAP1 DUP5 JUMPDEST DUP2 DUP2 LT ISZERO PUSH2 0xE0D JUMPI DUP4 MLOAD DUP4 MSTORE SWAP3 DUP5 ADD SWAP3 SWAP2 DUP5 ADD SWAP2 PUSH1 0x1 ADD PUSH2 0x2959 JUMP JUMPDEST PUSH0 PUSH1 0x20 DUP3 DUP5 SUB SLT ISZERO PUSH2 0x2985 JUMPI PUSH0 DUP1 REVERT JUMPDEST DUP2 CALLDATALOAD PUSH8 0xFFFFFFFFFFFFFFFF DUP2 GT ISZERO PUSH2 0x299B JUMPI PUSH0 DUP1 REVERT JUMPDEST PUSH2 0xAA4 DUP5 DUP3 DUP6 ADD PUSH2 0x25E2 JUMP JUMPDEST PUSH0 DUP1 PUSH0 PUSH1 0x60 DUP5 DUP7 SUB SLT ISZERO PUSH2 0x29B9 JUMPI PUSH0 DUP1 REVERT JUMPDEST PUSH2 0x29C2 DUP5 PUSH2 0x2582 JUMP JUMPDEST SWAP6 PUSH1 0x20 DUP6 ADD CALLDATALOAD SWAP6 POP PUSH1 0x40 SWAP1 SWAP5 ADD CALLDATALOAD SWAP4 SWAP3 POP POP POP JUMP JUMPDEST PUSH0 DUP1 PUSH0 PUSH1 0x60 DUP5 DUP7 SUB SLT ISZERO PUSH2 0x29E9 JUMPI PUSH0 DUP1 REVERT JUMPDEST DUP4 CALLDATALOAD SWAP3 POP PUSH2 0x278A PUSH1 0x20 DUP6 ADD PUSH2 0x2582 JUMP JUMPDEST DUP1 CALLDATALOAD DUP1 ISZERO ISZERO DUP2 EQ PUSH2 0x2598 JUMPI PUSH0 DUP1 REVERT JUMPDEST PUSH0 DUP1 PUSH1 0x40 DUP4 DUP6 SUB SLT ISZERO PUSH2 0x2A19 JUMPI PUSH0 DUP1 REVERT JUMPDEST PUSH2 0x2A22 DUP4 PUSH2 0x2582 JUMP JUMPDEST SWAP2 POP PUSH2 0x2A30 PUSH1 0x20 DUP5 ADD PUSH2 0x29F9 JUMP JUMPDEST SWAP1 POP SWAP3 POP SWAP3 SWAP1 POP JUMP JUMPDEST PUSH0 DUP1 PUSH1 0x20 DUP4 DUP6 SUB SLT ISZERO PUSH2 0x2A4A JUMPI PUSH0 DUP1 REVERT JUMPDEST DUP3 CALLDATALOAD PUSH8 0xFFFFFFFFFFFFFFFF DUP1 DUP3 GT ISZERO PUSH2 0x2A61 JUMPI PUSH0 DUP1 REVERT JUMPDEST DUP2 DUP6 ADD SWAP2 POP DUP6 PUSH1 0x1F DUP4 ADD SLT PUSH2 0x2A74 JUMPI PUSH0 DUP1 REVERT JUMPDEST DUP2 CALLDATALOAD DUP2 DUP2 GT ISZERO PUSH2 0x2A82 JUMPI PUSH0 DUP1 REVERT JUMPDEST DUP7 PUSH1 0x20 DUP3 PUSH1 0x5 SHL DUP6 ADD ADD GT ISZERO PUSH2 0x2A96 JUMPI PUSH0 DUP1 REVERT JUMPDEST PUSH1 0x20 SWAP3 SWAP1 SWAP3 ADD SWAP7 SWAP2 SWAP6 POP SWAP1 SWAP4 POP POP POP POP JUMP JUMPDEST PUSH0 PUSH1 0x20 DUP1 DUP4 ADD PUSH1 0x20 DUP5 MSTORE DUP1 DUP6 MLOAD DUP1 DUP4 MSTORE PUSH1 0x40 DUP7 ADD SWAP2 POP PUSH1 0x40 DUP2 PUSH1 0x5 SHL DUP8 ADD ADD SWAP3 POP PUSH1 0x20 DUP8 ADD PUSH0 JUMPDEST DUP3 DUP2 LT ISZERO PUSH2 0x2AFD JUMPI PUSH1 0x3F NOT DUP9 DUP7 SUB ADD DUP5 MSTORE PUSH2 0x2AEB DUP6 DUP4 MLOAD PUSH2 0x26C9 JUMP JUMPDEST SWAP5 POP SWAP3 DUP6 ADD SWAP3 SWAP1 DUP6 ADD SWAP1 PUSH1 0x1 ADD PUSH2 0x2ACF JUMP JUMPDEST POP SWAP3 SWAP8 SWAP7 POP POP POP POP POP POP POP JUMP JUMPDEST PUSH0 DUP1 PUSH0 DUP1 PUSH1 0x80 DUP6 DUP8 SUB SLT ISZERO PUSH2 0x2B1D JUMPI PUSH0 DUP1 REVERT JUMPDEST PUSH2 0x2B26 DUP6 PUSH2 0x2582 JUMP JUMPDEST SWAP4 POP PUSH2 0x2B34 PUSH1 0x20 DUP7 ADD PUSH2 0x2582 JUMP JUMPDEST SWAP3 POP PUSH1 0x40 DUP6 ADD CALLDATALOAD SWAP2 POP PUSH1 0x60 DUP6 ADD CALLDATALOAD PUSH8 0xFFFFFFFFFFFFFFFF DUP2 GT ISZERO PUSH2 0x2B56 JUMPI PUSH0 DUP1 REVERT JUMPDEST PUSH2 0x2932 DUP8 DUP3 DUP9 ADD PUSH2 0x25E2 JUMP JUMPDEST DUP2 MLOAD PUSH1 0x1 PUSH1 0x1 PUSH1 0xA0 SHL SUB AND DUP2 MSTORE PUSH1 0x20 DUP1 DUP4 ADD MLOAD PUSH8 0xFFFFFFFFFFFFFFFF AND SWAP1 DUP3 ADD MSTORE PUSH1 0x40 DUP1 DUP4 ADD MLOAD ISZERO ISZERO SWAP1 DUP3 ADD MSTORE PUSH1 0x60 DUP2 ADD PUSH2 0x72F JUMP JUMPDEST PUSH0 PUSH1 0x20 DUP3 DUP5 SUB SLT ISZERO PUSH2 0x2BA8 JUMPI PUSH0 DUP1 REVERT JUMPDEST PUSH2 0xFFC DUP3 PUSH2 0x29F9 JUMP JUMPDEST PUSH0 DUP1 PUSH1 0x40 DUP4 DUP6 SUB SLT ISZERO PUSH2 0x2BC2 JUMPI PUSH0 DUP1 REVERT JUMPDEST PUSH2 0x2BCB DUP4 PUSH2 0x2582 JUMP JUMPDEST SWAP2 POP PUSH2 0x2A30 PUSH1 0x20 DUP5 ADD PUSH2 0x2582 JUMP JUMPDEST PUSH1 0x1 DUP2 DUP2 SHR SWAP1 DUP3 AND DUP1 PUSH2 0x2BED JUMPI PUSH1 0x7F DUP3 AND SWAP2 POP JUMPDEST PUSH1 0x20 DUP3 LT DUP2 SUB PUSH2 0x2C0B JUMPI PUSH4 0x4E487B71 PUSH1 0xE0 SHL PUSH0 MSTORE PUSH1 0x22 PUSH1 0x4 MSTORE PUSH1 0x24 PUSH0 REVERT JUMPDEST POP SWAP2 SWAP1 POP JUMP JUMPDEST PUSH4 0x4E487B71 PUSH1 0xE0 SHL PUSH0 MSTORE PUSH1 0x32 PUSH1 0x4 MSTORE PUSH1 0x24 PUSH0 REVERT JUMPDEST PUSH4 0x4E487B71 PUSH1 0xE0 SHL PUSH0 MSTORE PUSH1 0x11 PUSH1 0x4 MSTORE PUSH1 0x24 PUSH0 REVERT JUMPDEST DUP1 DUP3 MUL DUP2 ISZERO DUP3 DUP3 DIV DUP5 EQ OR PUSH2 0x72F JUMPI PUSH2 0x72F PUSH2 0x2C25 JUMP JUMPDEST PUSH4 0x4E487B71 PUSH1 0xE0 SHL PUSH0 MSTORE PUSH1 0x12 PUSH1 0x4 MSTORE PUSH1 0x24 PUSH0 REVERT JUMPDEST PUSH0 DUP3 PUSH2 0x2C72 JUMPI PUSH2 0x2C72 PUSH2 0x2C50 JUMP JUMPDEST POP DIV SWAP1 JUMP JUMPDEST PUSH0 DUP1 DUP4 CALLDATALOAD PUSH1 0x1E NOT DUP5 CALLDATASIZE SUB ADD DUP2 SLT PUSH2 0x2C8C JUMPI PUSH0 DUP1 REVERT JUMPDEST DUP4 ADD DUP1 CALLDATALOAD SWAP2 POP PUSH8 0xFFFFFFFFFFFFFFFF DUP3 GT ISZERO PUSH2 0x2CA6 JUMPI PUSH0 DUP1 REVERT JUMPDEST PUSH1 0x20 ADD SWAP2 POP CALLDATASIZE DUP2 SWAP1 SUB DUP3 SGT ISZERO PUSH2 0x2CBA JUMPI PUSH0 DUP1 REVERT JUMPDEST SWAP3 POP SWAP3 SWAP1 POP JUMP JUMPDEST DUP3 DUP5 DUP3 CALLDATACOPY PUSH1 0x60 SWAP2 SWAP1 SWAP2 SHL PUSH12 0xFFFFFFFFFFFFFFFFFFFFFFFF NOT AND SWAP2 ADD SWAP1 DUP2 MSTORE PUSH1 0x14 ADD SWAP2 SWAP1 POP JUMP JUMPDEST PUSH0 DUP2 MLOAD DUP1 PUSH1 0x20 DUP5 ADD DUP6 MCOPY PUSH0 SWAP4 ADD SWAP3 DUP4 MSTORE POP SWAP1 SWAP2 SWAP1 POP JUMP JUMPDEST PUSH0 PUSH2 0xAA4 PUSH2 0x2D0C DUP4 DUP7 PUSH2 0x2CE7 JUMP JUMPDEST DUP5 PUSH2 0x2CE7 JUMP JUMPDEST PUSH1 0x1F DUP3 GT ISZERO PUSH2 0x9A2 JUMPI DUP1 PUSH0 MSTORE PUSH1 0x20 PUSH0 KECCAK256 PUSH1 0x1F DUP5 ADD PUSH1 0x5 SHR DUP2 ADD PUSH1 0x20 DUP6 LT ISZERO PUSH2 0x2D37 JUMPI POP DUP1 JUMPDEST PUSH1 0x1F DUP5 ADD PUSH1 0x5 SHR DUP3 ADD SWAP2 POP JUMPDEST DUP2 DUP2 LT ISZERO PUSH2 0x1A08 JUMPI PUSH0 DUP2 SSTORE PUSH1 0x1 ADD PUSH2 0x2D43 JUMP JUMPDEST DUP2 MLOAD PUSH8 0xFFFFFFFFFFFFFFFF DUP2 GT ISZERO PUSH2 0x2D70 JUMPI PUSH2 0x2D70 PUSH2 0x259D JUMP JUMPDEST PUSH2 0x2D84 DUP2 PUSH2 0x2D7E DUP5 SLOAD PUSH2 0x2BD9 JUMP JUMPDEST DUP5 PUSH2 0x2D12 JUMP JUMPDEST PUSH1 0x20 DUP1 PUSH1 0x1F DUP4 GT PUSH1 0x1 DUP2 EQ PUSH2 0x2DB7 JUMPI PUSH0 DUP5 ISZERO PUSH2 0x2DA0 JUMPI POP DUP6 DUP4 ADD MLOAD JUMPDEST PUSH0 NOT PUSH1 0x3 DUP7 SWAP1 SHL SHR NOT AND PUSH1 0x1 DUP6 SWAP1 SHL OR DUP6 SSTORE PUSH2 0x2E0E JUMP JUMPDEST PUSH0 DUP6 DUP2 MSTORE PUSH1 0x20 DUP2 KECCAK256 PUSH1 0x1F NOT DUP7 AND SWAP2 JUMPDEST DUP3 DUP2 LT ISZERO PUSH2 0x2DE5 JUMPI DUP9 DUP7 ADD MLOAD DUP3 SSTORE SWAP5 DUP5 ADD SWAP5 PUSH1 0x1 SWAP1 SWAP2 ADD SWAP1 DUP5 ADD PUSH2 0x2DC6 JUMP JUMPDEST POP DUP6 DUP3 LT ISZERO PUSH2 0x2E02 JUMPI DUP8 DUP6 ADD MLOAD PUSH0 NOT PUSH1 0x3 DUP9 SWAP1 SHL PUSH1 0xF8 AND SHR NOT AND DUP2 SSTORE JUMPDEST POP POP PUSH1 0x1 DUP5 PUSH1 0x1 SHL ADD DUP6 SSTORE JUMPDEST POP POP POP POP POP POP JUMP JUMPDEST DUP1 DUP3 ADD DUP1 DUP3 GT ISZERO PUSH2 0x72F JUMPI PUSH2 0x72F PUSH2 0x2C25 JUMP JUMPDEST PUSH1 0x40 DUP2 MSTORE PUSH0 PUSH2 0x2E3B PUSH1 0x40 DUP4 ADD DUP6 PUSH2 0x26C9 JUMP JUMPDEST DUP3 DUP2 SUB PUSH1 0x20 DUP5 ADD MSTORE PUSH2 0x2E4D DUP2 DUP6 PUSH2 0x26C9 JUMP JUMPDEST SWAP6 SWAP5 POP POP POP POP POP JUMP JUMPDEST PUSH0 PUSH1 0x1 PUSH1 0x1 PUSH1 0xA0 SHL SUB DUP1 DUP8 AND DUP4 MSTORE DUP1 DUP7 AND PUSH1 0x20 DUP5 ADD MSTORE POP DUP4 PUSH1 0x40 DUP4 ADD MSTORE PUSH1 0x80 PUSH1 0x60 DUP4 ADD MSTORE PUSH2 0x24DB PUSH1 0x80 DUP4 ADD DUP5 PUSH2 0x26C9 JUMP JUMPDEST PUSH0 PUSH1 0x20 DUP3 DUP5 SUB SLT ISZERO PUSH2 0x2E97 JUMPI PUSH0 DUP1 REVERT JUMPDEST DUP2 MLOAD PUSH2 0xFFC DUP2 PUSH2 0x2699 JUMP JUMPDEST PUSH0 PUSH1 0x1 DUP3 ADD PUSH2 0x2EB3 JUMPI PUSH2 0x2EB3 PUSH2 0x2C25 JUMP JUMPDEST POP PUSH1 0x1 ADD SWAP1 JUMP JUMPDEST DUP2 DUP2 SUB DUP2 DUP2 GT ISZERO PUSH2 0x72F JUMPI PUSH2 0x72F PUSH2 0x2C25 JUMP JUMPDEST PUSH0 DUP3 PUSH2 0x2EDB JUMPI PUSH2 0x2EDB PUSH2 0x2C50 JUMP JUMPDEST POP MOD SWAP1 JUMP JUMPDEST PUSH0 PUSH2 0xFFC DUP3 DUP5 PUSH2 0x2CE7 JUMP INVALID COINBASE PUSH5 0x6472657373 GASPRICE KECCAK256 PUSH13 0x6F772D6C6576656C2064656C65 PUSH8 0x6174652063616C6C KECCAK256 PUSH7 0x61696C6564A264 PUSH10 0x70667358221220C18073 SWAP6 0xDB CALL 0xAD DUP14 0x4D SUB NOT PUSH9 0x8FFE85BF9B02CD0CC2 DUP12 DUP11 0xC DUP6 AND 0xAE DELEGATECALL 0xCC RETURN DUP1 LOG4 PUSH5 0x736F6C6343 STOP ADDMOD NOT STOP CALLER "
    },
    "gasEstimates": {
      "creation": {
        "codeDepositCost": "2420800",
        "executionCost": "infinite",
        "totalCost": "infinite"
      },
      "external": {
        "adminBurn(uint256)": "infinite",
        "approve(address,uint256)": "516",
        "balanceOf(address)": "2682",
        "batchFrozen(uint256)": "2526",
        "batchMintTo(address,uint256,string,bytes)": "infinite",
        "burn(uint256)": "infinite",
        "contractURI()": "infinite",
        "explicitOwnershipOf(uint256)": "infinite",
        "explicitOwnershipsOf(uint256[])": "infinite",
        "getApproved(uint256)": "6975",
        "getBaseURICount()": "2360",
        "getBatchIdAtIndex(uint256)": "6779",
        "getDefaultRoyaltyInfo()": "2453",
        "getRoyaltyInfoForToken(uint256)": "6978",
        "isApprovedForAll(address,address)": "infinite",
        "isApprovedOrOwner(address,uint256)": "infinite",
        "mintCertificate(address,string)": "infinite",
        "mintTo(address,string)": "infinite",
        "multicall(bytes[])": "infinite",
        "name()": "infinite",
        "nextTokenIdToMint()": "2358",
        "owner()": "2398",
        "ownerOf(uint256)": "infinite",
        "royaltyInfo(uint256,uint256)": "7238",
        "safeTransferFrom(address,address,uint256)": "infinite",
        "safeTransferFrom(address,address,uint256,bytes)": "infinite",
        "setApprovalForAll(address,bool)": "infinite",
        "setContractURI(string)": "infinite",
        "setDefaultRoyaltyInfo(address,uint256)": "28408",
        "setOwner(address)": "28415",
        "setRoyaltyInfoForToken(uint256,address,uint256)": "51086",
        "setSoulbound(bool)": "26733",
        "soulbound()": "2389",
        "supportsInterface(bytes4)": "654",
        "symbol()": "infinite",
        "tokenURI(uint256)": "infinite",
        "tokensOfOwner(address)": "infinite",
        "tokensOfOwnerIn(address,uint256,uint256)": "infinite",
        "totalSupply()": "4475",
        "transferFrom(address,address,uint256)": "infinite"
      },
      "internal": {
        "_beforeTokenTransfers(address,address,uint256,uint256)": "infinite"
      }
    },
    "methodIdentifiers": {
      "adminBurn(uint256)": "badb97ff",
      "approve(address,uint256)": "095ea7b3",
      "balanceOf(address)": "70a08231",
      "batchFrozen(uint256)": "83040532",
      "batchMintTo(address,uint256,string,bytes)": "754a81d9",
      "burn(uint256)": "42966c68",
      "contractURI()": "e8a3d485",
      "explicitOwnershipOf(uint256)": "c23dc68f",
      "explicitOwnershipsOf(uint256[])": "5bbb2177",
      "getApproved(uint256)": "081812fc",
      "getBaseURICount()": "63b45e2d",
      "getBatchIdAtIndex(uint256)": "2419f51b",
      "getDefaultRoyaltyInfo()": "b24f2d39",
      "getRoyaltyInfoForToken(uint256)": "4cc157df",
      "isApprovedForAll(address,address)": "e985e9c5",
      "isApprovedOrOwner(address,uint256)": "430c2081",
      "mintCertificate(address,string)": "0712249f",
      "mintTo(address,string)": "0075a317",
      "multicall(bytes[])": "ac9650d8",
      "name()": "06fdde03",
      "nextTokenIdToMint()": "3b1475a7",
      "owner()": "8da5cb5b",
      "ownerOf(uint256)": "6352211e",
      "royaltyInfo(uint256,uint256)": "2a55205a",
      "safeTransferFrom(address,address,uint256)": "42842e0e",
      "safeTransferFrom(address,address,uint256,bytes)": "b88d4fde",
      "setApprovalForAll(address,bool)": "a22cb465",
      "setContractURI(string)": "938e3d7b",
      "setDefaultRoyaltyInfo(address,uint256)": "600dd5ea",
      "setOwner(address)": "13af4035",
      "setRoyaltyInfoForToken(uint256,address,uint256)": "9bcf7a15",
      "setSoulbound(bool)": "df30e54b",
      "soulbound()": "0fad0f51",
      "supportsInterface(bytes4)": "01ffc9a7",
      "symbol()": "95d89b41",
      "tokenURI(uint256)": "c87b56dd",
      "tokensOfOwner(address)": "8462151c",
      "tokensOfOwnerIn(address,uint256,uint256)": "99a2557a",
      "totalSupply()": "18160ddd",
      "transferFrom(address,address,uint256)": "23b872dd"
    }
  },
  "storageLayout": {
    "storage": [
      {
        "astId": 2067,
        "contract": "SertifikatDigital.sol:SertifikatDigital",
        "label": "_currentIndex",
        "offset": 0,
        "slot": "0",
        "type": "t_uint256"
      },
      {
        "astId": 2069,
        "contract": "SertifikatDigital.sol:SertifikatDigital",
        "label": "_burnCounter",
        "offset": 0,
        "slot": "1",
        "type": "t_uint256"
      },
      {
        "astId": 2071,
        "contract": "SertifikatDigital.sol:SertifikatDigital",
        "label": "_name",
        "offset": 0,
        "slot": "2",
        "type": "t_string_storage"
      },
      {
        "astId": 2073,
        "contract": "SertifikatDigital.sol:SertifikatDigital",
        "label": "_symbol",
        "offset": 0,
        "slot": "3",
        "type": "t_string_storage"
      },
      {
        "astId": 2078,
        "contract": "SertifikatDigital.sol:SertifikatDigital",
        "label": "_ownerships",
        "offset": 0,
        "slot": "4",
        "type": "t_mapping(t_uint256,t_struct(TokenOwnership)4002_storage)"
      },
      {
        "astId": 2083,
        "contract": "SertifikatDigital.sol:SertifikatDigital",
        "label": "_addressData",
        "offset": 0,
        "slot": "5",
        "type": "t_mapping(t_address,t_struct(AddressData)4011_storage)"
      },
      {
        "astId": 2087,
        "contract": "SertifikatDigital.sol:SertifikatDigital",
        "label": "_tokenApprovals",
        "offset": 0,
        "slot": "6",
        "type": "t_mapping(t_uint256,t_address)"
      },
      {
        "astId": 2093,
        "contract": "SertifikatDigital.sol:SertifikatDigital",
        "label": "_operatorApprovals",
        "offset": 0,
        "slot": "7",
        "type": "t_mapping(t_address,t_mapping(t_address,t_bool))"
      },
      {
        "astId": 1286,
        "contract": "SertifikatDigital.sol:SertifikatDigital",
        "label": "contractURI",
        "offset": 0,
        "slot": "8",
        "type": "t_string_storage"
      },
      {
        "astId": 1448,
        "contract": "SertifikatDigital.sol:SertifikatDigital",
        "label": "_owner",
        "offset": 0,
        "slot": "9",
        "type": "t_address"
      },
      {
        "astId": 1543,
        "contract": "SertifikatDigital.sol:SertifikatDigital",
        "label": "royaltyRecipient",
        "offset": 0,
        "slot": "10",
        "type": "t_address"
      },
      {
        "astId": 1546,
        "contract": "SertifikatDigital.sol:SertifikatDigital",
        "label": "royaltyBps",
        "offset": 20,
        "slot": "10",
        "type": "t_uint16"
      },
      {
        "astId": 1552,
        "contract": "SertifikatDigital.sol:SertifikatDigital",
        "label": "royaltyInfoForToken",
        "offset": 0,
        "slot": "11",
        "type": "t_mapping(t_uint256,t_struct(RoyaltyInfo)3870_storage)"
      },
      {
        "astId": 947,
        "contract": "SertifikatDigital.sol:SertifikatDigital",
        "label": "batchIds",
        "offset": 0,
        "slot": "12",
        "type": "t_array(t_uint256)dyn_storage"
      },
      {
        "astId": 952,
        "contract": "SertifikatDigital.sol:SertifikatDigital",
        "label": "baseURI",
        "offset": 0,
        "slot": "13",
        "type": "t_mapping(t_uint256,t_string_storage)"
      },
      {
        "astId": 957,
        "contract": "SertifikatDigital.sol:SertifikatDigital",
        "label": "batchFrozen",
        "offset": 0,
        "slot": "14",
        "type": "t_mapping(t_uint256,t_bool)"
      },
      {
        "astId": 235,
        "contract": "SertifikatDigital.sol:SertifikatDigital",
        "label": "fullURI",
        "offset": 0,
        "slot": "15",
        "type": "t_mapping(t_uint256,t_string_storage)"
      },
      {
        "astId": 7,
        "contract": "SertifikatDigital.sol:SertifikatDigital",
        "label": "soulbound",
        "offset": 0,
        "slot": "16",
        "type": "t_bool"
      }
    ],
    "types": {
      "t_address": {
        "encoding": "inplace",
        "label": "address",
        "numberOfBytes": "20"
      },
      "t_array(t_uint256)dyn_storage": {
        "base": "t_uint256",
        "encoding": "dynamic_array",
        "label": "uint256[]",
        "numberOfBytes": "32"
      },
      "t_bool": {
        "encoding": "inplace",
        "label": "bool",
        "numberOfBytes": "1"
      },
      "t_mapping(t_address,t_bool)": {
        "encoding": "mapping",
        "key": "t_address",
        "label": "mapping(address => bool)",
        "numberOfBytes": "32",
        "value": "t_bool"
      },
      "t_mapping(t_address,t_mapping(t_address,t_bool))": {
        "encoding": "mapping",
        "key": "t_address",
        "label": "mapping(address => mapping(address => bool))",
        "numberOfBytes": "32",
        "value": "t_mapping(t_address,t_bool)"
      },
      "t_mapping(t_address,t_struct(AddressData)4011_storage)": {
        "encoding": "mapping",
        "key": "t_address",
        "label": "mapping(address => struct IERC721A.AddressData)",
        "numberOfBytes": "32",
        "value": "t_struct(AddressData)4011_storage"
      },
      "t_mapping(t_uint256,t_address)": {
        "encoding": "mapping",
        "key": "t_uint256",
        "label": "mapping(uint256 => address)",
        "numberOfBytes": "32",
        "value": "t_address"
      },
      "t_mapping(t_uint256,t_bool)": {
        "encoding": "mapping",
        "key": "t_uint256",
        "label": "mapping(uint256 => bool)",
        "numberOfBytes": "32",
        "value": "t_bool"
      },
      "t_mapping(t_uint256,t_string_storage)": {
        "encoding": "mapping",
        "key": "t_uint256",
        "label": "mapping(uint256 => string)",
        "numberOfBytes": "32",
        "value": "t_string_storage"
      },
      "t_mapping(t_uint256,t_struct(RoyaltyInfo)3870_storage)": {
        "encoding": "mapping",
        "key": "t_uint256",
        "label": "mapping(uint256 => struct IRoyalty.RoyaltyInfo)",
        "numberOfBytes": "32",
        "value": "t_struct(RoyaltyInfo)3870_storage"
      },
      "t_mapping(t_uint256,t_struct(TokenOwnership)4002_storage)": {
        "encoding": "mapping",
        "key": "t_uint256",
        "label": "mapping(uint256 => struct IERC721A.TokenOwnership)",
        "numberOfBytes": "32",
        "value": "t_struct(TokenOwnership)4002_storage"
      },
      "t_string_storage": {
        "encoding": "bytes",
        "label": "string",
        "numberOfBytes": "32"
      },
      "t_struct(AddressData)4011_storage": {
        "encoding": "inplace",
        "label": "struct IERC721A.AddressData",
        "members": [
          {
            "astId": 4004,
            "contract": "SertifikatDigital.sol:SertifikatDigital",
            "label": "balance",
            "offset": 0,
            "slot": "0",
            "type": "t_uint64"
          },
          {
            "astId": 4006,
            "contract": "SertifikatDigital.sol:SertifikatDigital",
            "label": "numberMinted",
            "offset": 8,
            "slot": "0",
            "type": "t_uint64"
          },
          {
            "astId": 4008,
            "contract": "SertifikatDigital.sol:SertifikatDigital",
            "label": "numberBurned",
            "offset": 16,
            "slot": "0",
            "type": "t_uint64"
          },
          {
            "astId": 4010,
            "contract": "SertifikatDigital.sol:SertifikatDigital",
            "label": "aux",
            "offset": 24,
            "slot": "0",
            "type": "t_uint64"
          }
        ],
        "numberOfBytes": "32"
      },
      "t_struct(RoyaltyInfo)3870_storage": {
        "encoding": "inplace",
        "label": "struct IRoyalty.RoyaltyInfo",
        "members": [
          {
            "astId": 3867,
            "contract": "SertifikatDigital.sol:SertifikatDigital",
            "label": "recipient",
            "offset": 0,
            "slot": "0",
            "type": "t_address"
          },
          {
            "astId": 3869,
            "contract": "SertifikatDigital.sol:SertifikatDigital",
            "label": "bps",
            "offset": 0,
            "slot": "1",
            "type": "t_uint256"
          }
        ],
        "numberOfBytes": "64"
      },
      "t_struct(TokenOwnership)4002_storage": {
        "encoding": "inplace",
        "label": "struct IERC721A.TokenOwnership",
        "members": [
          {
            "astId": 3997,
            "contract": "SertifikatDigital.sol:SertifikatDigital",
            "label": "addr",
            "offset": 0,
            "slot": "0",
            "type": "t_address"
          },
          {
            "astId": 3999,
            "contract": "SertifikatDigital.sol:SertifikatDigital",
            "label": "startTimestamp",
            "offset": 20,
            "slot": "0",
            "type": "t_uint64"
          },
          {
            "astId": 4001,
            "contract": "SertifikatDigital.sol:SertifikatDigital",
            "label": "burned",
            "offset": 28,
            "slot": "0",
            "type": "t_bool"
          }
        ],
        "numberOfBytes": "32"
      },
      "t_uint16": {
        "encoding": "inplace",
        "label": "uint16",
        "numberOfBytes": "2"
      },
      "t_uint256": {
        "encoding": "inplace",
        "label": "uint256",
        "numberOfBytes": "32"
      },
      "t_uint64": {
        "encoding": "inplace",
        "label": "uint64",
        "numberOfBytes": "8"
      }
    }
  },
  "userdoc": {
    "errors": {
      "ApprovalCallerNotOwnerNorApproved()": [
        {
          "notice": "The caller must own the token or be an approved operator."
        }
      ],
      "ApprovalQueryForNonexistentToken()": [
        {
          "notice": "The token does not exist."
        }
      ],
      "ApprovalToCurrentOwner()": [
        {
          "notice": "The caller cannot approve to the current owner."
        }
      ],
      "ApproveToCaller()": [
        {
          "notice": "The caller cannot approve to their own address."
        }
      ],
      "BalanceQueryForZeroAddress()": [
        {
          "notice": "Cannot query the balance for the zero address."
        }
      ],
      "InvalidQueryRange()": [
        {
          "notice": "Invalid query range (`start` >= `stop`)."
        }
      ],
      "MintToZeroAddress()": [
        {
          "notice": "Cannot mint to the zero address."
        }
      ],
      "MintZeroQuantity()": [
        {
          "notice": "The quantity of tokens minted must be more than zero."
        }
      ],
      "OwnerQueryForNonexistentToken()": [
        {
          "notice": "The token does not exist."
        }
      ],
      "TransferCallerNotOwnerNorApproved()": [
        {
          "notice": "The caller must own the token or be an approved operator."
        }
      ],
      "TransferFromIncorrectOwner()": [
        {
          "notice": "The token must be owned by `from`."
        }
      ],
      "TransferToNonERC721ReceiverImplementer()": [
        {
          "notice": "Cannot safely transfer to a contract that does not implement the ERC721Receiver interface."
        }
      ],
      "TransferToZeroAddress()": [
        {
          "notice": "Cannot transfer to the zero address."
        }
      ],
      "URIQueryForNonexistentToken()": [
        {
          "notice": "The token does not exist."
        }
      ]
    },
    "events": {
      "BatchMetadataUpdate(uint256,uint256)": {
        "notice": "So that the third-party platforms such as NFT market could timely update the images and related attributes of the NFTs."
      }
    },
    "kind": "user",
    "methods": {
      "batchMintTo(address,uint256,string,bytes)": {
        "notice": "Lets an authorized address mint multiple NFTs at once to a recipient."
      },
      "burn(uint256)": {
        "notice": "Lets an owner or approved operator burn the NFT of the given tokenId."
      },
      "contractURI()": {
        "notice": "Returns the contract metadata URI."
      },
      "getBaseURICount()": {
        "notice": "Returns the count of batches of NFTs."
      },
      "getBatchIdAtIndex(uint256)": {
        "notice": "Returns the ID for the batch of tokens at the given index."
      },
      "getDefaultRoyaltyInfo()": {
        "notice": "Returns the defualt royalty recipient and BPS for this contract's NFTs."
      },
      "getRoyaltyInfoForToken(uint256)": {
        "notice": "View royalty info for a given token."
      },
      "isApprovedOrOwner(address,uint256)": {
        "notice": "Returns whether a given address is the owner, or approved to transfer an NFT."
      },
      "mintTo(address,string)": {
        "notice": "Lets an authorized address mint an NFT to a recipient."
      },
      "multicall(bytes[])": {
        "notice": "Receives and executes a batch of function calls on this contract."
      },
      "nextTokenIdToMint()": {
        "notice": "The tokenId assigned to the next new NFT to be minted."
      },
      "owner()": {
        "notice": "Returns the owner of the contract."
      },
      "royaltyInfo(uint256,uint256)": {
        "notice": "View royalty info for a given token and sale price."
      },
      "setContractURI(string)": {
        "notice": "Lets a contract admin set the URI for contract-level metadata."
      },
      "setDefaultRoyaltyInfo(address,uint256)": {
        "notice": "Updates default royalty recipient and bps."
      },
      "setOwner(address)": {
        "notice": "Lets an authorized wallet set a new owner for the contract."
      },
      "setRoyaltyInfoForToken(uint256,address,uint256)": {
        "notice": "Updates default royalty recipient and bps for a particular token."
      },
      "tokenURI(uint256)": {
        "notice": "Returns the metadata URI for an NFT."
      }
    },
    "version": 1
  }
}