{
  "_format": "hh-sol-artifact-1",
  "contractName": "SertifikatDigital",
  "sourceName": "contracts/SertifikatDigital.sol",
  "abi": [
    {
      "inputs": [
        {
          "internalType": "address",
          "name": "_defaultAdmin",
          "type": "address"
        },
        {
          "internalType": "string",
          "name": "_name",
          "type": "string"
        },
        {
          "internalType": "string",
          "name": "_symbol",
          "type": "string"
        },
        {
          "internalType": "address",
          "name": "_royaltyRecipient",
          "type": "address"
        },
        {
          "internalType": "uint128",
          "name": "_royaltyBps",
          "type": "uint128"
        }
      ],
      "stateMutability": "nonpayable",
      "type": "constructor"
    },
    {
      "inputs": [],
      "name": "ApprovalCallerNotOwnerNorApproved",
      "type": "error"
    },
    {
      "inputs": [],
      "name": "ApprovalQueryForNonexistentToken",
      "type": "error"
    },
    {
      "inputs": [],
      "name": "ApprovalToCurrentOwner",
      "type": "error"
    },
    {
      "inputs": [],
      "name": "ApproveToCaller",
      "type": "error"
    },
    {
      "inputs": [],
      "name": "BalanceQueryForZeroAddress",
      "type": "error"
    },
    {
      "inputs": [
        {
          "internalType": "uint256",
          "name": "index",
          "type": "uint256"
        }
      ],
      "name": "BatchMintInvalidBatchId",
      "type": "error"
    },
    {
      "inputs": [
        {
          "internalType": "uint256",
          "name": "tokenId",
          "type": "uint256"
        }
      ],
      "name": "BatchMintInvalidTokenId",
      "type": "error"
    },
    {
      "inputs": [
        {
          "internalType": "uint256",
          "name": "batchId",
          "type": "uint256"
        }
      ],
      "name": "BatchMintMetadataFrozen",
      "type": "error"
    },
    {
      "inputs": [],
      "name": "ContractMetadataUnauthorized",
      "type": "error"
    },
    {
      "inputs": [],
      "name": "InvalidQueryRange",
      "type": "error"
    },
    {
      "inputs": [],
      "name": "MintToZeroAddress",
      "type": "error"
    },
    {
      "inputs": [],
      "name": "MintZeroQuantity",
      "type": "error"
    },
    {
      "inputs": [],
      "name": "OwnableUnauthorized",
      "type": "error"
    },
    {
      "inputs": [],
      "name": "OwnerQueryForNonexistentToken",
      "type": "error"
    },
    {
      "inputs": [
        {
          "internalType": "uint256",
          "name": "max",
          "type": "uint256"
        },
        {
          "internalType": "uint256",
          "name": "actual",
          "type": "uint256"
        }
      ],
      "name": "RoyaltyExceededMaxFeeBps",
      "type": "error"
    },
    {
      "inputs": [
        {
          "internalType": "address",
          "name": "recipient",
          "type": "address"
        }
      ],
      "name": "RoyaltyInvalidRecipient",
      "type": "error"
    },
    {
      "inputs": [],
      "name": "RoyaltyUnauthorized",
      "type": "error"
    },
    {
      "inputs": [],
      "name": "TransferCallerNotOwnerNorApproved",
      "type": "error"
    },
    {
      "inputs": [],
      "name": "TransferFromIncorrectOwner",
      "type": "error"
    },
    {
      "inputs": [],
      "name": "TransferToNonERC721ReceiverImplementer",
      "type": "error"
    },
    {
      "inputs": [],
      "name": "TransferToZeroAddress",
      "type": "error"
    },
    {
      "inputs": [],
      "name": "URIQueryForNonexistentToken",
      "type": "error"
    },
    {
      "anonymous": false,
      "inputs": [
        {
          "indexed": true,
          "internalType": "address",
          "name": "owner",
          "type": "address"
        },
        {
          "indexed": true,
          "internalType": "address",
          "name": "approved",
          "type": "address"
        },
        {
          "indexed": true,
          "internalType": "uint256",
          "name": "tokenId",
          "type": "uint256"
        }
      ],
      "name": "Approval",
      "type": "event"
    },
    {
      "anonymous": false,
      "inputs": [
        {
          "indexed": true,
          "internalType": "address",
          "name": "owner",
          "type": "address"
        },
        {
          "indexed": true,
          "internalType": "address",
          "name": "operator",
          "type": "address"
        },
        {
          "indexed": false,
          "internalType": "bool",
          "name": "approved",
          "type": "bool"
        }
      ],
      "name": "ApprovalForAll",
      "type": "event"
    },
    {
      "anonymous": false,
      "inputs": [
        {
          "indexed": false,
          "internalType": "uint256",
          "name": "_fromTokenId",
          "type": "uint256"
        },
        {
          "indexed": false,
          "internalType": "uint256",
          "name": "_toTokenId",
          "type": "uint256"
        }
      ],
      "name": "BatchMetadataUpdate",
      "type": "event"
    },
    {
      "anonymous": false,
      "inputs": [
        {
          "indexed": false,
          "internalType": "string",
          "name": "prevURI",
          "type": "string"
        },
        {
          "indexed": false,
          "internalType": "string",
          "name": "newURI",
          "type": "string"
        }
      ],
      "name": "ContractURIUpdated",
      "type": "event"
    },
    {
      "anonymous": false,
      "inputs": [
        {
          "indexed": true,
          "internalType": "address",
          "name": "newRoyaltyRecipient",
          "type": "address"
        },
        {
          "indexed": false,
          "internalType": "uint256",
          "name": "newRoyaltyBps",
          "type": "uint256"
        }
      ],
      "name": "DefaultRoyalty",
      "type": "event"
    },
    {
      "anonymous": false,
      "inputs": [],
      "name": "MetadataFrozen",
      "type": "event"
    },
    {
      "anonymous": false,
      "inputs": [
        {
          "indexed": true,
          "internalType": "address",
          "name": "prevOwner",
          "type": "address"
        },
        {
          "indexed": true,
          "internalType": "address",
          "name": "newOwner",
          "type": "address"
        }
      ],
      "name": "OwnerUpdated",
      "type": "event"
    },
    {
      "anonymous": false,
      "inputs": [
        {
          "indexed": true,
          "internalType": "uint256",
          "name": "tokenId",
          "type": "uint256"
        },
        {
          "indexed": true,
          "internalType": "address",
          "name": "royaltyRecipient",
          "type": "address"
        },
        {
          "indexed": false,
          "internalType": "uint256",
          "name": "royaltyBps",
          "type": "uint256"
        }
      ],
      "name": "RoyaltyForToken",
      "type": "event"
    },
    {
      "anonymous": false,
      "inputs": [
        {
          "indexed": true,
          "internalType": "address",
          "name": "from",
          "type": "address"
        },
        {
          "indexed": true,
          "internalType": "address",
          "name": "to",
          "type": "address"
        },
        {
          "indexed": true,
          "internalType": "uint256",
          "name": "tokenId",
          "type": "uint256"
        }
      ],
      "name": "Transfer",
      "type": "event"
    },
    {
      "inputs": [
        {
          "internalType": "uint256",
          "name": "tokenId",
          "type": "uint256"
        }
      ],
      "name": "adminBurn",
      "outputs": [],
      "stateMutability": "nonpayable",
      "type": "function"
    },
    {
      "inputs": [
        {
          "internalType": "address",
          "name": "",
          "type": "address"
        },
        {
          "internalType": "uint256",
          "name": "",
          "type": "uint256"
        }
      ],
      "name": "approve",
      "outputs": [],
      "stateMutability": "nonpayable",
      "type": "function"
    },
    {
      "inputs": [
        {
          "internalType": "address",
          "name": "owner",
          "type": "address"
        }
      ],
      "name": "balanceOf",
      "outputs": [
        {
          "internalType": "uint256",
          "name": "",
          "type": "uint256"
        }
      ],
      "stateMutability": "view",
      "type": "function"
    },
    {
      "inputs": [
        {
          "internalType": "uint256",
          "name": "",
          "type": "uint256"
        }
      ],
      "name": "batchFrozen",
      "outputs": [
        {
          "internalType": "bool",
          "name": "",
          "type": "bool"
        }
      ],
      "stateMutability": "view",
      "type": "function"
    },
    {
      "inputs": [
        {
          "internalType": "address",
          "name": "_to",
          "type": "address"
        },
        {
          "internalType": "uint256",
          "name": "_quantity",
          "type": "uint256"
        },
        {
          "internalType": "string",
          "name": "_baseURI",
          "type": "string"
        },
        {
          "internalType": "bytes",
          "name": "_data",
          "type": "bytes"
        }
      ],
      "name": "batchMintTo",
      "outputs": [],
      "stateMutability": "nonpayable",
      "type": "function"
    },
    {
      "inputs": [
        {
          "internalType": "uint256",
          "name": "_tokenId",
          "type": "uint256"
        }
      ],
      "name": "burn",
      "outputs": [],
      "stateMutability": "nonpayable",
      "type": "function"
    },
    {
      "inputs": [],
      "name": "contractURI",
      "outputs": [
        {
          "internalType": "string",
          "name": "",
          "type": "string"
        }
      ],
      "stateMutability": "view",
      "type": "function"
    },
    {
      "inputs": [
        {
          "internalType": "uint256",
          "name": "tokenId",
          "type": "uint256"
        }
      ],
      "name": "explicitOwnershipOf",
      "outputs": [
        {
          "components": [
            {
              "internalType": "address",
              "name": "addr",
              "type": "address"
            },
            {
              "internalType": "uint64",
              "name": "startTimestamp",
              "type": "uint64"
            },
            {
              "internalType": "bool",
              "name": "burned",
              "type": "bool"
            }
          ],
          "internalType": "struct IERC721A.TokenOwnership",
          "name": "",
          "type": "tuple"
        }
      ],
      "stateMutability": "view",
      "type": "function"
    },
    {
      "inputs": [
        {
          "internalType": "uint256[]",
          "name": "tokenIds",
          "type": "uint256[]"
        }
      ],
      "name": "explicitOwnershipsOf",
      "outputs": [
        {
          "components": [
            {
              "internalType": "address",
              "name": "addr",
              "type": "address"
            },
            {
              "internalType": "uint64",
              "name": "startTimestamp",
              "type": "uint64"
            },
            {
              "internalType": "bool",
              "name": "burned",
              "type": "bool"
            }
          ],
          "internalType": "struct IERC721A.TokenOwnership[]",
          "name": "",
          "type": "tuple[]"
        }
      ],
      "stateMutability": "view",
      "type": "function"
    },
    {
      "inputs": [
        {
          "internalType": "uint256",
          "name": "tokenId",
          "type": "uint256"
        }
      ],
      "name": "getApproved",
      "outputs": [
        {
          "internalType": "address",
          "name": "",
          "type": "address"
        }
      ],
      "stateMutability": "view",
      "type": "function"
    },
    {
      "inputs": [],
      "name": "getBaseURICount",
      "outputs": [
        {
          "internalType": "uint256",
          "name": "",
          "type": "uint256"
        }
      ],
      "stateMutability": "view",
      "type": "function"
    },
    {
      "inputs": [
        {
          "internalType": "uint256",
          "name": "_index",
          "type": "uint256"
        }
      ],
      "name": "getBatchIdAtIndex",
      "outputs": [
        {
          "internalType": "uint256",
          "name": "",
          "type": "uint256"
        }
      ],
      "stateMutability": "view",
      "type": "function"
    },
    {
      "inputs": [],
      "name": "getDefaultRoyaltyInfo",
      "outputs": [
        {
          "internalType": "address",
          "name": "",
          "type": "address"
        },
        {
          "internalType": "uint16",
          "name": "",
          "type": "uint16"
        }
      ],
      "stateMutability": "view",
      "type": "function"
    },
    {
      "inputs": [
        {
          "internalType": "uint256",
          "name": "_tokenId",
          "type": "uint256"
        }
      ],
      "name": "getRoyaltyInfoForToken",
      "outputs": [
        {
          "internalType": "address",
          "name": "",
          "type": "address"
        },
        {
          "internalType": "uint16",
          "name": "",
          "type": "uint16"
        }
      ],
      "stateMutability": "view",
      "type": "function"
    },
    {
      "inputs": [
        {
          "internalType": "address",
          "name": "",
          "type": "address"
        },
        {
          "internalType": "address",
          "name": "",
          "type": "address"
        }
      ],
      "name": "isApprovedForAll",
      "outputs": [
        {
          "internalType": "bool",
          "name": "",
          "type": "bool"
        }
      ],
      "stateMutability": "view",
      "type": "function"
    },
    {
      "inputs": [
        {
          "internalType": "address",
          "name": "_operator",
          "type": "address"
        },
        {
          "internalType": "uint256",
          "name": "_tokenId",
          "type": "uint256"
        }
      ],
      "name": "isApprovedOrOwner",
      "outputs": [
        {
          "internalType": "bool",
          "name": "isApprovedOrOwnerOf",
          "type": "bool"
        }
      ],
      "stateMutability": "view",
      "type": "function"
    },
    {
      "inputs": [
        {
          "internalType": "address",
          "name": "recipient",
          "type": "address"
        },
        {
          "internalType": "string",
          "name": "tokenUri",
          "type": "string"
        }
      ],
      "name": "mintCertificate",
      "outputs": [],
      "stateMutability": "nonpayable",
      "type": "function"
    },
    {
      "inputs": [
        {
          "internalType": "address",
          "name": "_to",
          "type": "address"
        },
        {
          "internalType": "string",
          "name": "_tokenURI",
          "type": "string"
        }
      ],
      "name": "mintTo",
      "outputs": [],
      "stateMutability": "nonpayable",
      "type": "function"
    },
    {
      "inputs": [
        {
          "internalType": "bytes[]",
          "name": "data",
          "type": "bytes[]"
        }
      ],
      "name": "multicall",
      "outputs": [
        {
          "internalType": "bytes[]",
          "name": "results",
          "type": "bytes[]"
        }
      ],
      "stateMutability": "nonpayable",
      "type": "function"
    },
    {
      "inputs": [],
      "name": "name",
      "outputs": [
        {
          "internalType": "string",
          "name": "",
          "type": "string"
        }
      ],
      "stateMutability": "view",
      "type": "function"
    },
    {
      "inputs": [],
      "name": "nextTokenIdToMint",
      "outputs": [
        {
          "internalType": "uint256",
          "name": "",
          "type": "uint256"
        }
      ],
      "stateMutability": "view",
      "type": "function"
    },
    {
      "inputs": [],
      "name": "owner",
      "outputs": [
        {
          "internalType": "address",
          "name": "",
          "type": "address"
        }
      ],
      "stateMutability": "view",
      "type": "function"
    },
    {
      "inputs": [
        {
          "internalType": "uint256",
          "name": "tokenId",
          "type": "uint256"
        }
      ],
      "name": "ownerOf",
      "outputs": [
        {
          "internalType": "address",
          "name": "",
          "type": "address"
        }
      ],
      "stateMutability": "view",
      "type": "function"
    },
    {
      "inputs": [
        {
          "internalType": "uint256",
          "name": "tokenId",
          "type": "uint256"
        },
        {
          "internalType": "uint256",
          "name": "salePrice",
          "type": "uint256"
        }
      ],
      "name": "royaltyInfo",
      "outputs": [
        {
          "internalType": "address",
          "name": "receiver",
          "type": "address"
        },
        {
          "internalType": "uint256",
          "name": "royaltyAmount",
          "type": "uint256"
        }
      ],
      "stateMutability": "view",
      "type": "function"
    },
    {
      "inputs": [
        {
          "internalType": "address",
          "name": "from",
          "type": "address"
        },
        {
          "internalType": "address",
          "name": "to",
          "type": "address"
        },
        {
          "internalType": "uint256",
          "name": "tokenId",
          "type": "uint256"
        }
      ],
      "name": "safeTransferFrom",
      "outputs": [],
      "stateMutability": "nonpayable",
      "type": "function"
    },
    {
      "inputs": [
        {
          "internalType": "address",
          "name": "from",
          "type": "address"
        },
        {
          "internalType": "address",
          "name": "to",
          "type": "address"
        },
        {
          "internalType": "uint256",
          "name": "tokenId",
          "type": "uint256"
        },
        {
          "internalType": "bytes",
          "name": "_data",
          "type": "bytes"
        }
      ],
      "name": "safeTransferFrom",
      "outputs": [],
      "stateMutability": "nonpayable",
      "type": "function"
    },
    {
      "inputs": [
        {
          "internalType": "address",
          "name": "",
          "type": "address"
        },
        {
          "internalType": "bool",
          "name": "",
          "type": "bool"
        }
      ],
      "name": "setApprovalForAll",
      "outputs": [],
      "stateMutability": "nonpayable",
      "type": "function"
    },
    {
      "inputs": [
        {
          "internalType": "string",
          "name": "_uri",
          "type": "string"
        }
      ],
      "name": "setContractURI",
      "outputs": [],
      "stateMutability": "nonpayable",
      "type": "function"
    },
    {
      "inputs": [
        {
          "internalType": "address",
          "name": "_royaltyRecipient",
          "type": "address"
        },
        {
          "internalType": "uint256",
          "name": "_royaltyBps",
          "type": "uint256"
        }
      ],
      "name": "setDefaultRoyaltyInfo",
      "outputs": [],
      "stateMutability": "nonpayable",
      "type": "function"
    },
    {
      "inputs": [
        {
          "internalType": "address",
          "name": "_newOwner",
          "type": "address"
        }
      ],
      "name": "setOwner",
      "outputs": [],
      "stateMutability": "nonpayable",
      "type": "function"
    },
    {
      "inputs": [
        {
          "internalType": "uint256",
          "name": "_tokenId",
          "type": "uint256"
        },
        {
          "internalType": "address",
          "name": "_recipient",
          "type": "address"
        },
        {
          "internalType": "uint256",
          "name": "_bps",
          "type": "uint256"
        }
      ],
      "name": "setRoyaltyInfoForToken",
      "outputs": [],
      "stateMutability": "nonpayable",
      "type": "function"
    },
    {
      "inputs": [],
      "name": "soulbound",
      "outputs": [
        {
          "internalType": "bool",
          "name": "",
          "type": "bool"
        }
      ],
      "stateMutability": "view",
      "type": "function"
    },
    {
      "inputs": [
        {
          "internalType": "bytes4",
          "name": "interfaceId",
          "type": "bytes4"
        }
      ],
      "name": "supportsInterface",
      "outputs": [
        {
          "internalType": "bool",
          "name": "",
          "type": "bool"
        }
      ],
      "stateMutability": "view",
      "type": "function"
    },
    {
      "inputs": [],
      "name": "symbol",
      "outputs": [
        {
          "internalType": "string",
          "name": "",
          "type": "string"
        }
      ],
      "stateMutability": "view",
      "type": "function"
    },
    {
      "inputs": [
        {
          "internalType": "uint256",
          "name": "_tokenId",
          "type": "uint256"
        }
      ],
      "name": "tokenURI",
      "outputs": [
        {
          "internalType": "string",
          "name": "",
          "type": "string"
        }
      ],
      "stateMutability": "view",
      "type": "function"
    },
    {
      "inputs": [
        {
          "internalType": "address",
          "name": "owner",
          "type": "address"
        }
      ],
      "name": "tokensOfOwner",
      "outputs": [
        {
          "internalType": "uint256[]",
          "name": "",
          "type": "uint256[]"
        }
      ],
      "stateMutability": "view",
      "type": "function"
    },
    {
      "inputs": [
        {
          "internalType": "address",
          "name": "owner",
          "type": "address"
        },
        {
          "internalType": "uint256",
          "name": "start",
          "type": "uint256"
        },
        {
          "internalType": "uint256",
          "name": "stop",
          "type": "uint256"
        }
      ],
      "name": "tokensOfOwnerIn",
      "outputs": [
        {
          "internalType": "uint256[]",
          "name": "",
          "type": "uint256[]"
        }
      ],
      "stateMutability": "view",
      "type": "function"
    },
    {
      "inputs": [],
      "name": "totalSupply",
      "outputs": [
        {
          "internalType": "uint256",
          "name": "",
          "type": "uint256"
        }
      ],
      "stateMutability": "view",
      "type": "function"
    },
    {
      "inputs": [
        {
          "internalType": "address",
          "name": "from",
          "type": "address"
        },
        {
          "internalType": "address",
          "name": "to",
          "type": "address"
        },
        {
          "internalType": "uint256",
          "name": "tokenId",
          "type": "uint256"
        }
      ],
      "name": "transferFrom",
      "outputs": [],
      "stateMutability": "nonpayable",
      "type": "function"
    }
  ],
  "bytecode": "0x60806040526010805460ff191660011790553480156200001e57600080fd5b50604051620032e9380380620032e9833981016040819052620000419162000265565b848484848483836002620000568382620003a7565b506003620000658282620003a7565b5050600080555062000077856200009c565b6200008c826001600160801b038316620000ee565b5050505050505050505062000473565b600980546001600160a01b038381166001600160a01b0319831681179093556040519116919082907f8292fce18fa69edf4db7b94ea2e58241df0ae57f97e0a6c9b29067028bf92d7690600090a35050565b6127108111156200012157604051630a4930ad60e31b815261271060048201526024810182905260440160405180910390fd5b600a80546001600160a01b0384166001600160b01b03199091168117600160a01b61ffff851602179091556040518281527f90d7ec04bcb8978719414f82e52e4cb651db41d0e6f8cea6118c2191e6183adb9060200160405180910390a25050565b80516001600160a01b03811681146200019b57600080fd5b919050565b634e487b7160e01b600052604160045260246000fd5b600082601f830112620001c857600080fd5b81516001600160401b0380821115620001e557620001e5620001a0565b604051601f8301601f19908116603f01168101908282118183101715620002105762000210620001a0565b816040528381526020925086838588010111156200022d57600080fd5b600091505b8382101562000251578582018301518183018401529082019062000232565b600093810190920192909252949350505050565b600080600080600060a086880312156200027e57600080fd5b620002898662000183565b60208701519095506001600160401b0380821115620002a757600080fd5b620002b589838a01620001b6565b95506040880151915080821115620002cc57600080fd5b50620002db88828901620001b6565b935050620002ec6060870162000183565b60808701519092506001600160801b03811681146200030a57600080fd5b809150509295509295909350565b600181811c908216806200032d57607f821691505b6020821081036200034e57634e487b7160e01b600052602260045260246000fd5b50919050565b601f821115620003a257600081815260208120601f850160051c810160208610156200037d5750805b601f850160051c820191505b818110156200039e5782815560010162000389565b5050505b505050565b81516001600160401b03811115620003c357620003c3620001a0565b620003db81620003d4845462000318565b8462000354565b602080601f831160018114620004135760008415620003fa5750858301515b600019600386901b1c1916600185901b1785556200039e565b600085815260208120601f198616915b82811015620004445788860151825594840194600190910190840162000423565b5085821015620004635787850151600019600388901b60f8161c191681555b5050505050600190811b01905550565b612e6680620004836000396000f3fe608060405234801561001057600080fd5b506004361061023c5760003560e01c80636352211e1161013b5780639bcf7a15116100b8578063badb97ff1161007c578063badb97ff14610555578063c23dc68f14610568578063c87b56dd14610588578063e8a3d4851461059b578063e985e9c5146105a357600080fd5b80639bcf7a15146104de578063a22cb465146104f1578063ac9650d814610504578063b24f2d3914610524578063b88d4fde1461054257600080fd5b80638462151c116100ff5780638462151c1461047f5780638da5cb5b1461049f578063938e3d7b146104b057806395d89b41146104c357806399a2557a146104cb57600080fd5b80636352211e1461041b57806363b45e2d1461042e57806370a0823114610436578063754a81d914610449578063830405321461045c57600080fd5b806323b872dd116101c957806342966c681161018d57806342966c681461038d578063430c2081146103a05780634cc157df146103b35780635bbb2177146103e8578063600dd5ea1461040857600080fd5b806323b872dd1461031a5780632419f51b1461032d5780632a55205a146103405780633b1475a71461037257806342842e0e1461037a57600080fd5b8063081812fc11610210578063081812fc146102a6578063095ea7b3146102d15780630fad0f51146102e457806313af4035146102f157806318160ddd1461030457600080fd5b806275a3171461024157806301ffc9a71461025657806306fdde031461027e5780630712249f14610293575b600080fd5b61025461024f3660046124e2565b6105b9565b005b610269610264366004612545565b61063d565b60405190151581526020015b60405180910390f35b6102866106aa565b60405161027591906125b2565b6102546102a13660046124e2565b61073c565b6102b96102b43660046125c5565b610826565b6040516001600160a01b039091168152602001610275565b6102546102df3660046125de565b61086a565b6010546102699060ff1681565b6102546102ff366004612608565b6108d8565b600154600054035b604051908152602001610275565b610254610328366004612623565b610909565b61030c61033b3660046125c5565b610919565b61035361034e36600461265f565b61096b565b604080516001600160a01b039093168352602083019190915201610275565b60005461030c565b610254610388366004612623565b6109a8565b61025461039b3660046125c5565b6109c3565b6102696103ae3660046125de565b6109ce565b6103c66103c13660046125c5565b610a26565b604080516001600160a01b03909316835261ffff909116602083015201610275565b6103fb6103f6366004612681565b610a91565b6040516102759190612726565b6102546104163660046125de565b610b57565b6102b96104293660046125c5565b610b86565b600c5461030c565b61030c610444366004612608565b610b98565b610254610457366004612790565b610be6565b61026961046a3660046125c5565b600e6020526000908152604090205460ff1681565b61049261048d366004612608565b610c5a565b604051610275919061280d565b6009546001600160a01b03166102b9565b6102546104be366004612845565b610d9f565b610286610dcd565b6104926104d9366004612879565b610ddc565b6102546104ec3660046128ac565b610f8f565b6102546104ff3660046128d1565b610fbf565b61051761051236600461290d565b61101d565b6040516102759190612981565b600a546001600160a01b03811690600160a01b900461ffff166103c6565b6102546105503660046129e3565b61118c565b6102546105633660046125c5565b6111d0565b61057b6105763660046125c5565b611226565b6040516102759190612a3e565b6102866105963660046125c5565b6112d4565b6102866113c2565b6102696105b1366004612a73565b600092915050565b6105c1611450565b61060c5760405162461bcd60e51b81526020600482015260176024820152762737ba1030baba3437b934bd32b2103a379036b4b73a1760491b60448201526064015b60405180910390fd5b61061e61061860005490565b8261147d565b610639826001604051806020016040528060008152506114ef565b5050565b60006301ffc9a760e01b6001600160e01b03198316148061066e57506380ac58cd60e01b6001600160e01b03198316145b806106895750635b5e139f60e01b6001600160e01b03198316145b806106a457506001600160e01b0319821663152a902d60e11b145b92915050565b6060600280546106b990612aa6565b80601f01602080910402602001604051908101604052809291908181526020018280546106e590612aa6565b80156107325780601f1061070757610100808354040283529160200191610732565b820191906000526020600020905b81548152906001019060200180831161071557829003601f168201915b5050505050905090565b6009546001600160a01b031633146107875760405162461bcd60e51b815260206004820152600e60248201526d139bdd08185d5d1a1bdc9a5e995960921b6044820152606401610603565b6001600160a01b0382166107d55760405162461bcd60e51b8152602060048201526015602482015274149958da5c1a595b9d081d1a59185ac81d985b1a59605a1b6044820152606401610603565b600081511161060c5760405162461bcd60e51b815260206004820152601c60248201527f546f6b656e2055524920746964616b20626f6c6568206b6f736f6e67000000006044820152606401610603565b60006108318261169f565b61084e576040516333d1c03960e21b815260040160405180910390fd5b506000908152600660205260409020546001600160a01b031690565b60405162461bcd60e51b815260206004820152603760248201527f536572746966696b617420536f756c626f756e643a2046756e6773692070657260448201527f736574756a75616e2064696e6f6e616b7469666b616e210000000000000000006064820152608401610603565b6108e0611450565b6108fd576040516316ccb9cb60e11b815260040160405180910390fd5b610906816116ca565b50565b61091483838361171c565b505050565b6000610924600c5490565b821061094657604051630793127760e11b815260048101839052602401610603565b600c828154811061095957610959612ae0565b90600052602060002001549050919050565b60008060008061097a86610a26565b90945084925061ffff1690506127106109938287612b0c565b61099d9190612b39565b925050509250929050565b6109148383836040518060200160405280600081525061118c565b610906816001611904565b6000806109da83610b86565b9050806001600160a01b0316846001600160a01b031614806109fa575060005b80610a1e5750836001600160a01b0316610a1384610826565b6001600160a01b0316145b949350505050565b6000818152600b60209081526040808320815180830190925280546001600160a01b031680835260019091015492820192909252829115610a6d5780516020820151610a87565b600a546001600160a01b03811690600160a01b900461ffff165b9250925050915091565b80516060906000816001600160401b03811115610ab057610ab061242d565b604051908082528060200260200182016040528015610afb57816020015b6040805160608101825260008082526020808301829052928201528252600019909201910181610ace5790505b50905060005b828114610b4f57610b2a858281518110610b1d57610b1d612ae0565b6020026020010151611226565b828281518110610b3c57610b3c612ae0565b6020908102919091010152600101610b01565b509392505050565b610b5f611450565b610b7c57604051636fae358160e11b815260040160405180910390fd5b6106398282611ac5565b6000610b9182611b55565b5192915050565b60006001600160a01b038216610bc1576040516323d3ad8160e21b815260040160405180910390fd5b506001600160a01b03166000908152600560205260409020546001600160401b031690565b610bee611450565b610c345760405162461bcd60e51b81526020600482015260176024820152762737ba1030baba3437b934bd32b2103a379036b4b73a1760491b6044820152606401610603565b610c47610c4060005490565b8484611c6f565b5050610c548484836114ef565b50505050565b60606000806000610c6a85610b98565b90506000816001600160401b03811115610c8657610c8661242d565b604051908082528060200260200182016040528015610caf578160200160208202803683370190505b509050610cd5604080516060810182526000808252602082018190529181019190915290565b60005b838614610d9357600081815260046020908152604091829020825160608101845290546001600160a01b0381168252600160a01b81046001600160401b031692820192909252600160e01b90910460ff1615159181018290529250610d8b5781516001600160a01b031615610d4c57815194505b876001600160a01b0316856001600160a01b031603610d8b5780838780600101985081518110610d7e57610d7e612ae0565b6020026020010181815250505b600101610cd8565b50909695505050505050565b610da7611450565b610dc457604051639f7f092560e01b815260040160405180910390fd5b61090681611cd3565b6060600380546106b990612aa6565b6060818310610dfe57604051631960ccad60e11b815260040160405180910390fd5b6000805480841115610e0e578093505b6000610e1987610b98565b905084861015610e385785850381811015610e32578091505b50610e3c565b5060005b6000816001600160401b03811115610e5657610e5661242d565b604051908082528060200260200182016040528015610e7f578160200160208202803683370190505b50905081600003610e95579350610f8892505050565b6000610ea088611226565b905060008160400151610eb1575080515b885b888114158015610ec35750848714155b15610f7c57600081815260046020908152604091829020825160608101845290546001600160a01b0381168252600160a01b81046001600160401b031692820192909252600160e01b90910460ff1615159181018290529350610f745782516001600160a01b031615610f3557825191505b8a6001600160a01b0316826001600160a01b031603610f745780848880600101995081518110610f6757610f67612ae0565b6020026020010181815250505b600101610eb3565b50505092835250909150505b9392505050565b610f97611450565b610fb457604051636fae358160e11b815260040160405180910390fd5b610914838383611daf565b60405162461bcd60e51b815260206004820152602d60248201527f536572746966696b617420536f756c626f756e643a2044656c6567617369206460448201526c696e6f6e616b7469666b616e2160981b6064820152608401610603565b6060816001600160401b038111156110375761103761242d565b60405190808252806020026020018201604052801561106a57816020015b60608152602001906001900390816110555790505b509050336000805b848110156111835781156110f1576110cf3087878481811061109657611096612ae0565b90506020028101906110a89190612b4d565b866040516020016110bb93929190612b9a565b604051602081830303815290604052611e62565b8482815181106110e1576110e1612ae0565b6020026020010181905250611171565b6111533087878481811061110757611107612ae0565b90506020028101906111199190612b4d565b8080601f016020809104026020016040519081016040528093929190818152602001838380828437600092019190915250611e6292505050565b84828151811061116557611165612ae0565b60200260200101819052505b8061117b81612bc0565b915050611072565b50505092915050565b61119784848461171c565b6001600160a01b0383163b15610c54576111b384848484611e87565b610c54576040516368d2bf6b60e11b815260040160405180910390fd5b6009546001600160a01b0316331461121b5760405162461bcd60e51b815260206004820152600e60248201526d139bdd08185d5d1a1bdc9a5e995960921b6044820152606401610603565b610906816000611904565b604080516060808201835260008083526020808401829052838501829052845192830185528183528201819052928101839052909150600054831061126b5792915050565b50600082815260046020908152604091829020825160608101845290546001600160a01b0381168252600160a01b81046001600160401b031692820192909252600160e01b90910460ff1615801592820192909252906112cb5792915050565b610f8883611b55565b6000818152600f60205260408120805460609291906112f290612aa6565b80601f016020809104026020016040519081016040528092919081815260200182805461131e90612aa6565b801561136b5780601f106113405761010080835404028352916020019161136b565b820191906000526020600020905b81548152906001019060200180831161134e57829003601f168201915b505050505090506000815111156113825792915050565b600061138d84611f72565b905080611399856120f0565b6040516020016113aa929190612bd9565b60405160208183030381529060405292505050919050565b600880546113cf90612aa6565b80601f01602080910402602001604051908101604052809291908181526020018280546113fb90612aa6565b80156114485780601f1061141d57610100808354040283529160200191611448565b820191906000526020600020905b81548152906001019060200180831161142b57829003601f168201915b505050505081565b60006114646009546001600160a01b031690565b6001600160a01b0316336001600160a01b031614905090565b6000828152600f60205260409020805461149690612aa6565b1590506114d75760405162461bcd60e51b815260206004820152600f60248201526e15549248185b1c9958591e481cd95d608a1b6044820152606401610603565b6000828152600f602052604090206109148282612c56565b6000546001600160a01b03841661151857604051622e076360e81b815260040160405180910390fd5b826000036115395760405163b562e8dd60e01b815260040160405180910390fd5b61154660008583866121f0565b6001600160a01b038416600081815260056020908152604080832080546fffffffffffffffffffffffffffffffff1981166001600160401b038083168b0181169182176801000000000000000067ffffffffffffffff1990941690921783900481168b01811690920217909155858452600490925290912080546001600160e01b0319168317600160a01b42909316929092029190911790558190818501903b1561165c575b60405182906001600160a01b03881690600090600080516020612e11833981519152908290a46116256000878480600101955087611e87565b611642576040516368d2bf6b60e11b815260040160405180910390fd5b8082106115ec57826000541461165757600080fd5b61168f565b5b6040516001830192906001600160a01b03881690600090600080516020612e11833981519152908290a480821061165d575b506000908155610c549085838684565b60008054821080156106a4575050600090815260046020526040902054600160e01b900460ff161590565b600980546001600160a01b038381166001600160a01b0319831681179093556040519116919082907f8292fce18fa69edf4db7b94ea2e58241df0ae57f97e0a6c9b29067028bf92d7690600090a35050565b600061172782611b55565b9050836001600160a01b031681600001516001600160a01b03161461175e5760405162a1148160e81b815260040160405180910390fd5b6000336001600160a01b038616148061177c575061177c85336105b1565b8061179757503361178c84610826565b6001600160a01b0316145b9050806117b757604051632ce44b5f60e11b815260040160405180910390fd5b6001600160a01b0384166117de57604051633a954ecd60e21b815260040160405180910390fd5b6117eb85858560016121f0565b6117f76000848761229f565b6001600160a01b038581166000908152600560209081526040808320805467ffffffffffffffff198082166001600160401b0392831660001901831617909255898616808652838620805493841693831660019081018416949094179055898652600490945282852080546001600160e01b031916909417600160a01b429092169190910217835587018084529220805491939091166118cb5760005482146118cb57805460208601516001600160401b0316600160a01b026001600160e01b03199091166001600160a01b038a16171781555b50505082846001600160a01b0316866001600160a01b0316600080516020612e1183398151915260405160405180910390a45050505050565b600061190f83611b55565b80519091508215611975576000336001600160a01b0383161480611938575061193882336105b1565b8061195357503361194886610826565b6001600160a01b0316145b90508061197357604051632ce44b5f60e11b815260040160405180910390fd5b505b6119838160008660016121f0565b61198f6000858361229f565b6001600160a01b0380821660008181526005602090815260408083208054600160801b6000196001600160401b0380841691909101811667ffffffffffffffff198416811783900482166001908101831690930277ffffffffffffffff0000000000000000ffffffffffffffff19909416179290921783558b86526004909452828520805460ff60e01b1942909316600160a01b026001600160e01b03199091169097179690961716600160e01b178555918901808452922080549194909116611a8d576000548214611a8d57805460208701516001600160401b0316600160a01b026001600160e01b03199091166001600160a01b038716171781555b5050604051869250600091506001600160a01b03841690600080516020612e11833981519152908390a4505060018054810190555050565b612710811115611af357604051630a4930ad60e31b8152612710600482015260248101829052604401610603565b600a80546001600160a01b0384166001600160b01b03199091168117600160a01b61ffff851602179091556040518281527f90d7ec04bcb8978719414f82e52e4cb651db41d0e6f8cea6118c2191e6183adb9060200160405180910390a25050565b604080516060810182526000808252602082018190529181019190915281600054811015611c5657600081815260046020908152604091829020825160608101845290546001600160a01b0381168252600160a01b81046001600160401b031692820192909252600160e01b90910460ff16151591810182905290611c545780516001600160a01b031615611beb579392505050565b5060001901600081815260046020908152604091829020825160608101845290546001600160a01b038116808352600160a01b82046001600160401b031693830193909352600160e01b900460ff1615159281019290925215611c4f579392505050565b611beb565b505b604051636f96cda160e11b815260040160405180910390fd5b600080611c7c8486612d15565b600c8054600181019091557fdf6966c971051c3d54ec59162606531493a51404a002842f56009d7e5cf4a8c7018190556000818152600d60205260409020909250829150611cca8482612c56565b50935093915050565b600060088054611ce290612aa6565b80601f0160208091040260200160405190810160405280929190818152602001828054611d0e90612aa6565b8015611d5b5780601f10611d3057610100808354040283529160200191611d5b565b820191906000526020600020905b815481529060010190602001808311611d3e57829003601f168201915b505050505090508160089081611d719190612c56565b507fc9c7c3fe08b88b4df9d4d47ef47d2c43d55c025a0ba88ca442580ed9e7348a168183604051611da3929190612d28565b60405180910390a15050565b612710811115611ddd57604051630a4930ad60e31b8152612710600482015260248101829052604401610603565b6040805180820182526001600160a01b0384811680835260208084018681526000898152600b8352869020945185546001600160a01b031916941693909317845591516001909301929092559151838152909185917f7365cf4122f072a3365c20d54eff9b38d73c096c28e1892ec8f5b0e403a0f12d910160405180910390a3505050565b6060610f888383604051806060016040528060278152602001612dea602791396122fb565b604051630a85bd0160e11b81526000906001600160a01b0385169063150b7a0290611ebc903390899088908890600401612d56565b6020604051808303816000875af1925050508015611ef7575060408051601f3d908101601f19168201909252611ef491810190612d89565b60015b611f55573d808015611f25576040519150601f19603f3d011682016040523d82523d6000602084013e611f2a565b606091505b508051600003611f4d576040516368d2bf6b60e11b815260040160405180910390fd5b805181602001fd5b6001600160e01b031916630a85bd0160e11b149050949350505050565b60606000611f7f600c5490565b90506000600c805480602002602001604051908101604052809291908181526020018280548015611fcf57602002820191906000526020600020905b815481526020019060010190808311611fbb575b5050505050905060005b828110156120d357818181518110611ff357611ff3612ae0565b60200260200101518510156120c157600d600083838151811061201857612018612ae0565b60200260200101518152602001908152602001600020805461203990612aa6565b80601f016020809104026020016040519081016040528092919081815260200182805461206590612aa6565b80156120b25780601f10612087576101008083540402835291602001916120b2565b820191906000526020600020905b81548152906001019060200180831161209557829003601f168201915b50505050509350505050919050565b6120cc600182612d15565b9050611fd9565b506040516309797f6960e21b815260048101859052602401610603565b6060816000036121175750506040805180820190915260018152600360fc1b602082015290565b8160005b8115612141578061212b81612bc0565b915061213a9050600a83612b39565b915061211b565b6000816001600160401b0381111561215b5761215b61242d565b6040519080825280601f01601f191660200182016040528015612185576020820181803683370190505b5090505b8415610a1e5761219a600183612da6565b91506121a7600a86612db9565b6121b2906030612d15565b60f81b8183815181106121c7576121c7612ae0565b60200101906001600160f81b031916908160001a9053506121e9600a86612b39565b9450612189565b60105460ff16801561220a57506001600160a01b03841615155b801561221e57506001600160a01b03831615155b15610c545760405162461bcd60e51b8152602060048201526044602482018190527f536572746966696b617420696e69206164616c6168204b726564656e7369616c908201527f20536f756c626f756e642064616e20746964616b20626973612064697472616e60648201526339b332b960e11b608482015260a401610603565b60008281526006602052604080822080546001600160a01b0319166001600160a01b0387811691821790925591518593918516917f8c5be1e5ebec7d5bd14f71427d1e84f3dd0314c0f7b2291e5b200ac8c7c3b92591a4505050565b6060600080856001600160a01b0316856040516123189190612dcd565b600060405180830381855af49150503d8060008114612353576040519150601f19603f3d011682016040523d82523d6000602084013e612358565b606091505b509150915061236986838387612373565b9695505050505050565b606083156123e25782516000036123db576001600160a01b0385163b6123db5760405162461bcd60e51b815260206004820152601d60248201527f416464726573733a2063616c6c20746f206e6f6e2d636f6e74726163740000006044820152606401610603565b5081610a1e565b610a1e83838151156123f75781518083602001fd5b8060405162461bcd60e51b815260040161060391906125b2565b80356001600160a01b038116811461242857600080fd5b919050565b634e487b7160e01b600052604160045260246000fd5b604051601f8201601f191681016001600160401b038111828210171561246b5761246b61242d565b604052919050565b600082601f83011261248457600080fd5b81356001600160401b0381111561249d5761249d61242d565b6124b0601f8201601f1916602001612443565b8181528460208386010111156124c557600080fd5b816020850160208301376000918101602001919091529392505050565b600080604083850312156124f557600080fd5b6124fe83612411565b915060208301356001600160401b0381111561251957600080fd5b61252585828601612473565b9150509250929050565b6001600160e01b03198116811461090657600080fd5b60006020828403121561255757600080fd5b8135610f888161252f565b60005b8381101561257d578181015183820152602001612565565b50506000910152565b6000815180845261259e816020860160208601612562565b601f01601f19169290920160200192915050565b602081526000610f886020830184612586565b6000602082840312156125d757600080fd5b5035919050565b600080604083850312156125f157600080fd5b6125fa83612411565b946020939093013593505050565b60006020828403121561261a57600080fd5b610f8882612411565b60008060006060848603121561263857600080fd5b61264184612411565b925061264f60208501612411565b9150604084013590509250925092565b6000806040838503121561267257600080fd5b50508035926020909101359150565b6000602080838503121561269457600080fd5b82356001600160401b03808211156126ab57600080fd5b818501915085601f8301126126bf57600080fd5b8135818111156126d1576126d161242d565b8060051b91506126e2848301612443565b81815291830184019184810190888411156126fc57600080fd5b938501935b8385101561271a57843582529385019390850190612701565b98975050505050505050565b6020808252825182820181905260009190848201906040850190845b81811015610d935761277d83855180516001600160a01b031682526020808201516001600160401b0316908301526040908101511515910152565b9284019260609290920191600101612742565b600080600080608085870312156127a657600080fd5b6127af85612411565b93506020850135925060408501356001600160401b03808211156127d257600080fd5b6127de88838901612473565b935060608701359150808211156127f457600080fd5b5061280187828801612473565b91505092959194509250565b6020808252825182820181905260009190848201906040850190845b81811015610d9357835183529284019291840191600101612829565b60006020828403121561285757600080fd5b81356001600160401b0381111561286d57600080fd5b610a1e84828501612473565b60008060006060848603121561288e57600080fd5b61289784612411565b95602085013595506040909401359392505050565b6000806000606084860312156128c157600080fd5b8335925061264f60208501612411565b600080604083850312156128e457600080fd5b6128ed83612411565b91506020830135801515811461290257600080fd5b809150509250929050565b6000806020838503121561292057600080fd5b82356001600160401b038082111561293757600080fd5b818501915085601f83011261294b57600080fd5b81358181111561295a57600080fd5b8660208260051b850101111561296f57600080fd5b60209290920196919550909350505050565b6000602080830181845280855180835260408601915060408160051b870101925083870160005b828110156129d657603f198886030184526129c4858351612586565b945092850192908501906001016129a8565b5092979650505050505050565b600080600080608085870312156129f957600080fd5b612a0285612411565b9350612a1060208601612411565b92506040850135915060608501356001600160401b03811115612a3257600080fd5b61280187828801612473565b81516001600160a01b031681526020808301516001600160401b031690820152604080830151151590820152606081016106a4565b60008060408385031215612a8657600080fd5b612a8f83612411565b9150612a9d60208401612411565b90509250929050565b600181811c90821680612aba57607f821691505b602082108103612ada57634e487b7160e01b600052602260045260246000fd5b50919050565b634e487b7160e01b600052603260045260246000fd5b634e487b7160e01b600052601160045260246000fd5b80820281158282048414176106a4576106a4612af6565b634e487b7160e01b600052601260045260246000fd5b600082612b4857612b48612b23565b500490565b6000808335601e19843603018112612b6457600080fd5b8301803591506001600160401b03821115612b7e57600080fd5b602001915036819003821315612b9357600080fd5b9250929050565b8284823760609190911b6bffffffffffffffffffffffff19169101908152601401919050565b600060018201612bd257612bd2612af6565b5060010190565b60008351612beb818460208801612562565b835190830190612bff818360208801612562565b01949350505050565b601f82111561091457600081815260208120601f850160051c81016020861015612c2f5750805b601f850160051c820191505b81811015612c4e57828155600101612c3b565b505050505050565b81516001600160401b03811115612c6f57612c6f61242d565b612c8381612c7d8454612aa6565b84612c08565b602080601f831160018114612cb85760008415612ca05750858301515b600019600386901b1c1916600185901b178555612c4e565b600085815260208120601f198616915b82811015612ce757888601518255948401946001909101908401612cc8565b5085821015612d055787850151600019600388901b60f8161c191681555b5050505050600190811b01905550565b808201808211156106a4576106a4612af6565b604081526000612d3b6040830185612586565b8281036020840152612d4d8185612586565b95945050505050565b6001600160a01b038581168252841660208201526040810183905260806060820181905260009061236990830184612586565b600060208284031215612d9b57600080fd5b8151610f888161252f565b818103818111156106a4576106a4612af6565b600082612dc857612dc8612b23565b500690565b60008251612ddf818460208701612562565b919091019291505056fe416464726573733a206c6f772d6c6576656c2064656c65676174652063616c6c206661696c6564ddf252ad1be2c89b69c2b068fc378daa952ba7f163c4a11628f55a4df523b3efa2646970667358221220d427104c68ec418c85ef5fabe039377434c1d4b3ce69ad78cf5f51e6dacec42f64736f6c63430008140033",
  "linkReferences": {},
  "deployedLinkReferences": {}
}